{
  "_format": "hh-sol-artifact-1",
  "contractName": "ArbitrumTargetDispenserL2",
  "sourceName": "contracts/staking/ArbitrumTargetDispenserL2.sol",
  "abi": [
    {
      "inputs": [
        {
          "internalType": "address",
          "name": "_olas",
          "type": "address"
        },
        {
          "internalType": "address",
          "name": "_proxyFactory",
          "type": "address"
        },
        {
          "internalType": "address",
          "name": "_l2MessageRelayer",
          "type": "address"
        },
        {
          "internalType": "address",
          "name": "_l1DepositProcessor",
          "type": "address"
        },
        {
          "internalType": "uint256",
          "name": "_l1SourceChainId",
          "type": "uint256"
        }
      ],
      "stateMutability": "nonpayable",
      "type": "constructor"
    },
    {
      "inputs": [
        {
          "internalType": "bytes32",
          "name": "deliveryHash",
          "type": "bytes32"
        }
      ],
      "name": "AlreadyDelivered",
      "type": "error"
    },
    {
      "inputs": [
        {
          "internalType": "uint256",
          "name": "expected",
          "type": "uint256"
        },
        {
          "internalType": "uint256",
          "name": "provided",
          "type": "uint256"
        }
      ],
      "name": "IncorrectDataLength",
      "type": "error"
    },
    {
      "inputs": [
        {
          "internalType": "uint256",
          "name": "provided",
          "type": "uint256"
        },
        {
          "internalType": "uint256",
          "name": "expected",
          "type": "uint256"
        }
      ],
      "name": "InsufficientBalance",
      "type": "error"
    },
    {
      "inputs": [
        {
          "internalType": "uint256",
          "name": "provided",
          "type": "uint256"
        },
        {
          "internalType": "uint256",
          "name": "expected",
          "type": "uint256"
        }
      ],
      "name": "LowerThan",
      "type": "error"
    },
    {
      "inputs": [
        {
          "internalType": "address",
          "name": "sender",
          "type": "address"
        },
        {
          "internalType": "address",
          "name": "manager",
          "type": "address"
        }
      ],
      "name": "ManagerOnly",
      "type": "error"
    },
    {
      "inputs": [
        {
          "internalType": "uint256",
          "name": "provided",
          "type": "uint256"
        },
        {
          "internalType": "uint256",
          "name": "max",
          "type": "uint256"
        }
      ],
      "name": "Overflow",
      "type": "error"
    },
    {
      "inputs": [
        {
          "internalType": "address",
          "name": "sender",
          "type": "address"
        },
        {
          "internalType": "address",
          "name": "owner",
          "type": "address"
        }
      ],
      "name": "OwnerOnly",
      "type": "error"
    },
    {
      "inputs": [],
      "name": "Paused",
      "type": "error"
    },
    {
      "inputs": [],
      "name": "ReentrancyGuard",
      "type": "error"
    },
    {
      "inputs": [
        {
          "internalType": "address",
          "name": "target",
          "type": "address"
        },
        {
          "internalType": "uint256",
          "name": "amount",
          "type": "uint256"
        },
        {
          "internalType": "uint256",
          "name": "batchNonce",
          "type": "uint256"
        }
      ],
      "name": "TargetAmountNotQueued",
      "type": "error"
    },
    {
      "inputs": [
        {
          "internalType": "address",
          "name": "provided",
          "type": "address"
        },
        {
          "internalType": "address",
          "name": "expected",
          "type": "address"
        }
      ],
      "name": "TargetRelayerOnly",
      "type": "error"
    },
    {
      "inputs": [
        {
          "internalType": "address",
          "name": "token",
          "type": "address"
        },
        {
          "internalType": "address",
          "name": "from",
          "type": "address"
        },
        {
          "internalType": "address",
          "name": "to",
          "type": "address"
        },
        {
          "internalType": "uint256",
          "name": "amount",
          "type": "uint256"
        }
      ],
      "name": "TransferFailed",
      "type": "error"
    },
    {
      "inputs": [],
      "name": "Unpaused",
      "type": "error"
    },
    {
      "inputs": [
        {
          "internalType": "address",
          "name": "account",
          "type": "address"
        }
      ],
      "name": "WrongAccount",
      "type": "error"
    },
    {
      "inputs": [
        {
          "internalType": "uint256",
          "name": "provided",
          "type": "uint256"
        },
        {
          "internalType": "uint256",
          "name": "expected",
          "type": "uint256"
        }
      ],
      "name": "WrongAmount",
      "type": "error"
    },
    {
      "inputs": [
        {
          "internalType": "uint256",
          "name": "provided",
          "type": "uint256"
        },
        {
          "internalType": "uint256",
          "name": "expected",
          "type": "uint256"
        }
      ],
      "name": "WrongChainId",
      "type": "error"
    },
    {
      "inputs": [
        {
          "internalType": "address",
          "name": "provided",
          "type": "address"
        },
        {
          "internalType": "address",
          "name": "expected",
          "type": "address"
        }
      ],
      "name": "WrongMessageSender",
      "type": "error"
    },
    {
      "inputs": [
        {
          "internalType": "address",
          "name": "provided",
          "type": "address"
        },
        {
          "internalType": "address",
          "name": "expected",
          "type": "address"
        }
      ],
      "name": "WrongTokenAddress",
      "type": "error"
    },
    {
      "inputs": [],
      "name": "ZeroAddress",
      "type": "error"
    },
    {
      "inputs": [],
      "name": "ZeroValue",
      "type": "error"
    },
    {
      "anonymous": false,
      "inputs": [
        {
          "indexed": true,
          "internalType": "address",
          "name": "target",
          "type": "address"
        },
        {
          "indexed": false,
          "internalType": "uint256",
          "name": "amount",
          "type": "uint256"
        }
      ],
      "name": "AmountWithheld",
      "type": "event"
    },
    {
      "anonymous": false,
      "inputs": [
        {
          "indexed": true,
          "internalType": "address",
          "name": "owner",
          "type": "address"
        },
        {
          "indexed": false,
          "internalType": "uint256",
          "name": "amount",
          "type": "uint256"
        }
      ],
      "name": "Drain",
      "type": "event"
    },
    {
      "anonymous": false,
      "inputs": [
        {
          "indexed": true,
          "internalType": "address",
          "name": "sender",
          "type": "address"
        },
        {
          "indexed": false,
          "internalType": "uint256",
          "name": "value",
          "type": "uint256"
        }
      ],
      "name": "FundsReceived",
      "type": "event"
    },
    {
      "anonymous": false,
      "inputs": [
        {
          "indexed": true,
          "internalType": "uint256",
          "name": "sequence",
          "type": "uint256"
        },
        {
          "indexed": true,
          "internalType": "address",
          "name": "messageSender",
          "type": "address"
        },
        {
          "indexed": true,
          "internalType": "address",
          "name": "l1Processor",
          "type": "address"
        },
        {
          "indexed": false,
          "internalType": "uint256",
          "name": "amount",
          "type": "uint256"
        }
      ],
      "name": "MessagePosted",
      "type": "event"
    },
    {
      "anonymous": false,
      "inputs": [
        {
          "indexed": true,
          "internalType": "address",
          "name": "sender",
          "type": "address"
        },
        {
          "indexed": false,
          "internalType": "uint256",
          "name": "chainId",
          "type": "uint256"
        },
        {
          "indexed": false,
          "internalType": "bytes",
          "name": "data",
          "type": "bytes"
        }
      ],
      "name": "MessageReceived",
      "type": "event"
    },
    {
      "anonymous": false,
      "inputs": [
        {
          "indexed": true,
          "internalType": "address",
          "name": "sender",
          "type": "address"
        },
        {
          "indexed": true,
          "internalType": "address",
          "name": "newL2TargetDispenser",
          "type": "address"
        },
        {
          "indexed": false,
          "internalType": "uint256",
          "name": "amount",
          "type": "uint256"
        }
      ],
      "name": "Migrated",
      "type": "event"
    },
    {
      "anonymous": false,
      "inputs": [
        {
          "indexed": true,
          "internalType": "address",
          "name": "owner",
          "type": "address"
        }
      ],
      "name": "OwnerUpdated",
      "type": "event"
    },
    {
      "anonymous": false,
      "inputs": [
        {
          "indexed": true,
          "internalType": "bytes32",
          "name": "queueHash",
          "type": "bytes32"
        },
        {
          "indexed": true,
          "internalType": "address",
          "name": "target",
          "type": "address"
        },
        {
          "indexed": false,
          "internalType": "uint256",
          "name": "amount",
          "type": "uint256"
        },
        {
          "indexed": false,
          "internalType": "uint256",
          "name": "batchNonce",
          "type": "uint256"
        },
        {
          "indexed": false,
          "internalType": "uint256",
          "name": "paused",
          "type": "uint256"
        }
      ],
      "name": "StakingRequestQueued",
      "type": "event"
    },
    {
      "anonymous": false,
      "inputs": [
        {
          "indexed": true,
          "internalType": "address",
          "name": "target",
          "type": "address"
        },
        {
          "indexed": false,
          "internalType": "uint256",
          "name": "amount",
          "type": "uint256"
        }
      ],
      "name": "StakingTargetDeposited",
      "type": "event"
    },
    {
      "anonymous": false,
      "inputs": [],
      "name": "TargetDispenserPaused",
      "type": "event"
    },
    {
      "anonymous": false,
      "inputs": [],
      "name": "TargetDispenserUnpaused",
      "type": "event"
    },
    {
      "anonymous": false,
      "inputs": [
        {
          "indexed": true,
          "internalType": "address",
          "name": "sender",
          "type": "address"
        },
        {
          "indexed": false,
          "internalType": "uint256",
          "name": "amount",
          "type": "uint256"
        }
      ],
      "name": "WithheldAmountSynced",
      "type": "event"
    },
    {
      "inputs": [],
      "name": "GAS_LIMIT",
      "outputs": [
        {
          "internalType": "uint256",
          "name": "",
          "type": "uint256"
        }
      ],
      "stateMutability": "view",
      "type": "function"
    },
    {
      "inputs": [],
      "name": "MAX_CHAIN_ID",
      "outputs": [
        {
          "internalType": "uint256",
          "name": "",
          "type": "uint256"
        }
      ],
      "stateMutability": "view",
      "type": "function"
    },
    {
      "inputs": [],
      "name": "MAX_GAS_LIMIT",
      "outputs": [
        {
          "internalType": "uint256",
          "name": "",
          "type": "uint256"
        }
      ],
      "stateMutability": "view",
      "type": "function"
    },
    {
      "inputs": [],
      "name": "RECEIVE_MESSAGE",
      "outputs": [
        {
          "internalType": "bytes4",
          "name": "",
          "type": "bytes4"
        }
      ],
      "stateMutability": "view",
      "type": "function"
    },
    {
      "inputs": [
        {
          "internalType": "address",
          "name": "newOwner",
          "type": "address"
        }
      ],
      "name": "changeOwner",
      "outputs": [],
      "stateMutability": "nonpayable",
      "type": "function"
    },
    {
      "inputs": [],
      "name": "drain",
      "outputs": [
        {
          "internalType": "uint256",
          "name": "amount",
          "type": "uint256"
        }
      ],
      "stateMutability": "nonpayable",
      "type": "function"
    },
    {
      "inputs": [],
      "name": "l1AliasedDepositProcessor",
      "outputs": [
        {
          "internalType": "address",
          "name": "",
          "type": "address"
        }
      ],
      "stateMutability": "view",
      "type": "function"
    },
    {
      "inputs": [],
      "name": "l1DepositProcessor",
      "outputs": [
        {
          "internalType": "address",
          "name": "",
          "type": "address"
        }
      ],
      "stateMutability": "view",
      "type": "function"
    },
    {
      "inputs": [],
      "name": "l1SourceChainId",
      "outputs": [
        {
          "internalType": "uint256",
          "name": "",
          "type": "uint256"
        }
      ],
      "stateMutability": "view",
      "type": "function"
    },
    {
      "inputs": [],
      "name": "l2MessageRelayer",
      "outputs": [
        {
          "internalType": "address",
          "name": "",
          "type": "address"
        }
      ],
      "stateMutability": "view",
      "type": "function"
    },
    {
      "inputs": [
        {
          "internalType": "address",
          "name": "newL2TargetDispenser",
          "type": "address"
        }
      ],
      "name": "migrate",
      "outputs": [],
      "stateMutability": "nonpayable",
      "type": "function"
    },
    {
      "inputs": [],
      "name": "olas",
      "outputs": [
        {
          "internalType": "address",
          "name": "",
          "type": "address"
        }
      ],
      "stateMutability": "view",
      "type": "function"
    },
    {
      "inputs": [],
      "name": "owner",
      "outputs": [
        {
          "internalType": "address",
          "name": "",
          "type": "address"
        }
      ],
      "stateMutability": "view",
      "type": "function"
    },
    {
      "inputs": [],
      "name": "pause",
      "outputs": [],
      "stateMutability": "nonpayable",
      "type": "function"
    },
    {
      "inputs": [],
      "name": "paused",
      "outputs": [
        {
          "internalType": "uint8",
          "name": "",
          "type": "uint8"
        }
      ],
      "stateMutability": "view",
      "type": "function"
    },
    {
      "inputs": [
        {
          "internalType": "bytes",
          "name": "data",
          "type": "bytes"
        }
      ],
      "name": "processDataMaintenance",
      "outputs": [],
      "stateMutability": "nonpayable",
      "type": "function"
    },
    {
      "inputs": [
        {
          "internalType": "bytes",
          "name": "data",
          "type": "bytes"
        }
      ],
      "name": "receiveMessage",
      "outputs": [],
      "stateMutability": "payable",
      "type": "function"
    },
    {
      "inputs": [
        {
          "internalType": "address",
          "name": "target",
          "type": "address"
        },
        {
          "internalType": "uint256",
          "name": "amount",
          "type": "uint256"
        },
        {
          "internalType": "uint256",
          "name": "batchNonce",
          "type": "uint256"
        }
      ],
      "name": "redeem",
      "outputs": [],
      "stateMutability": "nonpayable",
      "type": "function"
    },
    {
      "inputs": [],
      "name": "stakingBatchNonce",
      "outputs": [
        {
          "internalType": "uint256",
          "name": "",
          "type": "uint256"
        }
      ],
      "stateMutability": "view",
      "type": "function"
    },
    {
      "inputs": [],
      "name": "stakingFactory",
      "outputs": [
        {
          "internalType": "address",
          "name": "",
          "type": "address"
        }
      ],
      "stateMutability": "view",
      "type": "function"
    },
    {
      "inputs": [
        {
          "internalType": "bytes32",
          "name": "",
          "type": "bytes32"
        }
      ],
      "name": "stakingQueueingNonces",
      "outputs": [
        {
          "internalType": "bool",
          "name": "",
          "type": "bool"
        }
      ],
      "stateMutability": "view",
      "type": "function"
    },
    {
      "inputs": [
        {
          "internalType": "bytes",
          "name": "bridgePayload",
          "type": "bytes"
        }
      ],
      "name": "syncWithheldTokens",
      "outputs": [],
      "stateMutability": "payable",
      "type": "function"
    },
    {
      "inputs": [],
      "name": "unpause",
      "outputs": [],
      "stateMutability": "nonpayable",
      "type": "function"
    },
    {
      "inputs": [],
      "name": "withheldAmount",
      "outputs": [
        {
          "internalType": "uint256",
          "name": "",
          "type": "uint256"
        }
      ],
      "stateMutability": "view",
      "type": "function"
    },
    {
      "stateMutability": "payable",
      "type": "receive"
    }
  ],
  "bytecode": "0x610140604052348015610010575f80fd5b506040516125ff3803806125ff83398101604081905261002f916101c8565b84848484846001600160a01b038516158061005157506001600160a01b038416155b8061006357506001600160a01b038316155b8061007557506001600160a01b038216155b156100935760405163d92e233d60e01b815260040160405180910390fd5b805f036100b357604051637c946ed760e01b815260040160405180910390fd5b60246100c760026001600160401b03610222565b6100d19190610253565b6001600160401b031681111561012f578060246100f660026001600160401b03610222565b6101009190610253565b604051637ae5968560e01b815260048101929092526001600160401b0316602482015260440160405180910390fd5b6001600160a01b0394851660805292841660a05290831660c052821660e052610100526002805460ff60a81b1960ff60a01b1933166001600160a81b031990921691909117600160a01b1716600160a81b17905573111100000000000000000000000000000000111192909201909116610120525061028692505050565b80516001600160a01b03811681146101c3575f80fd5b919050565b5f805f805f60a086880312156101dc575f80fd5b6101e5866101ad565b94506101f3602087016101ad565b9350610201604087016101ad565b925061020f606087016101ad565b9150608086015190509295509295909350565b5f6001600160401b038381168061024757634e487b7160e01b5f52601260045260245ffd5b92169190910492915050565b6001600160401b0382811682821603908082111561027f57634e487b7160e01b5f52601160045260245ffd5b5092915050565b60805160a05160c05160e051610100516101205161229f6103605f395f81816105b50152818161133a015261139501525f818161050f0152611da501525f81816102d8015281816113e80152818161154b015281816115b901528181611cbc01528181611d2b0152611d5a01525f81816102a5015281816113c70152818161151e01528181611c1e0152611c8d01525f818161030b015261179201525f8181610231015281816108b60152818161096f01528181611122015281816111dc0152818161127f0152818161192601526119e9015261229f5ff3fe608060405260043610610185575f3560e01c8063713d1a4e116100d1578063bddc966e1161007c578063eec8fddc11610057578063eec8fddc146105a4578063f4427c2c146105d7578063f953cec7146105ec575f80fd5b8063bddc966e14610550578063ce5494bb1461056f578063e3f5aa511461058e575f80fd5b80639890220b116100ac5780639890220b146104ea5780639b7bb847146104fe578063a6f9dae114610531575f80fd5b8063713d1a4e146104795780638456cb59146104b75780638da5cb5b146104cb575f80fd5b80632b83cccd116101315780635a7287cf1161010c5780635a7287cf1461040e5780635bc105c0146104225780635c975abb14610436575f80fd5b80632b83cccd146103425780633f4ba83a1461036157806354d20cc214610375575f80fd5b8063256359a811610161578063256359a8146102c757806329134768146102fa57806329f404cd1461032d575f80fd5b806231d11514610220578063091d2788146102705780631bad595714610294575f80fd5b3661021c576002546001600160a01b03166101e5576040517fcd3f16590000000000000000000000000000000000000000000000000000000081525f60048201523360248201523060448201523460648201526084015b60405180910390fd5b60405134815233907f8e47b87b0ef542cdfa1659c551d88bad38aa7f452d2bbb349ab7530dfec8be8f9060200160405180910390a2005b5f80fd5b34801561022b575f80fd5b506102537f000000000000000000000000000000000000000000000000000000000000000081565b6040516001600160a01b0390911681526020015b60405180910390f35b34801561027b575f80fd5b50610286620493e081565b604051908152602001610267565b34801561029f575f80fd5b506102537f000000000000000000000000000000000000000000000000000000000000000081565b3480156102d2575f80fd5b506102537f000000000000000000000000000000000000000000000000000000000000000081565b348015610305575f80fd5b506102537f000000000000000000000000000000000000000000000000000000000000000081565b61034061033b366004611e47565b6105ff565b005b34801561034d575f80fd5b5061034061035c366004611eea565b61073e565b34801561036c575f80fd5b50610340610b1a565b348015610380575f80fd5b5060408051808201909152601581527f726563656976654d6573736167652862797465732900000000000000000000006020909101526103dd7ff953cec75ae677942d7cda5cb6d12c0cb96a0904bf37d36301eef297b83c411d81565b6040517fffffffff000000000000000000000000000000000000000000000000000000009091168152602001610267565b348015610419575f80fd5b506102865f5481565b34801561042d575f80fd5b50610286610bc3565b348015610441575f80fd5b506002546104679074010000000000000000000000000000000000000000900460ff1681565b60405160ff9091168152602001610267565b348015610484575f80fd5b506104a7610493366004611f1c565b60036020525f908152604090205460ff1681565b6040519015158152602001610267565b3480156104c2575f80fd5b50610340610bef565b3480156104d6575f80fd5b50600254610253906001600160a01b031681565b3480156104f5575f80fd5b50610286610c98565b348015610509575f80fd5b506102867f000000000000000000000000000000000000000000000000000000000000000081565b34801561053c575f80fd5b5061034061054b366004611f33565b610e49565b34801561055b575f80fd5b5061034061056a366004611e47565b610f2a565b34801561057a575f80fd5b50610340610589366004611f33565b610f76565b348015610599575f80fd5b50610286621e848081565b3480156105af575f80fd5b506102537f000000000000000000000000000000000000000000000000000000000000000081565b3480156105e2575f80fd5b5061028660015481565b6103406105fa366004611e47565b61132f565b6002546001600160a81b90910460ff16111561062e576040516345f5ce8b60e11b815260040160405180910390fd5b6002805460ff60a81b191675020000000000000000000000000000000000000000001780825560ff740100000000000000000000000000000000000000009091041690036106a8576040517f9e87fac800000000000000000000000000000000000000000000000000000000815260040160405180910390fd5b5f8054908190036106e5576040517f7c946ed700000000000000000000000000000000000000000000000000000000815260040160405180910390fd5b5f80556106f2818361140d565b60405181815233907f1f66db2d1b55aa051fdccd3766b268ce96758f0fd6741988a4ccf060e0e0a3999060200160405180910390a250506002805460ff60a81b1916600160a81b179055565b6002546001600160a81b90910460ff16111561076d576040516345f5ce8b60e11b815260040160405180910390fd5b6002805460ff60a81b191675020000000000000000000000000000000000000000001780825560ff740100000000000000000000000000000000000000009091041690036107e7576040517f9e87fac800000000000000000000000000000000000000000000000000000000815260040160405180910390fd5b604080516001600160a01b0385166020820152908101839052606081018290525f9060800160408051601f1981840301815291815281516020928301205f818152600390935291205490915060ff1680610886576040517f35433ff10000000000000000000000000000000000000000000000000000000081526001600160a01b038616600482015260248101859052604481018490526064016101dc565b6040517f70a082310000000000000000000000000000000000000000000000000000000081523060048201525f907f00000000000000000000000000000000000000000000000000000000000000006001600160a01b0316906370a0823190602401602060405180830381865afa158015610903573d5f803e3d5ffd5b505050506040513d601f19601f820116820180604052508101906109279190611f55565b9050848110610ac3576040517f095ea7b30000000000000000000000000000000000000000000000000000000081526001600160a01b038781166004830152602482018790527f0000000000000000000000000000000000000000000000000000000000000000169063095ea7b3906044016020604051808303815f875af11580156109b5573d5f803e3d5ffd5b505050506040513d601f19601f820116820180604052508101906109d99190611f6c565b506040517fb6b55f25000000000000000000000000000000000000000000000000000000008152600481018690526001600160a01b0387169063b6b55f25906024015f604051808303815f87803b158015610a32575f80fd5b505af1158015610a44573d5f803e3d5ffd5b50505050856001600160a01b03167f36d504751ef1ab82703e2675ab3d5e230c810cd1962cec9f40d96f9ca0e881f386604051610a8391815260200190565b60405180910390a25f83815260036020526040902080547fffffffffffffffffffffffffffffffffffffffffffffffffffffffffffffff00169055610aff565b6040517fcf47918100000000000000000000000000000000000000000000000000000000815260048101829052602481018690526044016101dc565b50506002805460ff60a81b1916600160a81b17905550505050565b6002546001600160a01b03163314610b5a5760025460405163521eb56d60e11b81523360048201526001600160a01b0390911660248201526044016101dc565b600280547fffffffffffffffffffffff00ffffffffffffffffffffffffffffffffffffffff16740100000000000000000000000000000000000000001790556040517f20e9b9dbd8158c2b961d8645a7d06624a045634bb65f07ef751ae014a65f61f5905f90a1565b6024610bd8600267ffffffffffffffff611fb8565b610be29190612003565b67ffffffffffffffff1681565b6002546001600160a01b03163314610c2f5760025460405163521eb56d60e11b81523360048201526001600160a01b0390911660248201526044016101dc565b600280547fffffffffffffffffffffff00ffffffffffffffffffffffffffffffffffffffff16740200000000000000000000000000000000000000001790556040517f8ef6a6615a637325c66275a8d4cadb0844f08a758e5a9df369412975bcdcbc48905f90a1565b6002545f906001600160a81b90910460ff161115610cc9576040516345f5ce8b60e11b815260040160405180910390fd5b6002805460ff60a81b1981167502000000000000000000000000000000000000000000179091556001600160a01b03163314610d2d5760025460405163521eb56d60e11b81523360048201526001600160a01b0390911660248201526044016101dc565b479050805f03610d69576040517f7c946ed700000000000000000000000000000000000000000000000000000000815260040160405180910390fd5b6040515f90339083908381818185875af1925050503d805f8114610da8576040519150601f19603f3d011682016040523d82523d5f602084013e610dad565b606091505b5050905080610dfd576040517fcd3f16590000000000000000000000000000000000000000000000000000000081525f6004820152306024820152336044820152606481018390526084016101dc565b60405182815233907ff36f4d6622e16a536bbb049064af779cdd483a0b388d347d3752a65f1058bf5b9060200160405180910390a2506002805460ff60a81b1916600160a81b17905590565b6002546001600160a01b03163314610e895760025460405163521eb56d60e11b81523360048201526001600160a01b0390911660248201526044016101dc565b6001600160a01b038116610ec9576040517fd92e233d00000000000000000000000000000000000000000000000000000000815260040160405180910390fd5b600280547fffffffffffffffffffffffff0000000000000000000000000000000000000000166001600160a01b0383169081179091556040517f4ffd725fc4a22075e9ec71c59edf9c38cdeb588a91b24fc5b61388c5be41282b905f90a250565b6002546001600160a01b03163314610f6a5760025460405163521eb56d60e11b81523360048201526001600160a01b0390911660248201526044016101dc565b610f738161162b565b50565b6002546001600160a81b90910460ff161115610fa5576040516345f5ce8b60e11b815260040160405180910390fd5b6002805460ff60a81b1981167502000000000000000000000000000000000000000000179091556001600160a01b031633146110095760025460405163521eb56d60e11b81523360048201526001600160a01b0390911660248201526044016101dc565b60025474010000000000000000000000000000000000000000900460ff16600103611060576040517fa45f47fd00000000000000000000000000000000000000000000000000000000815260040160405180910390fd5b806001600160a01b03163b5f036110ae576040517f38e04bf20000000000000000000000000000000000000000000000000000000081526001600160a01b03821660048201526024016101dc565b306001600160a01b038216036110f2576040517f38e04bf20000000000000000000000000000000000000000000000000000000081523060048201526024016101dc565b6040517f70a082310000000000000000000000000000000000000000000000000000000081523060048201525f907f00000000000000000000000000000000000000000000000000000000000000006001600160a01b0316906370a0823190602401602060405180830381865afa15801561116f573d5f803e3d5ffd5b505050506040513d601f19601f820116820180604052508101906111939190611f55565b905080156112c3576040517fa9059cbb0000000000000000000000000000000000000000000000000000000081526001600160a01b038381166004830152602482018390525f917f00000000000000000000000000000000000000000000000000000000000000009091169063a9059cbb906044016020604051808303815f875af1158015611224573d5f803e3d5ffd5b505050506040513d601f19601f820116820180604052508101906112489190611f6c565b9050806112c1576040517fcd3f16590000000000000000000000000000000000000000000000000000000081526001600160a01b037f00000000000000000000000000000000000000000000000000000000000000008116600483015230602483015284166044820152606481018390526084016101dc565b505b600280547fffffffffffffffffffffffff00000000000000000000000000000000000000001690556040518181526001600160a01b0383169033907f928fd5531324ee87d76cc5307dc37580174da76b85cd546da631b2670bc266b59060200160405180910390a35050565b336001600160a01b037f000000000000000000000000000000000000000000000000000000000000000016146113c2576040517f0d16cbdd0000000000000000000000000000000000000000000000000000000081523360048201526001600160a01b037f00000000000000000000000000000000000000000000000000000000000000001660248201526044016101dc565b610f737f00000000000000000000000000000000000000000000000000000000000000007f000000000000000000000000000000000000000000000000000000000000000083611c1c565b604080518082018252601581527f726563656976654d65737361676528627974657329000000000000000000000060209182015281519081018490525f917ff953cec75ae677942d7cda5cb6d12c0cb96a0904bf37d36301eef297b83c411d910160408051601f198184030181529082905261148b91602401612059565b60408051601f198184030181529181526020820180517bffffffffffffffffffffffffffffffffffffffffffffffffffffffff167fffffffff000000000000000000000000000000000000000000000000000000009094169390931790925290517f928c169a0000000000000000000000000000000000000000000000000000000081529091505f906001600160a01b037f0000000000000000000000000000000000000000000000000000000000000000169063928c169a90611575907f000000000000000000000000000000000000000000000000000000000000000090869060040161206b565b6020604051808303815f875af1158015611591573d5f803e3d5ffd5b505050506040513d601f19601f820116820180604052508101906115b59190611f55565b90507f00000000000000000000000000000000000000000000000000000000000000006001600160a01b0316336001600160a01b0316827fa83d78b13a863892266b4308df232e47309c90988775e5bb775241801d41e4708760405161161d91815260200190565b60405180910390a450505050565b6002546001600160a81b90910460ff16111561165a576040516345f5ce8b60e11b815260040160405180910390fd5b6002805460ff60a81b1916750200000000000000000000000000000000000000000017905580515f9081906116989060209085018101908501612123565b600154600254929450909250905f9074010000000000000000000000000000000000000000900460ff16815b8551811015611bd7575f8682815181106116e0576116e06121e2565b602002602001015190505f8683815181106116fd576116fd6121e2565b602002602001015190505f8260405160240161172891906001600160a01b0391909116815260200190565b60408051601f198184030181529181526020820180517bffffffffffffffffffffffffffffffffffffffffffffffffffffffff167f1eda94d700000000000000000000000000000000000000000000000000000000179052519091505f9081906001600160a01b037f000000000000000000000000000000000000000000000000000000000000000016906117be90859061220f565b5f604051808303815f865af19150503d805f81146117f7576040519150601f19603f3d011682016040523d82523d5f602084013e6117fc565b606091505b50915091505f828015611810575081516020145b1561182c57818060200190518101906118299190611f55565b90505b805f0361188d5761183d858a612225565b9850856001600160a01b03167f29bd7fae5899787bb9cb5aa121b781bf47bb44cc44f0f3ddd1e1ea383acd22fb8660405161187a91815260200190565b60405180910390a2505050505050611bcf565b808511156118f6575f6118a0828761223e565b90506118ac818b612225565b9950819550866001600160a01b03167f29bd7fae5899787bb9cb5aa121b781bf47bb44cc44f0f3ddd1e1ea383acd22fb826040516118ec91815260200190565b60405180910390a2505b6040517f70a0823100000000000000000000000000000000000000000000000000000000815230600482015285907f00000000000000000000000000000000000000000000000000000000000000006001600160a01b0316906370a0823190602401602060405180830381865afa158015611973573d5f803e3d5ffd5b505050506040513d601f19601f820116820180604052508101906119979190611f55565b101580156119a55750876001145b15611b0a576040517f095ea7b30000000000000000000000000000000000000000000000000000000081526001600160a01b038781166004830152602482018790527f0000000000000000000000000000000000000000000000000000000000000000169063095ea7b3906044016020604051808303815f875af1158015611a2f573d5f803e3d5ffd5b505050506040513d601f19601f82011682018060405250810190611a539190611f6c565b506040517fb6b55f25000000000000000000000000000000000000000000000000000000008152600481018690526001600160a01b0387169063b6b55f25906024015f604051808303815f87803b158015611aac575f80fd5b505af1158015611abe573d5f803e3d5ffd5b50505050856001600160a01b03167f36d504751ef1ab82703e2675ab3d5e230c810cd1962cec9f40d96f9ca0e881f386604051611afd91815260200190565b60405180910390a2611bc8565b604080516001600160a01b0388166020820152908101869052606081018b90525f9060800160408051601f1981840301815282825280516020918201205f8181526003835283902080547fffffffffffffffffffffffffffffffffffffffffffffffffffffffffffffff001660011790558984529083018e90529082018b905291506001600160a01b0388169082907f207f76ffdb73024e39870ab39aa1ad395275ce4714e752c30ddd8fea79a916e89060600160405180910390a3505b5050505050505b6001016116c4565b50611be3836001612225565b6001558115610aff57815f80828254611bfc9190612225565b909155505050506002805460ff60a81b1916600160a81b17905550505050565b7f00000000000000000000000000000000000000000000000000000000000000006001600160a01b0316836001600160a01b031614611cba576040517f2f3111fa0000000000000000000000000000000000000000000000000000000081526001600160a01b0380851660048301527f00000000000000000000000000000000000000000000000000000000000000001660248201526044016101dc565b7f00000000000000000000000000000000000000000000000000000000000000006001600160a01b0316826001600160a01b031614611d58576040517f0d16cbdd0000000000000000000000000000000000000000000000000000000081526001600160a01b0380841660048301527f00000000000000000000000000000000000000000000000000000000000000001660248201526044016101dc565b7f00000000000000000000000000000000000000000000000000000000000000006001600160a01b03167f98bbde530ec85b002f6fb0864beccaaf3ac3d2a4ac35cb3b03cf7c61ee415e337f000000000000000000000000000000000000000000000000000000000000000083604051611dd3929190612251565b60405180910390a2611de48161162b565b505050565b7f4e487b71000000000000000000000000000000000000000000000000000000005f52604160045260245ffd5b604051601f8201601f1916810167ffffffffffffffff81118282101715611e3f57611e3f611de9565b604052919050565b5f6020808385031215611e58575f80fd5b823567ffffffffffffffff80821115611e6f575f80fd5b818501915085601f830112611e82575f80fd5b813581811115611e9457611e94611de9565b611ea684601f19601f84011601611e16565b91508082528684828501011115611ebb575f80fd5b80848401858401375f90820190930192909252509392505050565b6001600160a01b0381168114610f73575f80fd5b5f805f60608486031215611efc575f80fd5b8335611f0781611ed6565b95602085013595506040909401359392505050565b5f60208284031215611f2c575f80fd5b5035919050565b5f60208284031215611f43575f80fd5b8135611f4e81611ed6565b9392505050565b5f60208284031215611f65575f80fd5b5051919050565b5f60208284031215611f7c575f80fd5b81518015158114611f4e575f80fd5b7f4e487b71000000000000000000000000000000000000000000000000000000005f52601160045260245ffd5b5f67ffffffffffffffff80841680611ff7577f4e487b71000000000000000000000000000000000000000000000000000000005f52601260045260245ffd5b92169190910492915050565b67ffffffffffffffff82811682821603908082111561202457612024611f8b565b5092915050565b5f81518084528060208401602086015e5f602082860101526020601f19601f83011685010191505092915050565b602081525f611f4e602083018461202b565b6001600160a01b0383168152604060208201525f61208c604083018461202b565b949350505050565b5f67ffffffffffffffff8211156120ad576120ad611de9565b5060051b60200190565b5f82601f8301126120c6575f80fd5b815160206120db6120d683612094565b611e16565b8083825260208201915060208460051b8701019350868411156120fc575f80fd5b602086015b848110156121185780518352918301918301612101565b509695505050505050565b5f8060408385031215612134575f80fd5b825167ffffffffffffffff8082111561214b575f80fd5b818501915085601f83011261215e575f80fd5b8151602061216e6120d683612094565b82815260059290921b8401810191818101908984111561218c575f80fd5b948201945b838610156121b35785516121a481611ed6565b82529482019490820190612191565b918801519196509093505050808211156121cb575f80fd5b506121d8858286016120b7565b9150509250929050565b7f4e487b71000000000000000000000000000000000000000000000000000000005f52603260045260245ffd5b5f82518060208501845e5f920191825250919050565b8082018082111561223857612238611f8b565b92915050565b8181038181111561223857612238611f8b565b828152604060208201525f61208c604083018461202b56fea2646970667358221220a52aec9120c3fccdc9b8034dbad24cbb0e259f95e8705dd2fbc2f839ec5becac64736f6c63430008190033",
  "linkReferences": {},
  "deployedLinkReferences": {}
}