{
  "_format": "hh-sol-artifact-1",
  "contractName": "ArbitrumDepositProcessorL1",
  "sourceName": "contracts/staking/ArbitrumDepositProcessorL1.sol",
  "abi": [
    {
      "inputs": [
        {
          "internalType": "address",
          "name": "_olas",
          "type": "address"
        },
        {
          "internalType": "address",
          "name": "_l1Dispenser",
          "type": "address"
        },
        {
          "internalType": "address",
          "name": "_l1TokenRelayer",
          "type": "address"
        },
        {
          "internalType": "address",
          "name": "_l1MessageRelayer",
          "type": "address"
        },
        {
          "internalType": "uint256",
          "name": "_l2TargetChainId",
          "type": "uint256"
        },
        {
          "internalType": "address",
          "name": "_l1ERC20Gateway",
          "type": "address"
        },
        {
          "internalType": "address",
          "name": "_outbox",
          "type": "address"
        },
        {
          "internalType": "address",
          "name": "_bridge",
          "type": "address"
        }
      ],
      "stateMutability": "nonpayable",
      "type": "constructor"
    },
    {
      "inputs": [
        {
          "internalType": "bytes32",
          "name": "deliveryHash",
          "type": "bytes32"
        }
      ],
      "name": "AlreadyDelivered",
      "type": "error"
    },
    {
      "inputs": [
        {
          "internalType": "uint256",
          "name": "expected",
          "type": "uint256"
        },
        {
          "internalType": "uint256",
          "name": "provided",
          "type": "uint256"
        }
      ],
      "name": "IncorrectDataLength",
      "type": "error"
    },
    {
      "inputs": [
        {
          "internalType": "uint256",
          "name": "provided",
          "type": "uint256"
        },
        {
          "internalType": "uint256",
          "name": "expected",
          "type": "uint256"
        }
      ],
      "name": "InsufficientBalance",
      "type": "error"
    },
    {
      "inputs": [
        {
          "internalType": "uint256",
          "name": "provided",
          "type": "uint256"
        },
        {
          "internalType": "uint256",
          "name": "expected",
          "type": "uint256"
        }
      ],
      "name": "LowerThan",
      "type": "error"
    },
    {
      "inputs": [
        {
          "internalType": "address",
          "name": "sender",
          "type": "address"
        },
        {
          "internalType": "address",
          "name": "manager",
          "type": "address"
        }
      ],
      "name": "ManagerOnly",
      "type": "error"
    },
    {
      "inputs": [
        {
          "internalType": "uint256",
          "name": "provided",
          "type": "uint256"
        },
        {
          "internalType": "uint256",
          "name": "max",
          "type": "uint256"
        }
      ],
      "name": "Overflow",
      "type": "error"
    },
    {
      "inputs": [
        {
          "internalType": "address",
          "name": "sender",
          "type": "address"
        },
        {
          "internalType": "address",
          "name": "owner",
          "type": "address"
        }
      ],
      "name": "OwnerOnly",
      "type": "error"
    },
    {
      "inputs": [],
      "name": "Paused",
      "type": "error"
    },
    {
      "inputs": [],
      "name": "ReentrancyGuard",
      "type": "error"
    },
    {
      "inputs": [
        {
          "internalType": "address",
          "name": "target",
          "type": "address"
        },
        {
          "internalType": "uint256",
          "name": "amount",
          "type": "uint256"
        },
        {
          "internalType": "uint256",
          "name": "batchNonce",
          "type": "uint256"
        }
      ],
      "name": "TargetAmountNotQueued",
      "type": "error"
    },
    {
      "inputs": [
        {
          "internalType": "address",
          "name": "provided",
          "type": "address"
        },
        {
          "internalType": "address",
          "name": "expected",
          "type": "address"
        }
      ],
      "name": "TargetRelayerOnly",
      "type": "error"
    },
    {
      "inputs": [
        {
          "internalType": "address",
          "name": "token",
          "type": "address"
        },
        {
          "internalType": "address",
          "name": "from",
          "type": "address"
        },
        {
          "internalType": "address",
          "name": "to",
          "type": "address"
        },
        {
          "internalType": "uint256",
          "name": "amount",
          "type": "uint256"
        }
      ],
      "name": "TransferFailed",
      "type": "error"
    },
    {
      "inputs": [],
      "name": "Unpaused",
      "type": "error"
    },
    {
      "inputs": [
        {
          "internalType": "address",
          "name": "account",
          "type": "address"
        }
      ],
      "name": "WrongAccount",
      "type": "error"
    },
    {
      "inputs": [
        {
          "internalType": "uint256",
          "name": "provided",
          "type": "uint256"
        },
        {
          "internalType": "uint256",
          "name": "expected",
          "type": "uint256"
        }
      ],
      "name": "WrongAmount",
      "type": "error"
    },
    {
      "inputs": [
        {
          "internalType": "uint256",
          "name": "provided",
          "type": "uint256"
        },
        {
          "internalType": "uint256",
          "name": "expected",
          "type": "uint256"
        }
      ],
      "name": "WrongChainId",
      "type": "error"
    },
    {
      "inputs": [
        {
          "internalType": "address",
          "name": "provided",
          "type": "address"
        },
        {
          "internalType": "address",
          "name": "expected",
          "type": "address"
        }
      ],
      "name": "WrongMessageSender",
      "type": "error"
    },
    {
      "inputs": [
        {
          "internalType": "address",
          "name": "provided",
          "type": "address"
        },
        {
          "internalType": "address",
          "name": "expected",
          "type": "address"
        }
      ],
      "name": "WrongTokenAddress",
      "type": "error"
    },
    {
      "inputs": [],
      "name": "ZeroAddress",
      "type": "error"
    },
    {
      "inputs": [],
      "name": "ZeroValue",
      "type": "error"
    },
    {
      "anonymous": false,
      "inputs": [
        {
          "indexed": true,
          "internalType": "address",
          "name": "l2TargetDispenser",
          "type": "address"
        }
      ],
      "name": "L2TargetDispenserUpdated",
      "type": "event"
    },
    {
      "anonymous": false,
      "inputs": [
        {
          "indexed": true,
          "internalType": "uint256",
          "name": "sequence",
          "type": "uint256"
        },
        {
          "indexed": false,
          "internalType": "address[]",
          "name": "targets",
          "type": "address[]"
        },
        {
          "indexed": false,
          "internalType": "uint256[]",
          "name": "stakingIncentives",
          "type": "uint256[]"
        },
        {
          "indexed": false,
          "internalType": "uint256",
          "name": "transferAmount",
          "type": "uint256"
        }
      ],
      "name": "MessagePosted",
      "type": "event"
    },
    {
      "anonymous": false,
      "inputs": [
        {
          "indexed": true,
          "internalType": "address",
          "name": "l1Relayer",
          "type": "address"
        },
        {
          "indexed": true,
          "internalType": "uint256",
          "name": "chainId",
          "type": "uint256"
        },
        {
          "indexed": false,
          "internalType": "bytes",
          "name": "data",
          "type": "bytes"
        }
      ],
      "name": "MessageReceived",
      "type": "event"
    },
    {
      "inputs": [],
      "name": "BRIDGE_PAYLOAD_LENGTH",
      "outputs": [
        {
          "internalType": "uint256",
          "name": "",
          "type": "uint256"
        }
      ],
      "stateMutability": "view",
      "type": "function"
    },
    {
      "inputs": [],
      "name": "MAX_CHAIN_ID",
      "outputs": [
        {
          "internalType": "uint256",
          "name": "",
          "type": "uint256"
        }
      ],
      "stateMutability": "view",
      "type": "function"
    },
    {
      "inputs": [],
      "name": "MESSAGE_GAS_LIMIT",
      "outputs": [
        {
          "internalType": "uint256",
          "name": "",
          "type": "uint256"
        }
      ],
      "stateMutability": "view",
      "type": "function"
    },
    {
      "inputs": [],
      "name": "RECEIVE_MESSAGE",
      "outputs": [
        {
          "internalType": "bytes4",
          "name": "",
          "type": "bytes4"
        }
      ],
      "stateMutability": "view",
      "type": "function"
    },
    {
      "inputs": [],
      "name": "TOKEN_GAS_LIMIT",
      "outputs": [
        {
          "internalType": "uint256",
          "name": "",
          "type": "uint256"
        }
      ],
      "stateMutability": "view",
      "type": "function"
    },
    {
      "inputs": [],
      "name": "bridge",
      "outputs": [
        {
          "internalType": "address",
          "name": "",
          "type": "address"
        }
      ],
      "stateMutability": "view",
      "type": "function"
    },
    {
      "inputs": [],
      "name": "getBridgingDecimals",
      "outputs": [
        {
          "internalType": "uint256",
          "name": "",
          "type": "uint256"
        }
      ],
      "stateMutability": "pure",
      "type": "function"
    },
    {
      "inputs": [],
      "name": "l1Dispenser",
      "outputs": [
        {
          "internalType": "address",
          "name": "",
          "type": "address"
        }
      ],
      "stateMutability": "view",
      "type": "function"
    },
    {
      "inputs": [],
      "name": "l1ERC20Gateway",
      "outputs": [
        {
          "internalType": "address",
          "name": "",
          "type": "address"
        }
      ],
      "stateMutability": "view",
      "type": "function"
    },
    {
      "inputs": [],
      "name": "l1MessageRelayer",
      "outputs": [
        {
          "internalType": "address",
          "name": "",
          "type": "address"
        }
      ],
      "stateMutability": "view",
      "type": "function"
    },
    {
      "inputs": [],
      "name": "l1TokenRelayer",
      "outputs": [
        {
          "internalType": "address",
          "name": "",
          "type": "address"
        }
      ],
      "stateMutability": "view",
      "type": "function"
    },
    {
      "inputs": [],
      "name": "l2TargetChainId",
      "outputs": [
        {
          "internalType": "uint256",
          "name": "",
          "type": "uint256"
        }
      ],
      "stateMutability": "view",
      "type": "function"
    },
    {
      "inputs": [],
      "name": "l2TargetDispenser",
      "outputs": [
        {
          "internalType": "address",
          "name": "",
          "type": "address"
        }
      ],
      "stateMutability": "view",
      "type": "function"
    },
    {
      "inputs": [],
      "name": "olas",
      "outputs": [
        {
          "internalType": "address",
          "name": "",
          "type": "address"
        }
      ],
      "stateMutability": "view",
      "type": "function"
    },
    {
      "inputs": [],
      "name": "outbox",
      "outputs": [
        {
          "internalType": "address",
          "name": "",
          "type": "address"
        }
      ],
      "stateMutability": "view",
      "type": "function"
    },
    {
      "inputs": [],
      "name": "owner",
      "outputs": [
        {
          "internalType": "address",
          "name": "",
          "type": "address"
        }
      ],
      "stateMutability": "view",
      "type": "function"
    },
    {
      "inputs": [
        {
          "internalType": "bytes",
          "name": "data",
          "type": "bytes"
        }
      ],
      "name": "receiveMessage",
      "outputs": [],
      "stateMutability": "nonpayable",
      "type": "function"
    },
    {
      "inputs": [
        {
          "internalType": "address",
          "name": "target",
          "type": "address"
        },
        {
          "internalType": "uint256",
          "name": "stakingIncentive",
          "type": "uint256"
        },
        {
          "internalType": "bytes",
          "name": "bridgePayload",
          "type": "bytes"
        },
        {
          "internalType": "uint256",
          "name": "transferAmount",
          "type": "uint256"
        }
      ],
      "name": "sendMessage",
      "outputs": [],
      "stateMutability": "payable",
      "type": "function"
    },
    {
      "inputs": [
        {
          "internalType": "address[]",
          "name": "targets",
          "type": "address[]"
        },
        {
          "internalType": "uint256[]",
          "name": "stakingIncentives",
          "type": "uint256[]"
        },
        {
          "internalType": "bytes",
          "name": "bridgePayload",
          "type": "bytes"
        },
        {
          "internalType": "uint256",
          "name": "transferAmount",
          "type": "uint256"
        }
      ],
      "name": "sendMessageBatch",
      "outputs": [],
      "stateMutability": "payable",
      "type": "function"
    },
    {
      "inputs": [
        {
          "internalType": "address",
          "name": "l2Dispenser",
          "type": "address"
        }
      ],
      "name": "setL2TargetDispenser",
      "outputs": [],
      "stateMutability": "nonpayable",
      "type": "function"
    },
    {
      "inputs": [],
      "name": "stakingBatchNonce",
      "outputs": [
        {
          "internalType": "uint256",
          "name": "",
          "type": "uint256"
        }
      ],
      "stateMutability": "view",
      "type": "function"
    }
  ],
  "bytecode": "0x610180604052348015610010575f80fd5b50604051611cec380380611cec83398101604081905261002f916101d8565b87878787876001600160a01b038416158061005157506001600160a01b038316155b8061006357506001600160a01b038216155b156100815760405163d92e233d60e01b815260040160405180910390fd5b805f036100a157604051637c946ed760e01b815260040160405180910390fd5b60246100b560026001600160401b03610263565b6100bf9190610294565b6001600160401b031681111561011d578060246100e460026001600160401b03610263565b6100ee9190610294565b604051637ae5968560e01b815260048101929092526001600160401b0316602482015260440160405180910390fd5b6001600160a01b0394851660805292841660a05290831660c052821660e05261010052600180546001600160a01b031916331790558316158061016757506001600160a01b038216155b8061017957506001600160a01b038116155b156101975760405163d92e233d60e01b815260040160405180910390fd5b6001600160a01b0392831661012052908216610140521661016052506102c79350505050565b80516001600160a01b03811681146101d3575f80fd5b919050565b5f805f805f805f80610100898b0312156101f0575f80fd5b6101f9896101bd565b975061020760208a016101bd565b965061021560408a016101bd565b955061022360608a016101bd565b94506080890151935061023860a08a016101bd565b925061024660c08a016101bd565b915061025460e08a016101bd565b90509295985092959890939650565b5f6001600160401b038381168061028857634e487b7160e01b5f52601260045260245ffd5b92169190910492915050565b6001600160401b038281168282160390808211156102c057634e487b7160e01b5f52601160045260245ffd5b5092915050565b60805160a05160c05160e0516101005161012051610140516101605161194c6103a05f395f8181610441015281816107ab015261080601525f81816103f0015261083601525f81816101c60152610c8301525f81816103bd015281816110e2015261117e01525f81816101f9015281816108bb01528181610f0c01528181610fe5015261105201525f81816103320152610d5201525f81816104740152818161052301528181610578015281816106b20152818161070701526111ae01525f818161017601528181610cb20152610d9b015261194c5ff3fe608060405260043610610161575f3560e01c8063a8b2ae02116100c6578063e309fb771161007c578063f4427c2c11610057578063f4427c2c14610496578063f953cec7146104ab578063f9fc3c21146104ca575f80fd5b8063e309fb7714610412578063e78cea9214610430578063f2541c3514610463575f80fd5b8063bde52661116100ac578063bde5266114610399578063c23cc3ff146103ac578063ce11e6ab146103df575f80fd5b8063a8b2ae0214610373578063b2267a7b14610386575f80fd5b806354d20cc21161011b5780635bc105c0116101015780635bc105c01461030d5780636143fe93146103215780638da5cb5b14610354575f80fd5b806354d20cc21461025357806354e4bbf4146102ec575f80fd5b80633d1f86791161014b5780633d1f8679146101e85780634c1c6cbf1461021b5780634ece6b171461023f575f80fd5b806231d115146101655780630e283a6a146101b5575b5f80fd5b348015610170575f80fd5b506101987f000000000000000000000000000000000000000000000000000000000000000081565b6040516001600160a01b0390911681526020015b60405180910390f35b3480156101c0575f80fd5b506101987f000000000000000000000000000000000000000000000000000000000000000081565b3480156101f3575f80fd5b506101987f000000000000000000000000000000000000000000000000000000000000000081565b348015610226575f80fd5b50610231620493e081565b6040519081526020016101ac565b34801561024a575f80fd5b5061023160a081565b34801561025e575f80fd5b5060408051808201909152601581527f726563656976654d6573736167652862797465732900000000000000000000006020909101526102bb7ff953cec75ae677942d7cda5cb6d12c0cb96a0904bf37d36301eef297b83c411d81565b6040517fffffffff0000000000000000000000000000000000000000000000000000000090911681526020016101ac565b3480156102f7575f80fd5b5061030b610306366004611227565b6104e0565b005b348015610318575f80fd5b506102316104ec565b34801561032c575f80fd5b506101987f000000000000000000000000000000000000000000000000000000000000000081565b34801561035f575f80fd5b50600154610198906001600160a01b031681565b34801561037e575f80fd5b506012610231565b61030b610394366004611320565b610518565b61030b6103a7366004611407565b6106a7565b3480156103b7575f80fd5b506102317f000000000000000000000000000000000000000000000000000000000000000081565b3480156103ea575f80fd5b506101987f000000000000000000000000000000000000000000000000000000000000000081565b34801561041d575f80fd5b505f54610198906001600160a01b031681565b34801561043b575f80fd5b506101987f000000000000000000000000000000000000000000000000000000000000000081565b34801561046e575f80fd5b506101987f000000000000000000000000000000000000000000000000000000000000000081565b3480156104a1575f80fd5b5061023160025481565b3480156104b6575f80fd5b5061030b6104c53660046114dc565b6107a0565b3480156104d5575f80fd5b50610231621e848081565b6104e9816108e5565b50565b6024610501600267ffffffffffffffff611543565b61050b919061158e565b67ffffffffffffffff1681565b336001600160a01b037f000000000000000000000000000000000000000000000000000000000000000016146105b0576040517f625a43fe0000000000000000000000000000000000000000000000000000000081526001600160a01b037f00000000000000000000000000000000000000000000000000000000000000001660048201523360248201526044015b60405180910390fd5b6040805160018082528183019092525f916020808301908036833701905050905084815f815181106105e4576105e46115b6565b6001600160a01b0392909216602092830291909101909101526040805160018082528183019092525f9181602001602082028036833701905050905084815f81518110610633576106336115b6565b6020026020010181815250505f61064c838387876109e8565b600280549192505f61065d836115e3565b9190505550807f9a5db7eed66b0161b9861a53b42de123e042dbe1f1734a7d032402926063fe328484876040516106969392919061168c565b60405180910390a250505050505050565b336001600160a01b037f0000000000000000000000000000000000000000000000000000000000000000161461073a576040517f625a43fe0000000000000000000000000000000000000000000000000000000081526001600160a01b037f00000000000000000000000000000000000000000000000000000000000000001660048201523360248201526044016105a7565b5f610747858585856109e8565b600280549192505f610758836115e3565b9190505550807f9a5db7eed66b0161b9861a53b42de123e042dbe1f1734a7d032402926063fe328686856040516107919392919061168c565b60405180910390a25050505050565b336001600160a01b037f00000000000000000000000000000000000000000000000000000000000000001614610833576040517f2f3111fa0000000000000000000000000000000000000000000000000000000081523360048201526001600160a01b037f00000000000000000000000000000000000000000000000000000000000000001660248201526044016105a7565b5f7f00000000000000000000000000000000000000000000000000000000000000006001600160a01b03166380648b026040518163ffffffff1660e01b8152600401602060405180830381865afa158015610890573d5f803e3d5ffd5b505050506040513d601f19601f820116820180604052508101906108b491906116c1565b90506108e17f00000000000000000000000000000000000000000000000000000000000000008284610fe3565b5050565b6001546001600160a01b0316331461093e576001546040517fa43d6ada0000000000000000000000000000000000000000000000000000000081526001600160a01b0390911660048201523360248201526044016105a7565b6001600160a01b03811661097e576040517fd92e233d00000000000000000000000000000000000000000000000000000000815260040160405180910390fd5b5f80546001600160a01b0383167fffffffffffffffffffffffff0000000000000000000000000000000000000000918216811783556001805490921690915560405190917f991aa5c8f67a92f8feb202de828958c681966ae343fcf6db040f5f8099d547cf91a250565b5f60a0835114610a315782516040517f34c9027a00000000000000000000000000000000000000000000000000000000815260a0600482015260248101919091526044016105a7565b5f805f805f87806020019051810190610a4a91906116dc565b9398509196509450925090506001600160a01b038516610a68573394505b6002841080610a775750600282105b80610a80575080155b15610ab7576040517f7c946ed700000000000000000000000000000000000000000000000000000000815260040160405180910390fd5b621e8480821115610b00576040517f7ae5968500000000000000000000000000000000000000000000000000000000815260048101839052621e848060248201526044016105a7565b6040805160028082526060820183525f926020830190803683370190505090508715610b9557835f03610b5f576040517f7c946ed700000000000000000000000000000000000000000000000000000000815260040160405180910390fd5b610b6c85620493e0611721565b610b76908561173e565b815f81518110610b8857610b886115b6565b6020026020010181815250505b610b9f8584611721565b610ba9908361173e565b81600181518110610bbc57610bbc6115b6565b6020026020010181815250505f81600181518110610bdc57610bdc6115b6565b6020026020010151825f81518110610bf657610bf66115b6565b6020026020010151610c08919061173e565b905034811115610c4d576040517f491a2bb1000000000000000000000000000000000000000000000000000000008152346004820152602481018290526044016105a7565b8815610e3d576040517f095ea7b30000000000000000000000000000000000000000000000000000000081526001600160a01b037f000000000000000000000000000000000000000000000000000000000000000081166004830152602482018b90527f0000000000000000000000000000000000000000000000000000000000000000169063095ea7b3906044016020604051808303815f875af1158015610cf8573d5f803e3d5ffd5b505050506040513d601f19601f82011682018060405250810190610d1c9190611751565b505f85604051602001610d3f9181526040602082018190525f9082015260600190565b60405160208183030381529060405290507f00000000000000000000000000000000000000000000000000000000000000006001600160a01b0316634fb1a07b845f81518110610d9157610d916115b6565b60200260200101517f00000000000000000000000000000000000000000000000000000000000000008b5f8054906101000a90046001600160a01b03168f620493e08e896040518963ffffffff1660e01b8152600401610df7979695949392919061179e565b5f6040518083038185885af1158015610e12573d5f803e3d5ffd5b50505050506040513d5f823e601f3d908101601f19168201604052610e3a91908101906117f0565b50505b5f6040518060400160405280601581526020017f726563656976654d657373616765286279746573290000000000000000000000815250805190602001208d8d604051602001610e8e929190611865565b60408051601f1981840301815290829052610eab91602401611892565b604051602081830303815290604052907bffffffffffffffffffffffffffffffffffffffffffffffffffffffff19166020820180517bffffffffffffffffffffffffffffffffffffffffffffffffffffffff838183161783525050505090507f00000000000000000000000000000000000000000000000000000000000000006001600160a01b031663679b6ded84600181518110610f4c57610f4c6115b6565b60200260200101515f8054906101000a90046001600160a01b03165f888d8e8c8f8a6040518a63ffffffff1660e01b8152600401610f919897969594939291906118a4565b60206040518083038185885af1158015610fad573d5f803e3d5ffd5b50505050506040513d601f19601f82011682018060405250810190610fd291906118ff565b9d9c50505050505050505050505050565b7f00000000000000000000000000000000000000000000000000000000000000006001600160a01b0316836001600160a01b03161461107f576040517f2f3111fa0000000000000000000000000000000000000000000000000000000081523360048201526001600160a01b037f00000000000000000000000000000000000000000000000000000000000000001660248201526044016105a7565b5f546001600160a01b038381169116146110db575f546040517f0d16cbdd0000000000000000000000000000000000000000000000000000000081526001600160a01b03808516600483015290911660248201526044016105a7565b5f546040517f0000000000000000000000000000000000000000000000000000000000000000916001600160a01b0316907f98bbde530ec85b002f6fb0864beccaaf3ac3d2a4ac35cb3b03cf7c61ee415e3390611139908590611892565b60405180910390a35f8180602001905181019061115691906118ff565b6040517f59a8dfb90000000000000000000000000000000000000000000000000000000081527f00000000000000000000000000000000000000000000000000000000000000006004820152602481018290529091507f00000000000000000000000000000000000000000000000000000000000000006001600160a01b0316906359a8dfb9906044015f604051808303815f87803b1580156111f7575f80fd5b505af1158015611209573d5f803e3d5ffd5b5050505050505050565b6001600160a01b03811681146104e9575f80fd5b5f60208284031215611237575f80fd5b813561124281611213565b9392505050565b7f4e487b71000000000000000000000000000000000000000000000000000000005f52604160045260245ffd5b604051601f8201601f1916810167ffffffffffffffff8111828210171561129f5761129f611249565b604052919050565b5f67ffffffffffffffff8211156112c0576112c0611249565b50601f01601f191660200190565b5f82601f8301126112dd575f80fd5b81356112f06112eb826112a7565b611276565b818152846020838601011115611304575f80fd5b816020850160208301375f918101602001919091529392505050565b5f805f8060808587031215611333575f80fd5b843561133e81611213565b935060208501359250604085013567ffffffffffffffff811115611360575f80fd5b61136c878288016112ce565b949793965093946060013593505050565b5f67ffffffffffffffff82111561139657611396611249565b5060051b60200190565b5f82601f8301126113af575f80fd5b813560206113bf6112eb8361137d565b8083825260208201915060208460051b8701019350868411156113e0575f80fd5b602086015b848110156113fc57803583529183019183016113e5565b509695505050505050565b5f805f806080858703121561141a575f80fd5b843567ffffffffffffffff80821115611431575f80fd5b818701915087601f830112611444575f80fd5b813560206114546112eb8361137d565b82815260059290921b8401810191818101908b841115611472575f80fd5b948201945b8386101561149957853561148a81611213565b82529482019490820190611477565b985050880135925050808211156114ae575f80fd5b6114ba888389016113a0565b945060408701359150808211156114cf575f80fd5b5061136c878288016112ce565b5f602082840312156114ec575f80fd5b813567ffffffffffffffff811115611502575f80fd5b61150e848285016112ce565b949350505050565b7f4e487b71000000000000000000000000000000000000000000000000000000005f52601160045260245ffd5b5f67ffffffffffffffff80841680611582577f4e487b71000000000000000000000000000000000000000000000000000000005f52601260045260245ffd5b92169190910492915050565b67ffffffffffffffff8281168282160390808211156115af576115af611516565b5092915050565b7f4e487b71000000000000000000000000000000000000000000000000000000005f52603260045260245ffd5b5f7fffffffffffffffffffffffffffffffffffffffffffffffffffffffffffffffff820361161357611613611516565b5060010190565b5f815180845260208085019450602084015f5b838110156116525781516001600160a01b03168752958201959082019060010161162d565b509495945050505050565b5f815180845260208085019450602084015f5b8381101561165257815187529582019590820190600101611670565b606081525f61169e606083018661161a565b82810360208401526116b0818661165d565b915050826040830152949350505050565b5f602082840312156116d1575f80fd5b815161124281611213565b5f805f805f60a086880312156116f0575f80fd5b85516116fb81611213565b602087015160408801516060890151608090990151929a91995097965090945092505050565b808202811582820484141761173857611738611516565b92915050565b8082018082111561173857611738611516565b5f60208284031215611761575f80fd5b81518015158114611242575f80fd5b5f81518084528060208401602086015e5f602082860101526020601f19601f83011685010191505092915050565b5f6001600160a01b03808a16835280891660208401528088166040840152508560608301528460808301528360a083015260e060c08301526117e360e0830184611770565b9998505050505050505050565b5f60208284031215611800575f80fd5b815167ffffffffffffffff811115611816575f80fd5b8201601f81018413611826575f80fd5b80516118346112eb826112a7565b818152856020838501011115611848575f80fd5b8160208401602083015e5f91810160200191909152949350505050565b604081525f611877604083018561161a565b8281036020840152611889818561165d565b95945050505050565b602081525f6112426020830184611770565b5f6101006001600160a01b03808c1684528a602085015289604085015280891660608501528088166080850152508560a08401528460c08401528060e08401526118f081840185611770565b9b9a5050505050505050505050565b5f6020828403121561190f575f80fd5b505191905056fea2646970667358221220d5bb998843662d564261e4ece910247da2e5287093353c0c35f7be9f54fd75ff64736f6c63430008190033",
  "linkReferences": {},
  "deployedLinkReferences": {}
}