{
  "_format": "hh-sol-artifact-1",
  "contractName": "ArbitrumDepositProcessorL1",
  "sourceName": "contracts/staking/ArbitrumDepositProcessorL1.sol",
  "abi": [
    {
      "inputs": [
        {
          "internalType": "address",
          "name": "_olas",
          "type": "address"
        },
        {
          "internalType": "address",
          "name": "_l1Dispenser",
          "type": "address"
        },
        {
          "internalType": "address",
          "name": "_l1TokenRelayer",
          "type": "address"
        },
        {
          "internalType": "address",
          "name": "_l1MessageRelayer",
          "type": "address"
        },
        {
          "internalType": "uint256",
          "name": "_l2TargetChainId",
          "type": "uint256"
        },
        {
          "internalType": "address",
          "name": "_l1ERC20Gateway",
          "type": "address"
        },
        {
          "internalType": "address",
          "name": "_outbox",
          "type": "address"
        },
        {
          "internalType": "address",
          "name": "_bridge",
          "type": "address"
        }
      ],
      "stateMutability": "nonpayable",
      "type": "constructor"
    },
    {
      "inputs": [
        {
          "internalType": "bytes32",
          "name": "deliveryHash",
          "type": "bytes32"
        }
      ],
      "name": "AlreadyDelivered",
      "type": "error"
    },
    {
      "inputs": [
        {
          "internalType": "uint256",
          "name": "expected",
          "type": "uint256"
        },
        {
          "internalType": "uint256",
          "name": "provided",
          "type": "uint256"
        }
      ],
      "name": "IncorrectDataLength",
      "type": "error"
    },
    {
      "inputs": [
        {
          "internalType": "uint256",
          "name": "provided",
          "type": "uint256"
        },
        {
          "internalType": "uint256",
          "name": "expected",
          "type": "uint256"
        }
      ],
      "name": "InsufficientBalance",
      "type": "error"
    },
    {
      "inputs": [
        {
          "internalType": "uint256",
          "name": "provided",
          "type": "uint256"
        },
        {
          "internalType": "uint256",
          "name": "expected",
          "type": "uint256"
        }
      ],
      "name": "LowerThan",
      "type": "error"
    },
    {
      "inputs": [
        {
          "internalType": "address",
          "name": "sender",
          "type": "address"
        },
        {
          "internalType": "address",
          "name": "manager",
          "type": "address"
        }
      ],
      "name": "ManagerOnly",
      "type": "error"
    },
    {
      "inputs": [
        {
          "internalType": "uint256",
          "name": "provided",
          "type": "uint256"
        },
        {
          "internalType": "uint256",
          "name": "max",
          "type": "uint256"
        }
      ],
      "name": "Overflow",
      "type": "error"
    },
    {
      "inputs": [
        {
          "internalType": "address",
          "name": "sender",
          "type": "address"
        },
        {
          "internalType": "address",
          "name": "owner",
          "type": "address"
        }
      ],
      "name": "OwnerOnly",
      "type": "error"
    },
    {
      "inputs": [],
      "name": "Paused",
      "type": "error"
    },
    {
      "inputs": [],
      "name": "ReentrancyGuard",
      "type": "error"
    },
    {
      "inputs": [
        {
          "internalType": "address",
          "name": "target",
          "type": "address"
        },
        {
          "internalType": "uint256",
          "name": "amount",
          "type": "uint256"
        },
        {
          "internalType": "bytes32",
          "name": "batchHash",
          "type": "bytes32"
        }
      ],
      "name": "TargetAmountNotQueued",
      "type": "error"
    },
    {
      "inputs": [
        {
          "internalType": "address",
          "name": "provided",
          "type": "address"
        },
        {
          "internalType": "address",
          "name": "expected",
          "type": "address"
        }
      ],
      "name": "TargetRelayerOnly",
      "type": "error"
    },
    {
      "inputs": [
        {
          "internalType": "address",
          "name": "token",
          "type": "address"
        },
        {
          "internalType": "address",
          "name": "from",
          "type": "address"
        },
        {
          "internalType": "address",
          "name": "to",
          "type": "address"
        },
        {
          "internalType": "uint256",
          "name": "amount",
          "type": "uint256"
        }
      ],
      "name": "TransferFailed",
      "type": "error"
    },
    {
      "inputs": [],
      "name": "Unpaused",
      "type": "error"
    },
    {
      "inputs": [
        {
          "internalType": "address",
          "name": "account",
          "type": "address"
        }
      ],
      "name": "WrongAccount",
      "type": "error"
    },
    {
      "inputs": [
        {
          "internalType": "uint256",
          "name": "provided",
          "type": "uint256"
        },
        {
          "internalType": "uint256",
          "name": "expected",
          "type": "uint256"
        }
      ],
      "name": "WrongAmount",
      "type": "error"
    },
    {
      "inputs": [
        {
          "internalType": "uint256",
          "name": "provided",
          "type": "uint256"
        },
        {
          "internalType": "uint256",
          "name": "expected",
          "type": "uint256"
        }
      ],
      "name": "WrongChainId",
      "type": "error"
    },
    {
      "inputs": [
        {
          "internalType": "address",
          "name": "provided",
          "type": "address"
        },
        {
          "internalType": "address",
          "name": "expected",
          "type": "address"
        }
      ],
      "name": "WrongMessageSender",
      "type": "error"
    },
    {
      "inputs": [
        {
          "internalType": "address",
          "name": "provided",
          "type": "address"
        },
        {
          "internalType": "address",
          "name": "expected",
          "type": "address"
        }
      ],
      "name": "WrongTokenAddress",
      "type": "error"
    },
    {
      "inputs": [],
      "name": "ZeroAddress",
      "type": "error"
    },
    {
      "inputs": [],
      "name": "ZeroValue",
      "type": "error"
    },
    {
      "anonymous": false,
      "inputs": [
        {
          "indexed": true,
          "internalType": "address",
          "name": "l2TargetDispenser",
          "type": "address"
        }
      ],
      "name": "L2TargetDispenserUpdated",
      "type": "event"
    },
    {
      "anonymous": false,
      "inputs": [
        {
          "indexed": true,
          "internalType": "address",
          "name": "sender",
          "type": "address"
        },
        {
          "indexed": false,
          "internalType": "uint256",
          "name": "leftovers",
          "type": "uint256"
        }
      ],
      "name": "LeftoversRefunded",
      "type": "event"
    },
    {
      "anonymous": false,
      "inputs": [
        {
          "indexed": true,
          "internalType": "uint256",
          "name": "sequence",
          "type": "uint256"
        },
        {
          "indexed": false,
          "internalType": "address[]",
          "name": "targets",
          "type": "address[]"
        },
        {
          "indexed": false,
          "internalType": "uint256[]",
          "name": "stakingIncentives",
          "type": "uint256[]"
        },
        {
          "indexed": false,
          "internalType": "uint256",
          "name": "transferAmount",
          "type": "uint256"
        },
        {
          "indexed": true,
          "internalType": "bytes32",
          "name": "batchHash",
          "type": "bytes32"
        }
      ],
      "name": "MessagePosted",
      "type": "event"
    },
    {
      "anonymous": false,
      "inputs": [
        {
          "indexed": true,
          "internalType": "address",
          "name": "l1Relayer",
          "type": "address"
        },
        {
          "indexed": true,
          "internalType": "uint256",
          "name": "chainId",
          "type": "uint256"
        },
        {
          "indexed": false,
          "internalType": "bytes",
          "name": "data",
          "type": "bytes"
        }
      ],
      "name": "MessageReceived",
      "type": "event"
    },
    {
      "inputs": [],
      "name": "BRIDGE_PAYLOAD_LENGTH",
      "outputs": [
        {
          "internalType": "uint256",
          "name": "",
          "type": "uint256"
        }
      ],
      "stateMutability": "view",
      "type": "function"
    },
    {
      "inputs": [],
      "name": "MAX_CHAIN_ID",
      "outputs": [
        {
          "internalType": "uint256",
          "name": "",
          "type": "uint256"
        }
      ],
      "stateMutability": "view",
      "type": "function"
    },
    {
      "inputs": [],
      "name": "MESSAGE_GAS_LIMIT",
      "outputs": [
        {
          "internalType": "uint256",
          "name": "",
          "type": "uint256"
        }
      ],
      "stateMutability": "view",
      "type": "function"
    },
    {
      "inputs": [],
      "name": "RECEIVE_MESSAGE",
      "outputs": [
        {
          "internalType": "bytes4",
          "name": "",
          "type": "bytes4"
        }
      ],
      "stateMutability": "view",
      "type": "function"
    },
    {
      "inputs": [],
      "name": "TOKEN_GAS_LIMIT",
      "outputs": [
        {
          "internalType": "uint256",
          "name": "",
          "type": "uint256"
        }
      ],
      "stateMutability": "view",
      "type": "function"
    },
    {
      "inputs": [],
      "name": "bridge",
      "outputs": [
        {
          "internalType": "address",
          "name": "",
          "type": "address"
        }
      ],
      "stateMutability": "view",
      "type": "function"
    },
    {
      "inputs": [],
      "name": "getBridgingDecimals",
      "outputs": [
        {
          "internalType": "uint256",
          "name": "",
          "type": "uint256"
        }
      ],
      "stateMutability": "pure",
      "type": "function"
    },
    {
      "inputs": [],
      "name": "l1Dispenser",
      "outputs": [
        {
          "internalType": "address",
          "name": "",
          "type": "address"
        }
      ],
      "stateMutability": "view",
      "type": "function"
    },
    {
      "inputs": [],
      "name": "l1ERC20Gateway",
      "outputs": [
        {
          "internalType": "address",
          "name": "",
          "type": "address"
        }
      ],
      "stateMutability": "view",
      "type": "function"
    },
    {
      "inputs": [],
      "name": "l1MessageRelayer",
      "outputs": [
        {
          "internalType": "address",
          "name": "",
          "type": "address"
        }
      ],
      "stateMutability": "view",
      "type": "function"
    },
    {
      "inputs": [],
      "name": "l1TokenRelayer",
      "outputs": [
        {
          "internalType": "address",
          "name": "",
          "type": "address"
        }
      ],
      "stateMutability": "view",
      "type": "function"
    },
    {
      "inputs": [],
      "name": "l2TargetChainId",
      "outputs": [
        {
          "internalType": "uint256",
          "name": "",
          "type": "uint256"
        }
      ],
      "stateMutability": "view",
      "type": "function"
    },
    {
      "inputs": [],
      "name": "l2TargetDispenser",
      "outputs": [
        {
          "internalType": "address",
          "name": "",
          "type": "address"
        }
      ],
      "stateMutability": "view",
      "type": "function"
    },
    {
      "inputs": [],
      "name": "olas",
      "outputs": [
        {
          "internalType": "address",
          "name": "",
          "type": "address"
        }
      ],
      "stateMutability": "view",
      "type": "function"
    },
    {
      "inputs": [],
      "name": "outbox",
      "outputs": [
        {
          "internalType": "address",
          "name": "",
          "type": "address"
        }
      ],
      "stateMutability": "view",
      "type": "function"
    },
    {
      "inputs": [],
      "name": "owner",
      "outputs": [
        {
          "internalType": "address",
          "name": "",
          "type": "address"
        }
      ],
      "stateMutability": "view",
      "type": "function"
    },
    {
      "inputs": [
        {
          "internalType": "bytes32",
          "name": "",
          "type": "bytes32"
        }
      ],
      "name": "processedHashes",
      "outputs": [
        {
          "internalType": "bool",
          "name": "",
          "type": "bool"
        }
      ],
      "stateMutability": "view",
      "type": "function"
    },
    {
      "inputs": [
        {
          "internalType": "bytes",
          "name": "data",
          "type": "bytes"
        }
      ],
      "name": "receiveMessage",
      "outputs": [],
      "stateMutability": "nonpayable",
      "type": "function"
    },
    {
      "inputs": [
        {
          "internalType": "address",
          "name": "target",
          "type": "address"
        },
        {
          "internalType": "uint256",
          "name": "stakingIncentive",
          "type": "uint256"
        },
        {
          "internalType": "bytes",
          "name": "bridgePayload",
          "type": "bytes"
        },
        {
          "internalType": "uint256",
          "name": "transferAmount",
          "type": "uint256"
        }
      ],
      "name": "sendMessage",
      "outputs": [],
      "stateMutability": "payable",
      "type": "function"
    },
    {
      "inputs": [
        {
          "internalType": "address[]",
          "name": "targets",
          "type": "address[]"
        },
        {
          "internalType": "uint256[]",
          "name": "stakingIncentives",
          "type": "uint256[]"
        },
        {
          "internalType": "bytes",
          "name": "bridgePayload",
          "type": "bytes"
        },
        {
          "internalType": "uint256",
          "name": "transferAmount",
          "type": "uint256"
        }
      ],
      "name": "sendMessageBatch",
      "outputs": [],
      "stateMutability": "payable",
      "type": "function"
    },
    {
      "inputs": [
        {
          "internalType": "address",
          "name": "l2Dispenser",
          "type": "address"
        }
      ],
      "name": "setL2TargetDispenser",
      "outputs": [],
      "stateMutability": "nonpayable",
      "type": "function"
    },
    {
      "inputs": [],
      "name": "stakingBatchNonce",
      "outputs": [
        {
          "internalType": "uint256",
          "name": "",
          "type": "uint256"
        }
      ],
      "stateMutability": "view",
      "type": "function"
    },
    {
      "inputs": [
        {
          "internalType": "bytes32",
          "name": "batchHash",
          "type": "bytes32"
        }
      ],
      "name": "updateHashMaintenance",
      "outputs": [],
      "stateMutability": "nonpayable",
      "type": "function"
    }
  ],
  "bytecode": "0x610180604052348015610010575f80fd5b50604051611f40380380611f4083398101604081905261002f916101d8565b87878787876001600160a01b038416158061005157506001600160a01b038316155b8061006357506001600160a01b038216155b156100815760405163d92e233d60e01b815260040160405180910390fd5b805f036100a157604051637c946ed760e01b815260040160405180910390fd5b60246100b560026001600160401b03610263565b6100bf9190610294565b6001600160401b031681111561011d578060246100e460026001600160401b03610263565b6100ee9190610294565b604051637ae5968560e01b815260048101929092526001600160401b0316602482015260440160405180910390fd5b6001600160a01b0394851660805292841660a05290831660c052821660e05261010052600180546001600160a01b031916331790558316158061016757506001600160a01b038216155b8061017957506001600160a01b038116155b156101975760405163d92e233d60e01b815260040160405180910390fd5b6001600160a01b0392831661012052908216610140521661016052506102c79350505050565b80516001600160a01b03811681146101d3575f80fd5b919050565b5f805f805f805f80610100898b0312156101f0575f80fd5b6101f9896101bd565b975061020760208a016101bd565b965061021560408a016101bd565b955061022360608a016101bd565b94506080890151935061023860a08a016101bd565b925061024660c08a016101bd565b915061025460e08a016101bd565b90509295985092959890939650565b5f6001600160401b038381168061028857634e487b7160e01b5f52601260045260245ffd5b92169190910492915050565b6001600160401b038281168282160390808211156102c057634e487b7160e01b5f52601160045260245ffd5b5092915050565b60805160a05160c05160e05161010051610120516101405161016051611b926103ae5f395f81816104b4015281816109fd0152610a3f01525f81816104630152610a6f01525f818161021a0152610eb401525f81816104300152818161134f015261143b01525f818161024d01528181610af4015281816111610152818161126b01526112bf01525f81816103860152610f8701525f81816104e701528181610596015281816105d2015281816106610152818161069d01528181610892015281816108ce015261147701525f818161018c01528181610ee30152610fd00152611b925ff3fe608060405260043610610177575f3560e01c8063a8b2ae02116100d1578063e309fb771161007c578063f4427c2c11610057578063f4427c2c14610509578063f953cec71461051e578063f9fc3c211461053d575f80fd5b8063e309fb7714610485578063e78cea92146104a3578063f2541c35146104d6575f80fd5b8063bde52661116100ac578063bde526611461040c578063c23cc3ff1461041f578063ce11e6ab14610452575f80fd5b8063a8b2ae02146103c7578063ac65ded2146103da578063b2267a7b146103f9575f80fd5b80634ece6b17116101315780635bc105c01161010c5780635bc105c0146103615780636143fe93146103755780638da5cb5b146103a8575f80fd5b80634ece6b171461029357806354d20cc2146102a757806354e4bbf414610340575f80fd5b80630e283a6a116101615780630e283a6a146102095780633d1f86791461023c5780634c1c6cbf1461026f575f80fd5b806231d1151461017b57806307d9c534146101cb575b5f80fd5b348015610186575f80fd5b506101ae7f000000000000000000000000000000000000000000000000000000000000000081565b6040516001600160a01b0390911681526020015b60405180910390f35b3480156101d6575f80fd5b506101f96101e53660046114d5565b60036020525f908152604090205460ff1681565b60405190151581526020016101c2565b348015610214575f80fd5b506101ae7f000000000000000000000000000000000000000000000000000000000000000081565b348015610247575f80fd5b506101ae7f000000000000000000000000000000000000000000000000000000000000000081565b34801561027a575f80fd5b50610285620493e081565b6040519081526020016101c2565b34801561029e575f80fd5b5061028560a081565b3480156102b2575f80fd5b5060408051808201909152601581527f726563656976654d65737361676528627974657329000000000000000000000060209091015261030f7ff953cec75ae677942d7cda5cb6d12c0cb96a0904bf37d36301eef297b83c411d81565b6040517fffffffff0000000000000000000000000000000000000000000000000000000090911681526020016101c2565b34801561034b575f80fd5b5061035f61035a366004611500565b610553565b005b34801561036c575f80fd5b5061028561055f565b348015610380575f80fd5b506101ae7f000000000000000000000000000000000000000000000000000000000000000081565b3480156103b3575f80fd5b506001546101ae906001600160a01b031681565b3480156103d2575f80fd5b506012610285565b3480156103e5575f80fd5b5061035f6103f43660046114d5565b61058b565b61035f6104073660046115e0565b610656565b61035f61041a3660046116c7565b610887565b34801561042a575f80fd5b506102857f000000000000000000000000000000000000000000000000000000000000000081565b34801561045d575f80fd5b506101ae7f000000000000000000000000000000000000000000000000000000000000000081565b348015610490575f80fd5b505f546101ae906001600160a01b031681565b3480156104ae575f80fd5b506101ae7f000000000000000000000000000000000000000000000000000000000000000081565b3480156104e1575f80fd5b506101ae7f000000000000000000000000000000000000000000000000000000000000000081565b348015610514575f80fd5b5061028560025481565b348015610529575f80fd5b5061035f61053836600461179c565b6109f2565b348015610548575f80fd5b50610285621e848081565b61055c81610b1e565b50565b6024610574600267ffffffffffffffff6117ea565b61057e919061181c565b67ffffffffffffffff1681565b336001600160a01b037f0000000000000000000000000000000000000000000000000000000000000000161461060a5760405163312d21ff60e11b81526001600160a01b037f00000000000000000000000000000000000000000000000000000000000000001660048201523360248201526044015b60405180910390fd5b5f8181526003602052604090205460ff161561063c576040516356bc34a160e01b815260048101829052602401610601565b5f908152600360205260409020805460ff19166001179055565b336001600160a01b037f000000000000000000000000000000000000000000000000000000000000000016146106d05760405163312d21ff60e11b81526001600160a01b037f0000000000000000000000000000000000000000000000000000000000000000166004820152336024820152604401610601565b6040805160018082528183019092525f916020808301908036833701905050905084815f8151811061070457610704611844565b6001600160a01b0392909216602092830291909101909101526040805160018082528183019092525f9181602001602082028036833701905050905084815f8151811061075357610753611844565b602090810291909101810191909152600254604080519283018290524690830152306060830152905f906080016040516020818303038152906040528051906020012090505f806107a786868a8a87610c08565b9092509050801561082d57604051329082905f81818185875af1925050503d805f81146107ef576040519150601f19603f3d011682016040523d82523d5f602084013e6107f4565b606091505b50506040518281523291507f8e49ed3e274fbea1556bdfaa9a37a0c28445bfe26d57beaf9f04fd517aa417419060200160405180910390a25b610838846001611858565b60028190555082827f621aece9999edf4d664a3855f668f6fc380937a42044234fd883b42d0485118788888b604051610873939291906118e3565b60405180910390a350505050505050505050565b336001600160a01b037f000000000000000000000000000000000000000000000000000000000000000016146109015760405163312d21ff60e11b81526001600160a01b037f0000000000000000000000000000000000000000000000000000000000000000166004820152336024820152604401610601565b600254604080516020810183905246918101919091523060608201525f906080016040516020818303038152906040528051906020012090505f806109498888888887610c08565b9092509050801561099a57604051329082905f81818185875af1925050503d805f8114610991576040519150601f19603f3d011682016040523d82523d5f602084013e610996565b606091505b5050505b6109a5846001611858565b60028190555082827f621aece9999edf4d664a3855f668f6fc380937a42044234fd883b42d048511878a8a896040516109e0939291906118e3565b60405180910390a35050505050505050565b336001600160a01b037f00000000000000000000000000000000000000000000000000000000000000001614610a6c5760405163179888fd60e11b81523360048201526001600160a01b037f0000000000000000000000000000000000000000000000000000000000000000166024820152604401610601565b5f7f00000000000000000000000000000000000000000000000000000000000000006001600160a01b03166380648b026040518163ffffffff1660e01b8152600401602060405180830381865afa158015610ac9573d5f803e3d5ffd5b505050506040513d601f19601f82011682018060405250810190610aed9190611918565b9050610b1a7f00000000000000000000000000000000000000000000000000000000000000008284611269565b5050565b6001546001600160a01b03163314610b77576001546040517fa43d6ada0000000000000000000000000000000000000000000000000000000081526001600160a01b039091166004820152336024820152604401610601565b6001600160a01b038116610b9e5760405163d92e233d60e01b815260040160405180910390fd5b5f80546001600160a01b0383167fffffffffffffffffffffffff0000000000000000000000000000000000000000918216811783556001805490921690915560405190917f991aa5c8f67a92f8feb202de828958c681966ae343fcf6db040f5f8099d547cf91a250565b5f8060a0855114610c525784516040517f34c9027a00000000000000000000000000000000000000000000000000000000815260a060048201526024810191909152604401610601565b610c886040518060a001604052805f6001600160a01b031681526020015f81526020015f81526020015f81526020015f81525090565b85806020019051810190610c9c9190611933565b60808601526060850152604084015260208301526001600160a01b0316808252610cd95760405163d92e233d60e01b815260040160405180910390fd5b600281602001511080610cee57506080810151155b15610d0c57604051637c946ed760e01b815260040160405180910390fd5b621e848081606001511015610d4657606081015160405163491a2bb160e01b81526004810191909152621e84806024820152604401610601565b6040805160028082526060820183525f926020830190803683370190505090508515610dd05781604001515f03610d9057604051637c946ed760e01b815260040160405180910390fd5b6020820151610da290620493e0611978565b8260400151610db19190611858565b815f81518110610dc357610dc3611844565b6020026020010181815250505b81602001518260600151610de49190611978565b8260800151610df39190611858565b81600181518110610e0657610e06611844565b6020026020010181815250505f81600181518110610e2657610e26611844565b6020026020010151825f81518110610e4057610e40611844565b6020026020010151610e529190611858565b905034811115610e7e5760405163491a2bb160e01b815234600482015260248101829052604401610601565b8615611079576040517f095ea7b30000000000000000000000000000000000000000000000000000000081526001600160a01b037f000000000000000000000000000000000000000000000000000000000000000081166004830152602482018990527f0000000000000000000000000000000000000000000000000000000000000000169063095ea7b3906044016020604051808303815f875af1158015610f29573d5f803e3d5ffd5b505050506040513d601f19601f82011682018060405250810190610f4d919061198f565b505f8360400151604051602001610f749181526040602082018190525f9082015260600190565b60405160208183030381529060405290507f00000000000000000000000000000000000000000000000000000000000000006001600160a01b0316634fb1a07b845f81518110610fc657610fc6611844565b60200260200101517f0000000000000000000000000000000000000000000000000000000000000000875f01515f8054906101000a90046001600160a01b03168d620493e08b60200151896040518963ffffffff1660e01b815260040161103397969594939291906119dc565b5f6040518083038185885af115801561104e573d5f803e3d5ffd5b50505050506040513d5f823e601f3d908101601f191682016040526110769190810190611a2e565b50505b604080518082018252601581527f726563656976654d65737361676528627974657329000000000000000000000060209182015290515f917ff953cec75ae677942d7cda5cb6d12c0cb96a0904bf37d36301eef297b83c411d916110e3918e918e918c91016118e3565b60408051601f198184030181529082905261110091602401611aa3565b604051602081830303815290604052907bffffffffffffffffffffffffffffffffffffffffffffffffffffffff19166020820180517bffffffffffffffffffffffffffffffffffffffffffffffffffffffff838183161783525050505090507f00000000000000000000000000000000000000000000000000000000000000006001600160a01b031663679b6ded846001815181106111a1576111a1611844565b6020908102919091018101515f805460808a01518a5160608c0151958c01516040517fffffffff0000000000000000000000000000000000000000000000000000000060e08a901b168152959661120c966001600160a01b0390951695948592908c90600401611ab5565b60206040518083038185885af1158015611228573d5f803e3d5ffd5b50505050506040513d601f19601f8201168201806040525081019061124d9190611b10565b95506112598234611b27565b9450505050509550959350505050565b7f00000000000000000000000000000000000000000000000000000000000000006001600160a01b0316836001600160a01b0316146112ec5760405163179888fd60e11b81523360048201526001600160a01b037f0000000000000000000000000000000000000000000000000000000000000000166024820152604401610601565b5f546001600160a01b03838116911614611348575f546040517f0d16cbdd0000000000000000000000000000000000000000000000000000000081526001600160a01b0380851660048301529091166024820152604401610601565b5f546040517f0000000000000000000000000000000000000000000000000000000000000000916001600160a01b0316907f98bbde530ec85b002f6fb0864beccaaf3ac3d2a4ac35cb3b03cf7c61ee415e33906113a6908590611aa3565b60405180910390a35f80828060200190518101906113c49190611b3a565b5f81815260036020526040902054919350915060ff16156113fb576040516356bc34a160e01b815260048101829052602401610601565b5f8181526003602052604090819020805460ff19166001179055517f79bc81dd0000000000000000000000000000000000000000000000000000000081527f0000000000000000000000000000000000000000000000000000000000000000600482015260248101839052604481018290526001600160a01b037f000000000000000000000000000000000000000000000000000000000000000016906379bc81dd906064015f604051808303815f87803b1580156114b8575f80fd5b505af11580156114ca573d5f803e3d5ffd5b505050505050505050565b5f602082840312156114e5575f80fd5b5035919050565b6001600160a01b038116811461055c575f80fd5b5f60208284031215611510575f80fd5b813561151b816114ec565b9392505050565b634e487b7160e01b5f52604160045260245ffd5b604051601f8201601f1916810167ffffffffffffffff8111828210171561155f5761155f611522565b604052919050565b5f67ffffffffffffffff82111561158057611580611522565b50601f01601f191660200190565b5f82601f83011261159d575f80fd5b81356115b06115ab82611567565b611536565b8181528460208386010111156115c4575f80fd5b816020850160208301375f918101602001919091529392505050565b5f805f80608085870312156115f3575f80fd5b84356115fe816114ec565b935060208501359250604085013567ffffffffffffffff811115611620575f80fd5b61162c8782880161158e565b949793965093946060013593505050565b5f67ffffffffffffffff82111561165657611656611522565b5060051b60200190565b5f82601f83011261166f575f80fd5b8135602061167f6115ab8361163d565b8083825260208201915060208460051b8701019350868411156116a0575f80fd5b602086015b848110156116bc57803583529183019183016116a5565b509695505050505050565b5f805f80608085870312156116da575f80fd5b843567ffffffffffffffff808211156116f1575f80fd5b818701915087601f830112611704575f80fd5b813560206117146115ab8361163d565b82815260059290921b8401810191818101908b841115611732575f80fd5b948201945b8386101561175957853561174a816114ec565b82529482019490820190611737565b9850508801359250508082111561176e575f80fd5b61177a88838901611660565b9450604087013591508082111561178f575f80fd5b5061162c8782880161158e565b5f602082840312156117ac575f80fd5b813567ffffffffffffffff8111156117c2575f80fd5b6117ce8482850161158e565b949350505050565b634e487b7160e01b5f52601160045260245ffd5b5f67ffffffffffffffff8084168061181057634e487b7160e01b5f52601260045260245ffd5b92169190910492915050565b67ffffffffffffffff82811682821603908082111561183d5761183d6117d6565b5092915050565b634e487b7160e01b5f52603260045260245ffd5b8082018082111561186b5761186b6117d6565b92915050565b5f815180845260208085019450602084015f5b838110156118a95781516001600160a01b031687529582019590820190600101611884565b509495945050505050565b5f815180845260208085019450602084015f5b838110156118a9578151875295820195908201906001016118c7565b606081525f6118f56060830186611871565b828103602084015261190781866118b4565b915050826040830152949350505050565b5f60208284031215611928575f80fd5b815161151b816114ec565b5f805f805f60a08688031215611947575f80fd5b8551611952816114ec565b602087015160408801516060890151608090990151929a91995097965090945092505050565b808202811582820484141761186b5761186b6117d6565b5f6020828403121561199f575f80fd5b8151801515811461151b575f80fd5b5f81518084528060208401602086015e5f602082860101526020601f19601f83011685010191505092915050565b5f6001600160a01b03808a16835280891660208401528088166040840152508560608301528460808301528360a083015260e060c0830152611a2160e08301846119ae565b9998505050505050505050565b5f60208284031215611a3e575f80fd5b815167ffffffffffffffff811115611a54575f80fd5b8201601f81018413611a64575f80fd5b8051611a726115ab82611567565b818152856020838501011115611a86575f80fd5b8160208401602083015e5f91810160200191909152949350505050565b602081525f61151b60208301846119ae565b5f6101006001600160a01b03808c1684528a602085015289604085015280891660608501528088166080850152508560a08401528460c08401528060e0840152611b01818401856119ae565b9b9a5050505050505050505050565b5f60208284031215611b20575f80fd5b5051919050565b8181038181111561186b5761186b6117d6565b5f8060408385031215611b4b575f80fd5b50508051602090910151909290915056fea26469706673582212202a42e718922552608c1b20dc30539af4dc80f214a8753918431cc3035c7fb80a64736f6c63430008190033",
  "linkReferences": {},
  "deployedLinkReferences": {}
}