{
  "_format": "hh-sol-artifact-1",
  "contractName": "Dispenser",
  "sourceName": "contracts/Dispenser.sol",
  "abi": [
    {
      "inputs": [
        {
          "internalType": "address",
          "name": "_olas",
          "type": "address"
        },
        {
          "internalType": "address",
          "name": "_tokenomics",
          "type": "address"
        },
        {
          "internalType": "address",
          "name": "_treasury",
          "type": "address"
        },
        {
          "internalType": "address",
          "name": "_voteWeighting",
          "type": "address"
        },
        {
          "internalType": "bytes32",
          "name": "_retainer",
          "type": "bytes32"
        },
        {
          "internalType": "uint256",
          "name": "_maxNumClaimingEpochs",
          "type": "uint256"
        },
        {
          "internalType": "uint256",
          "name": "_maxNumStakingTargets",
          "type": "uint256"
        },
        {
          "internalType": "uint256",
          "name": "_defaultMinStakingWeight",
          "type": "uint256"
        },
        {
          "internalType": "uint256",
          "name": "_defaultMaxStakingIncentive",
          "type": "uint256"
        }
      ],
      "stateMutability": "nonpayable",
      "type": "constructor"
    },
    {
      "inputs": [
        {
          "internalType": "address",
          "name": "account",
          "type": "address"
        },
        {
          "internalType": "uint256",
          "name": "reward",
          "type": "uint256"
        },
        {
          "internalType": "uint256",
          "name": "topUp",
          "type": "uint256"
        }
      ],
      "name": "ClaimIncentivesFailed",
      "type": "error"
    },
    {
      "inputs": [
        {
          "internalType": "address",
          "name": "sender",
          "type": "address"
        },
        {
          "internalType": "address",
          "name": "depositProcessor",
          "type": "address"
        }
      ],
      "name": "DepositProcessorOnly",
      "type": "error"
    },
    {
      "inputs": [
        {
          "internalType": "address",
          "name": "sender",
          "type": "address"
        },
        {
          "internalType": "address",
          "name": "manager",
          "type": "address"
        }
      ],
      "name": "ManagerOnly",
      "type": "error"
    },
    {
      "inputs": [
        {
          "internalType": "uint256",
          "name": "provided",
          "type": "uint256"
        },
        {
          "internalType": "uint256",
          "name": "max",
          "type": "uint256"
        }
      ],
      "name": "Overflow",
      "type": "error"
    },
    {
      "inputs": [
        {
          "internalType": "address",
          "name": "sender",
          "type": "address"
        },
        {
          "internalType": "address",
          "name": "owner",
          "type": "address"
        }
      ],
      "name": "OwnerOnly",
      "type": "error"
    },
    {
      "inputs": [],
      "name": "Paused",
      "type": "error"
    },
    {
      "inputs": [],
      "name": "ReentrancyGuard",
      "type": "error"
    },
    {
      "inputs": [
        {
          "internalType": "bytes32",
          "name": "account",
          "type": "bytes32"
        }
      ],
      "name": "WrongAccount",
      "type": "error"
    },
    {
      "inputs": [
        {
          "internalType": "uint256",
          "name": "provided",
          "type": "uint256"
        },
        {
          "internalType": "uint256",
          "name": "expected",
          "type": "uint256"
        }
      ],
      "name": "WrongAmount",
      "type": "error"
    },
    {
      "inputs": [
        {
          "internalType": "uint256",
          "name": "numValues1",
          "type": "uint256"
        },
        {
          "internalType": "uint256",
          "name": "numValues2",
          "type": "uint256"
        }
      ],
      "name": "WrongArrayLength",
      "type": "error"
    },
    {
      "inputs": [
        {
          "internalType": "uint256",
          "name": "chainId",
          "type": "uint256"
        }
      ],
      "name": "WrongChainId",
      "type": "error"
    },
    {
      "inputs": [],
      "name": "ZeroAddress",
      "type": "error"
    },
    {
      "inputs": [],
      "name": "ZeroValue",
      "type": "error"
    },
    {
      "anonymous": false,
      "inputs": [
        {
          "indexed": true,
          "internalType": "address",
          "name": "owner",
          "type": "address"
        },
        {
          "indexed": false,
          "internalType": "uint256",
          "name": "reward",
          "type": "uint256"
        },
        {
          "indexed": false,
          "internalType": "uint256",
          "name": "topUp",
          "type": "uint256"
        }
      ],
      "name": "IncentivesClaimed",
      "type": "event"
    },
    {
      "anonymous": false,
      "inputs": [
        {
          "indexed": true,
          "internalType": "address",
          "name": "owner",
          "type": "address"
        }
      ],
      "name": "OwnerUpdated",
      "type": "event"
    },
    {
      "anonymous": false,
      "inputs": [
        {
          "indexed": false,
          "internalType": "enum Dispenser.Pause",
          "name": "pauseState",
          "type": "uint8"
        }
      ],
      "name": "PauseDispenser",
      "type": "event"
    },
    {
      "anonymous": false,
      "inputs": [
        {
          "indexed": true,
          "internalType": "address",
          "name": "account",
          "type": "address"
        },
        {
          "indexed": false,
          "internalType": "uint256",
          "name": "returnAmount",
          "type": "uint256"
        }
      ],
      "name": "Retained",
      "type": "event"
    },
    {
      "anonymous": false,
      "inputs": [
        {
          "indexed": false,
          "internalType": "address[]",
          "name": "depositProcessors",
          "type": "address[]"
        },
        {
          "indexed": false,
          "internalType": "uint256[]",
          "name": "chainIds",
          "type": "uint256[]"
        }
      ],
      "name": "SetDepositProcessorChainIds",
      "type": "event"
    },
    {
      "anonymous": false,
      "inputs": [
        {
          "indexed": true,
          "internalType": "address",
          "name": "account",
          "type": "address"
        },
        {
          "indexed": false,
          "internalType": "uint256",
          "name": "stakingIncentive",
          "type": "uint256"
        },
        {
          "indexed": false,
          "internalType": "uint256",
          "name": "transferAmount",
          "type": "uint256"
        },
        {
          "indexed": false,
          "internalType": "uint256",
          "name": "returnAmount",
          "type": "uint256"
        }
      ],
      "name": "StakingIncentivesClaimed",
      "type": "event"
    },
    {
      "anonymous": false,
      "inputs": [
        {
          "indexed": false,
          "internalType": "uint256",
          "name": "maxNumClaimingEpochs",
          "type": "uint256"
        },
        {
          "indexed": false,
          "internalType": "uint256",
          "name": "maxNumStakingTargets",
          "type": "uint256"
        }
      ],
      "name": "StakingParamsUpdated",
      "type": "event"
    },
    {
      "anonymous": false,
      "inputs": [
        {
          "indexed": true,
          "internalType": "address",
          "name": "tokenomics",
          "type": "address"
        }
      ],
      "name": "TokenomicsUpdated",
      "type": "event"
    },
    {
      "anonymous": false,
      "inputs": [
        {
          "indexed": true,
          "internalType": "address",
          "name": "treasury",
          "type": "address"
        }
      ],
      "name": "TreasuryUpdated",
      "type": "event"
    },
    {
      "anonymous": false,
      "inputs": [
        {
          "indexed": true,
          "internalType": "address",
          "name": "voteWeighting",
          "type": "address"
        }
      ],
      "name": "VoteWeightingUpdated",
      "type": "event"
    },
    {
      "anonymous": false,
      "inputs": [
        {
          "indexed": false,
          "internalType": "uint256",
          "name": "chainId",
          "type": "uint256"
        },
        {
          "indexed": false,
          "internalType": "uint256",
          "name": "amount",
          "type": "uint256"
        },
        {
          "indexed": false,
          "internalType": "uint256",
          "name": "updatedWithheldAmount",
          "type": "uint256"
        },
        {
          "indexed": true,
          "internalType": "bytes32",
          "name": "batchHash",
          "type": "bytes32"
        }
      ],
      "name": "WithheldAmountSynced",
      "type": "event"
    },
    {
      "inputs": [],
      "name": "MAX_EVM_CHAIN_ID",
      "outputs": [
        {
          "internalType": "uint256",
          "name": "",
          "type": "uint256"
        }
      ],
      "stateMutability": "view",
      "type": "function"
    },
    {
      "inputs": [
        {
          "internalType": "bytes32",
          "name": "nomineeHash",
          "type": "bytes32"
        }
      ],
      "name": "addNominee",
      "outputs": [],
      "stateMutability": "nonpayable",
      "type": "function"
    },
    {
      "inputs": [
        {
          "internalType": "uint256",
          "name": "numClaimedEpochs",
          "type": "uint256"
        },
        {
          "internalType": "uint256",
          "name": "chainId",
          "type": "uint256"
        },
        {
          "internalType": "bytes32",
          "name": "stakingTarget",
          "type": "bytes32"
        },
        {
          "internalType": "uint256",
          "name": "bridgingDecimals",
          "type": "uint256"
        }
      ],
      "name": "calculateStakingIncentives",
      "outputs": [
        {
          "internalType": "uint256",
          "name": "totalStakingIncentive",
          "type": "uint256"
        },
        {
          "internalType": "uint256",
          "name": "totalReturnAmount",
          "type": "uint256"
        },
        {
          "internalType": "uint256",
          "name": "lastClaimedEpoch",
          "type": "uint256"
        },
        {
          "internalType": "bytes32",
          "name": "nomineeHash",
          "type": "bytes32"
        }
      ],
      "stateMutability": "nonpayable",
      "type": "function"
    },
    {
      "inputs": [
        {
          "internalType": "address",
          "name": "_tokenomics",
          "type": "address"
        },
        {
          "internalType": "address",
          "name": "_treasury",
          "type": "address"
        },
        {
          "internalType": "address",
          "name": "_voteWeighting",
          "type": "address"
        }
      ],
      "name": "changeManagers",
      "outputs": [],
      "stateMutability": "nonpayable",
      "type": "function"
    },
    {
      "inputs": [
        {
          "internalType": "address",
          "name": "newOwner",
          "type": "address"
        }
      ],
      "name": "changeOwner",
      "outputs": [],
      "stateMutability": "nonpayable",
      "type": "function"
    },
    {
      "inputs": [
        {
          "internalType": "uint256",
          "name": "_maxNumClaimingEpochs",
          "type": "uint256"
        },
        {
          "internalType": "uint256",
          "name": "_maxNumStakingTargets",
          "type": "uint256"
        }
      ],
      "name": "changeStakingParams",
      "outputs": [],
      "stateMutability": "nonpayable",
      "type": "function"
    },
    {
      "inputs": [
        {
          "internalType": "uint256[]",
          "name": "unitTypes",
          "type": "uint256[]"
        },
        {
          "internalType": "uint256[]",
          "name": "unitIds",
          "type": "uint256[]"
        }
      ],
      "name": "claimOwnerIncentives",
      "outputs": [
        {
          "internalType": "uint256",
          "name": "reward",
          "type": "uint256"
        },
        {
          "internalType": "uint256",
          "name": "topUp",
          "type": "uint256"
        }
      ],
      "stateMutability": "nonpayable",
      "type": "function"
    },
    {
      "inputs": [
        {
          "internalType": "uint256",
          "name": "numClaimedEpochs",
          "type": "uint256"
        },
        {
          "internalType": "uint256",
          "name": "chainId",
          "type": "uint256"
        },
        {
          "internalType": "bytes32",
          "name": "stakingTarget",
          "type": "bytes32"
        },
        {
          "internalType": "bytes",
          "name": "bridgePayload",
          "type": "bytes"
        }
      ],
      "name": "claimStakingIncentives",
      "outputs": [],
      "stateMutability": "payable",
      "type": "function"
    },
    {
      "inputs": [
        {
          "internalType": "uint256",
          "name": "numClaimedEpochs",
          "type": "uint256"
        },
        {
          "internalType": "uint256[]",
          "name": "chainIds",
          "type": "uint256[]"
        },
        {
          "internalType": "bytes32[][]",
          "name": "stakingTargets",
          "type": "bytes32[][]"
        },
        {
          "internalType": "bytes[]",
          "name": "bridgePayloads",
          "type": "bytes[]"
        },
        {
          "internalType": "uint256[]",
          "name": "valueAmounts",
          "type": "uint256[]"
        }
      ],
      "name": "claimStakingIncentivesBatch",
      "outputs": [],
      "stateMutability": "payable",
      "type": "function"
    },
    {
      "inputs": [],
      "name": "defaultMaxStakingIncentive",
      "outputs": [
        {
          "internalType": "uint256",
          "name": "",
          "type": "uint256"
        }
      ],
      "stateMutability": "view",
      "type": "function"
    },
    {
      "inputs": [],
      "name": "defaultMinStakingWeight",
      "outputs": [
        {
          "internalType": "uint256",
          "name": "",
          "type": "uint256"
        }
      ],
      "stateMutability": "view",
      "type": "function"
    },
    {
      "inputs": [
        {
          "internalType": "uint256",
          "name": "",
          "type": "uint256"
        }
      ],
      "name": "mapChainIdDepositProcessors",
      "outputs": [
        {
          "internalType": "address",
          "name": "",
          "type": "address"
        }
      ],
      "stateMutability": "view",
      "type": "function"
    },
    {
      "inputs": [
        {
          "internalType": "uint256",
          "name": "",
          "type": "uint256"
        }
      ],
      "name": "mapChainIdWithheldAmounts",
      "outputs": [
        {
          "internalType": "uint256",
          "name": "",
          "type": "uint256"
        }
      ],
      "stateMutability": "view",
      "type": "function"
    },
    {
      "inputs": [
        {
          "internalType": "bytes32",
          "name": "",
          "type": "bytes32"
        }
      ],
      "name": "mapLastClaimedStakingEpochs",
      "outputs": [
        {
          "internalType": "uint256",
          "name": "",
          "type": "uint256"
        }
      ],
      "stateMutability": "view",
      "type": "function"
    },
    {
      "inputs": [
        {
          "internalType": "bytes32",
          "name": "",
          "type": "bytes32"
        }
      ],
      "name": "mapRemovedNomineeEpochs",
      "outputs": [
        {
          "internalType": "uint256",
          "name": "",
          "type": "uint256"
        }
      ],
      "stateMutability": "view",
      "type": "function"
    },
    {
      "inputs": [
        {
          "internalType": "uint256",
          "name": "",
          "type": "uint256"
        }
      ],
      "name": "mapZeroWeightEpochRefunded",
      "outputs": [
        {
          "internalType": "bool",
          "name": "",
          "type": "bool"
        }
      ],
      "stateMutability": "view",
      "type": "function"
    },
    {
      "inputs": [],
      "name": "maxNumClaimingEpochs",
      "outputs": [
        {
          "internalType": "uint256",
          "name": "",
          "type": "uint256"
        }
      ],
      "stateMutability": "view",
      "type": "function"
    },
    {
      "inputs": [],
      "name": "maxNumStakingTargets",
      "outputs": [
        {
          "internalType": "uint256",
          "name": "",
          "type": "uint256"
        }
      ],
      "stateMutability": "view",
      "type": "function"
    },
    {
      "inputs": [],
      "name": "olas",
      "outputs": [
        {
          "internalType": "address",
          "name": "",
          "type": "address"
        }
      ],
      "stateMutability": "view",
      "type": "function"
    },
    {
      "inputs": [],
      "name": "owner",
      "outputs": [
        {
          "internalType": "address",
          "name": "",
          "type": "address"
        }
      ],
      "stateMutability": "view",
      "type": "function"
    },
    {
      "inputs": [],
      "name": "paused",
      "outputs": [
        {
          "internalType": "enum Dispenser.Pause",
          "name": "",
          "type": "uint8"
        }
      ],
      "stateMutability": "view",
      "type": "function"
    },
    {
      "inputs": [
        {
          "internalType": "bytes32",
          "name": "nomineeHash",
          "type": "bytes32"
        }
      ],
      "name": "removeNominee",
      "outputs": [],
      "stateMutability": "nonpayable",
      "type": "function"
    },
    {
      "inputs": [],
      "name": "retain",
      "outputs": [],
      "stateMutability": "nonpayable",
      "type": "function"
    },
    {
      "inputs": [],
      "name": "retainer",
      "outputs": [
        {
          "internalType": "bytes32",
          "name": "",
          "type": "bytes32"
        }
      ],
      "stateMutability": "view",
      "type": "function"
    },
    {
      "inputs": [],
      "name": "retainerHash",
      "outputs": [
        {
          "internalType": "bytes32",
          "name": "",
          "type": "bytes32"
        }
      ],
      "stateMutability": "view",
      "type": "function"
    },
    {
      "inputs": [
        {
          "internalType": "address[]",
          "name": "depositProcessors",
          "type": "address[]"
        },
        {
          "internalType": "uint256[]",
          "name": "chainIds",
          "type": "uint256[]"
        }
      ],
      "name": "setDepositProcessorChainIds",
      "outputs": [],
      "stateMutability": "nonpayable",
      "type": "function"
    },
    {
      "inputs": [
        {
          "internalType": "enum Dispenser.Pause",
          "name": "pauseState",
          "type": "uint8"
        }
      ],
      "name": "setPauseState",
      "outputs": [],
      "stateMutability": "nonpayable",
      "type": "function"
    },
    {
      "inputs": [
        {
          "internalType": "uint256",
          "name": "chainId",
          "type": "uint256"
        },
        {
          "internalType": "uint256",
          "name": "amount",
          "type": "uint256"
        },
        {
          "internalType": "bytes32",
          "name": "batchHash",
          "type": "bytes32"
        }
      ],
      "name": "syncWithheldAmount",
      "outputs": [],
      "stateMutability": "nonpayable",
      "type": "function"
    },
    {
      "inputs": [
        {
          "internalType": "uint256",
          "name": "chainId",
          "type": "uint256"
        },
        {
          "internalType": "uint256",
          "name": "amount",
          "type": "uint256"
        },
        {
          "internalType": "bytes32",
          "name": "batchHash",
          "type": "bytes32"
        }
      ],
      "name": "syncWithheldAmountMaintenance",
      "outputs": [],
      "stateMutability": "nonpayable",
      "type": "function"
    },
    {
      "inputs": [],
      "name": "tokenomics",
      "outputs": [
        {
          "internalType": "address",
          "name": "",
          "type": "address"
        }
      ],
      "stateMutability": "view",
      "type": "function"
    },
    {
      "inputs": [],
      "name": "treasury",
      "outputs": [
        {
          "internalType": "address",
          "name": "",
          "type": "address"
        }
      ],
      "stateMutability": "view",
      "type": "function"
    },
    {
      "inputs": [],
      "name": "voteWeighting",
      "outputs": [
        {
          "internalType": "address",
          "name": "",
          "type": "address"
        }
      ],
      "stateMutability": "view",
      "type": "function"
    }
  ],
  "bytecode": "0x610120604052348015610010575f80fd5b50604051614b01380380614b0183398101604081905261002f91610226565b6002805460ff60a01b1933166001600160a81b031990911617600160a01b1760ff60a81b1916600160a91b1790556001600160a01b038916158061007a57506001600160a01b038816155b8061008c57506001600160a01b038716155b8061009e57506001600160a01b038616155b806100a7575084155b156100c55760405163d92e233d60e01b815260040160405180910390fd5b8315806100d0575082155b806100d9575081155b806100e2575080155b1561010057604051637c946ed760e01b815260040160405180910390fd5b61ffff82111561013357604051637ae5968560e01b81526004810183905261ffff60248201526044015b60405180910390fd5b6001600160601b0381111561016b57604051637ae5968560e01b8152600481018290526001600160601b03602482015260440161012a565b6001600160a01b0398891660c05260038054988a166001600160a01b0319998a1617905560048054978a16978916979097179096556005805495909816949096169390931790955560e0819052604080518082018252828152466020918201908152825180830194909452518383015281518084038301815260609093019091528151910120610100525f9390935560019290925560805260a0526102a5565b80516001600160a01b0381168114610221575f80fd5b919050565b5f805f805f805f805f6101208a8c03121561023f575f80fd5b6102488a61020b565b985061025660208b0161020b565b975061026460408b0161020b565b965061027260608b0161020b565b955060808a0151945060a08a0151935060c08a0151925060e08a015191506101008a015190509295985092959850929598565b60805160a05160c05160e0516101005161479361036e5f395f81816103450152818161141401528181611cf50152611d9c01525f8181610671015281816114470152818161169b015281816116cf01528181611d2c01528181611ec60152818161318e01526131f401525f81816101ef015281816109c201528181610ac901528181610e4901528181610f98015281816126a3015281816127b001528181612ae4015261354c01525f818161063e01526118a401525f818161029c015261187001526147935ff3fe6080604052600436106101da575f3560e01c806379bc81dd116100fd578063bc7d5c5c11610092578063dcb5ccc411610062578063dcb5ccc4146105f9578063e09177781461062d578063e6be59e714610660578063f4da12ba14610693575f80fd5b8063bc7d5c5c14610568578063d529779314610587578063d7accbcc146105a6578063d8bf69bf146105da575f80fd5b80639649a35c116100cd5780639649a35c146104eb578063a5edd4fc146104ff578063a6f9dae11461051e578063bb78678f1461053d575f80fd5b806379bc81dd1461046e5780638513e77d1461048d5780638833c205146104b85780638da5cb5b146104cc575f80fd5b80633c18d1dd1161017357806361d027b31161014357806361d027b3146103d257806363096509146103f157806363c4d28e14610410578063777e49c91461042f575f80fd5b80633c18d1dd146103345780634ac7251d146103675780635a55a482146103865780635c975abb146103a5575f80fd5b80632ad923dc116101ae5780632ad923dc146102cc5780632c0f3f29146102f757806334be5af41461030c5780633907196c14610321575f80fd5b806231d115146101de5780630d17db111461022e5780630d3241ee1461026c5780632a3bb6931461028b575b5f80fd5b3480156101e9575f80fd5b506102117f000000000000000000000000000000000000000000000000000000000000000081565b6040516001600160a01b0390911681526020015b60405180910390f35b348015610239575f80fd5b5061025c610248366004613c36565b600a6020525f908152604090205460ff1681565b6040519015158152602001610225565b348015610277575f80fd5b50600554610211906001600160a01b031681565b348015610296575f80fd5b506102be7f000000000000000000000000000000000000000000000000000000000000000081565b604051908152602001610225565b3480156102d7575f80fd5b506102be6102e6366004613c36565b60066020525f908152604090205481565b61030a610305366004613cfe565b6106a7565b005b348015610317575f80fd5b506102be60015481565b61030a61032f366004613e5e565b610be6565b34801561033f575f80fd5b506102be7f000000000000000000000000000000000000000000000000000000000000000081565b348015610372575f80fd5b50600354610211906001600160a01b031681565b348015610391575f80fd5b5061030a6103a0366004613fde565b611148565b3480156103b0575f80fd5b506002546103c590600160a81b900460ff1681565b604051610225919061401b565b3480156103dd575f80fd5b50600454610211906001600160a01b031681565b3480156103fc575f80fd5b5061030a61040b366004614041565b611312565b34801561041b575f80fd5b5061030a61042a366004613c36565b6113d1565b34801561043a575f80fd5b5061044e610449366004614066565b611654565b604080519485526020850193909352918301526060820152608001610225565b348015610479575f80fd5b5061030a610488366004613fde565b611b99565b348015610498575f80fd5b506102be6104a7366004613c36565b60076020525f908152604090205481565b3480156104c3575f80fd5b506102be5f5481565b3480156104d7575f80fd5b50600254610211906001600160a01b031681565b3480156104f6575f80fd5b5061030a611ca8565b34801561050a575f80fd5b5061030a610519366004613c36565b61204a565b348015610529575f80fd5b5061030a6105383660046140b0565b6121ed565b348015610548575f80fd5b506102be610557366004613c36565b60096020525f908152604090205481565b348015610573575f80fd5b5061030a6105823660046140c9565b6122aa565b348015610592575f80fd5b5061030a6105a13660046140e9565b61235a565b3480156105b1575f80fd5b506105c56105c0366004614129565b6124c8565b60408051928352602083019190915201610225565b3480156105e5575f80fd5b5061030a6105f4366004614189565b6128f9565b348015610604575f80fd5b50610211610613366004613c36565b60086020525f90815260409020546001600160a01b031681565b348015610638575f80fd5b506102be7f000000000000000000000000000000000000000000000000000000000000000081565b34801561066b575f80fd5b506102be7f000000000000000000000000000000000000000000000000000000000000000081565b34801561069e575f80fd5b506102be612a5c565b6002546001600160a01b90910460ff1611156106d6576040516345f5ce8b60e11b815260040160405180910390fd5b6002805460ff60a01b1916600160a11b1790555f83900361070a57604051637c946ed760e01b815260040160405180910390fd5b5f82900361072b5760405163d92e233d60e01b815260040160405180910390fd5b5f548085111561075d57604051637ae5968560e01b815260048101869052602481018290526044015b60405180910390fd5b60028054600160a81b900460ff169081600381111561077e5761077e614007565b148061079b5750600381600381111561079957610799614007565b145b8061081257506004805460408051635c975abb60e01b815290516001600160a01b0390921692635c975abb92828201926020929082900301815f875af11580156107e7573d5f803e3d5ffd5b505050506040513d601f19601f8201168201806040525081019061080b919061423c565b60ff166002145b15610830576040516313d0ff5960e31b815260040160405180910390fd5b5f8581526008602090815260408083205481517fa8b2ae0200000000000000000000000000000000000000000000000000000000815291516001600160a01b039091169392849263a8b2ae0292600480830193928290030181865afa15801561089b573d5f803e3d5ffd5b505050506040513d601f19601f820116820180604052508101906108bf9190614255565b90505f805f806108d18c8c8c88611654565b5f81815260066020526040902082905592965090945092509050821561094b57600354604051635e148f0960e11b8152600481018590526001600160a01b039091169063bc291e12906024015f604051808303815f87803b158015610934575f80fd5b505af1158015610946573d5f803e3d5ffd5b505050505b5f8415610b8157505f8b815260096020526040902054849080156109a5578181106109845761097a8282614280565b90505f9150610994565b61098e8183614280565b91505f90505b5f8d81526009602052604090208190555b8115610b72576040516370a0823160e01b81523060048201525f907f00000000000000000000000000000000000000000000000000000000000000006001600160a01b0316906370a0823190602401602060405180830381865afa158015610a0f573d5f803e3d5ffd5b505050506040513d601f19601f82011682018060405250810190610a339190614255565b60048054604051637ff796ab60e01b815230928101929092525f6024830152604482018690529192506001600160a01b0390911690637ff796ab906064016020604051808303815f875af1158015610a8d573d5f803e3d5ffd5b505050506040513d601f19601f82011682018060405250810190610ab19190614299565b506040516370a0823160e01b815230600482015281907f00000000000000000000000000000000000000000000000000000000000000006001600160a01b0316906370a0823190602401602060405180830381865afa158015610b16573d5f803e3d5ffd5b505050506040513d601f19601f82011682018060405250810190610b3a9190614255565b610b449190614280565b9050828114610b705760405163312b003360e01b81526004810182905260248101849052604401610754565b505b610b7f8d8d888e86612a88565b505b604080518681526020810183905290810185905233907f02b21954a7bf2d6a171db9a87b430a3723605c554db00adcb95b26ce8464f2809060600160405180910390a250506002805460ff60a01b1916600160a01b1790555050505050505050505050565b6002546001600160a01b90910460ff161115610c15576040516345f5ce8b60e11b815260040160405180910390fd5b6002805460ff60a01b1916600160a11b179055610c3484848484612c86565b5f5480861115610c6157604051637ae5968560e01b81526004810187905260248101829052604401610754565b60028054600160a81b900460ff1690816003811115610c8257610c82614007565b1480610c9f57506003816003811115610c9d57610c9d614007565b145b80610d1657506004805460408051635c975abb60e01b815290516001600160a01b0390921692635c975abb92828201926020929082900301815f875af1158015610ceb573d5f803e3d5ffd5b505050506040513d601f19601f82011682018060405250810190610d0f919061423c565b60ff166002145b15610d34576040516313d0ff5960e31b815260040160405180910390fd5b6060806060610d448a8a8a612f84565b825192955090935091505f9084906002908110610d6357610d636142b8565b60200260200101511115610def5760035483516001600160a01b039091169063bc291e129085906002908110610d9b57610d9b6142b8565b60200260200101516040518263ffffffff1660e01b8152600401610dc191815260200190565b5f604051808303815f87803b158015610dd8575f80fd5b505af1158015610dea573d5f803e3d5ffd5b505050505b5f835f81518110610e0257610e026142b8565b60200260200101511115611086575f83600181518110610e2457610e246142b8565b60200260200101511115611078576040516370a0823160e01b81523060048201525f907f00000000000000000000000000000000000000000000000000000000000000006001600160a01b0316906370a0823190602401602060405180830381865afa158015610e96573d5f803e3d5ffd5b505050506040513d601f19601f82011682018060405250810190610eba9190614255565b60045485519192506001600160a01b031690637ff796ab9030905f9088906001908110610ee957610ee96142b8565b60209081029190910101516040517fffffffff0000000000000000000000000000000000000000000000000000000060e086901b1681526001600160a01b039093166004840152602483019190915260448201526064016020604051808303815f875af1158015610f5c573d5f803e3d5ffd5b505050506040513d601f19601f82011682018060405250810190610f809190614299565b506040516370a0823160e01b815230600482015281907f00000000000000000000000000000000000000000000000000000000000000006001600160a01b0316906370a0823190602401602060405180830381865afa158015610fe5573d5f803e3d5ffd5b505050506040513d601f19601f820116820180604052508101906110099190614255565b6110139190614280565b905083600181518110611028576110286142b8565b6020026020010151811461107657808460018151811061104a5761104a6142b8565b602002602001015160405163312b003360e01b8152600401610754929190918252602082015260400190565b505b6110868989848a858b6134de565b336001600160a01b03167f02b21954a7bf2d6a171db9a87b430a3723605c554db00adcb95b26ce8464f280845f815181106110c3576110c36142b8565b6020026020010151856001815181106110de576110de6142b8565b6020026020010151866002815181106110f9576110f96142b8565b6020026020010151604051611121939291909283526020830191909152604082015260600190565b60405180910390a250506002805460ff60a01b1916600160a01b1790555050505050505050565b6002546001600160a01b031633146111885760025460405163521eb56d60e11b81523360048201526001600160a01b039091166024820152604401610754565b821580611193575081155b8061119c575080155b156111ba57604051637c946ed760e01b815260040160405180910390fd5b4683036111dd57604051633881b68960e01b815260048101849052602401610754565b5f838152600960205260408120546111f69084906142cc565b90506bffffffffffffffffffffffff81111561123a57604051637ae5968560e01b8152600481018290526bffffffffffffffffffffffff6024820152604401610754565b5f8481526009602090815260408083208490556008909152908190205490517fac65ded2000000000000000000000000000000000000000000000000000000008152600481018490526001600160a01b0390911690819063ac65ded2906024015f604051808303815f87803b1580156112b1575f80fd5b505af11580156112c3573d5f803e3d5ffd5b505060408051888152602081018890529081018590528592507f2192822efd68ddf583804c65675b73a59694e672cab1758eb6714613f932a97591506060015b60405180910390a25050505050565b6002546001600160a01b031633146113525760025460405163521eb56d60e11b81523360048201526001600160a01b039091166024820152604401610754565b600280548291907fffffffffffffffffffff00ffffffffffffffffffffffffffffffffffffffffff16600160a81b83600381111561139257611392614007565b02179055507fa814f27828c0243d429ea8c7033cb10f0c825b9466fdc04f63e0cca26c28eb8a816040516113c6919061401b565b60405180910390a150565b6005546001600160a01b031633146114115760055460405163312d21ff60e11b81523360048201526001600160a01b039091166024820152604401610754565b807f00000000000000000000000000000000000000000000000000000000000000000361147357604051636aba776560e11b81527f00000000000000000000000000000000000000000000000000000000000000006004820152602401610754565b600354604080517f14b19c5a00000000000000000000000000000000000000000000000000000000815290515f926001600160a01b0316916314b19c5a9160048083019260209291908290030181865afa1580156114d3573d5f803e3d5ffd5b505050506040513d601f19601f820116820180604052508101906114f791906142df565b60035463ffffffff9190911691505f906001600160a01b031663d4ee9f8d611520600185614280565b6040518263ffffffff1660e01b815260040161153e91815260200190565b602060405180830381865afa158015611559573d5f803e3d5ffd5b505050506040513d601f19601f8201168201806040525081019061157d9190614255565b90505f60035f9054906101000a90046001600160a01b03166001600160a01b031663d2b3996f6040518163ffffffff1660e01b8152600401602060405180830381865afa1580156115d0573d5f803e3d5ffd5b505050506040513d601f19601f820116820180604052508101906115f491906142df565b63ffffffff1690505f62093a8061160b83856142cc565b6116159190614280565b905080421061164057604051637ae5968560e01b815242600482015260248101829052604401610754565b5050505f9182526007602052604090912055565b5f805f80865f0361167857604051637c946ed760e01b815260040160405180910390fd5b5f8690036116995760405163d92e233d60e01b815260040160405180910390fd5b7f000000000000000000000000000000000000000000000000000000000000000086036116fb57604051636aba776560e11b81527f00000000000000000000000000000000000000000000000000000000000000006004820152602401610754565b5060408051808201825286815260209081018881528251808301899052905181840152825180820384018152606090910190925281519101205f61173f828a613ae7565b6005546040516317d5e89d60e31b8152600481018b9052602481018c90529195509192506001600160a01b039091169063beaf44e8906044015f604051808303815f87803b15801561178f575f80fd5b505af11580156117a1573d5f803e3d5ffd5b5083925050505b83811015611b8c575f818152600a602052604090205460ff16611b8457600354604051631ddf133560e01b8152600481018390525f916001600160a01b031690631ddf133590602401608060405180830381865afa15801561180c573d5f803e3d5ffd5b505050506040513d601f19601f82011682018060405250810190611830919061431d565b606081015190915060ff16156118cf57604081015161ffff16158015611866575060208101516bffffffffffffffffffffffff16155b156118ca5761ffff7f00000000000000000000000000000000000000000000000000000000000000001660408201526bffffffffffffffffffffffff7f00000000000000000000000000000000000000000000000000000000000000001660208201525b6118d5565b50611b84565b60035460405163d4ee9f8d60e01b8152600481018490525f916001600160a01b03169063d4ee9f8d90602401602060405180830381865afa15801561191c573d5f803e3d5ffd5b505050506040513d601f19601f820116820180604052508101906119409190614255565b600554604051630c88d47f60e41b8152600481018d9052602481018e9052604481018390529192505f9182916001600160a01b03169063c88d47f0906064016040805180830381865afa158015611999573d5f803e3d5ffd5b505050506040513d601f19601f820116820180604052508101906119bd91906143a0565b91509150805f03611a05575f858152600a60205260409020805460ff1916600117905583516119fa906bffffffffffffffffffffffff168a6142cc565b985050505050611b84565b83515f9081906bffffffffffffffffffffffff168184821115611a3257611a2c8583614280565b90508491505b6040880151611a4b9061ffff16655af3107a40006143c2565b861015611a8157670de0b6b3a764000086611a6684846142cc565b611a7091906143c2565b611a7a91906143ed565b9250611b6f565b670de0b6b3a7640000611a9487846143c2565b611a9e91906143ed565b9350670de0b6b3a7640000611ab387836143c2565b611abd91906143ed565b925087602001516bffffffffffffffffffffffff16915081841115611af657611ae68285614280565b611af090846142cc565b92508193505b60128f1015611b62575f8f6012611b0d9190614280565b611b1890600a6144e0565b611b2290866143ed565b90508f6012611b319190614280565b611b3c90600a6144e0565b611b4690826143c2565b9050611b528186614280565b611b5c90856142cc565b90945092505b611b6c848f6142cc565b9d505b611b79838e6142cc565b9c5050505050505050505b6001016117a8565b5050945094509450949050565b5f838152600860205260409020546001600160a01b0316338114611bfa576040517fdeeeedec0000000000000000000000000000000000000000000000000000000081523360048201526001600160a01b0382166024820152604401610754565b5f84815260096020526040812054611c139085906142cc565b90506bffffffffffffffffffffffff811115611c5757604051637ae5968560e01b8152600481018290526bffffffffffffffffffffffff6024820152604401610754565b5f85815260096020908152604091829020839055815187815290810186905290810182905283907f2192822efd68ddf583804c65675b73a59694e672cab1758eb6714613f932a97590606001611303565b6002546001600160a01b90910460ff161115611cd7576040516345f5ce8b60e11b815260040160405180910390fd5b6002805460ff60a01b1916600160a11b1790555f80548190611d1a907f000000000000000000000000000000000000000000000000000000000000000090613ae7565b6005546040516317d5e89d60e31b81527f000000000000000000000000000000000000000000000000000000000000000060048201524660248201529294509092506001600160a01b03169063beaf44e8906044015f604051808303815f87803b158015611d86575f80fd5b505af1158015611d98573d5f803e3d5ffd5b50507f00000000000000000000000000000000000000000000000000000000000000005f90815260066020526040812084905591508390505b82811015611f8857600354604051631ddf133560e01b8152600481018390525f916001600160a01b031690631ddf133590602401608060405180830381865afa158015611e20573d5f803e3d5ffd5b505050506040513d601f19601f82011682018060405250810190611e44919061431d565b60035460405163d4ee9f8d60e01b8152600481018590529192505f916001600160a01b039091169063d4ee9f8d90602401602060405180830381865afa158015611e90573d5f803e3d5ffd5b505050506040513d601f19601f82011682018060405250810190611eb49190614255565b600554604051630c88d47f60e41b81527f00000000000000000000000000000000000000000000000000000000000000006004820152466024820152604481018390529192505f916001600160a01b039091169063c88d47f0906064016040805180830381865afa158015611f2b573d5f803e3d5ffd5b505050506040513d601f19601f82011682018060405250810190611f4f91906143a0565b508351909150611f6e9082906bffffffffffffffffffffffff166143c2565b611f7890866142cc565b9450505050806001019050611dd1565b50611f9b670de0b6b3a7640000826143ed565b90508015611ffd57600354604051635e148f0960e11b8152600481018390526001600160a01b039091169063bc291e12906024015f604051808303815f87803b158015611fe6575f80fd5b505af1158015611ff8573d5f803e3d5ffd5b505050505b60405181815233907f2a8de497d698d6869cb0844411788378e76214d03a541eec6ba514b795d9f42e9060200160405180910390a250506002805460ff60a01b1916600160a01b17905550565b6005546001600160a01b0316331461208a5760055460405163312d21ff60e11b81523360048201526001600160a01b039091166024820152604401610754565b60028054600160a81b900460ff16908160038111156120ab576120ab614007565b14806120c8575060038160038111156120c6576120c6614007565b145b8061213f57506004805460408051635c975abb60e01b815290516001600160a01b0390921692635c975abb92828201926020929082900301815f875af1158015612114573d5f803e3d5ffd5b505050506040513d601f19601f82011682018060405250810190612138919061423c565b60ff166002145b1561215d576040516313d0ff5960e31b815260040160405180910390fd5b60035f9054906101000a90046001600160a01b03166001600160a01b03166314b19c5a6040518163ffffffff1660e01b8152600401602060405180830381865afa1580156121ad573d5f803e3d5ffd5b505050506040513d601f19601f820116820180604052508101906121d191906142df565b5f9283526006602052604090922063ffffffff90921690915550565b6002546001600160a01b0316331461222d5760025460405163521eb56d60e11b81523360048201526001600160a01b039091166024820152604401610754565b6001600160a01b0381166122545760405163d92e233d60e01b815260040160405180910390fd5b6002805473ffffffffffffffffffffffffffffffffffffffff19166001600160a01b0383169081179091556040517f4ffd725fc4a22075e9ec71c59edf9c38cdeb588a91b24fc5b61388c5be41282b905f90a250565b6002546001600160a01b031633146122ea5760025460405163521eb56d60e11b81523360048201526001600160a01b039091166024820152604401610754565b8115806122f5575080155b1561231357604051637c946ed760e01b815260040160405180910390fd5b5f829055600181905560408051838152602081018390527f61f6c4cc9665a257352c0b46189ffc2ae6fbbc11e155ff20901217ff203a517e91015b60405180910390a15050565b6002546001600160a01b0316331461239a5760025460405163521eb56d60e11b81523360048201526001600160a01b039091166024820152604401610754565b6001600160a01b038316156123fd576003805473ffffffffffffffffffffffffffffffffffffffff19166001600160a01b0385169081179091556040517f4672fe7e13cfb163442d0b729b5733fb3efafc66cbe3677eac9940eb41c284c2905f90a25b6001600160a01b03821615612460576004805473ffffffffffffffffffffffffffffffffffffffff19166001600160a01b0384169081179091556040517f7dae230f18360d76a040c81f050aa14eb9d6dc7901b20fc5d855e2a20fe814d1905f90a25b6001600160a01b038116156124c3576005805473ffffffffffffffffffffffffffffffffffffffff19166001600160a01b0383169081179091556040517f04a606379838ed6fc83fd189eea9d1835b5eff05035c4b74622911ea2ae6b217905f90a25b505050565b5f806001600260149054906101000a900460ff1660ff1611156124fe576040516345f5ce8b60e11b815260040160405180910390fd5b6002805460ff60a01b1916600160a11b179081905560ff600160a81b90910416600181600381111561253257612532614007565b148061254f5750600381600381111561254d5761254d614007565b145b806125c657506004805460408051635c975abb60e01b815290516001600160a01b0390921692635c975abb92828201926020929082900301815f875af115801561259b573d5f803e3d5ffd5b505050506040513d601f19601f820116820180604052508101906125bf919061423c565b60ff166002145b156125e4576040516313d0ff5960e31b815260040160405180910390fd5b6003546040517f2e070f540000000000000000000000000000000000000000000000000000000081526001600160a01b0390911690632e070f549061263190339089908990600401614525565b60408051808303815f875af115801561264c573d5f803e3d5ffd5b505050506040513d601f19601f8201168201806040525081019061267091906143a0565b90935091505f8061268184866142cc565b1115612859575f8315612717576040516370a0823160e01b81523360048201527f00000000000000000000000000000000000000000000000000000000000000006001600160a01b0316906370a0823190602401602060405180830381865afa1580156126f0573d5f803e3d5ffd5b505050506040513d601f19601f820116820180604052508101906127149190614255565b90505b60048054604051637ff796ab60e01b8152339281019290925260248201879052604482018690526001600160a01b031690637ff796ab906064016020604051808303815f875af115801561276d573d5f803e3d5ffd5b505050506040513d601f19601f820116820180604052508101906127919190614299565b91508315612857576040516370a0823160e01b815233600482015281907f00000000000000000000000000000000000000000000000000000000000000006001600160a01b0316906370a0823190602401602060405180830381865afa1580156127fd573d5f803e3d5ffd5b505050506040513d601f19601f820116820180604052508101906128219190614255565b61282b9190614280565b90508381146128575760405163312b003360e01b81526004810182905260248101859052604401610754565b505b806128a0576040517f942dc9da0000000000000000000000000000000000000000000000000000000081523360048201526024810185905260448101849052606401610754565b604080518581526020810185905233917f928890dff971de1394b7440848938a868d83445d2f7fb4b07938ae626c7cb130910160405180910390a250506002805460ff60a01b1916600160a01b17905590939092509050565b6002546001600160a01b031633146129395760025460405163521eb56d60e11b81523360048201526001600160a01b039091166024820152604401610754565b8151158061294957508051825114155b1561297457815181516040516308151c1160e41b815260048101929092526024820152604401610754565b5f5b8151811015612a2a57818181518110612991576129916142b8565b60200260200101515f036129b857604051637c946ed760e01b815260040160405180910390fd5b8281815181106129ca576129ca6142b8565b602002602001015160085f8484815181106129e7576129e76142b8565b602002602001015181526020019081526020015f205f6101000a8154816001600160a01b0302191690836001600160a01b03160217905550806001019050612976565b507fe87460f6c400fa0166984512586d7bdf03a3230bbadf9651f27f08716dd77fa5828260405161234e92919061459a565b6024612a71600267ffffffffffffffff6145c7565b612a7b91906145ed565b67ffffffffffffffff1681565b5f858152600860205260409020546001600160a01b03168115612b50576040517fa9059cbb0000000000000000000000000000000000000000000000000000000081526001600160a01b038281166004830152602482018490527f0000000000000000000000000000000000000000000000000000000000000000169063a9059cbb906044016020604051808303815f875af1158015612b2a573d5f803e3d5ffd5b505050506040513d601f19601f82011682018060405250810190612b4e9190614299565b505b6024612b65600267ffffffffffffffff6145c7565b612b6f91906145ed565b67ffffffffffffffff168611612c02576040517fb2267a7b00000000000000000000000000000000000000000000000000000000815285906001600160a01b0383169063b2267a7b903490612bce9085908a908a908a90600401614643565b5f604051808303818588803b158015612be5575f80fd5b505af1158015612bf7573d5f803e3d5ffd5b505050505050612c7e565b6040517f6585ecdc0000000000000000000000000000000000000000000000000000000081526001600160a01b03821690636585ecdc903490612c4f90899089908990899060040161467b565b5f604051808303818588803b158015612c66575f80fd5b505af1158015612c78573d5f803e3d5ffd5b50505050505b505050505050565b8251845114612cb557835183516040516308151c1160e41b815260048101929092526024820152604401610754565b8151845114612ce457835182516040516308151c1160e41b815260048101929092526024820152604401610754565b8051845114612d1357835181516040516308151c1160e41b815260048101929092526024820152604401610754565b5f805f5b8651811015612f5a57868181518110612d3257612d326142b8565b60200260200101518310612d7657868181518110612d5257612d526142b8565b6020026020010151604051633881b68960e01b815260040161075491815260200190565b868181518110612d8857612d886142b8565b60200260200101519250858181518110612da457612da46142b8565b6020026020010151515f03612dcc57604051637c946ed760e01b815260040160405180910390fd5b838181518110612dde57612dde6142b8565b602002602001015182612df191906142cc565b91505f600154905080878381518110612e0c57612e0c6142b8565b6020026020010151511115612e5b57868281518110612e2d57612e2d6142b8565b60200260200101515181604051637ae5968560e01b8152600401610754929190918252602082015260400190565b5f805b888481518110612e7057612e706142b8565b602002602001015151811015612f4c57888481518110612e9257612e926142b8565b60200260200101518181518110612eab57612eab6142b8565b60200260200101515f1c825f1c10612f0c57888481518110612ecf57612ecf6142b8565b60200260200101518181518110612ee857612ee86142b8565b6020026020010151604051636aba776560e11b815260040161075491815260200190565b888481518110612f1e57612f1e6142b8565b60200260200101518181518110612f3757612f376142b8565b60200260200101519150806001019050612e5e565b505050806001019050612d17565b50803414612c7e5760405163312b003360e01b815234600482015260248101829052604401610754565b6040805160038082526080820190925260609182918291602082018380368337019050509250845167ffffffffffffffff811115612fc457612fc4613c4d565b604051908082528060200260200182016040528015612ff757816020015b6060815260200190600190039081612fe25790505b509150845167ffffffffffffffff81111561301457613014613c4d565b60405190808252806020026020018201604052801561303d578160200160208202803683370190505b5090505f5b85518110156134d4575f60085f888481518110613061576130616142b8565b602002602001015181526020019081526020015f205f9054906101000a90046001600160a01b031690505f816001600160a01b031663a8b2ae026040518163ffffffff1660e01b8152600401602060405180830381865afa1580156130c8573d5f803e3d5ffd5b505050506040513d601f19601f820116820180604052508101906130ec9190614255565b9050868381518110613100576131006142b8565b60200260200101515167ffffffffffffffff81111561312157613121613c4d565b60405190808252806020026020018201604052801561314a578160200160208202803683370190505b5085848151811061315d5761315d6142b8565b60200260200101819052505f5b87848151811061317c5761317c6142b8565b602002602001015151811015613363577f00000000000000000000000000000000000000000000000000000000000000008885815181106131bf576131bf6142b8565b602002602001015182815181106131d8576131d86142b8565b60200260200101510361322057604051636aba776560e11b81527f00000000000000000000000000000000000000000000000000000000000000006004820152602401610754565b5f805f8061327b8e8e8a8151811061323a5761323a6142b8565b60200260200101518e8b81518110613254576132546142b8565b6020026020010151888151811061326d5761326d6142b8565b602002602001015189611654565b5f8181526006602052604090208290558d519397509195509350915084908b908a9081106132ab576132ab6142b8565b602002602001015186815181106132c4576132c46142b8565b602002602001018181525050838989815181106132e3576132e36142b8565b602002602001018181516132f791906142cc565b9052508a5184908c905f9061330e5761330e6142b8565b6020026020010181815161332291906142cc565b9052508a5183908c90600290811061333c5761333c6142b8565b6020026020010181815161335091906142cc565b905250506001909301925061316a915050565b505f848481518110613377576133776142b8565b60200260200101511115613486575f60095f8a868151811061339b5761339b6142b8565b602002602001015181526020019081526020015f205490505f811115613484578484815181106133cd576133cd6142b8565b60200260200101518110613426578484815181106133ed576133ed6142b8565b6020026020010151816134009190614280565b90505f858581518110613415576134156142b8565b602002602001018181525050613454565b80858581518110613439576134396142b8565b6020026020010181815161344d9190614280565b9052505f90505b8060095f8b878151811061346a5761346a6142b8565b602002602001015181526020019081526020015f20819055505b505b838381518110613498576134986142b8565b6020026020010151866001815181106134b3576134b36142b8565b602002602001018181516134c791906142cc565b9052505050600101613042565b5093509350939050565b5f5b8651811015613ade575f60085f8984815181106134ff576134ff6142b8565b602002602001015181526020019081526020015f205f9054906101000a90046001600160a01b031690505f84838151811061353c5761353c6142b8565b60200260200101511115613607577f00000000000000000000000000000000000000000000000000000000000000006001600160a01b031663a9059cbb8286858151811061358c5761358c6142b8565b60200260200101516040518363ffffffff1660e01b81526004016135c59291906001600160a01b03929092168252602082015260400190565b6020604051808303815f875af11580156135e1573d5f803e3d5ffd5b505050506040513d601f19601f820116820180604052508101906136059190614299565b505b5f8088848151811061361b5761361b6142b8565b60200260200101515167ffffffffffffffff81111561363c5761363c613c4d565b604051908082528060200260200182016040528015613665578160200160208202803683370190505b5090505f5b89858151811061367c5761367c6142b8565b6020026020010151518110156136fe575f89868151811061369f5761369f6142b8565b602002602001015182815181106136b8576136b86142b8565b602002602001015111156136f65760018282815181106136da576136da6142b8565b911515602092830291909101909101526136f383614699565b92505b60010161366a565b505f8267ffffffffffffffff81111561371957613719613c4d565b604051908082528060200260200182016040528015613742578160200160208202803683370190505b5090505f8367ffffffffffffffff81111561375f5761375f613c4d565b604051908082528060200260200182016040528015613788578160200160208202803683370190505b5090505f805b8c88815181106137a0576137a06142b8565b602002602001015151811015613884578481815181106137c2576137c26142b8565b60200260200101511561387c578c88815181106137e1576137e16142b8565b602002602001015181815181106137fa576137fa6142b8565b6020026020010151848381518110613814576138146142b8565b6020026020010181815250508b8881518110613832576138326142b8565b6020026020010151818151811061384b5761384b6142b8565b6020026020010151838381518110613865576138656142b8565b602090810291909101015261387982614699565b91505b60010161378e565b50602461389a600267ffffffffffffffff6145c7565b6138a491906145ed565b67ffffffffffffffff168d88815181106138c0576138c06142b8565b602002602001015111613a20575f835167ffffffffffffffff8111156138e8576138e8613c4d565b604051908082528060200260200182016040528015613911578160200160208202803683370190505b5090505f5b845181101561396d57848181518110613931576139316142b8565b60200260200101515f1c82828151811061394d5761394d6142b8565b6001600160a01b0390921660209283029190910190910152600101613916565b50866001600160a01b031663bde526618a8a8151811061398f5761398f6142b8565b602002602001015183868f8d815181106139ab576139ab6142b8565b60200260200101518f8e815181106139c5576139c56142b8565b60200260200101516040518663ffffffff1660e01b81526004016139ec94939291906146b1565b5f604051808303818588803b158015613a03575f80fd5b505af1158015613a15573d5f803e3d5ffd5b505050505050613acd565b856001600160a01b03166355442b59898981518110613a4157613a416142b8565b602002602001015185858e8c81518110613a5d57613a5d6142b8565b60200260200101518e8d81518110613a7757613a776142b8565b60200260200101516040518663ffffffff1660e01b8152600401613a9e94939291906146fb565b5f604051808303818588803b158015613ab5575f80fd5b505af1158015613ac7573d5f803e3d5ffd5b50505050505b5050505050508060010190506134e0565b50505050505050565b5f805f60035f9054906101000a90046001600160a01b03166001600160a01b03166314b19c5a6040518163ffffffff1660e01b8152600401602060405180830381865afa158015613b3a573d5f803e3d5ffd5b505050506040513d601f19601f82011682018060405250810190613b5e91906142df565b5f86815260066020526040812054945063ffffffff919091169150839003613b9957604051637c946ed760e01b815260040160405180910390fd5b808303613bce5782613bac600183614280565b604051637ae5968560e01b815260048101929092526024820152604401610754565b5f85815260076020526040902054600181118015613bec5750808410155b15613bfd5783613bac600183614280565b613c0785856142cc565b9250600181118015613c1857508083115b15613c21578092505b81831115613c2d578192505b50509250929050565b5f60208284031215613c46575f80fd5b5035919050565b634e487b7160e01b5f52604160045260245ffd5b604051601f8201601f1916810167ffffffffffffffff81118282101715613c8a57613c8a613c4d565b604052919050565b5f82601f830112613ca1575f80fd5b813567ffffffffffffffff811115613cbb57613cbb613c4d565b613cce601f8201601f1916602001613c61565b818152846020838601011115613ce2575f80fd5b816020850160208301375f918101602001919091529392505050565b5f805f8060808587031215613d11575f80fd5b843593506020850135925060408501359150606085013567ffffffffffffffff811115613d3c575f80fd5b613d4887828801613c92565b91505092959194509250565b5f67ffffffffffffffff821115613d6d57613d6d613c4d565b5060051b60200190565b5f82601f830112613d86575f80fd5b81356020613d9b613d9683613d54565b613c61565b8083825260208201915060208460051b870101935086841115613dbc575f80fd5b602086015b84811015613dd85780358352918301918301613dc1565b509695505050505050565b5f82601f830112613df2575f80fd5b81356020613e02613d9683613d54565b82815260059290921b84018101918181019086841115613e20575f80fd5b8286015b84811015613dd857803567ffffffffffffffff811115613e42575f80fd5b613e508986838b0101613c92565b845250918301918301613e24565b5f805f805f60a08688031215613e72575f80fd5b8535945067ffffffffffffffff8060208801351115613e8f575f80fd5b613e9f8860208901358901613d77565b94508060408801351115613eb1575f80fd5b6040870135870188601f820112613ec6575f80fd5b613ed3613d968235613d54565b81358082526020808301929160051b8401018b1015613ef0575f80fd5b602083015b6020843560051b850101811015613f8a578481351115613f13575f80fd5b803584018c603f820112613f25575f80fd5b613f35613d966020830135613d54565b602082810135808352908201919060051b83016040018f811115613f57575f80fd5b6040840193505b80841015613f79578335835260209384019390920191613f5e565b508552505060209283019201613ef5565b50955050506060870135811015613f9f575f80fd5b613faf8860608901358901613de3565b92508060808801351115613fc1575f80fd5b50613fd28760808801358801613d77565b90509295509295909350565b5f805f60608486031215613ff0575f80fd5b505081359360208301359350604090920135919050565b634e487b7160e01b5f52602160045260245ffd5b602081016004831061403b57634e487b7160e01b5f52602160045260245ffd5b91905290565b5f60208284031215614051575f80fd5b81356004811061405f575f80fd5b9392505050565b5f805f8060808587031215614079575f80fd5b5050823594602084013594506040840135936060013592509050565b80356001600160a01b03811681146140ab575f80fd5b919050565b5f602082840312156140c0575f80fd5b61405f82614095565b5f80604083850312156140da575f80fd5b50508035926020909101359150565b5f805f606084860312156140fb575f80fd5b61410484614095565b925061411260208501614095565b915061412060408501614095565b90509250925092565b5f806040838503121561413a575f80fd5b823567ffffffffffffffff80821115614151575f80fd5b61415d86838701613d77565b93506020850135915080821115614172575f80fd5b5061417f85828601613d77565b9150509250929050565b5f806040838503121561419a575f80fd5b823567ffffffffffffffff808211156141b1575f80fd5b818501915085601f8301126141c4575f80fd5b813560206141d4613d9683613d54565b82815260059290921b840181019181810190898411156141f2575f80fd5b948201945b838610156142175761420886614095565b825294820194908201906141f7565b96505086013592505080821115614172575f80fd5b805160ff811681146140ab575f80fd5b5f6020828403121561424c575f80fd5b61405f8261422c565b5f60208284031215614265575f80fd5b5051919050565b634e487b7160e01b5f52601160045260245ffd5b818103818111156142935761429361426c565b92915050565b5f602082840312156142a9575f80fd5b8151801515811461405f575f80fd5b634e487b7160e01b5f52603260045260245ffd5b808201808211156142935761429361426c565b5f602082840312156142ef575f80fd5b815163ffffffff8116811461405f575f80fd5b80516bffffffffffffffffffffffff811681146140ab575f80fd5b5f6080828403121561432d575f80fd5b6040516080810181811067ffffffffffffffff8211171561435057614350613c4d565b60405261435c83614302565b815261436a60208401614302565b6020820152604083015161ffff81168114614383575f80fd5b60408201526143946060840161422c565b60608201529392505050565b5f80604083850312156143b1575f80fd5b505080516020909101519092909150565b80820281158282048414176142935761429361426c565b634e487b7160e01b5f52601260045260245ffd5b5f826143fb576143fb6143d9565b500490565b600181815b8085111561443a57815f19048211156144205761442061426c565b8085161561442d57918102915b93841c9390800290614405565b509250929050565b5f8261445057506001614293565b8161445c57505f614293565b8160018114614472576002811461447c57614498565b6001915050614293565b60ff84111561448d5761448d61426c565b50506001821b614293565b5060208310610133831016604e8410600b84101617156144bb575081810a614293565b6144c58383614400565b805f19048211156144d8576144d861426c565b029392505050565b5f61405f8383614442565b5f815180845260208085019450602084015f5b8381101561451a578151875295820195908201906001016144fe565b509495945050505050565b6001600160a01b0384168152606060208201525f61454660608301856144eb565b828103604084015261455881856144eb565b9695505050505050565b5f815180845260208085019450602084015f5b8381101561451a5781516001600160a01b031687529582019590820190600101614575565b604081525f6145ac6040830185614562565b82810360208401526145be81856144eb565b95945050505050565b5f67ffffffffffffffff808416806145e1576145e16143d9565b92169190910492915050565b67ffffffffffffffff82811682821603908082111561460e5761460e61426c565b5092915050565b5f81518084528060208401602086015e5f602082860101526020601f19601f83011685010191505092915050565b6001600160a01b0385168152836020820152608060408201525f61466a6080830185614615565b905082606083015295945050505050565b848152836020820152608060408201525f61466a6080830185614615565b5f600182016146aa576146aa61426c565b5060010190565b608081525f6146c36080830187614562565b82810360208401526146d581876144eb565b905082810360408401526146e98186614615565b91505082606083015295945050505050565b608080825285519082018190525f9060209060a0840190828901845b8281101561473357815184529284019290840190600101614717565b505050838103602085015261474881886144eb565b91505082810360408401526146e9818661461556fea2646970667358221220d5ad21b1e3c7f46f079be5de02f8abed25c59cb8c181f76db5750438335cf60864736f6c63430008190033",
  "linkReferences": {},
  "deployedLinkReferences": {}
}