{
  "_format": "hh-sol-artifact-1",
  "contractName": "Dispenser",
  "sourceName": "contracts/Dispenser.sol",
  "abi": [
    {
      "inputs": [
        {
          "internalType": "address",
          "name": "_olas",
          "type": "address"
        },
        {
          "internalType": "address",
          "name": "_tokenomics",
          "type": "address"
        },
        {
          "internalType": "address",
          "name": "_treasury",
          "type": "address"
        },
        {
          "internalType": "address",
          "name": "_voteWeighting",
          "type": "address"
        },
        {
          "internalType": "bytes32",
          "name": "_retainer",
          "type": "bytes32"
        },
        {
          "internalType": "uint256",
          "name": "_maxNumClaimingEpochs",
          "type": "uint256"
        },
        {
          "internalType": "uint256",
          "name": "_maxNumStakingTargets",
          "type": "uint256"
        }
      ],
      "stateMutability": "nonpayable",
      "type": "constructor"
    },
    {
      "inputs": [
        {
          "internalType": "address",
          "name": "account",
          "type": "address"
        },
        {
          "internalType": "uint256",
          "name": "reward",
          "type": "uint256"
        },
        {
          "internalType": "uint256",
          "name": "topUp",
          "type": "uint256"
        }
      ],
      "name": "ClaimIncentivesFailed",
      "type": "error"
    },
    {
      "inputs": [
        {
          "internalType": "address",
          "name": "sender",
          "type": "address"
        },
        {
          "internalType": "address",
          "name": "depositProcessor",
          "type": "address"
        }
      ],
      "name": "DepositProcessorOnly",
      "type": "error"
    },
    {
      "inputs": [
        {
          "internalType": "address",
          "name": "sender",
          "type": "address"
        },
        {
          "internalType": "address",
          "name": "manager",
          "type": "address"
        }
      ],
      "name": "ManagerOnly",
      "type": "error"
    },
    {
      "inputs": [
        {
          "internalType": "uint256",
          "name": "provided",
          "type": "uint256"
        },
        {
          "internalType": "uint256",
          "name": "max",
          "type": "uint256"
        }
      ],
      "name": "Overflow",
      "type": "error"
    },
    {
      "inputs": [
        {
          "internalType": "address",
          "name": "sender",
          "type": "address"
        },
        {
          "internalType": "address",
          "name": "owner",
          "type": "address"
        }
      ],
      "name": "OwnerOnly",
      "type": "error"
    },
    {
      "inputs": [],
      "name": "Paused",
      "type": "error"
    },
    {
      "inputs": [],
      "name": "ReentrancyGuard",
      "type": "error"
    },
    {
      "inputs": [
        {
          "internalType": "bytes32",
          "name": "account",
          "type": "bytes32"
        }
      ],
      "name": "WrongAccount",
      "type": "error"
    },
    {
      "inputs": [
        {
          "internalType": "uint256",
          "name": "provided",
          "type": "uint256"
        },
        {
          "internalType": "uint256",
          "name": "expected",
          "type": "uint256"
        }
      ],
      "name": "WrongAmount",
      "type": "error"
    },
    {
      "inputs": [
        {
          "internalType": "uint256",
          "name": "numValues1",
          "type": "uint256"
        },
        {
          "internalType": "uint256",
          "name": "numValues2",
          "type": "uint256"
        }
      ],
      "name": "WrongArrayLength",
      "type": "error"
    },
    {
      "inputs": [
        {
          "internalType": "uint256",
          "name": "chainId",
          "type": "uint256"
        }
      ],
      "name": "WrongChainId",
      "type": "error"
    },
    {
      "inputs": [],
      "name": "ZeroAddress",
      "type": "error"
    },
    {
      "inputs": [],
      "name": "ZeroValue",
      "type": "error"
    },
    {
      "anonymous": false,
      "inputs": [
        {
          "indexed": true,
          "internalType": "address",
          "name": "owner",
          "type": "address"
        },
        {
          "indexed": false,
          "internalType": "uint256",
          "name": "reward",
          "type": "uint256"
        },
        {
          "indexed": false,
          "internalType": "uint256",
          "name": "topUp",
          "type": "uint256"
        }
      ],
      "name": "IncentivesClaimed",
      "type": "event"
    },
    {
      "anonymous": false,
      "inputs": [
        {
          "indexed": true,
          "internalType": "address",
          "name": "owner",
          "type": "address"
        }
      ],
      "name": "OwnerUpdated",
      "type": "event"
    },
    {
      "anonymous": false,
      "inputs": [
        {
          "indexed": false,
          "internalType": "enum Dispenser.Pause",
          "name": "pauseState",
          "type": "uint8"
        }
      ],
      "name": "PauseDispenser",
      "type": "event"
    },
    {
      "anonymous": false,
      "inputs": [
        {
          "indexed": true,
          "internalType": "address",
          "name": "account",
          "type": "address"
        },
        {
          "indexed": false,
          "internalType": "uint256",
          "name": "returnAmount",
          "type": "uint256"
        }
      ],
      "name": "Retained",
      "type": "event"
    },
    {
      "anonymous": false,
      "inputs": [
        {
          "indexed": false,
          "internalType": "address[]",
          "name": "depositProcessors",
          "type": "address[]"
        },
        {
          "indexed": false,
          "internalType": "uint256[]",
          "name": "chainIds",
          "type": "uint256[]"
        }
      ],
      "name": "SetDepositProcessorChainIds",
      "type": "event"
    },
    {
      "anonymous": false,
      "inputs": [
        {
          "indexed": true,
          "internalType": "address",
          "name": "account",
          "type": "address"
        },
        {
          "indexed": false,
          "internalType": "uint256",
          "name": "stakingIncentive",
          "type": "uint256"
        },
        {
          "indexed": false,
          "internalType": "uint256",
          "name": "transferAmount",
          "type": "uint256"
        },
        {
          "indexed": false,
          "internalType": "uint256",
          "name": "returnAmount",
          "type": "uint256"
        }
      ],
      "name": "StakingIncentivesClaimed",
      "type": "event"
    },
    {
      "anonymous": false,
      "inputs": [
        {
          "indexed": false,
          "internalType": "uint256",
          "name": "maxNumClaimingEpochs",
          "type": "uint256"
        },
        {
          "indexed": false,
          "internalType": "uint256",
          "name": "maxNumStakingTargets",
          "type": "uint256"
        }
      ],
      "name": "StakingParamsUpdated",
      "type": "event"
    },
    {
      "anonymous": false,
      "inputs": [
        {
          "indexed": true,
          "internalType": "address",
          "name": "tokenomics",
          "type": "address"
        }
      ],
      "name": "TokenomicsUpdated",
      "type": "event"
    },
    {
      "anonymous": false,
      "inputs": [
        {
          "indexed": true,
          "internalType": "address",
          "name": "treasury",
          "type": "address"
        }
      ],
      "name": "TreasuryUpdated",
      "type": "event"
    },
    {
      "anonymous": false,
      "inputs": [
        {
          "indexed": true,
          "internalType": "address",
          "name": "voteWeighting",
          "type": "address"
        }
      ],
      "name": "VoteWeightingUpdated",
      "type": "event"
    },
    {
      "anonymous": false,
      "inputs": [
        {
          "indexed": false,
          "internalType": "uint256",
          "name": "chainId",
          "type": "uint256"
        },
        {
          "indexed": false,
          "internalType": "uint256",
          "name": "amount",
          "type": "uint256"
        },
        {
          "indexed": false,
          "internalType": "uint256",
          "name": "updatedWithheldAmount",
          "type": "uint256"
        }
      ],
      "name": "WithheldAmountSynced",
      "type": "event"
    },
    {
      "inputs": [],
      "name": "MAX_EVM_CHAIN_ID",
      "outputs": [
        {
          "internalType": "uint256",
          "name": "",
          "type": "uint256"
        }
      ],
      "stateMutability": "view",
      "type": "function"
    },
    {
      "inputs": [
        {
          "internalType": "bytes32",
          "name": "nomineeHash",
          "type": "bytes32"
        }
      ],
      "name": "addNominee",
      "outputs": [],
      "stateMutability": "nonpayable",
      "type": "function"
    },
    {
      "inputs": [
        {
          "internalType": "uint256",
          "name": "numClaimedEpochs",
          "type": "uint256"
        },
        {
          "internalType": "uint256",
          "name": "chainId",
          "type": "uint256"
        },
        {
          "internalType": "bytes32",
          "name": "stakingTarget",
          "type": "bytes32"
        },
        {
          "internalType": "uint256",
          "name": "bridgingDecimals",
          "type": "uint256"
        }
      ],
      "name": "calculateStakingIncentives",
      "outputs": [
        {
          "internalType": "uint256",
          "name": "totalStakingIncentive",
          "type": "uint256"
        },
        {
          "internalType": "uint256",
          "name": "totalReturnAmount",
          "type": "uint256"
        },
        {
          "internalType": "uint256",
          "name": "lastClaimedEpoch",
          "type": "uint256"
        },
        {
          "internalType": "bytes32",
          "name": "nomineeHash",
          "type": "bytes32"
        }
      ],
      "stateMutability": "nonpayable",
      "type": "function"
    },
    {
      "inputs": [
        {
          "internalType": "address",
          "name": "_tokenomics",
          "type": "address"
        },
        {
          "internalType": "address",
          "name": "_treasury",
          "type": "address"
        },
        {
          "internalType": "address",
          "name": "_voteWeighting",
          "type": "address"
        }
      ],
      "name": "changeManagers",
      "outputs": [],
      "stateMutability": "nonpayable",
      "type": "function"
    },
    {
      "inputs": [
        {
          "internalType": "address",
          "name": "newOwner",
          "type": "address"
        }
      ],
      "name": "changeOwner",
      "outputs": [],
      "stateMutability": "nonpayable",
      "type": "function"
    },
    {
      "inputs": [
        {
          "internalType": "uint256",
          "name": "_maxNumClaimingEpochs",
          "type": "uint256"
        },
        {
          "internalType": "uint256",
          "name": "_maxNumStakingTargets",
          "type": "uint256"
        }
      ],
      "name": "changeStakingParams",
      "outputs": [],
      "stateMutability": "nonpayable",
      "type": "function"
    },
    {
      "inputs": [
        {
          "internalType": "uint256[]",
          "name": "unitTypes",
          "type": "uint256[]"
        },
        {
          "internalType": "uint256[]",
          "name": "unitIds",
          "type": "uint256[]"
        }
      ],
      "name": "claimOwnerIncentives",
      "outputs": [
        {
          "internalType": "uint256",
          "name": "reward",
          "type": "uint256"
        },
        {
          "internalType": "uint256",
          "name": "topUp",
          "type": "uint256"
        }
      ],
      "stateMutability": "nonpayable",
      "type": "function"
    },
    {
      "inputs": [
        {
          "internalType": "uint256",
          "name": "numClaimedEpochs",
          "type": "uint256"
        },
        {
          "internalType": "uint256",
          "name": "chainId",
          "type": "uint256"
        },
        {
          "internalType": "bytes32",
          "name": "stakingTarget",
          "type": "bytes32"
        },
        {
          "internalType": "bytes",
          "name": "bridgePayload",
          "type": "bytes"
        }
      ],
      "name": "claimStakingIncentives",
      "outputs": [],
      "stateMutability": "payable",
      "type": "function"
    },
    {
      "inputs": [
        {
          "internalType": "uint256",
          "name": "numClaimedEpochs",
          "type": "uint256"
        },
        {
          "internalType": "uint256[]",
          "name": "chainIds",
          "type": "uint256[]"
        },
        {
          "internalType": "bytes32[][]",
          "name": "stakingTargets",
          "type": "bytes32[][]"
        },
        {
          "internalType": "bytes[]",
          "name": "bridgePayloads",
          "type": "bytes[]"
        },
        {
          "internalType": "uint256[]",
          "name": "valueAmounts",
          "type": "uint256[]"
        }
      ],
      "name": "claimStakingIncentivesBatch",
      "outputs": [],
      "stateMutability": "payable",
      "type": "function"
    },
    {
      "inputs": [
        {
          "internalType": "uint256",
          "name": "",
          "type": "uint256"
        }
      ],
      "name": "mapChainIdDepositProcessors",
      "outputs": [
        {
          "internalType": "address",
          "name": "",
          "type": "address"
        }
      ],
      "stateMutability": "view",
      "type": "function"
    },
    {
      "inputs": [
        {
          "internalType": "uint256",
          "name": "",
          "type": "uint256"
        }
      ],
      "name": "mapChainIdWithheldAmounts",
      "outputs": [
        {
          "internalType": "uint256",
          "name": "",
          "type": "uint256"
        }
      ],
      "stateMutability": "view",
      "type": "function"
    },
    {
      "inputs": [
        {
          "internalType": "bytes32",
          "name": "",
          "type": "bytes32"
        }
      ],
      "name": "mapLastClaimedStakingEpochs",
      "outputs": [
        {
          "internalType": "uint256",
          "name": "",
          "type": "uint256"
        }
      ],
      "stateMutability": "view",
      "type": "function"
    },
    {
      "inputs": [
        {
          "internalType": "bytes32",
          "name": "",
          "type": "bytes32"
        }
      ],
      "name": "mapRemovedNomineeEpochs",
      "outputs": [
        {
          "internalType": "uint256",
          "name": "",
          "type": "uint256"
        }
      ],
      "stateMutability": "view",
      "type": "function"
    },
    {
      "inputs": [],
      "name": "maxNumClaimingEpochs",
      "outputs": [
        {
          "internalType": "uint256",
          "name": "",
          "type": "uint256"
        }
      ],
      "stateMutability": "view",
      "type": "function"
    },
    {
      "inputs": [],
      "name": "maxNumStakingTargets",
      "outputs": [
        {
          "internalType": "uint256",
          "name": "",
          "type": "uint256"
        }
      ],
      "stateMutability": "view",
      "type": "function"
    },
    {
      "inputs": [],
      "name": "olas",
      "outputs": [
        {
          "internalType": "address",
          "name": "",
          "type": "address"
        }
      ],
      "stateMutability": "view",
      "type": "function"
    },
    {
      "inputs": [],
      "name": "owner",
      "outputs": [
        {
          "internalType": "address",
          "name": "",
          "type": "address"
        }
      ],
      "stateMutability": "view",
      "type": "function"
    },
    {
      "inputs": [],
      "name": "paused",
      "outputs": [
        {
          "internalType": "enum Dispenser.Pause",
          "name": "",
          "type": "uint8"
        }
      ],
      "stateMutability": "view",
      "type": "function"
    },
    {
      "inputs": [
        {
          "internalType": "bytes32",
          "name": "nomineeHash",
          "type": "bytes32"
        }
      ],
      "name": "removeNominee",
      "outputs": [],
      "stateMutability": "nonpayable",
      "type": "function"
    },
    {
      "inputs": [],
      "name": "retain",
      "outputs": [],
      "stateMutability": "nonpayable",
      "type": "function"
    },
    {
      "inputs": [],
      "name": "retainer",
      "outputs": [
        {
          "internalType": "bytes32",
          "name": "",
          "type": "bytes32"
        }
      ],
      "stateMutability": "view",
      "type": "function"
    },
    {
      "inputs": [],
      "name": "retainerHash",
      "outputs": [
        {
          "internalType": "bytes32",
          "name": "",
          "type": "bytes32"
        }
      ],
      "stateMutability": "view",
      "type": "function"
    },
    {
      "inputs": [
        {
          "internalType": "address[]",
          "name": "depositProcessors",
          "type": "address[]"
        },
        {
          "internalType": "uint256[]",
          "name": "chainIds",
          "type": "uint256[]"
        }
      ],
      "name": "setDepositProcessorChainIds",
      "outputs": [],
      "stateMutability": "nonpayable",
      "type": "function"
    },
    {
      "inputs": [
        {
          "internalType": "enum Dispenser.Pause",
          "name": "pauseState",
          "type": "uint8"
        }
      ],
      "name": "setPauseState",
      "outputs": [],
      "stateMutability": "nonpayable",
      "type": "function"
    },
    {
      "inputs": [
        {
          "internalType": "uint256",
          "name": "chainId",
          "type": "uint256"
        },
        {
          "internalType": "uint256",
          "name": "amount",
          "type": "uint256"
        }
      ],
      "name": "syncWithheldAmount",
      "outputs": [],
      "stateMutability": "nonpayable",
      "type": "function"
    },
    {
      "inputs": [
        {
          "internalType": "uint256",
          "name": "chainId",
          "type": "uint256"
        },
        {
          "internalType": "uint256",
          "name": "amount",
          "type": "uint256"
        }
      ],
      "name": "syncWithheldAmountMaintenance",
      "outputs": [],
      "stateMutability": "nonpayable",
      "type": "function"
    },
    {
      "inputs": [],
      "name": "tokenomics",
      "outputs": [
        {
          "internalType": "address",
          "name": "",
          "type": "address"
        }
      ],
      "stateMutability": "view",
      "type": "function"
    },
    {
      "inputs": [],
      "name": "treasury",
      "outputs": [
        {
          "internalType": "address",
          "name": "",
          "type": "address"
        }
      ],
      "stateMutability": "view",
      "type": "function"
    },
    {
      "inputs": [],
      "name": "voteWeighting",
      "outputs": [
        {
          "internalType": "address",
          "name": "",
          "type": "address"
        }
      ],
      "stateMutability": "view",
      "type": "function"
    }
  ],
  "bytecode": "0x60e060405234801561000f575f80fd5b50604051614dd2380380614dd283398101604081905261002e9161019f565b6002805460ff60a01b1933166001600160a81b031990911617600160a01b1760ff60a81b1916600160a91b1790556001600160a01b038716158061007957506001600160a01b038616155b8061008b57506001600160a01b038516155b8061009d57506001600160a01b038416155b806100a6575082155b156100c45760405163d92e233d60e01b815260040160405180910390fd5b8115806100cf575080155b156100ed57604051637c946ed760e01b815260040160405180910390fd5b6001600160a01b03968716608052600380549688166001600160a01b031997881617905560048054958816958716959095179094556005805493909616929094169190911790935560a08390526040805180820182528481524660209182019081528251808301969096525185830152815180860383018152606095909501909152835193019290922060c0525f5560015561020b565b80516001600160a01b038116811461019a575f80fd5b919050565b5f805f805f805f60e0888a0312156101b5575f80fd5b6101be88610184565b96506101cc60208901610184565b95506101da60408901610184565b94506101e860608901610184565b93506080880151925060a0880151915060c0880151905092959891949750929550565b60805160a05160c051614b3461029e5f395f81816102b30152818161159701528181611f4a0152611f7101525f81816105be015281816115e301526120e701525f81816101ce015281816109c001528181610aea01528181610b7901528181610f9a0152818161110f0152818161119e015281816129fe01528181612b2e01528181612e9f01526139090152614b345ff3fe6080604052600436106101b9575f3560e01c8063781f4ae3116100f2578063bb78678f11610092578063d8bf69bf11610062578063d8bf69bf1461055a578063dcb5ccc414610579578063e6be59e7146105ad578063f4da12ba146105e0575f80fd5b8063bb78678f146104bd578063bc7d5c5c146104e8578063d529779314610507578063d7accbcc14610526575f80fd5b80638da5cb5b116100cd5780638da5cb5b1461044c5780639649a35c1461046b578063a5edd4fc1461047f578063a6f9dae11461049e575f80fd5b8063781f4ae3146103ee5780638513e77d1461040d5780638833c20514610438575f80fd5b80634ac7251d1161015d57806361d027b31161013857806361d027b314610352578063630965091461037157806363c4d28e14610390578063777e49c9146103af575f80fd5b80634ac7251d146102d557806359a8dfb9146102f45780635c975abb14610313575f80fd5b80632c0f3f29116101985780632c0f3f291461026557806334be5af41461027a5780633907196c1461028f5780633c18d1dd146102a2575f80fd5b806231d115146101bd5780630d3241ee1461020d5780632ad923dc1461022c575b5f80fd5b3480156101c8575f80fd5b506101f07f000000000000000000000000000000000000000000000000000000000000000081565b6040516001600160a01b0390911681526020015b60405180910390f35b348015610218575f80fd5b506005546101f0906001600160a01b031681565b348015610237575f80fd5b50610257610246366004614000565b60066020525f908152604090205481565b604051908152602001610204565b6102786102733660046140c8565b6105f4565b005b348015610285575f80fd5b5061025760015481565b61027861029d366004614228565b610cb8565b3480156102ad575f80fd5b506102577f000000000000000000000000000000000000000000000000000000000000000081565b3480156102e0575f80fd5b506003546101f0906001600160a01b031681565b3480156102ff575f80fd5b5061027861030e3660046143a8565b611354565b34801561031e575f80fd5b50600254610345907501000000000000000000000000000000000000000000900460ff1681565b60405161020491906143dc565b34801561035d575f80fd5b506004546101f0906001600160a01b031681565b34801561037c575f80fd5b5061027861038b366004614402565b61146a565b34801561039b575f80fd5b506102786103aa366004614000565b61153b565b3480156103ba575f80fd5b506103ce6103c9366004614427565b6117f0565b604080519485526020850193909352918301526060820152608001610204565b3480156103f9575f80fd5b506102786104083660046143a8565b611c86565b348015610418575f80fd5b50610257610427366004614000565b60076020525f908152604090205481565b348015610443575f80fd5b506102575f5481565b348015610457575f80fd5b506002546101f0906001600160a01b031681565b348015610476575f80fd5b50610278611ec2565b34801561048a575f80fd5b50610278610499366004614000565b612295565b3480156104a9575f80fd5b506102786104b8366004614471565b612495565b3480156104c8575f80fd5b506102576104d7366004614000565b60096020525f908152604090205481565b3480156104f3575f80fd5b506102786105023660046143a8565b612576565b348015610512575f80fd5b5061027861052136600461448a565b612626565b348015610531575f80fd5b506105456105403660046144ca565b6127b5565b60408051928352602083019190915201610204565b348015610565575f80fd5b5061027861057436600461452a565b612c9b565b348015610584575f80fd5b506101f0610593366004614000565b60086020525f90815260409020546001600160a01b031681565b3480156105b8575f80fd5b506102577f000000000000000000000000000000000000000000000000000000000000000081565b3480156105eb575f80fd5b50610257612e17565b60025460017401000000000000000000000000000000000000000090910460ff16111561064d576040517f8beb9d1600000000000000000000000000000000000000000000000000000000815260040160405180910390fd5b6002805460ff60a01b1916740200000000000000000000000000000000000000001790555f83900361069257604051637c946ed760e01b815260040160405180910390fd5b5f8290036106cc576040517fd92e233d00000000000000000000000000000000000000000000000000000000815260040160405180910390fd5b5f54808511156106fe57604051637ae5968560e01b815260048101869052602481018290526044015b60405180910390fd5b600280547501000000000000000000000000000000000000000000900460ff1690816003811115610731576107316143c8565b148061074e5750600381600381111561074c5761074c6143c8565b145b806107de575060048054604080517f5c975abb00000000000000000000000000000000000000000000000000000000815290516001600160a01b0390921692635c975abb92828201926020929082900301815f875af11580156107b3573d5f803e3d5ffd5b505050506040513d601f19601f820116820180604052508101906107d791906145dd565b60ff166002145b15610815576040517f9e87fac800000000000000000000000000000000000000000000000000000000815260040160405180910390fd5b5f8581526008602090815260408083205481517fa8b2ae0200000000000000000000000000000000000000000000000000000000815291516001600160a01b039091169392849263a8b2ae0292600480830193928290030181865afa158015610880573d5f803e3d5ffd5b505050506040513d601f19601f820116820180604052508101906108a491906145f6565b90505f805f806108b68c8c8c886117f0565b5f818152600660205260409020829055929650909450925090508215610949576003546040517fbc291e12000000000000000000000000000000000000000000000000000000008152600481018590526001600160a01b039091169063bc291e12906024015f604051808303815f87803b158015610932575f80fd5b505af1158015610944573d5f803e3d5ffd5b505050505b5f8415610c4257505f8b815260096020526040902054849080156109a357818110610982576109788282614621565b90505f9150610992565b61098c8183614621565b91505f90505b5f8d81526009602052604090208190555b8115610c33576040516370a0823160e01b81523060048201525f907f00000000000000000000000000000000000000000000000000000000000000006001600160a01b0316906370a0823190602401602060405180830381865afa158015610a0d573d5f803e3d5ffd5b505050506040513d601f19601f82011682018060405250810190610a3191906145f6565b600480546040517f7ff796ab00000000000000000000000000000000000000000000000000000000815230928101929092525f6024830152604482018690529192506001600160a01b0390911690637ff796ab906064016020604051808303815f875af1158015610aa4573d5f803e3d5ffd5b505050506040513d601f19601f82011682018060405250810190610ac8919061463a565b506040516370a0823160e01b8152306004820152839082906001600160a01b037f000000000000000000000000000000000000000000000000000000000000000016906370a0823190602401602060405180830381865afa158015610b2f573d5f803e3d5ffd5b505050506040513d601f19601f82011682018060405250810190610b5391906145f6565b610b5d9190614621565b14610c31576040516370a0823160e01b815230600482015281907f00000000000000000000000000000000000000000000000000000000000000006001600160a01b0316906370a0823190602401602060405180830381865afa158015610bc6573d5f803e3d5ffd5b505050506040513d601f19601f82011682018060405250810190610bea91906145f6565b610bf49190614621565b6040517f312b00330000000000000000000000000000000000000000000000000000000081526004810191909152602481018490526044016106f5565b505b610c408d8d888e86612e43565b505b604080518681526020810183905290810185905233907f02b21954a7bf2d6a171db9a87b430a3723605c554db00adcb95b26ce8464f2809060600160405180910390a250506002805460ff60a01b1916740100000000000000000000000000000000000000001790555050505050505050505050565b60025460017401000000000000000000000000000000000000000090910460ff161115610d11576040517f8beb9d1600000000000000000000000000000000000000000000000000000000815260040160405180910390fd5b6002805460ff60a01b191674020000000000000000000000000000000000000000179055610d4184848484613041565b5f5480861115610d6e57604051637ae5968560e01b815260048101879052602481018290526044016106f5565b600280547501000000000000000000000000000000000000000000900460ff1690816003811115610da157610da16143c8565b1480610dbe57506003816003811115610dbc57610dbc6143c8565b145b80610e4e575060048054604080517f5c975abb00000000000000000000000000000000000000000000000000000000815290516001600160a01b0390921692635c975abb92828201926020929082900301815f875af1158015610e23573d5f803e3d5ffd5b505050506040513d601f19601f82011682018060405250810190610e4791906145dd565b60ff166002145b15610e85576040517f9e87fac800000000000000000000000000000000000000000000000000000000815260040160405180910390fd5b6060806060610e958a8a8a6133d5565b825192955090935091505f9084906002908110610eb457610eb4614659565b60200260200101511115610f405760035483516001600160a01b039091169063bc291e129085906002908110610eec57610eec614659565b60200260200101516040518263ffffffff1660e01b8152600401610f1291815260200190565b5f604051808303815f87803b158015610f29575f80fd5b505af1158015610f3b573d5f803e3d5ffd5b505050505b5f835f81518110610f5357610f53614659565b60200260200101511115611281575f83600181518110610f7557610f75614659565b60200260200101511115611273576040516370a0823160e01b81523060048201525f907f00000000000000000000000000000000000000000000000000000000000000006001600160a01b0316906370a0823190602401602060405180830381865afa158015610fe7573d5f803e3d5ffd5b505050506040513d601f19601f8201168201806040525081019061100b91906145f6565b60045485519192506001600160a01b031690637ff796ab9030905f908890600190811061103a5761103a614659565b60209081029190910101516040517fffffffff0000000000000000000000000000000000000000000000000000000060e086901b1681526001600160a01b039093166004840152602483019190915260448201526064016020604051808303815f875af11580156110ad573d5f803e3d5ffd5b505050506040513d601f19601f820116820180604052508101906110d1919061463a565b50836001815181106110e5576110e5614659565b60209081029190910101516040516370a0823160e01b815230600482015282906001600160a01b037f000000000000000000000000000000000000000000000000000000000000000016906370a0823190602401602060405180830381865afa158015611154573d5f803e3d5ffd5b505050506040513d601f19601f8201168201806040525081019061117891906145f6565b6111829190614621565b14611271576040516370a0823160e01b815230600482015281907f00000000000000000000000000000000000000000000000000000000000000006001600160a01b0316906370a0823190602401602060405180830381865afa1580156111eb573d5f803e3d5ffd5b505050506040513d601f19601f8201168201806040525081019061120f91906145f6565b6112199190614621565b8460018151811061122c5761122c614659565b60200260200101516040517f312b00330000000000000000000000000000000000000000000000000000000081526004016106f5929190918252602082015260400190565b505b6112818989848a858b61389b565b336001600160a01b03167f02b21954a7bf2d6a171db9a87b430a3723605c554db00adcb95b26ce8464f280845f815181106112be576112be614659565b6020026020010151856001815181106112d9576112d9614659565b6020026020010151866002815181106112f4576112f4614659565b602002602001015160405161131c939291909283526020830191909152604082015260600190565b60405180910390a250506002805460ff60a01b1916740100000000000000000000000000000000000000001790555050505050505050565b5f828152600860205260409020546001600160a01b03163381146113b5576040517fdeeeedec0000000000000000000000000000000000000000000000000000000081523360048201526001600160a01b03821660248201526044016106f5565b5f838152600960205260408120546113ce90849061466d565b90506bffffffffffffffffffffffff81111561141257604051637ae5968560e01b8152600481018290526bffffffffffffffffffffffff60248201526044016106f5565b5f8481526009602090815260409182902083905581518681529081018590529081018290527f129e6b09fa0e9f8e35543706348319342d70038db68e26dcdf4fde0f7bd484c79060600160405180910390a150505050565b6002546001600160a01b031633146114aa5760025460405163521eb56d60e11b81523360048201526001600160a01b0390911660248201526044016106f5565b600280548291907fffffffffffffffffffff00ffffffffffffffffffffffffffffffffffffffffff1675010000000000000000000000000000000000000000008360038111156114fc576114fc6143c8565b02179055507fa814f27828c0243d429ea8c7033cb10f0c825b9466fdc04f63e0cca26c28eb8a8160405161153091906143dc565b60405180910390a150565b6005546001600160a01b03163314611594576005546040517f625a43fe0000000000000000000000000000000000000000000000000000000081523360048201526001600160a01b0390911660248201526044016106f5565b807f00000000000000000000000000000000000000000000000000000000000000000361160f576040517fd574eeca0000000000000000000000000000000000000000000000000000000081527f000000000000000000000000000000000000000000000000000000000000000060048201526024016106f5565b600354604080517f14b19c5a00000000000000000000000000000000000000000000000000000000815290515f926001600160a01b0316916314b19c5a9160048083019260209291908290030181865afa15801561166f573d5f803e3d5ffd5b505050506040513d601f19601f820116820180604052508101906116939190614680565b60035463ffffffff9190911691505f906001600160a01b031663d4ee9f8d6116bc600185614621565b6040518263ffffffff1660e01b81526004016116da91815260200190565b602060405180830381865afa1580156116f5573d5f803e3d5ffd5b505050506040513d601f19601f8201168201806040525081019061171991906145f6565b90505f60035f9054906101000a90046001600160a01b03166001600160a01b031663d2b3996f6040518163ffffffff1660e01b8152600401602060405180830381865afa15801561176c573d5f803e3d5ffd5b505050506040513d601f19601f820116820180604052508101906117909190614680565b63ffffffff1690505f62093a806117a7838561466d565b6117b19190614621565b90508042106117dc57604051637ae5968560e01b8152426004820152602481018290526044016106f5565b5050505f9182526007602052604090912055565b5f805f80865f0361181457604051637c946ed760e01b815260040160405180910390fd5b5f86900361184e576040517fd92e233d00000000000000000000000000000000000000000000000000000000815260040160405180910390fd5b5060408051808201825286815260209081018881528251808301899052905181840152825180820384018152606090910190925281519101205f611892828a613ea4565b6005546040517fbeaf44e8000000000000000000000000000000000000000000000000000000008152600481018b9052602481018c90529195509192506001600160a01b039091169063beaf44e8906044015f604051808303815f87803b1580156118fb575f80fd5b505af115801561190d573d5f803e3d5ffd5b5083925050505b83811015611c79576003546040517f1ddf1335000000000000000000000000000000000000000000000000000000008152600481018390525f916001600160a01b031690631ddf133590602401608060405180830381865afa15801561197c573d5f803e3d5ffd5b505050506040513d601f19601f820116820180604052508101906119a091906146be565b6003546040517fd4ee9f8d000000000000000000000000000000000000000000000000000000008152600481018590529192505f916001600160a01b039091169063d4ee9f8d90602401602060405180830381865afa158015611a05573d5f803e3d5ffd5b505050506040513d601f19601f82011682018060405250810190611a2991906145f6565b6005546040517fc88d47f0000000000000000000000000000000000000000000000000000000008152600481018d9052602481018e9052604481018390529192505f9182916001600160a01b03169063c88d47f0906064016040805180830381865afa158015611a9b573d5f803e3d5ffd5b505050506040513d601f19601f82011682018060405250810190611abf9190614741565b855191935091505f9081906bffffffffffffffffffffffff1681611ae38583614621565b90508015611aef578491505b6040880151611b089061ffff16655af3107a4000614763565b861015611b4a57670de0b6b3a764000086611b23848461466d565b611b2d9190614763565b611b37919061478e565b9250611b43838e61466d565b9c50611c66565b670de0b6b3a7640000611b5d8784614763565b611b67919061478e565b9350670de0b6b3a7640000611b7c8783614763565b611b86919061478e565b925087602001516bffffffffffffffffffffffff16841115611bed576020880151611bbf906bffffffffffffffffffffffff1685614621565b611bc9908461466d565b9250611bd5838e61466d565b9c5087602001516bffffffffffffffffffffffff1693505b60128f1015611c59575f8f6012611c049190614621565b611c0f90600a614881565b611c19908661478e565b90508f6012611c289190614621565b611c3390600a614881565b611c3d9082614763565b9050611c498186614621565b611c53908561466d565b90945092505b611c63848f61466d565b9d505b5050505050505050806001019050611914565b5050945094509450949050565b6002546001600160a01b03163314611cc65760025460405163521eb56d60e11b81523360048201526001600160a01b0390911660248201526044016106f5565b811580611cd1575080155b15611cef57604051637c946ed760e01b815260040160405180910390fd5b468203611d2b576040517f3881b689000000000000000000000000000000000000000000000000000000008152600481018390526024016106f5565b5f8281526008602090815260408083205481517fa8b2ae0200000000000000000000000000000000000000000000000000000000815291516001600160a01b039091169392849263a8b2ae0292600480830193928290030181865afa158015611d96573d5f803e3d5ffd5b505050506040513d601f19601f82011682018060405250810190611dba91906145f6565b90506012811015611e0c575f611dd1826012614621565b611ddc90600a614881565b611de6908561478e565b9050611df3826012614621565b611dfe90600a614881565b611e089082614763565b9350505b5f84815260096020526040812054611e2590859061466d565b90506bffffffffffffffffffffffff811115611e6957604051637ae5968560e01b8152600481018290526bffffffffffffffffffffffff60248201526044016106f5565b5f8581526009602090815260409182902083905581518781529081018690529081018290527f129e6b09fa0e9f8e35543706348319342d70038db68e26dcdf4fde0f7bd484c79060600160405180910390a15050505050565b60025460017401000000000000000000000000000000000000000090910460ff161115611f1b576040517f8beb9d1600000000000000000000000000000000000000000000000000000000815260040160405180910390fd5b6002805460ff60a01b1916740200000000000000000000000000000000000000001790555f80548190611f6f907f000000000000000000000000000000000000000000000000000000000000000090613ea4565b7f00000000000000000000000000000000000000000000000000000000000000005f9081526006602052604081208290559193509150825b828110156121a9576003546040517f1ddf1335000000000000000000000000000000000000000000000000000000008152600481018390525f916001600160a01b031690631ddf133590602401608060405180830381865afa15801561200f573d5f803e3d5ffd5b505050506040513d601f19601f8201168201806040525081019061203391906146be565b6003546040517fd4ee9f8d000000000000000000000000000000000000000000000000000000008152600481018590529192505f916001600160a01b039091169063d4ee9f8d90602401602060405180830381865afa158015612098573d5f803e3d5ffd5b505050506040513d601f19601f820116820180604052508101906120bc91906145f6565b6005546040517fc88d47f00000000000000000000000000000000000000000000000000000000081527f00000000000000000000000000000000000000000000000000000000000000006004820152466024820152604481018390529192505f916001600160a01b039091169063c88d47f0906064016040805180830381865afa15801561214c573d5f803e3d5ffd5b505050506040513d601f19601f820116820180604052508101906121709190614741565b50835190915061218f9082906bffffffffffffffffffffffff16614763565b612199908661466d565b9450505050806001019050611fa7565b506121bc670de0b6b3a76400008261478e565b90508015612237576003546040517fbc291e12000000000000000000000000000000000000000000000000000000008152600481018390526001600160a01b039091169063bc291e12906024015f604051808303815f87803b158015612220575f80fd5b505af1158015612232573d5f803e3d5ffd5b505050505b60405181815233907f2a8de497d698d6869cb0844411788378e76214d03a541eec6ba514b795d9f42e9060200160405180910390a250506002805460ff60a01b19167401000000000000000000000000000000000000000017905550565b6005546001600160a01b031633146122ee576005546040517f625a43fe0000000000000000000000000000000000000000000000000000000081523360048201526001600160a01b0390911660248201526044016106f5565b600280547501000000000000000000000000000000000000000000900460ff1690816003811115612321576123216143c8565b148061233e5750600381600381111561233c5761233c6143c8565b145b806123ce575060048054604080517f5c975abb00000000000000000000000000000000000000000000000000000000815290516001600160a01b0390921692635c975abb92828201926020929082900301815f875af11580156123a3573d5f803e3d5ffd5b505050506040513d601f19601f820116820180604052508101906123c791906145dd565b60ff166002145b15612405576040517f9e87fac800000000000000000000000000000000000000000000000000000000815260040160405180910390fd5b60035f9054906101000a90046001600160a01b03166001600160a01b03166314b19c5a6040518163ffffffff1660e01b8152600401602060405180830381865afa158015612455573d5f803e3d5ffd5b505050506040513d601f19601f820116820180604052508101906124799190614680565b5f9283526006602052604090922063ffffffff90921690915550565b6002546001600160a01b031633146124d55760025460405163521eb56d60e11b81523360048201526001600160a01b0390911660248201526044016106f5565b6001600160a01b038116612515576040517fd92e233d00000000000000000000000000000000000000000000000000000000815260040160405180910390fd5b600280547fffffffffffffffffffffffff0000000000000000000000000000000000000000166001600160a01b0383169081179091556040517f4ffd725fc4a22075e9ec71c59edf9c38cdeb588a91b24fc5b61388c5be41282b905f90a250565b6002546001600160a01b031633146125b65760025460405163521eb56d60e11b81523360048201526001600160a01b0390911660248201526044016106f5565b8115806125c1575080155b156125df57604051637c946ed760e01b815260040160405180910390fd5b5f829055600181905560408051838152602081018390527f61f6c4cc9665a257352c0b46189ffc2ae6fbbc11e155ff20901217ff203a517e91015b60405180910390a15050565b6002546001600160a01b031633146126665760025460405163521eb56d60e11b81523360048201526001600160a01b0390911660248201526044016106f5565b6001600160a01b038316156126d457600380547fffffffffffffffffffffffff0000000000000000000000000000000000000000166001600160a01b0385169081179091556040517f4672fe7e13cfb163442d0b729b5733fb3efafc66cbe3677eac9940eb41c284c2905f90a25b6001600160a01b0382161561274257600480547fffffffffffffffffffffffff0000000000000000000000000000000000000000166001600160a01b0384169081179091556040517f7dae230f18360d76a040c81f050aa14eb9d6dc7901b20fc5d855e2a20fe814d1905f90a25b6001600160a01b038116156127b057600580547fffffffffffffffffffffffff0000000000000000000000000000000000000000166001600160a01b0383169081179091556040517f04a606379838ed6fc83fd189eea9d1835b5eff05035c4b74622911ea2ae6b217905f90a25b505050565b5f806001600260149054906101000a900460ff1660ff161115612804576040517f8beb9d1600000000000000000000000000000000000000000000000000000000815260040160405180910390fd5b6002805460ff60a01b191674020000000000000000000000000000000000000000179081905560ff750100000000000000000000000000000000000000000090910416600181600381111561285b5761285b6143c8565b148061287857506003816003811115612876576128766143c8565b145b80612908575060048054604080517f5c975abb00000000000000000000000000000000000000000000000000000000815290516001600160a01b0390921692635c975abb92828201926020929082900301815f875af11580156128dd573d5f803e3d5ffd5b505050506040513d601f19601f8201168201806040525081019061290191906145dd565b60ff166002145b1561293f576040517f9e87fac800000000000000000000000000000000000000000000000000000000815260040160405180910390fd5b6003546040517f2e070f540000000000000000000000000000000000000000000000000000000081526001600160a01b0390911690632e070f549061298c903390899089906004016148c6565b60408051808303815f875af11580156129a7573d5f803e3d5ffd5b505050506040513d601f19601f820116820180604052508101906129cb9190614741565b90935091505f806129dc848661466d565b1115612bea575f8315612a72576040516370a0823160e01b81523360048201527f00000000000000000000000000000000000000000000000000000000000000006001600160a01b0316906370a0823190602401602060405180830381865afa158015612a4b573d5f803e3d5ffd5b505050506040513d601f19601f82011682018060405250810190612a6f91906145f6565b90505b600480546040517f7ff796ab000000000000000000000000000000000000000000000000000000008152339281019290925260248201879052604482018690526001600160a01b031690637ff796ab906064016020604051808303815f875af1158015612ae1573d5f803e3d5ffd5b505050506040513d601f19601f82011682018060405250810190612b05919061463a565b91508315612be8576040516370a0823160e01b81523360048201525f9082906001600160a01b037f000000000000000000000000000000000000000000000000000000000000000016906370a0823190602401602060405180830381865afa158015612b73573d5f803e3d5ffd5b505050506040513d601f19601f82011682018060405250810190612b9791906145f6565b612ba19190614621565b9050848114612be6576040517f312b003300000000000000000000000000000000000000000000000000000000815260048101829052602481018690526044016106f5565b505b505b80612c31576040517f942dc9da00000000000000000000000000000000000000000000000000000000815233600482015260248101859052604481018490526064016106f5565b604080518581526020810185905233917f928890dff971de1394b7440848938a868d83445d2f7fb4b07938ae626c7cb130910160405180910390a250506002805460ff60a01b19167401000000000000000000000000000000000000000017905590939092509050565b6002546001600160a01b03163314612cdb5760025460405163521eb56d60e11b81523360048201526001600160a01b0390911660248201526044016106f5565b81511580612ceb57508051825114155b15612d2f57815181516040517f8151c110000000000000000000000000000000000000000000000000000000008152600481019290925260248201526044016106f5565b5f5b8151811015612de557818181518110612d4c57612d4c614659565b60200260200101515f03612d7357604051637c946ed760e01b815260040160405180910390fd5b828181518110612d8557612d85614659565b602002602001015160085f848481518110612da257612da2614659565b602002602001015181526020019081526020015f205f6101000a8154816001600160a01b0302191690836001600160a01b03160217905550806001019050612d31565b507fe87460f6c400fa0166984512586d7bdf03a3230bbadf9651f27f08716dd77fa5828260405161261a92919061493b565b6024612e2c600267ffffffffffffffff614968565b612e36919061498e565b67ffffffffffffffff1681565b5f858152600860205260409020546001600160a01b03168115612f0b576040517fa9059cbb0000000000000000000000000000000000000000000000000000000081526001600160a01b038281166004830152602482018490527f0000000000000000000000000000000000000000000000000000000000000000169063a9059cbb906044016020604051808303815f875af1158015612ee5573d5f803e3d5ffd5b505050506040513d601f19601f82011682018060405250810190612f09919061463a565b505b6024612f20600267ffffffffffffffff614968565b612f2a919061498e565b67ffffffffffffffff168611612fbd576040517fb2267a7b00000000000000000000000000000000000000000000000000000000815285906001600160a01b0383169063b2267a7b903490612f899085908a908a908a906004016149e4565b5f604051808303818588803b158015612fa0575f80fd5b505af1158015612fb2573d5f803e3d5ffd5b505050505050613039565b6040517f6585ecdc0000000000000000000000000000000000000000000000000000000081526001600160a01b03821690636585ecdc90349061300a908990899089908990600401614a1c565b5f604051808303818588803b158015613021575f80fd5b505af1158015613033573d5f803e3d5ffd5b50505050505b505050505050565b825184511461308957835183516040517f8151c110000000000000000000000000000000000000000000000000000000008152600481019290925260248201526044016106f5565b81518451146130d157835182516040517f8151c110000000000000000000000000000000000000000000000000000000008152600481019290925260248201526044016106f5565b805184511461311957835181516040517f8151c110000000000000000000000000000000000000000000000000000000008152600481019290925260248201526044016106f5565b5f805f5b86518110156133925786818151811061313857613138614659565b602002602001015183106131955786818151811061315857613158614659565b60200260200101516040517f3881b6890000000000000000000000000000000000000000000000000000000081526004016106f591815260200190565b8681815181106131a7576131a7614659565b602002602001015192508581815181106131c3576131c3614659565b6020026020010151515f036131eb57604051637c946ed760e01b815260040160405180910390fd5b8381815181106131fd576131fd614659565b602002602001015182613210919061466d565b91505f60015490508087838151811061322b5761322b614659565b602002602001015151111561327a5786828151811061324c5761324c614659565b60200260200101515181604051637ae5968560e01b81526004016106f5929190918252602082015260400190565b5f805b88848151811061328f5761328f614659565b602002602001015151811015613384578884815181106132b1576132b1614659565b602002602001015181815181106132ca576132ca614659565b60200260200101515f1c825f1c10613344578884815181106132ee576132ee614659565b6020026020010151818151811061330757613307614659565b60200260200101516040517fd574eeca0000000000000000000000000000000000000000000000000000000081526004016106f591815260200190565b88848151811061335657613356614659565b6020026020010151818151811061336f5761336f614659565b6020026020010151915080600101905061327d565b50505080600101905061311d565b50803414613039576040517f312b0033000000000000000000000000000000000000000000000000000000008152346004820152602481018290526044016106f5565b6040805160038082526080820190925260609182918291602082018380368337019050509250845167ffffffffffffffff81111561341557613415614017565b60405190808252806020026020018201604052801561344857816020015b60608152602001906001900390816134335790505b509150845167ffffffffffffffff81111561346557613465614017565b60405190808252806020026020018201604052801561348e578160200160208202803683370190505b5090505f5b8551811015613891575f60085f8884815181106134b2576134b2614659565b602002602001015181526020019081526020015f205f9054906101000a90046001600160a01b031690505f816001600160a01b031663a8b2ae026040518163ffffffff1660e01b8152600401602060405180830381865afa158015613519573d5f803e3d5ffd5b505050506040513d601f19601f8201168201806040525081019061353d91906145f6565b905086838151811061355157613551614659565b60200260200101515167ffffffffffffffff81111561357257613572614017565b60405190808252806020026020018201604052801561359b578160200160208202803683370190505b508584815181106135ae576135ae614659565b60200260200101819052505f5b8784815181106135cd576135cd614659565b602002602001015151811015613720575f805f806136388e8e8a815181106135f7576135f7614659565b60200260200101518e8b8151811061361157613611614659565b6020026020010151888151811061362a5761362a614659565b6020026020010151896117f0565b5f8181526006602052604090208290558d519397509195509350915084908b908a90811061366857613668614659565b6020026020010151868151811061368157613681614659565b602002602001018181525050838989815181106136a0576136a0614659565b602002602001018181516136b4919061466d565b9052508a5184908c905f906136cb576136cb614659565b602002602001018181516136df919061466d565b9052508a5183908c9060029081106136f9576136f9614659565b6020026020010181815161370d919061466d565b90525050600190930192506135bb915050565b505f84848151811061373457613734614659565b60200260200101511115613843575f60095f8a868151811061375857613758614659565b602002602001015181526020019081526020015f205490505f8111156138415784848151811061378a5761378a614659565b602002602001015181106137e3578484815181106137aa576137aa614659565b6020026020010151816137bd9190614621565b90505f8585815181106137d2576137d2614659565b602002602001018181525050613811565b808585815181106137f6576137f6614659565b6020026020010181815161380a9190614621565b9052505f90505b8060095f8b878151811061382757613827614659565b602002602001015181526020019081526020015f20819055505b505b83838151811061385557613855614659565b60200260200101518660018151811061387057613870614659565b60200260200101818151613884919061466d565b9052505050600101613493565b5093509350939050565b5f5b8651811015613e9b575f60085f8984815181106138bc576138bc614659565b602002602001015181526020019081526020015f205f9054906101000a90046001600160a01b031690505f8483815181106138f9576138f9614659565b602002602001015111156139c4577f00000000000000000000000000000000000000000000000000000000000000006001600160a01b031663a9059cbb8286858151811061394957613949614659565b60200260200101516040518363ffffffff1660e01b81526004016139829291906001600160a01b03929092168252602082015260400190565b6020604051808303815f875af115801561399e573d5f803e3d5ffd5b505050506040513d601f19601f820116820180604052508101906139c2919061463a565b505b5f808884815181106139d8576139d8614659565b60200260200101515167ffffffffffffffff8111156139f9576139f9614017565b604051908082528060200260200182016040528015613a22578160200160208202803683370190505b5090505f5b898581518110613a3957613a39614659565b602002602001015151811015613abb575f898681518110613a5c57613a5c614659565b60200260200101518281518110613a7557613a75614659565b60200260200101511115613ab3576001828281518110613a9757613a97614659565b91151560209283029190910190910152613ab083614a3a565b92505b600101613a27565b505f8267ffffffffffffffff811115613ad657613ad6614017565b604051908082528060200260200182016040528015613aff578160200160208202803683370190505b5090505f8367ffffffffffffffff811115613b1c57613b1c614017565b604051908082528060200260200182016040528015613b45578160200160208202803683370190505b5090505f805b8c8881518110613b5d57613b5d614659565b602002602001015151811015613c4157848181518110613b7f57613b7f614659565b602002602001015115613c39578c8881518110613b9e57613b9e614659565b60200260200101518181518110613bb757613bb7614659565b6020026020010151848381518110613bd157613bd1614659565b6020026020010181815250508b8881518110613bef57613bef614659565b60200260200101518181518110613c0857613c08614659565b6020026020010151838381518110613c2257613c22614659565b6020908102919091010152613c3682614a3a565b91505b600101613b4b565b506024613c57600267ffffffffffffffff614968565b613c61919061498e565b67ffffffffffffffff168d8881518110613c7d57613c7d614659565b602002602001015111613ddd575f835167ffffffffffffffff811115613ca557613ca5614017565b604051908082528060200260200182016040528015613cce578160200160208202803683370190505b5090505f5b8451811015613d2a57848181518110613cee57613cee614659565b60200260200101515f1c828281518110613d0a57613d0a614659565b6001600160a01b0390921660209283029190910190910152600101613cd3565b50866001600160a01b031663bde526618a8a81518110613d4c57613d4c614659565b602002602001015183868f8d81518110613d6857613d68614659565b60200260200101518f8e81518110613d8257613d82614659565b60200260200101516040518663ffffffff1660e01b8152600401613da99493929190614a52565b5f604051808303818588803b158015613dc0575f80fd5b505af1158015613dd2573d5f803e3d5ffd5b505050505050613e8a565b856001600160a01b03166355442b59898981518110613dfe57613dfe614659565b602002602001015185858e8c81518110613e1a57613e1a614659565b60200260200101518e8d81518110613e3457613e34614659565b60200260200101516040518663ffffffff1660e01b8152600401613e5b9493929190614a9c565b5f604051808303818588803b158015613e72575f80fd5b505af1158015613e84573d5f803e3d5ffd5b50505050505b50505050505080600101905061389d565b50505050505050565b5f805f60035f9054906101000a90046001600160a01b03166001600160a01b03166314b19c5a6040518163ffffffff1660e01b8152600401602060405180830381865afa158015613ef7573d5f803e3d5ffd5b505050506040513d601f19601f82011682018060405250810190613f1b9190614680565b5f86815260066020526040812054945063ffffffff919091169150839003613f5657604051637c946ed760e01b815260040160405180910390fd5b808303613f8b5782613f69600183614621565b604051637ae5968560e01b8152600481019290925260248201526044016106f5565b5f85815260076020526040812054613fa490600161466d565b9050600181118015613fb65750808410155b15613fc75783613f69600183614621565b613fd1858561466d565b9250600181118015613fe257508083115b15613feb578092505b81831115613ff7578192505b50509250929050565b5f60208284031215614010575f80fd5b5035919050565b634e487b7160e01b5f52604160045260245ffd5b604051601f8201601f1916810167ffffffffffffffff8111828210171561405457614054614017565b604052919050565b5f82601f83011261406b575f80fd5b813567ffffffffffffffff81111561408557614085614017565b6140986020601f19601f8401160161402b565b8181528460208386010111156140ac575f80fd5b816020850160208301375f918101602001919091529392505050565b5f805f80608085870312156140db575f80fd5b843593506020850135925060408501359150606085013567ffffffffffffffff811115614106575f80fd5b6141128782880161405c565b91505092959194509250565b5f67ffffffffffffffff82111561413757614137614017565b5060051b60200190565b5f82601f830112614150575f80fd5b813560206141656141608361411e565b61402b565b8083825260208201915060208460051b870101935086841115614186575f80fd5b602086015b848110156141a2578035835291830191830161418b565b509695505050505050565b5f82601f8301126141bc575f80fd5b813560206141cc6141608361411e565b82815260059290921b840181019181810190868411156141ea575f80fd5b8286015b848110156141a257803567ffffffffffffffff81111561420c575f80fd5b61421a8986838b010161405c565b8452509183019183016141ee565b5f805f805f60a0868803121561423c575f80fd5b8535945067ffffffffffffffff8060208801351115614259575f80fd5b6142698860208901358901614141565b9450806040880135111561427b575f80fd5b6040870135870188601f820112614290575f80fd5b61429d614160823561411e565b81358082526020808301929160051b8401018b10156142ba575f80fd5b602083015b6020843560051b8501018110156143545784813511156142dd575f80fd5b803584018c603f8201126142ef575f80fd5b6142ff614160602083013561411e565b602082810135808352908201919060051b83016040018f811115614321575f80fd5b6040840193505b80841015614343578335835260209384019390920191614328565b5085525050602092830192016142bf565b50955050506060870135811015614369575f80fd5b61437988606089013589016141ad565b9250806080880135111561438b575f80fd5b5061439c8760808801358801614141565b90509295509295909350565b5f80604083850312156143b9575f80fd5b50508035926020909101359150565b634e487b7160e01b5f52602160045260245ffd5b60208101600483106143fc57634e487b7160e01b5f52602160045260245ffd5b91905290565b5f60208284031215614412575f80fd5b813560048110614420575f80fd5b9392505050565b5f805f806080858703121561443a575f80fd5b5050823594602084013594506040840135936060013592509050565b80356001600160a01b038116811461446c575f80fd5b919050565b5f60208284031215614481575f80fd5b61442082614456565b5f805f6060848603121561449c575f80fd5b6144a584614456565b92506144b360208501614456565b91506144c160408501614456565b90509250925092565b5f80604083850312156144db575f80fd5b823567ffffffffffffffff808211156144f2575f80fd5b6144fe86838701614141565b93506020850135915080821115614513575f80fd5b5061452085828601614141565b9150509250929050565b5f806040838503121561453b575f80fd5b823567ffffffffffffffff80821115614552575f80fd5b818501915085601f830112614565575f80fd5b813560206145756141608361411e565b82815260059290921b84018101918181019089841115614593575f80fd5b948201945b838610156145b8576145a986614456565b82529482019490820190614598565b96505086013592505080821115614513575f80fd5b805160ff8116811461446c575f80fd5b5f602082840312156145ed575f80fd5b614420826145cd565b5f60208284031215614606575f80fd5b5051919050565b634e487b7160e01b5f52601160045260245ffd5b818103818111156146345761463461460d565b92915050565b5f6020828403121561464a575f80fd5b81518015158114614420575f80fd5b634e487b7160e01b5f52603260045260245ffd5b808201808211156146345761463461460d565b5f60208284031215614690575f80fd5b815163ffffffff81168114614420575f80fd5b80516bffffffffffffffffffffffff8116811461446c575f80fd5b5f608082840312156146ce575f80fd5b6040516080810181811067ffffffffffffffff821117156146f1576146f1614017565b6040526146fd836146a3565b815261470b602084016146a3565b6020820152604083015161ffff81168114614724575f80fd5b6040820152614735606084016145cd565b60608201529392505050565b5f8060408385031215614752575f80fd5b505080516020909101519092909150565b80820281158282048414176146345761463461460d565b634e487b7160e01b5f52601260045260245ffd5b5f8261479c5761479c61477a565b500490565b600181815b808511156147db57815f19048211156147c1576147c161460d565b808516156147ce57918102915b93841c93908002906147a6565b509250929050565b5f826147f157506001614634565b816147fd57505f614634565b8160018114614813576002811461481d57614839565b6001915050614634565b60ff84111561482e5761482e61460d565b50506001821b614634565b5060208310610133831016604e8410600b841016171561485c575081810a614634565b61486683836147a1565b805f19048211156148795761487961460d565b029392505050565b5f61442083836147e3565b5f815180845260208085019450602084015f5b838110156148bb5781518752958201959082019060010161489f565b509495945050505050565b6001600160a01b0384168152606060208201525f6148e7606083018561488c565b82810360408401526148f9818561488c565b9695505050505050565b5f815180845260208085019450602084015f5b838110156148bb5781516001600160a01b031687529582019590820190600101614916565b604081525f61494d6040830185614903565b828103602084015261495f818561488c565b95945050505050565b5f67ffffffffffffffff808416806149825761498261477a565b92169190910492915050565b67ffffffffffffffff8281168282160390808211156149af576149af61460d565b5092915050565b5f81518084528060208401602086015e5f602082860101526020601f19601f83011685010191505092915050565b6001600160a01b0385168152836020820152608060408201525f614a0b60808301856149b6565b905082606083015295945050505050565b848152836020820152608060408201525f614a0b60808301856149b6565b5f5f198203614a4b57614a4b61460d565b5060010190565b608081525f614a646080830187614903565b8281036020840152614a76818761488c565b90508281036040840152614a8a81866149b6565b91505082606083015295945050505050565b608080825285519082018190525f9060209060a0840190828901845b82811015614ad457815184529284019290840190600101614ab8565b5050508381036020850152614ae9818861488c565b9150508281036040840152614a8a81866149b656fea2646970667358221220413ae1d6e61fe54fc2920e54e60a4fafd1565635574235825d0a7561f3dd9f3b64736f6c63430008190033",
  "linkReferences": {},
  "deployedLinkReferences": {}
}