{
  "_format": "hh-sol-artifact-1",
  "contractName": "Dispenser",
  "sourceName": "contracts/Dispenser.sol",
  "abi": [
    {
      "inputs": [
        {
          "internalType": "address",
          "name": "_olas",
          "type": "address"
        },
        {
          "internalType": "address",
          "name": "_tokenomics",
          "type": "address"
        },
        {
          "internalType": "address",
          "name": "_treasury",
          "type": "address"
        },
        {
          "internalType": "address",
          "name": "_voteWeighting",
          "type": "address"
        },
        {
          "internalType": "bytes32",
          "name": "_retainer",
          "type": "bytes32"
        },
        {
          "internalType": "uint256",
          "name": "_maxNumClaimingEpochs",
          "type": "uint256"
        },
        {
          "internalType": "uint256",
          "name": "_maxNumStakingTargets",
          "type": "uint256"
        }
      ],
      "stateMutability": "nonpayable",
      "type": "constructor"
    },
    {
      "inputs": [
        {
          "internalType": "address",
          "name": "account",
          "type": "address"
        },
        {
          "internalType": "uint256",
          "name": "reward",
          "type": "uint256"
        },
        {
          "internalType": "uint256",
          "name": "topUp",
          "type": "uint256"
        }
      ],
      "name": "ClaimIncentivesFailed",
      "type": "error"
    },
    {
      "inputs": [
        {
          "internalType": "address",
          "name": "sender",
          "type": "address"
        },
        {
          "internalType": "address",
          "name": "depositProcessor",
          "type": "address"
        }
      ],
      "name": "DepositProcessorOnly",
      "type": "error"
    },
    {
      "inputs": [
        {
          "internalType": "address",
          "name": "sender",
          "type": "address"
        },
        {
          "internalType": "address",
          "name": "manager",
          "type": "address"
        }
      ],
      "name": "ManagerOnly",
      "type": "error"
    },
    {
      "inputs": [
        {
          "internalType": "uint256",
          "name": "provided",
          "type": "uint256"
        },
        {
          "internalType": "uint256",
          "name": "max",
          "type": "uint256"
        }
      ],
      "name": "Overflow",
      "type": "error"
    },
    {
      "inputs": [
        {
          "internalType": "address",
          "name": "sender",
          "type": "address"
        },
        {
          "internalType": "address",
          "name": "owner",
          "type": "address"
        }
      ],
      "name": "OwnerOnly",
      "type": "error"
    },
    {
      "inputs": [],
      "name": "Paused",
      "type": "error"
    },
    {
      "inputs": [],
      "name": "ReentrancyGuard",
      "type": "error"
    },
    {
      "inputs": [
        {
          "internalType": "bytes32",
          "name": "account",
          "type": "bytes32"
        }
      ],
      "name": "WrongAccount",
      "type": "error"
    },
    {
      "inputs": [
        {
          "internalType": "uint256",
          "name": "provided",
          "type": "uint256"
        },
        {
          "internalType": "uint256",
          "name": "expected",
          "type": "uint256"
        }
      ],
      "name": "WrongAmount",
      "type": "error"
    },
    {
      "inputs": [
        {
          "internalType": "uint256",
          "name": "numValues1",
          "type": "uint256"
        },
        {
          "internalType": "uint256",
          "name": "numValues2",
          "type": "uint256"
        }
      ],
      "name": "WrongArrayLength",
      "type": "error"
    },
    {
      "inputs": [
        {
          "internalType": "uint256",
          "name": "chainId",
          "type": "uint256"
        }
      ],
      "name": "WrongChainId",
      "type": "error"
    },
    {
      "inputs": [],
      "name": "ZeroAddress",
      "type": "error"
    },
    {
      "inputs": [],
      "name": "ZeroValue",
      "type": "error"
    },
    {
      "anonymous": false,
      "inputs": [
        {
          "indexed": true,
          "internalType": "address",
          "name": "owner",
          "type": "address"
        },
        {
          "indexed": false,
          "internalType": "uint256",
          "name": "reward",
          "type": "uint256"
        },
        {
          "indexed": false,
          "internalType": "uint256",
          "name": "topUp",
          "type": "uint256"
        }
      ],
      "name": "IncentivesClaimed",
      "type": "event"
    },
    {
      "anonymous": false,
      "inputs": [
        {
          "indexed": true,
          "internalType": "address",
          "name": "owner",
          "type": "address"
        }
      ],
      "name": "OwnerUpdated",
      "type": "event"
    },
    {
      "anonymous": false,
      "inputs": [
        {
          "indexed": false,
          "internalType": "enum Dispenser.Pause",
          "name": "pauseState",
          "type": "uint8"
        }
      ],
      "name": "PauseDispenser",
      "type": "event"
    },
    {
      "anonymous": false,
      "inputs": [
        {
          "indexed": true,
          "internalType": "address",
          "name": "account",
          "type": "address"
        },
        {
          "indexed": false,
          "internalType": "uint256",
          "name": "returnAmount",
          "type": "uint256"
        }
      ],
      "name": "Retained",
      "type": "event"
    },
    {
      "anonymous": false,
      "inputs": [
        {
          "indexed": false,
          "internalType": "address[]",
          "name": "depositProcessors",
          "type": "address[]"
        },
        {
          "indexed": false,
          "internalType": "uint256[]",
          "name": "chainIds",
          "type": "uint256[]"
        }
      ],
      "name": "SetDepositProcessorChainIds",
      "type": "event"
    },
    {
      "anonymous": false,
      "inputs": [
        {
          "indexed": true,
          "internalType": "address",
          "name": "account",
          "type": "address"
        },
        {
          "indexed": false,
          "internalType": "uint256",
          "name": "stakingIncentive",
          "type": "uint256"
        },
        {
          "indexed": false,
          "internalType": "uint256",
          "name": "transferAmount",
          "type": "uint256"
        },
        {
          "indexed": false,
          "internalType": "uint256",
          "name": "returnAmount",
          "type": "uint256"
        }
      ],
      "name": "StakingIncentivesClaimed",
      "type": "event"
    },
    {
      "anonymous": false,
      "inputs": [
        {
          "indexed": false,
          "internalType": "uint256",
          "name": "maxNumClaimingEpochs",
          "type": "uint256"
        },
        {
          "indexed": false,
          "internalType": "uint256",
          "name": "maxNumStakingTargets",
          "type": "uint256"
        }
      ],
      "name": "StakingParamsUpdated",
      "type": "event"
    },
    {
      "anonymous": false,
      "inputs": [
        {
          "indexed": true,
          "internalType": "address",
          "name": "tokenomics",
          "type": "address"
        }
      ],
      "name": "TokenomicsUpdated",
      "type": "event"
    },
    {
      "anonymous": false,
      "inputs": [
        {
          "indexed": true,
          "internalType": "address",
          "name": "treasury",
          "type": "address"
        }
      ],
      "name": "TreasuryUpdated",
      "type": "event"
    },
    {
      "anonymous": false,
      "inputs": [
        {
          "indexed": true,
          "internalType": "address",
          "name": "voteWeighting",
          "type": "address"
        }
      ],
      "name": "VoteWeightingUpdated",
      "type": "event"
    },
    {
      "anonymous": false,
      "inputs": [
        {
          "indexed": false,
          "internalType": "uint256",
          "name": "chainId",
          "type": "uint256"
        },
        {
          "indexed": false,
          "internalType": "uint256",
          "name": "amount",
          "type": "uint256"
        },
        {
          "indexed": false,
          "internalType": "uint256",
          "name": "updatedWithheldAmount",
          "type": "uint256"
        }
      ],
      "name": "WithheldAmountSynced",
      "type": "event"
    },
    {
      "inputs": [],
      "name": "MAX_EVM_CHAIN_ID",
      "outputs": [
        {
          "internalType": "uint256",
          "name": "",
          "type": "uint256"
        }
      ],
      "stateMutability": "view",
      "type": "function"
    },
    {
      "inputs": [
        {
          "internalType": "bytes32",
          "name": "nomineeHash",
          "type": "bytes32"
        }
      ],
      "name": "addNominee",
      "outputs": [],
      "stateMutability": "nonpayable",
      "type": "function"
    },
    {
      "inputs": [
        {
          "internalType": "uint256",
          "name": "numClaimedEpochs",
          "type": "uint256"
        },
        {
          "internalType": "uint256",
          "name": "chainId",
          "type": "uint256"
        },
        {
          "internalType": "bytes32",
          "name": "stakingTarget",
          "type": "bytes32"
        },
        {
          "internalType": "uint256",
          "name": "bridgingDecimals",
          "type": "uint256"
        }
      ],
      "name": "calculateStakingIncentives",
      "outputs": [
        {
          "internalType": "uint256",
          "name": "totalStakingIncentive",
          "type": "uint256"
        },
        {
          "internalType": "uint256",
          "name": "totalReturnAmount",
          "type": "uint256"
        },
        {
          "internalType": "uint256",
          "name": "lastClaimedEpoch",
          "type": "uint256"
        },
        {
          "internalType": "bytes32",
          "name": "nomineeHash",
          "type": "bytes32"
        }
      ],
      "stateMutability": "nonpayable",
      "type": "function"
    },
    {
      "inputs": [
        {
          "internalType": "address",
          "name": "_tokenomics",
          "type": "address"
        },
        {
          "internalType": "address",
          "name": "_treasury",
          "type": "address"
        },
        {
          "internalType": "address",
          "name": "_voteWeighting",
          "type": "address"
        }
      ],
      "name": "changeManagers",
      "outputs": [],
      "stateMutability": "nonpayable",
      "type": "function"
    },
    {
      "inputs": [
        {
          "internalType": "address",
          "name": "newOwner",
          "type": "address"
        }
      ],
      "name": "changeOwner",
      "outputs": [],
      "stateMutability": "nonpayable",
      "type": "function"
    },
    {
      "inputs": [
        {
          "internalType": "uint256",
          "name": "_maxNumClaimingEpochs",
          "type": "uint256"
        },
        {
          "internalType": "uint256",
          "name": "_maxNumStakingTargets",
          "type": "uint256"
        }
      ],
      "name": "changeStakingParams",
      "outputs": [],
      "stateMutability": "nonpayable",
      "type": "function"
    },
    {
      "inputs": [
        {
          "internalType": "uint256[]",
          "name": "unitTypes",
          "type": "uint256[]"
        },
        {
          "internalType": "uint256[]",
          "name": "unitIds",
          "type": "uint256[]"
        }
      ],
      "name": "claimOwnerIncentives",
      "outputs": [
        {
          "internalType": "uint256",
          "name": "reward",
          "type": "uint256"
        },
        {
          "internalType": "uint256",
          "name": "topUp",
          "type": "uint256"
        }
      ],
      "stateMutability": "nonpayable",
      "type": "function"
    },
    {
      "inputs": [
        {
          "internalType": "uint256",
          "name": "numClaimedEpochs",
          "type": "uint256"
        },
        {
          "internalType": "uint256",
          "name": "chainId",
          "type": "uint256"
        },
        {
          "internalType": "bytes32",
          "name": "stakingTarget",
          "type": "bytes32"
        },
        {
          "internalType": "bytes",
          "name": "bridgePayload",
          "type": "bytes"
        }
      ],
      "name": "claimStakingIncentives",
      "outputs": [],
      "stateMutability": "payable",
      "type": "function"
    },
    {
      "inputs": [
        {
          "internalType": "uint256",
          "name": "numClaimedEpochs",
          "type": "uint256"
        },
        {
          "internalType": "uint256[]",
          "name": "chainIds",
          "type": "uint256[]"
        },
        {
          "internalType": "bytes32[][]",
          "name": "stakingTargets",
          "type": "bytes32[][]"
        },
        {
          "internalType": "bytes[]",
          "name": "bridgePayloads",
          "type": "bytes[]"
        },
        {
          "internalType": "uint256[]",
          "name": "valueAmounts",
          "type": "uint256[]"
        }
      ],
      "name": "claimStakingIncentivesBatch",
      "outputs": [],
      "stateMutability": "payable",
      "type": "function"
    },
    {
      "inputs": [
        {
          "internalType": "uint256",
          "name": "",
          "type": "uint256"
        }
      ],
      "name": "mapChainIdDepositProcessors",
      "outputs": [
        {
          "internalType": "address",
          "name": "",
          "type": "address"
        }
      ],
      "stateMutability": "view",
      "type": "function"
    },
    {
      "inputs": [
        {
          "internalType": "uint256",
          "name": "",
          "type": "uint256"
        }
      ],
      "name": "mapChainIdWithheldAmounts",
      "outputs": [
        {
          "internalType": "uint256",
          "name": "",
          "type": "uint256"
        }
      ],
      "stateMutability": "view",
      "type": "function"
    },
    {
      "inputs": [
        {
          "internalType": "bytes32",
          "name": "",
          "type": "bytes32"
        }
      ],
      "name": "mapLastClaimedStakingEpochs",
      "outputs": [
        {
          "internalType": "uint256",
          "name": "",
          "type": "uint256"
        }
      ],
      "stateMutability": "view",
      "type": "function"
    },
    {
      "inputs": [
        {
          "internalType": "bytes32",
          "name": "",
          "type": "bytes32"
        }
      ],
      "name": "mapRemovedNomineeEpochs",
      "outputs": [
        {
          "internalType": "uint256",
          "name": "",
          "type": "uint256"
        }
      ],
      "stateMutability": "view",
      "type": "function"
    },
    {
      "inputs": [],
      "name": "maxNumClaimingEpochs",
      "outputs": [
        {
          "internalType": "uint256",
          "name": "",
          "type": "uint256"
        }
      ],
      "stateMutability": "view",
      "type": "function"
    },
    {
      "inputs": [],
      "name": "maxNumStakingTargets",
      "outputs": [
        {
          "internalType": "uint256",
          "name": "",
          "type": "uint256"
        }
      ],
      "stateMutability": "view",
      "type": "function"
    },
    {
      "inputs": [],
      "name": "olas",
      "outputs": [
        {
          "internalType": "address",
          "name": "",
          "type": "address"
        }
      ],
      "stateMutability": "view",
      "type": "function"
    },
    {
      "inputs": [],
      "name": "owner",
      "outputs": [
        {
          "internalType": "address",
          "name": "",
          "type": "address"
        }
      ],
      "stateMutability": "view",
      "type": "function"
    },
    {
      "inputs": [],
      "name": "paused",
      "outputs": [
        {
          "internalType": "enum Dispenser.Pause",
          "name": "",
          "type": "uint8"
        }
      ],
      "stateMutability": "view",
      "type": "function"
    },
    {
      "inputs": [
        {
          "internalType": "bytes32",
          "name": "nomineeHash",
          "type": "bytes32"
        }
      ],
      "name": "removeNominee",
      "outputs": [],
      "stateMutability": "nonpayable",
      "type": "function"
    },
    {
      "inputs": [],
      "name": "retain",
      "outputs": [],
      "stateMutability": "nonpayable",
      "type": "function"
    },
    {
      "inputs": [],
      "name": "retainer",
      "outputs": [
        {
          "internalType": "bytes32",
          "name": "",
          "type": "bytes32"
        }
      ],
      "stateMutability": "view",
      "type": "function"
    },
    {
      "inputs": [],
      "name": "retainerHash",
      "outputs": [
        {
          "internalType": "bytes32",
          "name": "",
          "type": "bytes32"
        }
      ],
      "stateMutability": "view",
      "type": "function"
    },
    {
      "inputs": [
        {
          "internalType": "address[]",
          "name": "depositProcessors",
          "type": "address[]"
        },
        {
          "internalType": "uint256[]",
          "name": "chainIds",
          "type": "uint256[]"
        }
      ],
      "name": "setDepositProcessorChainIds",
      "outputs": [],
      "stateMutability": "nonpayable",
      "type": "function"
    },
    {
      "inputs": [
        {
          "internalType": "enum Dispenser.Pause",
          "name": "pauseState",
          "type": "uint8"
        }
      ],
      "name": "setPauseState",
      "outputs": [],
      "stateMutability": "nonpayable",
      "type": "function"
    },
    {
      "inputs": [
        {
          "internalType": "uint256",
          "name": "chainId",
          "type": "uint256"
        },
        {
          "internalType": "uint256",
          "name": "amount",
          "type": "uint256"
        }
      ],
      "name": "syncWithheldAmount",
      "outputs": [],
      "stateMutability": "nonpayable",
      "type": "function"
    },
    {
      "inputs": [
        {
          "internalType": "uint256",
          "name": "chainId",
          "type": "uint256"
        },
        {
          "internalType": "uint256",
          "name": "amount",
          "type": "uint256"
        }
      ],
      "name": "syncWithheldAmountMaintenance",
      "outputs": [],
      "stateMutability": "nonpayable",
      "type": "function"
    },
    {
      "inputs": [],
      "name": "tokenomics",
      "outputs": [
        {
          "internalType": "address",
          "name": "",
          "type": "address"
        }
      ],
      "stateMutability": "view",
      "type": "function"
    },
    {
      "inputs": [],
      "name": "treasury",
      "outputs": [
        {
          "internalType": "address",
          "name": "",
          "type": "address"
        }
      ],
      "stateMutability": "view",
      "type": "function"
    },
    {
      "inputs": [],
      "name": "voteWeighting",
      "outputs": [
        {
          "internalType": "address",
          "name": "",
          "type": "address"
        }
      ],
      "stateMutability": "view",
      "type": "function"
    }
  ],
  "bytecode": "0x60e060405234801561000f575f80fd5b5060405161471e38038061471e83398101604081905261002e9161019f565b6002805460ff60a01b1933166001600160a81b031990911617600160a01b1760ff60a81b1916600160a91b1790556001600160a01b038716158061007957506001600160a01b038616155b8061008b57506001600160a01b038516155b8061009d57506001600160a01b038416155b806100a6575082155b156100c45760405163d92e233d60e01b815260040160405180910390fd5b8115806100cf575080155b156100ed57604051637c946ed760e01b815260040160405180910390fd5b6001600160a01b03968716608052600380549688166001600160a01b031997881617905560048054958816958716959095179094556005805493909616929094169190911790935560a08390526040805180820182528481524660209182019081528251808301969096525185830152815180860383018152606095909501909152835193019290922060c0525f5560015561020b565b80516001600160a01b038116811461019a575f80fd5b919050565b5f805f805f805f60e0888a0312156101b5575f80fd5b6101be88610184565b96506101cc60208901610184565b95506101da60408901610184565b94506101e860608901610184565b93506080880151925060a0880151915060c0880151905092959891949750929550565b60805160a05160c05161448e6102905f395f81816102b30152818161128201528181611b1f0152611b4601525f81816105ac015281816112b50152611c7101525f81816101ce015281816108e4015281816109eb01528181610d6b01528181610eba0152818161244e0152818161255b0152818161288f0152613263015261448e5ff3fe6080604052600436106101b9575f3560e01c8063781f4ae3116100f2578063bb78678f11610092578063d8bf69bf11610062578063d8bf69bf14610548578063dcb5ccc414610567578063e6be59e71461059b578063f4da12ba146105ce575f80fd5b8063bb78678f146104ab578063bc7d5c5c146104d6578063d5297793146104f5578063d7accbcc14610514575f80fd5b80638da5cb5b116100cd5780638da5cb5b1461043a5780639649a35c14610459578063a5edd4fc1461046d578063a6f9dae11461048c575f80fd5b8063781f4ae3146103dc5780638513e77d146103fb5780638833c20514610426575f80fd5b80634ac7251d1161015d57806361d027b31161013857806361d027b314610340578063630965091461035f57806363c4d28e1461037e578063777e49c91461039d575f80fd5b80634ac7251d146102d557806359a8dfb9146102f45780635c975abb14610313575f80fd5b80632c0f3f29116101985780632c0f3f291461026557806334be5af41461027a5780633907196c1461028f5780633c18d1dd146102a2575f80fd5b806231d115146101bd5780630d3241ee1461020d5780632ad923dc1461022c575b5f80fd5b3480156101c8575f80fd5b506101f07f000000000000000000000000000000000000000000000000000000000000000081565b6040516001600160a01b0390911681526020015b60405180910390f35b348015610218575f80fd5b506005546101f0906001600160a01b031681565b348015610237575f80fd5b5061025761024636600461395a565b60066020525f908152604090205481565b604051908152602001610204565b610278610273366004613a22565b6105e2565b005b348015610285575f80fd5b5061025760015481565b61027861029d366004613b82565b610b08565b3480156102ad575f80fd5b506102577f000000000000000000000000000000000000000000000000000000000000000081565b3480156102e0575f80fd5b506003546101f0906001600160a01b031681565b3480156102ff575f80fd5b5061027861030e366004613d02565b61106a565b34801561031e575f80fd5b5060025461033390600160a81b900460ff1681565b6040516102049190613d36565b34801561034b575f80fd5b506004546101f0906001600160a01b031681565b34801561036a575f80fd5b50610278610379366004613d5c565b611180565b348015610389575f80fd5b5061027861039836600461395a565b61123f565b3480156103a8575f80fd5b506103bc6103b7366004613d81565b6114c2565b604080519485526020850193909352918301526060820152608001610204565b3480156103e7575f80fd5b506102786103f6366004613d02565b6118c8565b348015610406575f80fd5b5061025761041536600461395a565b60076020525f908152604090205481565b348015610431575f80fd5b506102575f5481565b348015610445575f80fd5b506002546101f0906001600160a01b031681565b348015610464575f80fd5b50610278611ad2565b348015610478575f80fd5b5061027861048736600461395a565b611df5565b348015610497575f80fd5b506102786104a6366004613dcb565b611f98565b3480156104b6575f80fd5b506102576104c536600461395a565b60096020525f908152604090205481565b3480156104e1575f80fd5b506102786104f0366004613d02565b612055565b348015610500575f80fd5b5061027861050f366004613de4565b612105565b34801561051f575f80fd5b5061053361052e366004613e24565b612273565b60408051928352602083019190915201610204565b348015610553575f80fd5b50610278610562366004613e84565b6126a4565b348015610572575f80fd5b506101f061058136600461395a565b60086020525f90815260409020546001600160a01b031681565b3480156105a6575f80fd5b506102577f000000000000000000000000000000000000000000000000000000000000000081565b3480156105d9575f80fd5b50610257612807565b6002546001600160a01b90910460ff161115610611576040516345f5ce8b60e11b815260040160405180910390fd5b6002805460ff60a01b1916600160a11b1790555f83900361064557604051637c946ed760e01b815260040160405180910390fd5b5f8290036106665760405163d92e233d60e01b815260040160405180910390fd5b5f548085111561069857604051637ae5968560e01b815260048101869052602481018290526044015b60405180910390fd5b60028054600160a81b900460ff16908160038111156106b9576106b9613d22565b14806106d6575060038160038111156106d4576106d4613d22565b145b8061074d57506004805460408051635c975abb60e01b815290516001600160a01b0390921692635c975abb92828201926020929082900301815f875af1158015610722573d5f803e3d5ffd5b505050506040513d601f19601f820116820180604052508101906107469190613f37565b60ff166002145b1561076b576040516313d0ff5960e31b815260040160405180910390fd5b5f858152600860209081526040808320548151635459570160e11b815291516001600160a01b039091169392849263a8b2ae0292600480830193928290030181865afa1580156107bd573d5f803e3d5ffd5b505050506040513d601f19601f820116820180604052508101906107e19190613f50565b90505f805f806107f38c8c8c886114c2565b5f81815260066020526040902082905592965090945092509050821561086d57600354604051635e148f0960e11b8152600481018590526001600160a01b039091169063bc291e12906024015f604051808303815f87803b158015610856575f80fd5b505af1158015610868573d5f803e3d5ffd5b505050505b5f8415610aa357505f8b815260096020526040902054849080156108c7578181106108a65761089c8282613f7b565b90505f91506108b6565b6108b08183613f7b565b91505f90505b5f8d81526009602052604090208190555b8115610a94576040516370a0823160e01b81523060048201525f907f00000000000000000000000000000000000000000000000000000000000000006001600160a01b0316906370a0823190602401602060405180830381865afa158015610931573d5f803e3d5ffd5b505050506040513d601f19601f820116820180604052508101906109559190613f50565b60048054604051637ff796ab60e01b815230928101929092525f6024830152604482018690529192506001600160a01b0390911690637ff796ab906064016020604051808303815f875af11580156109af573d5f803e3d5ffd5b505050506040513d601f19601f820116820180604052508101906109d39190613f94565b506040516370a0823160e01b815230600482015281907f00000000000000000000000000000000000000000000000000000000000000006001600160a01b0316906370a0823190602401602060405180830381865afa158015610a38573d5f803e3d5ffd5b505050506040513d601f19601f82011682018060405250810190610a5c9190613f50565b610a669190613f7b565b9050828114610a925760405163312b003360e01b8152600481018290526024810184905260440161068f565b505b610aa18d8d888e86612833565b505b604080518681526020810183905290810185905233907f02b21954a7bf2d6a171db9a87b430a3723605c554db00adcb95b26ce8464f2809060600160405180910390a250506002805460ff60a01b1916600160a01b1790555050505050505050505050565b6002546001600160a01b90910460ff161115610b37576040516345f5ce8b60e11b815260040160405180910390fd5b6002805460ff60a01b1916600160a11b179055610b5684848484612a31565b5f5480861115610b8357604051637ae5968560e01b8152600481018790526024810182905260440161068f565b60028054600160a81b900460ff1690816003811115610ba457610ba4613d22565b1480610bc157506003816003811115610bbf57610bbf613d22565b145b80610c3857506004805460408051635c975abb60e01b815290516001600160a01b0390921692635c975abb92828201926020929082900301815f875af1158015610c0d573d5f803e3d5ffd5b505050506040513d601f19601f82011682018060405250810190610c319190613f37565b60ff166002145b15610c56576040516313d0ff5960e31b815260040160405180910390fd5b6060806060610c668a8a8a612d2f565b825192955090935091505f9084906002908110610c8557610c85613fb3565b60200260200101511115610d115760035483516001600160a01b039091169063bc291e129085906002908110610cbd57610cbd613fb3565b60200260200101516040518263ffffffff1660e01b8152600401610ce391815260200190565b5f604051808303815f87803b158015610cfa575f80fd5b505af1158015610d0c573d5f803e3d5ffd5b505050505b5f835f81518110610d2457610d24613fb3565b60200260200101511115610fa8575f83600181518110610d4657610d46613fb3565b60200260200101511115610f9a576040516370a0823160e01b81523060048201525f907f00000000000000000000000000000000000000000000000000000000000000006001600160a01b0316906370a0823190602401602060405180830381865afa158015610db8573d5f803e3d5ffd5b505050506040513d601f19601f82011682018060405250810190610ddc9190613f50565b60045485519192506001600160a01b031690637ff796ab9030905f9088906001908110610e0b57610e0b613fb3565b60209081029190910101516040517fffffffff0000000000000000000000000000000000000000000000000000000060e086901b1681526001600160a01b039093166004840152602483019190915260448201526064016020604051808303815f875af1158015610e7e573d5f803e3d5ffd5b505050506040513d601f19601f82011682018060405250810190610ea29190613f94565b506040516370a0823160e01b815230600482015281907f00000000000000000000000000000000000000000000000000000000000000006001600160a01b0316906370a0823190602401602060405180830381865afa158015610f07573d5f803e3d5ffd5b505050506040513d601f19601f82011682018060405250810190610f2b9190613f50565b610f359190613f7b565b905083600181518110610f4a57610f4a613fb3565b60200260200101518114610f98578084600181518110610f6c57610f6c613fb3565b602002602001015160405163312b003360e01b815260040161068f929190918252602082015260400190565b505b610fa88989848a858b6131f5565b336001600160a01b03167f02b21954a7bf2d6a171db9a87b430a3723605c554db00adcb95b26ce8464f280845f81518110610fe557610fe5613fb3565b60200260200101518560018151811061100057611000613fb3565b60200260200101518660028151811061101b5761101b613fb3565b6020026020010151604051611043939291909283526020830191909152604082015260600190565b60405180910390a250506002805460ff60a01b1916600160a01b1790555050505050505050565b5f828152600860205260409020546001600160a01b03163381146110cb576040517fdeeeedec0000000000000000000000000000000000000000000000000000000081523360048201526001600160a01b038216602482015260440161068f565b5f838152600960205260408120546110e4908490613fc7565b90506bffffffffffffffffffffffff81111561112857604051637ae5968560e01b8152600481018290526bffffffffffffffffffffffff602482015260440161068f565b5f8481526009602090815260409182902083905581518681529081018590529081018290527f129e6b09fa0e9f8e35543706348319342d70038db68e26dcdf4fde0f7bd484c79060600160405180910390a150505050565b6002546001600160a01b031633146111c05760025460405163521eb56d60e11b81523360048201526001600160a01b03909116602482015260440161068f565b600280548291907fffffffffffffffffffff00ffffffffffffffffffffffffffffffffffffffffff16600160a81b83600381111561120057611200613d22565b02179055507fa814f27828c0243d429ea8c7033cb10f0c825b9466fdc04f63e0cca26c28eb8a816040516112349190613d36565b60405180910390a150565b6005546001600160a01b0316331461127f5760055460405163312d21ff60e11b81523360048201526001600160a01b03909116602482015260440161068f565b807f0000000000000000000000000000000000000000000000000000000000000000036112e157604051636aba776560e11b81527f0000000000000000000000000000000000000000000000000000000000000000600482015260240161068f565b600354604080517f14b19c5a00000000000000000000000000000000000000000000000000000000815290515f926001600160a01b0316916314b19c5a9160048083019260209291908290030181865afa158015611341573d5f803e3d5ffd5b505050506040513d601f19601f820116820180604052508101906113659190613fda565b60035463ffffffff9190911691505f906001600160a01b031663d4ee9f8d61138e600185613f7b565b6040518263ffffffff1660e01b81526004016113ac91815260200190565b602060405180830381865afa1580156113c7573d5f803e3d5ffd5b505050506040513d601f19601f820116820180604052508101906113eb9190613f50565b90505f60035f9054906101000a90046001600160a01b03166001600160a01b031663d2b3996f6040518163ffffffff1660e01b8152600401602060405180830381865afa15801561143e573d5f803e3d5ffd5b505050506040513d601f19601f820116820180604052508101906114629190613fda565b63ffffffff1690505f62093a806114798385613fc7565b6114839190613f7b565b90508042106114ae57604051637ae5968560e01b81524260048201526024810182905260440161068f565b5050505f9182526007602052604090912055565b5f805f80865f036114e657604051637c946ed760e01b815260040160405180910390fd5b5f8690036115075760405163d92e233d60e01b815260040160405180910390fd5b5060408051808201825286815260209081018881528251808301899052905181840152825180820384018152606090910190925281519101205f61154b828a6137fe565b6005546040517fbeaf44e8000000000000000000000000000000000000000000000000000000008152600481018b9052602481018c90529195509192506001600160a01b039091169063beaf44e8906044015f604051808303815f87803b1580156115b4575f80fd5b505af11580156115c6573d5f803e3d5ffd5b5083925050505b838110156118bb57600354604051631ddf133560e01b8152600481018390525f916001600160a01b031690631ddf133590602401608060405180830381865afa15801561161c573d5f803e3d5ffd5b505050506040513d601f19601f820116820180604052508101906116409190614018565b60035460405163d4ee9f8d60e01b8152600481018590529192505f916001600160a01b039091169063d4ee9f8d90602401602060405180830381865afa15801561168c573d5f803e3d5ffd5b505050506040513d601f19601f820116820180604052508101906116b09190613f50565b600554604051630c88d47f60e41b8152600481018d9052602481018e9052604481018390529192505f9182916001600160a01b03169063c88d47f0906064016040805180830381865afa158015611709573d5f803e3d5ffd5b505050506040513d601f19601f8201168201806040525081019061172d919061409b565b855191935091505f9081906bffffffffffffffffffffffff16818482111561175f576117598583613f7b565b90508491505b60408801516117789061ffff16655af3107a40006140bd565b8610156117ae57670de0b6b3a7640000866117938484613fc7565b61179d91906140bd565b6117a791906140e8565b925061189c565b670de0b6b3a76400006117c187846140bd565b6117cb91906140e8565b9350670de0b6b3a76400006117e087836140bd565b6117ea91906140e8565b925087602001516bffffffffffffffffffffffff16915081841115611823576118138285613f7b565b61181d9084613fc7565b92508193505b60128f101561188f575f8f601261183a9190613f7b565b61184590600a6141db565b61184f90866140e8565b90508f601261185e9190613f7b565b61186990600a6141db565b61187390826140bd565b905061187f8186613f7b565b6118899085613fc7565b90945092505b611899848f613fc7565b9d505b6118a6838e613fc7565b9c5050505050505050508060010190506115cd565b5050945094509450949050565b6002546001600160a01b031633146119085760025460405163521eb56d60e11b81523360048201526001600160a01b03909116602482015260440161068f565b811580611913575080155b1561193157604051637c946ed760e01b815260040160405180910390fd5b46820361195457604051633881b68960e01b81526004810183905260240161068f565b5f828152600860209081526040808320548151635459570160e11b815291516001600160a01b039091169392849263a8b2ae0292600480830193928290030181865afa1580156119a6573d5f803e3d5ffd5b505050506040513d601f19601f820116820180604052508101906119ca9190613f50565b90506012811015611a1c575f6119e1826012613f7b565b6119ec90600a6141db565b6119f690856140e8565b9050611a03826012613f7b565b611a0e90600a6141db565b611a1890826140bd565b9350505b5f84815260096020526040812054611a35908590613fc7565b90506bffffffffffffffffffffffff811115611a7957604051637ae5968560e01b8152600481018290526bffffffffffffffffffffffff602482015260440161068f565b5f8581526009602090815260409182902083905581518781529081018690529081018290527f129e6b09fa0e9f8e35543706348319342d70038db68e26dcdf4fde0f7bd484c79060600160405180910390a15050505050565b6002546001600160a01b90910460ff161115611b01576040516345f5ce8b60e11b815260040160405180910390fd5b6002805460ff60a01b1916600160a11b1790555f80548190611b44907f0000000000000000000000000000000000000000000000000000000000000000906137fe565b7f00000000000000000000000000000000000000000000000000000000000000005f9081526006602052604081208290559193509150825b82811015611d3357600354604051631ddf133560e01b8152600481018390525f916001600160a01b031690631ddf133590602401608060405180830381865afa158015611bcb573d5f803e3d5ffd5b505050506040513d601f19601f82011682018060405250810190611bef9190614018565b60035460405163d4ee9f8d60e01b8152600481018590529192505f916001600160a01b039091169063d4ee9f8d90602401602060405180830381865afa158015611c3b573d5f803e3d5ffd5b505050506040513d601f19601f82011682018060405250810190611c5f9190613f50565b600554604051630c88d47f60e41b81527f00000000000000000000000000000000000000000000000000000000000000006004820152466024820152604481018390529192505f916001600160a01b039091169063c88d47f0906064016040805180830381865afa158015611cd6573d5f803e3d5ffd5b505050506040513d601f19601f82011682018060405250810190611cfa919061409b565b508351909150611d199082906bffffffffffffffffffffffff166140bd565b611d239086613fc7565b9450505050806001019050611b7c565b50611d46670de0b6b3a7640000826140e8565b90508015611da857600354604051635e148f0960e11b8152600481018390526001600160a01b039091169063bc291e12906024015f604051808303815f87803b158015611d91575f80fd5b505af1158015611da3573d5f803e3d5ffd5b505050505b60405181815233907f2a8de497d698d6869cb0844411788378e76214d03a541eec6ba514b795d9f42e9060200160405180910390a250506002805460ff60a01b1916600160a01b17905550565b6005546001600160a01b03163314611e355760055460405163312d21ff60e11b81523360048201526001600160a01b03909116602482015260440161068f565b60028054600160a81b900460ff1690816003811115611e5657611e56613d22565b1480611e7357506003816003811115611e7157611e71613d22565b145b80611eea57506004805460408051635c975abb60e01b815290516001600160a01b0390921692635c975abb92828201926020929082900301815f875af1158015611ebf573d5f803e3d5ffd5b505050506040513d601f19601f82011682018060405250810190611ee39190613f37565b60ff166002145b15611f08576040516313d0ff5960e31b815260040160405180910390fd5b60035f9054906101000a90046001600160a01b03166001600160a01b03166314b19c5a6040518163ffffffff1660e01b8152600401602060405180830381865afa158015611f58573d5f803e3d5ffd5b505050506040513d601f19601f82011682018060405250810190611f7c9190613fda565b5f9283526006602052604090922063ffffffff90921690915550565b6002546001600160a01b03163314611fd85760025460405163521eb56d60e11b81523360048201526001600160a01b03909116602482015260440161068f565b6001600160a01b038116611fff5760405163d92e233d60e01b815260040160405180910390fd5b6002805473ffffffffffffffffffffffffffffffffffffffff19166001600160a01b0383169081179091556040517f4ffd725fc4a22075e9ec71c59edf9c38cdeb588a91b24fc5b61388c5be41282b905f90a250565b6002546001600160a01b031633146120955760025460405163521eb56d60e11b81523360048201526001600160a01b03909116602482015260440161068f565b8115806120a0575080155b156120be57604051637c946ed760e01b815260040160405180910390fd5b5f829055600181905560408051838152602081018390527f61f6c4cc9665a257352c0b46189ffc2ae6fbbc11e155ff20901217ff203a517e91015b60405180910390a15050565b6002546001600160a01b031633146121455760025460405163521eb56d60e11b81523360048201526001600160a01b03909116602482015260440161068f565b6001600160a01b038316156121a8576003805473ffffffffffffffffffffffffffffffffffffffff19166001600160a01b0385169081179091556040517f4672fe7e13cfb163442d0b729b5733fb3efafc66cbe3677eac9940eb41c284c2905f90a25b6001600160a01b0382161561220b576004805473ffffffffffffffffffffffffffffffffffffffff19166001600160a01b0384169081179091556040517f7dae230f18360d76a040c81f050aa14eb9d6dc7901b20fc5d855e2a20fe814d1905f90a25b6001600160a01b0381161561226e576005805473ffffffffffffffffffffffffffffffffffffffff19166001600160a01b0383169081179091556040517f04a606379838ed6fc83fd189eea9d1835b5eff05035c4b74622911ea2ae6b217905f90a25b505050565b5f806001600260149054906101000a900460ff1660ff1611156122a9576040516345f5ce8b60e11b815260040160405180910390fd5b6002805460ff60a01b1916600160a11b179081905560ff600160a81b9091041660018160038111156122dd576122dd613d22565b14806122fa575060038160038111156122f8576122f8613d22565b145b8061237157506004805460408051635c975abb60e01b815290516001600160a01b0390921692635c975abb92828201926020929082900301815f875af1158015612346573d5f803e3d5ffd5b505050506040513d601f19601f8201168201806040525081019061236a9190613f37565b60ff166002145b1561238f576040516313d0ff5960e31b815260040160405180910390fd5b6003546040517f2e070f540000000000000000000000000000000000000000000000000000000081526001600160a01b0390911690632e070f54906123dc90339089908990600401614220565b60408051808303815f875af11580156123f7573d5f803e3d5ffd5b505050506040513d601f19601f8201168201806040525081019061241b919061409b565b90935091505f8061242c8486613fc7565b1115612604575f83156124c2576040516370a0823160e01b81523360048201527f00000000000000000000000000000000000000000000000000000000000000006001600160a01b0316906370a0823190602401602060405180830381865afa15801561249b573d5f803e3d5ffd5b505050506040513d601f19601f820116820180604052508101906124bf9190613f50565b90505b60048054604051637ff796ab60e01b8152339281019290925260248201879052604482018690526001600160a01b031690637ff796ab906064016020604051808303815f875af1158015612518573d5f803e3d5ffd5b505050506040513d601f19601f8201168201806040525081019061253c9190613f94565b91508315612602576040516370a0823160e01b815233600482015281907f00000000000000000000000000000000000000000000000000000000000000006001600160a01b0316906370a0823190602401602060405180830381865afa1580156125a8573d5f803e3d5ffd5b505050506040513d601f19601f820116820180604052508101906125cc9190613f50565b6125d69190613f7b565b90508381146126025760405163312b003360e01b8152600481018290526024810185905260440161068f565b505b8061264b576040517f942dc9da000000000000000000000000000000000000000000000000000000008152336004820152602481018590526044810184905260640161068f565b604080518581526020810185905233917f928890dff971de1394b7440848938a868d83445d2f7fb4b07938ae626c7cb130910160405180910390a250506002805460ff60a01b1916600160a01b17905590939092509050565b6002546001600160a01b031633146126e45760025460405163521eb56d60e11b81523360048201526001600160a01b03909116602482015260440161068f565b815115806126f457508051825114155b1561271f57815181516040516308151c1160e41b81526004810192909252602482015260440161068f565b5f5b81518110156127d55781818151811061273c5761273c613fb3565b60200260200101515f0361276357604051637c946ed760e01b815260040160405180910390fd5b82818151811061277557612775613fb3565b602002602001015160085f84848151811061279257612792613fb3565b602002602001015181526020019081526020015f205f6101000a8154816001600160a01b0302191690836001600160a01b03160217905550806001019050612721565b507fe87460f6c400fa0166984512586d7bdf03a3230bbadf9651f27f08716dd77fa582826040516120f9929190614295565b602461281c600267ffffffffffffffff6142c2565b61282691906142e8565b67ffffffffffffffff1681565b5f858152600860205260409020546001600160a01b031681156128fb576040517fa9059cbb0000000000000000000000000000000000000000000000000000000081526001600160a01b038281166004830152602482018490527f0000000000000000000000000000000000000000000000000000000000000000169063a9059cbb906044016020604051808303815f875af11580156128d5573d5f803e3d5ffd5b505050506040513d601f19601f820116820180604052508101906128f99190613f94565b505b6024612910600267ffffffffffffffff6142c2565b61291a91906142e8565b67ffffffffffffffff1686116129ad576040517fb2267a7b00000000000000000000000000000000000000000000000000000000815285906001600160a01b0383169063b2267a7b9034906129799085908a908a908a9060040161433e565b5f604051808303818588803b158015612990575f80fd5b505af11580156129a2573d5f803e3d5ffd5b505050505050612a29565b6040517f6585ecdc0000000000000000000000000000000000000000000000000000000081526001600160a01b03821690636585ecdc9034906129fa908990899089908990600401614376565b5f604051808303818588803b158015612a11575f80fd5b505af1158015612a23573d5f803e3d5ffd5b50505050505b505050505050565b8251845114612a6057835183516040516308151c1160e41b81526004810192909252602482015260440161068f565b8151845114612a8f57835182516040516308151c1160e41b81526004810192909252602482015260440161068f565b8051845114612abe57835181516040516308151c1160e41b81526004810192909252602482015260440161068f565b5f805f5b8651811015612d0557868181518110612add57612add613fb3565b60200260200101518310612b2157868181518110612afd57612afd613fb3565b6020026020010151604051633881b68960e01b815260040161068f91815260200190565b868181518110612b3357612b33613fb3565b60200260200101519250858181518110612b4f57612b4f613fb3565b6020026020010151515f03612b7757604051637c946ed760e01b815260040160405180910390fd5b838181518110612b8957612b89613fb3565b602002602001015182612b9c9190613fc7565b91505f600154905080878381518110612bb757612bb7613fb3565b6020026020010151511115612c0657868281518110612bd857612bd8613fb3565b60200260200101515181604051637ae5968560e01b815260040161068f929190918252602082015260400190565b5f805b888481518110612c1b57612c1b613fb3565b602002602001015151811015612cf757888481518110612c3d57612c3d613fb3565b60200260200101518181518110612c5657612c56613fb3565b60200260200101515f1c825f1c10612cb757888481518110612c7a57612c7a613fb3565b60200260200101518181518110612c9357612c93613fb3565b6020026020010151604051636aba776560e11b815260040161068f91815260200190565b888481518110612cc957612cc9613fb3565b60200260200101518181518110612ce257612ce2613fb3565b60200260200101519150806001019050612c09565b505050806001019050612ac2565b50803414612a295760405163312b003360e01b81523460048201526024810182905260440161068f565b6040805160038082526080820190925260609182918291602082018380368337019050509250845167ffffffffffffffff811115612d6f57612d6f613971565b604051908082528060200260200182016040528015612da257816020015b6060815260200190600190039081612d8d5790505b509150845167ffffffffffffffff811115612dbf57612dbf613971565b604051908082528060200260200182016040528015612de8578160200160208202803683370190505b5090505f5b85518110156131eb575f60085f888481518110612e0c57612e0c613fb3565b602002602001015181526020019081526020015f205f9054906101000a90046001600160a01b031690505f816001600160a01b031663a8b2ae026040518163ffffffff1660e01b8152600401602060405180830381865afa158015612e73573d5f803e3d5ffd5b505050506040513d601f19601f82011682018060405250810190612e979190613f50565b9050868381518110612eab57612eab613fb3565b60200260200101515167ffffffffffffffff811115612ecc57612ecc613971565b604051908082528060200260200182016040528015612ef5578160200160208202803683370190505b50858481518110612f0857612f08613fb3565b60200260200101819052505f5b878481518110612f2757612f27613fb3565b60200260200101515181101561307a575f805f80612f928e8e8a81518110612f5157612f51613fb3565b60200260200101518e8b81518110612f6b57612f6b613fb3565b60200260200101518881518110612f8457612f84613fb3565b6020026020010151896114c2565b5f8181526006602052604090208290558d519397509195509350915084908b908a908110612fc257612fc2613fb3565b60200260200101518681518110612fdb57612fdb613fb3565b60200260200101818152505083898981518110612ffa57612ffa613fb3565b6020026020010181815161300e9190613fc7565b9052508a5184908c905f9061302557613025613fb3565b602002602001018181516130399190613fc7565b9052508a5183908c90600290811061305357613053613fb3565b602002602001018181516130679190613fc7565b9052505060019093019250612f15915050565b505f84848151811061308e5761308e613fb3565b6020026020010151111561319d575f60095f8a86815181106130b2576130b2613fb3565b602002602001015181526020019081526020015f205490505f81111561319b578484815181106130e4576130e4613fb3565b6020026020010151811061313d5784848151811061310457613104613fb3565b6020026020010151816131179190613f7b565b90505f85858151811061312c5761312c613fb3565b60200260200101818152505061316b565b8085858151811061315057613150613fb3565b602002602001018181516131649190613f7b565b9052505f90505b8060095f8b878151811061318157613181613fb3565b602002602001015181526020019081526020015f20819055505b505b8383815181106131af576131af613fb3565b6020026020010151866001815181106131ca576131ca613fb3565b602002602001018181516131de9190613fc7565b9052505050600101612ded565b5093509350939050565b5f5b86518110156137f5575f60085f89848151811061321657613216613fb3565b602002602001015181526020019081526020015f205f9054906101000a90046001600160a01b031690505f84838151811061325357613253613fb3565b6020026020010151111561331e577f00000000000000000000000000000000000000000000000000000000000000006001600160a01b031663a9059cbb828685815181106132a3576132a3613fb3565b60200260200101516040518363ffffffff1660e01b81526004016132dc9291906001600160a01b03929092168252602082015260400190565b6020604051808303815f875af11580156132f8573d5f803e3d5ffd5b505050506040513d601f19601f8201168201806040525081019061331c9190613f94565b505b5f8088848151811061333257613332613fb3565b60200260200101515167ffffffffffffffff81111561335357613353613971565b60405190808252806020026020018201604052801561337c578160200160208202803683370190505b5090505f5b89858151811061339357613393613fb3565b602002602001015151811015613415575f8986815181106133b6576133b6613fb3565b602002602001015182815181106133cf576133cf613fb3565b6020026020010151111561340d5760018282815181106133f1576133f1613fb3565b9115156020928302919091019091015261340a83614394565b92505b600101613381565b505f8267ffffffffffffffff81111561343057613430613971565b604051908082528060200260200182016040528015613459578160200160208202803683370190505b5090505f8367ffffffffffffffff81111561347657613476613971565b60405190808252806020026020018201604052801561349f578160200160208202803683370190505b5090505f805b8c88815181106134b7576134b7613fb3565b60200260200101515181101561359b578481815181106134d9576134d9613fb3565b602002602001015115613593578c88815181106134f8576134f8613fb3565b6020026020010151818151811061351157613511613fb3565b602002602001015184838151811061352b5761352b613fb3565b6020026020010181815250508b888151811061354957613549613fb3565b6020026020010151818151811061356257613562613fb3565b602002602001015183838151811061357c5761357c613fb3565b602090810291909101015261359082614394565b91505b6001016134a5565b5060246135b1600267ffffffffffffffff6142c2565b6135bb91906142e8565b67ffffffffffffffff168d88815181106135d7576135d7613fb3565b602002602001015111613737575f835167ffffffffffffffff8111156135ff576135ff613971565b604051908082528060200260200182016040528015613628578160200160208202803683370190505b5090505f5b84518110156136845784818151811061364857613648613fb3565b60200260200101515f1c82828151811061366457613664613fb3565b6001600160a01b039092166020928302919091019091015260010161362d565b50866001600160a01b031663bde526618a8a815181106136a6576136a6613fb3565b602002602001015183868f8d815181106136c2576136c2613fb3565b60200260200101518f8e815181106136dc576136dc613fb3565b60200260200101516040518663ffffffff1660e01b815260040161370394939291906143ac565b5f604051808303818588803b15801561371a575f80fd5b505af115801561372c573d5f803e3d5ffd5b5050505050506137e4565b856001600160a01b03166355442b5989898151811061375857613758613fb3565b602002602001015185858e8c8151811061377457613774613fb3565b60200260200101518e8d8151811061378e5761378e613fb3565b60200260200101516040518663ffffffff1660e01b81526004016137b594939291906143f6565b5f604051808303818588803b1580156137cc575f80fd5b505af11580156137de573d5f803e3d5ffd5b50505050505b5050505050508060010190506131f7565b50505050505050565b5f805f60035f9054906101000a90046001600160a01b03166001600160a01b03166314b19c5a6040518163ffffffff1660e01b8152600401602060405180830381865afa158015613851573d5f803e3d5ffd5b505050506040513d601f19601f820116820180604052508101906138759190613fda565b5f86815260066020526040812054945063ffffffff9190911691508390036138b057604051637c946ed760e01b815260040160405180910390fd5b8083036138e557826138c3600183613f7b565b604051637ae5968560e01b81526004810192909252602482015260440161068f565b5f858152600760205260408120546138fe906001613fc7565b90506001811180156139105750808410155b1561392157836138c3600183613f7b565b61392b8585613fc7565b925060018111801561393c57508083115b15613945578092505b81831115613951578192505b50509250929050565b5f6020828403121561396a575f80fd5b5035919050565b634e487b7160e01b5f52604160045260245ffd5b604051601f8201601f1916810167ffffffffffffffff811182821017156139ae576139ae613971565b604052919050565b5f82601f8301126139c5575f80fd5b813567ffffffffffffffff8111156139df576139df613971565b6139f2601f8201601f1916602001613985565b818152846020838601011115613a06575f80fd5b816020850160208301375f918101602001919091529392505050565b5f805f8060808587031215613a35575f80fd5b843593506020850135925060408501359150606085013567ffffffffffffffff811115613a60575f80fd5b613a6c878288016139b6565b91505092959194509250565b5f67ffffffffffffffff821115613a9157613a91613971565b5060051b60200190565b5f82601f830112613aaa575f80fd5b81356020613abf613aba83613a78565b613985565b8083825260208201915060208460051b870101935086841115613ae0575f80fd5b602086015b84811015613afc5780358352918301918301613ae5565b509695505050505050565b5f82601f830112613b16575f80fd5b81356020613b26613aba83613a78565b82815260059290921b84018101918181019086841115613b44575f80fd5b8286015b84811015613afc57803567ffffffffffffffff811115613b66575f80fd5b613b748986838b01016139b6565b845250918301918301613b48565b5f805f805f60a08688031215613b96575f80fd5b8535945067ffffffffffffffff8060208801351115613bb3575f80fd5b613bc38860208901358901613a9b565b94508060408801351115613bd5575f80fd5b6040870135870188601f820112613bea575f80fd5b613bf7613aba8235613a78565b81358082526020808301929160051b8401018b1015613c14575f80fd5b602083015b6020843560051b850101811015613cae578481351115613c37575f80fd5b803584018c603f820112613c49575f80fd5b613c59613aba6020830135613a78565b602082810135808352908201919060051b83016040018f811115613c7b575f80fd5b6040840193505b80841015613c9d578335835260209384019390920191613c82565b508552505060209283019201613c19565b50955050506060870135811015613cc3575f80fd5b613cd38860608901358901613b07565b92508060808801351115613ce5575f80fd5b50613cf68760808801358801613a9b565b90509295509295909350565b5f8060408385031215613d13575f80fd5b50508035926020909101359150565b634e487b7160e01b5f52602160045260245ffd5b6020810160048310613d5657634e487b7160e01b5f52602160045260245ffd5b91905290565b5f60208284031215613d6c575f80fd5b813560048110613d7a575f80fd5b9392505050565b5f805f8060808587031215613d94575f80fd5b5050823594602084013594506040840135936060013592509050565b80356001600160a01b0381168114613dc6575f80fd5b919050565b5f60208284031215613ddb575f80fd5b613d7a82613db0565b5f805f60608486031215613df6575f80fd5b613dff84613db0565b9250613e0d60208501613db0565b9150613e1b60408501613db0565b90509250925092565b5f8060408385031215613e35575f80fd5b823567ffffffffffffffff80821115613e4c575f80fd5b613e5886838701613a9b565b93506020850135915080821115613e6d575f80fd5b50613e7a85828601613a9b565b9150509250929050565b5f8060408385031215613e95575f80fd5b823567ffffffffffffffff80821115613eac575f80fd5b818501915085601f830112613ebf575f80fd5b81356020613ecf613aba83613a78565b82815260059290921b84018101918181019089841115613eed575f80fd5b948201945b83861015613f1257613f0386613db0565b82529482019490820190613ef2565b96505086013592505080821115613e6d575f80fd5b805160ff81168114613dc6575f80fd5b5f60208284031215613f47575f80fd5b613d7a82613f27565b5f60208284031215613f60575f80fd5b5051919050565b634e487b7160e01b5f52601160045260245ffd5b81810381811115613f8e57613f8e613f67565b92915050565b5f60208284031215613fa4575f80fd5b81518015158114613d7a575f80fd5b634e487b7160e01b5f52603260045260245ffd5b80820180821115613f8e57613f8e613f67565b5f60208284031215613fea575f80fd5b815163ffffffff81168114613d7a575f80fd5b80516bffffffffffffffffffffffff81168114613dc6575f80fd5b5f60808284031215614028575f80fd5b6040516080810181811067ffffffffffffffff8211171561404b5761404b613971565b60405261405783613ffd565b815261406560208401613ffd565b6020820152604083015161ffff8116811461407e575f80fd5b604082015261408f60608401613f27565b60608201529392505050565b5f80604083850312156140ac575f80fd5b505080516020909101519092909150565b8082028115828204841417613f8e57613f8e613f67565b634e487b7160e01b5f52601260045260245ffd5b5f826140f6576140f66140d4565b500490565b600181815b8085111561413557815f190482111561411b5761411b613f67565b8085161561412857918102915b93841c9390800290614100565b509250929050565b5f8261414b57506001613f8e565b8161415757505f613f8e565b816001811461416d576002811461417757614193565b6001915050613f8e565b60ff84111561418857614188613f67565b50506001821b613f8e565b5060208310610133831016604e8410600b84101617156141b6575081810a613f8e565b6141c083836140fb565b805f19048211156141d3576141d3613f67565b029392505050565b5f613d7a838361413d565b5f815180845260208085019450602084015f5b83811015614215578151875295820195908201906001016141f9565b509495945050505050565b6001600160a01b0384168152606060208201525f61424160608301856141e6565b828103604084015261425381856141e6565b9695505050505050565b5f815180845260208085019450602084015f5b838110156142155781516001600160a01b031687529582019590820190600101614270565b604081525f6142a7604083018561425d565b82810360208401526142b981856141e6565b95945050505050565b5f67ffffffffffffffff808416806142dc576142dc6140d4565b92169190910492915050565b67ffffffffffffffff82811682821603908082111561430957614309613f67565b5092915050565b5f81518084528060208401602086015e5f602082860101526020601f19601f83011685010191505092915050565b6001600160a01b0385168152836020820152608060408201525f6143656080830185614310565b905082606083015295945050505050565b848152836020820152608060408201525f6143656080830185614310565b5f600182016143a5576143a5613f67565b5060010190565b608081525f6143be608083018761425d565b82810360208401526143d081876141e6565b905082810360408401526143e48186614310565b91505082606083015295945050505050565b608080825285519082018190525f9060209060a0840190828901845b8281101561442e57815184529284019290840190600101614412565b505050838103602085015261444381886141e6565b91505082810360408401526143e4818661431056fea2646970667358221220668a9db82be7522dd405cfe8fdb98fff035cbab2d81718ce7b6f251d87a01edf64736f6c63430008190033",
  "linkReferences": {},
  "deployedLinkReferences": {}
}