{
  "_format": "hh-sol-artifact-1",
  "contractName": "EthereumDepositProcessor",
  "sourceName": "contracts/staking/EthereumDepositProcessor.sol",
  "abi": [
    {
      "inputs": [
        {
          "internalType": "address",
          "name": "_olas",
          "type": "address"
        },
        {
          "internalType": "address",
          "name": "_dispenser",
          "type": "address"
        },
        {
          "internalType": "address",
          "name": "_stakingFactory",
          "type": "address"
        },
        {
          "internalType": "address",
          "name": "_timelock",
          "type": "address"
        }
      ],
      "stateMutability": "nonpayable",
      "type": "constructor"
    },
    {
      "inputs": [
        {
          "internalType": "address",
          "name": "sender",
          "type": "address"
        },
        {
          "internalType": "address",
          "name": "manager",
          "type": "address"
        }
      ],
      "name": "ManagerOnly",
      "type": "error"
    },
    {
      "inputs": [],
      "name": "ReentrancyGuard",
      "type": "error"
    },
    {
      "inputs": [
        {
          "internalType": "address",
          "name": "target",
          "type": "address"
        }
      ],
      "name": "TargetEmissionsZero",
      "type": "error"
    },
    {
      "inputs": [],
      "name": "ZeroAddress",
      "type": "error"
    },
    {
      "anonymous": false,
      "inputs": [
        {
          "indexed": true,
          "internalType": "address",
          "name": "target",
          "type": "address"
        },
        {
          "indexed": false,
          "internalType": "uint256",
          "name": "refundAmount",
          "type": "uint256"
        }
      ],
      "name": "AmountRefunded",
      "type": "event"
    },
    {
      "anonymous": false,
      "inputs": [
        {
          "indexed": true,
          "internalType": "address",
          "name": "target",
          "type": "address"
        },
        {
          "indexed": false,
          "internalType": "uint256",
          "name": "amount",
          "type": "uint256"
        }
      ],
      "name": "StakingTargetDeposited",
      "type": "event"
    },
    {
      "inputs": [],
      "name": "dispenser",
      "outputs": [
        {
          "internalType": "address",
          "name": "",
          "type": "address"
        }
      ],
      "stateMutability": "view",
      "type": "function"
    },
    {
      "inputs": [],
      "name": "getBridgingDecimals",
      "outputs": [
        {
          "internalType": "uint256",
          "name": "",
          "type": "uint256"
        }
      ],
      "stateMutability": "pure",
      "type": "function"
    },
    {
      "inputs": [],
      "name": "olas",
      "outputs": [
        {
          "internalType": "address",
          "name": "",
          "type": "address"
        }
      ],
      "stateMutability": "view",
      "type": "function"
    },
    {
      "inputs": [
        {
          "internalType": "address",
          "name": "target",
          "type": "address"
        },
        {
          "internalType": "uint256",
          "name": "stakingIncentive",
          "type": "uint256"
        },
        {
          "internalType": "bytes",
          "name": "",
          "type": "bytes"
        },
        {
          "internalType": "uint256",
          "name": "",
          "type": "uint256"
        }
      ],
      "name": "sendMessage",
      "outputs": [],
      "stateMutability": "nonpayable",
      "type": "function"
    },
    {
      "inputs": [
        {
          "internalType": "address[]",
          "name": "targets",
          "type": "address[]"
        },
        {
          "internalType": "uint256[]",
          "name": "stakingIncentives",
          "type": "uint256[]"
        },
        {
          "internalType": "bytes",
          "name": "",
          "type": "bytes"
        },
        {
          "internalType": "uint256",
          "name": "",
          "type": "uint256"
        }
      ],
      "name": "sendMessageBatch",
      "outputs": [],
      "stateMutability": "nonpayable",
      "type": "function"
    },
    {
      "inputs": [],
      "name": "stakingFactory",
      "outputs": [
        {
          "internalType": "address",
          "name": "",
          "type": "address"
        }
      ],
      "stateMutability": "view",
      "type": "function"
    },
    {
      "inputs": [],
      "name": "timelock",
      "outputs": [
        {
          "internalType": "address",
          "name": "",
          "type": "address"
        }
      ],
      "stateMutability": "view",
      "type": "function"
    }
  ],
  "bytecode": "0x610100604052348015610010575f80fd5b50604051610dac380380610dac83398101604081905261002f916100d7565b6001600160a01b038416158061004c57506001600160a01b038316155b8061005e57506001600160a01b038216155b8061007057506001600160a01b038116155b1561008e5760405163d92e233d60e01b815260040160405180910390fd5b6001600160a01b0393841660805291831660a052821660c0521660e0525f805460ff19166001179055610128565b80516001600160a01b03811681146100d2575f80fd5b919050565b5f805f80608085870312156100ea575f80fd5b6100f3856100bc565b9350610101602086016100bc565b925061010f604086016100bc565b915061011d606086016100bc565b905092959194509250565b60805160a05160c05160e051610c1b6101915f395f8181610131015261059d01525f818160d3015261049101525f818161015801528181610192015281816101f4015281816102f2015261035401525f81816082015281816105d401526106df0152610c1b5ff3fe608060405234801561000f575f80fd5b5060043610610079575f3560e01c8063b2267a7b11610058578063b2267a7b14610104578063bde5266114610119578063d33219b41461012c578063e09d894d14610153575f80fd5b806231d1151461007d57806329134768146100ce578063a8b2ae02146100f5575b5f80fd5b6100a47f000000000000000000000000000000000000000000000000000000000000000081565b60405173ffffffffffffffffffffffffffffffffffffffff90911681526020015b60405180910390f35b6100a47f000000000000000000000000000000000000000000000000000000000000000081565b604051601281526020016100c5565b610117610112366004610980565b61017a565b005b610117610127366004610a6a565b6102da565b6100a47f000000000000000000000000000000000000000000000000000000000000000081565b6100a47f000000000000000000000000000000000000000000000000000000000000000081565b3373ffffffffffffffffffffffffffffffffffffffff7f0000000000000000000000000000000000000000000000000000000000000000161461022c576040517f625a43fe00000000000000000000000000000000000000000000000000000000815273ffffffffffffffffffffffffffffffffffffffff7f00000000000000000000000000000000000000000000000000000000000000001660048201523360248201526044015b60405180910390fd5b6040805160018082528183019092525f916020808301908036833701905050905084815f8151811061026057610260610b3d565b73ffffffffffffffffffffffffffffffffffffffff92909216602092830291909101909101526040805160018082528183019092525f9181602001602082028036833701905050905084815f815181106102bc576102bc610b3d565b6020026020010181815250506102d28282610397565b505050505050565b3373ffffffffffffffffffffffffffffffffffffffff7f00000000000000000000000000000000000000000000000000000000000000001614610387576040517f625a43fe00000000000000000000000000000000000000000000000000000000815273ffffffffffffffffffffffffffffffffffffffff7f0000000000000000000000000000000000000000000000000000000000000000166004820152336024820152604401610223565b6103918484610397565b50505050565b5f54600160ff90911611156103d8576040517f8beb9d1600000000000000000000000000000000000000000000000000000000815260040160405180910390fd5b5f80547fffffffffffffffffffffffffffffffffffffffffffffffffffffffffffffff001660021781555b8251811015610823575f83828151811061041f5761041f610b3d565b602002602001015190505f83838151811061043c5761043c610b3d565b60209081029190910101516040517f1eda94d700000000000000000000000000000000000000000000000000000000815273ffffffffffffffffffffffffffffffffffffffff84811660048301529192505f917f00000000000000000000000000000000000000000000000000000000000000001690631eda94d790602401602060405180830381865afa1580156104d6573d5f803e3d5ffd5b505050506040513d601f19601f820116820180604052508101906104fa9190610b6a565b9050805f0361054d576040517fe65a6c4100000000000000000000000000000000000000000000000000000000815273ffffffffffffffffffffffffffffffffffffffff84166004820152602401610223565b80821115610693575f6105608284610b81565b6040517fa9059cbb00000000000000000000000000000000000000000000000000000000815273ffffffffffffffffffffffffffffffffffffffff7f0000000000000000000000000000000000000000000000000000000000000000811660048301526024820183905293945084939192507f00000000000000000000000000000000000000000000000000000000000000009091169063a9059cbb906044016020604051808303815f875af115801561061c573d5f803e3d5ffd5b505050506040513d601f19601f820116820180604052508101906106409190610bbf565b508373ffffffffffffffffffffffffffffffffffffffff167f7ab855409e27a3b361adc9ebbc0750f5efb6d4594be28fef73c314d86d13a7f78260405161068991815260200190565b60405180910390a2505b6040517f095ea7b300000000000000000000000000000000000000000000000000000000815273ffffffffffffffffffffffffffffffffffffffff8481166004830152602482018490527f0000000000000000000000000000000000000000000000000000000000000000169063095ea7b3906044016020604051808303815f875af1158015610725573d5f803e3d5ffd5b505050506040513d601f19601f820116820180604052508101906107499190610bbf565b506040517fb6b55f250000000000000000000000000000000000000000000000000000000081526004810183905273ffffffffffffffffffffffffffffffffffffffff84169063b6b55f25906024015f604051808303815f87803b1580156107af575f80fd5b505af11580156107c1573d5f803e3d5ffd5b505050508273ffffffffffffffffffffffffffffffffffffffff167f36d504751ef1ab82703e2675ab3d5e230c810cd1962cec9f40d96f9ca0e881f38360405161080d91815260200190565b60405180910390a2505050806001019050610403565b50505f80547fffffffffffffffffffffffffffffffffffffffffffffffffffffffffffffff0016600117905550565b803573ffffffffffffffffffffffffffffffffffffffff81168114610875575f80fd5b919050565b7f4e487b71000000000000000000000000000000000000000000000000000000005f52604160045260245ffd5b604051601f82017fffffffffffffffffffffffffffffffffffffffffffffffffffffffffffffffe016810167ffffffffffffffff811182821017156108ee576108ee61087a565b604052919050565b5f82601f830112610905575f80fd5b813567ffffffffffffffff81111561091f5761091f61087a565b61095060207fffffffffffffffffffffffffffffffffffffffffffffffffffffffffffffffe0601f840116016108a7565b818152846020838601011115610964575f80fd5b816020850160208301375f918101602001919091529392505050565b5f805f8060808587031215610993575f80fd5b61099c85610852565b935060208501359250604085013567ffffffffffffffff8111156109be575f80fd5b6109ca878288016108f6565b949793965093946060013593505050565b5f67ffffffffffffffff8211156109f4576109f461087a565b5060051b60200190565b5f82601f830112610a0d575f80fd5b81356020610a22610a1d836109db565b6108a7565b8083825260208201915060208460051b870101935086841115610a43575f80fd5b602086015b84811015610a5f5780358352918301918301610a48565b509695505050505050565b5f805f8060808587031215610a7d575f80fd5b843567ffffffffffffffff80821115610a94575f80fd5b818701915087601f830112610aa7575f80fd5b81356020610ab7610a1d836109db565b82815260059290921b8401810191818101908b841115610ad5575f80fd5b948201945b83861015610afa57610aeb86610852565b82529482019490820190610ada565b98505088013592505080821115610b0f575f80fd5b610b1b888389016109fe565b94506040870135915080821115610b30575f80fd5b506109ca878288016108f6565b7f4e487b71000000000000000000000000000000000000000000000000000000005f52603260045260245ffd5b5f60208284031215610b7a575f80fd5b5051919050565b81810381811115610bb9577f4e487b71000000000000000000000000000000000000000000000000000000005f52601160045260245ffd5b92915050565b5f60208284031215610bcf575f80fd5b81518015158114610bde575f80fd5b939250505056fea26469706673582212205f7d2b0c3357c8768ff5aa942748c9a518b7e96b28d8649bab5347e5823c250464736f6c63430008190033",
  "linkReferences": {},
  "deployedLinkReferences": {}
}