{
  "_format": "hh-sol-artifact-1",
  "contractName": "GnosisDepositProcessorL1",
  "sourceName": "contracts/staking/GnosisDepositProcessorL1.sol",
  "abi": [
    {
      "inputs": [
        {
          "internalType": "address",
          "name": "_olas",
          "type": "address"
        },
        {
          "internalType": "address",
          "name": "_l1Dispenser",
          "type": "address"
        },
        {
          "internalType": "address",
          "name": "_l1TokenRelayer",
          "type": "address"
        },
        {
          "internalType": "address",
          "name": "_l1MessageRelayer",
          "type": "address"
        },
        {
          "internalType": "uint256",
          "name": "_l2TargetChainId",
          "type": "uint256"
        }
      ],
      "stateMutability": "nonpayable",
      "type": "constructor"
    },
    {
      "inputs": [
        {
          "internalType": "bytes32",
          "name": "deliveryHash",
          "type": "bytes32"
        }
      ],
      "name": "AlreadyDelivered",
      "type": "error"
    },
    {
      "inputs": [
        {
          "internalType": "uint256",
          "name": "expected",
          "type": "uint256"
        },
        {
          "internalType": "uint256",
          "name": "provided",
          "type": "uint256"
        }
      ],
      "name": "IncorrectDataLength",
      "type": "error"
    },
    {
      "inputs": [
        {
          "internalType": "uint256",
          "name": "provided",
          "type": "uint256"
        },
        {
          "internalType": "uint256",
          "name": "expected",
          "type": "uint256"
        }
      ],
      "name": "InsufficientBalance",
      "type": "error"
    },
    {
      "inputs": [
        {
          "internalType": "uint256",
          "name": "provided",
          "type": "uint256"
        },
        {
          "internalType": "uint256",
          "name": "expected",
          "type": "uint256"
        }
      ],
      "name": "LowerThan",
      "type": "error"
    },
    {
      "inputs": [
        {
          "internalType": "address",
          "name": "sender",
          "type": "address"
        },
        {
          "internalType": "address",
          "name": "manager",
          "type": "address"
        }
      ],
      "name": "ManagerOnly",
      "type": "error"
    },
    {
      "inputs": [
        {
          "internalType": "uint256",
          "name": "provided",
          "type": "uint256"
        },
        {
          "internalType": "uint256",
          "name": "max",
          "type": "uint256"
        }
      ],
      "name": "Overflow",
      "type": "error"
    },
    {
      "inputs": [
        {
          "internalType": "address",
          "name": "sender",
          "type": "address"
        },
        {
          "internalType": "address",
          "name": "owner",
          "type": "address"
        }
      ],
      "name": "OwnerOnly",
      "type": "error"
    },
    {
      "inputs": [],
      "name": "Paused",
      "type": "error"
    },
    {
      "inputs": [],
      "name": "ReentrancyGuard",
      "type": "error"
    },
    {
      "inputs": [
        {
          "internalType": "address",
          "name": "target",
          "type": "address"
        },
        {
          "internalType": "uint256",
          "name": "amount",
          "type": "uint256"
        },
        {
          "internalType": "bytes32",
          "name": "batchHash",
          "type": "bytes32"
        }
      ],
      "name": "TargetAmountNotQueued",
      "type": "error"
    },
    {
      "inputs": [
        {
          "internalType": "address",
          "name": "provided",
          "type": "address"
        },
        {
          "internalType": "address",
          "name": "expected",
          "type": "address"
        }
      ],
      "name": "TargetRelayerOnly",
      "type": "error"
    },
    {
      "inputs": [
        {
          "internalType": "address",
          "name": "token",
          "type": "address"
        },
        {
          "internalType": "address",
          "name": "from",
          "type": "address"
        },
        {
          "internalType": "address",
          "name": "to",
          "type": "address"
        },
        {
          "internalType": "uint256",
          "name": "amount",
          "type": "uint256"
        }
      ],
      "name": "TransferFailed",
      "type": "error"
    },
    {
      "inputs": [],
      "name": "Unpaused",
      "type": "error"
    },
    {
      "inputs": [
        {
          "internalType": "address",
          "name": "account",
          "type": "address"
        }
      ],
      "name": "WrongAccount",
      "type": "error"
    },
    {
      "inputs": [
        {
          "internalType": "uint256",
          "name": "provided",
          "type": "uint256"
        },
        {
          "internalType": "uint256",
          "name": "expected",
          "type": "uint256"
        }
      ],
      "name": "WrongAmount",
      "type": "error"
    },
    {
      "inputs": [
        {
          "internalType": "uint256",
          "name": "provided",
          "type": "uint256"
        },
        {
          "internalType": "uint256",
          "name": "expected",
          "type": "uint256"
        }
      ],
      "name": "WrongChainId",
      "type": "error"
    },
    {
      "inputs": [
        {
          "internalType": "address",
          "name": "provided",
          "type": "address"
        },
        {
          "internalType": "address",
          "name": "expected",
          "type": "address"
        }
      ],
      "name": "WrongMessageSender",
      "type": "error"
    },
    {
      "inputs": [
        {
          "internalType": "address",
          "name": "provided",
          "type": "address"
        },
        {
          "internalType": "address",
          "name": "expected",
          "type": "address"
        }
      ],
      "name": "WrongTokenAddress",
      "type": "error"
    },
    {
      "inputs": [],
      "name": "ZeroAddress",
      "type": "error"
    },
    {
      "inputs": [],
      "name": "ZeroValue",
      "type": "error"
    },
    {
      "anonymous": false,
      "inputs": [
        {
          "indexed": true,
          "internalType": "address",
          "name": "l2TargetDispenser",
          "type": "address"
        }
      ],
      "name": "L2TargetDispenserUpdated",
      "type": "event"
    },
    {
      "anonymous": false,
      "inputs": [
        {
          "indexed": true,
          "internalType": "address",
          "name": "sender",
          "type": "address"
        },
        {
          "indexed": false,
          "internalType": "uint256",
          "name": "leftovers",
          "type": "uint256"
        }
      ],
      "name": "LeftoversRefunded",
      "type": "event"
    },
    {
      "anonymous": false,
      "inputs": [
        {
          "indexed": true,
          "internalType": "uint256",
          "name": "sequence",
          "type": "uint256"
        },
        {
          "indexed": false,
          "internalType": "address[]",
          "name": "targets",
          "type": "address[]"
        },
        {
          "indexed": false,
          "internalType": "uint256[]",
          "name": "stakingIncentives",
          "type": "uint256[]"
        },
        {
          "indexed": false,
          "internalType": "uint256",
          "name": "transferAmount",
          "type": "uint256"
        },
        {
          "indexed": true,
          "internalType": "bytes32",
          "name": "batchHash",
          "type": "bytes32"
        }
      ],
      "name": "MessagePosted",
      "type": "event"
    },
    {
      "anonymous": false,
      "inputs": [
        {
          "indexed": true,
          "internalType": "address",
          "name": "l1Relayer",
          "type": "address"
        },
        {
          "indexed": true,
          "internalType": "uint256",
          "name": "chainId",
          "type": "uint256"
        },
        {
          "indexed": false,
          "internalType": "bytes",
          "name": "data",
          "type": "bytes"
        }
      ],
      "name": "MessageReceived",
      "type": "event"
    },
    {
      "inputs": [],
      "name": "MAX_CHAIN_ID",
      "outputs": [
        {
          "internalType": "uint256",
          "name": "",
          "type": "uint256"
        }
      ],
      "stateMutability": "view",
      "type": "function"
    },
    {
      "inputs": [],
      "name": "MESSAGE_GAS_LIMIT",
      "outputs": [
        {
          "internalType": "uint256",
          "name": "",
          "type": "uint256"
        }
      ],
      "stateMutability": "view",
      "type": "function"
    },
    {
      "inputs": [],
      "name": "RECEIVE_MESSAGE",
      "outputs": [
        {
          "internalType": "bytes4",
          "name": "",
          "type": "bytes4"
        }
      ],
      "stateMutability": "view",
      "type": "function"
    },
    {
      "inputs": [],
      "name": "TOKEN_GAS_LIMIT",
      "outputs": [
        {
          "internalType": "uint256",
          "name": "",
          "type": "uint256"
        }
      ],
      "stateMutability": "view",
      "type": "function"
    },
    {
      "inputs": [],
      "name": "getBridgingDecimals",
      "outputs": [
        {
          "internalType": "uint256",
          "name": "",
          "type": "uint256"
        }
      ],
      "stateMutability": "pure",
      "type": "function"
    },
    {
      "inputs": [],
      "name": "l1Dispenser",
      "outputs": [
        {
          "internalType": "address",
          "name": "",
          "type": "address"
        }
      ],
      "stateMutability": "view",
      "type": "function"
    },
    {
      "inputs": [],
      "name": "l1MessageRelayer",
      "outputs": [
        {
          "internalType": "address",
          "name": "",
          "type": "address"
        }
      ],
      "stateMutability": "view",
      "type": "function"
    },
    {
      "inputs": [],
      "name": "l1TokenRelayer",
      "outputs": [
        {
          "internalType": "address",
          "name": "",
          "type": "address"
        }
      ],
      "stateMutability": "view",
      "type": "function"
    },
    {
      "inputs": [],
      "name": "l2TargetChainId",
      "outputs": [
        {
          "internalType": "uint256",
          "name": "",
          "type": "uint256"
        }
      ],
      "stateMutability": "view",
      "type": "function"
    },
    {
      "inputs": [],
      "name": "l2TargetDispenser",
      "outputs": [
        {
          "internalType": "address",
          "name": "",
          "type": "address"
        }
      ],
      "stateMutability": "view",
      "type": "function"
    },
    {
      "inputs": [],
      "name": "olas",
      "outputs": [
        {
          "internalType": "address",
          "name": "",
          "type": "address"
        }
      ],
      "stateMutability": "view",
      "type": "function"
    },
    {
      "inputs": [],
      "name": "owner",
      "outputs": [
        {
          "internalType": "address",
          "name": "",
          "type": "address"
        }
      ],
      "stateMutability": "view",
      "type": "function"
    },
    {
      "inputs": [
        {
          "internalType": "bytes32",
          "name": "",
          "type": "bytes32"
        }
      ],
      "name": "processedHashes",
      "outputs": [
        {
          "internalType": "bool",
          "name": "",
          "type": "bool"
        }
      ],
      "stateMutability": "view",
      "type": "function"
    },
    {
      "inputs": [
        {
          "internalType": "bytes",
          "name": "data",
          "type": "bytes"
        }
      ],
      "name": "receiveMessage",
      "outputs": [],
      "stateMutability": "nonpayable",
      "type": "function"
    },
    {
      "inputs": [
        {
          "internalType": "address",
          "name": "target",
          "type": "address"
        },
        {
          "internalType": "uint256",
          "name": "stakingIncentive",
          "type": "uint256"
        },
        {
          "internalType": "bytes",
          "name": "bridgePayload",
          "type": "bytes"
        },
        {
          "internalType": "uint256",
          "name": "transferAmount",
          "type": "uint256"
        }
      ],
      "name": "sendMessage",
      "outputs": [],
      "stateMutability": "payable",
      "type": "function"
    },
    {
      "inputs": [
        {
          "internalType": "address[]",
          "name": "targets",
          "type": "address[]"
        },
        {
          "internalType": "uint256[]",
          "name": "stakingIncentives",
          "type": "uint256[]"
        },
        {
          "internalType": "bytes",
          "name": "bridgePayload",
          "type": "bytes"
        },
        {
          "internalType": "uint256",
          "name": "transferAmount",
          "type": "uint256"
        }
      ],
      "name": "sendMessageBatch",
      "outputs": [],
      "stateMutability": "payable",
      "type": "function"
    },
    {
      "inputs": [
        {
          "internalType": "address",
          "name": "l2Dispenser",
          "type": "address"
        }
      ],
      "name": "setL2TargetDispenser",
      "outputs": [],
      "stateMutability": "nonpayable",
      "type": "function"
    },
    {
      "inputs": [],
      "name": "stakingBatchNonce",
      "outputs": [
        {
          "internalType": "uint256",
          "name": "",
          "type": "uint256"
        }
      ],
      "stateMutability": "view",
      "type": "function"
    },
    {
      "inputs": [
        {
          "internalType": "bytes32",
          "name": "batchHash",
          "type": "bytes32"
        }
      ],
      "name": "updateHashMaintenance",
      "outputs": [],
      "stateMutability": "nonpayable",
      "type": "function"
    }
  ],
  "bytecode": "0x610120604052348015610010575f80fd5b506040516118a23803806118a283398101604081905261002f91610179565b84848484846001600160a01b038416158061005157506001600160a01b038316155b8061006357506001600160a01b038216155b156100815760405163d92e233d60e01b815260040160405180910390fd5b805f036100a157604051637c946ed760e01b815260040160405180910390fd5b60246100b560026001600160401b036101d3565b6100bf9190610204565b6001600160401b031681111561011d578060246100e460026001600160401b036101d3565b6100ee9190610204565b604051637ae5968560e01b815260048101929092526001600160401b0316602482015260440160405180910390fd5b6001600160a01b0394851660805292841660a05290831660c05290911660e052610100525050600180546001600160a01b0319163317905550610237915050565b80516001600160a01b0381168114610174575f80fd5b919050565b5f805f805f60a0868803121561018d575f80fd5b6101968661015e565b94506101a46020870161015e565b93506101b26040870161015e565b92506101c06060870161015e565b9150608086015190509295509295909350565b5f6001600160401b03838116806101f857634e487b7160e01b5f52601260045260245ffd5b92169190910492915050565b6001600160401b0382811682821603908082111561023057634e487b7160e01b5f52601160045260245ffd5b5092915050565b60805160a05160c05160e051610100516115b76102eb5f395f81816103ae01528181610edc0152610fc801525f81816101df0152818161090d01528181610d5101528181610ddf0152610e4c01525f818161030401528181610ad80152610bdb01525f81816103ff015281816104ae015281816104ea01528181610579015281816105b5015281816107aa015281816107e6015261100401525f818161015101528181610b070152610ba401526115b75ff3fe60806040526004361061013c575f3560e01c8063a8b2ae02116100bb578063e309fb7711610071578063f4427c2c11610057578063f4427c2c14610421578063f953cec714610436578063f9fc3c2114610455575f80fd5b8063e309fb77146103d0578063f2541c35146103ee575f80fd5b8063b2267a7b116100a1578063b2267a7b14610377578063bde526611461038a578063c23cc3ff1461039d575f80fd5b8063a8b2ae0214610345578063ac65ded214610358575f80fd5b806354d20cc2116101105780635bc105c0116100f65780635bc105c0146102df5780636143fe93146102f35780638da5cb5b14610326575f80fd5b806354d20cc21461022557806354e4bbf4146102be575f80fd5b806231d1151461014057806307d9c534146101905780633d1f8679146101ce5780634c1c6cbf14610201575b5f80fd5b34801561014b575f80fd5b506101737f000000000000000000000000000000000000000000000000000000000000000081565b6040516001600160a01b0390911681526020015b60405180910390f35b34801561019b575f80fd5b506101be6101aa366004611062565b60036020525f908152604090205460ff1681565b6040519015158152602001610187565b3480156101d9575f80fd5b506101737f000000000000000000000000000000000000000000000000000000000000000081565b34801561020c575f80fd5b50610217620493e081565b604051908152602001610187565b348015610230575f80fd5b5060408051808201909152601581527f726563656976654d65737361676528627974657329000000000000000000000060209091015261028d7ff953cec75ae677942d7cda5cb6d12c0cb96a0904bf37d36301eef297b83c411d81565b6040517fffffffff000000000000000000000000000000000000000000000000000000009091168152602001610187565b3480156102c9575f80fd5b506102dd6102d836600461108d565b61046b565b005b3480156102ea575f80fd5b50610217610477565b3480156102fe575f80fd5b506101737f000000000000000000000000000000000000000000000000000000000000000081565b348015610331575f80fd5b50600154610173906001600160a01b031681565b348015610350575f80fd5b506012610217565b348015610363575f80fd5b506102dd610372366004611062565b6104a3565b6102dd610385366004611160565b61056e565b6102dd61039836600461124c565b61079f565b3480156103a8575f80fd5b506102177f000000000000000000000000000000000000000000000000000000000000000081565b3480156103db575f80fd5b505f54610173906001600160a01b031681565b3480156103f9575f80fd5b506101737f000000000000000000000000000000000000000000000000000000000000000081565b34801561042c575f80fd5b5061021760025481565b348015610441575f80fd5b506102dd610450366004611321565b61090a565b348015610460575f80fd5b50610217621e848081565b6104748161099d565b50565b602461048c600267ffffffffffffffff61136f565b61049691906113a1565b67ffffffffffffffff1681565b336001600160a01b037f000000000000000000000000000000000000000000000000000000000000000016146105225760405163312d21ff60e11b81526001600160a01b037f00000000000000000000000000000000000000000000000000000000000000001660048201523360248201526044015b60405180910390fd5b5f8181526003602052604090205460ff1615610554576040516356bc34a160e01b815260048101829052602401610519565b5f908152600360205260409020805460ff19166001179055565b336001600160a01b037f000000000000000000000000000000000000000000000000000000000000000016146105e85760405163312d21ff60e11b81526001600160a01b037f0000000000000000000000000000000000000000000000000000000000000000166004820152336024820152604401610519565b6040805160018082528183019092525f916020808301908036833701905050905084815f8151811061061c5761061c6113c9565b6001600160a01b0392909216602092830291909101909101526040805160018082528183019092525f9181602001602082028036833701905050905084815f8151811061066b5761066b6113c9565b602090810291909101810191909152600254604080519283018290524690830152306060830152905f906080016040516020818303038152906040528051906020012090505f806106bf86868a8a87610aa0565b9092509050801561074557604051329082905f81818185875af1925050503d805f8114610707576040519150601f19603f3d011682016040523d82523d5f602084013e61070c565b606091505b50506040518281523291507f8e49ed3e274fbea1556bdfaa9a37a0c28445bfe26d57beaf9f04fd517aa417419060200160405180910390a25b6107508460016113dd565b60028190555082827f621aece9999edf4d664a3855f668f6fc380937a42044234fd883b42d0485118788888b60405161078b93929190611468565b60405180910390a350505050505050505050565b336001600160a01b037f000000000000000000000000000000000000000000000000000000000000000016146108195760405163312d21ff60e11b81526001600160a01b037f0000000000000000000000000000000000000000000000000000000000000000166004820152336024820152604401610519565b600254604080516020810183905246918101919091523060608201525f906080016040516020818303038152906040528051906020012090505f806108618888888887610aa0565b909250905080156108b257604051329082905f81818185875af1925050503d805f81146108a9576040519150601f19603f3d011682016040523d82523d5f602084013e6108ae565b606091505b5050505b6108bd8460016113dd565b60028190555082827f621aece9999edf4d664a3855f668f6fc380937a42044234fd883b42d048511878a8a896040516108f893929190611468565b60405180910390a35050505050505050565b5f7f00000000000000000000000000000000000000000000000000000000000000006001600160a01b031663d67bdd256040518163ffffffff1660e01b81526004016020604051808303815f875af1158015610968573d5f803e3d5ffd5b505050506040513d601f19601f8201168201806040525081019061098c919061149d565b9050610999338284610ddd565b5050565b6001546001600160a01b031633146109f6576001546040517fa43d6ada0000000000000000000000000000000000000000000000000000000081526001600160a01b039091166004820152336024820152604401610519565b6001600160a01b038116610a36576040517fd92e233d00000000000000000000000000000000000000000000000000000000815260040160405180910390fd5b5f80546001600160a01b0383167fffffffffffffffffffffffff0000000000000000000000000000000000000000918216811783556001805490921690915560405190917f991aa5c8f67a92f8feb202de828958c681966ae343fcf6db040f5f8099d547cf91a250565b5f808315610c35576040517f095ea7b30000000000000000000000000000000000000000000000000000000081526001600160a01b037f000000000000000000000000000000000000000000000000000000000000000081166004830152602482018690527f0000000000000000000000000000000000000000000000000000000000000000169063095ea7b3906044016020604051808303815f875af1158015610b4d573d5f803e3d5ffd5b505050506040513d601f19601f82011682018060405250810190610b7191906114b8565b505f546040517fad58bdd10000000000000000000000000000000000000000000000000000000081526001600160a01b037f0000000000000000000000000000000000000000000000000000000000000000811660048301529182166024820152604481018690527f00000000000000000000000000000000000000000000000000000000000000009091169063ad58bdd1906064015f604051808303815f87803b158015610c1e575f80fd5b505af1158015610c30573d5f803e3d5ffd5b505050505b604080518082018252601581527f726563656976654d65737361676528627974657329000000000000000000000060209182015290515f917ff953cec75ae677942d7cda5cb6d12c0cb96a0904bf37d36301eef297b83c411d91610c9f918b918b91899101611468565b60408051601f1981840301815290829052610cbc91602401611505565b60408051601f198184030181529181526020820180517bffffffffffffffffffffffffffffffffffffffffffffffffffffffff167fffffffff00000000000000000000000000000000000000000000000000000000909416939093179092525f805492517fdc8601b3000000000000000000000000000000000000000000000000000000008152919350916001600160a01b037f000000000000000000000000000000000000000000000000000000000000000081169263dc8601b392610d8e9216908690621e848090600401611517565b6020604051808303815f875af1158015610daa573d5f803e3d5ffd5b505050506040513d601f19601f82011682018060405250810190610dce9190611548565b99349950975050505050505050565b7f00000000000000000000000000000000000000000000000000000000000000006001600160a01b0316836001600160a01b031614610e79576040517f2f3111fa0000000000000000000000000000000000000000000000000000000081523360048201526001600160a01b037f0000000000000000000000000000000000000000000000000000000000000000166024820152604401610519565b5f546001600160a01b03838116911614610ed5575f546040517f0d16cbdd0000000000000000000000000000000000000000000000000000000081526001600160a01b0380851660048301529091166024820152604401610519565b5f546040517f0000000000000000000000000000000000000000000000000000000000000000916001600160a01b0316907f98bbde530ec85b002f6fb0864beccaaf3ac3d2a4ac35cb3b03cf7c61ee415e3390610f33908590611505565b60405180910390a35f8082806020019051810190610f51919061155f565b5f81815260036020526040902054919350915060ff1615610f88576040516356bc34a160e01b815260048101829052602401610519565b5f8181526003602052604090819020805460ff19166001179055517f79bc81dd0000000000000000000000000000000000000000000000000000000081527f0000000000000000000000000000000000000000000000000000000000000000600482015260248101839052604481018290526001600160a01b037f000000000000000000000000000000000000000000000000000000000000000016906379bc81dd906064015f604051808303815f87803b158015611045575f80fd5b505af1158015611057573d5f803e3d5ffd5b505050505050505050565b5f60208284031215611072575f80fd5b5035919050565b6001600160a01b0381168114610474575f80fd5b5f6020828403121561109d575f80fd5b81356110a881611079565b9392505050565b634e487b7160e01b5f52604160045260245ffd5b604051601f8201601f1916810167ffffffffffffffff811182821017156110ec576110ec6110af565b604052919050565b5f82601f830112611103575f80fd5b813567ffffffffffffffff81111561111d5761111d6110af565b611130601f8201601f19166020016110c3565b818152846020838601011115611144575f80fd5b816020850160208301375f918101602001919091529392505050565b5f805f8060808587031215611173575f80fd5b843561117e81611079565b935060208501359250604085013567ffffffffffffffff8111156111a0575f80fd5b6111ac878288016110f4565b949793965093946060013593505050565b5f67ffffffffffffffff8211156111d6576111d66110af565b5060051b60200190565b5f82601f8301126111ef575f80fd5b813560206112046111ff836111bd565b6110c3565b8083825260208201915060208460051b870101935086841115611225575f80fd5b602086015b84811015611241578035835291830191830161122a565b509695505050505050565b5f805f806080858703121561125f575f80fd5b843567ffffffffffffffff80821115611276575f80fd5b818701915087601f830112611289575f80fd5b813560206112996111ff836111bd565b82815260059290921b8401810191818101908b8411156112b7575f80fd5b948201945b838610156112de5785356112cf81611079565b825294820194908201906112bc565b985050880135925050808211156112f3575f80fd5b6112ff888389016111e0565b94506040870135915080821115611314575f80fd5b506111ac878288016110f4565b5f60208284031215611331575f80fd5b813567ffffffffffffffff811115611347575f80fd5b611353848285016110f4565b949350505050565b634e487b7160e01b5f52601160045260245ffd5b5f67ffffffffffffffff8084168061139557634e487b7160e01b5f52601260045260245ffd5b92169190910492915050565b67ffffffffffffffff8281168282160390808211156113c2576113c261135b565b5092915050565b634e487b7160e01b5f52603260045260245ffd5b808201808211156113f0576113f061135b565b92915050565b5f815180845260208085019450602084015f5b8381101561142e5781516001600160a01b031687529582019590820190600101611409565b509495945050505050565b5f815180845260208085019450602084015f5b8381101561142e5781518752958201959082019060010161144c565b606081525f61147a60608301866113f6565b828103602084015261148c8186611439565b915050826040830152949350505050565b5f602082840312156114ad575f80fd5b81516110a881611079565b5f602082840312156114c8575f80fd5b815180151581146110a8575f80fd5b5f81518084528060208401602086015e5f602082860101526020601f19601f83011685010191505092915050565b602081525f6110a860208301846114d7565b6001600160a01b0384168152606060208201525f61153860608301856114d7565b9050826040830152949350505050565b5f60208284031215611558575f80fd5b5051919050565b5f8060408385031215611570575f80fd5b50508051602090910151909290915056fea26469706673582212207fc5bd2bb5c72b7fff49e36fe1f3a02a98663b6a948baab0bc66e6e9df5dfcca64736f6c63430008190033",
  "linkReferences": {},
  "deployedLinkReferences": {}
}