{
  "_format": "hh-sol-artifact-1",
  "contractName": "GnosisDepositProcessorL1",
  "sourceName": "contracts/staking/GnosisDepositProcessorL1.sol",
  "abi": [
    {
      "inputs": [
        {
          "internalType": "address",
          "name": "_olas",
          "type": "address"
        },
        {
          "internalType": "address",
          "name": "_l1Dispenser",
          "type": "address"
        },
        {
          "internalType": "address",
          "name": "_l1TokenRelayer",
          "type": "address"
        },
        {
          "internalType": "address",
          "name": "_l1MessageRelayer",
          "type": "address"
        },
        {
          "internalType": "uint256",
          "name": "_l2TargetChainId",
          "type": "uint256"
        }
      ],
      "stateMutability": "nonpayable",
      "type": "constructor"
    },
    {
      "inputs": [
        {
          "internalType": "bytes32",
          "name": "deliveryHash",
          "type": "bytes32"
        }
      ],
      "name": "AlreadyDelivered",
      "type": "error"
    },
    {
      "inputs": [
        {
          "internalType": "uint256",
          "name": "expected",
          "type": "uint256"
        },
        {
          "internalType": "uint256",
          "name": "provided",
          "type": "uint256"
        }
      ],
      "name": "IncorrectDataLength",
      "type": "error"
    },
    {
      "inputs": [
        {
          "internalType": "uint256",
          "name": "provided",
          "type": "uint256"
        },
        {
          "internalType": "uint256",
          "name": "expected",
          "type": "uint256"
        }
      ],
      "name": "InsufficientBalance",
      "type": "error"
    },
    {
      "inputs": [
        {
          "internalType": "uint256",
          "name": "provided",
          "type": "uint256"
        },
        {
          "internalType": "uint256",
          "name": "expected",
          "type": "uint256"
        }
      ],
      "name": "LowerThan",
      "type": "error"
    },
    {
      "inputs": [
        {
          "internalType": "address",
          "name": "sender",
          "type": "address"
        },
        {
          "internalType": "address",
          "name": "manager",
          "type": "address"
        }
      ],
      "name": "ManagerOnly",
      "type": "error"
    },
    {
      "inputs": [
        {
          "internalType": "uint256",
          "name": "provided",
          "type": "uint256"
        },
        {
          "internalType": "uint256",
          "name": "max",
          "type": "uint256"
        }
      ],
      "name": "Overflow",
      "type": "error"
    },
    {
      "inputs": [
        {
          "internalType": "address",
          "name": "sender",
          "type": "address"
        },
        {
          "internalType": "address",
          "name": "owner",
          "type": "address"
        }
      ],
      "name": "OwnerOnly",
      "type": "error"
    },
    {
      "inputs": [],
      "name": "Paused",
      "type": "error"
    },
    {
      "inputs": [],
      "name": "ReentrancyGuard",
      "type": "error"
    },
    {
      "inputs": [
        {
          "internalType": "address",
          "name": "target",
          "type": "address"
        },
        {
          "internalType": "uint256",
          "name": "amount",
          "type": "uint256"
        },
        {
          "internalType": "uint256",
          "name": "batchNonce",
          "type": "uint256"
        }
      ],
      "name": "TargetAmountNotQueued",
      "type": "error"
    },
    {
      "inputs": [
        {
          "internalType": "address",
          "name": "provided",
          "type": "address"
        },
        {
          "internalType": "address",
          "name": "expected",
          "type": "address"
        }
      ],
      "name": "TargetRelayerOnly",
      "type": "error"
    },
    {
      "inputs": [
        {
          "internalType": "address",
          "name": "token",
          "type": "address"
        },
        {
          "internalType": "address",
          "name": "from",
          "type": "address"
        },
        {
          "internalType": "address",
          "name": "to",
          "type": "address"
        },
        {
          "internalType": "uint256",
          "name": "amount",
          "type": "uint256"
        }
      ],
      "name": "TransferFailed",
      "type": "error"
    },
    {
      "inputs": [],
      "name": "Unpaused",
      "type": "error"
    },
    {
      "inputs": [
        {
          "internalType": "address",
          "name": "account",
          "type": "address"
        }
      ],
      "name": "WrongAccount",
      "type": "error"
    },
    {
      "inputs": [
        {
          "internalType": "uint256",
          "name": "provided",
          "type": "uint256"
        },
        {
          "internalType": "uint256",
          "name": "expected",
          "type": "uint256"
        }
      ],
      "name": "WrongAmount",
      "type": "error"
    },
    {
      "inputs": [
        {
          "internalType": "uint256",
          "name": "provided",
          "type": "uint256"
        },
        {
          "internalType": "uint256",
          "name": "expected",
          "type": "uint256"
        }
      ],
      "name": "WrongChainId",
      "type": "error"
    },
    {
      "inputs": [
        {
          "internalType": "address",
          "name": "provided",
          "type": "address"
        },
        {
          "internalType": "address",
          "name": "expected",
          "type": "address"
        }
      ],
      "name": "WrongMessageSender",
      "type": "error"
    },
    {
      "inputs": [
        {
          "internalType": "address",
          "name": "provided",
          "type": "address"
        },
        {
          "internalType": "address",
          "name": "expected",
          "type": "address"
        }
      ],
      "name": "WrongTokenAddress",
      "type": "error"
    },
    {
      "inputs": [],
      "name": "ZeroAddress",
      "type": "error"
    },
    {
      "inputs": [],
      "name": "ZeroValue",
      "type": "error"
    },
    {
      "anonymous": false,
      "inputs": [
        {
          "indexed": true,
          "internalType": "address",
          "name": "l2TargetDispenser",
          "type": "address"
        }
      ],
      "name": "L2TargetDispenserUpdated",
      "type": "event"
    },
    {
      "anonymous": false,
      "inputs": [
        {
          "indexed": true,
          "internalType": "uint256",
          "name": "sequence",
          "type": "uint256"
        },
        {
          "indexed": false,
          "internalType": "address[]",
          "name": "targets",
          "type": "address[]"
        },
        {
          "indexed": false,
          "internalType": "uint256[]",
          "name": "stakingIncentives",
          "type": "uint256[]"
        },
        {
          "indexed": false,
          "internalType": "uint256",
          "name": "transferAmount",
          "type": "uint256"
        }
      ],
      "name": "MessagePosted",
      "type": "event"
    },
    {
      "anonymous": false,
      "inputs": [
        {
          "indexed": true,
          "internalType": "address",
          "name": "l1Relayer",
          "type": "address"
        },
        {
          "indexed": true,
          "internalType": "uint256",
          "name": "chainId",
          "type": "uint256"
        },
        {
          "indexed": false,
          "internalType": "bytes",
          "name": "data",
          "type": "bytes"
        }
      ],
      "name": "MessageReceived",
      "type": "event"
    },
    {
      "inputs": [],
      "name": "BRIDGE_PAYLOAD_LENGTH",
      "outputs": [
        {
          "internalType": "uint256",
          "name": "",
          "type": "uint256"
        }
      ],
      "stateMutability": "view",
      "type": "function"
    },
    {
      "inputs": [],
      "name": "MAX_CHAIN_ID",
      "outputs": [
        {
          "internalType": "uint256",
          "name": "",
          "type": "uint256"
        }
      ],
      "stateMutability": "view",
      "type": "function"
    },
    {
      "inputs": [],
      "name": "MESSAGE_GAS_LIMIT",
      "outputs": [
        {
          "internalType": "uint256",
          "name": "",
          "type": "uint256"
        }
      ],
      "stateMutability": "view",
      "type": "function"
    },
    {
      "inputs": [],
      "name": "RECEIVE_MESSAGE",
      "outputs": [
        {
          "internalType": "bytes4",
          "name": "",
          "type": "bytes4"
        }
      ],
      "stateMutability": "view",
      "type": "function"
    },
    {
      "inputs": [],
      "name": "TOKEN_GAS_LIMIT",
      "outputs": [
        {
          "internalType": "uint256",
          "name": "",
          "type": "uint256"
        }
      ],
      "stateMutability": "view",
      "type": "function"
    },
    {
      "inputs": [],
      "name": "getBridgingDecimals",
      "outputs": [
        {
          "internalType": "uint256",
          "name": "",
          "type": "uint256"
        }
      ],
      "stateMutability": "pure",
      "type": "function"
    },
    {
      "inputs": [],
      "name": "l1Dispenser",
      "outputs": [
        {
          "internalType": "address",
          "name": "",
          "type": "address"
        }
      ],
      "stateMutability": "view",
      "type": "function"
    },
    {
      "inputs": [],
      "name": "l1MessageRelayer",
      "outputs": [
        {
          "internalType": "address",
          "name": "",
          "type": "address"
        }
      ],
      "stateMutability": "view",
      "type": "function"
    },
    {
      "inputs": [],
      "name": "l1TokenRelayer",
      "outputs": [
        {
          "internalType": "address",
          "name": "",
          "type": "address"
        }
      ],
      "stateMutability": "view",
      "type": "function"
    },
    {
      "inputs": [],
      "name": "l2TargetChainId",
      "outputs": [
        {
          "internalType": "uint256",
          "name": "",
          "type": "uint256"
        }
      ],
      "stateMutability": "view",
      "type": "function"
    },
    {
      "inputs": [],
      "name": "l2TargetDispenser",
      "outputs": [
        {
          "internalType": "address",
          "name": "",
          "type": "address"
        }
      ],
      "stateMutability": "view",
      "type": "function"
    },
    {
      "inputs": [],
      "name": "olas",
      "outputs": [
        {
          "internalType": "address",
          "name": "",
          "type": "address"
        }
      ],
      "stateMutability": "view",
      "type": "function"
    },
    {
      "inputs": [],
      "name": "owner",
      "outputs": [
        {
          "internalType": "address",
          "name": "",
          "type": "address"
        }
      ],
      "stateMutability": "view",
      "type": "function"
    },
    {
      "inputs": [
        {
          "internalType": "bytes",
          "name": "data",
          "type": "bytes"
        }
      ],
      "name": "receiveMessage",
      "outputs": [],
      "stateMutability": "nonpayable",
      "type": "function"
    },
    {
      "inputs": [
        {
          "internalType": "address",
          "name": "target",
          "type": "address"
        },
        {
          "internalType": "uint256",
          "name": "stakingIncentive",
          "type": "uint256"
        },
        {
          "internalType": "bytes",
          "name": "bridgePayload",
          "type": "bytes"
        },
        {
          "internalType": "uint256",
          "name": "transferAmount",
          "type": "uint256"
        }
      ],
      "name": "sendMessage",
      "outputs": [],
      "stateMutability": "payable",
      "type": "function"
    },
    {
      "inputs": [
        {
          "internalType": "address[]",
          "name": "targets",
          "type": "address[]"
        },
        {
          "internalType": "uint256[]",
          "name": "stakingIncentives",
          "type": "uint256[]"
        },
        {
          "internalType": "bytes",
          "name": "bridgePayload",
          "type": "bytes"
        },
        {
          "internalType": "uint256",
          "name": "transferAmount",
          "type": "uint256"
        }
      ],
      "name": "sendMessageBatch",
      "outputs": [],
      "stateMutability": "payable",
      "type": "function"
    },
    {
      "inputs": [
        {
          "internalType": "address",
          "name": "l2Dispenser",
          "type": "address"
        }
      ],
      "name": "setL2TargetDispenser",
      "outputs": [],
      "stateMutability": "nonpayable",
      "type": "function"
    },
    {
      "inputs": [],
      "name": "stakingBatchNonce",
      "outputs": [
        {
          "internalType": "uint256",
          "name": "",
          "type": "uint256"
        }
      ],
      "stateMutability": "view",
      "type": "function"
    }
  ],
  "bytecode": "0x610120604052348015610010575f80fd5b506040516117a93803806117a983398101604081905261002f91610179565b84848484846001600160a01b038416158061005157506001600160a01b038316155b8061006357506001600160a01b038216155b156100815760405163d92e233d60e01b815260040160405180910390fd5b805f036100a157604051637c946ed760e01b815260040160405180910390fd5b60246100b560026001600160401b036101d3565b6100bf9190610204565b6001600160401b031681111561011d578060246100e460026001600160401b036101d3565b6100ee9190610204565b604051637ae5968560e01b815260048101929092526001600160401b0316602482015260440160405180910390fd5b6001600160a01b0394851660805292841660a05290831660c05290911660e052610100525050600180546001600160a01b0319163317905550610237915050565b80516001600160a01b0381168114610174575f80fd5b919050565b5f805f805f60a0868803121561018d575f80fd5b6101968661015e565b94506101a46020870161015e565b93506101b26040870161015e565b92506101c06060870161015e565b9150608086015190509295509295909350565b5f6001600160401b03838116806101f857634e487b7160e01b5f52601260045260245ffd5b92169190910492915050565b6001600160401b0382811682821603908082111561023057634e487b7160e01b5f52601160045260245ffd5b5092915050565b60805160a05160c05160e051610100516114cc6102dd5f395f818161034b01528181610d9d0152610e3901525f8181610187015281816106cb01528181610c1301528181610ca00152610d0d01525f81816102c0015281816108dd01526109ce01525f818161039c0152818161044b015281816104a0015281816105da0152818161062f0152610e6901525f81816101370152818161090c01526109fc01526114cc5ff3fe608060405260043610610122575f3560e01c8063a8b2ae02116100a1578063e309fb7711610071578063f4427c2c11610057578063f4427c2c146103be578063f953cec7146103d3578063f9fc3c21146103f2575f80fd5b8063e309fb771461036d578063f2541c351461038b575f80fd5b8063a8b2ae0214610301578063b2267a7b14610314578063bde5266114610327578063c23cc3ff1461033a575f80fd5b806354d20cc2116100f65780635bc105c0116100dc5780635bc105c01461029b5780636143fe93146102af5780638da5cb5b146102e2575f80fd5b806354d20cc2146101e157806354e4bbf41461027a575f80fd5b806231d115146101265780633d1f8679146101765780634c1c6cbf146101a95780634ece6b17146101cd575b5f80fd5b348015610131575f80fd5b506101597f000000000000000000000000000000000000000000000000000000000000000081565b6040516001600160a01b0390911681526020015b60405180910390f35b348015610181575f80fd5b506101597f000000000000000000000000000000000000000000000000000000000000000081565b3480156101b4575f80fd5b506101bf620493e081565b60405190815260200161016d565b3480156101d8575f80fd5b506101bf602081565b3480156101ec575f80fd5b5060408051808201909152601581527f726563656976654d6573736167652862797465732900000000000000000000006020909101526102497ff953cec75ae677942d7cda5cb6d12c0cb96a0904bf37d36301eef297b83c411d81565b6040517fffffffff00000000000000000000000000000000000000000000000000000000909116815260200161016d565b348015610285575f80fd5b50610299610294366004610ee2565b610408565b005b3480156102a6575f80fd5b506101bf610414565b3480156102ba575f80fd5b506101597f000000000000000000000000000000000000000000000000000000000000000081565b3480156102ed575f80fd5b50600154610159906001600160a01b031681565b34801561030c575f80fd5b5060126101bf565b610299610322366004610fce565b610440565b6102996103353660046110ba565b6105cf565b348015610345575f80fd5b506101bf7f000000000000000000000000000000000000000000000000000000000000000081565b348015610378575f80fd5b505f54610159906001600160a01b031681565b348015610396575f80fd5b506101597f000000000000000000000000000000000000000000000000000000000000000081565b3480156103c9575f80fd5b506101bf60025481565b3480156103de575f80fd5b506102996103ed36600461118f565b6106c8565b3480156103fd575f80fd5b506101bf621e848081565b6104118161075b565b50565b6024610429600267ffffffffffffffff6111ee565b6104339190611239565b67ffffffffffffffff1681565b336001600160a01b037f000000000000000000000000000000000000000000000000000000000000000016146104d8576040517f625a43fe0000000000000000000000000000000000000000000000000000000081526001600160a01b037f00000000000000000000000000000000000000000000000000000000000000001660048201523360248201526044015b60405180910390fd5b6040805160018082528183019092525f916020808301908036833701905050905084815f8151811061050c5761050c611261565b6001600160a01b0392909216602092830291909101909101526040805160018082528183019092525f9181602001602082028036833701905050905084815f8151811061055b5761055b611261565b6020026020010181815250505f6105748383878761085e565b600280549192505f6105858361128e565b9190505550807f9a5db7eed66b0161b9861a53b42de123e042dbe1f1734a7d032402926063fe328484876040516105be93929190611337565b60405180910390a250505050505050565b336001600160a01b037f00000000000000000000000000000000000000000000000000000000000000001614610662576040517f625a43fe0000000000000000000000000000000000000000000000000000000081526001600160a01b037f00000000000000000000000000000000000000000000000000000000000000001660048201523360248201526044016104cf565b5f61066f8585858561085e565b600280549192505f6106808361128e565b9190505550807f9a5db7eed66b0161b9861a53b42de123e042dbe1f1734a7d032402926063fe328686856040516106b993929190611337565b60405180910390a25050505050565b5f7f00000000000000000000000000000000000000000000000000000000000000006001600160a01b031663d67bdd256040518163ffffffff1660e01b81526004016020604051808303815f875af1158015610726573d5f803e3d5ffd5b505050506040513d601f19601f8201168201806040525081019061074a919061136c565b9050610757338284610c9e565b5050565b6001546001600160a01b031633146107b4576001546040517fa43d6ada0000000000000000000000000000000000000000000000000000000081526001600160a01b0390911660048201523360248201526044016104cf565b6001600160a01b0381166107f4576040517fd92e233d00000000000000000000000000000000000000000000000000000000815260040160405180910390fd5b5f80546001600160a01b0383167fffffffffffffffffffffffff0000000000000000000000000000000000000000918216811783556001805490921690915560405190917f991aa5c8f67a92f8feb202de828958c681966ae343fcf6db040f5f8099d547cf91a250565b5f60208351146108a75782516040517f34c9027a0000000000000000000000000000000000000000000000000000000081526020600482015260248101919091526044016104cf565b8115610a63576040517f095ea7b30000000000000000000000000000000000000000000000000000000081526001600160a01b037f000000000000000000000000000000000000000000000000000000000000000081166004830152602482018490527f0000000000000000000000000000000000000000000000000000000000000000169063095ea7b3906044016020604051808303815f875af1158015610952573d5f803e3d5ffd5b505050506040513d601f19601f820116820180604052508101906109769190611387565b505f858560405160200161098b9291906113a6565b60408051601f19818403018152908290525f547fd74054810000000000000000000000000000000000000000000000000000000083529092506001600160a01b037f000000000000000000000000000000000000000000000000000000000000000081169263d740548192610a2b927f00000000000000000000000000000000000000000000000000000000000000009291169088908790600401611401565b5f604051808303815f87803b158015610a42575f80fd5b505af1158015610a54573d5f803e3d5ffd5b50505050600254915050610c96565b604080518082018252601581527f726563656976654d65737361676528627974657329000000000000000000000060209182015290515f917ff953cec75ae677942d7cda5cb6d12c0cb96a0904bf37d36301eef297b83c411d91610acb9189918991016113a6565b60408051601f1981840301815290829052610ae89160240161143c565b604051602081830303815290604052907bffffffffffffffffffffffffffffffffffffffffffffffffffffffff19166020820180517bffffffffffffffffffffffffffffffffffffffffffffffffffffffff838183161783525050505090505f84806020019051810190610b5c919061144e565b9050805f03610b97576040517f7c946ed700000000000000000000000000000000000000000000000000000000815260040160405180910390fd5b621e8480811115610be0576040517f7ae5968500000000000000000000000000000000000000000000000000000000815260048101829052621e848060248201526044016104cf565b5f80546040517fdc8601b30000000000000000000000000000000000000000000000000000000081526001600160a01b037f000000000000000000000000000000000000000000000000000000000000000081169263dc8601b392610c5092919091169087908790600401611465565b6020604051808303815f875af1158015610c6c573d5f803e3d5ffd5b505050506040513d601f19601f82011682018060405250810190610c90919061144e565b93505050505b949350505050565b7f00000000000000000000000000000000000000000000000000000000000000006001600160a01b0316836001600160a01b031614610d3a576040517f2f3111fa0000000000000000000000000000000000000000000000000000000081523360048201526001600160a01b037f00000000000000000000000000000000000000000000000000000000000000001660248201526044016104cf565b5f546001600160a01b03838116911614610d96575f546040517f0d16cbdd0000000000000000000000000000000000000000000000000000000081526001600160a01b03808516600483015290911660248201526044016104cf565b5f546040517f0000000000000000000000000000000000000000000000000000000000000000916001600160a01b0316907f98bbde530ec85b002f6fb0864beccaaf3ac3d2a4ac35cb3b03cf7c61ee415e3390610df490859061143c565b60405180910390a35f81806020019051810190610e11919061144e565b6040517f59a8dfb90000000000000000000000000000000000000000000000000000000081527f00000000000000000000000000000000000000000000000000000000000000006004820152602481018290529091507f00000000000000000000000000000000000000000000000000000000000000006001600160a01b0316906359a8dfb9906044015f604051808303815f87803b158015610eb2575f80fd5b505af1158015610ec4573d5f803e3d5ffd5b5050505050505050565b6001600160a01b0381168114610411575f80fd5b5f60208284031215610ef2575f80fd5b8135610efd81610ece565b9392505050565b7f4e487b71000000000000000000000000000000000000000000000000000000005f52604160045260245ffd5b604051601f8201601f1916810167ffffffffffffffff81118282101715610f5a57610f5a610f04565b604052919050565b5f82601f830112610f71575f80fd5b813567ffffffffffffffff811115610f8b57610f8b610f04565b610f9e6020601f19601f84011601610f31565b818152846020838601011115610fb2575f80fd5b816020850160208301375f918101602001919091529392505050565b5f805f8060808587031215610fe1575f80fd5b8435610fec81610ece565b935060208501359250604085013567ffffffffffffffff81111561100e575f80fd5b61101a87828801610f62565b949793965093946060013593505050565b5f67ffffffffffffffff82111561104457611044610f04565b5060051b60200190565b5f82601f83011261105d575f80fd5b8135602061107261106d8361102b565b610f31565b8083825260208201915060208460051b870101935086841115611093575f80fd5b602086015b848110156110af5780358352918301918301611098565b509695505050505050565b5f805f80608085870312156110cd575f80fd5b843567ffffffffffffffff808211156110e4575f80fd5b818701915087601f8301126110f7575f80fd5b8135602061110761106d8361102b565b82815260059290921b8401810191818101908b841115611125575f80fd5b948201945b8386101561114c57853561113d81610ece565b8252948201949082019061112a565b98505088013592505080821115611161575f80fd5b61116d8883890161104e565b94506040870135915080821115611182575f80fd5b5061101a87828801610f62565b5f6020828403121561119f575f80fd5b813567ffffffffffffffff8111156111b5575f80fd5b610c9684828501610f62565b7f4e487b71000000000000000000000000000000000000000000000000000000005f52601160045260245ffd5b5f67ffffffffffffffff8084168061122d577f4e487b71000000000000000000000000000000000000000000000000000000005f52601260045260245ffd5b92169190910492915050565b67ffffffffffffffff82811682821603908082111561125a5761125a6111c1565b5092915050565b7f4e487b71000000000000000000000000000000000000000000000000000000005f52603260045260245ffd5b5f7fffffffffffffffffffffffffffffffffffffffffffffffffffffffffffffffff82036112be576112be6111c1565b5060010190565b5f815180845260208085019450602084015f5b838110156112fd5781516001600160a01b0316875295820195908201906001016112d8565b509495945050505050565b5f815180845260208085019450602084015f5b838110156112fd5781518752958201959082019060010161131b565b606081525f61134960608301866112c5565b828103602084015261135b8186611308565b915050826040830152949350505050565b5f6020828403121561137c575f80fd5b8151610efd81610ece565b5f60208284031215611397575f80fd5b81518015158114610efd575f80fd5b604081525f6113b860408301856112c5565b82810360208401526113ca8185611308565b95945050505050565b5f81518084528060208401602086015e5f602082860101526020601f19601f83011685010191505092915050565b5f6001600160a01b0380871683528086166020840152508360408301526080606083015261143260808301846113d3565b9695505050505050565b602081525f610efd60208301846113d3565b5f6020828403121561145e575f80fd5b5051919050565b6001600160a01b0384168152606060208201525f61148660608301856113d3565b905082604083015294935050505056fea2646970667358221220c15565e2267b4ad66ab6c04a7997077b1267cf2768b12921b2b00038368574e964736f6c63430008190033",
  "linkReferences": {},
  "deployedLinkReferences": {}
}