{
  "_format": "hh-sol-artifact-1",
  "contractName": "GnosisTargetDispenserL2",
  "sourceName": "contracts/staking/GnosisTargetDispenserL2.sol",
  "abi": [
    {
      "inputs": [
        {
          "internalType": "address",
          "name": "_olas",
          "type": "address"
        },
        {
          "internalType": "address",
          "name": "_proxyFactory",
          "type": "address"
        },
        {
          "internalType": "address",
          "name": "_l2MessageRelayer",
          "type": "address"
        },
        {
          "internalType": "address",
          "name": "_l1DepositProcessor",
          "type": "address"
        },
        {
          "internalType": "uint256",
          "name": "_l1SourceChainId",
          "type": "uint256"
        },
        {
          "internalType": "address",
          "name": "_l2TokenRelayer",
          "type": "address"
        }
      ],
      "stateMutability": "nonpayable",
      "type": "constructor"
    },
    {
      "inputs": [
        {
          "internalType": "bytes32",
          "name": "deliveryHash",
          "type": "bytes32"
        }
      ],
      "name": "AlreadyDelivered",
      "type": "error"
    },
    {
      "inputs": [
        {
          "internalType": "uint256",
          "name": "expected",
          "type": "uint256"
        },
        {
          "internalType": "uint256",
          "name": "provided",
          "type": "uint256"
        }
      ],
      "name": "IncorrectDataLength",
      "type": "error"
    },
    {
      "inputs": [
        {
          "internalType": "uint256",
          "name": "provided",
          "type": "uint256"
        },
        {
          "internalType": "uint256",
          "name": "expected",
          "type": "uint256"
        }
      ],
      "name": "InsufficientBalance",
      "type": "error"
    },
    {
      "inputs": [
        {
          "internalType": "uint256",
          "name": "provided",
          "type": "uint256"
        },
        {
          "internalType": "uint256",
          "name": "expected",
          "type": "uint256"
        }
      ],
      "name": "LowerThan",
      "type": "error"
    },
    {
      "inputs": [
        {
          "internalType": "address",
          "name": "sender",
          "type": "address"
        },
        {
          "internalType": "address",
          "name": "manager",
          "type": "address"
        }
      ],
      "name": "ManagerOnly",
      "type": "error"
    },
    {
      "inputs": [
        {
          "internalType": "uint256",
          "name": "provided",
          "type": "uint256"
        },
        {
          "internalType": "uint256",
          "name": "max",
          "type": "uint256"
        }
      ],
      "name": "Overflow",
      "type": "error"
    },
    {
      "inputs": [
        {
          "internalType": "address",
          "name": "sender",
          "type": "address"
        },
        {
          "internalType": "address",
          "name": "owner",
          "type": "address"
        }
      ],
      "name": "OwnerOnly",
      "type": "error"
    },
    {
      "inputs": [],
      "name": "Paused",
      "type": "error"
    },
    {
      "inputs": [],
      "name": "ReentrancyGuard",
      "type": "error"
    },
    {
      "inputs": [
        {
          "internalType": "address",
          "name": "target",
          "type": "address"
        },
        {
          "internalType": "uint256",
          "name": "amount",
          "type": "uint256"
        },
        {
          "internalType": "uint256",
          "name": "batchNonce",
          "type": "uint256"
        }
      ],
      "name": "TargetAmountNotQueued",
      "type": "error"
    },
    {
      "inputs": [
        {
          "internalType": "address",
          "name": "provided",
          "type": "address"
        },
        {
          "internalType": "address",
          "name": "expected",
          "type": "address"
        }
      ],
      "name": "TargetRelayerOnly",
      "type": "error"
    },
    {
      "inputs": [
        {
          "internalType": "address",
          "name": "token",
          "type": "address"
        },
        {
          "internalType": "address",
          "name": "from",
          "type": "address"
        },
        {
          "internalType": "address",
          "name": "to",
          "type": "address"
        },
        {
          "internalType": "uint256",
          "name": "amount",
          "type": "uint256"
        }
      ],
      "name": "TransferFailed",
      "type": "error"
    },
    {
      "inputs": [],
      "name": "Unpaused",
      "type": "error"
    },
    {
      "inputs": [
        {
          "internalType": "address",
          "name": "account",
          "type": "address"
        }
      ],
      "name": "WrongAccount",
      "type": "error"
    },
    {
      "inputs": [
        {
          "internalType": "uint256",
          "name": "provided",
          "type": "uint256"
        },
        {
          "internalType": "uint256",
          "name": "expected",
          "type": "uint256"
        }
      ],
      "name": "WrongAmount",
      "type": "error"
    },
    {
      "inputs": [
        {
          "internalType": "uint256",
          "name": "provided",
          "type": "uint256"
        },
        {
          "internalType": "uint256",
          "name": "expected",
          "type": "uint256"
        }
      ],
      "name": "WrongChainId",
      "type": "error"
    },
    {
      "inputs": [
        {
          "internalType": "address",
          "name": "provided",
          "type": "address"
        },
        {
          "internalType": "address",
          "name": "expected",
          "type": "address"
        }
      ],
      "name": "WrongMessageSender",
      "type": "error"
    },
    {
      "inputs": [
        {
          "internalType": "address",
          "name": "provided",
          "type": "address"
        },
        {
          "internalType": "address",
          "name": "expected",
          "type": "address"
        }
      ],
      "name": "WrongTokenAddress",
      "type": "error"
    },
    {
      "inputs": [],
      "name": "ZeroAddress",
      "type": "error"
    },
    {
      "inputs": [],
      "name": "ZeroValue",
      "type": "error"
    },
    {
      "anonymous": false,
      "inputs": [
        {
          "indexed": true,
          "internalType": "address",
          "name": "target",
          "type": "address"
        },
        {
          "indexed": false,
          "internalType": "uint256",
          "name": "amount",
          "type": "uint256"
        }
      ],
      "name": "AmountWithheld",
      "type": "event"
    },
    {
      "anonymous": false,
      "inputs": [
        {
          "indexed": true,
          "internalType": "address",
          "name": "owner",
          "type": "address"
        },
        {
          "indexed": false,
          "internalType": "uint256",
          "name": "amount",
          "type": "uint256"
        }
      ],
      "name": "Drain",
      "type": "event"
    },
    {
      "anonymous": false,
      "inputs": [
        {
          "indexed": true,
          "internalType": "address",
          "name": "sender",
          "type": "address"
        },
        {
          "indexed": false,
          "internalType": "uint256",
          "name": "value",
          "type": "uint256"
        }
      ],
      "name": "FundsReceived",
      "type": "event"
    },
    {
      "anonymous": false,
      "inputs": [
        {
          "indexed": true,
          "internalType": "uint256",
          "name": "sequence",
          "type": "uint256"
        },
        {
          "indexed": true,
          "internalType": "address",
          "name": "messageSender",
          "type": "address"
        },
        {
          "indexed": true,
          "internalType": "address",
          "name": "l1Processor",
          "type": "address"
        },
        {
          "indexed": false,
          "internalType": "uint256",
          "name": "amount",
          "type": "uint256"
        }
      ],
      "name": "MessagePosted",
      "type": "event"
    },
    {
      "anonymous": false,
      "inputs": [
        {
          "indexed": true,
          "internalType": "address",
          "name": "sender",
          "type": "address"
        },
        {
          "indexed": false,
          "internalType": "uint256",
          "name": "chainId",
          "type": "uint256"
        },
        {
          "indexed": false,
          "internalType": "bytes",
          "name": "data",
          "type": "bytes"
        }
      ],
      "name": "MessageReceived",
      "type": "event"
    },
    {
      "anonymous": false,
      "inputs": [
        {
          "indexed": true,
          "internalType": "address",
          "name": "sender",
          "type": "address"
        },
        {
          "indexed": true,
          "internalType": "address",
          "name": "newL2TargetDispenser",
          "type": "address"
        },
        {
          "indexed": false,
          "internalType": "uint256",
          "name": "amount",
          "type": "uint256"
        }
      ],
      "name": "Migrated",
      "type": "event"
    },
    {
      "anonymous": false,
      "inputs": [
        {
          "indexed": true,
          "internalType": "address",
          "name": "owner",
          "type": "address"
        }
      ],
      "name": "OwnerUpdated",
      "type": "event"
    },
    {
      "anonymous": false,
      "inputs": [
        {
          "indexed": true,
          "internalType": "bytes32",
          "name": "queueHash",
          "type": "bytes32"
        },
        {
          "indexed": true,
          "internalType": "address",
          "name": "target",
          "type": "address"
        },
        {
          "indexed": false,
          "internalType": "uint256",
          "name": "amount",
          "type": "uint256"
        },
        {
          "indexed": false,
          "internalType": "uint256",
          "name": "batchNonce",
          "type": "uint256"
        },
        {
          "indexed": false,
          "internalType": "uint256",
          "name": "paused",
          "type": "uint256"
        }
      ],
      "name": "StakingRequestQueued",
      "type": "event"
    },
    {
      "anonymous": false,
      "inputs": [
        {
          "indexed": true,
          "internalType": "address",
          "name": "target",
          "type": "address"
        },
        {
          "indexed": false,
          "internalType": "uint256",
          "name": "amount",
          "type": "uint256"
        }
      ],
      "name": "StakingTargetDeposited",
      "type": "event"
    },
    {
      "anonymous": false,
      "inputs": [],
      "name": "TargetDispenserPaused",
      "type": "event"
    },
    {
      "anonymous": false,
      "inputs": [],
      "name": "TargetDispenserUnpaused",
      "type": "event"
    },
    {
      "anonymous": false,
      "inputs": [
        {
          "indexed": true,
          "internalType": "address",
          "name": "sender",
          "type": "address"
        },
        {
          "indexed": false,
          "internalType": "uint256",
          "name": "amount",
          "type": "uint256"
        }
      ],
      "name": "WithheldAmountSynced",
      "type": "event"
    },
    {
      "inputs": [],
      "name": "BRIDGE_PAYLOAD_LENGTH",
      "outputs": [
        {
          "internalType": "uint256",
          "name": "",
          "type": "uint256"
        }
      ],
      "stateMutability": "view",
      "type": "function"
    },
    {
      "inputs": [],
      "name": "GAS_LIMIT",
      "outputs": [
        {
          "internalType": "uint256",
          "name": "",
          "type": "uint256"
        }
      ],
      "stateMutability": "view",
      "type": "function"
    },
    {
      "inputs": [],
      "name": "MAX_CHAIN_ID",
      "outputs": [
        {
          "internalType": "uint256",
          "name": "",
          "type": "uint256"
        }
      ],
      "stateMutability": "view",
      "type": "function"
    },
    {
      "inputs": [],
      "name": "MAX_GAS_LIMIT",
      "outputs": [
        {
          "internalType": "uint256",
          "name": "",
          "type": "uint256"
        }
      ],
      "stateMutability": "view",
      "type": "function"
    },
    {
      "inputs": [],
      "name": "RECEIVE_MESSAGE",
      "outputs": [
        {
          "internalType": "bytes4",
          "name": "",
          "type": "bytes4"
        }
      ],
      "stateMutability": "view",
      "type": "function"
    },
    {
      "inputs": [
        {
          "internalType": "address",
          "name": "newOwner",
          "type": "address"
        }
      ],
      "name": "changeOwner",
      "outputs": [],
      "stateMutability": "nonpayable",
      "type": "function"
    },
    {
      "inputs": [],
      "name": "drain",
      "outputs": [
        {
          "internalType": "uint256",
          "name": "amount",
          "type": "uint256"
        }
      ],
      "stateMutability": "nonpayable",
      "type": "function"
    },
    {
      "inputs": [],
      "name": "l1DepositProcessor",
      "outputs": [
        {
          "internalType": "address",
          "name": "",
          "type": "address"
        }
      ],
      "stateMutability": "view",
      "type": "function"
    },
    {
      "inputs": [],
      "name": "l1SourceChainId",
      "outputs": [
        {
          "internalType": "uint256",
          "name": "",
          "type": "uint256"
        }
      ],
      "stateMutability": "view",
      "type": "function"
    },
    {
      "inputs": [],
      "name": "l2MessageRelayer",
      "outputs": [
        {
          "internalType": "address",
          "name": "",
          "type": "address"
        }
      ],
      "stateMutability": "view",
      "type": "function"
    },
    {
      "inputs": [],
      "name": "l2TokenRelayer",
      "outputs": [
        {
          "internalType": "address",
          "name": "",
          "type": "address"
        }
      ],
      "stateMutability": "view",
      "type": "function"
    },
    {
      "inputs": [
        {
          "internalType": "address",
          "name": "newL2TargetDispenser",
          "type": "address"
        }
      ],
      "name": "migrate",
      "outputs": [],
      "stateMutability": "nonpayable",
      "type": "function"
    },
    {
      "inputs": [],
      "name": "olas",
      "outputs": [
        {
          "internalType": "address",
          "name": "",
          "type": "address"
        }
      ],
      "stateMutability": "view",
      "type": "function"
    },
    {
      "inputs": [
        {
          "internalType": "address",
          "name": "",
          "type": "address"
        },
        {
          "internalType": "uint256",
          "name": "",
          "type": "uint256"
        },
        {
          "internalType": "bytes",
          "name": "data",
          "type": "bytes"
        }
      ],
      "name": "onTokenBridged",
      "outputs": [],
      "stateMutability": "nonpayable",
      "type": "function"
    },
    {
      "inputs": [],
      "name": "owner",
      "outputs": [
        {
          "internalType": "address",
          "name": "",
          "type": "address"
        }
      ],
      "stateMutability": "view",
      "type": "function"
    },
    {
      "inputs": [],
      "name": "pause",
      "outputs": [],
      "stateMutability": "nonpayable",
      "type": "function"
    },
    {
      "inputs": [],
      "name": "paused",
      "outputs": [
        {
          "internalType": "uint8",
          "name": "",
          "type": "uint8"
        }
      ],
      "stateMutability": "view",
      "type": "function"
    },
    {
      "inputs": [
        {
          "internalType": "bytes",
          "name": "data",
          "type": "bytes"
        }
      ],
      "name": "processDataMaintenance",
      "outputs": [],
      "stateMutability": "nonpayable",
      "type": "function"
    },
    {
      "inputs": [
        {
          "internalType": "bytes",
          "name": "data",
          "type": "bytes"
        }
      ],
      "name": "receiveMessage",
      "outputs": [],
      "stateMutability": "nonpayable",
      "type": "function"
    },
    {
      "inputs": [
        {
          "internalType": "address",
          "name": "target",
          "type": "address"
        },
        {
          "internalType": "uint256",
          "name": "amount",
          "type": "uint256"
        },
        {
          "internalType": "uint256",
          "name": "batchNonce",
          "type": "uint256"
        }
      ],
      "name": "redeem",
      "outputs": [],
      "stateMutability": "nonpayable",
      "type": "function"
    },
    {
      "inputs": [],
      "name": "stakingBatchNonce",
      "outputs": [
        {
          "internalType": "uint256",
          "name": "",
          "type": "uint256"
        }
      ],
      "stateMutability": "view",
      "type": "function"
    },
    {
      "inputs": [],
      "name": "stakingFactory",
      "outputs": [
        {
          "internalType": "address",
          "name": "",
          "type": "address"
        }
      ],
      "stateMutability": "view",
      "type": "function"
    },
    {
      "inputs": [
        {
          "internalType": "bytes32",
          "name": "",
          "type": "bytes32"
        }
      ],
      "name": "stakingQueueingNonces",
      "outputs": [
        {
          "internalType": "bool",
          "name": "",
          "type": "bool"
        }
      ],
      "stateMutability": "view",
      "type": "function"
    },
    {
      "inputs": [
        {
          "internalType": "bytes",
          "name": "bridgePayload",
          "type": "bytes"
        }
      ],
      "name": "syncWithheldTokens",
      "outputs": [],
      "stateMutability": "payable",
      "type": "function"
    },
    {
      "inputs": [],
      "name": "unpause",
      "outputs": [],
      "stateMutability": "nonpayable",
      "type": "function"
    },
    {
      "inputs": [],
      "name": "withheldAmount",
      "outputs": [
        {
          "internalType": "uint256",
          "name": "",
          "type": "uint256"
        }
      ],
      "stateMutability": "view",
      "type": "function"
    },
    {
      "stateMutability": "payable",
      "type": "receive"
    }
  ],
  "bytecode": "0x610140604052348015610010575f80fd5b5060405161286b38038061286b83398101604081905261002f916101d5565b85858585856001600160a01b038516158061005157506001600160a01b038416155b8061006357506001600160a01b038316155b8061007557506001600160a01b038216155b156100935760405163d92e233d60e01b815260040160405180910390fd5b805f036100b357604051637c946ed760e01b815260040160405180910390fd5b60246100c760026001600160401b0361023e565b6100d1919061026f565b6001600160401b031681111561012f578060246100f660026001600160401b0361023e565b610100919061026f565b604051637ae5968560e01b815260048101929092526001600160401b0316602482015260440160405180910390fd5b6001600160a01b0394851660805292841660a05290831660c052821660e052610100526002805460ff60a81b1960ff60a01b1933166001600160a81b031990921691909117600160a01b1716600160a81b17905581166101a25760405163d92e233d60e01b815260040160405180910390fd5b6001600160a01b031661012052506102a29350505050565b80516001600160a01b03811681146101d0575f80fd5b919050565b5f805f805f8060c087890312156101ea575f80fd5b6101f3876101ba565b9550610201602088016101ba565b945061020f604088016101ba565b935061021d606088016101ba565b92506080870151915061023260a088016101ba565b90509295509295509295565b5f6001600160401b038381168061026357634e487b7160e01b5f52601260045260245ffd5b92169190910492915050565b6001600160401b0382811682821603908082111561029b57634e487b7160e01b5f52601160045260245ffd5b5092915050565b60805160a05160c05160e05161010051610120516124e86103835f395f818161058b0152818161138f01526113ea01525f81816105390152611f4101525f81816102ee0152818161143d015281816116ef0152818161176e01528181611e5801528181611ec70152611ef601525f81816102bb0152818161141c015281816114a0015281816116c201528181611dba0152611e2901525f8181610321015261192e01525f81816102470152818161090b015281816109c40152818161117701528181611231015281816112d401528181611ac20152611b8501526124e85ff3fe60806040526004361061019b575f3560e01c8063713d1a4e116100dc578063a7be1b5011610087578063db7af85411610062578063db7af854146105eb578063e3f5aa511461060a578063f4427c2c14610620578063f953cec714610635575f80fd5b8063a7be1b501461057a578063bddc966e146105ad578063ce5494bb146105cc575f80fd5b80639890220b116100b75780639890220b146105145780639b7bb84714610528578063a6f9dae11461055b575f80fd5b8063713d1a4e146104a35780638456cb59146104e15780638da5cb5b146104f5575f80fd5b80632b83cccd1161014757806354d20cc21161012257806354d20cc21461039f5780635a7287cf146104385780635bc105c01461044c5780635c975abb14610460575f80fd5b80632b83cccd146103585780633f4ba83a146103775780634ece6b171461038b575f80fd5b8063256359a811610177578063256359a8146102dd578063291347681461031057806329f404cd14610343575f80fd5b806231d11514610236578063091d2788146102865780631bad5957146102aa575f80fd5b36610232576002546001600160a01b03166101fb576040517fcd3f16590000000000000000000000000000000000000000000000000000000081525f60048201523360248201523060448201523460648201526084015b60405180910390fd5b60405134815233907f8e47b87b0ef542cdfa1659c551d88bad38aa7f452d2bbb349ab7530dfec8be8f9060200160405180910390a2005b5f80fd5b348015610241575f80fd5b506102697f000000000000000000000000000000000000000000000000000000000000000081565b6040516001600160a01b0390911681526020015b60405180910390f35b348015610291575f80fd5b5061029c620493e081565b60405190815260200161027d565b3480156102b5575f80fd5b506102697f000000000000000000000000000000000000000000000000000000000000000081565b3480156102e8575f80fd5b506102697f000000000000000000000000000000000000000000000000000000000000000081565b34801561031b575f80fd5b506102697f000000000000000000000000000000000000000000000000000000000000000081565b610356610351366004611fe3565b610654565b005b348015610363575f80fd5b50610356610372366004612086565b610793565b348015610382575f80fd5b50610356610b6f565b348015610396575f80fd5b5061029c602081565b3480156103aa575f80fd5b5060408051808201909152601581527f726563656976654d6573736167652862797465732900000000000000000000006020909101526104077ff953cec75ae677942d7cda5cb6d12c0cb96a0904bf37d36301eef297b83c411d81565b6040517fffffffff00000000000000000000000000000000000000000000000000000000909116815260200161027d565b348015610443575f80fd5b5061029c5f5481565b348015610457575f80fd5b5061029c610c18565b34801561046b575f80fd5b506002546104919074010000000000000000000000000000000000000000900460ff1681565b60405160ff909116815260200161027d565b3480156104ae575f80fd5b506104d16104bd3660046120b8565b60036020525f908152604090205460ff1681565b604051901515815260200161027d565b3480156104ec575f80fd5b50610356610c44565b348015610500575f80fd5b50600254610269906001600160a01b031681565b34801561051f575f80fd5b5061029c610ced565b348015610533575f80fd5b5061029c7f000000000000000000000000000000000000000000000000000000000000000081565b348015610566575f80fd5b506103566105753660046120cf565b610e9e565b348015610585575f80fd5b506102697f000000000000000000000000000000000000000000000000000000000000000081565b3480156105b8575f80fd5b506103566105c7366004611fe3565b610f7f565b3480156105d7575f80fd5b506103566105e63660046120cf565b610fcb565b3480156105f6575f80fd5b506103566106053660046120f1565b611384565b348015610615575f80fd5b5061029c621e848081565b34801561062b575f80fd5b5061029c60015481565b348015610640575f80fd5b5061035661064f366004611fe3565b61149d565b6002546001600160a81b90910460ff161115610683576040516345f5ce8b60e11b815260040160405180910390fd5b6002805460ff60a81b191675020000000000000000000000000000000000000000001780825560ff740100000000000000000000000000000000000000009091041690036106fd576040517f9e87fac800000000000000000000000000000000000000000000000000000000815260040160405180910390fd5b5f80549081900361073a576040517f7c946ed700000000000000000000000000000000000000000000000000000000815260040160405180910390fd5b5f80556107478183611530565b60405181815233907f1f66db2d1b55aa051fdccd3766b268ce96758f0fd6741988a4ccf060e0e0a3999060200160405180910390a250506002805460ff60a81b1916600160a81b179055565b6002546001600160a81b90910460ff1611156107c2576040516345f5ce8b60e11b815260040160405180910390fd5b6002805460ff60a81b191675020000000000000000000000000000000000000000001780825560ff7401000000000000000000000000000000000000000090910416900361083c576040517f9e87fac800000000000000000000000000000000000000000000000000000000815260040160405180910390fd5b604080516001600160a01b0385166020820152908101839052606081018290525f9060800160408051601f1981840301815291815281516020928301205f818152600390935291205490915060ff16806108db576040517f35433ff10000000000000000000000000000000000000000000000000000000081526001600160a01b038616600482015260248101859052604481018490526064016101f2565b6040517f70a082310000000000000000000000000000000000000000000000000000000081523060048201525f907f00000000000000000000000000000000000000000000000000000000000000006001600160a01b0316906370a0823190602401602060405180830381865afa158015610958573d5f803e3d5ffd5b505050506040513d601f19601f8201168201806040525081019061097c9190612173565b9050848110610b18576040517f095ea7b30000000000000000000000000000000000000000000000000000000081526001600160a01b038781166004830152602482018790527f0000000000000000000000000000000000000000000000000000000000000000169063095ea7b3906044016020604051808303815f875af1158015610a0a573d5f803e3d5ffd5b505050506040513d601f19601f82011682018060405250810190610a2e919061218a565b506040517fb6b55f25000000000000000000000000000000000000000000000000000000008152600481018690526001600160a01b0387169063b6b55f25906024015f604051808303815f87803b158015610a87575f80fd5b505af1158015610a99573d5f803e3d5ffd5b50505050856001600160a01b03167f36d504751ef1ab82703e2675ab3d5e230c810cd1962cec9f40d96f9ca0e881f386604051610ad891815260200190565b60405180910390a25f83815260036020526040902080547fffffffffffffffffffffffffffffffffffffffffffffffffffffffffffffff00169055610b54565b6040517fcf47918100000000000000000000000000000000000000000000000000000000815260048101829052602481018690526044016101f2565b50506002805460ff60a81b1916600160a81b17905550505050565b6002546001600160a01b03163314610baf5760025460405163521eb56d60e11b81523360048201526001600160a01b0390911660248201526044016101f2565b600280547fffffffffffffffffffffff00ffffffffffffffffffffffffffffffffffffffff16740100000000000000000000000000000000000000001790556040517f20e9b9dbd8158c2b961d8645a7d06624a045634bb65f07ef751ae014a65f61f5905f90a1565b6024610c2d600267ffffffffffffffff6121d6565b610c379190612221565b67ffffffffffffffff1681565b6002546001600160a01b03163314610c845760025460405163521eb56d60e11b81523360048201526001600160a01b0390911660248201526044016101f2565b600280547fffffffffffffffffffffff00ffffffffffffffffffffffffffffffffffffffff16740200000000000000000000000000000000000000001790556040517f8ef6a6615a637325c66275a8d4cadb0844f08a758e5a9df369412975bcdcbc48905f90a1565b6002545f906001600160a81b90910460ff161115610d1e576040516345f5ce8b60e11b815260040160405180910390fd5b6002805460ff60a81b1981167502000000000000000000000000000000000000000000179091556001600160a01b03163314610d825760025460405163521eb56d60e11b81523360048201526001600160a01b0390911660248201526044016101f2565b479050805f03610dbe576040517f7c946ed700000000000000000000000000000000000000000000000000000000815260040160405180910390fd5b6040515f90339083908381818185875af1925050503d805f8114610dfd576040519150601f19603f3d011682016040523d82523d5f602084013e610e02565b606091505b5050905080610e52576040517fcd3f16590000000000000000000000000000000000000000000000000000000081525f6004820152306024820152336044820152606481018390526084016101f2565b60405182815233907ff36f4d6622e16a536bbb049064af779cdd483a0b388d347d3752a65f1058bf5b9060200160405180910390a2506002805460ff60a81b1916600160a81b17905590565b6002546001600160a01b03163314610ede5760025460405163521eb56d60e11b81523360048201526001600160a01b0390911660248201526044016101f2565b6001600160a01b038116610f1e576040517fd92e233d00000000000000000000000000000000000000000000000000000000815260040160405180910390fd5b600280547fffffffffffffffffffffffff0000000000000000000000000000000000000000166001600160a01b0383169081179091556040517f4ffd725fc4a22075e9ec71c59edf9c38cdeb588a91b24fc5b61388c5be41282b905f90a250565b6002546001600160a01b03163314610fbf5760025460405163521eb56d60e11b81523360048201526001600160a01b0390911660248201526044016101f2565b610fc8816117c7565b50565b6002546001600160a81b90910460ff161115610ffa576040516345f5ce8b60e11b815260040160405180910390fd5b6002805460ff60a81b1981167502000000000000000000000000000000000000000000179091556001600160a01b0316331461105e5760025460405163521eb56d60e11b81523360048201526001600160a01b0390911660248201526044016101f2565b60025474010000000000000000000000000000000000000000900460ff166001036110b5576040517fa45f47fd00000000000000000000000000000000000000000000000000000000815260040160405180910390fd5b806001600160a01b03163b5f03611103576040517f38e04bf20000000000000000000000000000000000000000000000000000000081526001600160a01b03821660048201526024016101f2565b306001600160a01b03821603611147576040517f38e04bf20000000000000000000000000000000000000000000000000000000081523060048201526024016101f2565b6040517f70a082310000000000000000000000000000000000000000000000000000000081523060048201525f907f00000000000000000000000000000000000000000000000000000000000000006001600160a01b0316906370a0823190602401602060405180830381865afa1580156111c4573d5f803e3d5ffd5b505050506040513d601f19601f820116820180604052508101906111e89190612173565b90508015611318576040517fa9059cbb0000000000000000000000000000000000000000000000000000000081526001600160a01b038381166004830152602482018390525f917f00000000000000000000000000000000000000000000000000000000000000009091169063a9059cbb906044016020604051808303815f875af1158015611279573d5f803e3d5ffd5b505050506040513d601f19601f8201168201806040525081019061129d919061218a565b905080611316576040517fcd3f16590000000000000000000000000000000000000000000000000000000081526001600160a01b037f00000000000000000000000000000000000000000000000000000000000000008116600483015230602483015284166044820152606481018390526084016101f2565b505b600280547fffffffffffffffffffffffff00000000000000000000000000000000000000001690556040518181526001600160a01b0383169033907f928fd5531324ee87d76cc5307dc37580174da76b85cd546da631b2670bc266b59060200160405180910390a35050565b336001600160a01b037f00000000000000000000000000000000000000000000000000000000000000001614611417576040517f2f3111fa0000000000000000000000000000000000000000000000000000000081523360048201526001600160a01b037f00000000000000000000000000000000000000000000000000000000000000001660248201526044016101f2565b6114977f00000000000000000000000000000000000000000000000000000000000000007f000000000000000000000000000000000000000000000000000000000000000084848080601f0160208091040260200160405190810160405280939291908181526020018383808284375f92019190915250611db892505050565b50505050565b5f7f00000000000000000000000000000000000000000000000000000000000000006001600160a01b031663d67bdd256040518163ffffffff1660e01b81526004016020604051808303815f875af11580156114fb573d5f803e3d5ffd5b505050506040513d601f19601f8201168201806040525081019061151f9190612249565b905061152c338284611db8565b5050565b60208151146115785780516040517f34c9027a0000000000000000000000000000000000000000000000000000000081526020600482015260248101919091526044016101f2565b5f8180602001905181019061158d9190612173565b9050620493e08110156115a05750620493e05b621e84808111156115b15750621e84805b604080518082018252601581527f726563656976654d65737361676528627974657329000000000000000000000060209182015281519081018590525f917ff953cec75ae677942d7cda5cb6d12c0cb96a0904bf37d36301eef297b83c411d910160408051601f198184030181529082905261162f91602401612292565b60408051601f198184030181529181526020820180517bffffffffffffffffffffffffffffffffffffffffffffffffffffffff167fffffffff000000000000000000000000000000000000000000000000000000009094169390931790925290517fdc8601b30000000000000000000000000000000000000000000000000000000081529091505f906001600160a01b037f0000000000000000000000000000000000000000000000000000000000000000169063dc8601b39061171b907f000000000000000000000000000000000000000000000000000000000000000090869088906004016122a4565b6020604051808303815f875af1158015611737573d5f803e3d5ffd5b505050506040513d601f19601f8201168201806040525081019061175b9190612173565b6040518681529091506001600160a01b037f00000000000000000000000000000000000000000000000000000000000000001690339083907fa83d78b13a863892266b4308df232e47309c90988775e5bb775241801d41e4709060200160405180910390a45050505050565b6002546001600160a81b90910460ff1611156117f6576040516345f5ce8b60e11b815260040160405180910390fd5b6002805460ff60a81b1916750200000000000000000000000000000000000000000017905580515f9081906118349060209085018101908501612364565b600154600254929450909250905f9074010000000000000000000000000000000000000000900460ff16815b8551811015611d73575f86828151811061187c5761187c612423565b602002602001015190505f86838151811061189957611899612423565b602002602001015190505f826040516024016118c491906001600160a01b0391909116815260200190565b60408051601f198184030181529181526020820180517bffffffffffffffffffffffffffffffffffffffffffffffffffffffff167f1eda94d700000000000000000000000000000000000000000000000000000000179052519091505f9081906001600160a01b037f0000000000000000000000000000000000000000000000000000000000000000169061195a908590612450565b5f604051808303815f865af19150503d805f8114611993576040519150601f19603f3d011682016040523d82523d5f602084013e611998565b606091505b50915091505f8280156119ac575081516020145b156119c857818060200190518101906119c59190612173565b90505b805f03611a29576119d9858a612466565b9850856001600160a01b03167f29bd7fae5899787bb9cb5aa121b781bf47bb44cc44f0f3ddd1e1ea383acd22fb86604051611a1691815260200190565b60405180910390a2505050505050611d6b565b80851115611a92575f611a3c828761247f565b9050611a48818b612466565b9950819550866001600160a01b03167f29bd7fae5899787bb9cb5aa121b781bf47bb44cc44f0f3ddd1e1ea383acd22fb82604051611a8891815260200190565b60405180910390a2505b6040517f70a0823100000000000000000000000000000000000000000000000000000000815230600482015285907f00000000000000000000000000000000000000000000000000000000000000006001600160a01b0316906370a0823190602401602060405180830381865afa158015611b0f573d5f803e3d5ffd5b505050506040513d601f19601f82011682018060405250810190611b339190612173565b10158015611b415750876001145b15611ca6576040517f095ea7b30000000000000000000000000000000000000000000000000000000081526001600160a01b038781166004830152602482018790527f0000000000000000000000000000000000000000000000000000000000000000169063095ea7b3906044016020604051808303815f875af1158015611bcb573d5f803e3d5ffd5b505050506040513d601f19601f82011682018060405250810190611bef919061218a565b506040517fb6b55f25000000000000000000000000000000000000000000000000000000008152600481018690526001600160a01b0387169063b6b55f25906024015f604051808303815f87803b158015611c48575f80fd5b505af1158015611c5a573d5f803e3d5ffd5b50505050856001600160a01b03167f36d504751ef1ab82703e2675ab3d5e230c810cd1962cec9f40d96f9ca0e881f386604051611c9991815260200190565b60405180910390a2611d64565b604080516001600160a01b0388166020820152908101869052606081018b90525f9060800160408051601f1981840301815282825280516020918201205f8181526003835283902080547fffffffffffffffffffffffffffffffffffffffffffffffffffffffffffffff001660011790558984529083018e90529082018b905291506001600160a01b0388169082907f207f76ffdb73024e39870ab39aa1ad395275ce4714e752c30ddd8fea79a916e89060600160405180910390a3505b5050505050505b600101611860565b50611d7f836001612466565b6001558115610b5457815f80828254611d989190612466565b909155505050506002805460ff60a81b1916600160a81b17905550505050565b7f00000000000000000000000000000000000000000000000000000000000000006001600160a01b0316836001600160a01b031614611e56576040517f2f3111fa0000000000000000000000000000000000000000000000000000000081526001600160a01b0380851660048301527f00000000000000000000000000000000000000000000000000000000000000001660248201526044016101f2565b7f00000000000000000000000000000000000000000000000000000000000000006001600160a01b0316826001600160a01b031614611ef4576040517f0d16cbdd0000000000000000000000000000000000000000000000000000000081526001600160a01b0380841660048301527f00000000000000000000000000000000000000000000000000000000000000001660248201526044016101f2565b7f00000000000000000000000000000000000000000000000000000000000000006001600160a01b03167f98bbde530ec85b002f6fb0864beccaaf3ac3d2a4ac35cb3b03cf7c61ee415e337f000000000000000000000000000000000000000000000000000000000000000083604051611f6f929190612492565b60405180910390a2611f80816117c7565b505050565b7f4e487b71000000000000000000000000000000000000000000000000000000005f52604160045260245ffd5b604051601f8201601f1916810167ffffffffffffffff81118282101715611fdb57611fdb611f85565b604052919050565b5f6020808385031215611ff4575f80fd5b823567ffffffffffffffff8082111561200b575f80fd5b818501915085601f83011261201e575f80fd5b81358181111561203057612030611f85565b61204284601f19601f84011601611fb2565b91508082528684828501011115612057575f80fd5b80848401858401375f90820190930192909252509392505050565b6001600160a01b0381168114610fc8575f80fd5b5f805f60608486031215612098575f80fd5b83356120a381612072565b95602085013595506040909401359392505050565b5f602082840312156120c8575f80fd5b5035919050565b5f602082840312156120df575f80fd5b81356120ea81612072565b9392505050565b5f805f8060608587031215612104575f80fd5b843561210f81612072565b935060208501359250604085013567ffffffffffffffff80821115612132575f80fd5b818701915087601f830112612145575f80fd5b813581811115612153575f80fd5b886020828501011115612164575f80fd5b95989497505060200194505050565b5f60208284031215612183575f80fd5b5051919050565b5f6020828403121561219a575f80fd5b815180151581146120ea575f80fd5b7f4e487b71000000000000000000000000000000000000000000000000000000005f52601160045260245ffd5b5f67ffffffffffffffff80841680612215577f4e487b71000000000000000000000000000000000000000000000000000000005f52601260045260245ffd5b92169190910492915050565b67ffffffffffffffff828116828216039080821115612242576122426121a9565b5092915050565b5f60208284031215612259575f80fd5b81516120ea81612072565b5f81518084528060208401602086015e5f602082860101526020601f19601f83011685010191505092915050565b602081525f6120ea6020830184612264565b6001600160a01b0384168152606060208201525f6122c56060830185612264565b9050826040830152949350505050565b5f67ffffffffffffffff8211156122ee576122ee611f85565b5060051b60200190565b5f82601f830112612307575f80fd5b8151602061231c612317836122d5565b611fb2565b8083825260208201915060208460051b87010193508684111561233d575f80fd5b602086015b848110156123595780518352918301918301612342565b509695505050505050565b5f8060408385031215612375575f80fd5b825167ffffffffffffffff8082111561238c575f80fd5b818501915085601f83011261239f575f80fd5b815160206123af612317836122d5565b82815260059290921b840181019181810190898411156123cd575f80fd5b948201945b838610156123f45785516123e581612072565b825294820194908201906123d2565b9188015191965090935050508082111561240c575f80fd5b50612419858286016122f8565b9150509250929050565b7f4e487b71000000000000000000000000000000000000000000000000000000005f52603260045260245ffd5b5f82518060208501845e5f920191825250919050565b80820180821115612479576124796121a9565b92915050565b81810381811115612479576124796121a9565b828152604060208201525f6124aa6040830184612264565b94935050505056fea2646970667358221220b9533b08791e497c0bf7a259452423e4939bb81b2e4a4c6a009cb6e28c644e3464736f6c63430008190033",
  "linkReferences": {},
  "deployedLinkReferences": {}
}