{
  "_format": "hh-sol-artifact-1",
  "contractName": "OptimismTargetDispenserL2",
  "sourceName": "contracts/staking/OptimismTargetDispenserL2.sol",
  "abi": [
    {
      "inputs": [
        {
          "internalType": "address",
          "name": "_olas",
          "type": "address"
        },
        {
          "internalType": "address",
          "name": "_proxyFactory",
          "type": "address"
        },
        {
          "internalType": "address",
          "name": "_l2MessageRelayer",
          "type": "address"
        },
        {
          "internalType": "address",
          "name": "_l1DepositProcessor",
          "type": "address"
        },
        {
          "internalType": "uint256",
          "name": "_l1SourceChainId",
          "type": "uint256"
        }
      ],
      "stateMutability": "nonpayable",
      "type": "constructor"
    },
    {
      "inputs": [
        {
          "internalType": "bytes32",
          "name": "deliveryHash",
          "type": "bytes32"
        }
      ],
      "name": "AlreadyDelivered",
      "type": "error"
    },
    {
      "inputs": [
        {
          "internalType": "uint256",
          "name": "expected",
          "type": "uint256"
        },
        {
          "internalType": "uint256",
          "name": "provided",
          "type": "uint256"
        }
      ],
      "name": "IncorrectDataLength",
      "type": "error"
    },
    {
      "inputs": [
        {
          "internalType": "uint256",
          "name": "provided",
          "type": "uint256"
        },
        {
          "internalType": "uint256",
          "name": "expected",
          "type": "uint256"
        }
      ],
      "name": "InsufficientBalance",
      "type": "error"
    },
    {
      "inputs": [
        {
          "internalType": "uint256",
          "name": "provided",
          "type": "uint256"
        },
        {
          "internalType": "uint256",
          "name": "expected",
          "type": "uint256"
        }
      ],
      "name": "LowerThan",
      "type": "error"
    },
    {
      "inputs": [
        {
          "internalType": "address",
          "name": "sender",
          "type": "address"
        },
        {
          "internalType": "address",
          "name": "manager",
          "type": "address"
        }
      ],
      "name": "ManagerOnly",
      "type": "error"
    },
    {
      "inputs": [
        {
          "internalType": "uint256",
          "name": "provided",
          "type": "uint256"
        },
        {
          "internalType": "uint256",
          "name": "max",
          "type": "uint256"
        }
      ],
      "name": "Overflow",
      "type": "error"
    },
    {
      "inputs": [
        {
          "internalType": "address",
          "name": "sender",
          "type": "address"
        },
        {
          "internalType": "address",
          "name": "owner",
          "type": "address"
        }
      ],
      "name": "OwnerOnly",
      "type": "error"
    },
    {
      "inputs": [],
      "name": "Paused",
      "type": "error"
    },
    {
      "inputs": [],
      "name": "ReentrancyGuard",
      "type": "error"
    },
    {
      "inputs": [
        {
          "internalType": "address",
          "name": "target",
          "type": "address"
        },
        {
          "internalType": "uint256",
          "name": "amount",
          "type": "uint256"
        },
        {
          "internalType": "uint256",
          "name": "batchNonce",
          "type": "uint256"
        }
      ],
      "name": "TargetAmountNotQueued",
      "type": "error"
    },
    {
      "inputs": [
        {
          "internalType": "address",
          "name": "provided",
          "type": "address"
        },
        {
          "internalType": "address",
          "name": "expected",
          "type": "address"
        }
      ],
      "name": "TargetRelayerOnly",
      "type": "error"
    },
    {
      "inputs": [
        {
          "internalType": "address",
          "name": "token",
          "type": "address"
        },
        {
          "internalType": "address",
          "name": "from",
          "type": "address"
        },
        {
          "internalType": "address",
          "name": "to",
          "type": "address"
        },
        {
          "internalType": "uint256",
          "name": "amount",
          "type": "uint256"
        }
      ],
      "name": "TransferFailed",
      "type": "error"
    },
    {
      "inputs": [],
      "name": "Unpaused",
      "type": "error"
    },
    {
      "inputs": [
        {
          "internalType": "address",
          "name": "account",
          "type": "address"
        }
      ],
      "name": "WrongAccount",
      "type": "error"
    },
    {
      "inputs": [
        {
          "internalType": "uint256",
          "name": "provided",
          "type": "uint256"
        },
        {
          "internalType": "uint256",
          "name": "expected",
          "type": "uint256"
        }
      ],
      "name": "WrongAmount",
      "type": "error"
    },
    {
      "inputs": [
        {
          "internalType": "uint256",
          "name": "provided",
          "type": "uint256"
        },
        {
          "internalType": "uint256",
          "name": "expected",
          "type": "uint256"
        }
      ],
      "name": "WrongChainId",
      "type": "error"
    },
    {
      "inputs": [
        {
          "internalType": "address",
          "name": "provided",
          "type": "address"
        },
        {
          "internalType": "address",
          "name": "expected",
          "type": "address"
        }
      ],
      "name": "WrongMessageSender",
      "type": "error"
    },
    {
      "inputs": [
        {
          "internalType": "address",
          "name": "provided",
          "type": "address"
        },
        {
          "internalType": "address",
          "name": "expected",
          "type": "address"
        }
      ],
      "name": "WrongTokenAddress",
      "type": "error"
    },
    {
      "inputs": [],
      "name": "ZeroAddress",
      "type": "error"
    },
    {
      "inputs": [],
      "name": "ZeroValue",
      "type": "error"
    },
    {
      "anonymous": false,
      "inputs": [
        {
          "indexed": true,
          "internalType": "address",
          "name": "target",
          "type": "address"
        },
        {
          "indexed": false,
          "internalType": "uint256",
          "name": "amount",
          "type": "uint256"
        }
      ],
      "name": "AmountWithheld",
      "type": "event"
    },
    {
      "anonymous": false,
      "inputs": [
        {
          "indexed": true,
          "internalType": "address",
          "name": "owner",
          "type": "address"
        },
        {
          "indexed": false,
          "internalType": "uint256",
          "name": "amount",
          "type": "uint256"
        }
      ],
      "name": "Drain",
      "type": "event"
    },
    {
      "anonymous": false,
      "inputs": [
        {
          "indexed": true,
          "internalType": "address",
          "name": "sender",
          "type": "address"
        },
        {
          "indexed": false,
          "internalType": "uint256",
          "name": "value",
          "type": "uint256"
        }
      ],
      "name": "FundsReceived",
      "type": "event"
    },
    {
      "anonymous": false,
      "inputs": [
        {
          "indexed": true,
          "internalType": "uint256",
          "name": "sequence",
          "type": "uint256"
        },
        {
          "indexed": true,
          "internalType": "address",
          "name": "messageSender",
          "type": "address"
        },
        {
          "indexed": true,
          "internalType": "address",
          "name": "l1Processor",
          "type": "address"
        },
        {
          "indexed": false,
          "internalType": "uint256",
          "name": "amount",
          "type": "uint256"
        }
      ],
      "name": "MessagePosted",
      "type": "event"
    },
    {
      "anonymous": false,
      "inputs": [
        {
          "indexed": true,
          "internalType": "address",
          "name": "sender",
          "type": "address"
        },
        {
          "indexed": false,
          "internalType": "uint256",
          "name": "chainId",
          "type": "uint256"
        },
        {
          "indexed": false,
          "internalType": "bytes",
          "name": "data",
          "type": "bytes"
        }
      ],
      "name": "MessageReceived",
      "type": "event"
    },
    {
      "anonymous": false,
      "inputs": [
        {
          "indexed": true,
          "internalType": "address",
          "name": "sender",
          "type": "address"
        },
        {
          "indexed": true,
          "internalType": "address",
          "name": "newL2TargetDispenser",
          "type": "address"
        },
        {
          "indexed": false,
          "internalType": "uint256",
          "name": "amount",
          "type": "uint256"
        }
      ],
      "name": "Migrated",
      "type": "event"
    },
    {
      "anonymous": false,
      "inputs": [
        {
          "indexed": true,
          "internalType": "address",
          "name": "owner",
          "type": "address"
        }
      ],
      "name": "OwnerUpdated",
      "type": "event"
    },
    {
      "anonymous": false,
      "inputs": [
        {
          "indexed": true,
          "internalType": "bytes32",
          "name": "queueHash",
          "type": "bytes32"
        },
        {
          "indexed": true,
          "internalType": "address",
          "name": "target",
          "type": "address"
        },
        {
          "indexed": false,
          "internalType": "uint256",
          "name": "amount",
          "type": "uint256"
        },
        {
          "indexed": false,
          "internalType": "uint256",
          "name": "batchNonce",
          "type": "uint256"
        },
        {
          "indexed": false,
          "internalType": "uint256",
          "name": "paused",
          "type": "uint256"
        }
      ],
      "name": "StakingRequestQueued",
      "type": "event"
    },
    {
      "anonymous": false,
      "inputs": [
        {
          "indexed": true,
          "internalType": "address",
          "name": "target",
          "type": "address"
        },
        {
          "indexed": false,
          "internalType": "uint256",
          "name": "amount",
          "type": "uint256"
        }
      ],
      "name": "StakingTargetDeposited",
      "type": "event"
    },
    {
      "anonymous": false,
      "inputs": [],
      "name": "TargetDispenserPaused",
      "type": "event"
    },
    {
      "anonymous": false,
      "inputs": [],
      "name": "TargetDispenserUnpaused",
      "type": "event"
    },
    {
      "anonymous": false,
      "inputs": [
        {
          "indexed": true,
          "internalType": "address",
          "name": "sender",
          "type": "address"
        },
        {
          "indexed": false,
          "internalType": "uint256",
          "name": "amount",
          "type": "uint256"
        }
      ],
      "name": "WithheldAmountSynced",
      "type": "event"
    },
    {
      "inputs": [],
      "name": "BRIDGE_PAYLOAD_LENGTH",
      "outputs": [
        {
          "internalType": "uint256",
          "name": "",
          "type": "uint256"
        }
      ],
      "stateMutability": "view",
      "type": "function"
    },
    {
      "inputs": [],
      "name": "GAS_LIMIT",
      "outputs": [
        {
          "internalType": "uint256",
          "name": "",
          "type": "uint256"
        }
      ],
      "stateMutability": "view",
      "type": "function"
    },
    {
      "inputs": [],
      "name": "MAX_CHAIN_ID",
      "outputs": [
        {
          "internalType": "uint256",
          "name": "",
          "type": "uint256"
        }
      ],
      "stateMutability": "view",
      "type": "function"
    },
    {
      "inputs": [],
      "name": "MAX_GAS_LIMIT",
      "outputs": [
        {
          "internalType": "uint256",
          "name": "",
          "type": "uint256"
        }
      ],
      "stateMutability": "view",
      "type": "function"
    },
    {
      "inputs": [],
      "name": "RECEIVE_MESSAGE",
      "outputs": [
        {
          "internalType": "bytes4",
          "name": "",
          "type": "bytes4"
        }
      ],
      "stateMutability": "view",
      "type": "function"
    },
    {
      "inputs": [
        {
          "internalType": "address",
          "name": "newOwner",
          "type": "address"
        }
      ],
      "name": "changeOwner",
      "outputs": [],
      "stateMutability": "nonpayable",
      "type": "function"
    },
    {
      "inputs": [],
      "name": "drain",
      "outputs": [
        {
          "internalType": "uint256",
          "name": "amount",
          "type": "uint256"
        }
      ],
      "stateMutability": "nonpayable",
      "type": "function"
    },
    {
      "inputs": [],
      "name": "l1DepositProcessor",
      "outputs": [
        {
          "internalType": "address",
          "name": "",
          "type": "address"
        }
      ],
      "stateMutability": "view",
      "type": "function"
    },
    {
      "inputs": [],
      "name": "l1SourceChainId",
      "outputs": [
        {
          "internalType": "uint256",
          "name": "",
          "type": "uint256"
        }
      ],
      "stateMutability": "view",
      "type": "function"
    },
    {
      "inputs": [],
      "name": "l2MessageRelayer",
      "outputs": [
        {
          "internalType": "address",
          "name": "",
          "type": "address"
        }
      ],
      "stateMutability": "view",
      "type": "function"
    },
    {
      "inputs": [
        {
          "internalType": "address",
          "name": "newL2TargetDispenser",
          "type": "address"
        }
      ],
      "name": "migrate",
      "outputs": [],
      "stateMutability": "nonpayable",
      "type": "function"
    },
    {
      "inputs": [],
      "name": "olas",
      "outputs": [
        {
          "internalType": "address",
          "name": "",
          "type": "address"
        }
      ],
      "stateMutability": "view",
      "type": "function"
    },
    {
      "inputs": [],
      "name": "owner",
      "outputs": [
        {
          "internalType": "address",
          "name": "",
          "type": "address"
        }
      ],
      "stateMutability": "view",
      "type": "function"
    },
    {
      "inputs": [],
      "name": "pause",
      "outputs": [],
      "stateMutability": "nonpayable",
      "type": "function"
    },
    {
      "inputs": [],
      "name": "paused",
      "outputs": [
        {
          "internalType": "uint8",
          "name": "",
          "type": "uint8"
        }
      ],
      "stateMutability": "view",
      "type": "function"
    },
    {
      "inputs": [
        {
          "internalType": "bytes",
          "name": "data",
          "type": "bytes"
        }
      ],
      "name": "processDataMaintenance",
      "outputs": [],
      "stateMutability": "nonpayable",
      "type": "function"
    },
    {
      "inputs": [
        {
          "internalType": "bytes",
          "name": "data",
          "type": "bytes"
        }
      ],
      "name": "receiveMessage",
      "outputs": [],
      "stateMutability": "payable",
      "type": "function"
    },
    {
      "inputs": [
        {
          "internalType": "address",
          "name": "target",
          "type": "address"
        },
        {
          "internalType": "uint256",
          "name": "amount",
          "type": "uint256"
        },
        {
          "internalType": "uint256",
          "name": "batchNonce",
          "type": "uint256"
        }
      ],
      "name": "redeem",
      "outputs": [],
      "stateMutability": "nonpayable",
      "type": "function"
    },
    {
      "inputs": [],
      "name": "stakingBatchNonce",
      "outputs": [
        {
          "internalType": "uint256",
          "name": "",
          "type": "uint256"
        }
      ],
      "stateMutability": "view",
      "type": "function"
    },
    {
      "inputs": [],
      "name": "stakingFactory",
      "outputs": [
        {
          "internalType": "address",
          "name": "",
          "type": "address"
        }
      ],
      "stateMutability": "view",
      "type": "function"
    },
    {
      "inputs": [
        {
          "internalType": "bytes32",
          "name": "",
          "type": "bytes32"
        }
      ],
      "name": "stakingQueueingNonces",
      "outputs": [
        {
          "internalType": "bool",
          "name": "",
          "type": "bool"
        }
      ],
      "stateMutability": "view",
      "type": "function"
    },
    {
      "inputs": [
        {
          "internalType": "bytes",
          "name": "bridgePayload",
          "type": "bytes"
        }
      ],
      "name": "syncWithheldTokens",
      "outputs": [],
      "stateMutability": "payable",
      "type": "function"
    },
    {
      "inputs": [],
      "name": "unpause",
      "outputs": [],
      "stateMutability": "nonpayable",
      "type": "function"
    },
    {
      "inputs": [],
      "name": "withheldAmount",
      "outputs": [
        {
          "internalType": "uint256",
          "name": "",
          "type": "uint256"
        }
      ],
      "stateMutability": "view",
      "type": "function"
    },
    {
      "stateMutability": "payable",
      "type": "receive"
    }
  ],
  "bytecode": "0x610120604052348015610010575f80fd5b5060405161269938038061269983398101604081905261002f916101aa565b84848484846001600160a01b038516158061005157506001600160a01b038416155b8061006357506001600160a01b038316155b8061007557506001600160a01b038216155b156100935760405163d92e233d60e01b815260040160405180910390fd5b805f036100b357604051637c946ed760e01b815260040160405180910390fd5b60246100c760026001600160401b03610204565b6100d19190610235565b6001600160401b031681111561012f578060246100f660026001600160401b03610204565b6101009190610235565b604051637ae5968560e01b815260048101929092526001600160401b0316602482015260440160405180910390fd5b6001600160a01b0394851660805292841660a05290831660c05290911660e0526101005250506002805460ff60a81b1960ff60a01b1933166001600160a81b031990921691909117600160a01b1716600160a81b17905550610268915050565b80516001600160a01b03811681146101a5575f80fd5b919050565b5f805f805f60a086880312156101be575f80fd5b6101c78661018f565b94506101d56020870161018f565b93506101e36040870161018f565b92506101f16060870161018f565b9150608086015190509295509295909350565b5f6001600160401b038381168061022957634e487b7160e01b5f52601260045260245ffd5b92169190910492915050565b6001600160401b0382811682821603908082111561026157634e487b7160e01b5f52601160045260245ffd5b5092915050565b60805160a05160c05160e051610100516123766103235f395f81816105230152611e2901525f81816102d8015281816115e00152818161163c01528181611d4001528181611daf0152611dde01525f81816102a501528181611313015281816115b101528181611ca20152611d1101525f818161030b015261181601525f8181610231015281816108970152818161095001528181611103015281816111bd01528181611260015281816119aa0152611a6d01526123765ff3fe608060405260043610610185575f3560e01c80635c975abb116100d1578063a6f9dae11161007c578063e3f5aa5111610057578063e3f5aa51146105a2578063f4427c2c146105b8578063f953cec7146105cd575f80fd5b8063a6f9dae114610545578063bddc966e14610564578063ce5494bb14610583575f80fd5b80638da5cb5b116100ac5780638da5cb5b146104df5780639890220b146104fe5780639b7bb84714610512575f80fd5b80635c975abb1461044a578063713d1a4e1461048d5780638456cb59146104cb575f80fd5b80632b83cccd1161013157806354d20cc21161010c57806354d20cc2146103895780635a7287cf146104225780635bc105c014610436575f80fd5b80632b83cccd146103425780633f4ba83a146103615780634ece6b1714610375575f80fd5b8063256359a811610161578063256359a8146102c757806329134768146102fa57806329f404cd1461032d575f80fd5b806231d11514610220578063091d2788146102705780631bad595714610294575f80fd5b3661021c576002546001600160a01b03166101e5576040517fcd3f16590000000000000000000000000000000000000000000000000000000081525f60048201523360248201523060448201523460648201526084015b60405180910390fd5b60405134815233907f8e47b87b0ef542cdfa1659c551d88bad38aa7f452d2bbb349ab7530dfec8be8f9060200160405180910390a2005b5f80fd5b34801561022b575f80fd5b506102537f000000000000000000000000000000000000000000000000000000000000000081565b6040516001600160a01b0390911681526020015b60405180910390f35b34801561027b575f80fd5b50610286620493e081565b604051908152602001610267565b34801561029f575f80fd5b506102537f000000000000000000000000000000000000000000000000000000000000000081565b3480156102d2575f80fd5b506102537f000000000000000000000000000000000000000000000000000000000000000081565b348015610305575f80fd5b506102537f000000000000000000000000000000000000000000000000000000000000000081565b61034061033b366004611ecb565b6105e0565b005b34801561034d575f80fd5b5061034061035c366004611f6e565b61071f565b34801561036c575f80fd5b50610340610afb565b348015610380575f80fd5b50610286604081565b348015610394575f80fd5b5060408051808201909152601581527f726563656976654d6573736167652862797465732900000000000000000000006020909101526103f17ff953cec75ae677942d7cda5cb6d12c0cb96a0904bf37d36301eef297b83c411d81565b6040517fffffffff000000000000000000000000000000000000000000000000000000009091168152602001610267565b34801561042d575f80fd5b506102865f5481565b348015610441575f80fd5b50610286610ba4565b348015610455575f80fd5b5060025461047b9074010000000000000000000000000000000000000000900460ff1681565b60405160ff9091168152602001610267565b348015610498575f80fd5b506104bb6104a7366004611fa0565b60036020525f908152604090205460ff1681565b6040519015158152602001610267565b3480156104d6575f80fd5b50610340610bd0565b3480156104ea575f80fd5b50600254610253906001600160a01b031681565b348015610509575f80fd5b50610286610c79565b34801561051d575f80fd5b506102867f000000000000000000000000000000000000000000000000000000000000000081565b348015610550575f80fd5b5061034061055f366004611fb7565b610e2a565b34801561056f575f80fd5b5061034061057e366004611ecb565b610f0b565b34801561058e575f80fd5b5061034061059d366004611fb7565b610f57565b3480156105ad575f80fd5b50610286621e848081565b3480156105c3575f80fd5b5061028660015481565b6103406105db366004611ecb565b611310565b6002546001600160a81b90910460ff16111561060f576040516345f5ce8b60e11b815260040160405180910390fd5b6002805460ff60a81b191675020000000000000000000000000000000000000000001780825560ff74010000000000000000000000000000000000000000909104169003610689576040517f9e87fac800000000000000000000000000000000000000000000000000000000815260040160405180910390fd5b5f8054908190036106c6576040517f7c946ed700000000000000000000000000000000000000000000000000000000815260040160405180910390fd5b5f80556106d381836113a2565b60405181815233907f1f66db2d1b55aa051fdccd3766b268ce96758f0fd6741988a4ccf060e0e0a3999060200160405180910390a250506002805460ff60a81b1916600160a81b179055565b6002546001600160a81b90910460ff16111561074e576040516345f5ce8b60e11b815260040160405180910390fd5b6002805460ff60a81b191675020000000000000000000000000000000000000000001780825560ff740100000000000000000000000000000000000000009091041690036107c8576040517f9e87fac800000000000000000000000000000000000000000000000000000000815260040160405180910390fd5b604080516001600160a01b0385166020820152908101839052606081018290525f9060800160408051601f1981840301815291815281516020928301205f818152600390935291205490915060ff1680610867576040517f35433ff10000000000000000000000000000000000000000000000000000000081526001600160a01b038616600482015260248101859052604481018490526064016101dc565b6040517f70a082310000000000000000000000000000000000000000000000000000000081523060048201525f907f00000000000000000000000000000000000000000000000000000000000000006001600160a01b0316906370a0823190602401602060405180830381865afa1580156108e4573d5f803e3d5ffd5b505050506040513d601f19601f820116820180604052508101906109089190611fd9565b9050848110610aa4576040517f095ea7b30000000000000000000000000000000000000000000000000000000081526001600160a01b038781166004830152602482018790527f0000000000000000000000000000000000000000000000000000000000000000169063095ea7b3906044016020604051808303815f875af1158015610996573d5f803e3d5ffd5b505050506040513d601f19601f820116820180604052508101906109ba9190611ff0565b506040517fb6b55f25000000000000000000000000000000000000000000000000000000008152600481018690526001600160a01b0387169063b6b55f25906024015f604051808303815f87803b158015610a13575f80fd5b505af1158015610a25573d5f803e3d5ffd5b50505050856001600160a01b03167f36d504751ef1ab82703e2675ab3d5e230c810cd1962cec9f40d96f9ca0e881f386604051610a6491815260200190565b60405180910390a25f83815260036020526040902080547fffffffffffffffffffffffffffffffffffffffffffffffffffffffffffffff00169055610ae0565b6040517fcf47918100000000000000000000000000000000000000000000000000000000815260048101829052602481018690526044016101dc565b50506002805460ff60a81b1916600160a81b17905550505050565b6002546001600160a01b03163314610b3b5760025460405163521eb56d60e11b81523360048201526001600160a01b0390911660248201526044016101dc565b600280547fffffffffffffffffffffff00ffffffffffffffffffffffffffffffffffffffff16740100000000000000000000000000000000000000001790556040517f20e9b9dbd8158c2b961d8645a7d06624a045634bb65f07ef751ae014a65f61f5905f90a1565b6024610bb9600267ffffffffffffffff61203c565b610bc39190612087565b67ffffffffffffffff1681565b6002546001600160a01b03163314610c105760025460405163521eb56d60e11b81523360048201526001600160a01b0390911660248201526044016101dc565b600280547fffffffffffffffffffffff00ffffffffffffffffffffffffffffffffffffffff16740200000000000000000000000000000000000000001790556040517f8ef6a6615a637325c66275a8d4cadb0844f08a758e5a9df369412975bcdcbc48905f90a1565b6002545f906001600160a81b90910460ff161115610caa576040516345f5ce8b60e11b815260040160405180910390fd5b6002805460ff60a81b1981167502000000000000000000000000000000000000000000179091556001600160a01b03163314610d0e5760025460405163521eb56d60e11b81523360048201526001600160a01b0390911660248201526044016101dc565b479050805f03610d4a576040517f7c946ed700000000000000000000000000000000000000000000000000000000815260040160405180910390fd5b6040515f90339083908381818185875af1925050503d805f8114610d89576040519150601f19603f3d011682016040523d82523d5f602084013e610d8e565b606091505b5050905080610dde576040517fcd3f16590000000000000000000000000000000000000000000000000000000081525f6004820152306024820152336044820152606481018390526084016101dc565b60405182815233907ff36f4d6622e16a536bbb049064af779cdd483a0b388d347d3752a65f1058bf5b9060200160405180910390a2506002805460ff60a81b1916600160a81b17905590565b6002546001600160a01b03163314610e6a5760025460405163521eb56d60e11b81523360048201526001600160a01b0390911660248201526044016101dc565b6001600160a01b038116610eaa576040517fd92e233d00000000000000000000000000000000000000000000000000000000815260040160405180910390fd5b600280547fffffffffffffffffffffffff0000000000000000000000000000000000000000166001600160a01b0383169081179091556040517f4ffd725fc4a22075e9ec71c59edf9c38cdeb588a91b24fc5b61388c5be41282b905f90a250565b6002546001600160a01b03163314610f4b5760025460405163521eb56d60e11b81523360048201526001600160a01b0390911660248201526044016101dc565b610f54816116af565b50565b6002546001600160a81b90910460ff161115610f86576040516345f5ce8b60e11b815260040160405180910390fd5b6002805460ff60a81b1981167502000000000000000000000000000000000000000000179091556001600160a01b03163314610fea5760025460405163521eb56d60e11b81523360048201526001600160a01b0390911660248201526044016101dc565b60025474010000000000000000000000000000000000000000900460ff16600103611041576040517fa45f47fd00000000000000000000000000000000000000000000000000000000815260040160405180910390fd5b806001600160a01b03163b5f0361108f576040517f38e04bf20000000000000000000000000000000000000000000000000000000081526001600160a01b03821660048201526024016101dc565b306001600160a01b038216036110d3576040517f38e04bf20000000000000000000000000000000000000000000000000000000081523060048201526024016101dc565b6040517f70a082310000000000000000000000000000000000000000000000000000000081523060048201525f907f00000000000000000000000000000000000000000000000000000000000000006001600160a01b0316906370a0823190602401602060405180830381865afa158015611150573d5f803e3d5ffd5b505050506040513d601f19601f820116820180604052508101906111749190611fd9565b905080156112a4576040517fa9059cbb0000000000000000000000000000000000000000000000000000000081526001600160a01b038381166004830152602482018390525f917f00000000000000000000000000000000000000000000000000000000000000009091169063a9059cbb906044016020604051808303815f875af1158015611205573d5f803e3d5ffd5b505050506040513d601f19601f820116820180604052508101906112299190611ff0565b9050806112a2576040517fcd3f16590000000000000000000000000000000000000000000000000000000081526001600160a01b037f00000000000000000000000000000000000000000000000000000000000000008116600483015230602483015284166044820152606481018390526084016101dc565b505b600280547fffffffffffffffffffffffff00000000000000000000000000000000000000001690556040518181526001600160a01b0383169033907f928fd5531324ee87d76cc5307dc37580174da76b85cd546da631b2670bc266b59060200160405180910390a35050565b5f7f00000000000000000000000000000000000000000000000000000000000000006001600160a01b0316636e296e456040518163ffffffff1660e01b8152600401602060405180830381865afa15801561136d573d5f803e3d5ffd5b505050506040513d601f19601f8201168201806040525081019061139191906120af565b905061139e338284611ca0565b5050565b60408151146113ea578051604080517f34c9027a0000000000000000000000000000000000000000000000000000000081526101dc9290600401918252602082015260400190565b5f808280602001905181019061140091906120ca565b91509150815f0361143d576040517f7c946ed700000000000000000000000000000000000000000000000000000000815260040160405180910390fd5b34821115611480576040517f491a2bb1000000000000000000000000000000000000000000000000000000008152346004820152602481018390526044016101dc565b620493e08110156114915750620493e05b621e84808111156114a25750621e84805b604080518082018252601581527f726563656976654d65737361676528627974657329000000000000000000000060209182015281519081018690525f917ff953cec75ae677942d7cda5cb6d12c0cb96a0904bf37d36301eef297b83c411d910160408051601f19818403018152908290526115209160240161211a565b60408051601f198184030181529181526020820180517bffffffffffffffffffffffffffffffffffffffffffffffffffffffff167fffffffff000000000000000000000000000000000000000000000000000000009094169390931790925290517f3dbb202b0000000000000000000000000000000000000000000000000000000081529091506001600160a01b037f00000000000000000000000000000000000000000000000000000000000000001690633dbb202b90859061160c907f0000000000000000000000000000000000000000000000000000000000000000908690889060040161212c565b5f604051808303818588803b158015611623575f80fd5b505af1158015611635573d5f803e3d5ffd5b50505050507f00000000000000000000000000000000000000000000000000000000000000006001600160a01b0316336001600160a01b03165f7fa83d78b13a863892266b4308df232e47309c90988775e5bb775241801d41e470886040516116a091815260200190565b60405180910390a45050505050565b6002546001600160a81b90910460ff1611156116de576040516345f5ce8b60e11b815260040160405180910390fd5b6002805460ff60a81b1916750200000000000000000000000000000000000000000017905580515f90819061171c90602090850181019085016121f2565b600154600254929450909250905f9074010000000000000000000000000000000000000000900460ff16815b8551811015611c5b575f868281518110611764576117646122b1565b602002602001015190505f868381518110611781576117816122b1565b602002602001015190505f826040516024016117ac91906001600160a01b0391909116815260200190565b60408051601f198184030181529181526020820180517bffffffffffffffffffffffffffffffffffffffffffffffffffffffff167f1eda94d700000000000000000000000000000000000000000000000000000000179052519091505f9081906001600160a01b037f000000000000000000000000000000000000000000000000000000000000000016906118429085906122de565b5f604051808303815f865af19150503d805f811461187b576040519150601f19603f3d011682016040523d82523d5f602084013e611880565b606091505b50915091505f828015611894575081516020145b156118b057818060200190518101906118ad9190611fd9565b90505b805f03611911576118c1858a6122f4565b9850856001600160a01b03167f29bd7fae5899787bb9cb5aa121b781bf47bb44cc44f0f3ddd1e1ea383acd22fb866040516118fe91815260200190565b60405180910390a2505050505050611c53565b8085111561197a575f611924828761230d565b9050611930818b6122f4565b9950819550866001600160a01b03167f29bd7fae5899787bb9cb5aa121b781bf47bb44cc44f0f3ddd1e1ea383acd22fb8260405161197091815260200190565b60405180910390a2505b6040517f70a0823100000000000000000000000000000000000000000000000000000000815230600482015285907f00000000000000000000000000000000000000000000000000000000000000006001600160a01b0316906370a0823190602401602060405180830381865afa1580156119f7573d5f803e3d5ffd5b505050506040513d601f19601f82011682018060405250810190611a1b9190611fd9565b10158015611a295750876001145b15611b8e576040517f095ea7b30000000000000000000000000000000000000000000000000000000081526001600160a01b038781166004830152602482018790527f0000000000000000000000000000000000000000000000000000000000000000169063095ea7b3906044016020604051808303815f875af1158015611ab3573d5f803e3d5ffd5b505050506040513d601f19601f82011682018060405250810190611ad79190611ff0565b506040517fb6b55f25000000000000000000000000000000000000000000000000000000008152600481018690526001600160a01b0387169063b6b55f25906024015f604051808303815f87803b158015611b30575f80fd5b505af1158015611b42573d5f803e3d5ffd5b50505050856001600160a01b03167f36d504751ef1ab82703e2675ab3d5e230c810cd1962cec9f40d96f9ca0e881f386604051611b8191815260200190565b60405180910390a2611c4c565b604080516001600160a01b0388166020820152908101869052606081018b90525f9060800160408051601f1981840301815282825280516020918201205f8181526003835283902080547fffffffffffffffffffffffffffffffffffffffffffffffffffffffffffffff001660011790558984529083018e90529082018b905291506001600160a01b0388169082907f207f76ffdb73024e39870ab39aa1ad395275ce4714e752c30ddd8fea79a916e89060600160405180910390a3505b5050505050505b600101611748565b50611c678360016122f4565b6001558115610ae057815f80828254611c8091906122f4565b909155505050506002805460ff60a81b1916600160a81b17905550505050565b7f00000000000000000000000000000000000000000000000000000000000000006001600160a01b0316836001600160a01b031614611d3e576040517f2f3111fa0000000000000000000000000000000000000000000000000000000081526001600160a01b0380851660048301527f00000000000000000000000000000000000000000000000000000000000000001660248201526044016101dc565b7f00000000000000000000000000000000000000000000000000000000000000006001600160a01b0316826001600160a01b031614611ddc576040517f0d16cbdd0000000000000000000000000000000000000000000000000000000081526001600160a01b0380841660048301527f00000000000000000000000000000000000000000000000000000000000000001660248201526044016101dc565b7f00000000000000000000000000000000000000000000000000000000000000006001600160a01b03167f98bbde530ec85b002f6fb0864beccaaf3ac3d2a4ac35cb3b03cf7c61ee415e337f000000000000000000000000000000000000000000000000000000000000000083604051611e57929190612320565b60405180910390a2611e68816116af565b505050565b7f4e487b71000000000000000000000000000000000000000000000000000000005f52604160045260245ffd5b604051601f8201601f1916810167ffffffffffffffff81118282101715611ec357611ec3611e6d565b604052919050565b5f6020808385031215611edc575f80fd5b823567ffffffffffffffff80821115611ef3575f80fd5b818501915085601f830112611f06575f80fd5b813581811115611f1857611f18611e6d565b611f2a84601f19601f84011601611e9a565b91508082528684828501011115611f3f575f80fd5b80848401858401375f90820190930192909252509392505050565b6001600160a01b0381168114610f54575f80fd5b5f805f60608486031215611f80575f80fd5b8335611f8b81611f5a565b95602085013595506040909401359392505050565b5f60208284031215611fb0575f80fd5b5035919050565b5f60208284031215611fc7575f80fd5b8135611fd281611f5a565b9392505050565b5f60208284031215611fe9575f80fd5b5051919050565b5f60208284031215612000575f80fd5b81518015158114611fd2575f80fd5b7f4e487b71000000000000000000000000000000000000000000000000000000005f52601160045260245ffd5b5f67ffffffffffffffff8084168061207b577f4e487b71000000000000000000000000000000000000000000000000000000005f52601260045260245ffd5b92169190910492915050565b67ffffffffffffffff8281168282160390808211156120a8576120a861200f565b5092915050565b5f602082840312156120bf575f80fd5b8151611fd281611f5a565b5f80604083850312156120db575f80fd5b505080516020909101519092909150565b5f81518084528060208401602086015e5f602082860101526020601f19601f83011685010191505092915050565b602081525f611fd260208301846120ec565b6001600160a01b0384168152606060208201525f61214d60608301856120ec565b905063ffffffff83166040830152949350505050565b5f67ffffffffffffffff82111561217c5761217c611e6d565b5060051b60200190565b5f82601f830112612195575f80fd5b815160206121aa6121a583612163565b611e9a565b8083825260208201915060208460051b8701019350868411156121cb575f80fd5b602086015b848110156121e757805183529183019183016121d0565b509695505050505050565b5f8060408385031215612203575f80fd5b825167ffffffffffffffff8082111561221a575f80fd5b818501915085601f83011261222d575f80fd5b8151602061223d6121a583612163565b82815260059290921b8401810191818101908984111561225b575f80fd5b948201945b8386101561228257855161227381611f5a565b82529482019490820190612260565b9188015191965090935050508082111561229a575f80fd5b506122a785828601612186565b9150509250929050565b7f4e487b71000000000000000000000000000000000000000000000000000000005f52603260045260245ffd5b5f82518060208501845e5f920191825250919050565b808201808211156123075761230761200f565b92915050565b818103818111156123075761230761200f565b828152604060208201525f61233860408301846120ec565b94935050505056fea26469706673582212209e38c1e37d3685d1e7c46a47b776230217b04e4d47b7a2b416f802c54992c4b964736f6c63430008190033",
  "linkReferences": {},
  "deployedLinkReferences": {}
}