{
  "_format": "hh-sol-artifact-1",
  "contractName": "OptimismTargetDispenserL2",
  "sourceName": "contracts/staking/OptimismTargetDispenserL2.sol",
  "abi": [
    {
      "inputs": [
        {
          "internalType": "address",
          "name": "_olas",
          "type": "address"
        },
        {
          "internalType": "address",
          "name": "_proxyFactory",
          "type": "address"
        },
        {
          "internalType": "address",
          "name": "_l2MessageRelayer",
          "type": "address"
        },
        {
          "internalType": "address",
          "name": "_l1DepositProcessor",
          "type": "address"
        },
        {
          "internalType": "uint256",
          "name": "_l1SourceChainId",
          "type": "uint256"
        }
      ],
      "stateMutability": "nonpayable",
      "type": "constructor"
    },
    {
      "inputs": [
        {
          "internalType": "bytes32",
          "name": "deliveryHash",
          "type": "bytes32"
        }
      ],
      "name": "AlreadyDelivered",
      "type": "error"
    },
    {
      "inputs": [
        {
          "internalType": "uint256",
          "name": "expected",
          "type": "uint256"
        },
        {
          "internalType": "uint256",
          "name": "provided",
          "type": "uint256"
        }
      ],
      "name": "IncorrectDataLength",
      "type": "error"
    },
    {
      "inputs": [
        {
          "internalType": "uint256",
          "name": "provided",
          "type": "uint256"
        },
        {
          "internalType": "uint256",
          "name": "expected",
          "type": "uint256"
        }
      ],
      "name": "InsufficientBalance",
      "type": "error"
    },
    {
      "inputs": [
        {
          "internalType": "uint256",
          "name": "provided",
          "type": "uint256"
        },
        {
          "internalType": "uint256",
          "name": "expected",
          "type": "uint256"
        }
      ],
      "name": "LowerThan",
      "type": "error"
    },
    {
      "inputs": [
        {
          "internalType": "address",
          "name": "sender",
          "type": "address"
        },
        {
          "internalType": "address",
          "name": "manager",
          "type": "address"
        }
      ],
      "name": "ManagerOnly",
      "type": "error"
    },
    {
      "inputs": [
        {
          "internalType": "uint256",
          "name": "provided",
          "type": "uint256"
        },
        {
          "internalType": "uint256",
          "name": "max",
          "type": "uint256"
        }
      ],
      "name": "Overflow",
      "type": "error"
    },
    {
      "inputs": [
        {
          "internalType": "address",
          "name": "sender",
          "type": "address"
        },
        {
          "internalType": "address",
          "name": "owner",
          "type": "address"
        }
      ],
      "name": "OwnerOnly",
      "type": "error"
    },
    {
      "inputs": [],
      "name": "Paused",
      "type": "error"
    },
    {
      "inputs": [],
      "name": "ReentrancyGuard",
      "type": "error"
    },
    {
      "inputs": [
        {
          "internalType": "address",
          "name": "target",
          "type": "address"
        },
        {
          "internalType": "uint256",
          "name": "amount",
          "type": "uint256"
        },
        {
          "internalType": "bytes32",
          "name": "batchHash",
          "type": "bytes32"
        }
      ],
      "name": "TargetAmountNotQueued",
      "type": "error"
    },
    {
      "inputs": [
        {
          "internalType": "address",
          "name": "provided",
          "type": "address"
        },
        {
          "internalType": "address",
          "name": "expected",
          "type": "address"
        }
      ],
      "name": "TargetRelayerOnly",
      "type": "error"
    },
    {
      "inputs": [
        {
          "internalType": "address",
          "name": "token",
          "type": "address"
        },
        {
          "internalType": "address",
          "name": "from",
          "type": "address"
        },
        {
          "internalType": "address",
          "name": "to",
          "type": "address"
        },
        {
          "internalType": "uint256",
          "name": "amount",
          "type": "uint256"
        }
      ],
      "name": "TransferFailed",
      "type": "error"
    },
    {
      "inputs": [],
      "name": "Unpaused",
      "type": "error"
    },
    {
      "inputs": [
        {
          "internalType": "address",
          "name": "account",
          "type": "address"
        }
      ],
      "name": "WrongAccount",
      "type": "error"
    },
    {
      "inputs": [
        {
          "internalType": "uint256",
          "name": "provided",
          "type": "uint256"
        },
        {
          "internalType": "uint256",
          "name": "expected",
          "type": "uint256"
        }
      ],
      "name": "WrongAmount",
      "type": "error"
    },
    {
      "inputs": [
        {
          "internalType": "uint256",
          "name": "provided",
          "type": "uint256"
        },
        {
          "internalType": "uint256",
          "name": "expected",
          "type": "uint256"
        }
      ],
      "name": "WrongChainId",
      "type": "error"
    },
    {
      "inputs": [
        {
          "internalType": "address",
          "name": "provided",
          "type": "address"
        },
        {
          "internalType": "address",
          "name": "expected",
          "type": "address"
        }
      ],
      "name": "WrongMessageSender",
      "type": "error"
    },
    {
      "inputs": [
        {
          "internalType": "address",
          "name": "provided",
          "type": "address"
        },
        {
          "internalType": "address",
          "name": "expected",
          "type": "address"
        }
      ],
      "name": "WrongTokenAddress",
      "type": "error"
    },
    {
      "inputs": [],
      "name": "ZeroAddress",
      "type": "error"
    },
    {
      "inputs": [],
      "name": "ZeroValue",
      "type": "error"
    },
    {
      "anonymous": false,
      "inputs": [
        {
          "indexed": true,
          "internalType": "address",
          "name": "target",
          "type": "address"
        },
        {
          "indexed": false,
          "internalType": "uint256",
          "name": "amount",
          "type": "uint256"
        }
      ],
      "name": "AmountWithheld",
      "type": "event"
    },
    {
      "anonymous": false,
      "inputs": [
        {
          "indexed": true,
          "internalType": "address",
          "name": "owner",
          "type": "address"
        },
        {
          "indexed": false,
          "internalType": "uint256",
          "name": "amount",
          "type": "uint256"
        }
      ],
      "name": "Drain",
      "type": "event"
    },
    {
      "anonymous": false,
      "inputs": [
        {
          "indexed": true,
          "internalType": "address",
          "name": "sender",
          "type": "address"
        },
        {
          "indexed": false,
          "internalType": "uint256",
          "name": "value",
          "type": "uint256"
        }
      ],
      "name": "FundsReceived",
      "type": "event"
    },
    {
      "anonymous": false,
      "inputs": [
        {
          "indexed": true,
          "internalType": "address",
          "name": "sender",
          "type": "address"
        },
        {
          "indexed": false,
          "internalType": "uint256",
          "name": "leftovers",
          "type": "uint256"
        }
      ],
      "name": "LeftoversRefunded",
      "type": "event"
    },
    {
      "anonymous": false,
      "inputs": [
        {
          "indexed": true,
          "internalType": "uint256",
          "name": "sequence",
          "type": "uint256"
        },
        {
          "indexed": true,
          "internalType": "address",
          "name": "messageSender",
          "type": "address"
        },
        {
          "indexed": false,
          "internalType": "uint256",
          "name": "amount",
          "type": "uint256"
        },
        {
          "indexed": true,
          "internalType": "bytes32",
          "name": "batchHash",
          "type": "bytes32"
        }
      ],
      "name": "MessagePosted",
      "type": "event"
    },
    {
      "anonymous": false,
      "inputs": [
        {
          "indexed": true,
          "internalType": "address",
          "name": "sender",
          "type": "address"
        },
        {
          "indexed": false,
          "internalType": "uint256",
          "name": "chainId",
          "type": "uint256"
        },
        {
          "indexed": false,
          "internalType": "bytes",
          "name": "data",
          "type": "bytes"
        }
      ],
      "name": "MessageReceived",
      "type": "event"
    },
    {
      "anonymous": false,
      "inputs": [
        {
          "indexed": true,
          "internalType": "address",
          "name": "sender",
          "type": "address"
        },
        {
          "indexed": true,
          "internalType": "address",
          "name": "newL2TargetDispenser",
          "type": "address"
        },
        {
          "indexed": false,
          "internalType": "uint256",
          "name": "amount",
          "type": "uint256"
        }
      ],
      "name": "Migrated",
      "type": "event"
    },
    {
      "anonymous": false,
      "inputs": [
        {
          "indexed": true,
          "internalType": "address",
          "name": "owner",
          "type": "address"
        }
      ],
      "name": "OwnerUpdated",
      "type": "event"
    },
    {
      "anonymous": false,
      "inputs": [
        {
          "indexed": true,
          "internalType": "bytes32",
          "name": "queueHash",
          "type": "bytes32"
        },
        {
          "indexed": true,
          "internalType": "address",
          "name": "target",
          "type": "address"
        },
        {
          "indexed": false,
          "internalType": "uint256",
          "name": "amount",
          "type": "uint256"
        },
        {
          "indexed": true,
          "internalType": "bytes32",
          "name": "batchHash",
          "type": "bytes32"
        },
        {
          "indexed": false,
          "internalType": "uint256",
          "name": "olasBalance",
          "type": "uint256"
        },
        {
          "indexed": false,
          "internalType": "uint256",
          "name": "paused",
          "type": "uint256"
        }
      ],
      "name": "StakingRequestQueued",
      "type": "event"
    },
    {
      "anonymous": false,
      "inputs": [
        {
          "indexed": true,
          "internalType": "address",
          "name": "target",
          "type": "address"
        },
        {
          "indexed": false,
          "internalType": "uint256",
          "name": "amount",
          "type": "uint256"
        },
        {
          "indexed": true,
          "internalType": "bytes32",
          "name": "batchHash",
          "type": "bytes32"
        }
      ],
      "name": "StakingTargetDeposited",
      "type": "event"
    },
    {
      "anonymous": false,
      "inputs": [],
      "name": "TargetDispenserPaused",
      "type": "event"
    },
    {
      "anonymous": false,
      "inputs": [],
      "name": "TargetDispenserUnpaused",
      "type": "event"
    },
    {
      "inputs": [],
      "name": "BRIDGE_PAYLOAD_LENGTH",
      "outputs": [
        {
          "internalType": "uint256",
          "name": "",
          "type": "uint256"
        }
      ],
      "stateMutability": "view",
      "type": "function"
    },
    {
      "inputs": [],
      "name": "MAX_CHAIN_ID",
      "outputs": [
        {
          "internalType": "uint256",
          "name": "",
          "type": "uint256"
        }
      ],
      "stateMutability": "view",
      "type": "function"
    },
    {
      "inputs": [],
      "name": "MAX_GAS_LIMIT",
      "outputs": [
        {
          "internalType": "uint256",
          "name": "",
          "type": "uint256"
        }
      ],
      "stateMutability": "view",
      "type": "function"
    },
    {
      "inputs": [],
      "name": "MIN_GAS_LIMIT",
      "outputs": [
        {
          "internalType": "uint256",
          "name": "",
          "type": "uint256"
        }
      ],
      "stateMutability": "view",
      "type": "function"
    },
    {
      "inputs": [],
      "name": "RECEIVE_MESSAGE",
      "outputs": [
        {
          "internalType": "bytes4",
          "name": "",
          "type": "bytes4"
        }
      ],
      "stateMutability": "view",
      "type": "function"
    },
    {
      "inputs": [
        {
          "internalType": "address",
          "name": "newOwner",
          "type": "address"
        }
      ],
      "name": "changeOwner",
      "outputs": [],
      "stateMutability": "nonpayable",
      "type": "function"
    },
    {
      "inputs": [],
      "name": "drain",
      "outputs": [
        {
          "internalType": "uint256",
          "name": "amount",
          "type": "uint256"
        }
      ],
      "stateMutability": "nonpayable",
      "type": "function"
    },
    {
      "inputs": [],
      "name": "getBridgingDecimals",
      "outputs": [
        {
          "internalType": "uint256",
          "name": "",
          "type": "uint256"
        }
      ],
      "stateMutability": "pure",
      "type": "function"
    },
    {
      "inputs": [],
      "name": "l1DepositProcessor",
      "outputs": [
        {
          "internalType": "address",
          "name": "",
          "type": "address"
        }
      ],
      "stateMutability": "view",
      "type": "function"
    },
    {
      "inputs": [],
      "name": "l1SourceChainId",
      "outputs": [
        {
          "internalType": "uint256",
          "name": "",
          "type": "uint256"
        }
      ],
      "stateMutability": "view",
      "type": "function"
    },
    {
      "inputs": [],
      "name": "l2MessageRelayer",
      "outputs": [
        {
          "internalType": "address",
          "name": "",
          "type": "address"
        }
      ],
      "stateMutability": "view",
      "type": "function"
    },
    {
      "inputs": [
        {
          "internalType": "address",
          "name": "newL2TargetDispenser",
          "type": "address"
        }
      ],
      "name": "migrate",
      "outputs": [],
      "stateMutability": "nonpayable",
      "type": "function"
    },
    {
      "inputs": [],
      "name": "olas",
      "outputs": [
        {
          "internalType": "address",
          "name": "",
          "type": "address"
        }
      ],
      "stateMutability": "view",
      "type": "function"
    },
    {
      "inputs": [],
      "name": "owner",
      "outputs": [
        {
          "internalType": "address",
          "name": "",
          "type": "address"
        }
      ],
      "stateMutability": "view",
      "type": "function"
    },
    {
      "inputs": [],
      "name": "pause",
      "outputs": [],
      "stateMutability": "nonpayable",
      "type": "function"
    },
    {
      "inputs": [],
      "name": "paused",
      "outputs": [
        {
          "internalType": "uint8",
          "name": "",
          "type": "uint8"
        }
      ],
      "stateMutability": "view",
      "type": "function"
    },
    {
      "inputs": [
        {
          "internalType": "bytes",
          "name": "data",
          "type": "bytes"
        }
      ],
      "name": "processDataMaintenance",
      "outputs": [],
      "stateMutability": "nonpayable",
      "type": "function"
    },
    {
      "inputs": [
        {
          "internalType": "bytes32",
          "name": "",
          "type": "bytes32"
        }
      ],
      "name": "processedHashes",
      "outputs": [
        {
          "internalType": "bool",
          "name": "",
          "type": "bool"
        }
      ],
      "stateMutability": "view",
      "type": "function"
    },
    {
      "inputs": [
        {
          "internalType": "bytes32",
          "name": "",
          "type": "bytes32"
        }
      ],
      "name": "queuedHashes",
      "outputs": [
        {
          "internalType": "bool",
          "name": "",
          "type": "bool"
        }
      ],
      "stateMutability": "view",
      "type": "function"
    },
    {
      "inputs": [
        {
          "internalType": "bytes",
          "name": "data",
          "type": "bytes"
        }
      ],
      "name": "receiveMessage",
      "outputs": [],
      "stateMutability": "payable",
      "type": "function"
    },
    {
      "inputs": [
        {
          "internalType": "address",
          "name": "target",
          "type": "address"
        },
        {
          "internalType": "uint256",
          "name": "amount",
          "type": "uint256"
        },
        {
          "internalType": "bytes32",
          "name": "batchHash",
          "type": "bytes32"
        }
      ],
      "name": "redeem",
      "outputs": [],
      "stateMutability": "nonpayable",
      "type": "function"
    },
    {
      "inputs": [],
      "name": "stakingBatchNonce",
      "outputs": [
        {
          "internalType": "uint256",
          "name": "",
          "type": "uint256"
        }
      ],
      "stateMutability": "view",
      "type": "function"
    },
    {
      "inputs": [],
      "name": "stakingFactory",
      "outputs": [
        {
          "internalType": "address",
          "name": "",
          "type": "address"
        }
      ],
      "stateMutability": "view",
      "type": "function"
    },
    {
      "inputs": [
        {
          "internalType": "bytes",
          "name": "bridgePayload",
          "type": "bytes"
        }
      ],
      "name": "syncWithheldAmount",
      "outputs": [],
      "stateMutability": "payable",
      "type": "function"
    },
    {
      "inputs": [],
      "name": "unpause",
      "outputs": [],
      "stateMutability": "nonpayable",
      "type": "function"
    },
    {
      "inputs": [],
      "name": "withheldAmount",
      "outputs": [
        {
          "internalType": "uint256",
          "name": "",
          "type": "uint256"
        }
      ],
      "stateMutability": "view",
      "type": "function"
    },
    {
      "stateMutability": "payable",
      "type": "receive"
    }
  ],
  "bytecode": "0x610120604052348015610010575f80fd5b5060405161246038038061246083398101604081905261002f916101aa565b84848484846001600160a01b038516158061005157506001600160a01b038416155b8061006357506001600160a01b038316155b8061007557506001600160a01b038216155b156100935760405163d92e233d60e01b815260040160405180910390fd5b805f036100b357604051637c946ed760e01b815260040160405180910390fd5b60246100c760026001600160401b03610204565b6100d19190610235565b6001600160401b031681111561012f578060246100f660026001600160401b03610204565b6101009190610235565b604051637ae5968560e01b815260048101929092526001600160401b0316602482015260440160405180910390fd5b6001600160a01b0394851660805292841660a05290831660c05290911660e0526101005250506002805460ff60a81b1960ff60a01b1933166001600160a81b031990921691909117600160a01b1716600160a81b17905550610268915050565b80516001600160a01b03811681146101a5575f80fd5b919050565b5f805f805f60a086880312156101be575f80fd5b6101c78661018f565b94506101d56020870161018f565b93506101e36040870161018f565b92506101f16060870161018f565b9150608086015190509295509295909350565b5f6001600160401b038381168061022957634e487b7160e01b5f52601260045260245ffd5b92169190910492915050565b6001600160401b0382811682821603908082111561026157634e487b7160e01b5f52601160045260245ffd5b5092915050565b60805160a05160c05160e0516101005161214461031c5f395f818161053d0152611c3001525f818161031d0152818161147501528181611b4701528181611bb60152611be501525f81816102ea0152818161125e0152818161144801528181611aa90152611b1801525f8181610350015261168001525f818161022e01528181610be701528181610c870152818161106701528181611121015281816111ab015281816117fb01526118a901526121445ff3fe60806040526004361061019b575f3560e01c80637ce1ffeb116100dc578063a6f9dae111610087578063ce5494bb11610062578063ce5494bb146105b0578063e3f5aa51146105cf578063f4427c2c146105e5578063f953cec7146105fa575f80fd5b8063a6f9dae11461055f578063a8b2ae021461057e578063bddc966e14610591575f80fd5b80639890220b116100b75780639890220b146104f9578063992c3e4b1461050d5780639b7bb8471461052c575f80fd5b80637ce1ffeb146104b05780638456cb59146104c65780638da5cb5b146104da575f80fd5b80633f4ba83a116101475780635a7287cf116101225780635a7287cf146104435780635bc105c0146104575780635c975abb1461046b5780637424ddc81461049d575f80fd5b80633f4ba83a146103725780634ece6b171461038857806354d20cc2146103aa575f80fd5b80631bad5957116101775780631bad5957146102d9578063256359a81461030c578063291347681461033f575f80fd5b806231d1151461021d57806307d9c5341461026d5780631b2e7f0a146102ab575f80fd5b36610219576002546001600160a01b03166101e25760405163cd3f165960e01b81525f60048201523360248201523060448201523460648201526084015b60405180910390fd5b60405134815233907f8e47b87b0ef542cdfa1659c551d88bad38aa7f452d2bbb349ab7530dfec8be8f9060200160405180910390a2005b5f80fd5b348015610228575f80fd5b506102507f000000000000000000000000000000000000000000000000000000000000000081565b6040516001600160a01b0390911681526020015b60405180910390f35b348015610278575f80fd5b5061029b610287366004611c74565b60036020525f908152604090205460ff1681565b6040519015158152602001610264565b3480156102b6575f80fd5b5061029b6102c5366004611c74565b60046020525f908152604090205460ff1681565b3480156102e4575f80fd5b506102507f000000000000000000000000000000000000000000000000000000000000000081565b348015610317575f80fd5b506102507f000000000000000000000000000000000000000000000000000000000000000081565b34801561034a575f80fd5b506102507f000000000000000000000000000000000000000000000000000000000000000081565b34801561037d575f80fd5b5061038661060d565b005b348015610393575f80fd5b5061039c602081565b604051908152602001610264565b3480156103b5575f80fd5b5060408051808201909152601581527f726563656976654d6573736167652862797465732900000000000000000000006020909101526104127ff953cec75ae677942d7cda5cb6d12c0cb96a0904bf37d36301eef297b83c411d81565b6040517fffffffff000000000000000000000000000000000000000000000000000000009091168152602001610264565b34801561044e575f80fd5b5061039c5f5481565b348015610462575f80fd5b5061039c6106a5565b348015610476575f80fd5b5060025461048b90600160a01b900460ff1681565b60405160ff9091168152602001610264565b6103866104ab366004611cd0565b6106d1565b3480156104bb575f80fd5b5061039c620493e081565b3480156104d1575f80fd5b506103866108a2565b3480156104e5575f80fd5b50600254610250906001600160a01b031681565b348015610504575f80fd5b5061039c61094b565b348015610518575f80fd5b50610386610527366004611d73565b610ab8565b348015610537575f80fd5b5061039c7f000000000000000000000000000000000000000000000000000000000000000081565b34801561056a575f80fd5b50610386610579366004611da5565b610dfc565b348015610589575f80fd5b50601261039c565b34801561059c575f80fd5b506103866105ab366004611cd0565b610edd565b3480156105bb575f80fd5b506103866105ca366004611da5565b610f29565b3480156105da575f80fd5b5061039c621e848081565b3480156105f0575f80fd5b5061039c60015481565b610386610608366004611cd0565b61125b565b6002546001600160a01b0316331461064d5760025460405163521eb56d60e11b81523360048201526001600160a01b0390911660248201526044016101d9565b600280547fffffffffffffffffffffff00ffffffffffffffffffffffffffffffffffffffff16600160a01b1790556040517f20e9b9dbd8158c2b961d8645a7d06624a045634bb65f07ef751ae014a65f61f5905f90a1565b60246106ba600267ffffffffffffffff611def565b6106c49190611e15565b67ffffffffffffffff1681565b6002546001600160a81b90910460ff161115610700576040516345f5ce8b60e11b815260040160405180910390fd5b6002805460ff60a81b1916600160a91b1780825560ff600160a01b90910416900361073e576040516313d0ff5960e31b815260040160405180910390fd5b5f54601281805f0361076357604051637c946ed760e01b815260040160405180910390fd5b61076d8184611e3d565b5f908155600154604080516020810183905246918101919091523060608201529091906080016040516020818303038152906040528051906020012090505f806107b88589856112ed565b9092509050801561083e57604051339082905f81818185875af1925050503d805f8114610800576040519150601f19603f3d011682016040523d82523d5f602084013e610805565b606091505b50506040518281523391507f8e49ed3e274fbea1556bdfaa9a37a0c28445bfe26d57beaf9f04fd517aa417419060200160405180910390a25b610849846001611e93565b6001556040518581528390339084907f1ff6d173c1ebeb42f666a09b94f554cf43eadf8054fda3247f56c343baab28f79060200160405180910390a450506002805460ff60a81b1916600160a81b179055505050505050565b6002546001600160a01b031633146108e25760025460405163521eb56d60e11b81523360048201526001600160a01b0390911660248201526044016101d9565b600280547fffffffffffffffffffffff00ffffffffffffffffffffffffffffffffffffffff16740200000000000000000000000000000000000000001790556040517f8ef6a6615a637325c66275a8d4cadb0844f08a758e5a9df369412975bcdcbc48905f90a1565b6002545f906001600160a81b90910460ff16111561097c576040516345f5ce8b60e11b815260040160405180910390fd5b6002805460ff60a81b198116600160a91b179091556001600160a01b031633146109ce5760025460405163521eb56d60e11b81523360048201526001600160a01b0390911660248201526044016101d9565b479050805f036109f157604051637c946ed760e01b815260040160405180910390fd5b6040515f90339083908381818185875af1925050503d805f8114610a30576040519150601f19603f3d011682016040523d82523d5f602084013e610a35565b606091505b5050905080610a6c5760405163cd3f165960e01b81525f6004820152306024820152336044820152606481018390526084016101d9565b60405182815233907ff36f4d6622e16a536bbb049064af779cdd483a0b388d347d3752a65f1058bf5b9060200160405180910390a2506002805460ff60a81b1916600160a81b17905590565b6002546001600160a81b90910460ff161115610ae7576040516345f5ce8b60e11b815260040160405180910390fd5b6002805460ff60a81b1916600160a91b1780825560ff600160a01b909104169003610b25576040516313d0ff5960e31b815260040160405180910390fd5b604080516001600160a01b0385166020820152908101839052606081018290524660808201523060a08201525f9060c00160408051601f1981840301815291815281516020928301205f818152600490935291205490915060ff1680610bd0576040517f2b82bd4a0000000000000000000000000000000000000000000000000000000081526001600160a01b038616600482015260248101859052604481018490526064016101d9565b6040516370a0823160e01b81523060048201525f907f00000000000000000000000000000000000000000000000000000000000000006001600160a01b0316906370a0823190602401602060405180830381865afa158015610c34573d5f803e3d5ffd5b505050506040513d601f19601f82011682018060405250810190610c589190611ea6565b9050848110610da55760405163095ea7b360e01b81526001600160a01b038781166004830152602482018790527f0000000000000000000000000000000000000000000000000000000000000000169063095ea7b3906044016020604051808303815f875af1158015610ccd573d5f803e3d5ffd5b505050506040513d601f19601f82011682018060405250810190610cf19190611ebd565b5060405163b6b55f2560e01b8152600481018690526001600160a01b0387169063b6b55f25906024015f604051808303815f87803b158015610d31575f80fd5b505af1158015610d43573d5f803e3d5ffd5b5050505083866001600160a01b03167f22ab9fd8eb5063f7f3cb43c78f5d368aea9a51855ada00fa146687ef2c32198087604051610d8391815260200190565b60405180910390a35f838152600460205260409020805460ff19169055610de1565b6040517fcf47918100000000000000000000000000000000000000000000000000000000815260048101829052602481018690526044016101d9565b50506002805460ff60a81b1916600160a81b17905550505050565b6002546001600160a01b03163314610e3c5760025460405163521eb56d60e11b81523360048201526001600160a01b0390911660248201526044016101d9565b6001600160a01b038116610e7c576040517fd92e233d00000000000000000000000000000000000000000000000000000000815260040160405180910390fd5b600280547fffffffffffffffffffffffff0000000000000000000000000000000000000000166001600160a01b0383169081179091556040517f4ffd725fc4a22075e9ec71c59edf9c38cdeb588a91b24fc5b61388c5be41282b905f90a250565b6002546001600160a01b03163314610f1d5760025460405163521eb56d60e11b81523360048201526001600160a01b0390911660248201526044016101d9565b610f26816114db565b50565b6002546001600160a81b90910460ff161115610f58576040516345f5ce8b60e11b815260040160405180910390fd5b6002805460ff60a81b198116600160a91b179091556001600160a01b03163314610faa5760025460405163521eb56d60e11b81523360048201526001600160a01b0390911660248201526044016101d9565b600254600160a01b900460ff16600103610ff0576040517fa45f47fd00000000000000000000000000000000000000000000000000000000815260040160405180910390fd5b806001600160a01b03163b5f0361102557604051631c7025f960e11b81526001600160a01b03821660048201526024016101d9565b306001600160a01b0382160361105057604051631c7025f960e11b81523060048201526024016101d9565b6040516370a0823160e01b81523060048201525f907f00000000000000000000000000000000000000000000000000000000000000006001600160a01b0316906370a0823190602401602060405180830381865afa1580156110b4573d5f803e3d5ffd5b505050506040513d601f19601f820116820180604052508101906110d89190611ea6565b905080156111ef576040517fa9059cbb0000000000000000000000000000000000000000000000000000000081526001600160a01b038381166004830152602482018390525f917f00000000000000000000000000000000000000000000000000000000000000009091169063a9059cbb906044016020604051808303815f875af1158015611169573d5f803e3d5ffd5b505050506040513d601f19601f8201168201806040525081019061118d9190611ebd565b9050806111ed5760405163cd3f165960e01b81526001600160a01b037f00000000000000000000000000000000000000000000000000000000000000008116600483015230602483015284166044820152606481018390526084016101d9565b505b600280547fffffffffffffffffffffffff00000000000000000000000000000000000000001690556040518181526001600160a01b0383169033907f928fd5531324ee87d76cc5307dc37580174da76b85cd546da631b2670bc266b59060200160405180910390a35050565b5f7f00000000000000000000000000000000000000000000000000000000000000006001600160a01b0316636e296e456040518163ffffffff1660e01b8152600401602060405180830381865afa1580156112b8573d5f803e3d5ffd5b505050506040513d601f19601f820116820180604052508101906112dc9190611edc565b90506112e9338284611aa7565b5050565b5f805f6020855103611320578480602001905181019061130d9190611ea6565b9050621e84808111156113205750621e84805b620493e08110156113315750620493e05b604080518082018252601581527f726563656976654d65737361676528627974657329000000000000000000000060209182015281519081018890529081018590525f907ff953cec75ae677942d7cda5cb6d12c0cb96a0904bf37d36301eef297b83c411d9060600160408051601f19818403018152908290526113b791602401611f25565b60408051601f198184030181529181526020820180517bffffffffffffffffffffffffffffffffffffffffffffffffffffffff167fffffffff000000000000000000000000000000000000000000000000000000009094169390931790925290517f3dbb202b0000000000000000000000000000000000000000000000000000000081529091506001600160a01b037f00000000000000000000000000000000000000000000000000000000000000001690633dbb202b906114a1907f00000000000000000000000000000000000000000000000000000000000000009085908790600401611f37565b5f604051808303815f87803b1580156114b8575f80fd5b505af11580156114ca573d5f803e3d5ffd5b509699349950975050505050505050565b6002546001600160a81b90910460ff16111561150a576040516345f5ce8b60e11b815260040160405180910390fd5b6002805460ff60a81b1916600160a91b17905580515f90819081906115389060209086018101908601611ffd565b5f81815260036020526040902054929550909350915060ff161561158b576040517f56bc34a1000000000000000000000000000000000000000000000000000000008152600481018290526024016101d9565b5f818152600360205260408120805460ff19166001179055600254600160a01b900460ff16815b8551811015611a70575f8682815181106115ce576115ce6120c4565b602002602001015190505f8683815181106115eb576115eb6120c4565b602002602001015190505f8260405160240161161691906001600160a01b0391909116815260200190565b60408051601f198184030181529181526020820180517bffffffffffffffffffffffffffffffffffffffffffffffffffffffff167f1eda94d700000000000000000000000000000000000000000000000000000000179052519091505f9081906001600160a01b037f000000000000000000000000000000000000000000000000000000000000000016906116ac9085906120d8565b5f604051808303815f865af19150503d805f81146116e5576040519150601f19603f3d011682016040523d82523d5f602084013e6116ea565b606091505b50915091505f8280156116fe575081516020145b1561171a57818060200190518101906117179190611ea6565b90505b805f0361177b5761172b858a611e93565b9850856001600160a01b03167f29bd7fae5899787bb9cb5aa121b781bf47bb44cc44f0f3ddd1e1ea383acd22fb8660405161176891815260200190565b60405180910390a2505050505050611a68565b808511156117e4575f61178e8287611e3d565b905061179a818b611e93565b9950819550866001600160a01b03167f29bd7fae5899787bb9cb5aa121b781bf47bb44cc44f0f3ddd1e1ea383acd22fb826040516117da91815260200190565b60405180910390a2505b6040516370a0823160e01b81523060048201525f907f00000000000000000000000000000000000000000000000000000000000000006001600160a01b0316906370a0823190602401602060405180830381865afa158015611848573d5f803e3d5ffd5b505050506040513d601f19601f8201168201806040525081019061186c9190611ea6565b905085811015801561187e5750886001145b156119b25760405163095ea7b360e01b81526001600160a01b038881166004830152602482018890527f0000000000000000000000000000000000000000000000000000000000000000169063095ea7b3906044016020604051808303815f875af11580156118ef573d5f803e3d5ffd5b505050506040513d601f19601f820116820180604052508101906119139190611ebd565b5060405163b6b55f2560e01b8152600481018790526001600160a01b0388169063b6b55f25906024015f604051808303815f87803b158015611953575f80fd5b505af1158015611965573d5f803e3d5ffd5b505050508a876001600160a01b03167f22ab9fd8eb5063f7f3cb43c78f5d368aea9a51855ada00fa146687ef2c321980886040516119a591815260200190565b60405180910390a3611a60565b604080516001600160a01b0389166020820152908101879052606081018c90524660808201523060a08201525f9060c00160408051601f1981840301815282825280516020918201205f81815260048352839020805460ff191660011790558a84529083018590529082018c905291508c906001600160a01b038a169083907ff40f70fa5e98296d34577a11349caa5adf0d9cf9b6d416fd901de223c50d7a6c9060600160405180910390a4505b505050505050505b6001016115b2565b508115610de157815f80828254611a879190611e93565b909155505050506002805460ff60a81b1916600160a81b17905550505050565b7f00000000000000000000000000000000000000000000000000000000000000006001600160a01b0316836001600160a01b031614611b45576040517f2f3111fa0000000000000000000000000000000000000000000000000000000081526001600160a01b0380851660048301527f00000000000000000000000000000000000000000000000000000000000000001660248201526044016101d9565b7f00000000000000000000000000000000000000000000000000000000000000006001600160a01b0316826001600160a01b031614611be3576040517f0d16cbdd0000000000000000000000000000000000000000000000000000000081526001600160a01b0380841660048301527f00000000000000000000000000000000000000000000000000000000000000001660248201526044016101d9565b7f00000000000000000000000000000000000000000000000000000000000000006001600160a01b03167f98bbde530ec85b002f6fb0864beccaaf3ac3d2a4ac35cb3b03cf7c61ee415e337f000000000000000000000000000000000000000000000000000000000000000083604051611c5e9291906120ee565b60405180910390a2611c6f816114db565b505050565b5f60208284031215611c84575f80fd5b5035919050565b634e487b7160e01b5f52604160045260245ffd5b604051601f8201601f1916810167ffffffffffffffff81118282101715611cc857611cc8611c8b565b604052919050565b5f6020808385031215611ce1575f80fd5b823567ffffffffffffffff80821115611cf8575f80fd5b818501915085601f830112611d0b575f80fd5b813581811115611d1d57611d1d611c8b565b611d2f601f8201601f19168501611c9f565b91508082528684828501011115611d44575f80fd5b80848401858401375f90820190930192909252509392505050565b6001600160a01b0381168114610f26575f80fd5b5f805f60608486031215611d85575f80fd5b8335611d9081611d5f565b95602085013595506040909401359392505050565b5f60208284031215611db5575f80fd5b8135611dc081611d5f565b9392505050565b634e487b7160e01b5f52601260045260245ffd5b634e487b7160e01b5f52601160045260245ffd5b5f67ffffffffffffffff80841680611e0957611e09611dc7565b92169190910492915050565b67ffffffffffffffff828116828216039080821115611e3657611e36611ddb565b5092915050565b81810381811115611e5057611e50611ddb565b92915050565b80851115611e8b57815f1904821115611e7157611e71611ddb565b80851615611e7e57918102915b93841c9390800290611e56565b509250929050565b80820180821115611e5057611e50611ddb565b5f60208284031215611eb6575f80fd5b5051919050565b5f60208284031215611ecd575f80fd5b81518015158114611dc0575f80fd5b5f60208284031215611eec575f80fd5b8151611dc081611d5f565b5f81518084528060208401602086015e5f602082860101526020601f19601f83011685010191505092915050565b602081525f611dc06020830184611ef7565b6001600160a01b0384168152606060208201525f611f586060830185611ef7565b905063ffffffff83166040830152949350505050565b5f67ffffffffffffffff821115611f8757611f87611c8b565b5060051b60200190565b5f82601f830112611fa0575f80fd5b81516020611fb5611fb083611f6e565b611c9f565b8083825260208201915060208460051b870101935086841115611fd6575f80fd5b602086015b84811015611ff25780518352918301918301611fdb565b509695505050505050565b5f805f6060848603121561200f575f80fd5b835167ffffffffffffffff80821115612026575f80fd5b818601915086601f830112612039575f80fd5b81516020612049611fb083611f6e565b82815260059290921b8401810191818101908a841115612067575f80fd5b948201945b8386101561208e57855161207f81611d5f565b8252948201949082019061206c565b918901519197509093505050808211156120a6575f80fd5b506120b386828701611f91565b925050604084015190509250925092565b634e487b7160e01b5f52603260045260245ffd5b5f82518060208501845e5f920191825250919050565b828152604060208201525f6121066040830184611ef7565b94935050505056fea2646970667358221220fb65460817b16b27799592346bcd2f07d6b9fd8f2e5d7c5c5094c28c4bb3ed0564736f6c63430008190033",
  "linkReferences": {},
  "deployedLinkReferences": {}
}