{
  "_format": "hh-sol-artifact-1",
  "contractName": "OptimismDepositProcessorL1",
  "sourceName": "contracts/staking/OptimismDepositProcessorL1.sol",
  "abi": [
    {
      "inputs": [
        {
          "internalType": "address",
          "name": "_olas",
          "type": "address"
        },
        {
          "internalType": "address",
          "name": "_l1Dispenser",
          "type": "address"
        },
        {
          "internalType": "address",
          "name": "_l1TokenRelayer",
          "type": "address"
        },
        {
          "internalType": "address",
          "name": "_l1MessageRelayer",
          "type": "address"
        },
        {
          "internalType": "uint256",
          "name": "_l2TargetChainId",
          "type": "uint256"
        },
        {
          "internalType": "address",
          "name": "_olasL2",
          "type": "address"
        }
      ],
      "stateMutability": "nonpayable",
      "type": "constructor"
    },
    {
      "inputs": [
        {
          "internalType": "bytes32",
          "name": "deliveryHash",
          "type": "bytes32"
        }
      ],
      "name": "AlreadyDelivered",
      "type": "error"
    },
    {
      "inputs": [
        {
          "internalType": "uint256",
          "name": "expected",
          "type": "uint256"
        },
        {
          "internalType": "uint256",
          "name": "provided",
          "type": "uint256"
        }
      ],
      "name": "IncorrectDataLength",
      "type": "error"
    },
    {
      "inputs": [
        {
          "internalType": "uint256",
          "name": "provided",
          "type": "uint256"
        },
        {
          "internalType": "uint256",
          "name": "expected",
          "type": "uint256"
        }
      ],
      "name": "InsufficientBalance",
      "type": "error"
    },
    {
      "inputs": [
        {
          "internalType": "uint256",
          "name": "provided",
          "type": "uint256"
        },
        {
          "internalType": "uint256",
          "name": "expected",
          "type": "uint256"
        }
      ],
      "name": "LowerThan",
      "type": "error"
    },
    {
      "inputs": [
        {
          "internalType": "address",
          "name": "sender",
          "type": "address"
        },
        {
          "internalType": "address",
          "name": "manager",
          "type": "address"
        }
      ],
      "name": "ManagerOnly",
      "type": "error"
    },
    {
      "inputs": [
        {
          "internalType": "uint256",
          "name": "provided",
          "type": "uint256"
        },
        {
          "internalType": "uint256",
          "name": "max",
          "type": "uint256"
        }
      ],
      "name": "Overflow",
      "type": "error"
    },
    {
      "inputs": [
        {
          "internalType": "address",
          "name": "sender",
          "type": "address"
        },
        {
          "internalType": "address",
          "name": "owner",
          "type": "address"
        }
      ],
      "name": "OwnerOnly",
      "type": "error"
    },
    {
      "inputs": [],
      "name": "Paused",
      "type": "error"
    },
    {
      "inputs": [],
      "name": "ReentrancyGuard",
      "type": "error"
    },
    {
      "inputs": [
        {
          "internalType": "address",
          "name": "target",
          "type": "address"
        },
        {
          "internalType": "uint256",
          "name": "amount",
          "type": "uint256"
        },
        {
          "internalType": "uint256",
          "name": "batchNonce",
          "type": "uint256"
        }
      ],
      "name": "TargetAmountNotQueued",
      "type": "error"
    },
    {
      "inputs": [
        {
          "internalType": "address",
          "name": "provided",
          "type": "address"
        },
        {
          "internalType": "address",
          "name": "expected",
          "type": "address"
        }
      ],
      "name": "TargetRelayerOnly",
      "type": "error"
    },
    {
      "inputs": [
        {
          "internalType": "address",
          "name": "token",
          "type": "address"
        },
        {
          "internalType": "address",
          "name": "from",
          "type": "address"
        },
        {
          "internalType": "address",
          "name": "to",
          "type": "address"
        },
        {
          "internalType": "uint256",
          "name": "amount",
          "type": "uint256"
        }
      ],
      "name": "TransferFailed",
      "type": "error"
    },
    {
      "inputs": [],
      "name": "Unpaused",
      "type": "error"
    },
    {
      "inputs": [
        {
          "internalType": "address",
          "name": "account",
          "type": "address"
        }
      ],
      "name": "WrongAccount",
      "type": "error"
    },
    {
      "inputs": [
        {
          "internalType": "uint256",
          "name": "provided",
          "type": "uint256"
        },
        {
          "internalType": "uint256",
          "name": "expected",
          "type": "uint256"
        }
      ],
      "name": "WrongAmount",
      "type": "error"
    },
    {
      "inputs": [
        {
          "internalType": "uint256",
          "name": "provided",
          "type": "uint256"
        },
        {
          "internalType": "uint256",
          "name": "expected",
          "type": "uint256"
        }
      ],
      "name": "WrongChainId",
      "type": "error"
    },
    {
      "inputs": [
        {
          "internalType": "address",
          "name": "provided",
          "type": "address"
        },
        {
          "internalType": "address",
          "name": "expected",
          "type": "address"
        }
      ],
      "name": "WrongMessageSender",
      "type": "error"
    },
    {
      "inputs": [
        {
          "internalType": "address",
          "name": "provided",
          "type": "address"
        },
        {
          "internalType": "address",
          "name": "expected",
          "type": "address"
        }
      ],
      "name": "WrongTokenAddress",
      "type": "error"
    },
    {
      "inputs": [],
      "name": "ZeroAddress",
      "type": "error"
    },
    {
      "inputs": [],
      "name": "ZeroValue",
      "type": "error"
    },
    {
      "anonymous": false,
      "inputs": [
        {
          "indexed": true,
          "internalType": "address",
          "name": "l2TargetDispenser",
          "type": "address"
        }
      ],
      "name": "L2TargetDispenserUpdated",
      "type": "event"
    },
    {
      "anonymous": false,
      "inputs": [
        {
          "indexed": true,
          "internalType": "uint256",
          "name": "sequence",
          "type": "uint256"
        },
        {
          "indexed": false,
          "internalType": "address[]",
          "name": "targets",
          "type": "address[]"
        },
        {
          "indexed": false,
          "internalType": "uint256[]",
          "name": "stakingIncentives",
          "type": "uint256[]"
        },
        {
          "indexed": false,
          "internalType": "uint256",
          "name": "transferAmount",
          "type": "uint256"
        }
      ],
      "name": "MessagePosted",
      "type": "event"
    },
    {
      "anonymous": false,
      "inputs": [
        {
          "indexed": true,
          "internalType": "address",
          "name": "l1Relayer",
          "type": "address"
        },
        {
          "indexed": true,
          "internalType": "uint256",
          "name": "chainId",
          "type": "uint256"
        },
        {
          "indexed": false,
          "internalType": "bytes",
          "name": "data",
          "type": "bytes"
        }
      ],
      "name": "MessageReceived",
      "type": "event"
    },
    {
      "inputs": [],
      "name": "BRIDGE_PAYLOAD_LENGTH",
      "outputs": [
        {
          "internalType": "uint256",
          "name": "",
          "type": "uint256"
        }
      ],
      "stateMutability": "view",
      "type": "function"
    },
    {
      "inputs": [],
      "name": "MAX_CHAIN_ID",
      "outputs": [
        {
          "internalType": "uint256",
          "name": "",
          "type": "uint256"
        }
      ],
      "stateMutability": "view",
      "type": "function"
    },
    {
      "inputs": [],
      "name": "MESSAGE_GAS_LIMIT",
      "outputs": [
        {
          "internalType": "uint256",
          "name": "",
          "type": "uint256"
        }
      ],
      "stateMutability": "view",
      "type": "function"
    },
    {
      "inputs": [],
      "name": "RECEIVE_MESSAGE",
      "outputs": [
        {
          "internalType": "bytes4",
          "name": "",
          "type": "bytes4"
        }
      ],
      "stateMutability": "view",
      "type": "function"
    },
    {
      "inputs": [],
      "name": "TOKEN_GAS_LIMIT",
      "outputs": [
        {
          "internalType": "uint256",
          "name": "",
          "type": "uint256"
        }
      ],
      "stateMutability": "view",
      "type": "function"
    },
    {
      "inputs": [],
      "name": "getBridgingDecimals",
      "outputs": [
        {
          "internalType": "uint256",
          "name": "",
          "type": "uint256"
        }
      ],
      "stateMutability": "pure",
      "type": "function"
    },
    {
      "inputs": [],
      "name": "l1Dispenser",
      "outputs": [
        {
          "internalType": "address",
          "name": "",
          "type": "address"
        }
      ],
      "stateMutability": "view",
      "type": "function"
    },
    {
      "inputs": [],
      "name": "l1MessageRelayer",
      "outputs": [
        {
          "internalType": "address",
          "name": "",
          "type": "address"
        }
      ],
      "stateMutability": "view",
      "type": "function"
    },
    {
      "inputs": [],
      "name": "l1TokenRelayer",
      "outputs": [
        {
          "internalType": "address",
          "name": "",
          "type": "address"
        }
      ],
      "stateMutability": "view",
      "type": "function"
    },
    {
      "inputs": [],
      "name": "l2TargetChainId",
      "outputs": [
        {
          "internalType": "uint256",
          "name": "",
          "type": "uint256"
        }
      ],
      "stateMutability": "view",
      "type": "function"
    },
    {
      "inputs": [],
      "name": "l2TargetDispenser",
      "outputs": [
        {
          "internalType": "address",
          "name": "",
          "type": "address"
        }
      ],
      "stateMutability": "view",
      "type": "function"
    },
    {
      "inputs": [],
      "name": "olas",
      "outputs": [
        {
          "internalType": "address",
          "name": "",
          "type": "address"
        }
      ],
      "stateMutability": "view",
      "type": "function"
    },
    {
      "inputs": [],
      "name": "olasL2",
      "outputs": [
        {
          "internalType": "address",
          "name": "",
          "type": "address"
        }
      ],
      "stateMutability": "view",
      "type": "function"
    },
    {
      "inputs": [],
      "name": "owner",
      "outputs": [
        {
          "internalType": "address",
          "name": "",
          "type": "address"
        }
      ],
      "stateMutability": "view",
      "type": "function"
    },
    {
      "inputs": [
        {
          "internalType": "bytes",
          "name": "data",
          "type": "bytes"
        }
      ],
      "name": "receiveMessage",
      "outputs": [],
      "stateMutability": "payable",
      "type": "function"
    },
    {
      "inputs": [
        {
          "internalType": "address",
          "name": "target",
          "type": "address"
        },
        {
          "internalType": "uint256",
          "name": "stakingIncentive",
          "type": "uint256"
        },
        {
          "internalType": "bytes",
          "name": "bridgePayload",
          "type": "bytes"
        },
        {
          "internalType": "uint256",
          "name": "transferAmount",
          "type": "uint256"
        }
      ],
      "name": "sendMessage",
      "outputs": [],
      "stateMutability": "payable",
      "type": "function"
    },
    {
      "inputs": [
        {
          "internalType": "address[]",
          "name": "targets",
          "type": "address[]"
        },
        {
          "internalType": "uint256[]",
          "name": "stakingIncentives",
          "type": "uint256[]"
        },
        {
          "internalType": "bytes",
          "name": "bridgePayload",
          "type": "bytes"
        },
        {
          "internalType": "uint256",
          "name": "transferAmount",
          "type": "uint256"
        }
      ],
      "name": "sendMessageBatch",
      "outputs": [],
      "stateMutability": "payable",
      "type": "function"
    },
    {
      "inputs": [
        {
          "internalType": "address",
          "name": "l2Dispenser",
          "type": "address"
        }
      ],
      "name": "setL2TargetDispenser",
      "outputs": [],
      "stateMutability": "nonpayable",
      "type": "function"
    },
    {
      "inputs": [],
      "name": "stakingBatchNonce",
      "outputs": [
        {
          "internalType": "uint256",
          "name": "",
          "type": "uint256"
        }
      ],
      "stateMutability": "view",
      "type": "function"
    }
  ],
  "bytecode": "0x610140604052348015610010575f80fd5b5060405161187e38038061187e83398101604081905261002f916101a4565b85858585856001600160a01b038416158061005157506001600160a01b038316155b8061006357506001600160a01b038216155b156100815760405163d92e233d60e01b815260040160405180910390fd5b805f036100a157604051637c946ed760e01b815260040160405180910390fd5b60246100b560026001600160401b0361020d565b6100bf919061023e565b6001600160401b031681111561011d578060246100e460026001600160401b0361020d565b6100ee919061023e565b604051637ae5968560e01b815260048101929092526001600160401b0316602482015260440160405180910390fd5b6001600160a01b0394851660805292841660a05290831660c052821660e05261010052600180546001600160a01b0319163317905581166101715760405163d92e233d60e01b815260040160405180910390fd5b6001600160a01b031661012052506102719350505050565b80516001600160a01b038116811461019f575f80fd5b919050565b5f805f805f8060c087890312156101b9575f80fd5b6101c287610189565b95506101d060208801610189565b94506101de60408801610189565b93506101ec60608801610189565b92506080870151915061020160a08801610189565b90509295509295509295565b5f6001600160401b038381168061023257634e487b7160e01b5f52601260045260245ffd5b92169190910492915050565b6001600160401b0382811682821603908082111561026a57634e487b7160e01b5f52601160045260245ffd5b5092915050565b60805160a05160c05160e05161010051610120516115566103285f395f818161032c0152610a1201525f818161039801528181610e320152610ece01525f81816101a10152818161070c01528181610cba01528181610d350152610da201525f81816102da0152818161091d0152610a6101525f81816103e90152818161048c015281816104e10152818161061b015281816106700152610efe01525f81816101510152818161094c01526109ea01526115565ff3fe60806040526004361061013c575f3560e01c8063a0726ffa116100bb578063e309fb7711610071578063f4427c2c11610057578063f4427c2c1461040b578063f953cec714610420578063f9fc3c2114610433575f80fd5b8063e309fb77146103ba578063f2541c35146103d8575f80fd5b8063b2267a7b116100a1578063b2267a7b14610361578063bde5266114610374578063c23cc3ff14610387575f80fd5b8063a0726ffa1461031b578063a8b2ae021461034e575f80fd5b806354d20cc2116101105780635bc105c0116100f65780635bc105c0146102b55780636143fe93146102c95780638da5cb5b146102fc575f80fd5b806354d20cc2146101fb57806354e4bbf414610294575f80fd5b806231d115146101405780633d1f8679146101905780634c1c6cbf146101c35780634ece6b17146101e7575b5f80fd5b34801561014b575f80fd5b506101737f000000000000000000000000000000000000000000000000000000000000000081565b6040516001600160a01b0390911681526020015b60405180910390f35b34801561019b575f80fd5b506101737f000000000000000000000000000000000000000000000000000000000000000081565b3480156101ce575f80fd5b506101d9620493e081565b604051908152602001610187565b3480156101f2575f80fd5b506101d9604081565b348015610206575f80fd5b5060408051808201909152601581527f726563656976654d6573736167652862797465732900000000000000000000006020909101526102637ff953cec75ae677942d7cda5cb6d12c0cb96a0904bf37d36301eef297b83c411d81565b6040517fffffffff000000000000000000000000000000000000000000000000000000009091168152602001610187565b34801561029f575f80fd5b506102b36102ae366004610f77565b610449565b005b3480156102c0575f80fd5b506101d9610455565b3480156102d4575f80fd5b506101737f000000000000000000000000000000000000000000000000000000000000000081565b348015610307575f80fd5b50600154610173906001600160a01b031681565b348015610326575f80fd5b506101737f000000000000000000000000000000000000000000000000000000000000000081565b348015610359575f80fd5b5060126101d9565b6102b361036f366004611063565b610481565b6102b361038236600461114f565b610610565b348015610392575f80fd5b506101d97f000000000000000000000000000000000000000000000000000000000000000081565b3480156103c5575f80fd5b505f54610173906001600160a01b031681565b3480156103e3575f80fd5b506101737f000000000000000000000000000000000000000000000000000000000000000081565b348015610416575f80fd5b506101d960025481565b6102b361042e366004611224565b610709565b34801561043e575f80fd5b506101d9621e848081565b6104528161079b565b50565b602461046a600267ffffffffffffffff61128b565b61047491906112d6565b67ffffffffffffffff1681565b336001600160a01b037f00000000000000000000000000000000000000000000000000000000000000001614610519576040517f625a43fe0000000000000000000000000000000000000000000000000000000081526001600160a01b037f00000000000000000000000000000000000000000000000000000000000000001660048201523360248201526044015b60405180910390fd5b6040805160018082528183019092525f916020808301908036833701905050905084815f8151811061054d5761054d6112fe565b6001600160a01b0392909216602092830291909101909101526040805160018082528183019092525f9181602001602082028036833701905050905084815f8151811061059c5761059c6112fe565b6020026020010181815250505f6105b58383878761089e565b600280549192505f6105c68361132b565b9190505550807f9a5db7eed66b0161b9861a53b42de123e042dbe1f1734a7d032402926063fe328484876040516105ff939291906113d4565b60405180910390a250505050505050565b336001600160a01b037f000000000000000000000000000000000000000000000000000000000000000016146106a3576040517f625a43fe0000000000000000000000000000000000000000000000000000000081526001600160a01b037f0000000000000000000000000000000000000000000000000000000000000000166004820152336024820152604401610510565b5f6106b08585858561089e565b600280549192505f6106c18361132b565b9190505550807f9a5db7eed66b0161b9861a53b42de123e042dbe1f1734a7d032402926063fe328686856040516106fa939291906113d4565b60405180910390a25050505050565b5f7f00000000000000000000000000000000000000000000000000000000000000006001600160a01b0316636e296e456040518163ffffffff1660e01b8152600401602060405180830381865afa158015610766573d5f803e3d5ffd5b505050506040513d601f19601f8201168201806040525081019061078a9190611409565b9050610797338284610d33565b5050565b6001546001600160a01b031633146107f4576001546040517fa43d6ada0000000000000000000000000000000000000000000000000000000081526001600160a01b039091166004820152336024820152604401610510565b6001600160a01b038116610834576040517fd92e233d00000000000000000000000000000000000000000000000000000000815260040160405180910390fd5b5f80546001600160a01b0383167fffffffffffffffffffffffff0000000000000000000000000000000000000000918216811783556001805490921690915560405190917f991aa5c8f67a92f8feb202de828958c681966ae343fcf6db040f5f8099d547cf91a250565b5f60408351146108e7578251604080517f34c9027a0000000000000000000000000000000000000000000000000000000081526105109290600401918252602082015260400190565b8115610ab9576040517f095ea7b30000000000000000000000000000000000000000000000000000000081526001600160a01b037f000000000000000000000000000000000000000000000000000000000000000081166004830152602482018490527f0000000000000000000000000000000000000000000000000000000000000000169063095ea7b3906044016020604051808303815f875af1158015610992573d5f803e3d5ffd5b505050506040513d601f19601f820116820180604052508101906109b69190611424565b505f80546040517f838b25200000000000000000000000000000000000000000000000000000000081526001600160a01b037f0000000000000000000000000000000000000000000000000000000000000000811660048301527f000000000000000000000000000000000000000000000000000000000000000081166024830152918216604482015260648101859052620493e0608482015260c060a482015260c48101929092527f0000000000000000000000000000000000000000000000000000000000000000169063838b25209060e4015f604051808303815f87803b158015610aa2575f80fd5b505af1158015610ab4573d5f803e3d5ffd5b505050505b5f8084806020019051810190610acf9190611443565b91509150815f1480610adf575080155b15610b16576040517f7c946ed700000000000000000000000000000000000000000000000000000000815260040160405180910390fd5b621e8480811115610b5f576040517f7ae5968500000000000000000000000000000000000000000000000000000000815260048101829052621e84806024820152604401610510565b34821115610ba2576040517f491a2bb100000000000000000000000000000000000000000000000000000000815234600482015260248101839052604401610510565b604080518082018252601581527f726563656976654d65737361676528627974657329000000000000000000000060209182015290515f917ff953cec75ae677942d7cda5cb6d12c0cb96a0904bf37d36301eef297b83c411d91610c0a918b918b9101611465565b60408051601f1981840301815290829052610c27916024016114c0565b60408051601f198184030181529181526020820180517bffffffffffffffffffffffffffffffffffffffffffffffffffffffff167fffffffff00000000000000000000000000000000000000000000000000000000909416939093179092525f5491517f3dbb202b0000000000000000000000000000000000000000000000000000000081529092506001600160a01b037f0000000000000000000000000000000000000000000000000000000000000000811692633dbb202b928792610cf6921690869088906004016114d2565b5f604051808303818588803b158015610d0d575f80fd5b505af1158015610d1f573d5f803e3d5ffd5b50506002549b9a5050505050505050505050565b7f00000000000000000000000000000000000000000000000000000000000000006001600160a01b0316836001600160a01b031614610dcf576040517f2f3111fa0000000000000000000000000000000000000000000000000000000081523360048201526001600160a01b037f0000000000000000000000000000000000000000000000000000000000000000166024820152604401610510565b5f546001600160a01b03838116911614610e2b575f546040517f0d16cbdd0000000000000000000000000000000000000000000000000000000081526001600160a01b0380851660048301529091166024820152604401610510565b5f546040517f0000000000000000000000000000000000000000000000000000000000000000916001600160a01b0316907f98bbde530ec85b002f6fb0864beccaaf3ac3d2a4ac35cb3b03cf7c61ee415e3390610e899085906114c0565b60405180910390a35f81806020019051810190610ea69190611509565b6040517f59a8dfb90000000000000000000000000000000000000000000000000000000081527f00000000000000000000000000000000000000000000000000000000000000006004820152602481018290529091507f00000000000000000000000000000000000000000000000000000000000000006001600160a01b0316906359a8dfb9906044015f604051808303815f87803b158015610f47575f80fd5b505af1158015610f59573d5f803e3d5ffd5b5050505050505050565b6001600160a01b0381168114610452575f80fd5b5f60208284031215610f87575f80fd5b8135610f9281610f63565b9392505050565b7f4e487b71000000000000000000000000000000000000000000000000000000005f52604160045260245ffd5b604051601f8201601f1916810167ffffffffffffffff81118282101715610fef57610fef610f99565b604052919050565b5f82601f830112611006575f80fd5b813567ffffffffffffffff81111561102057611020610f99565b6110336020601f19601f84011601610fc6565b818152846020838601011115611047575f80fd5b816020850160208301375f918101602001919091529392505050565b5f805f8060808587031215611076575f80fd5b843561108181610f63565b935060208501359250604085013567ffffffffffffffff8111156110a3575f80fd5b6110af87828801610ff7565b949793965093946060013593505050565b5f67ffffffffffffffff8211156110d9576110d9610f99565b5060051b60200190565b5f82601f8301126110f2575f80fd5b81356020611107611102836110c0565b610fc6565b8083825260208201915060208460051b870101935086841115611128575f80fd5b602086015b84811015611144578035835291830191830161112d565b509695505050505050565b5f805f8060808587031215611162575f80fd5b843567ffffffffffffffff80821115611179575f80fd5b818701915087601f83011261118c575f80fd5b8135602061119c611102836110c0565b82815260059290921b8401810191818101908b8411156111ba575f80fd5b948201945b838610156111e15785356111d281610f63565b825294820194908201906111bf565b985050880135925050808211156111f6575f80fd5b611202888389016110e3565b94506040870135915080821115611217575f80fd5b506110af87828801610ff7565b5f60208284031215611234575f80fd5b813567ffffffffffffffff81111561124a575f80fd5b61125684828501610ff7565b949350505050565b7f4e487b71000000000000000000000000000000000000000000000000000000005f52601160045260245ffd5b5f67ffffffffffffffff808416806112ca577f4e487b71000000000000000000000000000000000000000000000000000000005f52601260045260245ffd5b92169190910492915050565b67ffffffffffffffff8281168282160390808211156112f7576112f761125e565b5092915050565b7f4e487b71000000000000000000000000000000000000000000000000000000005f52603260045260245ffd5b5f7fffffffffffffffffffffffffffffffffffffffffffffffffffffffffffffffff820361135b5761135b61125e565b5060010190565b5f815180845260208085019450602084015f5b8381101561139a5781516001600160a01b031687529582019590820190600101611375565b509495945050505050565b5f815180845260208085019450602084015f5b8381101561139a578151875295820195908201906001016113b8565b606081525f6113e66060830186611362565b82810360208401526113f881866113a5565b915050826040830152949350505050565b5f60208284031215611419575f80fd5b8151610f9281610f63565b5f60208284031215611434575f80fd5b81518015158114610f92575f80fd5b5f8060408385031215611454575f80fd5b505080516020909101519092909150565b604081525f6114776040830185611362565b828103602084015261148981856113a5565b95945050505050565b5f81518084528060208401602086015e5f602082860101526020601f19601f83011685010191505092915050565b602081525f610f926020830184611492565b6001600160a01b0384168152606060208201525f6114f36060830185611492565b905063ffffffff83166040830152949350505050565b5f60208284031215611519575f80fd5b505191905056fea26469706673582212204f454c35f62491921d3e8278e94ea8fe88e3ce7dce30ff96f71cc147df78055764736f6c63430008190033",
  "linkReferences": {},
  "deployedLinkReferences": {}
}