{
  "_format": "hh-sol-artifact-1",
  "contractName": "PolygonDepositProcessorL1",
  "sourceName": "contracts/staking/PolygonDepositProcessorL1.sol",
  "abi": [
    {
      "inputs": [
        {
          "internalType": "address",
          "name": "_olas",
          "type": "address"
        },
        {
          "internalType": "address",
          "name": "_l1Dispenser",
          "type": "address"
        },
        {
          "internalType": "address",
          "name": "_l1TokenRelayer",
          "type": "address"
        },
        {
          "internalType": "address",
          "name": "_l1MessageRelayer",
          "type": "address"
        },
        {
          "internalType": "uint256",
          "name": "_l2TargetChainId",
          "type": "uint256"
        },
        {
          "internalType": "address",
          "name": "_checkpointManager",
          "type": "address"
        },
        {
          "internalType": "address",
          "name": "_predicate",
          "type": "address"
        }
      ],
      "stateMutability": "nonpayable",
      "type": "constructor"
    },
    {
      "inputs": [
        {
          "internalType": "bytes32",
          "name": "deliveryHash",
          "type": "bytes32"
        }
      ],
      "name": "AlreadyDelivered",
      "type": "error"
    },
    {
      "inputs": [
        {
          "internalType": "uint256",
          "name": "expected",
          "type": "uint256"
        },
        {
          "internalType": "uint256",
          "name": "provided",
          "type": "uint256"
        }
      ],
      "name": "IncorrectDataLength",
      "type": "error"
    },
    {
      "inputs": [
        {
          "internalType": "uint256",
          "name": "provided",
          "type": "uint256"
        },
        {
          "internalType": "uint256",
          "name": "expected",
          "type": "uint256"
        }
      ],
      "name": "InsufficientBalance",
      "type": "error"
    },
    {
      "inputs": [
        {
          "internalType": "uint256",
          "name": "provided",
          "type": "uint256"
        },
        {
          "internalType": "uint256",
          "name": "expected",
          "type": "uint256"
        }
      ],
      "name": "LowerThan",
      "type": "error"
    },
    {
      "inputs": [
        {
          "internalType": "address",
          "name": "sender",
          "type": "address"
        },
        {
          "internalType": "address",
          "name": "manager",
          "type": "address"
        }
      ],
      "name": "ManagerOnly",
      "type": "error"
    },
    {
      "inputs": [
        {
          "internalType": "uint256",
          "name": "provided",
          "type": "uint256"
        },
        {
          "internalType": "uint256",
          "name": "max",
          "type": "uint256"
        }
      ],
      "name": "Overflow",
      "type": "error"
    },
    {
      "inputs": [
        {
          "internalType": "address",
          "name": "sender",
          "type": "address"
        },
        {
          "internalType": "address",
          "name": "owner",
          "type": "address"
        }
      ],
      "name": "OwnerOnly",
      "type": "error"
    },
    {
      "inputs": [],
      "name": "Paused",
      "type": "error"
    },
    {
      "inputs": [],
      "name": "ReentrancyGuard",
      "type": "error"
    },
    {
      "inputs": [
        {
          "internalType": "address",
          "name": "target",
          "type": "address"
        },
        {
          "internalType": "uint256",
          "name": "amount",
          "type": "uint256"
        },
        {
          "internalType": "bytes32",
          "name": "batchHash",
          "type": "bytes32"
        }
      ],
      "name": "TargetAmountNotQueued",
      "type": "error"
    },
    {
      "inputs": [
        {
          "internalType": "address",
          "name": "provided",
          "type": "address"
        },
        {
          "internalType": "address",
          "name": "expected",
          "type": "address"
        }
      ],
      "name": "TargetRelayerOnly",
      "type": "error"
    },
    {
      "inputs": [
        {
          "internalType": "address",
          "name": "token",
          "type": "address"
        },
        {
          "internalType": "address",
          "name": "from",
          "type": "address"
        },
        {
          "internalType": "address",
          "name": "to",
          "type": "address"
        },
        {
          "internalType": "uint256",
          "name": "amount",
          "type": "uint256"
        }
      ],
      "name": "TransferFailed",
      "type": "error"
    },
    {
      "inputs": [],
      "name": "Unpaused",
      "type": "error"
    },
    {
      "inputs": [
        {
          "internalType": "address",
          "name": "account",
          "type": "address"
        }
      ],
      "name": "WrongAccount",
      "type": "error"
    },
    {
      "inputs": [
        {
          "internalType": "uint256",
          "name": "provided",
          "type": "uint256"
        },
        {
          "internalType": "uint256",
          "name": "expected",
          "type": "uint256"
        }
      ],
      "name": "WrongAmount",
      "type": "error"
    },
    {
      "inputs": [
        {
          "internalType": "uint256",
          "name": "provided",
          "type": "uint256"
        },
        {
          "internalType": "uint256",
          "name": "expected",
          "type": "uint256"
        }
      ],
      "name": "WrongChainId",
      "type": "error"
    },
    {
      "inputs": [
        {
          "internalType": "address",
          "name": "provided",
          "type": "address"
        },
        {
          "internalType": "address",
          "name": "expected",
          "type": "address"
        }
      ],
      "name": "WrongMessageSender",
      "type": "error"
    },
    {
      "inputs": [
        {
          "internalType": "address",
          "name": "provided",
          "type": "address"
        },
        {
          "internalType": "address",
          "name": "expected",
          "type": "address"
        }
      ],
      "name": "WrongTokenAddress",
      "type": "error"
    },
    {
      "inputs": [],
      "name": "ZeroAddress",
      "type": "error"
    },
    {
      "inputs": [],
      "name": "ZeroValue",
      "type": "error"
    },
    {
      "anonymous": false,
      "inputs": [
        {
          "indexed": true,
          "internalType": "address",
          "name": "fxChildTunnel",
          "type": "address"
        }
      ],
      "name": "FxChildTunnelUpdated",
      "type": "event"
    },
    {
      "anonymous": false,
      "inputs": [
        {
          "indexed": true,
          "internalType": "address",
          "name": "l2TargetDispenser",
          "type": "address"
        }
      ],
      "name": "L2TargetDispenserUpdated",
      "type": "event"
    },
    {
      "anonymous": false,
      "inputs": [
        {
          "indexed": true,
          "internalType": "address",
          "name": "sender",
          "type": "address"
        },
        {
          "indexed": false,
          "internalType": "uint256",
          "name": "leftovers",
          "type": "uint256"
        }
      ],
      "name": "LeftoversRefunded",
      "type": "event"
    },
    {
      "anonymous": false,
      "inputs": [
        {
          "indexed": true,
          "internalType": "uint256",
          "name": "sequence",
          "type": "uint256"
        },
        {
          "indexed": false,
          "internalType": "address[]",
          "name": "targets",
          "type": "address[]"
        },
        {
          "indexed": false,
          "internalType": "uint256[]",
          "name": "stakingIncentives",
          "type": "uint256[]"
        },
        {
          "indexed": false,
          "internalType": "uint256",
          "name": "transferAmount",
          "type": "uint256"
        },
        {
          "indexed": true,
          "internalType": "bytes32",
          "name": "batchHash",
          "type": "bytes32"
        }
      ],
      "name": "MessagePosted",
      "type": "event"
    },
    {
      "anonymous": false,
      "inputs": [
        {
          "indexed": true,
          "internalType": "address",
          "name": "l1Relayer",
          "type": "address"
        },
        {
          "indexed": true,
          "internalType": "uint256",
          "name": "chainId",
          "type": "uint256"
        },
        {
          "indexed": false,
          "internalType": "bytes",
          "name": "data",
          "type": "bytes"
        }
      ],
      "name": "MessageReceived",
      "type": "event"
    },
    {
      "inputs": [],
      "name": "MAX_CHAIN_ID",
      "outputs": [
        {
          "internalType": "uint256",
          "name": "",
          "type": "uint256"
        }
      ],
      "stateMutability": "view",
      "type": "function"
    },
    {
      "inputs": [],
      "name": "MESSAGE_GAS_LIMIT",
      "outputs": [
        {
          "internalType": "uint256",
          "name": "",
          "type": "uint256"
        }
      ],
      "stateMutability": "view",
      "type": "function"
    },
    {
      "inputs": [],
      "name": "RECEIVE_MESSAGE",
      "outputs": [
        {
          "internalType": "bytes4",
          "name": "",
          "type": "bytes4"
        }
      ],
      "stateMutability": "view",
      "type": "function"
    },
    {
      "inputs": [],
      "name": "SEND_MESSAGE_EVENT_SIG",
      "outputs": [
        {
          "internalType": "bytes32",
          "name": "",
          "type": "bytes32"
        }
      ],
      "stateMutability": "view",
      "type": "function"
    },
    {
      "inputs": [],
      "name": "TOKEN_GAS_LIMIT",
      "outputs": [
        {
          "internalType": "uint256",
          "name": "",
          "type": "uint256"
        }
      ],
      "stateMutability": "view",
      "type": "function"
    },
    {
      "inputs": [],
      "name": "checkpointManager",
      "outputs": [
        {
          "internalType": "contract ICheckpointManager",
          "name": "",
          "type": "address"
        }
      ],
      "stateMutability": "view",
      "type": "function"
    },
    {
      "inputs": [],
      "name": "fxChildTunnel",
      "outputs": [
        {
          "internalType": "address",
          "name": "",
          "type": "address"
        }
      ],
      "stateMutability": "view",
      "type": "function"
    },
    {
      "inputs": [],
      "name": "fxRoot",
      "outputs": [
        {
          "internalType": "contract IFxStateSender",
          "name": "",
          "type": "address"
        }
      ],
      "stateMutability": "view",
      "type": "function"
    },
    {
      "inputs": [],
      "name": "getBridgingDecimals",
      "outputs": [
        {
          "internalType": "uint256",
          "name": "",
          "type": "uint256"
        }
      ],
      "stateMutability": "pure",
      "type": "function"
    },
    {
      "inputs": [],
      "name": "l1Dispenser",
      "outputs": [
        {
          "internalType": "address",
          "name": "",
          "type": "address"
        }
      ],
      "stateMutability": "view",
      "type": "function"
    },
    {
      "inputs": [],
      "name": "l1MessageRelayer",
      "outputs": [
        {
          "internalType": "address",
          "name": "",
          "type": "address"
        }
      ],
      "stateMutability": "view",
      "type": "function"
    },
    {
      "inputs": [],
      "name": "l1TokenRelayer",
      "outputs": [
        {
          "internalType": "address",
          "name": "",
          "type": "address"
        }
      ],
      "stateMutability": "view",
      "type": "function"
    },
    {
      "inputs": [],
      "name": "l2TargetChainId",
      "outputs": [
        {
          "internalType": "uint256",
          "name": "",
          "type": "uint256"
        }
      ],
      "stateMutability": "view",
      "type": "function"
    },
    {
      "inputs": [],
      "name": "l2TargetDispenser",
      "outputs": [
        {
          "internalType": "address",
          "name": "",
          "type": "address"
        }
      ],
      "stateMutability": "view",
      "type": "function"
    },
    {
      "inputs": [],
      "name": "olas",
      "outputs": [
        {
          "internalType": "address",
          "name": "",
          "type": "address"
        }
      ],
      "stateMutability": "view",
      "type": "function"
    },
    {
      "inputs": [],
      "name": "owner",
      "outputs": [
        {
          "internalType": "address",
          "name": "",
          "type": "address"
        }
      ],
      "stateMutability": "view",
      "type": "function"
    },
    {
      "inputs": [],
      "name": "predicate",
      "outputs": [
        {
          "internalType": "address",
          "name": "",
          "type": "address"
        }
      ],
      "stateMutability": "view",
      "type": "function"
    },
    {
      "inputs": [
        {
          "internalType": "bytes32",
          "name": "",
          "type": "bytes32"
        }
      ],
      "name": "processedExits",
      "outputs": [
        {
          "internalType": "bool",
          "name": "",
          "type": "bool"
        }
      ],
      "stateMutability": "view",
      "type": "function"
    },
    {
      "inputs": [
        {
          "internalType": "bytes32",
          "name": "",
          "type": "bytes32"
        }
      ],
      "name": "processedHashes",
      "outputs": [
        {
          "internalType": "bool",
          "name": "",
          "type": "bool"
        }
      ],
      "stateMutability": "view",
      "type": "function"
    },
    {
      "inputs": [
        {
          "internalType": "bytes",
          "name": "inputData",
          "type": "bytes"
        }
      ],
      "name": "receiveMessage",
      "outputs": [],
      "stateMutability": "nonpayable",
      "type": "function"
    },
    {
      "inputs": [
        {
          "internalType": "address",
          "name": "target",
          "type": "address"
        },
        {
          "internalType": "uint256",
          "name": "stakingIncentive",
          "type": "uint256"
        },
        {
          "internalType": "bytes",
          "name": "bridgePayload",
          "type": "bytes"
        },
        {
          "internalType": "uint256",
          "name": "transferAmount",
          "type": "uint256"
        }
      ],
      "name": "sendMessage",
      "outputs": [],
      "stateMutability": "payable",
      "type": "function"
    },
    {
      "inputs": [
        {
          "internalType": "address[]",
          "name": "targets",
          "type": "address[]"
        },
        {
          "internalType": "uint256[]",
          "name": "stakingIncentives",
          "type": "uint256[]"
        },
        {
          "internalType": "bytes",
          "name": "bridgePayload",
          "type": "bytes"
        },
        {
          "internalType": "uint256",
          "name": "transferAmount",
          "type": "uint256"
        }
      ],
      "name": "sendMessageBatch",
      "outputs": [],
      "stateMutability": "payable",
      "type": "function"
    },
    {
      "inputs": [
        {
          "internalType": "address",
          "name": "l2Dispenser",
          "type": "address"
        }
      ],
      "name": "setFxChildTunnel",
      "outputs": [],
      "stateMutability": "nonpayable",
      "type": "function"
    },
    {
      "inputs": [
        {
          "internalType": "address",
          "name": "l2Dispenser",
          "type": "address"
        }
      ],
      "name": "setL2TargetDispenser",
      "outputs": [],
      "stateMutability": "nonpayable",
      "type": "function"
    },
    {
      "inputs": [],
      "name": "stakingBatchNonce",
      "outputs": [
        {
          "internalType": "uint256",
          "name": "",
          "type": "uint256"
        }
      ],
      "stateMutability": "view",
      "type": "function"
    },
    {
      "inputs": [
        {
          "internalType": "bytes32",
          "name": "batchHash",
          "type": "bytes32"
        }
      ],
      "name": "updateHashMaintenance",
      "outputs": [],
      "stateMutability": "nonpayable",
      "type": "function"
    }
  ],
  "bytecode": "0x610140604052348015610010575f80fd5b506040516131dc3803806131dc83398101604081905261002f916101df565b818488888883886001600160a01b038416158061005357506001600160a01b038316155b8061006557506001600160a01b038216155b156100835760405163d92e233d60e01b815260040160405180910390fd5b805f036100a357604051637c946ed760e01b815260040160405180910390fd5b60246100b760026001600160401b03610259565b6100c1919061028a565b6001600160401b031681111561011f578060246100e660026001600160401b03610259565b6100f0919061028a565b604051637ae5968560e01b815260048101929092526001600160401b0316602482015260440160405180910390fd5b6001600160a01b0394851660805292841660a05290831660c052821660e0526101005260018054336001600160a01b0319918216179091556005805482169483169490941790935560048054909316918116919091179091558216158061018d57506001600160a01b038116155b156101ab5760405163d92e233d60e01b815260040160405180910390fd5b6001600160a01b031661012052506102bd945050505050565b80516001600160a01b03811681146101da575f80fd5b919050565b5f805f805f805f60e0888a0312156101f5575f80fd5b6101fe886101c4565b965061020c602089016101c4565b955061021a604089016101c4565b9450610228606089016101c4565b93506080880151925061023d60a089016101c4565b915061024b60c089016101c4565b905092959891949750929550565b5f6001600160401b038381168061027e57634e487b7160e01b5f52601260045260245ffd5b92169190910492915050565b6001600160401b038281168282160390808211156102b657634e487b7160e01b5f52601160045260245ffd5b5092915050565b60805160a05160c05160e0516101005161012051612e686103745f395f81816105380152610c7101525f81816104c801528181611cc50152611db101525f818161027c0152818161113601528181611bc80152611c3501525f81816103c10152610d2201525f818161056b0152818161061a01528181610656015281816107be015281816107fa015281816109ef01528181610a2b0152611ded01525f81816101ad01528181610ca00152610d4f0152612e685ff3fe608060405260043610610198575f3560e01c8063ac65ded2116100dc578063de9b771f11610087578063f2541c3511610062578063f2541c351461055a578063f4427c2c1461058d578063f953cec7146105a2578063f9fc3c21146105c1575f80fd5b8063de9b771f146104ea578063e309fb7714610509578063e619870514610527575f80fd5b8063bde52661116100b7578063bde5266114610485578063c0857ba014610498578063c23cc3ff146104b7575f80fd5b8063ac65ded214610434578063aea4e49e14610453578063b2267a7b14610472575f80fd5b806354e4bbf4116101475780636143fe93116101225780636143fe93146103b05780638da5cb5b146103e3578063972c492814610402578063a8b2ae0214610421575f80fd5b806354e4bbf41461034d5780635bc105c01461036e578063607f2d4214610382575f80fd5b80633d1f8679116101775780633d1f86791461026b5780634c1c6cbf1461029e57806354d20cc2146102b4575f80fd5b806231d1151461019c57806307d9c534146101ec5780630e387de61461022a575b5f80fd5b3480156101a7575f80fd5b506101cf7f000000000000000000000000000000000000000000000000000000000000000081565b6040516001600160a01b0390911681526020015b60405180910390f35b3480156101f7575f80fd5b5061021a61020636600461269c565b60036020525f908152604090205460ff1681565b60405190151581526020016101e3565b348015610235575f80fd5b5061025d7f8c5261668696ce22758910d05bab8f186d6eb247ceac2af2e82c7dc17669b03681565b6040519081526020016101e3565b348015610276575f80fd5b506101cf7f000000000000000000000000000000000000000000000000000000000000000081565b3480156102a9575f80fd5b5061025d620493e081565b3480156102bf575f80fd5b5060408051808201909152601581527f726563656976654d65737361676528627974657329000000000000000000000060209091015261031c7ff953cec75ae677942d7cda5cb6d12c0cb96a0904bf37d36301eef297b83c411d81565b6040517fffffffff0000000000000000000000000000000000000000000000000000000090911681526020016101e3565b348015610358575f80fd5b5061036c6103673660046126c7565b6105d7565b005b348015610379575f80fd5b5061025d6105e3565b34801561038d575f80fd5b5061021a61039c36600461269c565b60076020525f908152604090205460ff1681565b3480156103bb575f80fd5b506101cf7f000000000000000000000000000000000000000000000000000000000000000081565b3480156103ee575f80fd5b506001546101cf906001600160a01b031681565b34801561040d575f80fd5b506006546101cf906001600160a01b031681565b34801561042c575f80fd5b50601261025d565b34801561043f575f80fd5b5061036c61044e36600461269c565b61060f565b34801561045e575f80fd5b5061036c61046d3660046126c7565b6106da565b61036c6104803660046127a0565b6107b3565b61036c610493366004612887565b6109e4565b3480156104a3575f80fd5b506005546101cf906001600160a01b031681565b3480156104c2575f80fd5b5061025d7f000000000000000000000000000000000000000000000000000000000000000081565b3480156104f5575f80fd5b506004546101cf906001600160a01b031681565b348015610514575f80fd5b505f546101cf906001600160a01b031681565b348015610532575f80fd5b506101cf7f000000000000000000000000000000000000000000000000000000000000000081565b348015610565575f80fd5b506101cf7f000000000000000000000000000000000000000000000000000000000000000081565b348015610598575f80fd5b5061025d60025481565b3480156105ad575f80fd5b5061036c6105bc36600461295c565b610b4f565b3480156105cc575f80fd5b5061025d621e848081565b6105e0816106da565b50565b60246105f8600267ffffffffffffffff6129b6565b61060291906129dc565b67ffffffffffffffff1681565b336001600160a01b037f0000000000000000000000000000000000000000000000000000000000000000161461068e5760405163312d21ff60e11b81526001600160a01b037f00000000000000000000000000000000000000000000000000000000000000001660048201523360248201526044015b60405180910390fd5b5f8181526003602052604090205460ff16156106c0576040516356bc34a160e01b815260048101829052602401610685565b5f908152600360205260409020805460ff19166001179055565b6001546001600160a01b0316331461071a5760015460405163521eb56d60e11b81523360048201526001600160a01b039091166024820152604401610685565b6001600160a01b0381166107415760405163d92e233d60e01b815260040160405180910390fd5b600680547fffffffffffffffffffffffff0000000000000000000000000000000000000000166001600160a01b03831617905561077d81610b68565b6040516001600160a01b038216907fa9bdbd6b528cbfc0588f52c3a4ec11bc3f60d0113e60e778f5c42ff7599eef9c905f90a250565b336001600160a01b037f0000000000000000000000000000000000000000000000000000000000000000161461082d5760405163312d21ff60e11b81526001600160a01b037f0000000000000000000000000000000000000000000000000000000000000000166004820152336024820152604401610685565b6040805160018082528183019092525f916020808301908036833701905050905084815f81518110610861576108616129fd565b6001600160a01b0392909216602092830291909101909101526040805160018082528183019092525f9181602001602082028036833701905050905084815f815181106108b0576108b06129fd565b602090810291909101810191909152600254604080519283018290524690830152306060830152905f906080016040516020818303038152906040528051906020012090505f8061090486868a8a87610c39565b9092509050801561098a57604051329082905f81818185875af1925050503d805f811461094c576040519150601f19603f3d011682016040523d82523d5f602084013e610951565b606091505b50506040518281523291507f8e49ed3e274fbea1556bdfaa9a37a0c28445bfe26d57beaf9f04fd517aa417419060200160405180910390a25b610995846001612a11565b60028190555082827f621aece9999edf4d664a3855f668f6fc380937a42044234fd883b42d0485118788888b6040516109d093929190612a96565b60405180910390a350505050505050505050565b336001600160a01b037f00000000000000000000000000000000000000000000000000000000000000001614610a5e5760405163312d21ff60e11b81526001600160a01b037f0000000000000000000000000000000000000000000000000000000000000000166004820152336024820152604401610685565b600254604080516020810183905246918101919091523060608201525f906080016040516020818303038152906040528051906020012090505f80610aa68888888887610c39565b90925090508015610af757604051329082905f81818185875af1925050503d805f8114610aee576040519150601f19603f3d011682016040523d82523d5f602084013e610af3565b606091505b5050505b610b02846001612a11565b60028190555082827f621aece9999edf4d664a3855f668f6fc380937a42044234fd883b42d048511878a8a89604051610b3d93929190612a96565b60405180910390a35050505050505050565b5f610b5982610e09565b9050610b648161112e565b5050565b6001546001600160a01b03163314610ba85760015460405163521eb56d60e11b81526001600160a01b039091166004820152336024820152604401610685565b6001600160a01b038116610bcf5760405163d92e233d60e01b815260040160405180910390fd5b5f80546001600160a01b0383167fffffffffffffffffffffffff0000000000000000000000000000000000000000918216811783556001805490921690915560405190917f991aa5c8f67a92f8feb202de828958c681966ae343fcf6db040f5f8099d547cf91a250565b5f808315610dcb576040517f095ea7b30000000000000000000000000000000000000000000000000000000081526001600160a01b037f000000000000000000000000000000000000000000000000000000000000000081166004830152602482018690527f0000000000000000000000000000000000000000000000000000000000000000169063095ea7b3906044016020604051808303815f875af1158015610ce6573d5f803e3d5ffd5b505050506040513d601f19601f82011682018060405250810190610d0a9190612acb565b505f5460408051602081018790526001600160a01b037f000000000000000000000000000000000000000000000000000000000000000081169363e3dec8fb939116917f000000000000000000000000000000000000000000000000000000000000000091016040516020818303038152906040526040518463ffffffff1660e01b8152600401610d9d93929190612b18565b5f604051808303815f87803b158015610db4575f80fd5b505af1158015610dc6573d5f803e3d5ffd5b505050505b5f878785604051602001610de193929190612a96565b6040516020818303038152906040529050610dfb81611165565b509196349650945050505050565b60605f610e15836111e2565b90505f610e218261123f565b90505f610e2d8361126d565b90505f81610e3a84611294565b610e4386611470565b604051602001610e5593929190612b4c565b60408051601f1981840301815291815281516020928301205f818152600790935291205490915060ff1615610ef15760405162461bcd60e51b8152602060048201526024808201527f4678526f6f7454756e6e656c3a20455849545f414c52454144595f50524f434560448201527f53534544000000000000000000000000000000000000000000000000000000006064820152608401610685565b5f818152600760205260408120805460ff19166001179055610f128561148a565b90505f610f1e826115ce565b9050610f298161165b565b6006546001600160a01b03908116911614610fac5760405162461bcd60e51b815260206004820152602560248201527f4678526f6f7454756e6e656c3a20494e56414c49445f46585f4348494c445f5460448201527f554e4e454c0000000000000000000000000000000000000000000000000000006064820152608401610685565b5f610fb687611682565b9050610fd6610fc6846020015190565b87610fd08a61169c565b846116b7565b6110485760405162461bcd60e51b815260206004820152602360248201527f4678526f6f7454756e6e656c3a20494e56414c49445f524543454950545f505260448201527f4f4f4600000000000000000000000000000000000000000000000000000000006064820152608401610685565b611076856110558961194f565b61105e8a611969565b846110688c611983565b6110718d61199c565b6119b7565b5f61108083611aed565b90507f8c5261668696ce22758910d05bab8f186d6eb247ceac2af2e82c7dc17669b0366110b56110b0835f611b29565b611b60565b146111025760405162461bcd60e51b815260206004820152601f60248201527f4678526f6f7454756e6e656c3a20494e56414c49445f5349474e4154555245006044820152606401610685565b5f61110c84611baa565b80602001905181019061111f9190612b71565b9b9a5050505050505050505050565b5f546105e0907f0000000000000000000000000000000000000000000000000000000000000000906001600160a01b031683611bc6565b600480546006546040517fb47204770000000000000000000000000000000000000000000000000000000081526001600160a01b039283169363b4720477936111b2931691869101612be6565b5f604051808303815f87803b1580156111c9575f80fd5b505af11580156111db573d5f803e3d5ffd5b5050505050565b6040805160208101909152606081525f61122a611225846040805180820182525f8082526020918201528151808301909252825182529182019181019190915290565b611e40565b60408051602081019091529081529392505050565b6060611267825f015160088151811061125a5761125a6129fd565b6020026020010151611f46565b92915050565b5f611267825f0151600281518110611287576112876129fd565b6020026020010151611b60565b60408051602081019091525f815281516060919015611267575f806112b95f86611fc1565b60f81c905060018114806112d057508060ff166003145b1561138d576001855160026112e59190612c07565b6112ef9190612c1e565b67ffffffffffffffff811115611307576113076126e2565b6040519080825280601f01601f191660200182016040528015611331576020820181803683370190505b5092505f611340600187611fc1565b905080845f81518110611355576113556129fd565b60200101907effffffffffffffffffffffffffffffffffffffffffffffffffffffffffffff191690815f1a90535060019250506113f0565b60028551600261139d9190612c07565b6113a79190612c1e565b67ffffffffffffffff8111156113bf576113bf6126e2565b6040519080825280601f01601f1916602001820160405280156113e9576020820181803683370190505b5092505f91505b60ff82165b83518110156114675761141f61140e60ff851683612c1e565b611419906002612a11565b87611fc1565b848281518110611431576114316129fd565b60200101907effffffffffffffffffffffffffffffffffffffffffffffffffffffffffffff191690815f1a9053506001016113f5565b50505092915050565b5f611267825f0151600981518110611287576112876129fd565b6114ad604051806060016040528060608152602001606081526020015f81525090565b6114c6825f015160068151811061125a5761125a6129fd565b60208281018290526040805180820182525f80825290830152805180820190915282518152918101908201526114fb81612041565b156115105761150981611e40565b82526115ba565b602082015180515f9061152590600190612c1e565b67ffffffffffffffff81111561153d5761153d6126e2565b6040519080825280601f01601f191660200182016040528015611567576020820181803683370190505b5090505f8083602101915082602001905061158482828551612078565b6040805180820182525f808252602091820152815180830190925284518252808501908201526115b390611e40565b8652505050505b6115c383611470565b604083015250919050565b604080516080810182525f918101828152606080830193909352815260208101919091525f611619835f015160038151811061160c5761160c6129fd565b6020026020010151611e40565b83604001518151811061162e5761162e6129fd565b60200260200101519050604051806040016040528082815260200161165283611e40565b90529392505050565b5f61126782602001515f81518110611675576116756129fd565b6020026020010151612100565b5f611267825f0151600581518110611287576112876129fd565b6060611267825f015160078151811061125a5761125a6129fd565b5f806116e9846040805180820182525f8082526020918201528151808301909252825182529182019181019190915290565b90505f6116f582611e40565b9050606080855f806117068b611294565b905080515f0361171f575f975050505050505050611947565b5f5b865181101561193e578151831115611743575f98505050505050505050611947565b611765878281518110611758576117586129fd565b6020026020010151612118565b955085805190602001208414611785575f98505050505050505050611947565b61179a87828151811061160c5761160c6129fd565b9450845160110361186957815183036117f8578c805190602001206117cb8660108151811061125a5761125a6129fd565b80519060200120036117e857600198505050505050505050611947565b5f98505050505050505050611947565b5f82848151811061180b5761180b6129fd565b016020015160f81c9050601081111561182f575f9950505050505050505050611947565b611854868260ff1681518110611847576118476129fd565b6020026020010151612192565b9450611861600185612a11565b935050611936565b84516002036117e8575f61189261188b875f8151811061125a5761125a6129fd565b84866121bd565b83519091506118a18286612a11565b036118f3578d805190602001206118c48760018151811061125a5761125a6129fd565b80519060200120036118e25760019950505050505050505050611947565b5f9950505050505050505050611947565b805f0361190b575f9950505050505050505050611947565b6119158185612a11565b935061192d86600181518110611847576118476129fd565b94506119369050565b600101611721565b50505050505050505b949350505050565b5f611267825f0151600381518110611287576112876129fd565b5f611267825f0151600481518110611287576112876129fd565b5f611267825f01515f81518110611287576112876129fd565b6060611267825f015160018151811061125a5761125a6129fd565b6005546040517f41539d4a000000000000000000000000000000000000000000000000000000008152600481018490525f91829182916001600160a01b0316906341539d4a9060240160a060405180830381865afa158015611a1b573d5f803e3d5ffd5b505050506040513d601f19601f82011682018060405250810190611a3f9190612c31565b5093505092509250611a96828a611a569190612c1e565b6040805160208082018e90528183018d9052606082018c905260808083018c90528351808403909101815260a090920190925280519101209085876122e5565b611ae25760405162461bcd60e51b815260206004820152601c60248201527f4678526f6f7454756e6e656c3a20494e56414c49445f484541444552000000006044820152606401610685565b505050505050505050565b6040805160208101909152606081526040518060200160405280611b21846020015160018151811061160c5761160c6129fd565b905292915050565b604080518082019091525f80825260208201528251805183908110611b5057611b506129fd565b6020026020010151905092915050565b80515f9015801590611b7457508151602110155b611b7c575f80fd5b5f80611b878461245a565b8151919350915060208210156119475760208290036101000a9004949350505050565b6060611267826020015160028151811061125a5761125a6129fd565b7f00000000000000000000000000000000000000000000000000000000000000006001600160a01b0316836001600160a01b031614611c62576040517f2f3111fa0000000000000000000000000000000000000000000000000000000081523360048201526001600160a01b037f0000000000000000000000000000000000000000000000000000000000000000166024820152604401610685565b5f546001600160a01b03838116911614611cbe575f546040517f0d16cbdd0000000000000000000000000000000000000000000000000000000081526001600160a01b0380851660048301529091166024820152604401610685565b5f546040517f0000000000000000000000000000000000000000000000000000000000000000916001600160a01b0316907f98bbde530ec85b002f6fb0864beccaaf3ac3d2a4ac35cb3b03cf7c61ee415e3390611d1c908590612c7a565b60405180910390a35f8082806020019051810190611d3a9190612c8c565b5f81815260036020526040902054919350915060ff1615611d71576040516356bc34a160e01b815260048101829052602401610685565b5f8181526003602052604090819020805460ff19166001179055517f79bc81dd0000000000000000000000000000000000000000000000000000000081527f0000000000000000000000000000000000000000000000000000000000000000600482015260248101839052604481018290526001600160a01b037f000000000000000000000000000000000000000000000000000000000000000016906379bc81dd906064015f604051808303815f87803b158015611e2e575f80fd5b505af1158015611ae2573d5f803e3d5ffd5b6060611e4b82612041565b611e53575f80fd5b5f611e5d8361249c565b90505f8167ffffffffffffffff811115611e7957611e796126e2565b604051908082528060200260200182016040528015611ebd57816020015b604080518082019091525f8082526020820152815260200190600190039081611e975790505b5090505f611ece856020015161251c565b8560200151611edd9190612a11565b90505f805b84811015611f3b57611ef38361259c565b9150604051806040016040528083815260200184815250848281518110611f1c57611f1c6129fd565b6020908102919091010152611f318284612a11565b9250600101611ee2565b509195945050505050565b8051606090611f53575f80fd5b5f80611f5e8461245a565b915091505f8167ffffffffffffffff811115611f7c57611f7c6126e2565b6040519080825280601f01601f191660200182016040528015611fa6576020820181803683370190505b50905060208101611fb884828561263f565b50949350505050565b5f611fcd600284612cae565b1561200757601082611fe0600286612cc1565b81518110611ff057611ff06129fd565b0160200151612002919060f81c612cd4565b612037565b601082612015600286612cc1565b81518110612025576120256129fd565b0160200151612037919060f81c612cf5565b60f81b9392505050565b80515f90810361205257505f919050565b602082015180515f1a9060c082101561206e57505f9392505050565b5060019392505050565b805f0361208457505050565b602081106120bc578251825261209b602084612a11565b92506120a8602083612a11565b91506120b5602082612c1e565b9050612084565b805f036120c857505050565b5f60016120d6836020612c1e565b6120e290610100612df6565b6120ec9190612c1e565b935183518516941916939093179091525050565b80515f9060151461210f575f80fd5b61126782611b60565b60605f825f015167ffffffffffffffff811115612137576121376126e2565b6040519080825280601f01601f191660200182016040528015612161576020820181803683370190505b50905080515f036121725792915050565b5f81602001905061218b846020015182865f015161263f565b5092915050565b80515f906021146121a1575f80fd5b5f80836020015160016121b49190612a11565b51949350505050565b5f80806121c986611294565b90505f815167ffffffffffffffff8111156121e6576121e66126e2565b6040519080825280601f01601f191660200182016040528015612210576020820181803683370190505b509050845b82516122219087612a11565b8110156122b7575f87828151811061223b5761223b6129fd565b01602001517fff0000000000000000000000000000000000000000000000000000000000000016905080836122708985612c1e565b81518110612280576122806129fd565b60200101907effffffffffffffffffffffffffffffffffffffffffffffffffffffffffffff191690815f1a90535050600101612215565b5080805190602001208280519060200120036122d657815192506122da565b5f92505b509095945050505050565b5f602082516122f49190612cae565b156123415760405162461bcd60e51b815260206004820152601460248201527f496e76616c69642070726f6f66206c656e6774680000000000000000000000006044820152606401610685565b5f602083516123509190612cc1565b905061235d816002612df6565b85106123ab5760405162461bcd60e51b815260206004820152601560248201527f4c65616620696e64657820697320746f6f2062696700000000000000000000006044820152606401610685565b5f8660205b8551811161244c578581015192506123c9600289612cae565b5f0361240057604080516020810184905290810184905260600160405160208183030381529060405280519060200120915061242d565b60408051602081018590529081018390526060016040516020818303038152906040528051906020012091505b612438600289612cc1565b9750612445602082612a11565b90506123b0565b509094149695505050505050565b5f805f61246a846020015161251c565b90505f81856020015161247d9190612a11565b90505f82865f015161248f9190612c1e565b9196919550909350505050565b80515f9081036124ad57505f919050565b5f806124bc846020015161251c565b84602001516124cb9190612a11565b90505f845f015185602001516124e19190612a11565b90505b80821015612513576124f58261259c565b6124ff9083612a11565b91508261250b81612e01565b9350506124e4565b50909392505050565b80515f90811a608081101561253357505f92915050565b60b881108061254e575060c0811080159061254e575060f881105b1561255c5750600192915050565b60c081101561259057612571600160b8612e19565b61257e9060ff1682612c1e565b612589906001612a11565b9392505050565b612571600160f8612e19565b80515f908190811a60808110156125b6576001915061218b565b60b88110156125dc576125ca608082612c1e565b6125d5906001612a11565b915061218b565b60c08110156126095760b78103600185019450806020036101000a8551046001820181019350505061218b565b60f881101561261d576125ca60c082612c1e565b60019390930151602084900360f7016101000a900490920160f5190192915050565b805f0361264b57505050565b602081106126835782518252612662602084612a11565b925061266f602083612a11565b915061267c602082612c1e565b905061264b565b8015612697575f60016120d6836020612c1e565b505050565b5f602082840312156126ac575f80fd5b5035919050565b6001600160a01b03811681146105e0575f80fd5b5f602082840312156126d7575f80fd5b8135612589816126b3565b634e487b7160e01b5f52604160045260245ffd5b604051601f8201601f1916810167ffffffffffffffff8111828210171561271f5761271f6126e2565b604052919050565b5f67ffffffffffffffff821115612740576127406126e2565b50601f01601f191660200190565b5f82601f83011261275d575f80fd5b813561277061276b82612727565b6126f6565b818152846020838601011115612784575f80fd5b816020850160208301375f918101602001919091529392505050565b5f805f80608085870312156127b3575f80fd5b84356127be816126b3565b935060208501359250604085013567ffffffffffffffff8111156127e0575f80fd5b6127ec8782880161274e565b949793965093946060013593505050565b5f67ffffffffffffffff821115612816576128166126e2565b5060051b60200190565b5f82601f83011261282f575f80fd5b8135602061283f61276b836127fd565b8083825260208201915060208460051b870101935086841115612860575f80fd5b602086015b8481101561287c5780358352918301918301612865565b509695505050505050565b5f805f806080858703121561289a575f80fd5b843567ffffffffffffffff808211156128b1575f80fd5b818701915087601f8301126128c4575f80fd5b813560206128d461276b836127fd565b82815260059290921b8401810191818101908b8411156128f2575f80fd5b948201945b8386101561291957853561290a816126b3565b825294820194908201906128f7565b9850508801359250508082111561292e575f80fd5b61293a88838901612820565b9450604087013591508082111561294f575f80fd5b506127ec8782880161274e565b5f6020828403121561296c575f80fd5b813567ffffffffffffffff811115612982575f80fd5b6119478482850161274e565b634e487b7160e01b5f52601260045260245ffd5b634e487b7160e01b5f52601160045260245ffd5b5f67ffffffffffffffff808416806129d0576129d061298e565b92169190910492915050565b67ffffffffffffffff82811682821603908082111561218b5761218b6129a2565b634e487b7160e01b5f52603260045260245ffd5b80820180821115611267576112676129a2565b5f815180845260208085019450602084015f5b83811015612a5c5781516001600160a01b031687529582019590820190600101612a37565b509495945050505050565b5f815180845260208085019450602084015f5b83811015612a5c57815187529582019590820190600101612a7a565b606081525f612aa86060830186612a24565b8281036020840152612aba8186612a67565b915050826040830152949350505050565b5f60208284031215612adb575f80fd5b81518015158114612589575f80fd5b5f81518084528060208401602086015e5f602082860101526020601f19601f83011685010191505092915050565b5f6001600160a01b03808616835280851660208401525060606040830152612b436060830184612aea565b95945050505050565b8381525f83518060208601602085015e60209201918201929092526040019392505050565b5f60208284031215612b81575f80fd5b815167ffffffffffffffff811115612b97575f80fd5b8201601f81018413612ba7575f80fd5b8051612bb561276b82612727565b818152856020838501011115612bc9575f80fd5b8160208401602083015e5f91810160200191909152949350505050565b6001600160a01b0383168152604060208201525f6119476040830184612aea565b8082028115828204841417611267576112676129a2565b81810381811115611267576112676129a2565b5f805f805f60a08688031215612c45575f80fd5b855194506020860151935060408601519250606086015191506080860151612c6c816126b3565b809150509295509295909350565b602081525f6125896020830184612aea565b5f8060408385031215612c9d575f80fd5b505080516020909101519092909150565b5f82612cbc57612cbc61298e565b500690565b5f82612ccf57612ccf61298e565b500490565b5f60ff831680612ce657612ce661298e565b8060ff84160691505092915050565b5f60ff831680612d0757612d0761298e565b8060ff84160491505092915050565b600181815b80851115612d5057815f1904821115612d3657612d366129a2565b80851615612d4357918102915b93841c9390800290612d1b565b509250929050565b5f82612d6657506001611267565b81612d7257505f611267565b8160018114612d885760028114612d9257612dae565b6001915050611267565b60ff841115612da357612da36129a2565b50506001821b611267565b5060208310610133831016604e8410600b8410161715612dd1575081810a611267565b612ddb8383612d16565b805f1904821115612dee57612dee6129a2565b029392505050565b5f6125898383612d58565b5f60018201612e1257612e126129a2565b5060010190565b60ff8281168282160390811115611267576112676129a256fea2646970667358221220774d582b0ef00b46367ce356a5feb1326ad8dea6cbb71ce5849c97caf11bb66564736f6c63430008190033",
  "linkReferences": {},
  "deployedLinkReferences": {}
}