{
  "_format": "hh-sol-artifact-1",
  "contractName": "PolygonTargetDispenserL2",
  "sourceName": "contracts/staking/PolygonTargetDispenserL2.sol",
  "abi": [
    {
      "inputs": [
        {
          "internalType": "address",
          "name": "_olas",
          "type": "address"
        },
        {
          "internalType": "address",
          "name": "_proxyFactory",
          "type": "address"
        },
        {
          "internalType": "address",
          "name": "_l2MessageRelayer",
          "type": "address"
        },
        {
          "internalType": "address",
          "name": "_l1DepositProcessor",
          "type": "address"
        },
        {
          "internalType": "uint256",
          "name": "_l1SourceChainId",
          "type": "uint256"
        }
      ],
      "stateMutability": "nonpayable",
      "type": "constructor"
    },
    {
      "inputs": [
        {
          "internalType": "bytes32",
          "name": "deliveryHash",
          "type": "bytes32"
        }
      ],
      "name": "AlreadyDelivered",
      "type": "error"
    },
    {
      "inputs": [
        {
          "internalType": "uint256",
          "name": "expected",
          "type": "uint256"
        },
        {
          "internalType": "uint256",
          "name": "provided",
          "type": "uint256"
        }
      ],
      "name": "IncorrectDataLength",
      "type": "error"
    },
    {
      "inputs": [
        {
          "internalType": "uint256",
          "name": "provided",
          "type": "uint256"
        },
        {
          "internalType": "uint256",
          "name": "expected",
          "type": "uint256"
        }
      ],
      "name": "InsufficientBalance",
      "type": "error"
    },
    {
      "inputs": [
        {
          "internalType": "uint256",
          "name": "provided",
          "type": "uint256"
        },
        {
          "internalType": "uint256",
          "name": "expected",
          "type": "uint256"
        }
      ],
      "name": "LowerThan",
      "type": "error"
    },
    {
      "inputs": [
        {
          "internalType": "address",
          "name": "sender",
          "type": "address"
        },
        {
          "internalType": "address",
          "name": "manager",
          "type": "address"
        }
      ],
      "name": "ManagerOnly",
      "type": "error"
    },
    {
      "inputs": [
        {
          "internalType": "uint256",
          "name": "provided",
          "type": "uint256"
        },
        {
          "internalType": "uint256",
          "name": "max",
          "type": "uint256"
        }
      ],
      "name": "Overflow",
      "type": "error"
    },
    {
      "inputs": [
        {
          "internalType": "address",
          "name": "sender",
          "type": "address"
        },
        {
          "internalType": "address",
          "name": "owner",
          "type": "address"
        }
      ],
      "name": "OwnerOnly",
      "type": "error"
    },
    {
      "inputs": [],
      "name": "Paused",
      "type": "error"
    },
    {
      "inputs": [],
      "name": "ReentrancyGuard",
      "type": "error"
    },
    {
      "inputs": [
        {
          "internalType": "address",
          "name": "target",
          "type": "address"
        },
        {
          "internalType": "uint256",
          "name": "amount",
          "type": "uint256"
        },
        {
          "internalType": "uint256",
          "name": "batchNonce",
          "type": "uint256"
        }
      ],
      "name": "TargetAmountNotQueued",
      "type": "error"
    },
    {
      "inputs": [
        {
          "internalType": "address",
          "name": "provided",
          "type": "address"
        },
        {
          "internalType": "address",
          "name": "expected",
          "type": "address"
        }
      ],
      "name": "TargetRelayerOnly",
      "type": "error"
    },
    {
      "inputs": [
        {
          "internalType": "address",
          "name": "token",
          "type": "address"
        },
        {
          "internalType": "address",
          "name": "from",
          "type": "address"
        },
        {
          "internalType": "address",
          "name": "to",
          "type": "address"
        },
        {
          "internalType": "uint256",
          "name": "amount",
          "type": "uint256"
        }
      ],
      "name": "TransferFailed",
      "type": "error"
    },
    {
      "inputs": [],
      "name": "Unpaused",
      "type": "error"
    },
    {
      "inputs": [
        {
          "internalType": "address",
          "name": "account",
          "type": "address"
        }
      ],
      "name": "WrongAccount",
      "type": "error"
    },
    {
      "inputs": [
        {
          "internalType": "uint256",
          "name": "provided",
          "type": "uint256"
        },
        {
          "internalType": "uint256",
          "name": "expected",
          "type": "uint256"
        }
      ],
      "name": "WrongAmount",
      "type": "error"
    },
    {
      "inputs": [
        {
          "internalType": "uint256",
          "name": "provided",
          "type": "uint256"
        },
        {
          "internalType": "uint256",
          "name": "expected",
          "type": "uint256"
        }
      ],
      "name": "WrongChainId",
      "type": "error"
    },
    {
      "inputs": [
        {
          "internalType": "address",
          "name": "provided",
          "type": "address"
        },
        {
          "internalType": "address",
          "name": "expected",
          "type": "address"
        }
      ],
      "name": "WrongMessageSender",
      "type": "error"
    },
    {
      "inputs": [
        {
          "internalType": "address",
          "name": "provided",
          "type": "address"
        },
        {
          "internalType": "address",
          "name": "expected",
          "type": "address"
        }
      ],
      "name": "WrongTokenAddress",
      "type": "error"
    },
    {
      "inputs": [],
      "name": "ZeroAddress",
      "type": "error"
    },
    {
      "inputs": [],
      "name": "ZeroValue",
      "type": "error"
    },
    {
      "anonymous": false,
      "inputs": [
        {
          "indexed": true,
          "internalType": "address",
          "name": "target",
          "type": "address"
        },
        {
          "indexed": false,
          "internalType": "uint256",
          "name": "amount",
          "type": "uint256"
        }
      ],
      "name": "AmountWithheld",
      "type": "event"
    },
    {
      "anonymous": false,
      "inputs": [
        {
          "indexed": true,
          "internalType": "address",
          "name": "owner",
          "type": "address"
        },
        {
          "indexed": false,
          "internalType": "uint256",
          "name": "amount",
          "type": "uint256"
        }
      ],
      "name": "Drain",
      "type": "event"
    },
    {
      "anonymous": false,
      "inputs": [
        {
          "indexed": true,
          "internalType": "address",
          "name": "sender",
          "type": "address"
        },
        {
          "indexed": false,
          "internalType": "uint256",
          "name": "value",
          "type": "uint256"
        }
      ],
      "name": "FundsReceived",
      "type": "event"
    },
    {
      "anonymous": false,
      "inputs": [
        {
          "indexed": true,
          "internalType": "address",
          "name": "fxRootTunnel",
          "type": "address"
        }
      ],
      "name": "FxRootTunnelUpdated",
      "type": "event"
    },
    {
      "anonymous": false,
      "inputs": [
        {
          "indexed": true,
          "internalType": "uint256",
          "name": "sequence",
          "type": "uint256"
        },
        {
          "indexed": true,
          "internalType": "address",
          "name": "messageSender",
          "type": "address"
        },
        {
          "indexed": true,
          "internalType": "address",
          "name": "l1Processor",
          "type": "address"
        },
        {
          "indexed": false,
          "internalType": "uint256",
          "name": "amount",
          "type": "uint256"
        }
      ],
      "name": "MessagePosted",
      "type": "event"
    },
    {
      "anonymous": false,
      "inputs": [
        {
          "indexed": true,
          "internalType": "address",
          "name": "sender",
          "type": "address"
        },
        {
          "indexed": false,
          "internalType": "uint256",
          "name": "chainId",
          "type": "uint256"
        },
        {
          "indexed": false,
          "internalType": "bytes",
          "name": "data",
          "type": "bytes"
        }
      ],
      "name": "MessageReceived",
      "type": "event"
    },
    {
      "anonymous": false,
      "inputs": [
        {
          "indexed": false,
          "internalType": "bytes",
          "name": "message",
          "type": "bytes"
        }
      ],
      "name": "MessageSent",
      "type": "event"
    },
    {
      "anonymous": false,
      "inputs": [
        {
          "indexed": true,
          "internalType": "address",
          "name": "sender",
          "type": "address"
        },
        {
          "indexed": true,
          "internalType": "address",
          "name": "newL2TargetDispenser",
          "type": "address"
        },
        {
          "indexed": false,
          "internalType": "uint256",
          "name": "amount",
          "type": "uint256"
        }
      ],
      "name": "Migrated",
      "type": "event"
    },
    {
      "anonymous": false,
      "inputs": [
        {
          "indexed": true,
          "internalType": "address",
          "name": "owner",
          "type": "address"
        }
      ],
      "name": "OwnerUpdated",
      "type": "event"
    },
    {
      "anonymous": false,
      "inputs": [
        {
          "indexed": true,
          "internalType": "bytes32",
          "name": "queueHash",
          "type": "bytes32"
        },
        {
          "indexed": true,
          "internalType": "address",
          "name": "target",
          "type": "address"
        },
        {
          "indexed": false,
          "internalType": "uint256",
          "name": "amount",
          "type": "uint256"
        },
        {
          "indexed": false,
          "internalType": "uint256",
          "name": "batchNonce",
          "type": "uint256"
        },
        {
          "indexed": false,
          "internalType": "uint256",
          "name": "paused",
          "type": "uint256"
        }
      ],
      "name": "StakingRequestQueued",
      "type": "event"
    },
    {
      "anonymous": false,
      "inputs": [
        {
          "indexed": true,
          "internalType": "address",
          "name": "target",
          "type": "address"
        },
        {
          "indexed": false,
          "internalType": "uint256",
          "name": "amount",
          "type": "uint256"
        }
      ],
      "name": "StakingTargetDeposited",
      "type": "event"
    },
    {
      "anonymous": false,
      "inputs": [],
      "name": "TargetDispenserPaused",
      "type": "event"
    },
    {
      "anonymous": false,
      "inputs": [],
      "name": "TargetDispenserUnpaused",
      "type": "event"
    },
    {
      "anonymous": false,
      "inputs": [
        {
          "indexed": true,
          "internalType": "address",
          "name": "sender",
          "type": "address"
        },
        {
          "indexed": false,
          "internalType": "uint256",
          "name": "amount",
          "type": "uint256"
        }
      ],
      "name": "WithheldAmountSynced",
      "type": "event"
    },
    {
      "inputs": [],
      "name": "GAS_LIMIT",
      "outputs": [
        {
          "internalType": "uint256",
          "name": "",
          "type": "uint256"
        }
      ],
      "stateMutability": "view",
      "type": "function"
    },
    {
      "inputs": [],
      "name": "MAX_CHAIN_ID",
      "outputs": [
        {
          "internalType": "uint256",
          "name": "",
          "type": "uint256"
        }
      ],
      "stateMutability": "view",
      "type": "function"
    },
    {
      "inputs": [],
      "name": "MAX_GAS_LIMIT",
      "outputs": [
        {
          "internalType": "uint256",
          "name": "",
          "type": "uint256"
        }
      ],
      "stateMutability": "view",
      "type": "function"
    },
    {
      "inputs": [],
      "name": "RECEIVE_MESSAGE",
      "outputs": [
        {
          "internalType": "bytes4",
          "name": "",
          "type": "bytes4"
        }
      ],
      "stateMutability": "view",
      "type": "function"
    },
    {
      "inputs": [
        {
          "internalType": "address",
          "name": "newOwner",
          "type": "address"
        }
      ],
      "name": "changeOwner",
      "outputs": [],
      "stateMutability": "nonpayable",
      "type": "function"
    },
    {
      "inputs": [],
      "name": "drain",
      "outputs": [
        {
          "internalType": "uint256",
          "name": "amount",
          "type": "uint256"
        }
      ],
      "stateMutability": "nonpayable",
      "type": "function"
    },
    {
      "inputs": [],
      "name": "fxChild",
      "outputs": [
        {
          "internalType": "address",
          "name": "",
          "type": "address"
        }
      ],
      "stateMutability": "view",
      "type": "function"
    },
    {
      "inputs": [],
      "name": "fxRootTunnel",
      "outputs": [
        {
          "internalType": "address",
          "name": "",
          "type": "address"
        }
      ],
      "stateMutability": "view",
      "type": "function"
    },
    {
      "inputs": [],
      "name": "l1DepositProcessor",
      "outputs": [
        {
          "internalType": "address",
          "name": "",
          "type": "address"
        }
      ],
      "stateMutability": "view",
      "type": "function"
    },
    {
      "inputs": [],
      "name": "l1SourceChainId",
      "outputs": [
        {
          "internalType": "uint256",
          "name": "",
          "type": "uint256"
        }
      ],
      "stateMutability": "view",
      "type": "function"
    },
    {
      "inputs": [],
      "name": "l2MessageRelayer",
      "outputs": [
        {
          "internalType": "address",
          "name": "",
          "type": "address"
        }
      ],
      "stateMutability": "view",
      "type": "function"
    },
    {
      "inputs": [
        {
          "internalType": "address",
          "name": "newL2TargetDispenser",
          "type": "address"
        }
      ],
      "name": "migrate",
      "outputs": [],
      "stateMutability": "nonpayable",
      "type": "function"
    },
    {
      "inputs": [],
      "name": "olas",
      "outputs": [
        {
          "internalType": "address",
          "name": "",
          "type": "address"
        }
      ],
      "stateMutability": "view",
      "type": "function"
    },
    {
      "inputs": [],
      "name": "owner",
      "outputs": [
        {
          "internalType": "address",
          "name": "",
          "type": "address"
        }
      ],
      "stateMutability": "view",
      "type": "function"
    },
    {
      "inputs": [],
      "name": "pause",
      "outputs": [],
      "stateMutability": "nonpayable",
      "type": "function"
    },
    {
      "inputs": [],
      "name": "paused",
      "outputs": [
        {
          "internalType": "uint8",
          "name": "",
          "type": "uint8"
        }
      ],
      "stateMutability": "view",
      "type": "function"
    },
    {
      "inputs": [
        {
          "internalType": "bytes",
          "name": "data",
          "type": "bytes"
        }
      ],
      "name": "processDataMaintenance",
      "outputs": [],
      "stateMutability": "nonpayable",
      "type": "function"
    },
    {
      "inputs": [
        {
          "internalType": "uint256",
          "name": "stateId",
          "type": "uint256"
        },
        {
          "internalType": "address",
          "name": "rootMessageSender",
          "type": "address"
        },
        {
          "internalType": "bytes",
          "name": "data",
          "type": "bytes"
        }
      ],
      "name": "processMessageFromRoot",
      "outputs": [],
      "stateMutability": "nonpayable",
      "type": "function"
    },
    {
      "inputs": [
        {
          "internalType": "address",
          "name": "target",
          "type": "address"
        },
        {
          "internalType": "uint256",
          "name": "amount",
          "type": "uint256"
        },
        {
          "internalType": "uint256",
          "name": "batchNonce",
          "type": "uint256"
        }
      ],
      "name": "redeem",
      "outputs": [],
      "stateMutability": "nonpayable",
      "type": "function"
    },
    {
      "inputs": [
        {
          "internalType": "address",
          "name": "l1Processor",
          "type": "address"
        }
      ],
      "name": "setFxRootTunnel",
      "outputs": [],
      "stateMutability": "nonpayable",
      "type": "function"
    },
    {
      "inputs": [],
      "name": "stakingBatchNonce",
      "outputs": [
        {
          "internalType": "uint256",
          "name": "",
          "type": "uint256"
        }
      ],
      "stateMutability": "view",
      "type": "function"
    },
    {
      "inputs": [],
      "name": "stakingFactory",
      "outputs": [
        {
          "internalType": "address",
          "name": "",
          "type": "address"
        }
      ],
      "stateMutability": "view",
      "type": "function"
    },
    {
      "inputs": [
        {
          "internalType": "bytes32",
          "name": "",
          "type": "bytes32"
        }
      ],
      "name": "stakingQueueingNonces",
      "outputs": [
        {
          "internalType": "bool",
          "name": "",
          "type": "bool"
        }
      ],
      "stateMutability": "view",
      "type": "function"
    },
    {
      "inputs": [
        {
          "internalType": "bytes",
          "name": "bridgePayload",
          "type": "bytes"
        }
      ],
      "name": "syncWithheldTokens",
      "outputs": [],
      "stateMutability": "payable",
      "type": "function"
    },
    {
      "inputs": [],
      "name": "unpause",
      "outputs": [],
      "stateMutability": "nonpayable",
      "type": "function"
    },
    {
      "inputs": [],
      "name": "withheldAmount",
      "outputs": [
        {
          "internalType": "uint256",
          "name": "",
          "type": "uint256"
        }
      ],
      "stateMutability": "view",
      "type": "function"
    },
    {
      "stateMutability": "payable",
      "type": "receive"
    }
  ],
  "bytecode": "0x610120604052348015610010575f80fd5b5060405161264438038061264483398101604081905261002f916101c2565b8285858285856001600160a01b038516158061005257506001600160a01b038416155b8061006457506001600160a01b038316155b8061007657506001600160a01b038216155b156100945760405163d92e233d60e01b815260040160405180910390fd5b805f036100b457604051637c946ed760e01b815260040160405180910390fd5b60246100c860026001600160401b0361021c565b6100d2919061024d565b6001600160401b0316811115610130578060246100f760026001600160401b0361021c565b610101919061024d565b604051637ae5968560e01b815260048101929092526001600160401b0316602482015260440160405180910390fd5b6001600160a01b0394851660805292841660a05290831660c052821660e0526101005260028054600160a81b600160a01b6001600160a81b03199092163360ff60a01b1916179190911760ff60a81b1916179055600480546001600160a01b03191692909116919091179055506102809350505050565b80516001600160a01b03811681146101bd575f80fd5b919050565b5f805f805f60a086880312156101d6575f80fd5b6101df866101a7565b94506101ed602087016101a7565b93506101fb604087016101a7565b9250610209606087016101a7565b9150608086015190509295509295909350565b5f6001600160401b038381168061024157634e487b7160e01b5f52601260045260245ffd5b92169190910492915050565b6001600160401b0382811682821603908082111561027957634e487b7160e01b5f52601160045260245ffd5b5092915050565b60805160a05160c05160e0516101005161231761032d5f395f81816105a10152611dc101525f81816102ee0152818161156c01528181611cd801528181611d470152611d7601525f81816102bb015281816115e201528181611c3a0152611ca901525f8181610321015261177401525f818161024701528181610902015281816109bb0152818161132f015281816113e90152818161148c0152818161190801526119cb01526123175ff3fe60806040526004361061019b575f3560e01c8063713d1a4e116100dc5780639a7c4b7111610087578063bddc966e11610062578063bddc966e146105e2578063ce5494bb14610601578063e3f5aa5114610620578063f4427c2c14610636575f80fd5b80639a7c4b71146105715780639b7bb84714610590578063a6f9dae1146105c3575f80fd5b806388837094116100b7578063888370941461051f5780638da5cb5b1461053e5780639890220b1461055d575f80fd5b8063713d1a4e146104ae5780637f1e9cb0146104ec5780638456cb591461050b575f80fd5b80632b83cccd1161014757806354d20cc21161012257806354d20cc2146103aa5780635a7287cf146104435780635bc105c0146104575780635c975abb1461046b575f80fd5b80632b83cccd146103585780633f4ba83a14610377578063450d11f01461038b575f80fd5b8063256359a811610177578063256359a8146102dd578063291347681461031057806329f404cd14610343575f80fd5b806231d11514610236578063091d2788146102865780631bad5957146102aa575f80fd5b36610232576002546001600160a01b03166101fb576040517fcd3f16590000000000000000000000000000000000000000000000000000000081525f60048201523360248201523060448201523460648201526084015b60405180910390fd5b60405134815233907f8e47b87b0ef542cdfa1659c551d88bad38aa7f452d2bbb349ab7530dfec8be8f9060200160405180910390a2005b5f80fd5b348015610241575f80fd5b506102697f000000000000000000000000000000000000000000000000000000000000000081565b6040516001600160a01b0390911681526020015b60405180910390f35b348015610291575f80fd5b5061029c620493e081565b60405190815260200161027d565b3480156102b5575f80fd5b506102697f000000000000000000000000000000000000000000000000000000000000000081565b3480156102e8575f80fd5b506102697f000000000000000000000000000000000000000000000000000000000000000081565b34801561031b575f80fd5b506102697f000000000000000000000000000000000000000000000000000000000000000081565b610356610351366004611e5e565b61064b565b005b348015610363575f80fd5b50610356610372366004611f01565b61078a565b348015610382575f80fd5b50610356610b66565b348015610396575f80fd5b50600454610269906001600160a01b031681565b3480156103b5575f80fd5b5060408051808201909152601581527f726563656976654d6573736167652862797465732900000000000000000000006020909101526104127ff953cec75ae677942d7cda5cb6d12c0cb96a0904bf37d36301eef297b83c411d81565b6040517fffffffff00000000000000000000000000000000000000000000000000000000909116815260200161027d565b34801561044e575f80fd5b5061029c5f5481565b348015610462575f80fd5b5061029c610c0f565b348015610476575f80fd5b5060025461049c9074010000000000000000000000000000000000000000900460ff1681565b60405160ff909116815260200161027d565b3480156104b9575f80fd5b506104dc6104c8366004611f33565b60036020525f908152604090205460ff1681565b604051901515815260200161027d565b3480156104f7575f80fd5b50600554610269906001600160a01b031681565b348015610516575f80fd5b50610356610c3b565b34801561052a575f80fd5b50610356610539366004611f4a565b610ce4565b348015610549575f80fd5b50600254610269906001600160a01b031681565b348015610568575f80fd5b5061029c610dc5565b34801561057c575f80fd5b5061035661058b366004611f6c565b610f76565b34801561059b575f80fd5b5061029c7f000000000000000000000000000000000000000000000000000000000000000081565b3480156105ce575f80fd5b506103566105dd366004611f4a565b611056565b3480156105ed575f80fd5b506103566105fc366004611e5e565b611137565b34801561060c575f80fd5b5061035661061b366004611f4a565b611183565b34801561062b575f80fd5b5061029c621e848081565b348015610641575f80fd5b5061029c60015481565b6002546001600160a81b90910460ff16111561067a576040516345f5ce8b60e11b815260040160405180910390fd5b6002805460ff60a81b191675020000000000000000000000000000000000000000001780825560ff740100000000000000000000000000000000000000009091041690036106f4576040517f9e87fac800000000000000000000000000000000000000000000000000000000815260040160405180910390fd5b5f805490819003610731576040517f7c946ed700000000000000000000000000000000000000000000000000000000815260040160405180910390fd5b5f805561073e818361153c565b60405181815233907f1f66db2d1b55aa051fdccd3766b268ce96758f0fd6741988a4ccf060e0e0a3999060200160405180910390a250506002805460ff60a81b1916600160a81b179055565b6002546001600160a81b90910460ff1611156107b9576040516345f5ce8b60e11b815260040160405180910390fd5b6002805460ff60a81b191675020000000000000000000000000000000000000000001780825560ff74010000000000000000000000000000000000000000909104169003610833576040517f9e87fac800000000000000000000000000000000000000000000000000000000815260040160405180910390fd5b604080516001600160a01b0385166020820152908101839052606081018290525f9060800160408051601f1981840301815291815281516020928301205f818152600390935291205490915060ff16806108d2576040517f35433ff10000000000000000000000000000000000000000000000000000000081526001600160a01b038616600482015260248101859052604481018490526064016101f2565b6040517f70a082310000000000000000000000000000000000000000000000000000000081523060048201525f907f00000000000000000000000000000000000000000000000000000000000000006001600160a01b0316906370a0823190602401602060405180830381865afa15801561094f573d5f803e3d5ffd5b505050506040513d601f19601f820116820180604052508101906109739190611fee565b9050848110610b0f576040517f095ea7b30000000000000000000000000000000000000000000000000000000081526001600160a01b038781166004830152602482018790527f0000000000000000000000000000000000000000000000000000000000000000169063095ea7b3906044016020604051808303815f875af1158015610a01573d5f803e3d5ffd5b505050506040513d601f19601f82011682018060405250810190610a259190612005565b506040517fb6b55f25000000000000000000000000000000000000000000000000000000008152600481018690526001600160a01b0387169063b6b55f25906024015f604051808303815f87803b158015610a7e575f80fd5b505af1158015610a90573d5f803e3d5ffd5b50505050856001600160a01b03167f36d504751ef1ab82703e2675ab3d5e230c810cd1962cec9f40d96f9ca0e881f386604051610acf91815260200190565b60405180910390a25f83815260036020526040902080547fffffffffffffffffffffffffffffffffffffffffffffffffffffffffffffff00169055610b4b565b6040517fcf47918100000000000000000000000000000000000000000000000000000000815260048101829052602481018690526044016101f2565b50506002805460ff60a81b1916600160a81b17905550505050565b6002546001600160a01b03163314610ba65760025460405163521eb56d60e11b81523360048201526001600160a01b0390911660248201526044016101f2565b600280547fffffffffffffffffffffff00ffffffffffffffffffffffffffffffffffffffff16740100000000000000000000000000000000000000001790556040517f20e9b9dbd8158c2b961d8645a7d06624a045634bb65f07ef751ae014a65f61f5905f90a1565b6024610c24600267ffffffffffffffff612051565b610c2e919061209c565b67ffffffffffffffff1681565b6002546001600160a01b03163314610c7b5760025460405163521eb56d60e11b81523360048201526001600160a01b0390911660248201526044016101f2565b600280547fffffffffffffffffffffff00ffffffffffffffffffffffffffffffffffffffff16740200000000000000000000000000000000000000001790556040517f8ef6a6615a637325c66275a8d4cadb0844f08a758e5a9df369412975bcdcbc48905f90a1565b6002546001600160a01b03163314610d245760025460405163521eb56d60e11b81523360048201526001600160a01b0390911660248201526044016101f2565b6001600160a01b038116610d64576040517fd92e233d00000000000000000000000000000000000000000000000000000000815260040160405180910390fd5b600580547fffffffffffffffffffffffff0000000000000000000000000000000000000000166001600160a01b0383169081179091556040517f0dbabd9a07143f72b3cba582b51cec1eec13510cdd081ebf1f160e27268d5ca3905f90a250565b6002545f906001600160a81b90910460ff161115610df6576040516345f5ce8b60e11b815260040160405180910390fd5b6002805460ff60a81b1981167502000000000000000000000000000000000000000000179091556001600160a01b03163314610e5a5760025460405163521eb56d60e11b81523360048201526001600160a01b0390911660248201526044016101f2565b479050805f03610e96576040517f7c946ed700000000000000000000000000000000000000000000000000000000815260040160405180910390fd5b6040515f90339083908381818185875af1925050503d805f8114610ed5576040519150601f19603f3d011682016040523d82523d5f602084013e610eda565b606091505b5050905080610f2a576040517fcd3f16590000000000000000000000000000000000000000000000000000000081525f6004820152306024820152336044820152606481018390526084016101f2565b60405182815233907ff36f4d6622e16a536bbb049064af779cdd483a0b388d347d3752a65f1058bf5b9060200160405180910390a2506002805460ff60a81b1916600160a81b17905590565b6004546001600160a01b03163314611010576040517f08c379a000000000000000000000000000000000000000000000000000000000815260206004820152602160248201527f4678426173654368696c6454756e6e656c3a20494e56414c49445f53454e444560448201527f520000000000000000000000000000000000000000000000000000000000000060648201526084016101f2565b611050848484848080601f0160208091040260200160405190810160405280939291908181526020018383808284375f920191909152506115dd92505050565b50505050565b6002546001600160a01b031633146110965760025460405163521eb56d60e11b81523360048201526001600160a01b0390911660248201526044016101f2565b6001600160a01b0381166110d6576040517fd92e233d00000000000000000000000000000000000000000000000000000000815260040160405180910390fd5b600280547fffffffffffffffffffffffff0000000000000000000000000000000000000000166001600160a01b0383169081179091556040517f4ffd725fc4a22075e9ec71c59edf9c38cdeb588a91b24fc5b61388c5be41282b905f90a250565b6002546001600160a01b031633146111775760025460405163521eb56d60e11b81523360048201526001600160a01b0390911660248201526044016101f2565b6111808161160d565b50565b6002546001600160a81b90910460ff1611156111b2576040516345f5ce8b60e11b815260040160405180910390fd5b6002805460ff60a81b1981167502000000000000000000000000000000000000000000179091556001600160a01b031633146112165760025460405163521eb56d60e11b81523360048201526001600160a01b0390911660248201526044016101f2565b60025474010000000000000000000000000000000000000000900460ff1660010361126d576040517fa45f47fd00000000000000000000000000000000000000000000000000000000815260040160405180910390fd5b806001600160a01b03163b5f036112bb576040517f38e04bf20000000000000000000000000000000000000000000000000000000081526001600160a01b03821660048201526024016101f2565b306001600160a01b038216036112ff576040517f38e04bf20000000000000000000000000000000000000000000000000000000081523060048201526024016101f2565b6040517f70a082310000000000000000000000000000000000000000000000000000000081523060048201525f907f00000000000000000000000000000000000000000000000000000000000000006001600160a01b0316906370a0823190602401602060405180830381865afa15801561137c573d5f803e3d5ffd5b505050506040513d601f19601f820116820180604052508101906113a09190611fee565b905080156114d0576040517fa9059cbb0000000000000000000000000000000000000000000000000000000081526001600160a01b038381166004830152602482018390525f917f00000000000000000000000000000000000000000000000000000000000000009091169063a9059cbb906044016020604051808303815f875af1158015611431573d5f803e3d5ffd5b505050506040513d601f19601f820116820180604052508101906114559190612005565b9050806114ce576040517fcd3f16590000000000000000000000000000000000000000000000000000000081526001600160a01b037f00000000000000000000000000000000000000000000000000000000000000008116600483015230602483015284166044820152606481018390526084016101f2565b505b600280547fffffffffffffffffffffffff00000000000000000000000000000000000000001690556040518181526001600160a01b0383169033907f928fd5531324ee87d76cc5307dc37580174da76b85cd546da631b2670bc266b59060200160405180910390a35050565b5f8260405160200161155091815260200190565b604051602081830303815290604052905061156a81611bfe565b7f00000000000000000000000000000000000000000000000000000000000000006001600160a01b0316336001600160a01b03165f7fa83d78b13a863892266b4308df232e47309c90988775e5bb775241801d41e470866040516115d091815260200190565b60405180910390a4505050565b6116087f00000000000000000000000000000000000000000000000000000000000000008383611c38565b505050565b6002546001600160a81b90910460ff16111561163c576040516345f5ce8b60e11b815260040160405180910390fd5b6002805460ff60a81b1916750200000000000000000000000000000000000000000017905580515f90819061167a9060209085018101908501612153565b600154600254929450909250905f9074010000000000000000000000000000000000000000900460ff16815b8551811015611bb9575f8682815181106116c2576116c2612212565b602002602001015190505f8683815181106116df576116df612212565b602002602001015190505f8260405160240161170a91906001600160a01b0391909116815260200190565b60408051601f198184030181529181526020820180517bffffffffffffffffffffffffffffffffffffffffffffffffffffffff167f1eda94d700000000000000000000000000000000000000000000000000000000179052519091505f9081906001600160a01b037f000000000000000000000000000000000000000000000000000000000000000016906117a090859061223f565b5f604051808303815f865af19150503d805f81146117d9576040519150601f19603f3d011682016040523d82523d5f602084013e6117de565b606091505b50915091505f8280156117f2575081516020145b1561180e578180602001905181019061180b9190611fee565b90505b805f0361186f5761181f858a612255565b9850856001600160a01b03167f29bd7fae5899787bb9cb5aa121b781bf47bb44cc44f0f3ddd1e1ea383acd22fb8660405161185c91815260200190565b60405180910390a2505050505050611bb1565b808511156118d8575f611882828761226e565b905061188e818b612255565b9950819550866001600160a01b03167f29bd7fae5899787bb9cb5aa121b781bf47bb44cc44f0f3ddd1e1ea383acd22fb826040516118ce91815260200190565b60405180910390a2505b6040517f70a0823100000000000000000000000000000000000000000000000000000000815230600482015285907f00000000000000000000000000000000000000000000000000000000000000006001600160a01b0316906370a0823190602401602060405180830381865afa158015611955573d5f803e3d5ffd5b505050506040513d601f19601f820116820180604052508101906119799190611fee565b101580156119875750876001145b15611aec576040517f095ea7b30000000000000000000000000000000000000000000000000000000081526001600160a01b038781166004830152602482018790527f0000000000000000000000000000000000000000000000000000000000000000169063095ea7b3906044016020604051808303815f875af1158015611a11573d5f803e3d5ffd5b505050506040513d601f19601f82011682018060405250810190611a359190612005565b506040517fb6b55f25000000000000000000000000000000000000000000000000000000008152600481018690526001600160a01b0387169063b6b55f25906024015f604051808303815f87803b158015611a8e575f80fd5b505af1158015611aa0573d5f803e3d5ffd5b50505050856001600160a01b03167f36d504751ef1ab82703e2675ab3d5e230c810cd1962cec9f40d96f9ca0e881f386604051611adf91815260200190565b60405180910390a2611baa565b604080516001600160a01b0388166020820152908101869052606081018b90525f9060800160408051601f1981840301815282825280516020918201205f8181526003835283902080547fffffffffffffffffffffffffffffffffffffffffffffffffffffffffffffff001660011790558984529083018e90529082018b905291506001600160a01b0388169082907f207f76ffdb73024e39870ab39aa1ad395275ce4714e752c30ddd8fea79a916e89060600160405180910390a3505b5050505050505b6001016116a6565b50611bc5836001612255565b6001558115610b4b57815f80828254611bde9190612255565b909155505050506002805460ff60a81b1916600160a81b17905550505050565b7f8c5261668696ce22758910d05bab8f186d6eb247ceac2af2e82c7dc17669b03681604051611c2d91906122af565b60405180910390a150565b7f00000000000000000000000000000000000000000000000000000000000000006001600160a01b0316836001600160a01b031614611cd6576040517f2f3111fa0000000000000000000000000000000000000000000000000000000081526001600160a01b0380851660048301527f00000000000000000000000000000000000000000000000000000000000000001660248201526044016101f2565b7f00000000000000000000000000000000000000000000000000000000000000006001600160a01b0316826001600160a01b031614611d74576040517f0d16cbdd0000000000000000000000000000000000000000000000000000000081526001600160a01b0380841660048301527f00000000000000000000000000000000000000000000000000000000000000001660248201526044016101f2565b7f00000000000000000000000000000000000000000000000000000000000000006001600160a01b03167f98bbde530ec85b002f6fb0864beccaaf3ac3d2a4ac35cb3b03cf7c61ee415e337f000000000000000000000000000000000000000000000000000000000000000083604051611def9291906122c1565b60405180910390a26116088161160d565b7f4e487b71000000000000000000000000000000000000000000000000000000005f52604160045260245ffd5b604051601f8201601f1916810167ffffffffffffffff81118282101715611e5657611e56611e00565b604052919050565b5f6020808385031215611e6f575f80fd5b823567ffffffffffffffff80821115611e86575f80fd5b818501915085601f830112611e99575f80fd5b813581811115611eab57611eab611e00565b611ebd84601f19601f84011601611e2d565b91508082528684828501011115611ed2575f80fd5b80848401858401375f90820190930192909252509392505050565b6001600160a01b0381168114611180575f80fd5b5f805f60608486031215611f13575f80fd5b8335611f1e81611eed565b95602085013595506040909401359392505050565b5f60208284031215611f43575f80fd5b5035919050565b5f60208284031215611f5a575f80fd5b8135611f6581611eed565b9392505050565b5f805f8060608587031215611f7f575f80fd5b843593506020850135611f9181611eed565b9250604085013567ffffffffffffffff80821115611fad575f80fd5b818701915087601f830112611fc0575f80fd5b813581811115611fce575f80fd5b886020828501011115611fdf575f80fd5b95989497505060200194505050565b5f60208284031215611ffe575f80fd5b5051919050565b5f60208284031215612015575f80fd5b81518015158114611f65575f80fd5b7f4e487b71000000000000000000000000000000000000000000000000000000005f52601160045260245ffd5b5f67ffffffffffffffff80841680612090577f4e487b71000000000000000000000000000000000000000000000000000000005f52601260045260245ffd5b92169190910492915050565b67ffffffffffffffff8281168282160390808211156120bd576120bd612024565b5092915050565b5f67ffffffffffffffff8211156120dd576120dd611e00565b5060051b60200190565b5f82601f8301126120f6575f80fd5b8151602061210b612106836120c4565b611e2d565b8083825260208201915060208460051b87010193508684111561212c575f80fd5b602086015b848110156121485780518352918301918301612131565b509695505050505050565b5f8060408385031215612164575f80fd5b825167ffffffffffffffff8082111561217b575f80fd5b818501915085601f83011261218e575f80fd5b8151602061219e612106836120c4565b82815260059290921b840181019181810190898411156121bc575f80fd5b948201945b838610156121e35785516121d481611eed565b825294820194908201906121c1565b918801519196509093505050808211156121fb575f80fd5b50612208858286016120e7565b9150509250929050565b7f4e487b71000000000000000000000000000000000000000000000000000000005f52603260045260245ffd5b5f82518060208501845e5f920191825250919050565b8082018082111561226857612268612024565b92915050565b8181038181111561226857612268612024565b5f81518084528060208401602086015e5f602082860101526020601f19601f83011685010191505092915050565b602081525f611f656020830184612281565b828152604060208201525f6122d96040830184612281565b94935050505056fea264697066735822122056a0626a63289fb45be437cf23822b49bfd1f643809a4c1a373095caf2a6d35a64736f6c63430008190033",
  "linkReferences": {},
  "deployedLinkReferences": {}
}