{
  "_format": "hh-sol-artifact-1",
  "contractName": "PolygonDepositProcessorL1",
  "sourceName": "contracts/staking/PolygonDepositProcessorL1.sol",
  "abi": [
    {
      "inputs": [
        {
          "internalType": "address",
          "name": "_olas",
          "type": "address"
        },
        {
          "internalType": "address",
          "name": "_l1Dispenser",
          "type": "address"
        },
        {
          "internalType": "address",
          "name": "_l1TokenRelayer",
          "type": "address"
        },
        {
          "internalType": "address",
          "name": "_l1MessageRelayer",
          "type": "address"
        },
        {
          "internalType": "uint256",
          "name": "_l2TargetChainId",
          "type": "uint256"
        },
        {
          "internalType": "address",
          "name": "_checkpointManager",
          "type": "address"
        },
        {
          "internalType": "address",
          "name": "_predicate",
          "type": "address"
        }
      ],
      "stateMutability": "nonpayable",
      "type": "constructor"
    },
    {
      "inputs": [
        {
          "internalType": "bytes32",
          "name": "deliveryHash",
          "type": "bytes32"
        }
      ],
      "name": "AlreadyDelivered",
      "type": "error"
    },
    {
      "inputs": [
        {
          "internalType": "uint256",
          "name": "expected",
          "type": "uint256"
        },
        {
          "internalType": "uint256",
          "name": "provided",
          "type": "uint256"
        }
      ],
      "name": "IncorrectDataLength",
      "type": "error"
    },
    {
      "inputs": [
        {
          "internalType": "uint256",
          "name": "provided",
          "type": "uint256"
        },
        {
          "internalType": "uint256",
          "name": "expected",
          "type": "uint256"
        }
      ],
      "name": "InsufficientBalance",
      "type": "error"
    },
    {
      "inputs": [
        {
          "internalType": "uint256",
          "name": "provided",
          "type": "uint256"
        },
        {
          "internalType": "uint256",
          "name": "expected",
          "type": "uint256"
        }
      ],
      "name": "LowerThan",
      "type": "error"
    },
    {
      "inputs": [
        {
          "internalType": "address",
          "name": "sender",
          "type": "address"
        },
        {
          "internalType": "address",
          "name": "manager",
          "type": "address"
        }
      ],
      "name": "ManagerOnly",
      "type": "error"
    },
    {
      "inputs": [
        {
          "internalType": "uint256",
          "name": "provided",
          "type": "uint256"
        },
        {
          "internalType": "uint256",
          "name": "max",
          "type": "uint256"
        }
      ],
      "name": "Overflow",
      "type": "error"
    },
    {
      "inputs": [
        {
          "internalType": "address",
          "name": "sender",
          "type": "address"
        },
        {
          "internalType": "address",
          "name": "owner",
          "type": "address"
        }
      ],
      "name": "OwnerOnly",
      "type": "error"
    },
    {
      "inputs": [],
      "name": "Paused",
      "type": "error"
    },
    {
      "inputs": [],
      "name": "ReentrancyGuard",
      "type": "error"
    },
    {
      "inputs": [
        {
          "internalType": "address",
          "name": "target",
          "type": "address"
        },
        {
          "internalType": "uint256",
          "name": "amount",
          "type": "uint256"
        },
        {
          "internalType": "uint256",
          "name": "batchNonce",
          "type": "uint256"
        }
      ],
      "name": "TargetAmountNotQueued",
      "type": "error"
    },
    {
      "inputs": [
        {
          "internalType": "address",
          "name": "provided",
          "type": "address"
        },
        {
          "internalType": "address",
          "name": "expected",
          "type": "address"
        }
      ],
      "name": "TargetRelayerOnly",
      "type": "error"
    },
    {
      "inputs": [
        {
          "internalType": "address",
          "name": "token",
          "type": "address"
        },
        {
          "internalType": "address",
          "name": "from",
          "type": "address"
        },
        {
          "internalType": "address",
          "name": "to",
          "type": "address"
        },
        {
          "internalType": "uint256",
          "name": "amount",
          "type": "uint256"
        }
      ],
      "name": "TransferFailed",
      "type": "error"
    },
    {
      "inputs": [],
      "name": "Unpaused",
      "type": "error"
    },
    {
      "inputs": [
        {
          "internalType": "address",
          "name": "account",
          "type": "address"
        }
      ],
      "name": "WrongAccount",
      "type": "error"
    },
    {
      "inputs": [
        {
          "internalType": "uint256",
          "name": "provided",
          "type": "uint256"
        },
        {
          "internalType": "uint256",
          "name": "expected",
          "type": "uint256"
        }
      ],
      "name": "WrongAmount",
      "type": "error"
    },
    {
      "inputs": [
        {
          "internalType": "uint256",
          "name": "provided",
          "type": "uint256"
        },
        {
          "internalType": "uint256",
          "name": "expected",
          "type": "uint256"
        }
      ],
      "name": "WrongChainId",
      "type": "error"
    },
    {
      "inputs": [
        {
          "internalType": "address",
          "name": "provided",
          "type": "address"
        },
        {
          "internalType": "address",
          "name": "expected",
          "type": "address"
        }
      ],
      "name": "WrongMessageSender",
      "type": "error"
    },
    {
      "inputs": [
        {
          "internalType": "address",
          "name": "provided",
          "type": "address"
        },
        {
          "internalType": "address",
          "name": "expected",
          "type": "address"
        }
      ],
      "name": "WrongTokenAddress",
      "type": "error"
    },
    {
      "inputs": [],
      "name": "ZeroAddress",
      "type": "error"
    },
    {
      "inputs": [],
      "name": "ZeroValue",
      "type": "error"
    },
    {
      "anonymous": false,
      "inputs": [
        {
          "indexed": true,
          "internalType": "address",
          "name": "fxChildTunnel",
          "type": "address"
        }
      ],
      "name": "FxChildTunnelUpdated",
      "type": "event"
    },
    {
      "anonymous": false,
      "inputs": [
        {
          "indexed": true,
          "internalType": "address",
          "name": "l2TargetDispenser",
          "type": "address"
        }
      ],
      "name": "L2TargetDispenserUpdated",
      "type": "event"
    },
    {
      "anonymous": false,
      "inputs": [
        {
          "indexed": true,
          "internalType": "uint256",
          "name": "sequence",
          "type": "uint256"
        },
        {
          "indexed": false,
          "internalType": "address[]",
          "name": "targets",
          "type": "address[]"
        },
        {
          "indexed": false,
          "internalType": "uint256[]",
          "name": "stakingIncentives",
          "type": "uint256[]"
        },
        {
          "indexed": false,
          "internalType": "uint256",
          "name": "transferAmount",
          "type": "uint256"
        }
      ],
      "name": "MessagePosted",
      "type": "event"
    },
    {
      "anonymous": false,
      "inputs": [
        {
          "indexed": true,
          "internalType": "address",
          "name": "l1Relayer",
          "type": "address"
        },
        {
          "indexed": true,
          "internalType": "uint256",
          "name": "chainId",
          "type": "uint256"
        },
        {
          "indexed": false,
          "internalType": "bytes",
          "name": "data",
          "type": "bytes"
        }
      ],
      "name": "MessageReceived",
      "type": "event"
    },
    {
      "inputs": [],
      "name": "MAX_CHAIN_ID",
      "outputs": [
        {
          "internalType": "uint256",
          "name": "",
          "type": "uint256"
        }
      ],
      "stateMutability": "view",
      "type": "function"
    },
    {
      "inputs": [],
      "name": "MESSAGE_GAS_LIMIT",
      "outputs": [
        {
          "internalType": "uint256",
          "name": "",
          "type": "uint256"
        }
      ],
      "stateMutability": "view",
      "type": "function"
    },
    {
      "inputs": [],
      "name": "RECEIVE_MESSAGE",
      "outputs": [
        {
          "internalType": "bytes4",
          "name": "",
          "type": "bytes4"
        }
      ],
      "stateMutability": "view",
      "type": "function"
    },
    {
      "inputs": [],
      "name": "SEND_MESSAGE_EVENT_SIG",
      "outputs": [
        {
          "internalType": "bytes32",
          "name": "",
          "type": "bytes32"
        }
      ],
      "stateMutability": "view",
      "type": "function"
    },
    {
      "inputs": [],
      "name": "TOKEN_GAS_LIMIT",
      "outputs": [
        {
          "internalType": "uint256",
          "name": "",
          "type": "uint256"
        }
      ],
      "stateMutability": "view",
      "type": "function"
    },
    {
      "inputs": [],
      "name": "checkpointManager",
      "outputs": [
        {
          "internalType": "contract ICheckpointManager",
          "name": "",
          "type": "address"
        }
      ],
      "stateMutability": "view",
      "type": "function"
    },
    {
      "inputs": [],
      "name": "fxChildTunnel",
      "outputs": [
        {
          "internalType": "address",
          "name": "",
          "type": "address"
        }
      ],
      "stateMutability": "view",
      "type": "function"
    },
    {
      "inputs": [],
      "name": "fxRoot",
      "outputs": [
        {
          "internalType": "contract IFxStateSender",
          "name": "",
          "type": "address"
        }
      ],
      "stateMutability": "view",
      "type": "function"
    },
    {
      "inputs": [],
      "name": "getBridgingDecimals",
      "outputs": [
        {
          "internalType": "uint256",
          "name": "",
          "type": "uint256"
        }
      ],
      "stateMutability": "pure",
      "type": "function"
    },
    {
      "inputs": [],
      "name": "l1Dispenser",
      "outputs": [
        {
          "internalType": "address",
          "name": "",
          "type": "address"
        }
      ],
      "stateMutability": "view",
      "type": "function"
    },
    {
      "inputs": [],
      "name": "l1MessageRelayer",
      "outputs": [
        {
          "internalType": "address",
          "name": "",
          "type": "address"
        }
      ],
      "stateMutability": "view",
      "type": "function"
    },
    {
      "inputs": [],
      "name": "l1TokenRelayer",
      "outputs": [
        {
          "internalType": "address",
          "name": "",
          "type": "address"
        }
      ],
      "stateMutability": "view",
      "type": "function"
    },
    {
      "inputs": [],
      "name": "l2TargetChainId",
      "outputs": [
        {
          "internalType": "uint256",
          "name": "",
          "type": "uint256"
        }
      ],
      "stateMutability": "view",
      "type": "function"
    },
    {
      "inputs": [],
      "name": "l2TargetDispenser",
      "outputs": [
        {
          "internalType": "address",
          "name": "",
          "type": "address"
        }
      ],
      "stateMutability": "view",
      "type": "function"
    },
    {
      "inputs": [],
      "name": "olas",
      "outputs": [
        {
          "internalType": "address",
          "name": "",
          "type": "address"
        }
      ],
      "stateMutability": "view",
      "type": "function"
    },
    {
      "inputs": [],
      "name": "owner",
      "outputs": [
        {
          "internalType": "address",
          "name": "",
          "type": "address"
        }
      ],
      "stateMutability": "view",
      "type": "function"
    },
    {
      "inputs": [],
      "name": "predicate",
      "outputs": [
        {
          "internalType": "address",
          "name": "",
          "type": "address"
        }
      ],
      "stateMutability": "view",
      "type": "function"
    },
    {
      "inputs": [
        {
          "internalType": "bytes32",
          "name": "",
          "type": "bytes32"
        }
      ],
      "name": "processedExits",
      "outputs": [
        {
          "internalType": "bool",
          "name": "",
          "type": "bool"
        }
      ],
      "stateMutability": "view",
      "type": "function"
    },
    {
      "inputs": [
        {
          "internalType": "bytes",
          "name": "inputData",
          "type": "bytes"
        }
      ],
      "name": "receiveMessage",
      "outputs": [],
      "stateMutability": "nonpayable",
      "type": "function"
    },
    {
      "inputs": [
        {
          "internalType": "address",
          "name": "target",
          "type": "address"
        },
        {
          "internalType": "uint256",
          "name": "stakingIncentive",
          "type": "uint256"
        },
        {
          "internalType": "bytes",
          "name": "bridgePayload",
          "type": "bytes"
        },
        {
          "internalType": "uint256",
          "name": "transferAmount",
          "type": "uint256"
        }
      ],
      "name": "sendMessage",
      "outputs": [],
      "stateMutability": "payable",
      "type": "function"
    },
    {
      "inputs": [
        {
          "internalType": "address[]",
          "name": "targets",
          "type": "address[]"
        },
        {
          "internalType": "uint256[]",
          "name": "stakingIncentives",
          "type": "uint256[]"
        },
        {
          "internalType": "bytes",
          "name": "bridgePayload",
          "type": "bytes"
        },
        {
          "internalType": "uint256",
          "name": "transferAmount",
          "type": "uint256"
        }
      ],
      "name": "sendMessageBatch",
      "outputs": [],
      "stateMutability": "payable",
      "type": "function"
    },
    {
      "inputs": [
        {
          "internalType": "address",
          "name": "l2Dispenser",
          "type": "address"
        }
      ],
      "name": "setFxChildTunnel",
      "outputs": [],
      "stateMutability": "nonpayable",
      "type": "function"
    },
    {
      "inputs": [
        {
          "internalType": "address",
          "name": "l2Dispenser",
          "type": "address"
        }
      ],
      "name": "setL2TargetDispenser",
      "outputs": [],
      "stateMutability": "nonpayable",
      "type": "function"
    },
    {
      "inputs": [],
      "name": "stakingBatchNonce",
      "outputs": [
        {
          "internalType": "uint256",
          "name": "",
          "type": "uint256"
        }
      ],
      "stateMutability": "view",
      "type": "function"
    }
  ],
  "bytecode": "0x610140604052348015610010575f80fd5b5060405161305738038061305783398101604081905261002f916101df565b818488888883886001600160a01b038416158061005357506001600160a01b038316155b8061006557506001600160a01b038216155b156100835760405163d92e233d60e01b815260040160405180910390fd5b805f036100a357604051637c946ed760e01b815260040160405180910390fd5b60246100b760026001600160401b03610259565b6100c1919061028a565b6001600160401b031681111561011f578060246100e660026001600160401b03610259565b6100f0919061028a565b604051637ae5968560e01b815260048101929092526001600160401b0316602482015260440160405180910390fd5b6001600160a01b0394851660805292841660a05290831660c052821660e0526101005260018054336001600160a01b0319918216179091556004805482169483169490941790935560038054909316918116919091179091558216158061018d57506001600160a01b038116155b156101ab5760405163d92e233d60e01b815260040160405180910390fd5b6001600160a01b031661012052506102bd945050505050565b80516001600160a01b03811681146101da575f80fd5b919050565b5f805f805f805f60e0888a0312156101f5575f80fd5b6101fe886101c4565b965061020c602089016101c4565b955061021a604089016101c4565b9450610228606089016101c4565b93506080880151925061023d60a089016101c4565b915061024b60c089016101c4565b905092959891949750929550565b5f6001600160401b038381168061027e57634e487b7160e01b5f52601260045260245ffd5b92169190910492915050565b6001600160401b038281168282160390808211156102b657634e487b7160e01b5f52601160045260245ffd5b5092915050565b60805160a05160c05160e0516101005161012051612cf16103665f395f81816104d50152610a8a01525f818161046501528181611afd0152611b9901525f818161022801528181610f6a01528181611a000152611a6d01525f818161037d0152610b3b01525f8181610508015281816106bf01528181610714015281816108490152818161089e0152611bc901525f818161019701528181610ab90152610b680152612cf15ff3fe608060405260043610610182575f3560e01c8063aea4e49e116100d1578063e309fb771161007c578063f4427c2c11610057578063f4427c2c1461052a578063f953cec71461053f578063f9fc3c211461055e575f80fd5b8063e309fb77146104a6578063e6198705146104c4578063f2541c35146104f7575f80fd5b8063c0857ba0116100ac578063c0857ba014610435578063c23cc3ff14610454578063de9b771f14610487575f80fd5b8063aea4e49e146103f0578063b2267a7b1461040f578063bde5266114610422575f80fd5b80635bc105c0116101315780638da5cb5b1161010c5780638da5cb5b1461039f578063972c4928146103be578063a8b2ae02146103dd575f80fd5b80635bc105c01461031a578063607f2d421461032e5780636143fe931461036c575f80fd5b80634c1c6cbf116101615780634c1c6cbf1461024a57806354d20cc21461026057806354e4bbf4146102f9575f80fd5b806231d115146101865780630e387de6146101d65780633d1f867914610217575b5f80fd5b348015610191575f80fd5b506101b97f000000000000000000000000000000000000000000000000000000000000000081565b6040516001600160a01b0390911681526020015b60405180910390f35b3480156101e1575f80fd5b506102097f8c5261668696ce22758910d05bab8f186d6eb247ceac2af2e82c7dc17669b03681565b6040519081526020016101cd565b348015610222575f80fd5b506101b97f000000000000000000000000000000000000000000000000000000000000000081565b348015610255575f80fd5b50610209620493e081565b34801561026b575f80fd5b5060408051808201909152601581527f726563656976654d6573736167652862797465732900000000000000000000006020909101526102c87ff953cec75ae677942d7cda5cb6d12c0cb96a0904bf37d36301eef297b83c411d81565b6040517fffffffff0000000000000000000000000000000000000000000000000000000090911681526020016101cd565b348015610304575f80fd5b506103186103133660046124bc565b610574565b005b348015610325575f80fd5b50610209610589565b348015610339575f80fd5b5061035c6103483660046124d7565b60066020525f908152604090205460ff1681565b60405190151581526020016101cd565b348015610377575f80fd5b506101b97f000000000000000000000000000000000000000000000000000000000000000081565b3480156103aa575f80fd5b506001546101b9906001600160a01b031681565b3480156103c9575f80fd5b506005546101b9906001600160a01b031681565b3480156103e8575f80fd5b506012610209565b3480156103fb575f80fd5b5061031861040a3660046124bc565b6105b5565b61031861041d3660046125c5565b6106b4565b6103186104303660046126ac565b61083e565b348015610440575f80fd5b506004546101b9906001600160a01b031681565b34801561045f575f80fd5b506102097f000000000000000000000000000000000000000000000000000000000000000081565b348015610492575f80fd5b506003546101b9906001600160a01b031681565b3480156104b1575f80fd5b505f546101b9906001600160a01b031681565b3480156104cf575f80fd5b506101b97f000000000000000000000000000000000000000000000000000000000000000081565b348015610502575f80fd5b506101b97f000000000000000000000000000000000000000000000000000000000000000081565b348015610535575f80fd5b5061020960025481565b34801561054a575f80fd5b50610318610559366004612781565b610937565b348015610569575f80fd5b50610209621e848081565b61057d816105b5565b61058681610950565b50565b602461059e600267ffffffffffffffff61280d565b6105a89190612833565b67ffffffffffffffff1681565b6001546001600160a01b03163314610613576001546040517fa43d6ada0000000000000000000000000000000000000000000000000000000081523360048201526001600160a01b0390911660248201526044015b60405180910390fd5b6001600160a01b038116610653576040517fd92e233d00000000000000000000000000000000000000000000000000000000815260040160405180910390fd5b600580547fffffffffffffffffffffffff0000000000000000000000000000000000000000166001600160a01b0383169081179091556040517fa9bdbd6b528cbfc0588f52c3a4ec11bc3f60d0113e60e778f5c42ff7599eef9c905f90a250565b336001600160a01b037f00000000000000000000000000000000000000000000000000000000000000001614610747576040517f625a43fe0000000000000000000000000000000000000000000000000000000081526001600160a01b037f000000000000000000000000000000000000000000000000000000000000000016600482015233602482015260440161060a565b6040805160018082528183019092525f916020808301908036833701905050905084815f8151811061077b5761077b612854565b6001600160a01b0392909216602092830291909101909101526040805160018082528183019092525f9181602001602082028036833701905050905084815f815181106107ca576107ca612854565b6020026020010181815250505f6107e383838787610a53565b600280549192505f6107f483612881565b9190505550807f9a5db7eed66b0161b9861a53b42de123e042dbe1f1734a7d032402926063fe3284848760405161082d9392919061290b565b60405180910390a250505050505050565b336001600160a01b037f000000000000000000000000000000000000000000000000000000000000000016146108d1576040517f625a43fe0000000000000000000000000000000000000000000000000000000081526001600160a01b037f000000000000000000000000000000000000000000000000000000000000000016600482015233602482015260440161060a565b5f6108de85858585610a53565b600280549192505f6108ef83612881565b9190505550807f9a5db7eed66b0161b9861a53b42de123e042dbe1f1734a7d032402926063fe328686856040516109289392919061290b565b60405180910390a25050505050565b5f61094182610c1f565b905061094c81610f62565b5050565b6001546001600160a01b031633146109a9576001546040517fa43d6ada0000000000000000000000000000000000000000000000000000000081526001600160a01b03909116600482015233602482015260440161060a565b6001600160a01b0381166109e9576040517fd92e233d00000000000000000000000000000000000000000000000000000000815260040160405180910390fd5b5f80546001600160a01b0383167fffffffffffffffffffffffff0000000000000000000000000000000000000000918216811783556001805490921690915560405190917f991aa5c8f67a92f8feb202de828958c681966ae343fcf6db040f5f8099d547cf91a250565b5f8115610be4576040517f095ea7b30000000000000000000000000000000000000000000000000000000081526001600160a01b037f000000000000000000000000000000000000000000000000000000000000000081166004830152602482018490527f0000000000000000000000000000000000000000000000000000000000000000169063095ea7b3906044016020604051808303815f875af1158015610aff573d5f803e3d5ffd5b505050506040513d601f19601f82011682018060405250810190610b239190612940565b505f5460408051602081018590526001600160a01b037f000000000000000000000000000000000000000000000000000000000000000081169363e3dec8fb939116917f000000000000000000000000000000000000000000000000000000000000000091016040516020818303038152906040526040518463ffffffff1660e01b8152600401610bb69392919061298d565b5f604051808303815f87803b158015610bcd575f80fd5b505af1158015610bdf573d5f803e3d5ffd5b505050505b5f8585604051602001610bf89291906129c1565b6040516020818303038152906040529050610c1281610f99565b5050600254949350505050565b60605f610c2b83611018565b90505f610c3782611075565b90505f610c43836110a3565b90505f81610c50846110ca565b610c59866112a6565b604051602001610c6b939291906129e5565b60408051601f1981840301815291815281516020928301205f818152600690935291205490915060ff1615610d075760405162461bcd60e51b8152602060048201526024808201527f4678526f6f7454756e6e656c3a20455849545f414c52454144595f50524f434560448201527f5353454400000000000000000000000000000000000000000000000000000000606482015260840161060a565b5f81815260066020526040812080547fffffffffffffffffffffffffffffffffffffffffffffffffffffffffffffff00166001179055610d46856112c0565b90505f610d5282611404565b9050610d5d81611491565b6005546001600160a01b03908116911614610de05760405162461bcd60e51b815260206004820152602560248201527f4678526f6f7454756e6e656c3a20494e56414c49445f46585f4348494c445f5460448201527f554e4e454c000000000000000000000000000000000000000000000000000000606482015260840161060a565b5f610dea876114b8565b9050610e0a610dfa846020015190565b87610e048a6114d2565b846114ed565b610e7c5760405162461bcd60e51b815260206004820152602360248201527f4678526f6f7454756e6e656c3a20494e56414c49445f524543454950545f505260448201527f4f4f460000000000000000000000000000000000000000000000000000000000606482015260840161060a565b610eaa85610e8989611785565b610e928a61179f565b84610e9c8c6117b9565b610ea58d6117d2565b6117ed565b5f610eb483611925565b90507f8c5261668696ce22758910d05bab8f186d6eb247ceac2af2e82c7dc17669b036610ee9610ee4835f611961565b611998565b14610f365760405162461bcd60e51b815260206004820152601f60248201527f4678526f6f7454756e6e656c3a20494e56414c49445f5349474e415455524500604482015260640161060a565b5f610f40846119e2565b806020019051810190610f539190612a0a565b9b9a5050505050505050505050565b5f54610586907f0000000000000000000000000000000000000000000000000000000000000000906001600160a01b0316836119fe565b6003546005546040517fb47204770000000000000000000000000000000000000000000000000000000081526001600160a01b039283169263b472047792610fe8929116908590600401612a7f565b5f604051808303815f87803b158015610fff575f80fd5b505af1158015611011573d5f803e3d5ffd5b5050505050565b6040805160208101909152606081525f61106061105b846040805180820182525f8082526020918201528151808301909252825182529182019181019190915290565b611c2e565b60408051602081019091529081529392505050565b606061109d825f015160088151811061109057611090612854565b6020026020010151611d34565b92915050565b5f61109d825f01516002815181106110bd576110bd612854565b6020026020010151611998565b60408051602081019091525f81528151606091901561109d575f806110ef5f86611daf565b60f81c9050600181148061110657508060ff166003145b156111c35760018551600261111b9190612aa0565b6111259190612ab7565b67ffffffffffffffff81111561113d5761113d6124ee565b6040519080825280601f01601f191660200182016040528015611167576020820181803683370190505b5092505f611176600187611daf565b905080845f8151811061118b5761118b612854565b60200101907effffffffffffffffffffffffffffffffffffffffffffffffffffffffffffff191690815f1a9053506001925050611226565b6002855160026111d39190612aa0565b6111dd9190612ab7565b67ffffffffffffffff8111156111f5576111f56124ee565b6040519080825280601f01601f19166020018201604052801561121f576020820181803683370190505b5092505f91505b60ff82165b835181101561129d5761125561124460ff851683612ab7565b61124f906002612aca565b87611daf565b84828151811061126757611267612854565b60200101907effffffffffffffffffffffffffffffffffffffffffffffffffffffffffffff191690815f1a90535060010161122b565b50505092915050565b5f61109d825f01516009815181106110bd576110bd612854565b6112e3604051806060016040528060608152602001606081526020015f81525090565b6112fc825f015160068151811061109057611090612854565b60208281018290526040805180820182525f808252908301528051808201909152825181529181019082015261133181611e2f565b156113465761133f81611c2e565b82526113f0565b602082015180515f9061135b90600190612ab7565b67ffffffffffffffff811115611373576113736124ee565b6040519080825280601f01601f19166020018201604052801561139d576020820181803683370190505b5090505f808360210191508260200190506113ba82828551611e66565b6040805180820182525f808252602091820152815180830190925284518252808501908201526113e990611c2e565b8652505050505b6113f9836112a6565b604083015250919050565b604080516080810182525f918101828152606080830193909352815260208101919091525f61144f835f015160038151811061144257611442612854565b6020026020010151611c2e565b83604001518151811061146457611464612854565b60200260200101519050604051806040016040528082815260200161148883611c2e565b90529392505050565b5f61109d82602001515f815181106114ab576114ab612854565b6020026020010151611eee565b5f61109d825f01516005815181106110bd576110bd612854565b606061109d825f015160078151811061109057611090612854565b5f8061151f846040805180820182525f8082526020918201528151808301909252825182529182019181019190915290565b90505f61152b82611c2e565b9050606080855f8061153c8b6110ca565b905080515f03611555575f97505050505050505061177d565b5f5b8651811015611774578151831115611579575f9850505050505050505061177d565b61159b87828151811061158e5761158e612854565b6020026020010151611f06565b9550858051906020012084146115bb575f9850505050505050505061177d565b6115d087828151811061144257611442612854565b9450845160110361169f578151830361162e578c805190602001206116018660108151811061109057611090612854565b805190602001200361161e5760019850505050505050505061177d565b5f9850505050505050505061177d565b5f82848151811061164157611641612854565b016020015160f81c90506010811115611665575f995050505050505050505061177d565b61168a868260ff168151811061167d5761167d612854565b6020026020010151611f80565b9450611697600185612aca565b93505061176c565b845160020361161e575f6116c86116c1875f8151811061109057611090612854565b8486611fab565b83519091506116d78286612aca565b03611729578d805190602001206116fa8760018151811061109057611090612854565b8051906020012003611718576001995050505050505050505061177d565b5f995050505050505050505061177d565b805f03611741575f995050505050505050505061177d565b61174b8185612aca565b93506117638660018151811061167d5761167d612854565b945061176c9050565b600101611557565b50505050505050505b949350505050565b5f61109d825f01516003815181106110bd576110bd612854565b5f61109d825f01516004815181106110bd576110bd612854565b5f61109d825f01515f815181106110bd576110bd612854565b606061109d825f015160018151811061109057611090612854565b600480546040517f41539d4a0000000000000000000000000000000000000000000000000000000081529182018490525f91829182916001600160a01b03909116906341539d4a9060240160a060405180830381865afa158015611853573d5f803e3d5ffd5b505050506040513d601f19601f820116820180604052508101906118779190612add565b50935050925092506118ce828a61188e9190612ab7565b6040805160208082018e90528183018d9052606082018c905260808083018c90528351808403909101815260a090920190925280519101209085876120d3565b61191a5760405162461bcd60e51b815260206004820152601c60248201527f4678526f6f7454756e6e656c3a20494e56414c49445f48454144455200000000604482015260640161060a565b505050505050505050565b6040805160208101909152606081526040518060200160405280611959846020015160018151811061144257611442612854565b905292915050565b604080518082019091525f8082526020820152825180518390811061198857611988612854565b6020026020010151905092915050565b80515f90158015906119ac57508151602110155b6119b4575f80fd5b5f806119bf84612248565b81519193509150602082101561177d5760208290036101000a9004949350505050565b606061109d826020015160028151811061109057611090612854565b7f00000000000000000000000000000000000000000000000000000000000000006001600160a01b0316836001600160a01b031614611a9a576040517f2f3111fa0000000000000000000000000000000000000000000000000000000081523360048201526001600160a01b037f000000000000000000000000000000000000000000000000000000000000000016602482015260440161060a565b5f546001600160a01b03838116911614611af6575f546040517f0d16cbdd0000000000000000000000000000000000000000000000000000000081526001600160a01b038085166004830152909116602482015260440161060a565b5f546040517f0000000000000000000000000000000000000000000000000000000000000000916001600160a01b0316907f98bbde530ec85b002f6fb0864beccaaf3ac3d2a4ac35cb3b03cf7c61ee415e3390611b54908590612b26565b60405180910390a35f81806020019051810190611b719190612b38565b6040517f59a8dfb90000000000000000000000000000000000000000000000000000000081527f00000000000000000000000000000000000000000000000000000000000000006004820152602481018290529091507f00000000000000000000000000000000000000000000000000000000000000006001600160a01b0316906359a8dfb9906044015f604051808303815f87803b158015611c12575f80fd5b505af1158015611c24573d5f803e3d5ffd5b5050505050505050565b6060611c3982611e2f565b611c41575f80fd5b5f611c4b8361228a565b90505f8167ffffffffffffffff811115611c6757611c676124ee565b604051908082528060200260200182016040528015611cab57816020015b604080518082019091525f8082526020820152815260200190600190039081611c855790505b5090505f611cbc856020015161230a565b8560200151611ccb9190612aca565b90505f805b84811015611d2957611ce18361238a565b9150604051806040016040528083815260200184815250848281518110611d0a57611d0a612854565b6020908102919091010152611d1f8284612aca565b9250600101611cd0565b509195945050505050565b8051606090611d41575f80fd5b5f80611d4c84612248565b915091505f8167ffffffffffffffff811115611d6a57611d6a6124ee565b6040519080825280601f01601f191660200182016040528015611d94576020820181803683370190505b50905060208101611da684828561244b565b50949350505050565b5f611dbb600284612b4f565b15611df557601082611dce600286612b62565b81518110611dde57611dde612854565b0160200151611df0919060f81c612b75565b611e25565b601082611e03600286612b62565b81518110611e1357611e13612854565b0160200151611e25919060f81c612b96565b60f81b9392505050565b80515f908103611e4057505f919050565b602082015180515f1a9060c0821015611e5c57505f9392505050565b5060019392505050565b805f03611e7257505050565b60208110611eaa5782518252611e89602084612aca565b9250611e96602083612aca565b9150611ea3602082612ab7565b9050611e72565b805f03611eb657505050565b5f6001611ec4836020612ab7565b611ed090610100612c97565b611eda9190612ab7565b935183518516941916939093179091525050565b80515f90601514611efd575f80fd5b61109d82611998565b60605f825f015167ffffffffffffffff811115611f2557611f256124ee565b6040519080825280601f01601f191660200182016040528015611f4f576020820181803683370190505b50905080515f03611f605792915050565b5f816020019050611f79846020015182865f015161244b565b5092915050565b80515f90602114611f8f575f80fd5b5f8083602001516001611fa29190612aca565b51949350505050565b5f8080611fb7866110ca565b90505f815167ffffffffffffffff811115611fd457611fd46124ee565b6040519080825280601f01601f191660200182016040528015611ffe576020820181803683370190505b509050845b825161200f9087612aca565b8110156120a5575f87828151811061202957612029612854565b01602001517fff00000000000000000000000000000000000000000000000000000000000000169050808361205e8985612ab7565b8151811061206e5761206e612854565b60200101907effffffffffffffffffffffffffffffffffffffffffffffffffffffffffffff191690815f1a90535050600101612003565b5080805190602001208280519060200120036120c457815192506120c8565b5f92505b509095945050505050565b5f602082516120e29190612b4f565b1561212f5760405162461bcd60e51b815260206004820152601460248201527f496e76616c69642070726f6f66206c656e677468000000000000000000000000604482015260640161060a565b5f6020835161213e9190612b62565b905061214b816002612c97565b85106121995760405162461bcd60e51b815260206004820152601560248201527f4c65616620696e64657820697320746f6f206269670000000000000000000000604482015260640161060a565b5f8660205b8551811161223a578581015192506121b7600289612b4f565b5f036121ee57604080516020810184905290810184905260600160405160208183030381529060405280519060200120915061221b565b60408051602081018590529081018390526060016040516020818303038152906040528051906020012091505b612226600289612b62565b9750612233602082612aca565b905061219e565b509094149695505050505050565b5f805f612258846020015161230a565b90505f81856020015161226b9190612aca565b90505f82865f015161227d9190612ab7565b9196919550909350505050565b80515f90810361229b57505f919050565b5f806122aa846020015161230a565b84602001516122b99190612aca565b90505f845f015185602001516122cf9190612aca565b90505b80821015612301576122e38261238a565b6122ed9083612aca565b9150826122f981612881565b9350506122d2565b50909392505050565b80515f90811a608081101561232157505f92915050565b60b881108061233c575060c0811080159061233c575060f881105b1561234a5750600192915050565b60c081101561237e5761235f600160b8612ca2565b61236c9060ff1682612ab7565b612377906001612aca565b9392505050565b61235f600160f8612ca2565b80515f908190811a60808110156123a45760019150611f79565b60b88110156123ca576123b8608082612ab7565b6123c3906001612aca565b9150611f79565b60c08110156123f75760b78103600185019450806020036101000a85510460018201810193505050611f79565b60f881101561240b576123b860c082612ab7565b60019390930151602084900360f7016101000a90049092017fffffffffffffffffffffffffffffffffffffffffffffffffffffffffffffff0a0192915050565b805f0361245757505050565b6020811061248f578251825261246e602084612aca565b925061247b602083612aca565b9150612488602082612ab7565b9050612457565b80156124a3575f6001611ec4836020612ab7565b505050565b6001600160a01b0381168114610586575f80fd5b5f602082840312156124cc575f80fd5b8135612377816124a8565b5f602082840312156124e7575f80fd5b5035919050565b7f4e487b71000000000000000000000000000000000000000000000000000000005f52604160045260245ffd5b604051601f8201601f1916810167ffffffffffffffff81118282101715612544576125446124ee565b604052919050565b5f67ffffffffffffffff821115612565576125656124ee565b50601f01601f191660200190565b5f82601f830112612582575f80fd5b81356125956125908261254c565b61251b565b8181528460208386010111156125a9575f80fd5b816020850160208301375f918101602001919091529392505050565b5f805f80608085870312156125d8575f80fd5b84356125e3816124a8565b935060208501359250604085013567ffffffffffffffff811115612605575f80fd5b61261187828801612573565b949793965093946060013593505050565b5f67ffffffffffffffff82111561263b5761263b6124ee565b5060051b60200190565b5f82601f830112612654575f80fd5b8135602061266461259083612622565b8083825260208201915060208460051b870101935086841115612685575f80fd5b602086015b848110156126a1578035835291830191830161268a565b509695505050505050565b5f805f80608085870312156126bf575f80fd5b843567ffffffffffffffff808211156126d6575f80fd5b818701915087601f8301126126e9575f80fd5b813560206126f961259083612622565b82815260059290921b8401810191818101908b841115612717575f80fd5b948201945b8386101561273e57853561272f816124a8565b8252948201949082019061271c565b98505088013592505080821115612753575f80fd5b61275f88838901612645565b94506040870135915080821115612774575f80fd5b5061261187828801612573565b5f60208284031215612791575f80fd5b813567ffffffffffffffff8111156127a7575f80fd5b61177d84828501612573565b7f4e487b71000000000000000000000000000000000000000000000000000000005f52601260045260245ffd5b7f4e487b71000000000000000000000000000000000000000000000000000000005f52601160045260245ffd5b5f67ffffffffffffffff80841680612827576128276127b3565b92169190910492915050565b67ffffffffffffffff828116828216039080821115611f7957611f796127e0565b7f4e487b71000000000000000000000000000000000000000000000000000000005f52603260045260245ffd5b5f5f198203612892576128926127e0565b5060010190565b5f815180845260208085019450602084015f5b838110156128d15781516001600160a01b0316875295820195908201906001016128ac565b509495945050505050565b5f815180845260208085019450602084015f5b838110156128d1578151875295820195908201906001016128ef565b606081525f61291d6060830186612899565b828103602084015261292f81866128dc565b915050826040830152949350505050565b5f60208284031215612950575f80fd5b81518015158114612377575f80fd5b5f81518084528060208401602086015e5f602082860101526020601f19601f83011685010191505092915050565b5f6001600160a01b038086168352808516602084015250606060408301526129b8606083018461295f565b95945050505050565b604081525f6129d36040830185612899565b82810360208401526129b881856128dc565b8381525f83518060208601602085015e60209201918201929092526040019392505050565b5f60208284031215612a1a575f80fd5b815167ffffffffffffffff811115612a30575f80fd5b8201601f81018413612a40575f80fd5b8051612a4e6125908261254c565b818152856020838501011115612a62575f80fd5b8160208401602083015e5f91810160200191909152949350505050565b6001600160a01b0383168152604060208201525f61177d604083018461295f565b808202811582820484141761109d5761109d6127e0565b8181038181111561109d5761109d6127e0565b8082018082111561109d5761109d6127e0565b5f805f805f60a08688031215612af1575f80fd5b855194506020860151935060408601519250606086015191506080860151612b18816124a8565b809150509295509295909350565b602081525f612377602083018461295f565b5f60208284031215612b48575f80fd5b5051919050565b5f82612b5d57612b5d6127b3565b500690565b5f82612b7057612b706127b3565b500490565b5f60ff831680612b8757612b876127b3565b8060ff84160691505092915050565b5f60ff831680612ba857612ba86127b3565b8060ff84160491505092915050565b600181815b80851115612bf157815f1904821115612bd757612bd76127e0565b80851615612be457918102915b93841c9390800290612bbc565b509250929050565b5f82612c075750600161109d565b81612c1357505f61109d565b8160018114612c295760028114612c3357612c4f565b600191505061109d565b60ff841115612c4457612c446127e0565b50506001821b61109d565b5060208310610133831016604e8410600b8410161715612c72575081810a61109d565b612c7c8383612bb7565b805f1904821115612c8f57612c8f6127e0565b029392505050565b5f6123778383612bf9565b60ff828116828216039081111561109d5761109d6127e056fea26469706673582212206ebbbc74d1021fc5996ebcb6a2c396e9ddafb06f617fae0200e53a72111c93cb64736f6c63430008190033",
  "linkReferences": {},
  "deployedLinkReferences": {}
}