{
  "_format": "hh-sol-artifact-1",
  "contractName": "Tokenomics",
  "sourceName": "contracts/Tokenomics.sol",
  "abi": [
    {
      "inputs": [],
      "stateMutability": "nonpayable",
      "type": "constructor"
    },
    {
      "inputs": [],
      "name": "AlreadyInitialized",
      "type": "error"
    },
    {
      "inputs": [],
      "name": "DelegatecallOnly",
      "type": "error"
    },
    {
      "inputs": [
        {
          "internalType": "address",
          "name": "account",
          "type": "address"
        }
      ],
      "name": "DonatorBlacklisted",
      "type": "error"
    },
    {
      "inputs": [
        {
          "internalType": "uint256",
          "name": "provided",
          "type": "uint256"
        },
        {
          "internalType": "uint256",
          "name": "expected",
          "type": "uint256"
        }
      ],
      "name": "LowerThan",
      "type": "error"
    },
    {
      "inputs": [
        {
          "internalType": "address",
          "name": "sender",
          "type": "address"
        },
        {
          "internalType": "address",
          "name": "manager",
          "type": "address"
        }
      ],
      "name": "ManagerOnly",
      "type": "error"
    },
    {
      "inputs": [
        {
          "internalType": "uint256",
          "name": "provided",
          "type": "uint256"
        },
        {
          "internalType": "uint256",
          "name": "max",
          "type": "uint256"
        }
      ],
      "name": "Overflow",
      "type": "error"
    },
    {
      "inputs": [
        {
          "internalType": "address",
          "name": "sender",
          "type": "address"
        },
        {
          "internalType": "address",
          "name": "owner",
          "type": "address"
        }
      ],
      "name": "OwnerOnly",
      "type": "error"
    },
    {
      "inputs": [
        {
          "internalType": "uint256",
          "name": "x",
          "type": "uint256"
        },
        {
          "internalType": "uint256",
          "name": "y",
          "type": "uint256"
        }
      ],
      "name": "PRBMath_MulDiv18_Overflow",
      "type": "error"
    },
    {
      "inputs": [
        {
          "internalType": "uint256",
          "name": "x",
          "type": "uint256"
        },
        {
          "internalType": "uint256",
          "name": "y",
          "type": "uint256"
        },
        {
          "internalType": "uint256",
          "name": "denominator",
          "type": "uint256"
        }
      ],
      "name": "PRBMath_MulDiv_Overflow",
      "type": "error"
    },
    {
      "inputs": [
        {
          "internalType": "uint256",
          "name": "x",
          "type": "uint256"
        }
      ],
      "name": "PRBMath_UD60x18_Convert_Overflow",
      "type": "error"
    },
    {
      "inputs": [],
      "name": "SameBlockNumberViolation",
      "type": "error"
    },
    {
      "inputs": [
        {
          "internalType": "uint256",
          "name": "serviceId",
          "type": "uint256"
        }
      ],
      "name": "ServiceDoesNotExist",
      "type": "error"
    },
    {
      "inputs": [
        {
          "internalType": "uint256",
          "name": "serviceId",
          "type": "uint256"
        }
      ],
      "name": "ServiceNeverDeployed",
      "type": "error"
    },
    {
      "inputs": [
        {
          "internalType": "uint256",
          "name": "epochNumber",
          "type": "uint256"
        }
      ],
      "name": "TreasuryRebalanceFailed",
      "type": "error"
    },
    {
      "inputs": [
        {
          "internalType": "uint256",
          "name": "provided",
          "type": "uint256"
        },
        {
          "internalType": "uint256",
          "name": "expected",
          "type": "uint256"
        }
      ],
      "name": "WrongAmount",
      "type": "error"
    },
    {
      "inputs": [
        {
          "internalType": "uint256",
          "name": "numValues1",
          "type": "uint256"
        },
        {
          "internalType": "uint256",
          "name": "numValues2",
          "type": "uint256"
        }
      ],
      "name": "WrongArrayLength",
      "type": "error"
    },
    {
      "inputs": [
        {
          "internalType": "uint256",
          "name": "unitId",
          "type": "uint256"
        },
        {
          "internalType": "uint256",
          "name": "unitType",
          "type": "uint256"
        }
      ],
      "name": "WrongUnitId",
      "type": "error"
    },
    {
      "inputs": [],
      "name": "ZeroAddress",
      "type": "error"
    },
    {
      "inputs": [],
      "name": "ZeroValue",
      "type": "error"
    },
    {
      "anonymous": false,
      "inputs": [
        {
          "indexed": true,
          "internalType": "address",
          "name": "agentRegistry",
          "type": "address"
        }
      ],
      "name": "AgentRegistryUpdated",
      "type": "event"
    },
    {
      "anonymous": false,
      "inputs": [
        {
          "indexed": true,
          "internalType": "address",
          "name": "componentRegistry",
          "type": "address"
        }
      ],
      "name": "ComponentRegistryUpdated",
      "type": "event"
    },
    {
      "anonymous": false,
      "inputs": [
        {
          "indexed": true,
          "internalType": "address",
          "name": "depository",
          "type": "address"
        }
      ],
      "name": "DepositoryUpdated",
      "type": "event"
    },
    {
      "anonymous": false,
      "inputs": [
        {
          "indexed": true,
          "internalType": "address",
          "name": "dispenser",
          "type": "address"
        }
      ],
      "name": "DispenserUpdated",
      "type": "event"
    },
    {
      "anonymous": false,
      "inputs": [
        {
          "indexed": true,
          "internalType": "address",
          "name": "blacklist",
          "type": "address"
        }
      ],
      "name": "DonatorBlacklistUpdated",
      "type": "event"
    },
    {
      "anonymous": false,
      "inputs": [
        {
          "indexed": true,
          "internalType": "uint256",
          "name": "epochNumber",
          "type": "uint256"
        },
        {
          "indexed": false,
          "internalType": "uint256",
          "name": "effectiveBond",
          "type": "uint256"
        }
      ],
      "name": "EffectiveBondUpdated",
      "type": "event"
    },
    {
      "anonymous": false,
      "inputs": [
        {
          "indexed": false,
          "internalType": "uint256",
          "name": "epochLen",
          "type": "uint256"
        }
      ],
      "name": "EpochLengthUpdated",
      "type": "event"
    },
    {
      "anonymous": false,
      "inputs": [
        {
          "indexed": true,
          "internalType": "uint256",
          "name": "epochCounter",
          "type": "uint256"
        },
        {
          "indexed": false,
          "internalType": "uint256",
          "name": "treasuryRewards",
          "type": "uint256"
        },
        {
          "indexed": false,
          "internalType": "uint256",
          "name": "accountRewards",
          "type": "uint256"
        },
        {
          "indexed": false,
          "internalType": "uint256",
          "name": "accountTopUps",
          "type": "uint256"
        },
        {
          "indexed": false,
          "internalType": "uint256",
          "name": "effectiveBond",
          "type": "uint256"
        },
        {
          "indexed": false,
          "internalType": "uint256",
          "name": "returnedStakingIncentive",
          "type": "uint256"
        },
        {
          "indexed": false,
          "internalType": "uint256",
          "name": "totalStakingIncentive",
          "type": "uint256"
        }
      ],
      "name": "EpochSettled",
      "type": "event"
    },
    {
      "anonymous": false,
      "inputs": [
        {
          "indexed": false,
          "internalType": "uint256",
          "name": "idf",
          "type": "uint256"
        }
      ],
      "name": "IDFUpdated",
      "type": "event"
    },
    {
      "anonymous": false,
      "inputs": [
        {
          "indexed": true,
          "internalType": "uint256",
          "name": "epochNumber",
          "type": "uint256"
        },
        {
          "indexed": false,
          "internalType": "uint256",
          "name": "rewardComponentFraction",
          "type": "uint256"
        },
        {
          "indexed": false,
          "internalType": "uint256",
          "name": "rewardAgentFraction",
          "type": "uint256"
        },
        {
          "indexed": false,
          "internalType": "uint256",
          "name": "maxBondFraction",
          "type": "uint256"
        },
        {
          "indexed": false,
          "internalType": "uint256",
          "name": "topUpComponentFraction",
          "type": "uint256"
        },
        {
          "indexed": false,
          "internalType": "uint256",
          "name": "topUpAgentFraction",
          "type": "uint256"
        },
        {
          "indexed": false,
          "internalType": "uint256",
          "name": "stakingFraction",
          "type": "uint256"
        }
      ],
      "name": "IncentiveFractionsUpdateRequested",
      "type": "event"
    },
    {
      "anonymous": false,
      "inputs": [
        {
          "indexed": true,
          "internalType": "uint256",
          "name": "epochNumber",
          "type": "uint256"
        }
      ],
      "name": "IncentiveFractionsUpdated",
      "type": "event"
    },
    {
      "anonymous": false,
      "inputs": [
        {
          "indexed": true,
          "internalType": "address",
          "name": "owner",
          "type": "address"
        }
      ],
      "name": "OwnerUpdated",
      "type": "event"
    },
    {
      "anonymous": false,
      "inputs": [
        {
          "indexed": true,
          "internalType": "address",
          "name": "serviceRegistry",
          "type": "address"
        }
      ],
      "name": "ServiceRegistryUpdated",
      "type": "event"
    },
    {
      "anonymous": false,
      "inputs": [
        {
          "indexed": true,
          "internalType": "uint256",
          "name": "epochNumber",
          "type": "uint256"
        },
        {
          "indexed": false,
          "internalType": "uint256",
          "name": "maxStakingIncentive",
          "type": "uint256"
        },
        {
          "indexed": false,
          "internalType": "uint256",
          "name": "minStakingWeight",
          "type": "uint256"
        }
      ],
      "name": "StakingParamsUpdateRequested",
      "type": "event"
    },
    {
      "anonymous": false,
      "inputs": [
        {
          "indexed": true,
          "internalType": "uint256",
          "name": "epochNumber",
          "type": "uint256"
        }
      ],
      "name": "StakingParamsUpdated",
      "type": "event"
    },
    {
      "anonymous": false,
      "inputs": [
        {
          "indexed": true,
          "internalType": "uint256",
          "name": "epochNumber",
          "type": "uint256"
        },
        {
          "indexed": false,
          "internalType": "uint256",
          "name": "amount",
          "type": "uint256"
        }
      ],
      "name": "StakingRefunded",
      "type": "event"
    },
    {
      "anonymous": false,
      "inputs": [
        {
          "indexed": true,
          "internalType": "address",
          "name": "implementation",
          "type": "address"
        }
      ],
      "name": "TokenomicsImplementationUpdated",
      "type": "event"
    },
    {
      "anonymous": false,
      "inputs": [
        {
          "indexed": true,
          "internalType": "uint256",
          "name": "epochNumber",
          "type": "uint256"
        },
        {
          "indexed": false,
          "internalType": "uint256",
          "name": "devsPerCapital",
          "type": "uint256"
        },
        {
          "indexed": false,
          "internalType": "uint256",
          "name": "codePerDev",
          "type": "uint256"
        },
        {
          "indexed": false,
          "internalType": "uint256",
          "name": "epsilonRate",
          "type": "uint256"
        },
        {
          "indexed": false,
          "internalType": "uint256",
          "name": "epochLen",
          "type": "uint256"
        },
        {
          "indexed": false,
          "internalType": "uint256",
          "name": "veOLASThreshold",
          "type": "uint256"
        }
      ],
      "name": "TokenomicsParametersUpdateRequested",
      "type": "event"
    },
    {
      "anonymous": false,
      "inputs": [
        {
          "indexed": true,
          "internalType": "uint256",
          "name": "epochNumber",
          "type": "uint256"
        }
      ],
      "name": "TokenomicsParametersUpdated",
      "type": "event"
    },
    {
      "anonymous": false,
      "inputs": [
        {
          "indexed": true,
          "internalType": "address",
          "name": "treasury",
          "type": "address"
        }
      ],
      "name": "TreasuryUpdated",
      "type": "event"
    },
    {
      "inputs": [],
      "name": "MAX_EPOCH_LENGTH",
      "outputs": [
        {
          "internalType": "uint256",
          "name": "",
          "type": "uint256"
        }
      ],
      "stateMutability": "view",
      "type": "function"
    },
    {
      "inputs": [],
      "name": "MAX_STAKING_WEIGHT",
      "outputs": [
        {
          "internalType": "uint256",
          "name": "",
          "type": "uint256"
        }
      ],
      "stateMutability": "view",
      "type": "function"
    },
    {
      "inputs": [],
      "name": "MIN_EPOCH_LENGTH",
      "outputs": [
        {
          "internalType": "uint256",
          "name": "",
          "type": "uint256"
        }
      ],
      "stateMutability": "view",
      "type": "function"
    },
    {
      "inputs": [],
      "name": "MIN_PARAM_VALUE",
      "outputs": [
        {
          "internalType": "uint256",
          "name": "",
          "type": "uint256"
        }
      ],
      "stateMutability": "view",
      "type": "function"
    },
    {
      "inputs": [],
      "name": "ONE_YEAR",
      "outputs": [
        {
          "internalType": "uint256",
          "name": "",
          "type": "uint256"
        }
      ],
      "stateMutability": "view",
      "type": "function"
    },
    {
      "inputs": [],
      "name": "PROXY_TOKENOMICS",
      "outputs": [
        {
          "internalType": "bytes32",
          "name": "",
          "type": "bytes32"
        }
      ],
      "stateMutability": "view",
      "type": "function"
    },
    {
      "inputs": [],
      "name": "VERSION",
      "outputs": [
        {
          "internalType": "string",
          "name": "",
          "type": "string"
        }
      ],
      "stateMutability": "view",
      "type": "function"
    },
    {
      "inputs": [
        {
          "internalType": "address",
          "name": "account",
          "type": "address"
        },
        {
          "internalType": "uint256[]",
          "name": "unitTypes",
          "type": "uint256[]"
        },
        {
          "internalType": "uint256[]",
          "name": "unitIds",
          "type": "uint256[]"
        }
      ],
      "name": "accountOwnerIncentives",
      "outputs": [
        {
          "internalType": "uint256",
          "name": "reward",
          "type": "uint256"
        },
        {
          "internalType": "uint256",
          "name": "topUp",
          "type": "uint256"
        }
      ],
      "stateMutability": "nonpayable",
      "type": "function"
    },
    {
      "inputs": [],
      "name": "agentRegistry",
      "outputs": [
        {
          "internalType": "address",
          "name": "",
          "type": "address"
        }
      ],
      "stateMutability": "view",
      "type": "function"
    },
    {
      "inputs": [
        {
          "internalType": "address",
          "name": "_donatorBlacklist",
          "type": "address"
        }
      ],
      "name": "changeDonatorBlacklist",
      "outputs": [],
      "stateMutability": "nonpayable",
      "type": "function"
    },
    {
      "inputs": [
        {
          "internalType": "uint256",
          "name": "_rewardComponentFraction",
          "type": "uint256"
        },
        {
          "internalType": "uint256",
          "name": "_rewardAgentFraction",
          "type": "uint256"
        },
        {
          "internalType": "uint256",
          "name": "_maxBondFraction",
          "type": "uint256"
        },
        {
          "internalType": "uint256",
          "name": "_topUpComponentFraction",
          "type": "uint256"
        },
        {
          "internalType": "uint256",
          "name": "_topUpAgentFraction",
          "type": "uint256"
        },
        {
          "internalType": "uint256",
          "name": "_stakingFraction",
          "type": "uint256"
        }
      ],
      "name": "changeIncentiveFractions",
      "outputs": [],
      "stateMutability": "nonpayable",
      "type": "function"
    },
    {
      "inputs": [
        {
          "internalType": "address",
          "name": "_treasury",
          "type": "address"
        },
        {
          "internalType": "address",
          "name": "_depository",
          "type": "address"
        },
        {
          "internalType": "address",
          "name": "_dispenser",
          "type": "address"
        }
      ],
      "name": "changeManagers",
      "outputs": [],
      "stateMutability": "nonpayable",
      "type": "function"
    },
    {
      "inputs": [
        {
          "internalType": "address",
          "name": "newOwner",
          "type": "address"
        }
      ],
      "name": "changeOwner",
      "outputs": [],
      "stateMutability": "nonpayable",
      "type": "function"
    },
    {
      "inputs": [
        {
          "internalType": "address",
          "name": "_componentRegistry",
          "type": "address"
        },
        {
          "internalType": "address",
          "name": "_agentRegistry",
          "type": "address"
        },
        {
          "internalType": "address",
          "name": "_serviceRegistry",
          "type": "address"
        }
      ],
      "name": "changeRegistries",
      "outputs": [],
      "stateMutability": "nonpayable",
      "type": "function"
    },
    {
      "inputs": [
        {
          "internalType": "uint256",
          "name": "_maxStakingIncentive",
          "type": "uint256"
        },
        {
          "internalType": "uint256",
          "name": "_minStakingWeight",
          "type": "uint256"
        }
      ],
      "name": "changeStakingParams",
      "outputs": [],
      "stateMutability": "nonpayable",
      "type": "function"
    },
    {
      "inputs": [
        {
          "internalType": "address",
          "name": "implementation",
          "type": "address"
        }
      ],
      "name": "changeTokenomicsImplementation",
      "outputs": [],
      "stateMutability": "nonpayable",
      "type": "function"
    },
    {
      "inputs": [
        {
          "internalType": "uint256",
          "name": "_devsPerCapital",
          "type": "uint256"
        },
        {
          "internalType": "uint256",
          "name": "_codePerDev",
          "type": "uint256"
        },
        {
          "internalType": "uint256",
          "name": "_epsilonRate",
          "type": "uint256"
        },
        {
          "internalType": "uint256",
          "name": "_epochLen",
          "type": "uint256"
        },
        {
          "internalType": "uint256",
          "name": "_veOLASThreshold",
          "type": "uint256"
        }
      ],
      "name": "changeTokenomicsParameters",
      "outputs": [],
      "stateMutability": "nonpayable",
      "type": "function"
    },
    {
      "inputs": [],
      "name": "checkpoint",
      "outputs": [
        {
          "internalType": "bool",
          "name": "",
          "type": "bool"
        }
      ],
      "stateMutability": "nonpayable",
      "type": "function"
    },
    {
      "inputs": [],
      "name": "codePerDev",
      "outputs": [
        {
          "internalType": "uint72",
          "name": "",
          "type": "uint72"
        }
      ],
      "stateMutability": "view",
      "type": "function"
    },
    {
      "inputs": [],
      "name": "componentRegistry",
      "outputs": [
        {
          "internalType": "address",
          "name": "",
          "type": "address"
        }
      ],
      "stateMutability": "view",
      "type": "function"
    },
    {
      "inputs": [],
      "name": "currentYear",
      "outputs": [
        {
          "internalType": "uint8",
          "name": "",
          "type": "uint8"
        }
      ],
      "stateMutability": "view",
      "type": "function"
    },
    {
      "inputs": [],
      "name": "depository",
      "outputs": [
        {
          "internalType": "address",
          "name": "",
          "type": "address"
        }
      ],
      "stateMutability": "view",
      "type": "function"
    },
    {
      "inputs": [],
      "name": "devsPerCapital",
      "outputs": [
        {
          "internalType": "uint72",
          "name": "",
          "type": "uint72"
        }
      ],
      "stateMutability": "view",
      "type": "function"
    },
    {
      "inputs": [],
      "name": "dispenser",
      "outputs": [
        {
          "internalType": "address",
          "name": "",
          "type": "address"
        }
      ],
      "stateMutability": "view",
      "type": "function"
    },
    {
      "inputs": [],
      "name": "donatorBlacklist",
      "outputs": [
        {
          "internalType": "address",
          "name": "",
          "type": "address"
        }
      ],
      "stateMutability": "view",
      "type": "function"
    },
    {
      "inputs": [],
      "name": "effectiveBond",
      "outputs": [
        {
          "internalType": "uint96",
          "name": "",
          "type": "uint96"
        }
      ],
      "stateMutability": "view",
      "type": "function"
    },
    {
      "inputs": [],
      "name": "epochCounter",
      "outputs": [
        {
          "internalType": "uint32",
          "name": "",
          "type": "uint32"
        }
      ],
      "stateMutability": "view",
      "type": "function"
    },
    {
      "inputs": [],
      "name": "epochLen",
      "outputs": [
        {
          "internalType": "uint32",
          "name": "",
          "type": "uint32"
        }
      ],
      "stateMutability": "view",
      "type": "function"
    },
    {
      "inputs": [],
      "name": "epsilonRate",
      "outputs": [
        {
          "internalType": "uint64",
          "name": "",
          "type": "uint64"
        }
      ],
      "stateMutability": "view",
      "type": "function"
    },
    {
      "inputs": [
        {
          "internalType": "uint256",
          "name": "epoch",
          "type": "uint256"
        }
      ],
      "name": "getEpochEndTime",
      "outputs": [
        {
          "internalType": "uint256",
          "name": "",
          "type": "uint256"
        }
      ],
      "stateMutability": "view",
      "type": "function"
    },
    {
      "inputs": [
        {
          "internalType": "uint256",
          "name": "numYears",
          "type": "uint256"
        }
      ],
      "name": "getInflationForYear",
      "outputs": [
        {
          "internalType": "uint256",
          "name": "inflationAmount",
          "type": "uint256"
        }
      ],
      "stateMutability": "pure",
      "type": "function"
    },
    {
      "inputs": [],
      "name": "getLastIDF",
      "outputs": [
        {
          "internalType": "uint256",
          "name": "",
          "type": "uint256"
        }
      ],
      "stateMutability": "view",
      "type": "function"
    },
    {
      "inputs": [
        {
          "internalType": "address",
          "name": "account",
          "type": "address"
        },
        {
          "internalType": "uint256[]",
          "name": "unitTypes",
          "type": "uint256[]"
        },
        {
          "internalType": "uint256[]",
          "name": "unitIds",
          "type": "uint256[]"
        }
      ],
      "name": "getOwnerIncentives",
      "outputs": [
        {
          "internalType": "uint256",
          "name": "reward",
          "type": "uint256"
        },
        {
          "internalType": "uint256",
          "name": "topUp",
          "type": "uint256"
        }
      ],
      "stateMutability": "view",
      "type": "function"
    },
    {
      "inputs": [
        {
          "internalType": "uint256",
          "name": "numYears",
          "type": "uint256"
        }
      ],
      "name": "getSupplyCapForYear",
      "outputs": [
        {
          "internalType": "uint256",
          "name": "supplyCap",
          "type": "uint256"
        }
      ],
      "stateMutability": "pure",
      "type": "function"
    },
    {
      "inputs": [
        {
          "internalType": "uint256",
          "name": "epoch",
          "type": "uint256"
        },
        {
          "internalType": "uint256",
          "name": "unitType",
          "type": "uint256"
        }
      ],
      "name": "getUnitPoint",
      "outputs": [
        {
          "components": [
            {
              "internalType": "uint96",
              "name": "sumUnitTopUpsOLAS",
              "type": "uint96"
            },
            {
              "internalType": "uint32",
              "name": "numNewUnits",
              "type": "uint32"
            },
            {
              "internalType": "uint8",
              "name": "rewardUnitFraction",
              "type": "uint8"
            },
            {
              "internalType": "uint8",
              "name": "topUpUnitFraction",
              "type": "uint8"
            }
          ],
          "internalType": "struct UnitPoint",
          "name": "",
          "type": "tuple"
        }
      ],
      "stateMutability": "view",
      "type": "function"
    },
    {
      "inputs": [],
      "name": "inflationPerSecond",
      "outputs": [
        {
          "internalType": "uint96",
          "name": "",
          "type": "uint96"
        }
      ],
      "stateMutability": "view",
      "type": "function"
    },
    {
      "inputs": [
        {
          "internalType": "address",
          "name": "_olas",
          "type": "address"
        },
        {
          "internalType": "address",
          "name": "_treasury",
          "type": "address"
        },
        {
          "internalType": "address",
          "name": "_depository",
          "type": "address"
        },
        {
          "internalType": "address",
          "name": "_dispenser",
          "type": "address"
        },
        {
          "internalType": "address",
          "name": "_ve",
          "type": "address"
        },
        {
          "internalType": "uint256",
          "name": "_epochLen",
          "type": "uint256"
        },
        {
          "internalType": "address",
          "name": "_componentRegistry",
          "type": "address"
        },
        {
          "internalType": "address",
          "name": "_agentRegistry",
          "type": "address"
        },
        {
          "internalType": "address",
          "name": "_serviceRegistry",
          "type": "address"
        },
        {
          "internalType": "address",
          "name": "_donatorBlacklist",
          "type": "address"
        }
      ],
      "name": "initializeTokenomics",
      "outputs": [],
      "stateMutability": "nonpayable",
      "type": "function"
    },
    {
      "inputs": [],
      "name": "lastDonationBlockNumber",
      "outputs": [
        {
          "internalType": "uint32",
          "name": "",
          "type": "uint32"
        }
      ],
      "stateMutability": "view",
      "type": "function"
    },
    {
      "inputs": [
        {
          "internalType": "uint256",
          "name": "",
          "type": "uint256"
        }
      ],
      "name": "mapEpochStakingPoints",
      "outputs": [
        {
          "internalType": "uint96",
          "name": "stakingIncentive",
          "type": "uint96"
        },
        {
          "internalType": "uint96",
          "name": "maxStakingIncentive",
          "type": "uint96"
        },
        {
          "internalType": "uint16",
          "name": "minStakingWeight",
          "type": "uint16"
        },
        {
          "internalType": "uint8",
          "name": "stakingFraction",
          "type": "uint8"
        }
      ],
      "stateMutability": "view",
      "type": "function"
    },
    {
      "inputs": [
        {
          "internalType": "uint256",
          "name": "",
          "type": "uint256"
        }
      ],
      "name": "mapEpochTokenomics",
      "outputs": [
        {
          "components": [
            {
              "internalType": "uint96",
              "name": "totalDonationsETH",
              "type": "uint96"
            },
            {
              "internalType": "uint96",
              "name": "totalTopUpsOLAS",
              "type": "uint96"
            },
            {
              "internalType": "uint64",
              "name": "idf",
              "type": "uint64"
            },
            {
              "internalType": "uint32",
              "name": "numNewOwners",
              "type": "uint32"
            },
            {
              "internalType": "uint32",
              "name": "endTime",
              "type": "uint32"
            },
            {
              "internalType": "uint8",
              "name": "rewardTreasuryFraction",
              "type": "uint8"
            },
            {
              "internalType": "uint8",
              "name": "maxBondFraction",
              "type": "uint8"
            }
          ],
          "internalType": "struct EpochPoint",
          "name": "epochPoint",
          "type": "tuple"
        }
      ],
      "stateMutability": "view",
      "type": "function"
    },
    {
      "inputs": [
        {
          "internalType": "address",
          "name": "",
          "type": "address"
        }
      ],
      "name": "mapNewOwners",
      "outputs": [
        {
          "internalType": "bool",
          "name": "",
          "type": "bool"
        }
      ],
      "stateMutability": "view",
      "type": "function"
    },
    {
      "inputs": [
        {
          "internalType": "uint256",
          "name": "",
          "type": "uint256"
        },
        {
          "internalType": "uint256",
          "name": "",
          "type": "uint256"
        }
      ],
      "name": "mapNewUnits",
      "outputs": [
        {
          "internalType": "bool",
          "name": "",
          "type": "bool"
        }
      ],
      "stateMutability": "view",
      "type": "function"
    },
    {
      "inputs": [
        {
          "internalType": "address",
          "name": "",
          "type": "address"
        }
      ],
      "name": "mapOwnerRewards",
      "outputs": [
        {
          "internalType": "uint256",
          "name": "",
          "type": "uint256"
        }
      ],
      "stateMutability": "view",
      "type": "function"
    },
    {
      "inputs": [
        {
          "internalType": "address",
          "name": "",
          "type": "address"
        }
      ],
      "name": "mapOwnerTopUps",
      "outputs": [
        {
          "internalType": "uint256",
          "name": "",
          "type": "uint256"
        }
      ],
      "stateMutability": "view",
      "type": "function"
    },
    {
      "inputs": [
        {
          "internalType": "uint256",
          "name": "",
          "type": "uint256"
        }
      ],
      "name": "mapServiceAmounts",
      "outputs": [
        {
          "internalType": "uint256",
          "name": "",
          "type": "uint256"
        }
      ],
      "stateMutability": "view",
      "type": "function"
    },
    {
      "inputs": [
        {
          "internalType": "uint256",
          "name": "",
          "type": "uint256"
        },
        {
          "internalType": "uint256",
          "name": "",
          "type": "uint256"
        }
      ],
      "name": "mapUnitIncentives",
      "outputs": [
        {
          "internalType": "uint96",
          "name": "reward",
          "type": "uint96"
        },
        {
          "internalType": "uint96",
          "name": "pendingRelativeReward",
          "type": "uint96"
        },
        {
          "internalType": "uint96",
          "name": "topUp",
          "type": "uint96"
        },
        {
          "internalType": "uint96",
          "name": "pendingRelativeTopUp",
          "type": "uint96"
        },
        {
          "internalType": "uint32",
          "name": "lastEpoch",
          "type": "uint32"
        }
      ],
      "stateMutability": "view",
      "type": "function"
    },
    {
      "inputs": [],
      "name": "maxBond",
      "outputs": [
        {
          "internalType": "uint96",
          "name": "",
          "type": "uint96"
        }
      ],
      "stateMutability": "view",
      "type": "function"
    },
    {
      "inputs": [],
      "name": "nextEpochLen",
      "outputs": [
        {
          "internalType": "uint32",
          "name": "",
          "type": "uint32"
        }
      ],
      "stateMutability": "view",
      "type": "function"
    },
    {
      "inputs": [],
      "name": "nextVeOLASThreshold",
      "outputs": [
        {
          "internalType": "uint96",
          "name": "",
          "type": "uint96"
        }
      ],
      "stateMutability": "view",
      "type": "function"
    },
    {
      "inputs": [],
      "name": "olas",
      "outputs": [
        {
          "internalType": "address",
          "name": "",
          "type": "address"
        }
      ],
      "stateMutability": "view",
      "type": "function"
    },
    {
      "inputs": [],
      "name": "owner",
      "outputs": [
        {
          "internalType": "address",
          "name": "",
          "type": "address"
        }
      ],
      "stateMutability": "view",
      "type": "function"
    },
    {
      "inputs": [
        {
          "internalType": "uint256",
          "name": "amount",
          "type": "uint256"
        }
      ],
      "name": "refundFromBondProgram",
      "outputs": [],
      "stateMutability": "nonpayable",
      "type": "function"
    },
    {
      "inputs": [
        {
          "internalType": "uint256",
          "name": "amount",
          "type": "uint256"
        }
      ],
      "name": "refundFromStaking",
      "outputs": [],
      "stateMutability": "nonpayable",
      "type": "function"
    },
    {
      "inputs": [
        {
          "internalType": "uint256",
          "name": "amount",
          "type": "uint256"
        }
      ],
      "name": "reserveAmountForBondProgram",
      "outputs": [
        {
          "internalType": "bool",
          "name": "success",
          "type": "bool"
        }
      ],
      "stateMutability": "nonpayable",
      "type": "function"
    },
    {
      "inputs": [],
      "name": "serviceRegistry",
      "outputs": [
        {
          "internalType": "address",
          "name": "",
          "type": "address"
        }
      ],
      "stateMutability": "view",
      "type": "function"
    },
    {
      "inputs": [],
      "name": "timeLaunch",
      "outputs": [
        {
          "internalType": "uint32",
          "name": "",
          "type": "uint32"
        }
      ],
      "stateMutability": "view",
      "type": "function"
    },
    {
      "inputs": [],
      "name": "tokenomicsImplementation",
      "outputs": [
        {
          "internalType": "address",
          "name": "implementation",
          "type": "address"
        }
      ],
      "stateMutability": "view",
      "type": "function"
    },
    {
      "inputs": [],
      "name": "tokenomicsParametersUpdated",
      "outputs": [
        {
          "internalType": "bytes1",
          "name": "",
          "type": "bytes1"
        }
      ],
      "stateMutability": "view",
      "type": "function"
    },
    {
      "inputs": [
        {
          "internalType": "address",
          "name": "donator",
          "type": "address"
        },
        {
          "internalType": "uint256[]",
          "name": "serviceIds",
          "type": "uint256[]"
        },
        {
          "internalType": "uint256[]",
          "name": "amounts",
          "type": "uint256[]"
        },
        {
          "internalType": "uint256",
          "name": "donationETH",
          "type": "uint256"
        }
      ],
      "name": "trackServiceDonations",
      "outputs": [],
      "stateMutability": "nonpayable",
      "type": "function"
    },
    {
      "inputs": [],
      "name": "treasury",
      "outputs": [
        {
          "internalType": "address",
          "name": "",
          "type": "address"
        }
      ],
      "stateMutability": "view",
      "type": "function"
    },
    {
      "inputs": [],
      "name": "ve",
      "outputs": [
        {
          "internalType": "address",
          "name": "",
          "type": "address"
        }
      ],
      "stateMutability": "view",
      "type": "function"
    },
    {
      "inputs": [],
      "name": "veOLASThreshold",
      "outputs": [
        {
          "internalType": "uint96",
          "name": "",
          "type": "uint96"
        }
      ],
      "stateMutability": "view",
      "type": "function"
    }
  ],
  "bytecode": "0x6080604052348015600e575f80fd5b50615f608061001c5f395ff3fe608060405234801561000f575f80fd5b50600436106103a7575f3560e01c80637fc72bbb116101ea578063bb36e16911610114578063d2b3996f116100a9578063e09d894d11610079578063e09d894d14610c1b578063e0e1447e14610c2e578063ff0039cb14610c48578063ffa1ad7414610c5b575f80fd5b8063d2b3996f14610b94578063d3567f3714610bab578063d4ee9f8d14610bd8578063d529779314610c08575f80fd5b8063c2c4c5c1116100e4578063c2c4c5c114610abe578063c4d76d3a14610ac6578063cbcf252a14610b67578063cdc7e0d714610b7a575f80fd5b8063bb36e16914610a7d578063bc291e1214610a85578063bc7d5c5c14610a98578063bedd12a514610aab575f80fd5b80638e4a83791161018a578063a66c8db71161015a578063a66c8db714610a04578063a6f9dae114610a17578063ace2cd2a14610a2a578063ba32427c14610a5e575f80fd5b80638e4a8379146109a95780638fc2b24d146109c05780639da3f913146109da5780639e3d9f07146109ed575f80fd5b80638b268f92116101c55780638b268f92146109425780638b5214fc1461095c5780638cd813d1146109785780638da5cb5b14610997575f80fd5b80637fc72bbb146108e757806380b3f2e3146108fa578063890371b214610911575f80fd5b80633d1d195d116102d657806361d027b31161026b5780637048960c1161023b5780637048960c1461084657806373ca93171461085957806374cff66c1461088f5780637dd9dc5e146108a2575f80fd5b806361d027b3146107f0578063626637ae146108035780636324b65e146108165780636a71e4761461083d575f80fd5b8063590a92d0116102a6578063590a92d0146107495780635bc022011461075c5780635cc8c0b01461076f57806361235f0614610791575f80fd5b80633d1d195d146106c9578063426e77df146107005780634d02403c146107235780635072d33414610736575f80fd5b806314b19c5a1161034c5780631f8507161161031c5780631f8507161461054e5780631fc696d3146105615780632e070f541461068e57806335c08e01146106b6575f80fd5b806314b19c5a1461047557806316d3bfbb146104a1578063190abc43146104ac5780631ddf1335146104cb575f80fd5b80630b5a006b116103875780630b5a006b146104005780630d115aae146104265780630d1cfcae1461044d5780630e7c403314610460575f80fd5b806231d115146103ab57806295bb25146103db57806308a9376d146103f6575b5f80fd5b6001546103be906001600160a01b031681565b6040516001600160a01b0390911681526020015b60405180910390f35b6103e8655af3107a400081565b6040519081526020016103d2565b6103e8620d2f0081565b60045461041490600160e81b900460ff1681565b60405160ff90911681526020016103d2565b7fbd5523e7c3b6a94aa0e3b24d1120addc2f95c7029e097b466b2bedc8d4b4362f546103be565b6006546103be906001600160a01b031681565b61047361046e366004615913565b610ca4565b005b60075461048c90600160a01b900463ffffffff1681565b60405163ffffffff90911681526020016103d2565b6103e86301e1338081565b6103e86104ba36600461595b565b600c6020525f908152604090205481565b6105176104d9366004615976565b60116020525f90815260409020546001600160601b0380821691600160601b810490911690600160c01b810461ffff1690600160d01b900460ff1684565b604080516001600160601b03958616815294909316602085015261ffff9091169183019190915260ff1660608201526080016103d2565b6008546103be906001600160a01b031681565b61061061056f366004615976565b600d60209081525f918252604091829020825160e08101845260018201546001600160601b038082168352600160601b82041693820193909352600160c01b90920467ffffffffffffffff169282019290925260029091015463ffffffff8082166060840152640100000000820416608083015268010000000000000000810460ff90811660a084015269010000000000000000009091041660c082015281565b6040516103d291905f60e0820190506001600160601b038084511683528060208501511660208401525067ffffffffffffffff6040840151166040830152606083015163ffffffff8082166060850152806080860151166080850152505060ff60a08401511660a083015260ff60c08401511660c083015292915050565b6106a161069c366004615a61565b610dee565b604080519283526020830191909152016103d2565b6104736106c436600461595b565b6115e1565b600754600160a01b900463ffffffff165f908152600d6020526040902060010154600160c01b900467ffffffffffffffff166103e8565b61071361070e366004615976565b611668565b60405190151581526020016103d2565b610473610731366004615ad2565b61173f565b6009546103be906001600160a01b031681565b61047361075736600461595b565b611dea565b61047361076a366004615b93565b611ea9565b61071361077d36600461595b565b600f6020525f908152604090205460ff1681565b6107a461079f366004615c0c565b612167565b6040516103d291905f6080820190506001600160601b03835116825263ffffffff602084015116602083015260ff604084015116604083015260ff606084015116606083015292915050565b6002546103be906001600160a01b031681565b610473610811366004615c2c565b6121ee565b6103e87fbd5523e7c3b6a94aa0e3b24d1120addc2f95c7029e097b466b2bedc8d4b4362f81565b6103e861271081565b610473610854366004615976565b6124ae565b60045461087590600160a01b900468ffffffffffffffffff1681565b60405168ffffffffffffffffff90911681526020016103d2565b6106a161089d366004615a61565b6125b1565b6004546108b690600160f01b900460f81b81565b6040517fff0000000000000000000000000000000000000000000000000000000000000090911681526020016103d2565b6104736108f5366004615c6b565b612d5f565b60075461048c90600160e01b900463ffffffff1681565b5f5461092a90600160a01b90046001600160601b031681565b6040516001600160601b0390911681526020016103d2565b60015461092a90600160a01b90046001600160601b031681565b60085461087590600160a01b900468ffffffffffffffffff1681565b6103e8610986366004615976565b600a6020525f908152604090205481565b5f546103be906001600160a01b031681565b60075461048c90600160c01b900463ffffffff1681565b60035461092a90600160a01b90046001600160601b031681565b6103e86109e8366004615976565b61305b565b60095461048c90600160a01b900463ffffffff1681565b6103e8610a12366004615976565b6131a5565b610473610a2536600461595b565b613300565b600554610a4590600160a01b900467ffffffffffffffff1681565b60405167ffffffffffffffff90911681526020016103d2565b6103e8610a6c36600461595b565b600b6020525f908152604090205481565b6103e86133ac565b610473610a93366004615976565b6133c0565b610473610aa6366004615c0c565b6134d2565b6003546103be906001600160a01b031681565b6107136136ba565b610b27610ad4366004615c0c565b601060209081525f9283526040808420909152908252902080546001909101546001600160601b0380831692600160601b908190048216928281169291810490911690600160c01b900463ffffffff1685565b604080516001600160601b039687168152948616602086015292851692840192909252909216606082015263ffffffff909116608082015260a0016103d2565b6007546103be906001600160a01b031681565b60025461092a90600160a01b90046001600160601b031681565b60055461048c90600160e01b900463ffffffff1681565b610713610bb9366004615c0c565b600e60209081525f928352604080842090915290825290205460ff1681565b6103e8610be6366004615976565b5f908152600d6020526040902060020154640100000000900463ffffffff1690565b610473610c16366004615913565b6147c9565b6004546103be906001600160a01b031681565b60065461092a90600160a01b90046001600160601b031681565b6005546103be906001600160a01b031681565b610c976040518060400160405280600581526020017f312e322e3000000000000000000000000000000000000000000000000000000081525081565b6040516103d29190615ca2565b5f546001600160a01b03163314610ce7575f5460405163521eb56d60e11b81523360048201526001600160a01b0390911660248201526044015b60405180910390fd5b6001600160a01b03831615610d3d57600580546001600160a01b0319166001600160a01b0385169081179091556040517f0ebf3ee50ad142f2e738b0ec66ceee78c567bd9f6e7bb155e408f3a9068a0862905f90a25b6001600160a01b03821615610d9357600680546001600160a01b0319166001600160a01b0384169081179091556040517f9439fd4044a7a9da5dc12ba69cff9b7e91dcbc73cd8f170d7cecb1339d59c552905f90a25b6001600160a01b03811615610de957600780546001600160a01b0319166001600160a01b0383169081179091556040517fe9c9e3dbb8b376a9927bb5ed9f7ec4660c962d4d4b6c9e5b2e582e4a7c349505905f90a25b505050565b6004545f9081906001600160a01b03163314610e33576004805460405163312d21ff60e11b815233928101929092526001600160a01b03166024820152604401610cde565b8251845114610e6257835183516040516308151c1160e41b815260048101929092526024820152604401610cde565b6040805160028082526060820183525f92602083019080368337505060055460065483519394506001600160a01b03918216939116915083905f90610ea957610ea9615cd7565b6020026020010183600181518110610ec357610ec3615cd7565b6001600160a01b03938416602091820292909201015291169052604080516002808252606082019092525f918160200160208202803683370190505090505f5b6002811015610faa57828181518110610f1e57610f1e615cd7565b60200260200101516001600160a01b03166318160ddd6040518163ffffffff1660e01b8152600401602060405180830381865afa158015610f61573d5f803e3d5ffd5b505050506040513d601f19601f82011682018060405250810190610f859190615ceb565b828281518110610f9757610f97615cd7565b6020908102919091010152600101610f03565b506040805160028082526060820183525f926020830190803683370190505090505f5b86518110156112ac576001888281518110610fea57610fea615cd7565b602002602001015111156110385787818151811061100a5761100a615cd7565b60200260200101516001604051637ae5968560e01b8152600401610cde929190918252602082015260400190565b8188828151811061104b5761104b615cd7565b60200260200101518151811061106357611063615cd7565b602002602001015187828151811061107d5761107d615cd7565b60200260200101511115806110dc5750828882815181106110a0576110a0615cd7565b6020026020010151815181106110b8576110b8615cd7565b60200260200101518782815181106110d2576110d2615cd7565b6020026020010151115b15611152578681815181106110f3576110f3615cd7565b602002602001015188828151811061110d5761110d615cd7565b60200260200101516040517f0e274b10000000000000000000000000000000000000000000000000000000008152600401610cde929190918252602082015260400190565b86818151811061116457611164615cd7565b60200260200101518289838151811061117f5761117f615cd7565b60200260200101518151811061119757611197615cd7565b6020026020010181815250505f848983815181106111b7576111b7615cd7565b6020026020010151815181106111cf576111cf615cd7565b60200260200101516001600160a01b0316636352211e8984815181106111f7576111f7615cd7565b60200260200101516040518263ffffffff1660e01b815260040161121d91815260200190565b602060405180830381865afa158015611238573d5f803e3d5ffd5b505050506040513d601f19601f8201168201806040525081019061125c9190615d02565b9050896001600160a01b0316816001600160a01b0316146112a35760405163521eb56d60e11b81526001600160a01b0380831660048301528b166024820152604401610cde565b50600101610fcd565b50600754600160a01b900463ffffffff165f5b87518110156115d4575f60105f8b84815181106112de576112de615cd7565b602002602001015181526020019081526020015f205f8a848151811061130657611306615cd7565b602002602001015181526020019081526020015f2060010160189054906101000a900463ffffffff1663ffffffff1690505f8111801561134557508281105b156113fc57611387818b848151811061136057611360615cd7565b60200260200101518b858151811061137a5761137a615cd7565b602002602001015161490d565b5f60105f8c858151811061139d5761139d615cd7565b602002602001015181526020019081526020015f205f8b85815181106113c5576113c5615cd7565b602002602001015181526020019081526020015f2060010160186101000a81548163ffffffff021916908363ffffffff1602179055505b60105f8b848151811061141157611411615cd7565b602002602001015181526020019081526020015f205f8a848151811061143957611439615cd7565b60209081029190910181015182528101919091526040015f2054611466906001600160601b031689615d31565b97505f60105f8c858151811061147e5761147e615cd7565b602002602001015181526020019081526020015f205f8b85815181106114a6576114a6615cd7565b602002602001015181526020019081526020015f205f015f6101000a8154816001600160601b0302191690836001600160601b0316021790555060105f8b84815181106114f5576114f5615cd7565b602002602001015181526020019081526020015f205f8a848151811061151d5761151d615cd7565b60209081029190910181015182528101919091526040015f206001015461154d906001600160601b031688615d31565b96505f60105f8c858151811061156557611565615cd7565b602002602001015181526020019081526020015f205f8b858151811061158d5761158d615cd7565b602002602001015181526020019081526020015f206001015f6101000a8154816001600160601b0302191690836001600160601b03160217905550508060010190506112bf565b5050505050935093915050565b5f546001600160a01b0316331461161f575f5460405163521eb56d60e11b81523360048201526001600160a01b039091166024820152604401610cde565b600980546001600160a01b0319166001600160a01b0383169081179091556040517f9e1c3be42809406e3dbfb210a8ea4d0a9729831f38977e280dd86623df49a0c7905f90a250565b6003545f906001600160a01b031633146116aa5760035460405163312d21ff60e11b81523360048201526001600160a01b039091166024820152604401610cde565b600354600160a01b90046001600160601b0316828110611739576116ce8382615d44565b600380546001600160a01b0316600160a01b6001600160601b038416810291909117909155600754604051838152600195509293500463ffffffff16907fc03457224acaf4a4ab91b57c66dc4b028c40a319f19841115cd7225dfc48ff399060200160405180910390a25b50919050565b5f546001600160a01b031615611781576040517f0dc149f000000000000000000000000000000000000000000000000000000000815260040160405180910390fd5b6001600160a01b038a16158061179e57506001600160a01b038916155b806117b057506001600160a01b038816155b806117c257506001600160a01b038716155b806117d457506001600160a01b038616155b806117e657506001600160a01b038416155b806117f857506001600160a01b038316155b8061180a57506001600160a01b038216155b156118285760405163d92e233d60e01b815260040160405180910390fd5b5f8054336001600160a01b031990911617905560048054600160f81b7effffffffffffffffffffffffffffffffffffffffffffffffffffffffffffff909116179055600580547fffffffff0000000000000000ffffffffffffffffffffffffffffffffffffffff167b016345785d8a00000000000000000000000000000000000000000000179055600280546001600160a01b03167d021e19e0c9bab24000000000000000000000000000000000000000000000179055620d2f0063ffffffff8616101561192e576040517f491a2bb100000000000000000000000000000000000000000000000000000000815260048101869052620d2f006024820152604401610cde565b61193f620151806301e13380615d44565b8563ffffffff161115611980578461195e620151806301e13380615d44565b604051637ae5968560e01b815260048101929092526024820152604401610cde565b600180546001600160a01b03199081166001600160a01b038d81169182179093556002805483168d85161790556003805483168c85161790556004805483168b85161781556008805484168b8616179055600580547bffffffffffffffff000000000000000000000000000000000000000016600160e01b63ffffffff8c16028516178986161790556006805484168886161790556007805484168786161790556009805490931693851693909317909155604080517f8e4a837900000000000000000000000000000000000000000000000000000000815290515f93638e4a8379928082019260209290918290030181865afa158015611a83573d5f803e3d5ffd5b505050506040513d601f19601f82011682018060405250810190611aa79190615ceb565b9050611ab76301e1338082615d31565b4210611aee57611acb6301e1338082615d31565b604051637ae5968560e01b81526004810191909152426024820152604401610cde565b5f42611afe6301e1338084615d31565b611b089190615d44565b63ffffffff1690505f81611b1b5f6131a5565b611b259190615d6b565b600180546001600160a01b0316600160a01b6001600160601b0384168102919091178255600780547f81955a0a11e65eac625c29e8882660bae4e165a75d72780094acae8ece9a29f0805467ffffffff00000000191664010000000063ffffffff42811691909102919091179091557fffffffff0000000000000000ffffffffffffffffffffffffffffffffffffffff909116600160c01b918916919091027fffffffffffffffff00000000ffffffffffffffffffffffffffffffffffffffff16179091179055600880547fffffff000000000000000000ffffffffffffffffffffffffffffffffffffffff9081167b0de0b6b3a764000000000000000000000000000000000000000000009081179092557ffd54ff1ed53f34a900b24c5ba64f85761163b5d82d98a47b9bd80e45466993c6805477ffffffffffffffffffffffffffffffffffffffffffffffff166503782dace9d960d21b1790557ffd54ff1ed53f34a900b24c5ba64f85761163b5d82d98a47b9bd80e45466993c560208190527fb160a7406e28258be08ad805a9afb846e1966a5cc82707dbcb44ed395fc389ee80547f9786f677b3dff6c36ad0d47ef13860fd51b928c112d9702e0dea2fe690bf6ec18054600480549096169096179094557ffd54ff1ed53f34a900b24c5ba64f85761163b5d82d98a47b9bd80e45466993c7805469ff0000000000000000001916693200000000000000000017905571ffff000000000000000000000000000000001990811671295300000000000000000000000000000000179091555f94855290921671091100000000000000000000000000000000179055919250603290606482611d968d87615d8a565b611da09190615d8a565b611daa9190615d6b565b5f80546001600160601b03909216600160a01b026001600160a01b0392831681179091556003805490921617905550505050505050505050505050505050565b5f546001600160a01b03163314611e28575f5460405163521eb56d60e11b81523360048201526001600160a01b039091166024820152604401610cde565b6001600160a01b038116611e4f5760405163d92e233d60e01b815260040160405180910390fd5b7fbd5523e7c3b6a94aa0e3b24d1120addc2f95c7029e097b466b2bedc8d4b4362f8190556040516001600160a01b038216907f3169d1c75b3f98b6d9ddee369523559b661e660be48ef77f1d4a6fe295144c01905f90a250565b6002546001600160a01b03163314611ee95760025460405163312d21ff60e11b81523360048201526001600160a01b039091166024820152604401610cde565b6009546001600160a01b03168015801590611f8057506040517fd874310e0000000000000000000000000000000000000000000000000000000081526001600160a01b03868116600483015282169063d874310e90602401602060405180830381865afa158015611f5c573d5f803e3d5ffd5b505050506040513d601f19601f82011682018060405250810190611f809190615da1565b15611fc2576040517f2e6b90070000000000000000000000000000000000000000000000000000000081526001600160a01b0386166004820152602401610cde565b83515f5b818110156120b75760075486516001600160a01b0390911690634f558e7990889084908110611ff757611ff7615cd7565b60200260200101516040518263ffffffff1660e01b815260040161201d91815260200190565b602060405180830381865afa158015612038573d5f803e3d5ffd5b505050506040513d601f19601f8201168201806040525081019061205c9190615da1565b6120af5785818151811061207257612072615cd7565b60200260200101516040517ff0367891000000000000000000000000000000000000000000000000000000008152600401610cde91815260200190565b600101611fc6565b50600754600160a01b900463ffffffff165f818152600d60205260409020600101546120ec906001600160601b031685615d31565b5f828152600d6020526040902060010180546bffffffffffffffffffffffff19166001600160601b038316179055935061212887878784614b3e565b5050600980547fffffffffffffffff00000000ffffffffffffffffffffffffffffffffffffffff16600160a01b4363ffffffff16021790555050505050565b60408051608080820183525f80835260208084018290528385018290526060938401829052868252600d815284822086835281529084902084519283018552546001600160601b038116835263ffffffff600160601b8204169183019190915260ff600160801b8204811694830194909452600160881b9004909216908201525b92915050565b5f546001600160a01b0316331461222c575f5460405163521eb56d60e11b81523360048201526001600160a01b039091166024820152604401610cde565b60646122388688615d31565b111561226c576122488587615d31565b60405163312b003360e01b8152600481019190915260646024820152604401610cde565b5f81836122798688615d31565b6122839190615d31565b61228d9190615d31565b905060648111156122bb5760405163312b003360e01b81526004810182905260646024820152604401610cde565b6007545f906122d890600160a01b900463ffffffff166001615dc0565b63ffffffff165f818152600d6020908152604080832083805291829052808320805460ff808f16600160801b90810270ff00000000000000000000000000000000199384161790935560018652929094208054928d169091029190931617909155909150876123488a6064615d44565b6123529190615d44565b60028201805469ffff000000000000000019166801000000000000000060ff9384160269ff00000000000000000019161769010000000000000000008a8416021790555f80805260208381526040808320805471ff000000000000000000000000000000000019908116600160881b8d88168102919091179092556001855282852080549091168b8716909202919091179055858352601182529182902080547fffffffffff00ffffffffffffffffffffffffffffffffffffffffffffffffffff16600160d01b94891694909402939093179092556004805460ff60f01b198116600160f01b9182900460f890811b600160f91b17901c90910217905580518b81529182018a90528101889052606081018790526080810186905260a0810185905282907f51ee429b276124b347c9bff8d3da93b096586a671b26cf6ba1a7970e00d504159060c00160405180910390a2505050505050505050565b6003546001600160a01b031633146124ee5760035460405163312d21ff60e11b81523360048201526001600160a01b039091166024820152604401610cde565b6003545f9061250e908390600160a01b90046001600160601b0316615d31565b90506001600160601b0381111561254857604051637ae5968560e01b8152600481018290526001600160601b036024820152604401610cde565b600380546001600160a01b0316600160a01b6001600160601b03841681029190911790915560075460405183815291900463ffffffff16907fc03457224acaf4a4ab91b57c66dc4b028c40a319f19841115cd7225dfc48ff399060200160405180910390a25050565b5f8082518451146125e257835183516040516308151c1160e41b815260048101929092526024820152604401610cde565b6040805160028082526060820183525f92602083019080368337505060055460065483519394506001600160a01b03918216939116915083905f9061262957612629615cd7565b602002602001018360018151811061264357612643615cd7565b6001600160a01b03938416602091820292909201015291169052604080516002808252606082019092525f918160200160208202803683370190505090505f5b600281101561272a5782818151811061269e5761269e615cd7565b60200260200101516001600160a01b03166318160ddd6040518163ffffffff1660e01b8152600401602060405180830381865afa1580156126e1573d5f803e3d5ffd5b505050506040513d601f19601f820116820180604052508101906127059190615ceb565b82828151811061271757612717615cd7565b6020908102919091010152600101612683565b506040805160028082526060820183525f926020830190803683370190505090505f5b865181101561299f57600188828151811061276a5761276a615cd7565b6020026020010151111561278a5787818151811061100a5761100a615cd7565b8188828151811061279d5761279d615cd7565b6020026020010151815181106127b5576127b5615cd7565b60200260200101518782815181106127cf576127cf615cd7565b602002602001015111158061282e5750828882815181106127f2576127f2615cd7565b60200260200101518151811061280a5761280a615cd7565b602002602001015187828151811061282457612824615cd7565b6020026020010151115b15612845578681815181106110f3576110f3615cd7565b86818151811061285757612857615cd7565b60200260200101518289838151811061287257612872615cd7565b60200260200101518151811061288a5761288a615cd7565b6020026020010181815250505f848983815181106128aa576128aa615cd7565b6020026020010151815181106128c2576128c2615cd7565b60200260200101516001600160a01b0316636352211e8984815181106128ea576128ea615cd7565b60200260200101516040518263ffffffff1660e01b815260040161291091815260200190565b602060405180830381865afa15801561292b573d5f803e3d5ffd5b505050506040513d601f19601f8201168201806040525081019061294f9190615d02565b9050896001600160a01b0316816001600160a01b0316146129965760405163521eb56d60e11b81526001600160a01b0380831660048301528b166024820152604401610cde565b5060010161274d565b50600754600160a01b900463ffffffff165f5b87518110156115d4575f60105f8b84815181106129d1576129d1615cd7565b602002602001015181526020019081526020015f205f8a84815181106129f9576129f9615cd7565b602002602001015181526020019081526020015f2060010160189054906101000a900463ffffffff1663ffffffff1690505f81118015612a3857508281105b15612c7b575f60105f8c8581518110612a5357612a53615cd7565b602002602001015181526020019081526020015f205f8b8581518110612a7b57612a7b615cd7565b60209081029190910181015182528101919091526040015f2054600160601b90046001600160601b031690508015612b19575f828152600d602052604081208c519091908d9086908110612ad157612ad1615cd7565b60209081029190910181015182528101919091526040015f2054612aff90600160801b900460ff1682615d8a565b9050612b0c606482615d6b565b612b16908a615d31565b98505b60105f8c8581518110612b2e57612b2e615cd7565b602002602001015181526020019081526020015f205f8b8581518110612b5657612b56615cd7565b60209081029190910181015182528101919091526040015f2060010154600160601b90046001600160601b031690508015612c79575f828152600d6020526040902060010154612bb690600160601b90046001600160601b031682615d8a565b5f838152600d602052604081208d51929350918d9086908110612bdb57612bdb615cd7565b60209081029190910181015182528101919091526040015f2054612c0990600160881b900460ff1682615d8a565b5f838152600d602052604081208d51929350909182908e9087908110612c3157612c31615cd7565b60209081029190910181015182528101919091526040015f2054612c5f906001600160601b03166064615d8a565b9050612c6b8183615d6b565b612c75908a615d31565b9850505b505b60105f8b8481518110612c9057612c90615cd7565b602002602001015181526020019081526020015f205f8a8481518110612cb857612cb8615cd7565b60209081029190910181015182528101919091526040015f2054612ce5906001600160601b031689615d31565b975060105f8b8481518110612cfc57612cfc615cd7565b602002602001015181526020019081526020015f205f8a8481518110612d2457612d24615cd7565b60209081029190910181015182528101919091526040015f2060010154612d54906001600160601b031688615d31565b9650506001016129b2565b5f546001600160a01b03163314612d9d575f5460405163521eb56d60e11b81523360048201526001600160a01b039091166024820152604401610cde565b655af3107a40008568ffffffffffffffffff161115612df657600880547fffffff000000000000000000ffffffffffffffffffffffffffffffffffffffff16600160a01b68ffffffffffffffffff881602179055612e0e565b600854600160a01b900468ffffffffffffffffff1694505b655af3107a40008468ffffffffffffffffff161115612e6757600480547fffffff000000000000000000ffffffffffffffffffffffffffffffffffffffff16600160a01b68ffffffffffffffffff871602179055612e7f565b600454600160a01b900468ffffffffffffffffff1693505b5f83118015612e96575067ebec21ee1da400008311155b15612eda57600580547fffffffff0000000000000000ffffffffffffffffffffffffffffffffffffffff16600160a01b67ffffffffffffffff861602179055612ef1565b600554600160a01b900467ffffffffffffffff1692505b620d2f008263ffffffff1610158015612f205750612f16620151806301e13380615d44565b8263ffffffff1611155b15612f5c57600780547bffffffffffffffffffffffffffffffffffffffffffffffffffffffff16600160e01b63ffffffff851602179055612f6f565b600554600160e01b900463ffffffff1691505b6001600160601b03811615612fa357600680546001600160a01b0316600160a01b6001600160601b03841602179055612fb8565b50600254600160a01b90046001600160601b03165b6004805460ff60f01b198116600160f01b9182900460f890811b600160f81b17901c909102179055600754612ffb90600160a01b900463ffffffff166001615dc0565b6040805187815260208101879052908101859052606081018490526080810183905263ffffffff91909116907ffa70700738796f35131cdaba4cd58eeaadbd8d195956e3edc4548b2618ce42209060a00160405180910390a25050505050565b5f600a82101561314c5760408051610140810182526b01b61fa7ec7fcb65c6e0000081526b01d76bca30a62dccbe70000060208201526b01f8d6d29415b819c0700000918101919091526b02272948a9528c14f870000060608201526b026955f159f296574870000060808201526b02a4e4892c1c392c9070000060a08201526b02d9d5101fcf7494d070000060c08201526b030189755695e1230070000060e08201526b03229fc9aee5e644287000006101008201526b033b2e3c9fd0803ce80000006101208201528083600a811061313757613137615cd7565b60200201516001600160601b03169392505050565b613157600983615d44565b91506b033b2e3c9fd0803ce8000000905060025f5b8381101561319e5760646131808385615d8a565b61318a9190615d6b565b6131949084615d31565b925060010161316c565b5050919050565b5f600a8210156132905760408051610140810182526a029cf1bbaf54ae2860000081526a214c2244266266f790000060208201526a216b08636f8a4d02000000918101919091526a2e5276153cd3fb3800000060608201526a422ca8b0a00a425000000060808201526a3b8e97d229a2d54800000060a08201526a34f086f3b33b684000000060c08201526a27b46536c66c8e3000000060e08201526a21165458500521280000006101008201526a188e72f0ea99f8bf9000006101208201528083600a811061327757613277615cd7565b60200201516affffffffffffffffffffff169392505050565b61329b600983615d44565b91506b033b2e3c9fd0803ce8000000600260015b848110156132e15760646132c38385615d8a565b6132cd9190615d6b565b6132d79084615d31565b92506001016132af565b5060646132ee8284615d8a565b6132f89190615d6b565b949350505050565b5f546001600160a01b0316331461333e575f5460405163521eb56d60e11b81523360048201526001600160a01b039091166024820152604401610cde565b6001600160a01b0381166133655760405163d92e233d60e01b815260040160405180910390fd5b5f80546001600160a01b0319166001600160a01b038316908117825560405190917f4ffd725fc4a22075e9ec71c59edf9c38cdeb588a91b24fc5b61388c5be41282b91a250565b6133bd620151806301e13380615d44565b81565b6004546001600160a01b031633146134005760035460405163312d21ff60e11b81523360048201526001600160a01b039091166024820152604401610cde565b600754600160a01b900463ffffffff165f818152601160205260408120546134329084906001600160601b0316615d31565b90506001600160601b0381111561346c57604051637ae5968560e01b8152600481018290526001600160601b036024820152604401610cde565b5f8281526011602090815260409182902080546bffffffffffffffffffffffff19166001600160601b038516179055905184815283917f524056f3dce895b1e37e438cd18ed11cfaf7524d08872eae96e4b98cecb20388910160405180910390a2505050565b5f546001600160a01b03163314613510575f5460405163521eb56d60e11b81523360048201526001600160a01b039091166024820152604401610cde565b81158061351b575080155b15613552576040517f7c946ed700000000000000000000000000000000000000000000000000000000815260040160405180910390fd5b6001600160601b0382111561358a57604051637ae5968560e01b8152600481018390526001600160601b036024820152604401610cde565b6127108111156135b857604051637ae5968560e01b8152600481018290526127106024820152604401610cde565b6007545f906135d590600160a01b900463ffffffff166001615dc0565b63ffffffff165f8181526011602090815260409182902080547fffffffffffff0000000000000000000000000000ffffffffffffffffffffffff16600160601b6001600160601b038916027fffffffffffff0000ffffffffffffffffffffffffffffffffffffffffffffffff1617600160c01b61ffff8816021781556004805460ff60f01b198116600160f01b9182900460f890811b600160fb1b17901c909102179055825187815291820186905292935083917f7bc66e3088d67d475c72ea886907f634fc259ddde8b8c4df7a2eef658e97dbcd910160405180910390a250505050565b7fbd5523e7c3b6a94aa0e3b24d1120addc2f95c7029e097b466b2bedc8d4b4362f545f906001600160a01b03811661371e576040517ff56b123b00000000000000000000000000000000000000000000000000000000815260040160405180910390fd5b60095443600160a01b90910463ffffffff1603613767576040517fd077049600000000000000000000000000000000000000000000000000000000815260040160405180910390fd5b5f600d5f6001600760149054906101000a900463ffffffff1661378a9190615de4565b63ffffffff908116825260208201929092526040015f90812060020154640100000000900490911691506137be8242615d44565b600554909150600160e01b900463ffffffff16808210806137ee57506137eb620151806301e13380615d44565b82115b156137fd575f94505050505090565b60075463ffffffff600160a01b909104165f818152600d6020526040808220815160098082526101408201909352909291816020016020820280368337505050600183015481519192506001600160601b03169082905f9061386157613861615cd7565b60209081029190910101526002820154815160649168010000000000000000900460ff169083905f9061389657613896615cd7565b60200260200101516138a89190615d8a565b6138b29190615d6b565b816001815181106138c5576138c5615cd7565b6020908102919091018101919091525f8080529083905260408120548251606492600160801b90920460ff1691849161390057613900615cd7565b60200260200101516139129190615d8a565b61391c9190615d6b565b8160028151811061392f5761392f615cd7565b60209081029190910181019190915260015f9081529083905260408120548251606492600160801b90920460ff1691849161396c5761396c615cd7565b602002602001015161397e9190615d8a565b6139889190615d6b565b8160038151811061399b5761399b615cd7565b60209081029190910101526001546007545f91600160a01b90046001600160601b03169082906301e13380906139de90600160c01b900463ffffffff1642615d44565b6139e89190615d6b565b600454909150600160e81b900460ff16811115613b3f575f613a0e6301e1338083615d8a565b600754613a289190600160c01b900463ffffffff16615d31565b905082613a358b83615d44565b613a3f9190615d8a565b93506301e13380613a4f836131a5565b613a599190615d6b565b925082613a668242615d44565b613a709190615d8a565b613a7a9085615d31565b600180546001600160a01b0316600160a01b6001600160601b03871602179055600480547fff0000ffffffffffffffffffffffffffffffffffffffffffffffffffffffffff811660ff60f01b19600160e81b60ff88160290811691909117600160f01b7fffff00ffffffffffffffffffffffffffffffffffffffffffffffffffffffffff90931690911782900460f890811b7f040000000000000000000000000000000000000000000000000000000000000017901c9091021790559350613b4c9050565b613b498883615d8a565b92505b6001850180547fffffffffffffffff000000000000000000000000ffffffffffffffffffffffff16600160601b6001600160601b038616021790556002850154606490613ba9906901000000000000000000900460ff1685615d8a565b613bb39190615d6b565b84600481518110613bc657613bc6615cd7565b60209081029190910101525f548451600160a01b9091046001600160601b031690819086906004908110613bfc57613bfc615cd7565b60200260200101511115613cb1578085600481518110613c1e57613c1e615cd7565b6020908102919091010151600354613c469190600160a01b90046001600160601b0316615d31565b613c509190615d44565b85600481518110613c6357613c63615cd7565b60200260200101818152505084600481518110613c8257613c82615cd7565b6020026020010151600360146101000a8154816001600160601b0302191690836001600160601b031602179055505b5f600d81613cc08a6001615d31565b815260208101919091526040015f20600454909150600160f81b600160f01b90910460f81b81169003613dc457600754600160e01b900463ffffffff1615613d4b57600780546005805463ffffffff600160e01b808504919091169081027bffffffffffffffffffffffffffffffffffffffffffffffffffffffff9283161790925590911690915598505b600654600160a01b90046001600160601b031615613d905760068054600280546001600160a01b03908116600160a01b8085046001600160601b031602179091551690555b613d9b886001615d31565b6040517f66860869553d03484d66e9fad30245295f3909a03820e819dc9a8d94612e25f7905f90a25b600454600160f91b600160f01b90910460f81b81169003613e1757613dea886001615d31565b6040517f39bc2730fdcfae4cff08b4c64064b1a739e0e3e45a0452a208c878a9cc118685905f90a2613f84565b5f5b6002811015613eb3575f818152602089815260408083208054928690529220805471ff0000000000000000000000000000000000198116600160881b9384900460ff9081169094029081178355935471ffff000000000000000000000000000000001990911670ff000000000000000000000000000000001990941693909317600160801b93849004909216909202179055600101613e19565b5060028088018054918301805460ff680100000000000000009485900481169094027fffffffffffffffffffffffffffffffffffffffffffffff00ffffffffffffffff821681178355925469010000000000000000009081900485160269ff0000000000000000001990931669ffff000000000000000019909116179190911790555f898152601160208190526040822054600160d01b90049092169190613f5c8b6001615d31565b81526020019081526020015f205f01601a6101000a81548160ff021916908360ff1602179055505b600454600160fb1b600160f01b90910460f81b81169003613fd757613faa886001615d31565b6040517fbde32ced292ffa7c03b180afc793b85ce29323b3590be177ca52f66509f941cb905f90a26140a4565b5f888152601160208190526040822054600160601b90046001600160601b0316916140038b6001615d31565b815260208082019290925260409081015f90812080546001600160601b0395909516600160601b027fffffffffffffffff000000000000000000000000ffffffffffffffffffffffff909516949094179093558a835260119182905282205461ffff600160c01b909104169161407a8b6001615d31565b81526020019081526020015f205f0160186101000a81548161ffff021916908361ffff1602179055505b60028701805467ffffffff0000000019166401000000004263ffffffff160217905585515f90879060039081106140dd576140dd615cd7565b6020026020010151876002815181106140f8576140f8615cd7565b602002602001015161410a9190615d31565b5f80805260208a9052604090205490915060649061413290600160881b900460ff1688615d8a565b61413c9190615d6b565b8760058151811061414f5761414f615cd7565b60209081029190910181019190915260015f90815290899052604090205460649061418490600160881b900460ff1688615d8a565b61418e9190615d6b565b876006815181106141a1576141a1615cd7565b6020026020010181815250505f876006815181106141c1576141c1615cd7565b6020026020010151886005815181106141dc576141dc615cd7565b60200260200101516141ee9190615d31565b5f8b81526011602052604090205489519192506001600160601b0316908990600790811061421e5761421e615cd7565b6020908102919091018101919091525f8b81526011909152604090205460649061425290600160d01b900460ff1689615d8a565b61425c9190615d6b565b8860078151811061426f5761426f615cd7565b60200260200101516142819190615d31565b8860088151811061429457614294615cd7565b602002602001018181525050876008815181106142b3576142b3615cd7565b6020908102919091018101515f8c81526011909252604090912080546bffffffffffffffffffffffff19166001600160601b039092169190911790556007546301e1338090600160c01b900463ffffffff1661430f8d42615d31565b6143199190615d44565b6143239190615d6b565b600454909550600160e81b900460ff16851115614424575f6143496301e1338087615d8a565b6007546143639190600160c01b900463ffffffff16615d31565b9050866143704283615d44565b61437a9190615d8a565b97506301e1338061438a876131a5565b6143949190615d6b565b965086816143a28e42615d31565b6143ac9190615d44565b6143b69190615d8a565b6143c09089615d31565b60028501549098506064906143e5906901000000000000000000900460ff168a615d8a565b6143ef9190615d6b565b5f80546001600160a01b0316600160a01b6001600160601b038416021790556004805460ff60f01b1916905594506144bd9050565b600454600160f01b900460f81b7fff0000000000000000000000000000000000000000000000000000000000000016156144bd5760028301546064906901000000000000000000900460ff1661447a888e615d8a565b6144849190615d8a565b61448e9190615d6b565b5f80546001600160a01b0316600160a01b6001600160601b038416021790556004805460ff60f01b1916905593505b6003546144da90600160a01b90046001600160601b031685615d31565b600380546001600160a01b0316600160a01b6001600160601b0384160217905588519094505f908990829061451157614511615cd7565b602002602001015111156145c1575f6145518960018151811061453657614536615cd7565b602090810291909101015160028c015463ffffffff166155db565b60018501805477ffffffffffffffffffffffffffffffffffffffffffffffff16600160c01b67ffffffffffffffff8416021790556040518181529091507f0ed5cb8014905e189c84ea644a5389aeda2840571fb3968a2ddbca0cee4f52f79060200160405180910390a1506145ef565b60018301805477ffffffffffffffffffffffffffffffffffffffffffffffff166503782dace9d960d21b1790555b8760018151811061460257614602615cd7565b60200260200101515f14806146a2575060025488516001600160a01b039091169063f60ccd3a908a90600190811061463c5761463c615cd7565b60200260200101516040518263ffffffff1660e01b815260040161466291815260200190565b6020604051808303815f875af115801561467e573d5f803e3d5ffd5b505050506040513d601f19601f820116820180604052508101906146a29190615da1565b1561477f57897f85eb22bba89b84861eba7d81d18cdb472acc7cf85a09f1ae2f6c2e28bbd759c3896001815181106146dc576146dc615cd7565b60200260200101518484888d6007815181106146fa576146fa615cd7565b60200260200101518e60088151811061471557614715615cd7565b60209081029190910181015160408051978852918701959095528501929092526060840152608083015260a082015260c00160405180910390a261475a8a6001615d31565b600760146101000a81548163ffffffff021916908363ffffffff1602179055506147b4565b6040517f837ce0c5000000000000000000000000000000000000000000000000000000008152600481018b9052602401610cde565b60019e50505050505050505050505050505090565b5f546001600160a01b03163314614807575f5460405163521eb56d60e11b81523360048201526001600160a01b039091166024820152604401610cde565b6001600160a01b0383161561485d57600280546001600160a01b0319166001600160a01b0385169081179091556040517f7dae230f18360d76a040c81f050aa14eb9d6dc7901b20fc5d855e2a20fe814d1905f90a25b6001600160a01b038216156148b357600380546001600160a01b0319166001600160a01b0384169081179091556040517fcd22b277e2781665af395ae4868b7fd80cf6d9e06a5a740a9c4746922a25a223905f90a25b6001600160a01b03811615610de957600480546001600160a01b0319166001600160a01b0383169081179091556040517fe4915bbde794cce5e56670cce1c0048ef68276040acd048bdb7157ded9232b48905f90a2505050565b5f828152601060209081526040808320848452909152902054600160601b90046001600160601b031680156149ee575f848152600d6020908152604080832086845290915290205461496990600160801b900460ff1682615d8a565b9050614976606482615d6b565b5f8481526010602090815260408083208684529091529020546149a291906001600160601b0316615d31565b5f848152601060209081526040808320868452909152902080547fffffffffffffffff000000000000000000000000000000000000000000000000166001600160601b03831617905590505b505f828152601060209081526040808320848452909152902060010154600160601b90046001600160601b03168015614b38575f848152600d6020526040902060010154614a4c90600160601b90046001600160601b031682615d8a565b5f858152600d60209081526040808320878452909152902054909150614a7c90600160881b900460ff1682615d8a565b5f858152600d6020908152604080832087845290915281205491925090614aad906001600160601b03166064615d8a565b9050614ab98183615d6b565b5f858152601060209081526040808320878452909152902060010154614ae891906001600160601b0316615d31565b5f858152601060209081526040808320878452909152902060010180547fffffffffffffffff000000000000000000000000000000000000000000000000166001600160601b0383161790559150505b50505050565b6040805160028082526060820183525f92602083019080368337505060055460065483519394506001600160a01b03918216939116915083905f90614b8557614b85615cd7565b6020026020010183600181518110614b9f57614b9f615cd7565b6001600160a01b0393841660209182029290920101529116905260408051600480825260a082019092525f91816020016020820280368337019050505f848152600d602090815260408083208380529091528120548251929350600160801b900460ff16151591839190614c1557614c15615cd7565b9115156020928302919091018201525f848152600d82526040808220600180845293529020548251600160801b90910460ff1615159183918110614c5b57614c5b615cd7565b9115156020928302919091018201525f848152600d8252604080822082805290925220548151600160881b90910460ff1615159082906002908110614ca257614ca2615cd7565b9115156020928302919091018201525f848152600d825260408082206001835290925220548151600160881b90910460ff1615159082906003908110614cea57614cea615cd7565b9115156020928302919091019091015284515f5b818110156155d1575f83600281518110614d1a57614d1a615cd7565b602002602001015180614d44575083600381518110614d3b57614d3b615cd7565b60200260200101515b15614ef65760075488515f916001600160a01b031690636352211e908b9086908110614d7257614d72615cd7565b60200260200101516040518263ffffffff1660e01b8152600401614d9891815260200190565b602060405180830381865afa158015614db3573d5f803e3d5ffd5b505050506040513d601f19601f82011682018060405250810190614dd79190615d02565b6002546008546040516309ab24eb60e41b81526001600160a01b038085166004830152939450600160a01b9092046001600160601b0316921690639ab24eb090602401602060405180830381865afa158015614e35573d5f803e3d5ffd5b505050506040513d601f19601f82011682018060405250810190614e599190615ceb565b101580614ee557506002546008546040516309ab24eb60e41b81526001600160a01b038d81166004830152600160a01b9093046001600160601b03169290911690639ab24eb090602401602060405180830381865afa158015614ebe573d5f803e3d5ffd5b505050506040513d601f19601f82011682018060405250810190614ee29190615ceb565b10155b614eef575f614ef2565b60015b9150505b5f5b60028110156155c7576007545f9081906001600160a01b03166392080b23846001811115614f2857614f28615e01565b8d8881518110614f3a57614f3a615cd7565b60200260200101516040518363ffffffff1660e01b8152600401614f5f929190615e15565b5f60405180830381865afa158015614f79573d5f803e3d5ffd5b505050506040513d5f823e601f3d908101601f19168201604052614fa09190810190615e3f565b91509150815f03614ffa578a8581518110614fbd57614fbd615cd7565b60200260200101516040517f7cdffd4e000000000000000000000000000000000000000000000000000000008152600401610cde91815260200190565b86838151811061500c5761500c615cd7565b60200260200101518061503f575086615026846002615d31565b8151811061503657615036615cd7565b60200260200101515b15615386575f828b878151811061505857615058615cd7565b602002602001015161506a9190615d6b565b90505f5b83811015615383575f8581526010602052604081208451829086908590811061509957615099615cd7565b602002602001015163ffffffff1681526020019081526020015f2060010160189054906101000a900463ffffffff1663ffffffff169050805f0361513c575f86815260106020526040812085518e92908790869081106150fb576150fb615cd7565b602002602001015163ffffffff1681526020019081526020015f2060010160186101000a81548163ffffffff021916908363ffffffff1602179055506151cf565b8b8110156151cf5761516e818786858151811061515b5761515b615cd7565b602002602001015163ffffffff1661490d565b5f86815260106020526040812085518e929087908690811061519257615192615cd7565b602002602001015163ffffffff1681526020019081526020015f2060010160186101000a81548163ffffffff021916908363ffffffff1602179055505b8986815181106151e1576151e1615cd7565b602002602001015115615275575f868152601060205260408120855185929087908690811061521257615212615cd7565b602002602001015163ffffffff1681526020019081526020015f205f01600c8282829054906101000a90046001600160601b03166152509190615ee8565b92506101000a8154816001600160601b0302191690836001600160601b031602179055505b8680156152a2575089615289876002615d31565b8151811061529957615299615cd7565b60200260200101515b1561537a575f86815260106020526040812085518592908790869081106152cb576152cb615cd7565b602002602001015163ffffffff1681526020019081526020015f20600101600c8282829054906101000a90046001600160601b031661530a9190615ee8565b82546101009290920a6001600160601b038181021990931691831602179091555f8e8152600d602090815260408083208b845290915281208054879450909261535591859116615ee8565b92506101000a8154816001600160601b0302191690836001600160601b031602179055505b5060010161506e565b50505b5f5b828110156155b957600e5f8581526020019081526020015f205f8383815181106153b4576153b4615cd7565b60209081029190910181015163ffffffff1682528101919091526040015f205460ff166155b1575f848152600e6020526040812083516001929085908590811061540057615400615cd7565b60209081029190910181015163ffffffff90811683528282019390935260409182015f908120805460ff1916951515959095179094558d8452600d815281842088855290529091208054600160601b900490911690600c61546083615f08565b91906101000a81548163ffffffff021916908363ffffffff160217905550505f89858151811061549257615492615cd7565b60200260200101516001600160a01b0316636352211e8484815181106154ba576154ba615cd7565b60200260200101516040518263ffffffff1660e01b81526004016154ea919063ffffffff91909116815260200190565b602060405180830381865afa158015615505573d5f803e3d5ffd5b505050506040513d601f19601f820116820180604052508101906155299190615d02565b6001600160a01b0381165f908152600f602052604090205490915060ff166155af576001600160a01b0381165f908152600f60209081526040808320805460ff191660011790558d8352600d9091528120600201805463ffffffff169161558f83615f08565b91906101000a81548163ffffffff021916908363ffffffff160217905550505b505b600101615388565b505050806001019050614ef8565b5050600101614cfe565b5050505050505050565b6004546008545f9168ffffffffffffffffff600160a01b9182900481169286929004166156088282615695565b91505f615614866156ad565b9050615620838261570b565b925061562c8385615695565b92506156418368056bc75e2d63100000615719565b6005549093508390600160a01b900467ffffffffffffffff168111156156775750600554600160a01b900467ffffffffffffffff165b61568981670de0b6b3a7640000615d31565b98975050505050505050565b5f6156a66156a38484615730565b90565b9392505050565b5f6156c1670de0b6b3a76400005f19615d6b565b8211156156fd576040517f1cd951a700000000000000000000000000000000000000000000000000000000815260048101839052602401610cde565b50670de0b6b3a76400000290565b5f6156a66156a38385615d31565b5f6156a66156a384670de0b6b3a764000085615815565b5f80805f19848609848602925082811083820303915050805f036157615750670de0b6b3a7640000900490506121e8565b670de0b6b3a764000081106157ac576040517f5173648d0000000000000000000000000000000000000000000000000000000081526004810186905260248101859052604401610cde565b5f670de0b6b3a7640000858709620400008185030493109091037d40000000000000000000000000000000000000000000000000000000000002919091177faccb18165bd6fe31ae1cf318dc5b51eee0e1ba569b88cd74c1773b91fac106690291505092915050565b5f80805f19858709858702925082811083820303915050805f0361584c5783828161584257615842615d57565b04925050506156a6565b838110615896576040517f63a05778000000000000000000000000000000000000000000000000000000008152600481018790526024810186905260448101859052606401610cde565b5f84868809600260036001881981018916988990049182028318808302840302808302840302808302840302808302840302808302840302918202909203025f889003889004909101858311909403939093029303949094049190911702949350505050565b6001600160a01b0381168114615910575f80fd5b50565b5f805f60608486031215615925575f80fd5b8335615930816158fc565b92506020840135615940816158fc565b91506040840135615950816158fc565b809150509250925092565b5f6020828403121561596b575f80fd5b81356156a6816158fc565b5f60208284031215615986575f80fd5b5035919050565b634e487b7160e01b5f52604160045260245ffd5b604051601f8201601f1916810167ffffffffffffffff811182821017156159ca576159ca61598d565b604052919050565b5f67ffffffffffffffff8211156159eb576159eb61598d565b5060051b60200190565b5f82601f830112615a04575f80fd5b81356020615a19615a14836159d2565b6159a1565b8083825260208201915060208460051b870101935086841115615a3a575f80fd5b602086015b84811015615a565780358352918301918301615a3f565b509695505050505050565b5f805f60608486031215615a73575f80fd5b8335615a7e816158fc565b9250602084013567ffffffffffffffff80821115615a9a575f80fd5b615aa6878388016159f5565b93506040860135915080821115615abb575f80fd5b50615ac8868287016159f5565b9150509250925092565b5f805f805f805f805f806101408b8d031215615aec575f80fd5b8a35615af7816158fc565b995060208b0135615b07816158fc565b985060408b0135615b17816158fc565b975060608b0135615b27816158fc565b965060808b0135615b37816158fc565b955060a08b0135945060c08b0135615b4e816158fc565b935060e08b0135615b5e816158fc565b92506101008b0135615b6f816158fc565b91506101208b0135615b80816158fc565b809150509295989b9194979a5092959850565b5f805f8060808587031215615ba6575f80fd5b8435615bb1816158fc565b9350602085013567ffffffffffffffff80821115615bcd575f80fd5b615bd9888389016159f5565b94506040870135915080821115615bee575f80fd5b50615bfb878288016159f5565b949793965093946060013593505050565b5f8060408385031215615c1d575f80fd5b50508035926020909101359150565b5f805f805f8060c08789031215615c41575f80fd5b505084359660208601359650604086013595606081013595506080810135945060a0013592509050565b5f805f805f60a08688031215615c7f575f80fd5b505083359560208501359550604085013594606081013594506080013592509050565b602081525f82518060208401528060208501604085015e5f604082850101526040601f19601f83011684010191505092915050565b634e487b7160e01b5f52603260045260245ffd5b5f60208284031215615cfb575f80fd5b5051919050565b5f60208284031215615d12575f80fd5b81516156a6816158fc565b634e487b7160e01b5f52601160045260245ffd5b808201808211156121e8576121e8615d1d565b818103818111156121e8576121e8615d1d565b634e487b7160e01b5f52601260045260245ffd5b5f82615d8557634e487b7160e01b5f52601260045260245ffd5b500490565b80820281158282048414176121e8576121e8615d1d565b5f60208284031215615db1575f80fd5b815180151581146156a6575f80fd5b63ffffffff818116838216019080821115615ddd57615ddd615d1d565b5092915050565b63ffffffff828116828216039080821115615ddd57615ddd615d1d565b634e487b7160e01b5f52602160045260245ffd5b6040810160028410615e3557634e487b7160e01b5f52602160045260245ffd5b9281526020015290565b5f8060408385031215615e50575f80fd5b8251915060208084015167ffffffffffffffff811115615e6e575f80fd5b8401601f81018613615e7e575f80fd5b8051615e8c615a14826159d2565b81815260059190911b82018301908381019088831115615eaa575f80fd5b928401925b82841015615ed957835163ffffffff81168114615eca575f80fd5b82529284019290840190615eaf565b80955050505050509250929050565b6001600160601b03818116838216019080821115615ddd57615ddd615d1d565b5f63ffffffff808316818103615f2057615f20615d1d565b600101939250505056fea26469706673582212209b227400e590df76adee9fc5193650a3a86216c026e218fc836cfe7ba550723b64736f6c63430008190033",
  "linkReferences": {},
  "deployedLinkReferences": {}
}