{
  "_format": "hh-sol-artifact-1",
  "contractName": "WormholeTargetDispenserL2",
  "sourceName": "contracts/staking/WormholeTargetDispenserL2.sol",
  "abi": [
    {
      "inputs": [
        {
          "internalType": "address",
          "name": "_olas",
          "type": "address"
        },
        {
          "internalType": "address",
          "name": "_proxyFactory",
          "type": "address"
        },
        {
          "internalType": "address",
          "name": "_l2MessageRelayer",
          "type": "address"
        },
        {
          "internalType": "address",
          "name": "_l1DepositProcessor",
          "type": "address"
        },
        {
          "internalType": "uint256",
          "name": "_l1SourceChainId",
          "type": "uint256"
        },
        {
          "internalType": "address",
          "name": "_wormholeCore",
          "type": "address"
        },
        {
          "internalType": "address",
          "name": "_l2TokenRelayer",
          "type": "address"
        }
      ],
      "stateMutability": "nonpayable",
      "type": "constructor"
    },
    {
      "inputs": [
        {
          "internalType": "bytes32",
          "name": "deliveryHash",
          "type": "bytes32"
        }
      ],
      "name": "AlreadyDelivered",
      "type": "error"
    },
    {
      "inputs": [
        {
          "internalType": "uint256",
          "name": "expected",
          "type": "uint256"
        },
        {
          "internalType": "uint256",
          "name": "provided",
          "type": "uint256"
        }
      ],
      "name": "IncorrectDataLength",
      "type": "error"
    },
    {
      "inputs": [
        {
          "internalType": "uint256",
          "name": "provided",
          "type": "uint256"
        },
        {
          "internalType": "uint256",
          "name": "expected",
          "type": "uint256"
        }
      ],
      "name": "InsufficientBalance",
      "type": "error"
    },
    {
      "inputs": [
        {
          "internalType": "uint256",
          "name": "provided",
          "type": "uint256"
        },
        {
          "internalType": "uint256",
          "name": "expected",
          "type": "uint256"
        }
      ],
      "name": "LowerThan",
      "type": "error"
    },
    {
      "inputs": [
        {
          "internalType": "address",
          "name": "sender",
          "type": "address"
        },
        {
          "internalType": "address",
          "name": "manager",
          "type": "address"
        }
      ],
      "name": "ManagerOnly",
      "type": "error"
    },
    {
      "inputs": [
        {
          "internalType": "bytes32",
          "name": "",
          "type": "bytes32"
        }
      ],
      "name": "NotAnEvmAddress",
      "type": "error"
    },
    {
      "inputs": [
        {
          "internalType": "uint256",
          "name": "provided",
          "type": "uint256"
        },
        {
          "internalType": "uint256",
          "name": "max",
          "type": "uint256"
        }
      ],
      "name": "Overflow",
      "type": "error"
    },
    {
      "inputs": [
        {
          "internalType": "address",
          "name": "sender",
          "type": "address"
        },
        {
          "internalType": "address",
          "name": "owner",
          "type": "address"
        }
      ],
      "name": "OwnerOnly",
      "type": "error"
    },
    {
      "inputs": [],
      "name": "Paused",
      "type": "error"
    },
    {
      "inputs": [],
      "name": "ReentrancyGuard",
      "type": "error"
    },
    {
      "inputs": [
        {
          "internalType": "address",
          "name": "target",
          "type": "address"
        },
        {
          "internalType": "uint256",
          "name": "amount",
          "type": "uint256"
        },
        {
          "internalType": "bytes32",
          "name": "batchHash",
          "type": "bytes32"
        }
      ],
      "name": "TargetAmountNotQueued",
      "type": "error"
    },
    {
      "inputs": [
        {
          "internalType": "address",
          "name": "provided",
          "type": "address"
        },
        {
          "internalType": "address",
          "name": "expected",
          "type": "address"
        }
      ],
      "name": "TargetRelayerOnly",
      "type": "error"
    },
    {
      "inputs": [
        {
          "internalType": "address",
          "name": "token",
          "type": "address"
        },
        {
          "internalType": "address",
          "name": "from",
          "type": "address"
        },
        {
          "internalType": "address",
          "name": "to",
          "type": "address"
        },
        {
          "internalType": "uint256",
          "name": "amount",
          "type": "uint256"
        }
      ],
      "name": "TransferFailed",
      "type": "error"
    },
    {
      "inputs": [],
      "name": "Unpaused",
      "type": "error"
    },
    {
      "inputs": [
        {
          "internalType": "address",
          "name": "account",
          "type": "address"
        }
      ],
      "name": "WrongAccount",
      "type": "error"
    },
    {
      "inputs": [
        {
          "internalType": "uint256",
          "name": "provided",
          "type": "uint256"
        },
        {
          "internalType": "uint256",
          "name": "expected",
          "type": "uint256"
        }
      ],
      "name": "WrongAmount",
      "type": "error"
    },
    {
      "inputs": [
        {
          "internalType": "uint256",
          "name": "provided",
          "type": "uint256"
        },
        {
          "internalType": "uint256",
          "name": "expected",
          "type": "uint256"
        }
      ],
      "name": "WrongChainId",
      "type": "error"
    },
    {
      "inputs": [
        {
          "internalType": "address",
          "name": "provided",
          "type": "address"
        },
        {
          "internalType": "address",
          "name": "expected",
          "type": "address"
        }
      ],
      "name": "WrongMessageSender",
      "type": "error"
    },
    {
      "inputs": [
        {
          "internalType": "address",
          "name": "provided",
          "type": "address"
        },
        {
          "internalType": "address",
          "name": "expected",
          "type": "address"
        }
      ],
      "name": "WrongTokenAddress",
      "type": "error"
    },
    {
      "inputs": [],
      "name": "ZeroAddress",
      "type": "error"
    },
    {
      "inputs": [],
      "name": "ZeroValue",
      "type": "error"
    },
    {
      "anonymous": false,
      "inputs": [
        {
          "indexed": true,
          "internalType": "address",
          "name": "target",
          "type": "address"
        },
        {
          "indexed": false,
          "internalType": "uint256",
          "name": "amount",
          "type": "uint256"
        }
      ],
      "name": "AmountWithheld",
      "type": "event"
    },
    {
      "anonymous": false,
      "inputs": [
        {
          "indexed": true,
          "internalType": "address",
          "name": "owner",
          "type": "address"
        },
        {
          "indexed": false,
          "internalType": "uint256",
          "name": "amount",
          "type": "uint256"
        }
      ],
      "name": "Drain",
      "type": "event"
    },
    {
      "anonymous": false,
      "inputs": [
        {
          "indexed": true,
          "internalType": "address",
          "name": "sender",
          "type": "address"
        },
        {
          "indexed": false,
          "internalType": "uint256",
          "name": "value",
          "type": "uint256"
        }
      ],
      "name": "FundsReceived",
      "type": "event"
    },
    {
      "anonymous": false,
      "inputs": [
        {
          "indexed": true,
          "internalType": "address",
          "name": "sender",
          "type": "address"
        },
        {
          "indexed": false,
          "internalType": "uint256",
          "name": "leftovers",
          "type": "uint256"
        }
      ],
      "name": "LeftoversRefunded",
      "type": "event"
    },
    {
      "anonymous": false,
      "inputs": [
        {
          "indexed": true,
          "internalType": "uint256",
          "name": "sequence",
          "type": "uint256"
        },
        {
          "indexed": true,
          "internalType": "address",
          "name": "messageSender",
          "type": "address"
        },
        {
          "indexed": false,
          "internalType": "uint256",
          "name": "amount",
          "type": "uint256"
        },
        {
          "indexed": true,
          "internalType": "bytes32",
          "name": "batchHash",
          "type": "bytes32"
        }
      ],
      "name": "MessagePosted",
      "type": "event"
    },
    {
      "anonymous": false,
      "inputs": [
        {
          "indexed": true,
          "internalType": "address",
          "name": "sender",
          "type": "address"
        },
        {
          "indexed": false,
          "internalType": "uint256",
          "name": "chainId",
          "type": "uint256"
        },
        {
          "indexed": false,
          "internalType": "bytes",
          "name": "data",
          "type": "bytes"
        }
      ],
      "name": "MessageReceived",
      "type": "event"
    },
    {
      "anonymous": false,
      "inputs": [
        {
          "indexed": true,
          "internalType": "address",
          "name": "sender",
          "type": "address"
        },
        {
          "indexed": true,
          "internalType": "address",
          "name": "newL2TargetDispenser",
          "type": "address"
        },
        {
          "indexed": false,
          "internalType": "uint256",
          "name": "amount",
          "type": "uint256"
        }
      ],
      "name": "Migrated",
      "type": "event"
    },
    {
      "anonymous": false,
      "inputs": [
        {
          "indexed": true,
          "internalType": "address",
          "name": "owner",
          "type": "address"
        }
      ],
      "name": "OwnerUpdated",
      "type": "event"
    },
    {
      "anonymous": false,
      "inputs": [
        {
          "indexed": true,
          "internalType": "bytes32",
          "name": "queueHash",
          "type": "bytes32"
        },
        {
          "indexed": true,
          "internalType": "address",
          "name": "target",
          "type": "address"
        },
        {
          "indexed": false,
          "internalType": "uint256",
          "name": "amount",
          "type": "uint256"
        },
        {
          "indexed": true,
          "internalType": "bytes32",
          "name": "batchHash",
          "type": "bytes32"
        },
        {
          "indexed": false,
          "internalType": "uint256",
          "name": "olasBalance",
          "type": "uint256"
        },
        {
          "indexed": false,
          "internalType": "uint256",
          "name": "paused",
          "type": "uint256"
        }
      ],
      "name": "StakingRequestQueued",
      "type": "event"
    },
    {
      "anonymous": false,
      "inputs": [
        {
          "indexed": true,
          "internalType": "address",
          "name": "target",
          "type": "address"
        },
        {
          "indexed": false,
          "internalType": "uint256",
          "name": "amount",
          "type": "uint256"
        },
        {
          "indexed": true,
          "internalType": "bytes32",
          "name": "batchHash",
          "type": "bytes32"
        }
      ],
      "name": "StakingTargetDeposited",
      "type": "event"
    },
    {
      "anonymous": false,
      "inputs": [],
      "name": "TargetDispenserPaused",
      "type": "event"
    },
    {
      "anonymous": false,
      "inputs": [],
      "name": "TargetDispenserUnpaused",
      "type": "event"
    },
    {
      "inputs": [],
      "name": "BRIDGE_PAYLOAD_LENGTH",
      "outputs": [
        {
          "internalType": "uint256",
          "name": "",
          "type": "uint256"
        }
      ],
      "stateMutability": "view",
      "type": "function"
    },
    {
      "inputs": [],
      "name": "MAX_CHAIN_ID",
      "outputs": [
        {
          "internalType": "uint256",
          "name": "",
          "type": "uint256"
        }
      ],
      "stateMutability": "view",
      "type": "function"
    },
    {
      "inputs": [],
      "name": "MAX_GAS_LIMIT",
      "outputs": [
        {
          "internalType": "uint256",
          "name": "",
          "type": "uint256"
        }
      ],
      "stateMutability": "view",
      "type": "function"
    },
    {
      "inputs": [],
      "name": "MIN_GAS_LIMIT",
      "outputs": [
        {
          "internalType": "uint256",
          "name": "",
          "type": "uint256"
        }
      ],
      "stateMutability": "view",
      "type": "function"
    },
    {
      "inputs": [],
      "name": "RECEIVE_MESSAGE",
      "outputs": [
        {
          "internalType": "bytes4",
          "name": "",
          "type": "bytes4"
        }
      ],
      "stateMutability": "view",
      "type": "function"
    },
    {
      "inputs": [
        {
          "internalType": "address",
          "name": "newOwner",
          "type": "address"
        }
      ],
      "name": "changeOwner",
      "outputs": [],
      "stateMutability": "nonpayable",
      "type": "function"
    },
    {
      "inputs": [],
      "name": "drain",
      "outputs": [
        {
          "internalType": "uint256",
          "name": "amount",
          "type": "uint256"
        }
      ],
      "stateMutability": "nonpayable",
      "type": "function"
    },
    {
      "inputs": [],
      "name": "getBridgingDecimals",
      "outputs": [
        {
          "internalType": "uint256",
          "name": "",
          "type": "uint256"
        }
      ],
      "stateMutability": "pure",
      "type": "function"
    },
    {
      "inputs": [],
      "name": "l1DepositProcessor",
      "outputs": [
        {
          "internalType": "address",
          "name": "",
          "type": "address"
        }
      ],
      "stateMutability": "view",
      "type": "function"
    },
    {
      "inputs": [],
      "name": "l1SourceChainId",
      "outputs": [
        {
          "internalType": "uint256",
          "name": "",
          "type": "uint256"
        }
      ],
      "stateMutability": "view",
      "type": "function"
    },
    {
      "inputs": [],
      "name": "l2MessageRelayer",
      "outputs": [
        {
          "internalType": "address",
          "name": "",
          "type": "address"
        }
      ],
      "stateMutability": "view",
      "type": "function"
    },
    {
      "inputs": [
        {
          "internalType": "bytes32",
          "name": "",
          "type": "bytes32"
        }
      ],
      "name": "mapDeliveryHashes",
      "outputs": [
        {
          "internalType": "bool",
          "name": "",
          "type": "bool"
        }
      ],
      "stateMutability": "view",
      "type": "function"
    },
    {
      "inputs": [
        {
          "internalType": "address",
          "name": "newL2TargetDispenser",
          "type": "address"
        }
      ],
      "name": "migrate",
      "outputs": [],
      "stateMutability": "nonpayable",
      "type": "function"
    },
    {
      "inputs": [],
      "name": "olas",
      "outputs": [
        {
          "internalType": "address",
          "name": "",
          "type": "address"
        }
      ],
      "stateMutability": "view",
      "type": "function"
    },
    {
      "inputs": [],
      "name": "owner",
      "outputs": [
        {
          "internalType": "address",
          "name": "",
          "type": "address"
        }
      ],
      "stateMutability": "view",
      "type": "function"
    },
    {
      "inputs": [],
      "name": "pause",
      "outputs": [],
      "stateMutability": "nonpayable",
      "type": "function"
    },
    {
      "inputs": [],
      "name": "paused",
      "outputs": [
        {
          "internalType": "uint8",
          "name": "",
          "type": "uint8"
        }
      ],
      "stateMutability": "view",
      "type": "function"
    },
    {
      "inputs": [
        {
          "internalType": "bytes",
          "name": "data",
          "type": "bytes"
        }
      ],
      "name": "processDataMaintenance",
      "outputs": [],
      "stateMutability": "nonpayable",
      "type": "function"
    },
    {
      "inputs": [
        {
          "internalType": "bytes32",
          "name": "",
          "type": "bytes32"
        }
      ],
      "name": "processedHashes",
      "outputs": [
        {
          "internalType": "bool",
          "name": "",
          "type": "bool"
        }
      ],
      "stateMutability": "view",
      "type": "function"
    },
    {
      "inputs": [
        {
          "internalType": "bytes32",
          "name": "",
          "type": "bytes32"
        }
      ],
      "name": "queuedHashes",
      "outputs": [
        {
          "internalType": "bool",
          "name": "",
          "type": "bool"
        }
      ],
      "stateMutability": "view",
      "type": "function"
    },
    {
      "inputs": [
        {
          "internalType": "bytes",
          "name": "payload",
          "type": "bytes"
        },
        {
          "internalType": "bytes[]",
          "name": "additionalVaas",
          "type": "bytes[]"
        },
        {
          "internalType": "bytes32",
          "name": "sourceAddress",
          "type": "bytes32"
        },
        {
          "internalType": "uint16",
          "name": "sourceChain",
          "type": "uint16"
        },
        {
          "internalType": "bytes32",
          "name": "deliveryHash",
          "type": "bytes32"
        }
      ],
      "name": "receiveWormholeMessages",
      "outputs": [],
      "stateMutability": "payable",
      "type": "function"
    },
    {
      "inputs": [
        {
          "internalType": "address",
          "name": "target",
          "type": "address"
        },
        {
          "internalType": "uint256",
          "name": "amount",
          "type": "uint256"
        },
        {
          "internalType": "bytes32",
          "name": "batchHash",
          "type": "bytes32"
        }
      ],
      "name": "redeem",
      "outputs": [],
      "stateMutability": "nonpayable",
      "type": "function"
    },
    {
      "inputs": [
        {
          "internalType": "uint16",
          "name": "sourceChain",
          "type": "uint16"
        },
        {
          "internalType": "bytes32",
          "name": "sourceAddress",
          "type": "bytes32"
        }
      ],
      "name": "setRegisteredSender",
      "outputs": [],
      "stateMutability": "nonpayable",
      "type": "function"
    },
    {
      "inputs": [],
      "name": "stakingBatchNonce",
      "outputs": [
        {
          "internalType": "uint256",
          "name": "",
          "type": "uint256"
        }
      ],
      "stateMutability": "view",
      "type": "function"
    },
    {
      "inputs": [],
      "name": "stakingFactory",
      "outputs": [
        {
          "internalType": "address",
          "name": "",
          "type": "address"
        }
      ],
      "stateMutability": "view",
      "type": "function"
    },
    {
      "inputs": [
        {
          "internalType": "bytes",
          "name": "bridgePayload",
          "type": "bytes"
        }
      ],
      "name": "syncWithheldAmount",
      "outputs": [],
      "stateMutability": "payable",
      "type": "function"
    },
    {
      "inputs": [],
      "name": "tokenBridge",
      "outputs": [
        {
          "internalType": "contract ITokenBridge",
          "name": "",
          "type": "address"
        }
      ],
      "stateMutability": "view",
      "type": "function"
    },
    {
      "inputs": [],
      "name": "unpause",
      "outputs": [],
      "stateMutability": "nonpayable",
      "type": "function"
    },
    {
      "inputs": [],
      "name": "withheldAmount",
      "outputs": [
        {
          "internalType": "uint256",
          "name": "",
          "type": "uint256"
        }
      ],
      "stateMutability": "view",
      "type": "function"
    },
    {
      "inputs": [],
      "name": "wormhole",
      "outputs": [
        {
          "internalType": "contract IWormhole",
          "name": "",
          "type": "address"
        }
      ],
      "stateMutability": "view",
      "type": "function"
    },
    {
      "inputs": [],
      "name": "wormholeRelayer",
      "outputs": [
        {
          "internalType": "contract IWormholeRelayer",
          "name": "",
          "type": "address"
        }
      ],
      "stateMutability": "view",
      "type": "function"
    },
    {
      "stateMutability": "payable",
      "type": "receive"
    }
  ],
  "bytecode": "0x610180604052348015610010575f80fd5b5060405161386238038061386283398101604081905261002f91610244565b84818382818b8b838b8b6001600160a01b038516158061005657506001600160a01b038416155b8061006857506001600160a01b038316155b8061007a57506001600160a01b038216155b156100985760405163d92e233d60e01b815260040160405180910390fd5b805f036100b857604051637c946ed760e01b815260040160405180910390fd5b60246100cc60026001600160401b036102be565b6100d691906102ef565b6001600160401b0316811115610135578060246100fb60026001600160401b036102be565b61010591906102ef565b604051637ae5968560e01b815260048101929092526001600160401b031660248201526044015b60405180910390fd5b6001600160a01b0394851660805292841660a05290831660c052821660e052610100526002805460ff60a81b1960ff60a01b19339081166001600160a81b031990931692909217600160a01b1716600160a81b179091559281166101205290811661014052600580546001600160a01b03191690921790915591821661016052508316159050806101cd57506001600160a01b038116155b156101eb5760405163d92e233d60e01b815260040160405180910390fd5b61ffff83111561021957604051637ae5968560e01b81526004810184905261ffff602482015260440161012c565b5050610100525061032292505050565b80516001600160a01b038116811461023f575f80fd5b919050565b5f805f805f805f60e0888a03121561025a575f80fd5b61026388610229565b965061027160208901610229565b955061027f60408901610229565b945061028d60608901610229565b9350608088015192506102a260a08901610229565b91506102b060c08901610229565b905092959891949750929550565b5f6001600160401b03838116806102e357634e487b7160e01b5f52601260045260245ffd5b92169190910492915050565b6001600160401b0382811682821603908082111561031b57634e487b7160e01b5f52601160045260245ffd5b5092915050565b60805160a05160c05160e0516101005161012051610140516101605161340c6104565f395f818161066c0152818161092401528181610a1e01528181610ba50152611a6201525f81816105630152818161084501528181610aa4015261199d01525f6106be01525f81816105e801528181611c0701528181611c5d01528181611e9401528181611fb401528181612023015261284901525f818161035401528181611fd501528181612760015281816127cf01526127fe01525f818161032101528181611ecb01528181611f84015281816126c2015261273101525f8181610387015261225501525f8181610265015281816112aa0152818161134a01528181611711015281816117cb0152818161185501528181611cd301528181611d47015281816123d0015261247e015261340c5ff3fe6080604052600436106101d2575f3560e01c80637ce1ffeb116100fd578063a8b2ae0211610092578063da25b72511610062578063da25b725146106ad578063dd12d68b146106e0578063e3f5aa51146106ff578063f4427c2c14610715575f80fd5b8063a8b2ae0214610629578063bddc966e1461063c578063c6328a461461065b578063ce5494bb1461068e575f80fd5b80639890220b116100cd5780639890220b146105a4578063992c3e4b146105b85780639b7bb847146105d7578063a6f9dae11461060a575f80fd5b80637ce1ffeb146105285780638456cb591461053e57806384acd1bb146105525780638da5cb5b14610585575f80fd5b8063446a9695116101735780635a7287cf116101435780635a7287cf146104bb5780635bc105c0146104cf5780635c975abb146104e35780637424ddc814610515575f80fd5b8063446a9695146103bf5780634ece6b17146103ed578063529dca321461040f57806354d20cc214610422575f80fd5b80631bad5957116101ae5780631bad595714610310578063256359a81461034357806329134768146103765780633f4ba83a146103a9575f80fd5b806231d1151461025457806307d9c534146102a45780631b2e7f0a146102e2575f80fd5b36610250576002546001600160a01b03166102195760405163cd3f165960e01b81525f60048201523360248201523060448201523460648201526084015b60405180910390fd5b60405134815233907f8e47b87b0ef542cdfa1659c551d88bad38aa7f452d2bbb349ab7530dfec8be8f9060200160405180910390a2005b5f80fd5b34801561025f575f80fd5b506102877f000000000000000000000000000000000000000000000000000000000000000081565b6040516001600160a01b0390911681526020015b60405180910390f35b3480156102af575f80fd5b506102d26102be36600461288d565b60036020525f908152604090205460ff1681565b604051901515815260200161029b565b3480156102ed575f80fd5b506102d26102fc36600461288d565b60046020525f908152604090205460ff1681565b34801561031b575f80fd5b506102877f000000000000000000000000000000000000000000000000000000000000000081565b34801561034e575f80fd5b506102877f000000000000000000000000000000000000000000000000000000000000000081565b348015610381575f80fd5b506102877f000000000000000000000000000000000000000000000000000000000000000081565b3480156103b4575f80fd5b506103bd61072a565b005b3480156103ca575f80fd5b506102d26103d936600461288d565b60076020525f908152604090205460ff1681565b3480156103f8575f80fd5b50610401604081565b60405190815260200161029b565b6103bd61041d366004612a15565b6107c2565b34801561042d575f80fd5b5060408051808201909152601581527f726563656976654d65737361676528627974657329000000000000000000000060209091015261048a7ff953cec75ae677942d7cda5cb6d12c0cb96a0904bf37d36301eef297b83c411d81565b6040517fffffffff00000000000000000000000000000000000000000000000000000000909116815260200161029b565b3480156104c6575f80fd5b506104015f5481565b3480156104da575f80fd5b50610401610d24565b3480156104ee575f80fd5b5060025461050390600160a01b900460ff1681565b60405160ff909116815260200161029b565b6103bd610523366004612b01565b610d50565b348015610533575f80fd5b50610401620493e081565b348015610549575f80fd5b506103bd610f65565b34801561055d575f80fd5b506102877f000000000000000000000000000000000000000000000000000000000000000081565b348015610590575f80fd5b50600254610287906001600160a01b031681565b3480156105af575f80fd5b5061040161100e565b3480156105c3575f80fd5b506103bd6105d2366004612b4f565b61117b565b3480156105e2575f80fd5b506104017f000000000000000000000000000000000000000000000000000000000000000081565b348015610615575f80fd5b506103bd610624366004612b81565b6114bf565b348015610634575f80fd5b506008610401565b348015610647575f80fd5b506103bd610656366004612b01565b611587565b348015610666575f80fd5b506102877f000000000000000000000000000000000000000000000000000000000000000081565b348015610699575f80fd5b506103bd6106a8366004612b81565b6115d3565b3480156106b8575f80fd5b506102877f000000000000000000000000000000000000000000000000000000000000000081565b3480156106eb575f80fd5b506103bd6106fa366004612b9c565b611905565b34801561070a575f80fd5b50610401621e848081565b348015610720575f80fd5b5061040160015481565b6002546001600160a01b0316331461076a5760025460405163521eb56d60e11b81523360048201526001600160a01b039091166024820152604401610210565b600280547fffffffffffffffffffffff00ffffffffffffffffffffffffffffffffffffffff16600160a01b1790556040517f20e9b9dbd8158c2b961d8645a7d06624a045634bb65f07ef751ae014a65f61f5905f90a1565b5f845167ffffffffffffffff8111156107dd576107dd6128a4565b60405190808252806020026020018201604052801561083457816020015b6040805160a0810182525f808252602080830182905292820181905260608201819052608082015282525f199092019101816107fb5790505b5090505f5b8551811015610d0e575f7f00000000000000000000000000000000000000000000000000000000000000006001600160a01b031663a9e1189388848151811061088457610884612bc6565b60200260200101516040518263ffffffff1660e01b81526004016108a89190612c08565b5f60405180830381865afa1580156108c2573d5f803e3d5ffd5b505050506040513d5f823e601f3d908101601f191682016040526108e99190810190612d53565b60608101516040517fad66a5f100000000000000000000000000000000000000000000000000000000815261ffff90911660048201529091507f00000000000000000000000000000000000000000000000000000000000000006001600160a01b03169063ad66a5f190602401602060405180830381865afa158015610971573d5f803e3d5ffd5b505050506040513d601f19601f820116820180604052508101906109959190612e72565b8160800151146109e75760405162461bcd60e51b815260206004820152601660248201527f4e6f74206120546f6b656e2042726964676520564141000000000000000000006044820152606401610210565b60e08101516040517fea63738d0000000000000000000000000000000000000000000000000000000081525f916001600160a01b037f0000000000000000000000000000000000000000000000000000000000000000169163ea63738d91610a5191600401612c08565b5f60405180830381865afa158015610a6b573d5f803e3d5ffd5b505050506040513d5f823e601f3d908101601f19168201604052610a929190810190612e89565b9050308160800151148015610b3157507f00000000000000000000000000000000000000000000000000000000000000006001600160a01b0316639a8a05926040518163ffffffff1660e01b8152600401602060405180830381865afa158015610afe573d5f803e3d5ffd5b505050506040513d601f19601f82011682018060405250810190610b229190612f4d565b61ffff168160a0015161ffff16145b610ba35760405162461bcd60e51b815260206004820152602260248201527f546f6b656e20776173206e6f742073656e7420746f207468697320616464726560448201527f73730000000000000000000000000000000000000000000000000000000000006064820152608401610210565b7f00000000000000000000000000000000000000000000000000000000000000006001600160a01b031663c3f511c1898581518110610be457610be4612bc6565b60200260200101516040518263ffffffff1660e01b8152600401610c089190612c08565b5f604051808303815f875af1158015610c23573d5f803e3d5ffd5b505050506040513d5f823e601f3d908101601f19168201604052610c4a9190810190612f68565b505f610c5e8260600151836040015161199a565b90505f610c6a82611aea565b6020840151909150600860ff83161115610ca157610c89600883612fae565b610c9490600a6130a7565b610c9e90826130b5565b90505b6040518060a0016040528085604001518152602001856060015161ffff168152602001846001600160a01b031681526020018281526020018560200151815250878781518110610cf357610cf3612bc6565b60200260200101819052505050505050806001019050610839565b50610d1c8682868686611bb6565b505050505050565b6024610d39600267ffffffffffffffff6130e0565b610d439190613106565b67ffffffffffffffff1681565b6002546001600160a81b90910460ff161115610d7f576040516345f5ce8b60e11b815260040160405180910390fd5b6002805460ff60a81b1916600160a91b1780825560ff600160a01b909104169003610dbd576040516313d0ff5960e31b815260040160405180910390fd5b5f54600881610dcd82601261312e565b610dd890600a613141565b610de2908461314c565b9050610def82601261312e565b610dfa90600a613141565b610e0490826130b5565b9050805f03610e2657604051637c946ed760e01b815260040160405180910390fd5b610e30818461312e565b5f908155600154604080516020810183905246918101919091523060608201529091906080016040516020818303038152906040528051906020012090505f80610e7b858985611dbb565b90925090508015610f0157604051339082905f81818185875af1925050503d805f8114610ec3576040519150601f19603f3d011682016040523d82523d5f602084013e610ec8565b606091505b50506040518281523391507f8e49ed3e274fbea1556bdfaa9a37a0c28445bfe26d57beaf9f04fd517aa417419060200160405180910390a25b610f0c84600161315f565b6001556040518581528390339084907f1ff6d173c1ebeb42f666a09b94f554cf43eadf8054fda3247f56c343baab28f79060200160405180910390a450506002805460ff60a81b1916600160a81b179055505050505050565b6002546001600160a01b03163314610fa55760025460405163521eb56d60e11b81523360048201526001600160a01b039091166024820152604401610210565b600280547fffffffffffffffffffffff00ffffffffffffffffffffffffffffffffffffffff16740200000000000000000000000000000000000000001790556040517f8ef6a6615a637325c66275a8d4cadb0844f08a758e5a9df369412975bcdcbc48905f90a1565b6002545f906001600160a81b90910460ff16111561103f576040516345f5ce8b60e11b815260040160405180910390fd5b6002805460ff60a81b198116600160a91b179091556001600160a01b031633146110915760025460405163521eb56d60e11b81523360048201526001600160a01b039091166024820152604401610210565b479050805f036110b457604051637c946ed760e01b815260040160405180910390fd5b6040515f90339083908381818185875af1925050503d805f81146110f3576040519150601f19603f3d011682016040523d82523d5f602084013e6110f8565b606091505b505090508061112f5760405163cd3f165960e01b81525f600482015230602482015233604482015260648101839052608401610210565b60405182815233907ff36f4d6622e16a536bbb049064af779cdd483a0b388d347d3752a65f1058bf5b9060200160405180910390a2506002805460ff60a81b1916600160a81b17905590565b6002546001600160a81b90910460ff1611156111aa576040516345f5ce8b60e11b815260040160405180910390fd5b6002805460ff60a81b1916600160a91b1780825560ff600160a01b9091041690036111e8576040516313d0ff5960e31b815260040160405180910390fd5b604080516001600160a01b0385166020820152908101839052606081018290524660808201523060a08201525f9060c00160408051601f1981840301815291815281516020928301205f818152600490935291205490915060ff1680611293576040517f2b82bd4a0000000000000000000000000000000000000000000000000000000081526001600160a01b03861660048201526024810185905260448101849052606401610210565b6040516370a0823160e01b81523060048201525f907f00000000000000000000000000000000000000000000000000000000000000006001600160a01b0316906370a0823190602401602060405180830381865afa1580156112f7573d5f803e3d5ffd5b505050506040513d601f19601f8201168201806040525081019061131b9190612e72565b90508481106114685760405163095ea7b360e01b81526001600160a01b038781166004830152602482018790527f0000000000000000000000000000000000000000000000000000000000000000169063095ea7b3906044016020604051808303815f875af1158015611390573d5f803e3d5ffd5b505050506040513d601f19601f820116820180604052508101906113b49190613172565b5060405163b6b55f2560e01b8152600481018690526001600160a01b0387169063b6b55f25906024015f604051808303815f87803b1580156113f4575f80fd5b505af1158015611406573d5f803e3d5ffd5b5050505083866001600160a01b03167f22ab9fd8eb5063f7f3cb43c78f5d368aea9a51855ada00fa146687ef2c3219808760405161144691815260200190565b60405180910390a35f838152600460205260409020805460ff191690556114a4565b6040517fcf4791810000000000000000000000000000000000000000000000000000000081526004810182905260248101869052604401610210565b50506002805460ff60a81b1916600160a81b17905550505050565b6002546001600160a01b031633146114ff5760025460405163521eb56d60e11b81523360048201526001600160a01b039091166024820152604401610210565b6001600160a01b0381166115265760405163d92e233d60e01b815260040160405180910390fd5b600280547fffffffffffffffffffffffff0000000000000000000000000000000000000000166001600160a01b0383169081179091556040517f4ffd725fc4a22075e9ec71c59edf9c38cdeb588a91b24fc5b61388c5be41282b905f90a250565b6002546001600160a01b031633146115c75760025460405163521eb56d60e11b81523360048201526001600160a01b039091166024820152604401610210565b6115d0816120c9565b50565b6002546001600160a81b90910460ff161115611602576040516345f5ce8b60e11b815260040160405180910390fd5b6002805460ff60a81b198116600160a91b179091556001600160a01b031633146116545760025460405163521eb56d60e11b81523360048201526001600160a01b039091166024820152604401610210565b600254600160a01b900460ff1660010361169a576040517fa45f47fd00000000000000000000000000000000000000000000000000000000815260040160405180910390fd5b806001600160a01b03163b5f036116cf57604051631c7025f960e11b81526001600160a01b0382166004820152602401610210565b306001600160a01b038216036116fa57604051631c7025f960e11b8152306004820152602401610210565b6040516370a0823160e01b81523060048201525f907f00000000000000000000000000000000000000000000000000000000000000006001600160a01b0316906370a0823190602401602060405180830381865afa15801561175e573d5f803e3d5ffd5b505050506040513d601f19601f820116820180604052508101906117829190612e72565b90508015611899576040517fa9059cbb0000000000000000000000000000000000000000000000000000000081526001600160a01b038381166004830152602482018390525f917f00000000000000000000000000000000000000000000000000000000000000009091169063a9059cbb906044016020604051808303815f875af1158015611813573d5f803e3d5ffd5b505050506040513d601f19601f820116820180604052508101906118379190613172565b9050806118975760405163cd3f165960e01b81526001600160a01b037f0000000000000000000000000000000000000000000000000000000000000000811660048301523060248301528416604482015260648101839052608401610210565b505b600280547fffffffffffffffffffffffff00000000000000000000000000000000000000001690556040518181526001600160a01b0383169033907f928fd5531324ee87d76cc5307dc37580174da76b85cd546da631b2670bc266b59060200160405180910390a35050565b6005546001600160a01b031633146119845760405162461bcd60e51b8152602060048201526024808201527f4e6f7420616c6c6f77656420746f20736574207265676973746572656420736560448201527f6e646572000000000000000000000000000000000000000000000000000000006064820152608401610210565b61ffff9091165f90815260066020526040902055565b5f7f00000000000000000000000000000000000000000000000000000000000000006001600160a01b0316639a8a05926040518163ffffffff1660e01b8152600401602060405180830381865afa1580156119f7573d5f803e3d5ffd5b505050506040513d601f19601f82011682018060405250810190611a1b9190612f4d565b61ffff168361ffff1614611ad8576040517f1ff1e28600000000000000000000000000000000000000000000000000000000815261ffff84166004820152602481018390527f00000000000000000000000000000000000000000000000000000000000000006001600160a01b031690631ff1e28690604401602060405180830381865afa158015611aaf573d5f803e3d5ffd5b505050506040513d601f19601f82011682018060405250810190611ad39190613191565b611ae1565b611ae18261267c565b90505b92915050565b60408051600481526024810182526020810180517bffffffffffffffffffffffffffffffffffffffffffffffffffffffff167f313ce5670000000000000000000000000000000000000000000000000000000017905290515f9182916001600160a01b03851691611b5a916131ac565b5f60405180830381855afa9150503d805f8114611b92576040519150601f19603f3d011682016040523d82523d5f602084013e611b97565b606091505b5091505080806020019051810190611baf91906131c2565b9392505050565b5f8181526007602052604090205460ff1615611be8576040516356bc34a160e01b815260048101829052602401610210565b5f818152600760205260409020805460ff1916600117905561ffff82167f000000000000000000000000000000000000000000000000000000000000000014611c89576040517f857c0bad00000000000000000000000000000000000000000000000000000000815261ffff831660048201527f00000000000000000000000000000000000000000000000000000000000000006024820152604401610210565b8351600114611cd15783516040517f312b0033000000000000000000000000000000000000000000000000000000008152600481019190915260016024820152604401610210565b7f00000000000000000000000000000000000000000000000000000000000000006001600160a01b0316845f81518110611d0d57611d0d612bc6565b6020026020010151604001516001600160a01b031614611daf57835f81518110611d3957611d39612bc6565b6020026020010151604001517f00000000000000000000000000000000000000000000000000000000000000006040517f7674dcce0000000000000000000000000000000000000000000000000000000081526004016102109291906001600160a01b0392831681529116602082015260400190565b82610d1c3382886126c0565b5f806040845114611e05578351604080517f34c9027a0000000000000000000000000000000000000000000000000000000081526102109290600401918252602082015260400190565b5f8085806020019051810190611e1b91906131db565b90925090506001600160a01b038216611e475760405163d92e233d60e01b815260040160405180910390fd5b620493e0811015611e585750620493e05b621e8480811115611e695750621e84805b6040517fc23ee3c300000000000000000000000000000000000000000000000000000000815261ffff7f00000000000000000000000000000000000000000000000000000000000000001660048201525f6024820181905260448201839052907f00000000000000000000000000000000000000000000000000000000000000006001600160a01b03169063c23ee3c39060640160408051808303815f875af1158015611f18573d5f803e3d5ffd5b505050506040513d601f19601f82011682018060405250810190611f3c9190613207565b50905034811115611f82576040517f491a2bb100000000000000000000000000000000000000000000000000000000815234600482015260248101829052604401610210565b7f00000000000000000000000000000000000000000000000000000000000000006001600160a01b0316634b5ca6f4827f00000000000000000000000000000000000000000000000000000000000000007f00000000000000000000000000000000000000000000000000000000000000008c8b604051602001612010929190918252602082015260400190565b6040516020818303038152906040525f887f00000000000000000000000000000000000000000000000000000000000000008b6040518963ffffffff1660e01b81526004016120659796959493929190613229565b60206040518083038185885af1158015612081573d5f803e3d5ffd5b50505050506040513d601f19601f820116820180604052508101906120a69190613282565b67ffffffffffffffff1694506120bc813461312e565b9350505050935093915050565b6002546001600160a81b90910460ff1611156120f8576040516345f5ce8b60e11b815260040160405180910390fd5b6002805460ff60a81b1916600160a91b17905580515f908190819061212690602090860181019086016132f7565b5f81815260036020526040902054929550909350915060ff1615612160576040516356bc34a160e01b815260048101829052602401610210565b5f818152600360205260408120805460ff19166001179055600254600160a01b900460ff16815b8551811015612645575f8682815181106121a3576121a3612bc6565b602002602001015190505f8683815181106121c0576121c0612bc6565b602002602001015190505f826040516024016121eb91906001600160a01b0391909116815260200190565b60408051601f198184030181529181526020820180517bffffffffffffffffffffffffffffffffffffffffffffffffffffffff167f1eda94d700000000000000000000000000000000000000000000000000000000179052519091505f9081906001600160a01b037f000000000000000000000000000000000000000000000000000000000000000016906122819085906131ac565b5f604051808303815f865af19150503d805f81146122ba576040519150601f19603f3d011682016040523d82523d5f602084013e6122bf565b606091505b50915091505f8280156122d3575081516020145b156122ef57818060200190518101906122ec9190612e72565b90505b805f0361235057612300858a61315f565b9850856001600160a01b03167f29bd7fae5899787bb9cb5aa121b781bf47bb44cc44f0f3ddd1e1ea383acd22fb8660405161233d91815260200190565b60405180910390a250505050505061263d565b808511156123b9575f612363828761312e565b905061236f818b61315f565b9950819550866001600160a01b03167f29bd7fae5899787bb9cb5aa121b781bf47bb44cc44f0f3ddd1e1ea383acd22fb826040516123af91815260200190565b60405180910390a2505b6040516370a0823160e01b81523060048201525f907f00000000000000000000000000000000000000000000000000000000000000006001600160a01b0316906370a0823190602401602060405180830381865afa15801561241d573d5f803e3d5ffd5b505050506040513d601f19601f820116820180604052508101906124419190612e72565b90508581101580156124535750886001145b156125875760405163095ea7b360e01b81526001600160a01b038881166004830152602482018890527f0000000000000000000000000000000000000000000000000000000000000000169063095ea7b3906044016020604051808303815f875af11580156124c4573d5f803e3d5ffd5b505050506040513d601f19601f820116820180604052508101906124e89190613172565b5060405163b6b55f2560e01b8152600481018790526001600160a01b0388169063b6b55f25906024015f604051808303815f87803b158015612528575f80fd5b505af115801561253a573d5f803e3d5ffd5b505050508a876001600160a01b03167f22ab9fd8eb5063f7f3cb43c78f5d368aea9a51855ada00fa146687ef2c3219808860405161257a91815260200190565b60405180910390a3612635565b604080516001600160a01b0389166020820152908101879052606081018c90524660808201523060a08201525f9060c00160408051601f1981840301815282825280516020918201205f81815260048352839020805460ff191660011790558a84529083018590529082018c905291508c906001600160a01b038a169083907ff40f70fa5e98296d34577a11349caa5adf0d9cf9b6d416fd901de223c50d7a6c9060600160405180910390a4505b505050505050505b600101612187565b5081156114a457815f8082825461265c919061315f565b909155505050506002805460ff60a81b1916600160a81b17905550505050565b5f60a082901c156126bc576040517f33b960d000000000000000000000000000000000000000000000000000000000815260048101839052602401610210565b5090565b7f00000000000000000000000000000000000000000000000000000000000000006001600160a01b0316836001600160a01b03161461275e576040517f2f3111fa0000000000000000000000000000000000000000000000000000000081526001600160a01b0380851660048301527f0000000000000000000000000000000000000000000000000000000000000000166024820152604401610210565b7f00000000000000000000000000000000000000000000000000000000000000006001600160a01b0316826001600160a01b0316146127fc576040517f0d16cbdd0000000000000000000000000000000000000000000000000000000081526001600160a01b0380841660048301527f0000000000000000000000000000000000000000000000000000000000000000166024820152604401610210565b7f00000000000000000000000000000000000000000000000000000000000000006001600160a01b03167f98bbde530ec85b002f6fb0864beccaaf3ac3d2a4ac35cb3b03cf7c61ee415e337f0000000000000000000000000000000000000000000000000000000000000000836040516128779291906133be565b60405180910390a2612888816120c9565b505050565b5f6020828403121561289d575f80fd5b5035919050565b634e487b7160e01b5f52604160045260245ffd5b6040516080810167ffffffffffffffff811182821017156128db576128db6128a4565b60405290565b604051610160810167ffffffffffffffff811182821017156128db576128db6128a4565b604051610100810167ffffffffffffffff811182821017156128db576128db6128a4565b604051601f8201601f1916810167ffffffffffffffff81118282101715612952576129526128a4565b604052919050565b5f67ffffffffffffffff821115612973576129736128a4565b50601f01601f191660200190565b5f82601f830112612990575f80fd5b81356129a361299e8261295a565b612929565b8181528460208386010111156129b7575f80fd5b816020850160208301375f918101602001919091529392505050565b5f67ffffffffffffffff8211156129ec576129ec6128a4565b5060051b60200190565b61ffff811681146115d0575f80fd5b8035612a10816129f6565b919050565b5f805f805f60a08688031215612a29575f80fd5b853567ffffffffffffffff80821115612a40575f80fd5b612a4c89838a01612981565b9650602091508188013581811115612a62575f80fd5b8801601f81018a13612a72575f80fd5b8035612a8061299e826129d3565b81815260059190911b8201840190848101908c831115612a9e575f80fd5b8584015b83811015612ad457803586811115612ab8575f80fd5b612ac68f8983890101612981565b845250918601918601612aa2565b50985050505060408801359450612af091505060608701612a05565b949793965091946080013592915050565b5f60208284031215612b11575f80fd5b813567ffffffffffffffff811115612b27575f80fd5b612b3384828501612981565b949350505050565b6001600160a01b03811681146115d0575f80fd5b5f805f60608486031215612b61575f80fd5b8335612b6c81612b3b565b95602085013595506040909401359392505050565b5f60208284031215612b91575f80fd5b8135611baf81612b3b565b5f8060408385031215612bad575f80fd5b8235612bb8816129f6565b946020939093013593505050565b634e487b7160e01b5f52603260045260245ffd5b5f81518084528060208401602086015e5f602082860101526020601f19601f83011685010191505092915050565b602081525f611ae16020830184612bda565b805160ff81168114612a10575f80fd5b805163ffffffff81168114612a10575f80fd5b8051612a10816129f6565b805167ffffffffffffffff81168114612a10575f80fd5b5f82601f830112612c6e575f80fd5b8151612c7c61299e8261295a565b818152846020838601011115612c90575f80fd5b8160208501602083015e5f918101602001919091529392505050565b5f82601f830112612cbb575f80fd5b81516020612ccb61299e836129d3565b82815260079290921b84018101918181019086841115612ce9575f80fd5b8286015b84811015612d485760808189031215612d04575f80fd5b612d0c6128b8565b8151815284820151858201526040612d25818401612c1a565b908201526060612d36838201612c1a565b90820152835291830191608001612ced565b509695505050505050565b5f60208284031215612d63575f80fd5b815167ffffffffffffffff80821115612d7a575f80fd5b908301906101608286031215612d8e575f80fd5b612d966128e1565b612d9f83612c1a565b8152612dad60208401612c2a565b6020820152612dbe60408401612c2a565b6040820152612dcf60608401612c3d565b606082015260808301516080820152612dea60a08401612c48565b60a0820152612dfb60c08401612c1a565b60c082015260e083015182811115612e11575f80fd5b612e1d87828601612c5f565b60e083015250610100612e31818501612c2a565b908201526101208381015183811115612e48575f80fd5b612e5488828701612cac565b91830191909152506101409283015192810192909252509392505050565b5f60208284031215612e82575f80fd5b5051919050565b5f60208284031215612e99575f80fd5b815167ffffffffffffffff80821115612eb0575f80fd5b908301906101008286031215612ec4575f80fd5b612ecc612905565b612ed583612c1a565b81526020830151602082015260408301516040820152612ef760608401612c3d565b606082015260808301516080820152612f1260a08401612c3d565b60a082015260c083015160c082015260e083015182811115612f32575f80fd5b612f3e87828601612c5f565b60e08301525095945050505050565b5f60208284031215612f5d575f80fd5b8151611baf816129f6565b5f60208284031215612f78575f80fd5b815167ffffffffffffffff811115612f8e575f80fd5b612b3384828501612c5f565b634e487b7160e01b5f52601160045260245ffd5b60ff8281168282160390811115611ae457611ae4612f9a565b600181815b8085111561300157815f1904821115612fe757612fe7612f9a565b80851615612ff457918102915b93841c9390800290612fcc565b509250929050565b5f8261301757506001611ae4565b8161302357505f611ae4565b816001811461303957600281146130435761305f565b6001915050611ae4565b60ff84111561305457613054612f9a565b50506001821b611ae4565b5060208310610133831016604e8410600b8410161715613082575081810a611ae4565b61308c8383612fc7565b805f190482111561309f5761309f612f9a565b029392505050565b5f611ae160ff841683613009565b8082028115828204841417611ae457611ae4612f9a565b634e487b7160e01b5f52601260045260245ffd5b5f67ffffffffffffffff808416806130fa576130fa6130cc565b92169190910492915050565b67ffffffffffffffff82811682821603908082111561312757613127612f9a565b5092915050565b81810381811115611ae457611ae4612f9a565b5f611ae18383613009565b5f8261315a5761315a6130cc565b500490565b80820180821115611ae457611ae4612f9a565b5f60208284031215613182575f80fd5b81518015158114611baf575f80fd5b5f602082840312156131a1575f80fd5b8151611baf81612b3b565b5f82518060208501845e5f920191825250919050565b5f602082840312156131d2575f80fd5b611ae182612c1a565b5f80604083850312156131ec575f80fd5b82516131f781612b3b565b6020939093015192949293505050565b5f8060408385031215613218575f80fd5b505080516020909101519092909150565b5f61ffff808a1683526001600160a01b03808a16602085015260e0604085015261325660e085018a612bda565b925087606085015286608085015281861660a085015280851660c0850152505098975050505050505050565b5f60208284031215613292575f80fd5b611ae182612c48565b5f82601f8301126132aa575f80fd5b815160206132ba61299e836129d3565b8083825260208201915060208460051b8701019350868411156132db575f80fd5b602086015b84811015612d4857805183529183019183016132e0565b5f805f60608486031215613309575f80fd5b835167ffffffffffffffff80821115613320575f80fd5b818601915086601f830112613333575f80fd5b8151602061334361299e836129d3565b82815260059290921b8401810191818101908a841115613361575f80fd5b948201945b8386101561338857855161337981612b3b565b82529482019490820190613366565b918901519197509093505050808211156133a0575f80fd5b506133ad8682870161329b565b925050604084015190509250925092565b828152604060208201525f612b336040830184612bda56fea2646970667358221220e8369b8be9c8bd88c57d6be7e409c30a1dbedb2c8f70512099d14c35fb6d053964736f6c63430008190033",
  "linkReferences": {},
  "deployedLinkReferences": {}
}