{
  "_format": "hh-sol-artifact-1",
  "contractName": "WormholeDepositProcessorL1",
  "sourceName": "contracts/staking/WormholeDepositProcessorL1.sol",
  "abi": [
    {
      "inputs": [
        {
          "internalType": "address",
          "name": "_olas",
          "type": "address"
        },
        {
          "internalType": "address",
          "name": "_l1Dispenser",
          "type": "address"
        },
        {
          "internalType": "address",
          "name": "_l1TokenRelayer",
          "type": "address"
        },
        {
          "internalType": "address",
          "name": "_l1MessageRelayer",
          "type": "address"
        },
        {
          "internalType": "uint256",
          "name": "_l2TargetChainId",
          "type": "uint256"
        },
        {
          "internalType": "address",
          "name": "_wormholeCore",
          "type": "address"
        },
        {
          "internalType": "uint256",
          "name": "_wormholeTargetChainId",
          "type": "uint256"
        }
      ],
      "stateMutability": "nonpayable",
      "type": "constructor"
    },
    {
      "inputs": [
        {
          "internalType": "bytes32",
          "name": "deliveryHash",
          "type": "bytes32"
        }
      ],
      "name": "AlreadyDelivered",
      "type": "error"
    },
    {
      "inputs": [
        {
          "internalType": "uint256",
          "name": "expected",
          "type": "uint256"
        },
        {
          "internalType": "uint256",
          "name": "provided",
          "type": "uint256"
        }
      ],
      "name": "IncorrectDataLength",
      "type": "error"
    },
    {
      "inputs": [
        {
          "internalType": "uint256",
          "name": "provided",
          "type": "uint256"
        },
        {
          "internalType": "uint256",
          "name": "expected",
          "type": "uint256"
        }
      ],
      "name": "InsufficientBalance",
      "type": "error"
    },
    {
      "inputs": [
        {
          "internalType": "uint256",
          "name": "provided",
          "type": "uint256"
        },
        {
          "internalType": "uint256",
          "name": "expected",
          "type": "uint256"
        }
      ],
      "name": "LowerThan",
      "type": "error"
    },
    {
      "inputs": [
        {
          "internalType": "address",
          "name": "sender",
          "type": "address"
        },
        {
          "internalType": "address",
          "name": "manager",
          "type": "address"
        }
      ],
      "name": "ManagerOnly",
      "type": "error"
    },
    {
      "inputs": [
        {
          "internalType": "uint256",
          "name": "provided",
          "type": "uint256"
        },
        {
          "internalType": "uint256",
          "name": "max",
          "type": "uint256"
        }
      ],
      "name": "Overflow",
      "type": "error"
    },
    {
      "inputs": [
        {
          "internalType": "address",
          "name": "sender",
          "type": "address"
        },
        {
          "internalType": "address",
          "name": "owner",
          "type": "address"
        }
      ],
      "name": "OwnerOnly",
      "type": "error"
    },
    {
      "inputs": [],
      "name": "Paused",
      "type": "error"
    },
    {
      "inputs": [],
      "name": "ReentrancyGuard",
      "type": "error"
    },
    {
      "inputs": [
        {
          "internalType": "address",
          "name": "target",
          "type": "address"
        },
        {
          "internalType": "uint256",
          "name": "amount",
          "type": "uint256"
        },
        {
          "internalType": "bytes32",
          "name": "batchHash",
          "type": "bytes32"
        }
      ],
      "name": "TargetAmountNotQueued",
      "type": "error"
    },
    {
      "inputs": [
        {
          "internalType": "address",
          "name": "provided",
          "type": "address"
        },
        {
          "internalType": "address",
          "name": "expected",
          "type": "address"
        }
      ],
      "name": "TargetRelayerOnly",
      "type": "error"
    },
    {
      "inputs": [
        {
          "internalType": "address",
          "name": "token",
          "type": "address"
        },
        {
          "internalType": "address",
          "name": "from",
          "type": "address"
        },
        {
          "internalType": "address",
          "name": "to",
          "type": "address"
        },
        {
          "internalType": "uint256",
          "name": "amount",
          "type": "uint256"
        }
      ],
      "name": "TransferFailed",
      "type": "error"
    },
    {
      "inputs": [],
      "name": "Unpaused",
      "type": "error"
    },
    {
      "inputs": [
        {
          "internalType": "address",
          "name": "account",
          "type": "address"
        }
      ],
      "name": "WrongAccount",
      "type": "error"
    },
    {
      "inputs": [
        {
          "internalType": "uint256",
          "name": "provided",
          "type": "uint256"
        },
        {
          "internalType": "uint256",
          "name": "expected",
          "type": "uint256"
        }
      ],
      "name": "WrongAmount",
      "type": "error"
    },
    {
      "inputs": [
        {
          "internalType": "uint256",
          "name": "provided",
          "type": "uint256"
        },
        {
          "internalType": "uint256",
          "name": "expected",
          "type": "uint256"
        }
      ],
      "name": "WrongChainId",
      "type": "error"
    },
    {
      "inputs": [
        {
          "internalType": "address",
          "name": "provided",
          "type": "address"
        },
        {
          "internalType": "address",
          "name": "expected",
          "type": "address"
        }
      ],
      "name": "WrongMessageSender",
      "type": "error"
    },
    {
      "inputs": [
        {
          "internalType": "address",
          "name": "provided",
          "type": "address"
        },
        {
          "internalType": "address",
          "name": "expected",
          "type": "address"
        }
      ],
      "name": "WrongTokenAddress",
      "type": "error"
    },
    {
      "inputs": [],
      "name": "ZeroAddress",
      "type": "error"
    },
    {
      "inputs": [],
      "name": "ZeroValue",
      "type": "error"
    },
    {
      "anonymous": false,
      "inputs": [
        {
          "indexed": true,
          "internalType": "address",
          "name": "l2TargetDispenser",
          "type": "address"
        }
      ],
      "name": "L2TargetDispenserUpdated",
      "type": "event"
    },
    {
      "anonymous": false,
      "inputs": [
        {
          "indexed": true,
          "internalType": "address",
          "name": "sender",
          "type": "address"
        },
        {
          "indexed": false,
          "internalType": "uint256",
          "name": "leftovers",
          "type": "uint256"
        }
      ],
      "name": "LeftoversRefunded",
      "type": "event"
    },
    {
      "anonymous": false,
      "inputs": [
        {
          "indexed": true,
          "internalType": "uint256",
          "name": "sequence",
          "type": "uint256"
        },
        {
          "indexed": false,
          "internalType": "address[]",
          "name": "targets",
          "type": "address[]"
        },
        {
          "indexed": false,
          "internalType": "uint256[]",
          "name": "stakingIncentives",
          "type": "uint256[]"
        },
        {
          "indexed": false,
          "internalType": "uint256",
          "name": "transferAmount",
          "type": "uint256"
        },
        {
          "indexed": true,
          "internalType": "bytes32",
          "name": "batchHash",
          "type": "bytes32"
        }
      ],
      "name": "MessagePosted",
      "type": "event"
    },
    {
      "anonymous": false,
      "inputs": [
        {
          "indexed": true,
          "internalType": "address",
          "name": "l1Relayer",
          "type": "address"
        },
        {
          "indexed": true,
          "internalType": "uint256",
          "name": "chainId",
          "type": "uint256"
        },
        {
          "indexed": false,
          "internalType": "bytes",
          "name": "data",
          "type": "bytes"
        }
      ],
      "name": "MessageReceived",
      "type": "event"
    },
    {
      "inputs": [],
      "name": "BRIDGE_PAYLOAD_LENGTH",
      "outputs": [
        {
          "internalType": "uint256",
          "name": "",
          "type": "uint256"
        }
      ],
      "stateMutability": "view",
      "type": "function"
    },
    {
      "inputs": [],
      "name": "MAX_CHAIN_ID",
      "outputs": [
        {
          "internalType": "uint256",
          "name": "",
          "type": "uint256"
        }
      ],
      "stateMutability": "view",
      "type": "function"
    },
    {
      "inputs": [],
      "name": "MESSAGE_GAS_LIMIT",
      "outputs": [
        {
          "internalType": "uint256",
          "name": "",
          "type": "uint256"
        }
      ],
      "stateMutability": "view",
      "type": "function"
    },
    {
      "inputs": [],
      "name": "RECEIVE_MESSAGE",
      "outputs": [
        {
          "internalType": "bytes4",
          "name": "",
          "type": "bytes4"
        }
      ],
      "stateMutability": "view",
      "type": "function"
    },
    {
      "inputs": [],
      "name": "TOKEN_GAS_LIMIT",
      "outputs": [
        {
          "internalType": "uint256",
          "name": "",
          "type": "uint256"
        }
      ],
      "stateMutability": "view",
      "type": "function"
    },
    {
      "inputs": [],
      "name": "getBridgingDecimals",
      "outputs": [
        {
          "internalType": "uint256",
          "name": "",
          "type": "uint256"
        }
      ],
      "stateMutability": "pure",
      "type": "function"
    },
    {
      "inputs": [],
      "name": "l1Dispenser",
      "outputs": [
        {
          "internalType": "address",
          "name": "",
          "type": "address"
        }
      ],
      "stateMutability": "view",
      "type": "function"
    },
    {
      "inputs": [],
      "name": "l1MessageRelayer",
      "outputs": [
        {
          "internalType": "address",
          "name": "",
          "type": "address"
        }
      ],
      "stateMutability": "view",
      "type": "function"
    },
    {
      "inputs": [],
      "name": "l1TokenRelayer",
      "outputs": [
        {
          "internalType": "address",
          "name": "",
          "type": "address"
        }
      ],
      "stateMutability": "view",
      "type": "function"
    },
    {
      "inputs": [],
      "name": "l2TargetChainId",
      "outputs": [
        {
          "internalType": "uint256",
          "name": "",
          "type": "uint256"
        }
      ],
      "stateMutability": "view",
      "type": "function"
    },
    {
      "inputs": [],
      "name": "l2TargetDispenser",
      "outputs": [
        {
          "internalType": "address",
          "name": "",
          "type": "address"
        }
      ],
      "stateMutability": "view",
      "type": "function"
    },
    {
      "inputs": [
        {
          "internalType": "bytes32",
          "name": "",
          "type": "bytes32"
        }
      ],
      "name": "mapDeliveryHashes",
      "outputs": [
        {
          "internalType": "bool",
          "name": "",
          "type": "bool"
        }
      ],
      "stateMutability": "view",
      "type": "function"
    },
    {
      "inputs": [],
      "name": "olas",
      "outputs": [
        {
          "internalType": "address",
          "name": "",
          "type": "address"
        }
      ],
      "stateMutability": "view",
      "type": "function"
    },
    {
      "inputs": [],
      "name": "owner",
      "outputs": [
        {
          "internalType": "address",
          "name": "",
          "type": "address"
        }
      ],
      "stateMutability": "view",
      "type": "function"
    },
    {
      "inputs": [
        {
          "internalType": "bytes32",
          "name": "",
          "type": "bytes32"
        }
      ],
      "name": "processedHashes",
      "outputs": [
        {
          "internalType": "bool",
          "name": "",
          "type": "bool"
        }
      ],
      "stateMutability": "view",
      "type": "function"
    },
    {
      "inputs": [
        {
          "internalType": "bytes",
          "name": "data",
          "type": "bytes"
        },
        {
          "internalType": "bytes[]",
          "name": "",
          "type": "bytes[]"
        },
        {
          "internalType": "bytes32",
          "name": "sourceAddress",
          "type": "bytes32"
        },
        {
          "internalType": "uint16",
          "name": "sourceChain",
          "type": "uint16"
        },
        {
          "internalType": "bytes32",
          "name": "deliveryHash",
          "type": "bytes32"
        }
      ],
      "name": "receiveWormholeMessages",
      "outputs": [],
      "stateMutability": "nonpayable",
      "type": "function"
    },
    {
      "inputs": [
        {
          "internalType": "address",
          "name": "target",
          "type": "address"
        },
        {
          "internalType": "uint256",
          "name": "stakingIncentive",
          "type": "uint256"
        },
        {
          "internalType": "bytes",
          "name": "bridgePayload",
          "type": "bytes"
        },
        {
          "internalType": "uint256",
          "name": "transferAmount",
          "type": "uint256"
        }
      ],
      "name": "sendMessage",
      "outputs": [],
      "stateMutability": "payable",
      "type": "function"
    },
    {
      "inputs": [
        {
          "internalType": "address[]",
          "name": "targets",
          "type": "address[]"
        },
        {
          "internalType": "uint256[]",
          "name": "stakingIncentives",
          "type": "uint256[]"
        },
        {
          "internalType": "bytes",
          "name": "bridgePayload",
          "type": "bytes"
        },
        {
          "internalType": "uint256",
          "name": "transferAmount",
          "type": "uint256"
        }
      ],
      "name": "sendMessageBatch",
      "outputs": [],
      "stateMutability": "payable",
      "type": "function"
    },
    {
      "inputs": [
        {
          "internalType": "address",
          "name": "l2Dispenser",
          "type": "address"
        }
      ],
      "name": "setL2TargetDispenser",
      "outputs": [],
      "stateMutability": "nonpayable",
      "type": "function"
    },
    {
      "inputs": [
        {
          "internalType": "uint16",
          "name": "sourceChain",
          "type": "uint16"
        },
        {
          "internalType": "bytes32",
          "name": "sourceAddress",
          "type": "bytes32"
        }
      ],
      "name": "setRegisteredSender",
      "outputs": [],
      "stateMutability": "nonpayable",
      "type": "function"
    },
    {
      "inputs": [],
      "name": "stakingBatchNonce",
      "outputs": [
        {
          "internalType": "uint256",
          "name": "",
          "type": "uint256"
        }
      ],
      "stateMutability": "view",
      "type": "function"
    },
    {
      "inputs": [],
      "name": "tokenBridge",
      "outputs": [
        {
          "internalType": "contract ITokenBridge",
          "name": "",
          "type": "address"
        }
      ],
      "stateMutability": "view",
      "type": "function"
    },
    {
      "inputs": [
        {
          "internalType": "bytes32",
          "name": "batchHash",
          "type": "bytes32"
        }
      ],
      "name": "updateHashMaintenance",
      "outputs": [],
      "stateMutability": "nonpayable",
      "type": "function"
    },
    {
      "inputs": [],
      "name": "wormhole",
      "outputs": [
        {
          "internalType": "contract IWormhole",
          "name": "",
          "type": "address"
        }
      ],
      "stateMutability": "view",
      "type": "function"
    },
    {
      "inputs": [],
      "name": "wormholeRelayer",
      "outputs": [
        {
          "internalType": "contract IWormholeRelayer",
          "name": "",
          "type": "address"
        }
      ],
      "stateMutability": "view",
      "type": "function"
    },
    {
      "inputs": [],
      "name": "wormholeTargetChainId",
      "outputs": [
        {
          "internalType": "uint256",
          "name": "",
          "type": "uint256"
        }
      ],
      "stateMutability": "view",
      "type": "function"
    }
  ],
  "bytecode": "0x6101a0604052348015610010575f80fd5b5060405161226538038061226583398101604081905261002f91610219565b83858382818b8b85848b6001600160a01b038416158061005657506001600160a01b038316155b8061006857506001600160a01b038216155b156100865760405163d92e233d60e01b815260040160405180910390fd5b805f036100a657604051637c946ed760e01b815260040160405180910390fd5b60246100ba60026001600160401b0361028c565b6100c491906102bd565b6001600160401b0316811115610123578060246100e960026001600160401b0361028c565b6100f391906102bd565b604051637ae5968560e01b815260048101929092526001600160401b031660248201526044015b60405180910390fd5b6001600160a01b0394851660805292841660a05290831660c052821660e0526101005260018054336001600160a01b031991821681179092559382166101205291811661014052600480549093169091179091559182166101605250831690506101a05760405163d92e233d60e01b815260040160405180910390fd5b805f036101c057604051637c946ed760e01b815260040160405180910390fd5b61ffff8111156101ee57604051637ae5968560e01b81526004810182905261ffff602482015260440161011a565b61018052506102f0945050505050565b80516001600160a01b0381168114610214575f80fd5b919050565b5f805f805f805f60e0888a03121561022f575f80fd5b610238886101fe565b9650610246602089016101fe565b9550610254604089016101fe565b9450610262606089016101fe565b93506080880151925061027760a089016101fe565b915060c0880151905092959891949750929550565b5f6001600160401b03838116806102b157634e487b7160e01b5f52601260045260245ffd5b92169190910492915050565b6001600160401b038281168282160390808211156102e957634e487b7160e01b5f52601160045260245ffd5b5092915050565b60805160a05160c05160e0516101005161012051610140516101605161018051611e616104045f395f818161029c015281816105f601528181610651015281816106e50152818161109e015261119801525f818161050401528181611455015281816114d2015261169001525f81816104270152818161150101526115ff01525f8181610537015281816112b4015261132101525f81816104d101528181610d5b0152610e4701525f818161023b01528181610c5e01528181610ccb01526110d801525f6103f401525f81816105a701528181610756015281816107920152818161081c0152818161085801528181610a4d01528181610a890152610e8301525f81816101ad01526111c70152611e615ff3fe608060405260043610610198575f3560e01c80638da5cb5b116100dc578063c6328a4611610087578063e309fb7711610062578063e309fb7714610578578063f2541c3514610596578063f4427c2c146105c9578063f9fc3c21146105de575f80fd5b8063c6328a46146104f3578063da25b72514610526578063dd12d68b14610559575f80fd5b8063b2267a7b116100b7578063b2267a7b1461049a578063bde52661146104ad578063c23cc3ff146104c0575f80fd5b80638da5cb5b14610449578063a8b2ae0214610468578063ac65ded21461047b575f80fd5b80634ece6b171161014757806354e4bbf41161012257806354e4bbf4146103b05780635bc105c0146103cf5780636143fe93146103e357806384acd1bb14610416575f80fd5b80634ece6b17146102e2578063529dca32146102f657806354d20cc214610317575f80fd5b8063446a969511610177578063446a96951461025d578063468b9dab1461028b5780634c1c6cbf146102cc575f80fd5b806231d1151461019c57806307d9c534146101ec5780633d1f86791461022a575b5f80fd5b3480156101a7575f80fd5b506101cf7f000000000000000000000000000000000000000000000000000000000000000081565b6040516001600160a01b0390911681526020015b60405180910390f35b3480156101f7575f80fd5b5061021a6102063660046116cf565b60036020525f908152604090205460ff1681565b60405190151581526020016101e3565b348015610235575f80fd5b506101cf7f000000000000000000000000000000000000000000000000000000000000000081565b348015610268575f80fd5b5061021a6102773660046116cf565b60066020525f908152604090205460ff1681565b348015610296575f80fd5b506102be7f000000000000000000000000000000000000000000000000000000000000000081565b6040519081526020016101e3565b3480156102d7575f80fd5b506102be620493e081565b3480156102ed575f80fd5b506102be604081565b348015610301575f80fd5b506103156103103660046117d9565b6105f4565b005b348015610322575f80fd5b5060408051808201909152601581527f726563656976654d65737361676528627974657329000000000000000000000060209091015261037f7ff953cec75ae677942d7cda5cb6d12c0cb96a0904bf37d36301eef297b83c411d81565b6040517fffffffff0000000000000000000000000000000000000000000000000000000090911681526020016101e3565b3480156103bb575f80fd5b506103156103ca3660046118de565b6106e0565b3480156103da575f80fd5b506102be61071f565b3480156103ee575f80fd5b506101cf7f000000000000000000000000000000000000000000000000000000000000000081565b348015610421575f80fd5b506101cf7f000000000000000000000000000000000000000000000000000000000000000081565b348015610454575f80fd5b506001546101cf906001600160a01b031681565b348015610473575f80fd5b5060086102be565b348015610486575f80fd5b506103156104953660046116cf565b61074b565b6103156104a8366004611900565b610811565b6103156104bb3660046119c4565b610a42565b3480156104cb575f80fd5b506102be7f000000000000000000000000000000000000000000000000000000000000000081565b3480156104fe575f80fd5b506101cf7f000000000000000000000000000000000000000000000000000000000000000081565b348015610531575f80fd5b506101cf7f000000000000000000000000000000000000000000000000000000000000000081565b348015610564575f80fd5b50610315610573366004611a99565b610bad565b348015610583575f80fd5b505f546101cf906001600160a01b031681565b3480156105a1575f80fd5b506101cf7f000000000000000000000000000000000000000000000000000000000000000081565b3480156105d4575f80fd5b506102be60025481565b3480156105e9575f80fd5b506102be621e848081565b7f00000000000000000000000000000000000000000000000000000000000000008261ffff1614610682576040517f857c0bad00000000000000000000000000000000000000000000000000000000815261ffff831660048201527f000000000000000000000000000000000000000000000000000000000000000060248201526044015b60405180910390fd5b5f8181526006602052604090205460ff16156106b4576040516356bc34a160e01b815260048101829052602401610679565b5f818152600660205260409020805460ff19166001179055826106d8338288610c5c565b505050505050565b6107137f00000000000000000000000000000000000000000000000000000000000000006001600160a01b038316610bad565b61071c81610ee1565b50565b6024610734600267ffffffffffffffff611ad7565b61073e9190611b09565b67ffffffffffffffff1681565b336001600160a01b037f000000000000000000000000000000000000000000000000000000000000000016146107c55760405163312d21ff60e11b81526001600160a01b037f0000000000000000000000000000000000000000000000000000000000000000166004820152336024820152604401610679565b5f8181526003602052604090205460ff16156107f7576040516356bc34a160e01b815260048101829052602401610679565b5f908152600360205260409020805460ff19166001179055565b336001600160a01b037f0000000000000000000000000000000000000000000000000000000000000000161461088b5760405163312d21ff60e11b81526001600160a01b037f0000000000000000000000000000000000000000000000000000000000000000166004820152336024820152604401610679565b6040805160018082528183019092525f916020808301908036833701905050905084815f815181106108bf576108bf611b31565b6001600160a01b0392909216602092830291909101909101526040805160018082528183019092525f9181602001602082028036833701905050905084815f8151811061090e5761090e611b31565b602090810291909101810191909152600254604080519283018290524690830152306060830152905f906080016040516020818303038152906040528051906020012090505f8061096286868a8a87610fcb565b909250905080156109e857604051329082905f81818185875af1925050503d805f81146109aa576040519150601f19603f3d011682016040523d82523d5f602084013e6109af565b606091505b50506040518281523291507f8e49ed3e274fbea1556bdfaa9a37a0c28445bfe26d57beaf9f04fd517aa417419060200160405180910390a25b6109f3846001611b45565b60028190555082827f621aece9999edf4d664a3855f668f6fc380937a42044234fd883b42d0485118788888b604051610a2e93929190611bd0565b60405180910390a350505050505050505050565b336001600160a01b037f00000000000000000000000000000000000000000000000000000000000000001614610abc5760405163312d21ff60e11b81526001600160a01b037f0000000000000000000000000000000000000000000000000000000000000000166004820152336024820152604401610679565b600254604080516020810183905246918101919091523060608201525f906080016040516020818303038152906040528051906020012090505f80610b048888888887610fcb565b90925090508015610b5557604051329082905f81818185875af1925050503d805f8114610b4c576040519150601f19603f3d011682016040523d82523d5f602084013e610b51565b606091505b5050505b610b60846001611b45565b60028190555082827f621aece9999edf4d664a3855f668f6fc380937a42044234fd883b42d048511878a8a89604051610b9b93929190611bd0565b60405180910390a35050505050505050565b6004546001600160a01b03163314610c46576040517f08c379a0000000000000000000000000000000000000000000000000000000008152602060048201526024808201527f4e6f7420616c6c6f77656420746f20736574207265676973746572656420736560448201527f6e646572000000000000000000000000000000000000000000000000000000006064820152608401610679565b61ffff9091165f90815260056020526040902055565b7f00000000000000000000000000000000000000000000000000000000000000006001600160a01b0316836001600160a01b031614610cf8576040517f2f3111fa0000000000000000000000000000000000000000000000000000000081523360048201526001600160a01b037f0000000000000000000000000000000000000000000000000000000000000000166024820152604401610679565b5f546001600160a01b03838116911614610d54575f546040517f0d16cbdd0000000000000000000000000000000000000000000000000000000081526001600160a01b0380851660048301529091166024820152604401610679565b5f546040517f0000000000000000000000000000000000000000000000000000000000000000916001600160a01b0316907f98bbde530ec85b002f6fb0864beccaaf3ac3d2a4ac35cb3b03cf7c61ee415e3390610db2908590611c33565b60405180910390a35f8082806020019051810190610dd09190611c45565b5f81815260036020526040902054919350915060ff1615610e07576040516356bc34a160e01b815260048101829052602401610679565b5f8181526003602052604090819020805460ff19166001179055517f79bc81dd0000000000000000000000000000000000000000000000000000000081527f0000000000000000000000000000000000000000000000000000000000000000600482015260248101839052604481018290526001600160a01b037f000000000000000000000000000000000000000000000000000000000000000016906379bc81dd906064015f604051808303815f87803b158015610ec4575f80fd5b505af1158015610ed6573d5f803e3d5ffd5b505050505050505050565b6001546001600160a01b03163314610f3a576001546040517fa43d6ada0000000000000000000000000000000000000000000000000000000081526001600160a01b039091166004820152336024820152604401610679565b6001600160a01b038116610f615760405163d92e233d60e01b815260040160405180910390fd5b5f80546001600160a01b0383167fffffffffffffffffffffffff0000000000000000000000000000000000000000918216811783556001805490921690915560405190917f991aa5c8f67a92f8feb202de828958c681966ae343fcf6db040f5f8099d547cf91a250565b5f806040855114611015578451604080517f34c9027a0000000000000000000000000000000000000000000000000000000081526106799290600401918252602082015260400190565b5f808680602001905181019061102b9190611c67565b90925090506001600160a01b0382166110575760405163d92e233d60e01b815260040160405180910390fd5b621e84808110156110685750621e84805b5f89898760405160200161107e93929190611bd0565b60408051808303601f190181529082905263c23ee3c360e01b825261ffff7f00000000000000000000000000000000000000000000000000000000000000001660048301525f6024830181905260448301859052909250907f00000000000000000000000000000000000000000000000000000000000000006001600160a01b03169063c23ee3c39060640160408051808303815f875af1158015611125573d5f803e3d5ffd5b505050506040513d601f19601f820116820180604052508101906111499190611c45565b5090503481111561118f576040517f491a2bb100000000000000000000000000000000000000000000000000000000815234600482015260248101829052604401610679565b5f80546111ee917f0000000000000000000000000000000000000000000000000000000000000000916001600160a01b0316908590877f00000000000000000000000000000000000000000000000000000000000000008e868c611214565b67ffffffffffffffff1695506112048134611c93565b9450505050509550959350505050565b6040805160018082528183019092525f91829190816020015b604080516060810182525f80825260208083018290529282015282525f1990920191018161122d57905050905061126686868d8d6113cd565b815f8151811061127857611278611b31565b602090810291909101015260405163c23ee3c360e01b815261ffff8c16600482015260248101899052604481018890525f906001600160a01b037f0000000000000000000000000000000000000000000000000000000000000000169063c23ee3c3906064016040805180830381865afa1580156112f8573d5f803e3d5ffd5b505050506040513d601f19601f8201168201806040525081019061131c9190611c45565b5090507f00000000000000000000000000000000000000000000000000000000000000006001600160a01b03166332b2fc0e828e8e8e8e8e898d8d6040518a63ffffffff1660e01b815260040161137a989796959493929190611ca6565b60206040518083038185885af1158015611396573d5f803e3d5ffd5b50505050506040513d601f19601f820116820180604052508101906113bb9190611d64565b925050505b9998505050505050505050565b604080516060810182525f80825260208201819052918101919091526114048585858560405180602001604052805f81525061140d565b95945050505050565b604080516060810182525f808252602082018190528183015290517f095ea7b30000000000000000000000000000000000000000000000000000000081526001600160a01b037f0000000000000000000000000000000000000000000000000000000000000000811660048301526024820187905287169063095ea7b3906044016020604051808303815f875af11580156114aa573d5f803e3d5ffd5b505050506040513d601f19601f820116820180604052508101906114ce9190611d8b565b505f7f00000000000000000000000000000000000000000000000000000000000000006001600160a01b031663c5a5ebda7f00000000000000000000000000000000000000000000000000000000000000006001600160a01b0316631a90a2196040518163ffffffff1660e01b8152600401602060405180830381865afa15801561155b573d5f803e3d5ffd5b505050506040513d601f19601f8201168201806040525081019061157f9190611daa565b8989896001600160a01b038a165f8a6040518863ffffffff1660e01b81526004016115af96959493929190611dc1565b60206040518083038185885af11580156115cb573d5f803e3d5ffd5b50505050506040513d601f19601f820116820180604052508101906115f09190611d64565b905060405180606001604052807f00000000000000000000000000000000000000000000000000000000000000006001600160a01b0316639a8a05926040518163ffffffff1660e01b8152600401602060405180830381865afa158015611659573d5f803e3d5ffd5b505050506040513d601f19601f8201168201806040525081019061167d9190611e10565b61ffff1681526020016001600160a01b037f00000000000000000000000000000000000000000000000000000000000000001681526020018267ffffffffffffffff1681525091505095945050505050565b5f602082840312156116df575f80fd5b5035919050565b634e487b7160e01b5f52604160045260245ffd5b604051601f8201601f1916810167ffffffffffffffff81118282101715611723576117236116e6565b604052919050565b5f82601f83011261173a575f80fd5b813567ffffffffffffffff811115611754576117546116e6565b611767601f8201601f19166020016116fa565b81815284602083860101111561177b575f80fd5b816020850160208301375f918101602001919091529392505050565b5f67ffffffffffffffff8211156117b0576117b06116e6565b5060051b60200190565b61ffff8116811461071c575f80fd5b80356117d4816117ba565b919050565b5f805f805f60a086880312156117ed575f80fd5b853567ffffffffffffffff80821115611804575f80fd5b61181089838a0161172b565b9650602091508188013581811115611826575f80fd5b8801601f81018a13611836575f80fd5b803561184961184482611797565b6116fa565b81815260059190911b8201840190848101908c831115611867575f80fd5b8584015b8381101561189d57803586811115611881575f80fd5b61188f8f898389010161172b565b84525091860191860161186b565b509850505050604088013594506118b9915050606087016117c9565b949793965091946080013592915050565b6001600160a01b038116811461071c575f80fd5b5f602082840312156118ee575f80fd5b81356118f9816118ca565b9392505050565b5f805f8060808587031215611913575f80fd5b843561191e816118ca565b935060208501359250604085013567ffffffffffffffff811115611940575f80fd5b61194c8782880161172b565b949793965093946060013593505050565b5f82601f83011261196c575f80fd5b8135602061197c61184483611797565b8083825260208201915060208460051b87010193508684111561199d575f80fd5b602086015b848110156119b957803583529183019183016119a2565b509695505050505050565b5f805f80608085870312156119d7575f80fd5b843567ffffffffffffffff808211156119ee575f80fd5b818701915087601f830112611a01575f80fd5b81356020611a1161184483611797565b82815260059290921b8401810191818101908b841115611a2f575f80fd5b948201945b83861015611a56578535611a47816118ca565b82529482019490820190611a34565b98505088013592505080821115611a6b575f80fd5b611a778883890161195d565b94506040870135915080821115611a8c575f80fd5b5061194c8782880161172b565b5f8060408385031215611aaa575f80fd5b8235611ab5816117ba565b946020939093013593505050565b634e487b7160e01b5f52601160045260245ffd5b5f67ffffffffffffffff80841680611afd57634e487b7160e01b5f52601260045260245ffd5b92169190910492915050565b67ffffffffffffffff828116828216039080821115611b2a57611b2a611ac3565b5092915050565b634e487b7160e01b5f52603260045260245ffd5b80820180821115611b5857611b58611ac3565b92915050565b5f815180845260208085019450602084015f5b83811015611b965781516001600160a01b031687529582019590820190600101611b71565b509495945050505050565b5f815180845260208085019450602084015f5b83811015611b9657815187529582019590820190600101611bb4565b606081525f611be26060830186611b5e565b8281036020840152611bf48186611ba1565b915050826040830152949350505050565b5f81518084528060208401602086015e5f602082860101526020601f19601f83011685010191505092915050565b602081525f6118f96020830184611c05565b5f8060408385031215611c56575f80fd5b505080516020909101519092909150565b5f8060408385031215611c78575f80fd5b8251611c83816118ca565b6020939093015192949293505050565b81810381811115611b5857611b58611ac3565b5f61010061ffff808c16845260206001600160a01b038c16818601526040836040870152611cd68487018d611c05565b60608781018d9052608088018c905287820360a08901528a51808352848c01965090918401905f5b81811015611d37578751805188168452868101518785015285015167ffffffffffffffff16858401529685019691830191600101611cfe565b505061ffff8a1660c08901529550611d50945050505050565b6001600160a01b03831660e08301526113c0565b5f60208284031215611d74575f80fd5b815167ffffffffffffffff811681146118f9575f80fd5b5f60208284031215611d9b575f80fd5b815180151581146118f9575f80fd5b5f60208284031215611dba575f80fd5b5051919050565b6001600160a01b038716815285602082015261ffff8516604082015283606082015263ffffffff8316608082015260c060a08201525f611e0460c0830184611c05565b98975050505050505050565b5f60208284031215611e20575f80fd5b81516118f9816117ba56fea2646970667358221220d194ec593b444ca46af4e41459ef68ba8087995e3c3e5172cab7001c1fbb3b8f64736f6c63430008190033",
  "linkReferences": {},
  "deployedLinkReferences": {}
}