{
  "_format": "hh-sol-artifact-1",
  "contractName": "WormholeDepositProcessorL1",
  "sourceName": "contracts/staking/WormholeDepositProcessorL1.sol",
  "abi": [
    {
      "inputs": [
        {
          "internalType": "address",
          "name": "_olas",
          "type": "address"
        },
        {
          "internalType": "address",
          "name": "_l1Dispenser",
          "type": "address"
        },
        {
          "internalType": "address",
          "name": "_l1TokenRelayer",
          "type": "address"
        },
        {
          "internalType": "address",
          "name": "_l1MessageRelayer",
          "type": "address"
        },
        {
          "internalType": "uint256",
          "name": "_l2TargetChainId",
          "type": "uint256"
        },
        {
          "internalType": "address",
          "name": "_wormholeCore",
          "type": "address"
        },
        {
          "internalType": "uint256",
          "name": "_wormholeTargetChainId",
          "type": "uint256"
        }
      ],
      "stateMutability": "nonpayable",
      "type": "constructor"
    },
    {
      "inputs": [
        {
          "internalType": "bytes32",
          "name": "deliveryHash",
          "type": "bytes32"
        }
      ],
      "name": "AlreadyDelivered",
      "type": "error"
    },
    {
      "inputs": [
        {
          "internalType": "uint256",
          "name": "expected",
          "type": "uint256"
        },
        {
          "internalType": "uint256",
          "name": "provided",
          "type": "uint256"
        }
      ],
      "name": "IncorrectDataLength",
      "type": "error"
    },
    {
      "inputs": [
        {
          "internalType": "uint256",
          "name": "provided",
          "type": "uint256"
        },
        {
          "internalType": "uint256",
          "name": "expected",
          "type": "uint256"
        }
      ],
      "name": "InsufficientBalance",
      "type": "error"
    },
    {
      "inputs": [
        {
          "internalType": "uint256",
          "name": "provided",
          "type": "uint256"
        },
        {
          "internalType": "uint256",
          "name": "expected",
          "type": "uint256"
        }
      ],
      "name": "LowerThan",
      "type": "error"
    },
    {
      "inputs": [
        {
          "internalType": "address",
          "name": "sender",
          "type": "address"
        },
        {
          "internalType": "address",
          "name": "manager",
          "type": "address"
        }
      ],
      "name": "ManagerOnly",
      "type": "error"
    },
    {
      "inputs": [
        {
          "internalType": "uint256",
          "name": "provided",
          "type": "uint256"
        },
        {
          "internalType": "uint256",
          "name": "max",
          "type": "uint256"
        }
      ],
      "name": "Overflow",
      "type": "error"
    },
    {
      "inputs": [
        {
          "internalType": "address",
          "name": "sender",
          "type": "address"
        },
        {
          "internalType": "address",
          "name": "owner",
          "type": "address"
        }
      ],
      "name": "OwnerOnly",
      "type": "error"
    },
    {
      "inputs": [],
      "name": "Paused",
      "type": "error"
    },
    {
      "inputs": [],
      "name": "ReentrancyGuard",
      "type": "error"
    },
    {
      "inputs": [
        {
          "internalType": "address",
          "name": "target",
          "type": "address"
        },
        {
          "internalType": "uint256",
          "name": "amount",
          "type": "uint256"
        },
        {
          "internalType": "uint256",
          "name": "batchNonce",
          "type": "uint256"
        }
      ],
      "name": "TargetAmountNotQueued",
      "type": "error"
    },
    {
      "inputs": [
        {
          "internalType": "address",
          "name": "provided",
          "type": "address"
        },
        {
          "internalType": "address",
          "name": "expected",
          "type": "address"
        }
      ],
      "name": "TargetRelayerOnly",
      "type": "error"
    },
    {
      "inputs": [
        {
          "internalType": "address",
          "name": "token",
          "type": "address"
        },
        {
          "internalType": "address",
          "name": "from",
          "type": "address"
        },
        {
          "internalType": "address",
          "name": "to",
          "type": "address"
        },
        {
          "internalType": "uint256",
          "name": "amount",
          "type": "uint256"
        }
      ],
      "name": "TransferFailed",
      "type": "error"
    },
    {
      "inputs": [],
      "name": "Unpaused",
      "type": "error"
    },
    {
      "inputs": [
        {
          "internalType": "address",
          "name": "account",
          "type": "address"
        }
      ],
      "name": "WrongAccount",
      "type": "error"
    },
    {
      "inputs": [
        {
          "internalType": "uint256",
          "name": "provided",
          "type": "uint256"
        },
        {
          "internalType": "uint256",
          "name": "expected",
          "type": "uint256"
        }
      ],
      "name": "WrongAmount",
      "type": "error"
    },
    {
      "inputs": [
        {
          "internalType": "uint256",
          "name": "provided",
          "type": "uint256"
        },
        {
          "internalType": "uint256",
          "name": "expected",
          "type": "uint256"
        }
      ],
      "name": "WrongChainId",
      "type": "error"
    },
    {
      "inputs": [
        {
          "internalType": "address",
          "name": "provided",
          "type": "address"
        },
        {
          "internalType": "address",
          "name": "expected",
          "type": "address"
        }
      ],
      "name": "WrongMessageSender",
      "type": "error"
    },
    {
      "inputs": [
        {
          "internalType": "address",
          "name": "provided",
          "type": "address"
        },
        {
          "internalType": "address",
          "name": "expected",
          "type": "address"
        }
      ],
      "name": "WrongTokenAddress",
      "type": "error"
    },
    {
      "inputs": [],
      "name": "ZeroAddress",
      "type": "error"
    },
    {
      "inputs": [],
      "name": "ZeroValue",
      "type": "error"
    },
    {
      "anonymous": false,
      "inputs": [
        {
          "indexed": true,
          "internalType": "address",
          "name": "l2TargetDispenser",
          "type": "address"
        }
      ],
      "name": "L2TargetDispenserUpdated",
      "type": "event"
    },
    {
      "anonymous": false,
      "inputs": [
        {
          "indexed": true,
          "internalType": "uint256",
          "name": "sequence",
          "type": "uint256"
        },
        {
          "indexed": false,
          "internalType": "address[]",
          "name": "targets",
          "type": "address[]"
        },
        {
          "indexed": false,
          "internalType": "uint256[]",
          "name": "stakingIncentives",
          "type": "uint256[]"
        },
        {
          "indexed": false,
          "internalType": "uint256",
          "name": "transferAmount",
          "type": "uint256"
        }
      ],
      "name": "MessagePosted",
      "type": "event"
    },
    {
      "anonymous": false,
      "inputs": [
        {
          "indexed": true,
          "internalType": "address",
          "name": "l1Relayer",
          "type": "address"
        },
        {
          "indexed": true,
          "internalType": "uint256",
          "name": "chainId",
          "type": "uint256"
        },
        {
          "indexed": false,
          "internalType": "bytes",
          "name": "data",
          "type": "bytes"
        }
      ],
      "name": "MessageReceived",
      "type": "event"
    },
    {
      "inputs": [],
      "name": "BRIDGE_PAYLOAD_LENGTH",
      "outputs": [
        {
          "internalType": "uint256",
          "name": "",
          "type": "uint256"
        }
      ],
      "stateMutability": "view",
      "type": "function"
    },
    {
      "inputs": [],
      "name": "MAX_CHAIN_ID",
      "outputs": [
        {
          "internalType": "uint256",
          "name": "",
          "type": "uint256"
        }
      ],
      "stateMutability": "view",
      "type": "function"
    },
    {
      "inputs": [],
      "name": "MESSAGE_GAS_LIMIT",
      "outputs": [
        {
          "internalType": "uint256",
          "name": "",
          "type": "uint256"
        }
      ],
      "stateMutability": "view",
      "type": "function"
    },
    {
      "inputs": [],
      "name": "RECEIVE_MESSAGE",
      "outputs": [
        {
          "internalType": "bytes4",
          "name": "",
          "type": "bytes4"
        }
      ],
      "stateMutability": "view",
      "type": "function"
    },
    {
      "inputs": [],
      "name": "TOKEN_GAS_LIMIT",
      "outputs": [
        {
          "internalType": "uint256",
          "name": "",
          "type": "uint256"
        }
      ],
      "stateMutability": "view",
      "type": "function"
    },
    {
      "inputs": [],
      "name": "getBridgingDecimals",
      "outputs": [
        {
          "internalType": "uint256",
          "name": "",
          "type": "uint256"
        }
      ],
      "stateMutability": "pure",
      "type": "function"
    },
    {
      "inputs": [],
      "name": "l1Dispenser",
      "outputs": [
        {
          "internalType": "address",
          "name": "",
          "type": "address"
        }
      ],
      "stateMutability": "view",
      "type": "function"
    },
    {
      "inputs": [],
      "name": "l1MessageRelayer",
      "outputs": [
        {
          "internalType": "address",
          "name": "",
          "type": "address"
        }
      ],
      "stateMutability": "view",
      "type": "function"
    },
    {
      "inputs": [],
      "name": "l1TokenRelayer",
      "outputs": [
        {
          "internalType": "address",
          "name": "",
          "type": "address"
        }
      ],
      "stateMutability": "view",
      "type": "function"
    },
    {
      "inputs": [],
      "name": "l2TargetChainId",
      "outputs": [
        {
          "internalType": "uint256",
          "name": "",
          "type": "uint256"
        }
      ],
      "stateMutability": "view",
      "type": "function"
    },
    {
      "inputs": [],
      "name": "l2TargetDispenser",
      "outputs": [
        {
          "internalType": "address",
          "name": "",
          "type": "address"
        }
      ],
      "stateMutability": "view",
      "type": "function"
    },
    {
      "inputs": [
        {
          "internalType": "bytes32",
          "name": "",
          "type": "bytes32"
        }
      ],
      "name": "mapDeliveryHashes",
      "outputs": [
        {
          "internalType": "bool",
          "name": "",
          "type": "bool"
        }
      ],
      "stateMutability": "view",
      "type": "function"
    },
    {
      "inputs": [],
      "name": "olas",
      "outputs": [
        {
          "internalType": "address",
          "name": "",
          "type": "address"
        }
      ],
      "stateMutability": "view",
      "type": "function"
    },
    {
      "inputs": [],
      "name": "owner",
      "outputs": [
        {
          "internalType": "address",
          "name": "",
          "type": "address"
        }
      ],
      "stateMutability": "view",
      "type": "function"
    },
    {
      "inputs": [
        {
          "internalType": "bytes",
          "name": "data",
          "type": "bytes"
        },
        {
          "internalType": "bytes[]",
          "name": "",
          "type": "bytes[]"
        },
        {
          "internalType": "bytes32",
          "name": "sourceAddress",
          "type": "bytes32"
        },
        {
          "internalType": "uint16",
          "name": "sourceChain",
          "type": "uint16"
        },
        {
          "internalType": "bytes32",
          "name": "deliveryHash",
          "type": "bytes32"
        }
      ],
      "name": "receiveWormholeMessages",
      "outputs": [],
      "stateMutability": "nonpayable",
      "type": "function"
    },
    {
      "inputs": [
        {
          "internalType": "address",
          "name": "target",
          "type": "address"
        },
        {
          "internalType": "uint256",
          "name": "stakingIncentive",
          "type": "uint256"
        },
        {
          "internalType": "bytes",
          "name": "bridgePayload",
          "type": "bytes"
        },
        {
          "internalType": "uint256",
          "name": "transferAmount",
          "type": "uint256"
        }
      ],
      "name": "sendMessage",
      "outputs": [],
      "stateMutability": "payable",
      "type": "function"
    },
    {
      "inputs": [
        {
          "internalType": "address[]",
          "name": "targets",
          "type": "address[]"
        },
        {
          "internalType": "uint256[]",
          "name": "stakingIncentives",
          "type": "uint256[]"
        },
        {
          "internalType": "bytes",
          "name": "bridgePayload",
          "type": "bytes"
        },
        {
          "internalType": "uint256",
          "name": "transferAmount",
          "type": "uint256"
        }
      ],
      "name": "sendMessageBatch",
      "outputs": [],
      "stateMutability": "payable",
      "type": "function"
    },
    {
      "inputs": [
        {
          "internalType": "address",
          "name": "l2Dispenser",
          "type": "address"
        }
      ],
      "name": "setL2TargetDispenser",
      "outputs": [],
      "stateMutability": "nonpayable",
      "type": "function"
    },
    {
      "inputs": [
        {
          "internalType": "uint16",
          "name": "sourceChain",
          "type": "uint16"
        },
        {
          "internalType": "bytes32",
          "name": "sourceAddress",
          "type": "bytes32"
        }
      ],
      "name": "setRegisteredSender",
      "outputs": [],
      "stateMutability": "nonpayable",
      "type": "function"
    },
    {
      "inputs": [],
      "name": "stakingBatchNonce",
      "outputs": [
        {
          "internalType": "uint256",
          "name": "",
          "type": "uint256"
        }
      ],
      "stateMutability": "view",
      "type": "function"
    },
    {
      "inputs": [],
      "name": "tokenBridge",
      "outputs": [
        {
          "internalType": "contract ITokenBridge",
          "name": "",
          "type": "address"
        }
      ],
      "stateMutability": "view",
      "type": "function"
    },
    {
      "inputs": [],
      "name": "wormhole",
      "outputs": [
        {
          "internalType": "contract IWormhole",
          "name": "",
          "type": "address"
        }
      ],
      "stateMutability": "view",
      "type": "function"
    },
    {
      "inputs": [],
      "name": "wormholeRelayer",
      "outputs": [
        {
          "internalType": "contract IWormholeRelayer",
          "name": "",
          "type": "address"
        }
      ],
      "stateMutability": "view",
      "type": "function"
    },
    {
      "inputs": [],
      "name": "wormholeTargetChainId",
      "outputs": [
        {
          "internalType": "uint256",
          "name": "",
          "type": "uint256"
        }
      ],
      "stateMutability": "view",
      "type": "function"
    }
  ],
  "bytecode": "0x6101a0604052348015610010575f80fd5b5060405161204038038061204083398101604081905261002f91610219565b83858382818b8b85848b6001600160a01b038416158061005657506001600160a01b038316155b8061006857506001600160a01b038216155b156100865760405163d92e233d60e01b815260040160405180910390fd5b805f036100a657604051637c946ed760e01b815260040160405180910390fd5b60246100ba60026001600160401b0361028c565b6100c491906102bd565b6001600160401b0316811115610123578060246100e960026001600160401b0361028c565b6100f391906102bd565b604051637ae5968560e01b815260048101929092526001600160401b031660248201526044015b60405180910390fd5b6001600160a01b0394851660805292841660a05290831660c052821660e0526101005260018054336001600160a01b031991821681179092559382166101205291811661014052600380549093169091179091559182166101605250831690506101a05760405163d92e233d60e01b815260040160405180910390fd5b805f036101c057604051637c946ed760e01b815260040160405180910390fd5b61ffff8111156101ee57604051637ae5968560e01b81526004810182905261ffff602482015260440161011a565b61018052506102f0945050505050565b80516001600160a01b0381168114610214575f80fd5b919050565b5f805f805f805f60e0888a03121561022f575f80fd5b610238886101fe565b9650610246602089016101fe565b9550610254604089016101fe565b9450610262606089016101fe565b93506080880151925061027760a089016101fe565b915060c0880151905092959891949750929550565b5f6001600160401b03838116806102b157634e487b7160e01b5f52601260045260245ffd5b92169190910492915050565b6001600160401b038281168282160390808211156102e957634e487b7160e01b5f52601160045260245ffd5b5092915050565b60805160a05160c05160e0516101005161012051610140516101605161018051611c516103ef5f395f818161025801528181610593015281816105ee015281816106b90152610ea501525f81816104a1015281816111b20152818161122f01526113ed01525f81816103e30152818161125e015261135c01525f81816104d401528181611011015261107e01525f818161046e01528181610b5001528181610bec0152610efe01525f81816101e701528181610a530152610ac001525f6103b001525f81816105440152818161072a0152818161077f015281816108b4015281816109090152610c1c01525f81816101970152610edc0152611c515ff3fe608060405260043610610182575f3560e01c80638da5cb5b116100d1578063da25b7251161007c578063f2541c3511610057578063f2541c3514610533578063f4427c2c14610566578063f9fc3c211461057b575f80fd5b8063da25b725146104c3578063dd12d68b146104f6578063e309fb7714610515575f80fd5b8063bde52661116100ac578063bde526611461044a578063c23cc3ff1461045d578063c6328a4614610490575f80fd5b80638da5cb5b14610405578063a8b2ae0214610424578063b2267a7b14610437575f80fd5b8063529dca32116101315780635bc105c01161010c5780635bc105c01461038b5780636143fe931461039f57806384acd1bb146103d2575f80fd5b8063529dca32146102b257806354d20cc2146102d357806354e4bbf41461036c575f80fd5b8063468b9dab11610161578063468b9dab146102475780634c1c6cbf146102885780634ece6b171461029e575f80fd5b806231d115146101865780633d1f8679146101d6578063446a969514610209575b5f80fd5b348015610191575f80fd5b506101b97f000000000000000000000000000000000000000000000000000000000000000081565b6040516001600160a01b0390911681526020015b60405180910390f35b3480156101e1575f80fd5b506101b97f000000000000000000000000000000000000000000000000000000000000000081565b348015610214575f80fd5b5061023761022336600461142c565b60056020525f908152604090205460ff1681565b60405190151581526020016101cd565b348015610252575f80fd5b5061027a7f000000000000000000000000000000000000000000000000000000000000000081565b6040519081526020016101cd565b348015610293575f80fd5b5061027a620493e081565b3480156102a9575f80fd5b5061027a604081565b3480156102bd575f80fd5b506102d16102cc36600461154f565b610591565b005b3480156102de575f80fd5b5060408051808201909152601581527f726563656976654d65737361676528627974657329000000000000000000000060209091015261033b7ff953cec75ae677942d7cda5cb6d12c0cb96a0904bf37d36301eef297b83c411d81565b6040517fffffffff0000000000000000000000000000000000000000000000000000000090911681526020016101cd565b348015610377575f80fd5b506102d1610386366004611654565b6106b4565b348015610396575f80fd5b5061027a6106f3565b3480156103aa575f80fd5b506101b97f000000000000000000000000000000000000000000000000000000000000000081565b3480156103dd575f80fd5b506101b97f000000000000000000000000000000000000000000000000000000000000000081565b348015610410575f80fd5b506001546101b9906001600160a01b031681565b34801561042f575f80fd5b50600861027a565b6102d1610445366004611676565b61071f565b6102d161045836600461173a565b6108a9565b348015610468575f80fd5b5061027a7f000000000000000000000000000000000000000000000000000000000000000081565b34801561049b575f80fd5b506101b97f000000000000000000000000000000000000000000000000000000000000000081565b3480156104ce575f80fd5b506101b97f000000000000000000000000000000000000000000000000000000000000000081565b348015610501575f80fd5b506102d161051036600461180f565b6109a2565b348015610520575f80fd5b505f546101b9906001600160a01b031681565b34801561053e575f80fd5b506101b97f000000000000000000000000000000000000000000000000000000000000000081565b348015610571575f80fd5b5061027a60025481565b348015610586575f80fd5b5061027a621e848081565b7f00000000000000000000000000000000000000000000000000000000000000008261ffff161461061f576040517f857c0bad00000000000000000000000000000000000000000000000000000000815261ffff831660048201527f000000000000000000000000000000000000000000000000000000000000000060248201526044015b60405180910390fd5b5f8181526005602052604090205460ff161561066a576040517f56bc34a100000000000000000000000000000000000000000000000000000000815260048101829052602401610616565b5f81815260056020526040902080547fffffffffffffffffffffffffffffffffffffffffffffffffffffffffffffff00166001179055826106ac338288610a51565b505050505050565b6106e77f00000000000000000000000000000000000000000000000000000000000000006001600160a01b0383166109a2565b6106f081610c81565b50565b6024610708600267ffffffffffffffff611866565b61071291906118b1565b67ffffffffffffffff1681565b336001600160a01b037f000000000000000000000000000000000000000000000000000000000000000016146107b2576040517f625a43fe0000000000000000000000000000000000000000000000000000000081526001600160a01b037f0000000000000000000000000000000000000000000000000000000000000000166004820152336024820152604401610616565b6040805160018082528183019092525f916020808301908036833701905050905084815f815181106107e6576107e66118d9565b6001600160a01b0392909216602092830291909101909101526040805160018082528183019092525f9181602001602082028036833701905050905084815f81518110610835576108356118d9565b6020026020010181815250505f61084e83838787610d84565b600280549192505f61085f83611906565b9190505550807f9a5db7eed66b0161b9861a53b42de123e042dbe1f1734a7d032402926063fe32848487604051610898939291906119af565b60405180910390a250505050505050565b336001600160a01b037f0000000000000000000000000000000000000000000000000000000000000000161461093c576040517f625a43fe0000000000000000000000000000000000000000000000000000000081526001600160a01b037f0000000000000000000000000000000000000000000000000000000000000000166004820152336024820152604401610616565b5f61094985858585610d84565b600280549192505f61095a83611906565b9190505550807f9a5db7eed66b0161b9861a53b42de123e042dbe1f1734a7d032402926063fe32868685604051610993939291906119af565b60405180910390a25050505050565b6003546001600160a01b03163314610a3b576040517f08c379a0000000000000000000000000000000000000000000000000000000008152602060048201526024808201527f4e6f7420616c6c6f77656420746f20736574207265676973746572656420736560448201527f6e646572000000000000000000000000000000000000000000000000000000006064820152608401610616565b61ffff9091165f90815260046020526040902055565b7f00000000000000000000000000000000000000000000000000000000000000006001600160a01b0316836001600160a01b031614610aed576040517f2f3111fa0000000000000000000000000000000000000000000000000000000081523360048201526001600160a01b037f0000000000000000000000000000000000000000000000000000000000000000166024820152604401610616565b5f546001600160a01b03838116911614610b49575f546040517f0d16cbdd0000000000000000000000000000000000000000000000000000000081526001600160a01b0380851660048301529091166024820152604401610616565b5f546040517f0000000000000000000000000000000000000000000000000000000000000000916001600160a01b0316907f98bbde530ec85b002f6fb0864beccaaf3ac3d2a4ac35cb3b03cf7c61ee415e3390610ba7908590611a12565b60405180910390a35f81806020019051810190610bc49190611a24565b6040517f59a8dfb90000000000000000000000000000000000000000000000000000000081527f00000000000000000000000000000000000000000000000000000000000000006004820152602481018290529091507f00000000000000000000000000000000000000000000000000000000000000006001600160a01b0316906359a8dfb9906044015f604051808303815f87803b158015610c65575f80fd5b505af1158015610c77573d5f803e3d5ffd5b5050505050505050565b6001546001600160a01b03163314610cda576001546040517fa43d6ada0000000000000000000000000000000000000000000000000000000081526001600160a01b039091166004820152336024820152604401610616565b6001600160a01b038116610d1a576040517fd92e233d00000000000000000000000000000000000000000000000000000000815260040160405180910390fd5b5f80546001600160a01b0383167fffffffffffffffffffffffff0000000000000000000000000000000000000000918216811783556001805490921690915560405190917f991aa5c8f67a92f8feb202de828958c681966ae343fcf6db040f5f8099d547cf91a250565b5f6040835114610dcd578251604080517f34c9027a0000000000000000000000000000000000000000000000000000000081526106169290600401918252602082015260400190565b5f8084806020019051810190610de39190611a3b565b91509150805f03610e20576040517f7c946ed700000000000000000000000000000000000000000000000000000000815260040160405180910390fd5b621e8480811115610e69576040517f7ae5968500000000000000000000000000000000000000000000000000000000815260048101829052621e84806024820152604401610616565b6001600160a01b038216610e7b573391505b5f8787604051602001610e8f929190611a67565b6040516020818303038152906040529050610f237f00000000000000000000000000000000000000000000000000000000000000005f8054906101000a90046001600160a01b0316835f867f00000000000000000000000000000000000000000000000000000000000000008b7f00000000000000000000000000000000000000000000000000000000000000008b610f39565b67ffffffffffffffff1698975050505050505050565b6040805160018082528183019092525f91829190816020015b604080516060810182525f80825260208083018290529282015282527fffffffffffffffffffffffffffffffffffffffffffffffffffffffffffffffff909201910181610f52579050509050610faa86868d8d61112a565b815f81518110610fbc57610fbc6118d9565b60209081029190910101526040517fc23ee3c300000000000000000000000000000000000000000000000000000000815261ffff8c16600482015260248101899052604481018890525f906001600160a01b037f0000000000000000000000000000000000000000000000000000000000000000169063c23ee3c3906064016040805180830381865afa158015611055573d5f803e3d5ffd5b505050506040513d601f19601f820116820180604052508101906110799190611a8b565b5090507f00000000000000000000000000000000000000000000000000000000000000006001600160a01b03166332b2fc0e828e8e8e8e8e898d8d6040518a63ffffffff1660e01b81526004016110d7989796959493929190611aad565b60206040518083038185885af11580156110f3573d5f803e3d5ffd5b50505050506040513d601f19601f820116820180604052508101906111189190611b6b565b925050505b9998505050505050505050565b604080516060810182525f80825260208201819052918101919091526111618585858560405180602001604052805f81525061116a565b95945050505050565b604080516060810182525f808252602082018190528183015290517f095ea7b30000000000000000000000000000000000000000000000000000000081526001600160a01b037f0000000000000000000000000000000000000000000000000000000000000000811660048301526024820187905287169063095ea7b3906044016020604051808303815f875af1158015611207573d5f803e3d5ffd5b505050506040513d601f19601f8201168201806040525081019061122b9190611b92565b505f7f00000000000000000000000000000000000000000000000000000000000000006001600160a01b031663c5a5ebda7f00000000000000000000000000000000000000000000000000000000000000006001600160a01b0316631a90a2196040518163ffffffff1660e01b8152600401602060405180830381865afa1580156112b8573d5f803e3d5ffd5b505050506040513d601f19601f820116820180604052508101906112dc9190611a24565b8989896001600160a01b038a165f8a6040518863ffffffff1660e01b815260040161130c96959493929190611bb1565b60206040518083038185885af1158015611328573d5f803e3d5ffd5b50505050506040513d601f19601f8201168201806040525081019061134d9190611b6b565b905060405180606001604052807f00000000000000000000000000000000000000000000000000000000000000006001600160a01b0316639a8a05926040518163ffffffff1660e01b8152600401602060405180830381865afa1580156113b6573d5f803e3d5ffd5b505050506040513d601f19601f820116820180604052508101906113da9190611c00565b61ffff1681526020016001600160a01b037f00000000000000000000000000000000000000000000000000000000000000001681526020018267ffffffffffffffff1681525091505095945050505050565b5f6020828403121561143c575f80fd5b5035919050565b7f4e487b71000000000000000000000000000000000000000000000000000000005f52604160045260245ffd5b604051601f8201601f1916810167ffffffffffffffff8111828210171561149957611499611443565b604052919050565b5f82601f8301126114b0575f80fd5b813567ffffffffffffffff8111156114ca576114ca611443565b6114dd6020601f19601f84011601611470565b8181528460208386010111156114f1575f80fd5b816020850160208301375f918101602001919091529392505050565b5f67ffffffffffffffff82111561152657611526611443565b5060051b60200190565b61ffff811681146106f0575f80fd5b803561154a81611530565b919050565b5f805f805f60a08688031215611563575f80fd5b853567ffffffffffffffff8082111561157a575f80fd5b61158689838a016114a1565b965060209150818801358181111561159c575f80fd5b8801601f81018a136115ac575f80fd5b80356115bf6115ba8261150d565b611470565b81815260059190911b8201840190848101908c8311156115dd575f80fd5b8584015b83811015611613578035868111156115f7575f80fd5b6116058f89838901016114a1565b8452509186019186016115e1565b5098505050506040880135945061162f9150506060870161153f565b949793965091946080013592915050565b6001600160a01b03811681146106f0575f80fd5b5f60208284031215611664575f80fd5b813561166f81611640565b9392505050565b5f805f8060808587031215611689575f80fd5b843561169481611640565b935060208501359250604085013567ffffffffffffffff8111156116b6575f80fd5b6116c2878288016114a1565b949793965093946060013593505050565b5f82601f8301126116e2575f80fd5b813560206116f26115ba8361150d565b8083825260208201915060208460051b870101935086841115611713575f80fd5b602086015b8481101561172f5780358352918301918301611718565b509695505050505050565b5f805f806080858703121561174d575f80fd5b843567ffffffffffffffff80821115611764575f80fd5b818701915087601f830112611777575f80fd5b813560206117876115ba8361150d565b82815260059290921b8401810191818101908b8411156117a5575f80fd5b948201945b838610156117cc5785356117bd81611640565b825294820194908201906117aa565b985050880135925050808211156117e1575f80fd5b6117ed888389016116d3565b94506040870135915080821115611802575f80fd5b506116c2878288016114a1565b5f8060408385031215611820575f80fd5b823561182b81611530565b946020939093013593505050565b7f4e487b71000000000000000000000000000000000000000000000000000000005f52601160045260245ffd5b5f67ffffffffffffffff808416806118a5577f4e487b71000000000000000000000000000000000000000000000000000000005f52601260045260245ffd5b92169190910492915050565b67ffffffffffffffff8281168282160390808211156118d2576118d2611839565b5092915050565b7f4e487b71000000000000000000000000000000000000000000000000000000005f52603260045260245ffd5b5f7fffffffffffffffffffffffffffffffffffffffffffffffffffffffffffffffff820361193657611936611839565b5060010190565b5f815180845260208085019450602084015f5b838110156119755781516001600160a01b031687529582019590820190600101611950565b509495945050505050565b5f815180845260208085019450602084015f5b8381101561197557815187529582019590820190600101611993565b606081525f6119c1606083018661193d565b82810360208401526119d38186611980565b915050826040830152949350505050565b5f81518084528060208401602086015e5f602082860101526020601f19601f83011685010191505092915050565b602081525f61166f60208301846119e4565b5f60208284031215611a34575f80fd5b5051919050565b5f8060408385031215611a4c575f80fd5b8251611a5781611640565b6020939093015192949293505050565b604081525f611a79604083018561193d565b82810360208401526111618185611980565b5f8060408385031215611a9c575f80fd5b505080516020909101519092909150565b5f61010061ffff808c16845260206001600160a01b038c16818601526040836040870152611add8487018d6119e4565b60608781018d9052608088018c905287820360a08901528a51808352848c01965090918401905f5b81811015611b3e578751805188168452868101518785015285015167ffffffffffffffff16858401529685019691830191600101611b05565b505061ffff8a1660c08901529550611b57945050505050565b6001600160a01b03831660e083015261111d565b5f60208284031215611b7b575f80fd5b815167ffffffffffffffff8116811461166f575f80fd5b5f60208284031215611ba2575f80fd5b8151801515811461166f575f80fd5b6001600160a01b038716815285602082015261ffff8516604082015283606082015263ffffffff8316608082015260c060a08201525f611bf460c08301846119e4565b98975050505050505050565b5f60208284031215611c10575f80fd5b815161166f8161153056fea26469706673582212205c312023cd1aeefd6036e7702e4755264b78fe85ed15ca3eca87b386bb111f8864736f6c63430008190033",
  "linkReferences": {},
  "deployedLinkReferences": {}
}