{
  "_format": "hh-sol-artifact-1",
  "contractName": "WormholeTargetDispenserL2",
  "sourceName": "contracts/staking/WormholeTargetDispenserL2.sol",
  "abi": [
    {
      "inputs": [
        {
          "internalType": "address",
          "name": "_olas",
          "type": "address"
        },
        {
          "internalType": "address",
          "name": "_proxyFactory",
          "type": "address"
        },
        {
          "internalType": "address",
          "name": "_l2MessageRelayer",
          "type": "address"
        },
        {
          "internalType": "address",
          "name": "_l1DepositProcessor",
          "type": "address"
        },
        {
          "internalType": "uint256",
          "name": "_l1SourceChainId",
          "type": "uint256"
        },
        {
          "internalType": "address",
          "name": "_wormholeCore",
          "type": "address"
        },
        {
          "internalType": "address",
          "name": "_l2TokenRelayer",
          "type": "address"
        }
      ],
      "stateMutability": "nonpayable",
      "type": "constructor"
    },
    {
      "inputs": [
        {
          "internalType": "bytes32",
          "name": "deliveryHash",
          "type": "bytes32"
        }
      ],
      "name": "AlreadyDelivered",
      "type": "error"
    },
    {
      "inputs": [
        {
          "internalType": "uint256",
          "name": "expected",
          "type": "uint256"
        },
        {
          "internalType": "uint256",
          "name": "provided",
          "type": "uint256"
        }
      ],
      "name": "IncorrectDataLength",
      "type": "error"
    },
    {
      "inputs": [
        {
          "internalType": "uint256",
          "name": "provided",
          "type": "uint256"
        },
        {
          "internalType": "uint256",
          "name": "expected",
          "type": "uint256"
        }
      ],
      "name": "InsufficientBalance",
      "type": "error"
    },
    {
      "inputs": [
        {
          "internalType": "uint256",
          "name": "provided",
          "type": "uint256"
        },
        {
          "internalType": "uint256",
          "name": "expected",
          "type": "uint256"
        }
      ],
      "name": "LowerThan",
      "type": "error"
    },
    {
      "inputs": [
        {
          "internalType": "address",
          "name": "sender",
          "type": "address"
        },
        {
          "internalType": "address",
          "name": "manager",
          "type": "address"
        }
      ],
      "name": "ManagerOnly",
      "type": "error"
    },
    {
      "inputs": [
        {
          "internalType": "bytes32",
          "name": "",
          "type": "bytes32"
        }
      ],
      "name": "NotAnEvmAddress",
      "type": "error"
    },
    {
      "inputs": [
        {
          "internalType": "uint256",
          "name": "provided",
          "type": "uint256"
        },
        {
          "internalType": "uint256",
          "name": "max",
          "type": "uint256"
        }
      ],
      "name": "Overflow",
      "type": "error"
    },
    {
      "inputs": [
        {
          "internalType": "address",
          "name": "sender",
          "type": "address"
        },
        {
          "internalType": "address",
          "name": "owner",
          "type": "address"
        }
      ],
      "name": "OwnerOnly",
      "type": "error"
    },
    {
      "inputs": [],
      "name": "Paused",
      "type": "error"
    },
    {
      "inputs": [],
      "name": "ReentrancyGuard",
      "type": "error"
    },
    {
      "inputs": [
        {
          "internalType": "address",
          "name": "target",
          "type": "address"
        },
        {
          "internalType": "uint256",
          "name": "amount",
          "type": "uint256"
        },
        {
          "internalType": "uint256",
          "name": "batchNonce",
          "type": "uint256"
        }
      ],
      "name": "TargetAmountNotQueued",
      "type": "error"
    },
    {
      "inputs": [
        {
          "internalType": "address",
          "name": "provided",
          "type": "address"
        },
        {
          "internalType": "address",
          "name": "expected",
          "type": "address"
        }
      ],
      "name": "TargetRelayerOnly",
      "type": "error"
    },
    {
      "inputs": [
        {
          "internalType": "address",
          "name": "token",
          "type": "address"
        },
        {
          "internalType": "address",
          "name": "from",
          "type": "address"
        },
        {
          "internalType": "address",
          "name": "to",
          "type": "address"
        },
        {
          "internalType": "uint256",
          "name": "amount",
          "type": "uint256"
        }
      ],
      "name": "TransferFailed",
      "type": "error"
    },
    {
      "inputs": [],
      "name": "Unpaused",
      "type": "error"
    },
    {
      "inputs": [
        {
          "internalType": "address",
          "name": "account",
          "type": "address"
        }
      ],
      "name": "WrongAccount",
      "type": "error"
    },
    {
      "inputs": [
        {
          "internalType": "uint256",
          "name": "provided",
          "type": "uint256"
        },
        {
          "internalType": "uint256",
          "name": "expected",
          "type": "uint256"
        }
      ],
      "name": "WrongAmount",
      "type": "error"
    },
    {
      "inputs": [
        {
          "internalType": "uint256",
          "name": "provided",
          "type": "uint256"
        },
        {
          "internalType": "uint256",
          "name": "expected",
          "type": "uint256"
        }
      ],
      "name": "WrongChainId",
      "type": "error"
    },
    {
      "inputs": [
        {
          "internalType": "address",
          "name": "provided",
          "type": "address"
        },
        {
          "internalType": "address",
          "name": "expected",
          "type": "address"
        }
      ],
      "name": "WrongMessageSender",
      "type": "error"
    },
    {
      "inputs": [
        {
          "internalType": "address",
          "name": "provided",
          "type": "address"
        },
        {
          "internalType": "address",
          "name": "expected",
          "type": "address"
        }
      ],
      "name": "WrongTokenAddress",
      "type": "error"
    },
    {
      "inputs": [],
      "name": "ZeroAddress",
      "type": "error"
    },
    {
      "inputs": [],
      "name": "ZeroValue",
      "type": "error"
    },
    {
      "anonymous": false,
      "inputs": [
        {
          "indexed": true,
          "internalType": "address",
          "name": "target",
          "type": "address"
        },
        {
          "indexed": false,
          "internalType": "uint256",
          "name": "amount",
          "type": "uint256"
        }
      ],
      "name": "AmountWithheld",
      "type": "event"
    },
    {
      "anonymous": false,
      "inputs": [
        {
          "indexed": true,
          "internalType": "address",
          "name": "owner",
          "type": "address"
        },
        {
          "indexed": false,
          "internalType": "uint256",
          "name": "amount",
          "type": "uint256"
        }
      ],
      "name": "Drain",
      "type": "event"
    },
    {
      "anonymous": false,
      "inputs": [
        {
          "indexed": true,
          "internalType": "address",
          "name": "sender",
          "type": "address"
        },
        {
          "indexed": false,
          "internalType": "uint256",
          "name": "value",
          "type": "uint256"
        }
      ],
      "name": "FundsReceived",
      "type": "event"
    },
    {
      "anonymous": false,
      "inputs": [
        {
          "indexed": true,
          "internalType": "uint256",
          "name": "sequence",
          "type": "uint256"
        },
        {
          "indexed": true,
          "internalType": "address",
          "name": "messageSender",
          "type": "address"
        },
        {
          "indexed": true,
          "internalType": "address",
          "name": "l1Processor",
          "type": "address"
        },
        {
          "indexed": false,
          "internalType": "uint256",
          "name": "amount",
          "type": "uint256"
        }
      ],
      "name": "MessagePosted",
      "type": "event"
    },
    {
      "anonymous": false,
      "inputs": [
        {
          "indexed": true,
          "internalType": "address",
          "name": "sender",
          "type": "address"
        },
        {
          "indexed": false,
          "internalType": "uint256",
          "name": "chainId",
          "type": "uint256"
        },
        {
          "indexed": false,
          "internalType": "bytes",
          "name": "data",
          "type": "bytes"
        }
      ],
      "name": "MessageReceived",
      "type": "event"
    },
    {
      "anonymous": false,
      "inputs": [
        {
          "indexed": true,
          "internalType": "address",
          "name": "sender",
          "type": "address"
        },
        {
          "indexed": true,
          "internalType": "address",
          "name": "newL2TargetDispenser",
          "type": "address"
        },
        {
          "indexed": false,
          "internalType": "uint256",
          "name": "amount",
          "type": "uint256"
        }
      ],
      "name": "Migrated",
      "type": "event"
    },
    {
      "anonymous": false,
      "inputs": [
        {
          "indexed": true,
          "internalType": "address",
          "name": "owner",
          "type": "address"
        }
      ],
      "name": "OwnerUpdated",
      "type": "event"
    },
    {
      "anonymous": false,
      "inputs": [
        {
          "indexed": true,
          "internalType": "bytes32",
          "name": "queueHash",
          "type": "bytes32"
        },
        {
          "indexed": true,
          "internalType": "address",
          "name": "target",
          "type": "address"
        },
        {
          "indexed": false,
          "internalType": "uint256",
          "name": "amount",
          "type": "uint256"
        },
        {
          "indexed": false,
          "internalType": "uint256",
          "name": "batchNonce",
          "type": "uint256"
        },
        {
          "indexed": false,
          "internalType": "uint256",
          "name": "paused",
          "type": "uint256"
        }
      ],
      "name": "StakingRequestQueued",
      "type": "event"
    },
    {
      "anonymous": false,
      "inputs": [
        {
          "indexed": true,
          "internalType": "address",
          "name": "target",
          "type": "address"
        },
        {
          "indexed": false,
          "internalType": "uint256",
          "name": "amount",
          "type": "uint256"
        }
      ],
      "name": "StakingTargetDeposited",
      "type": "event"
    },
    {
      "anonymous": false,
      "inputs": [],
      "name": "TargetDispenserPaused",
      "type": "event"
    },
    {
      "anonymous": false,
      "inputs": [],
      "name": "TargetDispenserUnpaused",
      "type": "event"
    },
    {
      "anonymous": false,
      "inputs": [
        {
          "indexed": true,
          "internalType": "address",
          "name": "sender",
          "type": "address"
        },
        {
          "indexed": false,
          "internalType": "uint256",
          "name": "amount",
          "type": "uint256"
        }
      ],
      "name": "WithheldAmountSynced",
      "type": "event"
    },
    {
      "inputs": [],
      "name": "BRIDGE_PAYLOAD_LENGTH",
      "outputs": [
        {
          "internalType": "uint256",
          "name": "",
          "type": "uint256"
        }
      ],
      "stateMutability": "view",
      "type": "function"
    },
    {
      "inputs": [],
      "name": "GAS_LIMIT",
      "outputs": [
        {
          "internalType": "uint256",
          "name": "",
          "type": "uint256"
        }
      ],
      "stateMutability": "view",
      "type": "function"
    },
    {
      "inputs": [],
      "name": "MAX_CHAIN_ID",
      "outputs": [
        {
          "internalType": "uint256",
          "name": "",
          "type": "uint256"
        }
      ],
      "stateMutability": "view",
      "type": "function"
    },
    {
      "inputs": [],
      "name": "MAX_GAS_LIMIT",
      "outputs": [
        {
          "internalType": "uint256",
          "name": "",
          "type": "uint256"
        }
      ],
      "stateMutability": "view",
      "type": "function"
    },
    {
      "inputs": [],
      "name": "RECEIVE_MESSAGE",
      "outputs": [
        {
          "internalType": "bytes4",
          "name": "",
          "type": "bytes4"
        }
      ],
      "stateMutability": "view",
      "type": "function"
    },
    {
      "inputs": [
        {
          "internalType": "address",
          "name": "newOwner",
          "type": "address"
        }
      ],
      "name": "changeOwner",
      "outputs": [],
      "stateMutability": "nonpayable",
      "type": "function"
    },
    {
      "inputs": [],
      "name": "drain",
      "outputs": [
        {
          "internalType": "uint256",
          "name": "amount",
          "type": "uint256"
        }
      ],
      "stateMutability": "nonpayable",
      "type": "function"
    },
    {
      "inputs": [],
      "name": "l1DepositProcessor",
      "outputs": [
        {
          "internalType": "address",
          "name": "",
          "type": "address"
        }
      ],
      "stateMutability": "view",
      "type": "function"
    },
    {
      "inputs": [],
      "name": "l1SourceChainId",
      "outputs": [
        {
          "internalType": "uint256",
          "name": "",
          "type": "uint256"
        }
      ],
      "stateMutability": "view",
      "type": "function"
    },
    {
      "inputs": [],
      "name": "l2MessageRelayer",
      "outputs": [
        {
          "internalType": "address",
          "name": "",
          "type": "address"
        }
      ],
      "stateMutability": "view",
      "type": "function"
    },
    {
      "inputs": [
        {
          "internalType": "bytes32",
          "name": "",
          "type": "bytes32"
        }
      ],
      "name": "mapDeliveryHashes",
      "outputs": [
        {
          "internalType": "bool",
          "name": "",
          "type": "bool"
        }
      ],
      "stateMutability": "view",
      "type": "function"
    },
    {
      "inputs": [
        {
          "internalType": "address",
          "name": "newL2TargetDispenser",
          "type": "address"
        }
      ],
      "name": "migrate",
      "outputs": [],
      "stateMutability": "nonpayable",
      "type": "function"
    },
    {
      "inputs": [],
      "name": "olas",
      "outputs": [
        {
          "internalType": "address",
          "name": "",
          "type": "address"
        }
      ],
      "stateMutability": "view",
      "type": "function"
    },
    {
      "inputs": [],
      "name": "owner",
      "outputs": [
        {
          "internalType": "address",
          "name": "",
          "type": "address"
        }
      ],
      "stateMutability": "view",
      "type": "function"
    },
    {
      "inputs": [],
      "name": "pause",
      "outputs": [],
      "stateMutability": "nonpayable",
      "type": "function"
    },
    {
      "inputs": [],
      "name": "paused",
      "outputs": [
        {
          "internalType": "uint8",
          "name": "",
          "type": "uint8"
        }
      ],
      "stateMutability": "view",
      "type": "function"
    },
    {
      "inputs": [
        {
          "internalType": "bytes",
          "name": "data",
          "type": "bytes"
        }
      ],
      "name": "processDataMaintenance",
      "outputs": [],
      "stateMutability": "nonpayable",
      "type": "function"
    },
    {
      "inputs": [
        {
          "internalType": "bytes",
          "name": "payload",
          "type": "bytes"
        },
        {
          "internalType": "bytes[]",
          "name": "additionalVaas",
          "type": "bytes[]"
        },
        {
          "internalType": "bytes32",
          "name": "sourceAddress",
          "type": "bytes32"
        },
        {
          "internalType": "uint16",
          "name": "sourceChain",
          "type": "uint16"
        },
        {
          "internalType": "bytes32",
          "name": "deliveryHash",
          "type": "bytes32"
        }
      ],
      "name": "receiveWormholeMessages",
      "outputs": [],
      "stateMutability": "payable",
      "type": "function"
    },
    {
      "inputs": [
        {
          "internalType": "address",
          "name": "target",
          "type": "address"
        },
        {
          "internalType": "uint256",
          "name": "amount",
          "type": "uint256"
        },
        {
          "internalType": "uint256",
          "name": "batchNonce",
          "type": "uint256"
        }
      ],
      "name": "redeem",
      "outputs": [],
      "stateMutability": "nonpayable",
      "type": "function"
    },
    {
      "inputs": [
        {
          "internalType": "uint16",
          "name": "sourceChain",
          "type": "uint16"
        },
        {
          "internalType": "bytes32",
          "name": "sourceAddress",
          "type": "bytes32"
        }
      ],
      "name": "setRegisteredSender",
      "outputs": [],
      "stateMutability": "nonpayable",
      "type": "function"
    },
    {
      "inputs": [],
      "name": "stakingBatchNonce",
      "outputs": [
        {
          "internalType": "uint256",
          "name": "",
          "type": "uint256"
        }
      ],
      "stateMutability": "view",
      "type": "function"
    },
    {
      "inputs": [],
      "name": "stakingFactory",
      "outputs": [
        {
          "internalType": "address",
          "name": "",
          "type": "address"
        }
      ],
      "stateMutability": "view",
      "type": "function"
    },
    {
      "inputs": [
        {
          "internalType": "bytes32",
          "name": "",
          "type": "bytes32"
        }
      ],
      "name": "stakingQueueingNonces",
      "outputs": [
        {
          "internalType": "bool",
          "name": "",
          "type": "bool"
        }
      ],
      "stateMutability": "view",
      "type": "function"
    },
    {
      "inputs": [
        {
          "internalType": "bytes",
          "name": "bridgePayload",
          "type": "bytes"
        }
      ],
      "name": "syncWithheldTokens",
      "outputs": [],
      "stateMutability": "payable",
      "type": "function"
    },
    {
      "inputs": [],
      "name": "tokenBridge",
      "outputs": [
        {
          "internalType": "contract ITokenBridge",
          "name": "",
          "type": "address"
        }
      ],
      "stateMutability": "view",
      "type": "function"
    },
    {
      "inputs": [],
      "name": "unpause",
      "outputs": [],
      "stateMutability": "nonpayable",
      "type": "function"
    },
    {
      "inputs": [],
      "name": "withheldAmount",
      "outputs": [
        {
          "internalType": "uint256",
          "name": "",
          "type": "uint256"
        }
      ],
      "stateMutability": "view",
      "type": "function"
    },
    {
      "inputs": [],
      "name": "wormhole",
      "outputs": [
        {
          "internalType": "contract IWormhole",
          "name": "",
          "type": "address"
        }
      ],
      "stateMutability": "view",
      "type": "function"
    },
    {
      "inputs": [],
      "name": "wormholeRelayer",
      "outputs": [
        {
          "internalType": "contract IWormholeRelayer",
          "name": "",
          "type": "address"
        }
      ],
      "stateMutability": "view",
      "type": "function"
    },
    {
      "stateMutability": "payable",
      "type": "receive"
    }
  ],
  "bytecode": "0x610180604052348015610010575f80fd5b506040516139d23803806139d283398101604081905261002f91610244565b84818382818b8b838b8b6001600160a01b038516158061005657506001600160a01b038416155b8061006857506001600160a01b038316155b8061007a57506001600160a01b038216155b156100985760405163d92e233d60e01b815260040160405180910390fd5b805f036100b857604051637c946ed760e01b815260040160405180910390fd5b60246100cc60026001600160401b036102be565b6100d691906102ef565b6001600160401b0316811115610135578060246100fb60026001600160401b036102be565b61010591906102ef565b604051637ae5968560e01b815260048101929092526001600160401b031660248201526044015b60405180910390fd5b6001600160a01b0394851660805292841660a05290831660c052821660e052610100526002805460ff60a81b1960ff60a01b19339081166001600160a81b031990931692909217600160a01b1716600160a81b179091559281166101205290811661014052600480546001600160a01b03191690921790915591821661016052508316159050806101cd57506001600160a01b038116155b156101eb5760405163d92e233d60e01b815260040160405180910390fd5b61ffff83111561021957604051637ae5968560e01b81526004810184905261ffff602482015260440161012c565b5050610100525061032292505050565b80516001600160a01b038116811461023f575f80fd5b919050565b5f805f805f805f60e0888a03121561025a575f80fd5b61026388610229565b965061027160208901610229565b955061027f60408901610229565b945061028d60608901610229565b9350608088015192506102a260a08901610229565b91506102b060c08901610229565b905092959891949750929550565b5f6001600160401b03838116806102e357634e487b7160e01b5f52601260045260245ffd5b92169190910492915050565b6001600160401b0382811682821603908082111561031b57634e487b7160e01b5f52601160045260245ffd5b5092915050565b60805160a05160c05160e0516101005161012051610140516101605161357561045d5f395f818161063f01528181610e0501528181610f19015281816110ba0152611e6a01525f818161056801528181610d2601528181610f9f0152611da501525f61069101525f81816105ce01528181611b1601528181611c3701528181611c9d015281816120280152818161207e015261297c01525f818161030f01528181611c5801528181611d240152818161289301528181612902015261293101525f81816102dc01528181611b4d01528181611c07015281816127f5015261286401525f8181610342015261234301525f8181610268015281816109b401528181610a6d0152818161179801528181611852015281816118f5015281816120f401528181612168015281816124d7015261259a01526135755ff3fe6080604052600436106101bc575f3560e01c80635c975abb116100f2578063a6f9dae111610092578063da25b72511610062578063da25b72514610680578063dd12d68b146106b3578063e3f5aa51146106d2578063f4427c2c146106e8575f80fd5b8063a6f9dae1146105f0578063bddc966e1461060f578063c6328a461461062e578063ce5494bb14610661575f80fd5b806384acd1bb116100cd57806384acd1bb146105575780638da5cb5b1461058a5780639890220b146105a95780639b7bb847146105bd575f80fd5b80635c975abb146104d2578063713d1a4e146105155780638456cb5914610543575f80fd5b80633f4ba83a1161015d578063529dca3211610138578063529dca32146103fe57806354d20cc2146104115780635a7287cf146104aa5780635bc105c0146104be575f80fd5b80633f4ba83a14610398578063446a9695146103ac5780634ece6b17146103ea575f80fd5b8063256359a811610198578063256359a8146102fe578063291347681461033157806329f404cd146103645780632b83cccd14610379575f80fd5b806231d11514610257578063091d2788146102a75780631bad5957146102cb575f80fd5b36610253576002546001600160a01b031661021c576040517fcd3f16590000000000000000000000000000000000000000000000000000000081525f60048201523360248201523060448201523460648201526084015b60405180910390fd5b60405134815233907f8e47b87b0ef542cdfa1659c551d88bad38aa7f452d2bbb349ab7530dfec8be8f9060200160405180910390a2005b5f80fd5b348015610262575f80fd5b5061028a7f000000000000000000000000000000000000000000000000000000000000000081565b6040516001600160a01b0390911681526020015b60405180910390f35b3480156102b2575f80fd5b506102bd620493e081565b60405190815260200161029e565b3480156102d6575f80fd5b5061028a7f000000000000000000000000000000000000000000000000000000000000000081565b348015610309575f80fd5b5061028a7f000000000000000000000000000000000000000000000000000000000000000081565b34801561033c575f80fd5b5061028a7f000000000000000000000000000000000000000000000000000000000000000081565b610377610372366004612b08565b6106fd565b005b348015610384575f80fd5b50610377610393366004612b56565b61083c565b3480156103a3575f80fd5b50610377610bfa565b3480156103b7575f80fd5b506103da6103c6366004612b88565b60066020525f908152604090205460ff1681565b604051901515815260200161029e565b3480156103f5575f80fd5b506102bd604081565b61037761040c366004612be1565b610ca3565b34801561041c575f80fd5b5060408051808201909152601581527f726563656976654d6573736167652862797465732900000000000000000000006020909101526104797ff953cec75ae677942d7cda5cb6d12c0cb96a0904bf37d36301eef297b83c411d81565b6040517fffffffff00000000000000000000000000000000000000000000000000000000909116815260200161029e565b3480156104b5575f80fd5b506102bd5f5481565b3480156104c9575f80fd5b506102bd611239565b3480156104dd575f80fd5b506002546105039074010000000000000000000000000000000000000000900460ff1681565b60405160ff909116815260200161029e565b348015610520575f80fd5b506103da61052f366004612b88565b60036020525f908152604090205460ff1681565b34801561054e575f80fd5b50610377611265565b348015610562575f80fd5b5061028a7f000000000000000000000000000000000000000000000000000000000000000081565b348015610595575f80fd5b5060025461028a906001600160a01b031681565b3480156105b4575f80fd5b506102bd61130e565b3480156105c8575f80fd5b506102bd7f000000000000000000000000000000000000000000000000000000000000000081565b3480156105fb575f80fd5b5061037761060a366004612ccd565b6114bf565b34801561061a575f80fd5b50610377610629366004612b08565b6115a0565b348015610639575f80fd5b5061028a7f000000000000000000000000000000000000000000000000000000000000000081565b34801561066c575f80fd5b5061037761067b366004612ccd565b6115ec565b34801561068b575f80fd5b5061028a7f000000000000000000000000000000000000000000000000000000000000000081565b3480156106be575f80fd5b506103776106cd366004612ce8565b6119a5565b3480156106dd575f80fd5b506102bd621e848081565b3480156106f3575f80fd5b506102bd60015481565b6002546001600160a81b90910460ff16111561072c576040516345f5ce8b60e11b815260040160405180910390fd5b6002805460ff60a81b191675020000000000000000000000000000000000000000001780825560ff740100000000000000000000000000000000000000009091041690036107a6576040517f9e87fac800000000000000000000000000000000000000000000000000000000815260040160405180910390fd5b5f8054908190036107e3576040517f7c946ed700000000000000000000000000000000000000000000000000000000815260040160405180910390fd5b5f80556107f08183611a54565b60405181815233907f1f66db2d1b55aa051fdccd3766b268ce96758f0fd6741988a4ccf060e0e0a3999060200160405180910390a250506002805460ff60a81b1916600160a81b179055565b6002546001600160a81b90910460ff16111561086b576040516345f5ce8b60e11b815260040160405180910390fd5b6002805460ff60a81b191675020000000000000000000000000000000000000000001780825560ff740100000000000000000000000000000000000000009091041690036108e5576040517f9e87fac800000000000000000000000000000000000000000000000000000000815260040160405180910390fd5b604080516001600160a01b0385166020820152908101839052606081018290525f9060800160408051601f1981840301815291815281516020928301205f818152600390935291205490915060ff1680610984576040517f35433ff10000000000000000000000000000000000000000000000000000000081526001600160a01b03861660048201526024810185905260448101849052606401610213565b6040517f70a082310000000000000000000000000000000000000000000000000000000081523060048201525f907f00000000000000000000000000000000000000000000000000000000000000006001600160a01b0316906370a0823190602401602060405180830381865afa158015610a01573d5f803e3d5ffd5b505050506040513d601f19601f82011682018060405250810190610a259190612d12565b9050848110610ba3576040517f095ea7b30000000000000000000000000000000000000000000000000000000081526001600160a01b038781166004830152602482018790527f0000000000000000000000000000000000000000000000000000000000000000169063095ea7b3906044016020604051808303815f875af1158015610ab3573d5f803e3d5ffd5b505050506040513d601f19601f82011682018060405250810190610ad79190612d29565b506040517fb6b55f25000000000000000000000000000000000000000000000000000000008152600481018690526001600160a01b0387169063b6b55f25906024015f604051808303815f87803b158015610b30575f80fd5b505af1158015610b42573d5f803e3d5ffd5b50505050856001600160a01b03167f36d504751ef1ab82703e2675ab3d5e230c810cd1962cec9f40d96f9ca0e881f386604051610b8191815260200190565b60405180910390a25f838152600360205260409020805460ff19169055610bdf565b6040517fcf4791810000000000000000000000000000000000000000000000000000000081526004810182905260248101869052604401610213565b50506002805460ff60a81b1916600160a81b17905550505050565b6002546001600160a01b03163314610c3a5760025460405163521eb56d60e11b81523360048201526001600160a01b039091166024820152604401610213565b600280547fffffffffffffffffffffff00ffffffffffffffffffffffffffffffffffffffff16740100000000000000000000000000000000000000001790556040517f20e9b9dbd8158c2b961d8645a7d06624a045634bb65f07ef751ae014a65f61f5905f90a1565b5f845167ffffffffffffffff811115610cbe57610cbe6129c0565b604051908082528060200260200182016040528015610d1557816020015b6040805160a0810182525f808252602080830182905292820181905260608201819052608082015282525f19909201910181610cdc5790505b5090505f5b8551811015611223575f7f00000000000000000000000000000000000000000000000000000000000000006001600160a01b031663a9e11893888481518110610d6557610d65612d48565b60200260200101516040518263ffffffff1660e01b8152600401610d899190612da3565b5f60405180830381865afa158015610da3573d5f803e3d5ffd5b505050506040513d5f823e601f3d908101601f19168201604052610dca9190810190612eee565b60608101516040517fad66a5f100000000000000000000000000000000000000000000000000000000815261ffff90911660048201529091507f00000000000000000000000000000000000000000000000000000000000000006001600160a01b03169063ad66a5f190602401602060405180830381865afa158015610e52573d5f803e3d5ffd5b505050506040513d601f19601f82011682018060405250810190610e769190612d12565b816080015114610ee2576040517f08c379a000000000000000000000000000000000000000000000000000000000815260206004820152601660248201527f4e6f74206120546f6b656e2042726964676520564141000000000000000000006044820152606401610213565b60e08101516040517fea63738d0000000000000000000000000000000000000000000000000000000081525f916001600160a01b037f0000000000000000000000000000000000000000000000000000000000000000169163ea63738d91610f4c91600401612da3565b5f60405180830381865afa158015610f66573d5f803e3d5ffd5b505050506040513d5f823e601f3d908101601f19168201604052610f8d919081019061300d565b905030816080015114801561102c57507f00000000000000000000000000000000000000000000000000000000000000006001600160a01b0316639a8a05926040518163ffffffff1660e01b8152600401602060405180830381865afa158015610ff9573d5f803e3d5ffd5b505050506040513d601f19601f8201168201806040525081019061101d91906130d1565b61ffff168160a0015161ffff16145b6110b8576040517f08c379a000000000000000000000000000000000000000000000000000000000815260206004820152602260248201527f546f6b656e20776173206e6f742073656e7420746f207468697320616464726560448201527f73730000000000000000000000000000000000000000000000000000000000006064820152608401610213565b7f00000000000000000000000000000000000000000000000000000000000000006001600160a01b031663c3f511c18985815181106110f9576110f9612d48565b60200260200101516040518263ffffffff1660e01b815260040161111d9190612da3565b5f604051808303815f875af1158015611138573d5f803e3d5ffd5b505050506040513d5f823e601f3d908101601f1916820160405261115f91908101906130ec565b505f61117382606001518360400151611da2565b90505f61117f82611ef2565b6020840151909150600860ff831611156111b65761119e60088361314b565b6111a990600a613244565b6111b39082613252565b90505b6040518060a0016040528085604001518152602001856060015161ffff168152602001846001600160a01b03168152602001828152602001856020015181525087878151811061120857611208612d48565b60200260200101819052505050505050806001019050610d1a565b506112318682868686611fbe565b505050505050565b602461124e600267ffffffffffffffff613269565b61125891906132b4565b67ffffffffffffffff1681565b6002546001600160a01b031633146112a55760025460405163521eb56d60e11b81523360048201526001600160a01b039091166024820152604401610213565b600280547fffffffffffffffffffffff00ffffffffffffffffffffffffffffffffffffffff16740200000000000000000000000000000000000000001790556040517f8ef6a6615a637325c66275a8d4cadb0844f08a758e5a9df369412975bcdcbc48905f90a1565b6002545f906001600160a81b90910460ff16111561133f576040516345f5ce8b60e11b815260040160405180910390fd5b6002805460ff60a81b1981167502000000000000000000000000000000000000000000179091556001600160a01b031633146113a35760025460405163521eb56d60e11b81523360048201526001600160a01b039091166024820152604401610213565b479050805f036113df576040517f7c946ed700000000000000000000000000000000000000000000000000000000815260040160405180910390fd5b6040515f90339083908381818185875af1925050503d805f811461141e576040519150601f19603f3d011682016040523d82523d5f602084013e611423565b606091505b5050905080611473576040517fcd3f16590000000000000000000000000000000000000000000000000000000081525f600482015230602482015233604482015260648101839052608401610213565b60405182815233907ff36f4d6622e16a536bbb049064af779cdd483a0b388d347d3752a65f1058bf5b9060200160405180910390a2506002805460ff60a81b1916600160a81b17905590565b6002546001600160a01b031633146114ff5760025460405163521eb56d60e11b81523360048201526001600160a01b039091166024820152604401610213565b6001600160a01b03811661153f576040517fd92e233d00000000000000000000000000000000000000000000000000000000815260040160405180910390fd5b600280547fffffffffffffffffffffffff0000000000000000000000000000000000000000166001600160a01b0383169081179091556040517f4ffd725fc4a22075e9ec71c59edf9c38cdeb588a91b24fc5b61388c5be41282b905f90a250565b6002546001600160a01b031633146115e05760025460405163521eb56d60e11b81523360048201526001600160a01b039091166024820152604401610213565b6115e9816121dc565b50565b6002546001600160a81b90910460ff16111561161b576040516345f5ce8b60e11b815260040160405180910390fd5b6002805460ff60a81b1981167502000000000000000000000000000000000000000000179091556001600160a01b0316331461167f5760025460405163521eb56d60e11b81523360048201526001600160a01b039091166024820152604401610213565b60025474010000000000000000000000000000000000000000900460ff166001036116d6576040517fa45f47fd00000000000000000000000000000000000000000000000000000000815260040160405180910390fd5b806001600160a01b03163b5f03611724576040517f38e04bf20000000000000000000000000000000000000000000000000000000081526001600160a01b0382166004820152602401610213565b306001600160a01b03821603611768576040517f38e04bf2000000000000000000000000000000000000000000000000000000008152306004820152602401610213565b6040517f70a082310000000000000000000000000000000000000000000000000000000081523060048201525f907f00000000000000000000000000000000000000000000000000000000000000006001600160a01b0316906370a0823190602401602060405180830381865afa1580156117e5573d5f803e3d5ffd5b505050506040513d601f19601f820116820180604052508101906118099190612d12565b90508015611939576040517fa9059cbb0000000000000000000000000000000000000000000000000000000081526001600160a01b038381166004830152602482018390525f917f00000000000000000000000000000000000000000000000000000000000000009091169063a9059cbb906044016020604051808303815f875af115801561189a573d5f803e3d5ffd5b505050506040513d601f19601f820116820180604052508101906118be9190612d29565b905080611937576040517fcd3f16590000000000000000000000000000000000000000000000000000000081526001600160a01b037f0000000000000000000000000000000000000000000000000000000000000000811660048301523060248301528416604482015260648101839052608401610213565b505b600280547fffffffffffffffffffffffff00000000000000000000000000000000000000001690556040518181526001600160a01b0383169033907f928fd5531324ee87d76cc5307dc37580174da76b85cd546da631b2670bc266b59060200160405180910390a35050565b6004546001600160a01b03163314611a3e576040517f08c379a0000000000000000000000000000000000000000000000000000000008152602060048201526024808201527f4e6f7420616c6c6f77656420746f20736574207265676973746572656420736560448201527f6e646572000000000000000000000000000000000000000000000000000000006064820152608401610213565b61ffff9091165f90815260056020526040902055565b6040815114611a9c578051604080517f34c9027a0000000000000000000000000000000000000000000000000000000081526102139290600401918252602082015260400190565b5f8082806020019051810190611ab291906132dc565b90925090506001600160a01b038216611ac9573391505b620493e0811015611ada5750620493e05b621e8480811115611aeb5750621e84805b6040517fc23ee3c300000000000000000000000000000000000000000000000000000000815261ffff7f00000000000000000000000000000000000000000000000000000000000000001660048201525f6024820181905260448201839052907f00000000000000000000000000000000000000000000000000000000000000006001600160a01b03169063c23ee3c39060640160408051808303815f875af1158015611b9a573d5f803e3d5ffd5b505050506040513d601f19601f82011682018060405250810190611bbe9190613308565b50905034811115611c04576040517f491a2bb100000000000000000000000000000000000000000000000000000000815234600482015260248101829052604401610213565b5f7f00000000000000000000000000000000000000000000000000000000000000006001600160a01b0316634b5ca6f4837f00000000000000000000000000000000000000000000000000000000000000007f00000000000000000000000000000000000000000000000000000000000000008a604051602001611c8a91815260200190565b6040516020818303038152906040525f897f00000000000000000000000000000000000000000000000000000000000000008c6040518963ffffffff1660e01b8152600401611cdf979695949392919061332a565b60206040518083038185885af1158015611cfb573d5f803e3d5ffd5b50505050506040513d601f19601f82011682018060405250810190611d209190613383565b90507f00000000000000000000000000000000000000000000000000000000000000006001600160a01b0316336001600160a01b03168267ffffffffffffffff167fa83d78b13a863892266b4308df232e47309c90988775e5bb775241801d41e47089604051611d9291815260200190565b60405180910390a4505050505050565b5f7f00000000000000000000000000000000000000000000000000000000000000006001600160a01b0316639a8a05926040518163ffffffff1660e01b8152600401602060405180830381865afa158015611dff573d5f803e3d5ffd5b505050506040513d601f19601f82011682018060405250810190611e2391906130d1565b61ffff168361ffff1614611ee0576040517f1ff1e28600000000000000000000000000000000000000000000000000000000815261ffff84166004820152602481018390527f00000000000000000000000000000000000000000000000000000000000000006001600160a01b031690631ff1e28690604401602060405180830381865afa158015611eb7573d5f803e3d5ffd5b505050506040513d601f19601f82011682018060405250810190611edb919061339c565b611ee9565b611ee9826127af565b90505b92915050565b60408051600481526024810182526020810180517bffffffffffffffffffffffffffffffffffffffffffffffffffffffff167f313ce5670000000000000000000000000000000000000000000000000000000017905290515f9182916001600160a01b03851691611f62916133b7565b5f60405180830381855afa9150503d805f8114611f9a576040519150601f19603f3d011682016040523d82523d5f602084013e611f9f565b606091505b5091505080806020019051810190611fb791906133cd565b9392505050565b5f8181526006602052604090205460ff1615612009576040517f56bc34a100000000000000000000000000000000000000000000000000000000815260048101829052602401610213565b5f818152600660205260409020805460ff1916600117905561ffff82167f0000000000000000000000000000000000000000000000000000000000000000146120aa576040517f857c0bad00000000000000000000000000000000000000000000000000000000815261ffff831660048201527f00000000000000000000000000000000000000000000000000000000000000006024820152604401610213565b83516001146120f25783516040517f312b0033000000000000000000000000000000000000000000000000000000008152600481019190915260016024820152604401610213565b7f00000000000000000000000000000000000000000000000000000000000000006001600160a01b0316845f8151811061212e5761212e612d48565b6020026020010151604001516001600160a01b0316146121d057835f8151811061215a5761215a612d48565b6020026020010151604001517f00000000000000000000000000000000000000000000000000000000000000006040517f7674dcce0000000000000000000000000000000000000000000000000000000081526004016102139291906001600160a01b0392831681529116602082015260400190565b826112313382886127f3565b6002546001600160a81b90910460ff16111561220b576040516345f5ce8b60e11b815260040160405180910390fd5b6002805460ff60a81b1916750200000000000000000000000000000000000000000017905580515f9081906122499060209085018101908501613442565b600154600254929450909250905f9074010000000000000000000000000000000000000000900460ff16815b855181101561276a575f86828151811061229157612291612d48565b602002602001015190505f8683815181106122ae576122ae612d48565b602002602001015190505f826040516024016122d991906001600160a01b0391909116815260200190565b60408051601f198184030181529181526020820180517bffffffffffffffffffffffffffffffffffffffffffffffffffffffff167f1eda94d700000000000000000000000000000000000000000000000000000000179052519091505f9081906001600160a01b037f0000000000000000000000000000000000000000000000000000000000000000169061236f9085906133b7565b5f604051808303815f865af19150503d805f81146123a8576040519150601f19603f3d011682016040523d82523d5f602084013e6123ad565b606091505b50915091505f8280156123c1575081516020145b156123dd57818060200190518101906123da9190612d12565b90505b805f0361243e576123ee858a613501565b9850856001600160a01b03167f29bd7fae5899787bb9cb5aa121b781bf47bb44cc44f0f3ddd1e1ea383acd22fb8660405161242b91815260200190565b60405180910390a2505050505050612762565b808511156124a7575f6124518287613514565b905061245d818b613501565b9950819550866001600160a01b03167f29bd7fae5899787bb9cb5aa121b781bf47bb44cc44f0f3ddd1e1ea383acd22fb8260405161249d91815260200190565b60405180910390a2505b6040517f70a0823100000000000000000000000000000000000000000000000000000000815230600482015285907f00000000000000000000000000000000000000000000000000000000000000006001600160a01b0316906370a0823190602401602060405180830381865afa158015612524573d5f803e3d5ffd5b505050506040513d601f19601f820116820180604052508101906125489190612d12565b101580156125565750876001145b156126bb576040517f095ea7b30000000000000000000000000000000000000000000000000000000081526001600160a01b038781166004830152602482018790527f0000000000000000000000000000000000000000000000000000000000000000169063095ea7b3906044016020604051808303815f875af11580156125e0573d5f803e3d5ffd5b505050506040513d601f19601f820116820180604052508101906126049190612d29565b506040517fb6b55f25000000000000000000000000000000000000000000000000000000008152600481018690526001600160a01b0387169063b6b55f25906024015f604051808303815f87803b15801561265d575f80fd5b505af115801561266f573d5f803e3d5ffd5b50505050856001600160a01b03167f36d504751ef1ab82703e2675ab3d5e230c810cd1962cec9f40d96f9ca0e881f3866040516126ae91815260200190565b60405180910390a261275b565b604080516001600160a01b0388166020820152908101869052606081018b90525f9060800160408051601f1981840301815282825280516020918201205f81815260038352839020805460ff191660011790558984529083018e90529082018b905291506001600160a01b0388169082907f207f76ffdb73024e39870ab39aa1ad395275ce4714e752c30ddd8fea79a916e89060600160405180910390a3505b5050505050505b600101612275565b50612776836001613501565b6001558115610bdf57815f8082825461278f9190613501565b909155505050506002805460ff60a81b1916600160a81b17905550505050565b5f60a082901c156127ef576040517f33b960d000000000000000000000000000000000000000000000000000000000815260048101839052602401610213565b5090565b7f00000000000000000000000000000000000000000000000000000000000000006001600160a01b0316836001600160a01b031614612891576040517f2f3111fa0000000000000000000000000000000000000000000000000000000081526001600160a01b0380851660048301527f0000000000000000000000000000000000000000000000000000000000000000166024820152604401610213565b7f00000000000000000000000000000000000000000000000000000000000000006001600160a01b0316826001600160a01b03161461292f576040517f0d16cbdd0000000000000000000000000000000000000000000000000000000081526001600160a01b0380841660048301527f0000000000000000000000000000000000000000000000000000000000000000166024820152604401610213565b7f00000000000000000000000000000000000000000000000000000000000000006001600160a01b03167f98bbde530ec85b002f6fb0864beccaaf3ac3d2a4ac35cb3b03cf7c61ee415e337f0000000000000000000000000000000000000000000000000000000000000000836040516129aa929190613527565b60405180910390a26129bb816121dc565b505050565b7f4e487b71000000000000000000000000000000000000000000000000000000005f52604160045260245ffd5b6040516080810167ffffffffffffffff81118282101715612a1057612a106129c0565b60405290565b604051610160810167ffffffffffffffff81118282101715612a1057612a106129c0565b604051610100810167ffffffffffffffff81118282101715612a1057612a106129c0565b604051601f8201601f1916810167ffffffffffffffff81118282101715612a8757612a876129c0565b604052919050565b5f67ffffffffffffffff821115612aa857612aa86129c0565b50601f01601f191660200190565b5f82601f830112612ac5575f80fd5b8135612ad8612ad382612a8f565b612a5e565b818152846020838601011115612aec575f80fd5b816020850160208301375f918101602001919091529392505050565b5f60208284031215612b18575f80fd5b813567ffffffffffffffff811115612b2e575f80fd5b612b3a84828501612ab6565b949350505050565b6001600160a01b03811681146115e9575f80fd5b5f805f60608486031215612b68575f80fd5b8335612b7381612b42565b95602085013595506040909401359392505050565b5f60208284031215612b98575f80fd5b5035919050565b5f67ffffffffffffffff821115612bb857612bb86129c0565b5060051b60200190565b61ffff811681146115e9575f80fd5b8035612bdc81612bc2565b919050565b5f805f805f60a08688031215612bf5575f80fd5b853567ffffffffffffffff80821115612c0c575f80fd5b612c1889838a01612ab6565b9650602091508188013581811115612c2e575f80fd5b8801601f81018a13612c3e575f80fd5b8035612c4c612ad382612b9f565b81815260059190911b8201840190848101908c831115612c6a575f80fd5b8584015b83811015612ca057803586811115612c84575f80fd5b612c928f8983890101612ab6565b845250918601918601612c6e565b50985050505060408801359450612cbc91505060608701612bd1565b949793965091946080013592915050565b5f60208284031215612cdd575f80fd5b8135611fb781612b42565b5f8060408385031215612cf9575f80fd5b8235612d0481612bc2565b946020939093013593505050565b5f60208284031215612d22575f80fd5b5051919050565b5f60208284031215612d39575f80fd5b81518015158114611fb7575f80fd5b7f4e487b71000000000000000000000000000000000000000000000000000000005f52603260045260245ffd5b5f81518084528060208401602086015e5f602082860101526020601f19601f83011685010191505092915050565b602081525f611ee96020830184612d75565b805160ff81168114612bdc575f80fd5b805163ffffffff81168114612bdc575f80fd5b8051612bdc81612bc2565b805167ffffffffffffffff81168114612bdc575f80fd5b5f82601f830112612e09575f80fd5b8151612e17612ad382612a8f565b818152846020838601011115612e2b575f80fd5b8160208501602083015e5f918101602001919091529392505050565b5f82601f830112612e56575f80fd5b81516020612e66612ad383612b9f565b82815260079290921b84018101918181019086841115612e84575f80fd5b8286015b84811015612ee35760808189031215612e9f575f80fd5b612ea76129ed565b8151815284820151858201526040612ec0818401612db5565b908201526060612ed1838201612db5565b90820152835291830191608001612e88565b509695505050505050565b5f60208284031215612efe575f80fd5b815167ffffffffffffffff80821115612f15575f80fd5b908301906101608286031215612f29575f80fd5b612f31612a16565b612f3a83612db5565b8152612f4860208401612dc5565b6020820152612f5960408401612dc5565b6040820152612f6a60608401612dd8565b606082015260808301516080820152612f8560a08401612de3565b60a0820152612f9660c08401612db5565b60c082015260e083015182811115612fac575f80fd5b612fb887828601612dfa565b60e083015250610100612fcc818501612dc5565b908201526101208381015183811115612fe3575f80fd5b612fef88828701612e47565b91830191909152506101409283015192810192909252509392505050565b5f6020828403121561301d575f80fd5b815167ffffffffffffffff80821115613034575f80fd5b908301906101008286031215613048575f80fd5b613050612a3a565b61305983612db5565b8152602083015160208201526040830151604082015261307b60608401612dd8565b60608201526080830151608082015261309660a08401612dd8565b60a082015260c083015160c082015260e0830151828111156130b6575f80fd5b6130c287828601612dfa565b60e08301525095945050505050565b5f602082840312156130e1575f80fd5b8151611fb781612bc2565b5f602082840312156130fc575f80fd5b815167ffffffffffffffff811115613112575f80fd5b612b3a84828501612dfa565b7f4e487b71000000000000000000000000000000000000000000000000000000005f52601160045260245ffd5b60ff8281168282160390811115611eec57611eec61311e565b600181815b8085111561319e57815f19048211156131845761318461311e565b8085161561319157918102915b93841c9390800290613169565b509250929050565b5f826131b457506001611eec565b816131c057505f611eec565b81600181146131d657600281146131e0576131fc565b6001915050611eec565b60ff8411156131f1576131f161311e565b50506001821b611eec565b5060208310610133831016604e8410600b841016171561321f575081810a611eec565b6132298383613164565b805f190482111561323c5761323c61311e565b029392505050565b5f611ee960ff8416836131a6565b8082028115828204841417611eec57611eec61311e565b5f67ffffffffffffffff808416806132a8577f4e487b71000000000000000000000000000000000000000000000000000000005f52601260045260245ffd5b92169190910492915050565b67ffffffffffffffff8281168282160390808211156132d5576132d561311e565b5092915050565b5f80604083850312156132ed575f80fd5b82516132f881612b42565b6020939093015192949293505050565b5f8060408385031215613319575f80fd5b505080516020909101519092909150565b5f61ffff808a1683526001600160a01b03808a16602085015260e0604085015261335760e085018a612d75565b925087606085015286608085015281861660a085015280851660c0850152505098975050505050505050565b5f60208284031215613393575f80fd5b611ee982612de3565b5f602082840312156133ac575f80fd5b8151611fb781612b42565b5f82518060208501845e5f920191825250919050565b5f602082840312156133dd575f80fd5b611ee982612db5565b5f82601f8301126133f5575f80fd5b81516020613405612ad383612b9f565b8083825260208201915060208460051b870101935086841115613426575f80fd5b602086015b84811015612ee3578051835291830191830161342b565b5f8060408385031215613453575f80fd5b825167ffffffffffffffff8082111561346a575f80fd5b818501915085601f83011261347d575f80fd5b8151602061348d612ad383612b9f565b82815260059290921b840181019181810190898411156134ab575f80fd5b948201945b838610156134d25785516134c381612b42565b825294820194908201906134b0565b918801519196509093505050808211156134ea575f80fd5b506134f7858286016133e6565b9150509250929050565b80820180821115611eec57611eec61311e565b81810381811115611eec57611eec61311e565b828152604060208201525f612b3a6040830184612d7556fea2646970667358221220f717c572ffdbd845fa6d228cda93451562e002a575d37a71da4d2935f9bfee0564736f6c63430008190033",
  "linkReferences": {},
  "deployedLinkReferences": {}
}