{
  "_format": "hh-sol-artifact-1",
  "contractName": "BuyBackBurnerUniswap",
  "sourceName": "contracts/utils/BuyBackBurnerUniswap.sol",
  "abi": [
    {
      "inputs": [],
      "name": "AlreadyInitialized",
      "type": "error"
    },
    {
      "inputs": [
        {
          "internalType": "address",
          "name": "sender",
          "type": "address"
        },
        {
          "internalType": "address",
          "name": "owner",
          "type": "address"
        }
      ],
      "name": "OwnerOnly",
      "type": "error"
    },
    {
      "inputs": [],
      "name": "T",
      "type": "error"
    },
    {
      "inputs": [],
      "name": "ZeroAddress",
      "type": "error"
    },
    {
      "anonymous": false,
      "inputs": [
        {
          "indexed": false,
          "internalType": "uint256",
          "name": "olasAmount",
          "type": "uint256"
        }
      ],
      "name": "BuyBack",
      "type": "event"
    },
    {
      "anonymous": false,
      "inputs": [
        {
          "indexed": true,
          "internalType": "address",
          "name": "implementation",
          "type": "address"
        }
      ],
      "name": "ImplementationUpdated",
      "type": "event"
    },
    {
      "anonymous": false,
      "inputs": [
        {
          "indexed": true,
          "internalType": "address",
          "name": "oracle",
          "type": "address"
        },
        {
          "indexed": true,
          "internalType": "address",
          "name": "sender",
          "type": "address"
        }
      ],
      "name": "OraclePriceUpdated",
      "type": "event"
    },
    {
      "anonymous": false,
      "inputs": [
        {
          "indexed": true,
          "internalType": "address",
          "name": "oracle",
          "type": "address"
        }
      ],
      "name": "OracleUpdated",
      "type": "event"
    },
    {
      "anonymous": false,
      "inputs": [
        {
          "indexed": true,
          "internalType": "address",
          "name": "owner",
          "type": "address"
        }
      ],
      "name": "OwnerUpdated",
      "type": "event"
    },
    {
      "inputs": [],
      "name": "BUY_BACK_BURNER_PROXY",
      "outputs": [
        {
          "internalType": "bytes32",
          "name": "",
          "type": "bytes32"
        }
      ],
      "stateMutability": "view",
      "type": "function"
    },
    {
      "inputs": [],
      "name": "MAX_ALLOWED_DEVIATION",
      "outputs": [
        {
          "internalType": "uint256",
          "name": "",
          "type": "uint256"
        }
      ],
      "stateMutability": "view",
      "type": "function"
    },
    {
      "inputs": [],
      "name": "OLAS_BURNER",
      "outputs": [
        {
          "internalType": "address",
          "name": "",
          "type": "address"
        }
      ],
      "stateMutability": "view",
      "type": "function"
    },
    {
      "inputs": [],
      "name": "SECONDS_AGO",
      "outputs": [
        {
          "internalType": "uint32",
          "name": "",
          "type": "uint32"
        }
      ],
      "stateMutability": "view",
      "type": "function"
    },
    {
      "inputs": [],
      "name": "VERSION",
      "outputs": [
        {
          "internalType": "string",
          "name": "",
          "type": "string"
        }
      ],
      "stateMutability": "view",
      "type": "function"
    },
    {
      "inputs": [
        {
          "internalType": "uint256",
          "name": "nativeTokenAmount",
          "type": "uint256"
        }
      ],
      "name": "buyBack",
      "outputs": [],
      "stateMutability": "nonpayable",
      "type": "function"
    },
    {
      "inputs": [
        {
          "internalType": "address",
          "name": "newImplementation",
          "type": "address"
        }
      ],
      "name": "changeImplementation",
      "outputs": [],
      "stateMutability": "nonpayable",
      "type": "function"
    },
    {
      "inputs": [
        {
          "internalType": "address",
          "name": "newOracle",
          "type": "address"
        }
      ],
      "name": "changeOracle",
      "outputs": [],
      "stateMutability": "nonpayable",
      "type": "function"
    },
    {
      "inputs": [
        {
          "internalType": "address",
          "name": "newOwner",
          "type": "address"
        }
      ],
      "name": "changeOwner",
      "outputs": [],
      "stateMutability": "nonpayable",
      "type": "function"
    },
    {
      "inputs": [
        {
          "internalType": "address",
          "name": "token0",
          "type": "address"
        },
        {
          "internalType": "address",
          "name": "token1",
          "type": "address"
        },
        {
          "internalType": "address",
          "name": "uniV3PositionManager",
          "type": "address"
        },
        {
          "internalType": "uint24",
          "name": "fee",
          "type": "uint24"
        }
      ],
      "name": "checkPoolPrices",
      "outputs": [],
      "stateMutability": "view",
      "type": "function"
    },
    {
      "inputs": [
        {
          "internalType": "bytes",
          "name": "payload",
          "type": "bytes"
        }
      ],
      "name": "initialize",
      "outputs": [],
      "stateMutability": "nonpayable",
      "type": "function"
    },
    {
      "inputs": [
        {
          "internalType": "address",
          "name": "",
          "type": "address"
        }
      ],
      "name": "mapAccountActivities",
      "outputs": [
        {
          "internalType": "uint256",
          "name": "",
          "type": "uint256"
        }
      ],
      "stateMutability": "view",
      "type": "function"
    },
    {
      "inputs": [],
      "name": "maxSlippage",
      "outputs": [
        {
          "internalType": "uint256",
          "name": "",
          "type": "uint256"
        }
      ],
      "stateMutability": "view",
      "type": "function"
    },
    {
      "inputs": [],
      "name": "nativeToken",
      "outputs": [
        {
          "internalType": "address",
          "name": "",
          "type": "address"
        }
      ],
      "stateMutability": "view",
      "type": "function"
    },
    {
      "inputs": [],
      "name": "olas",
      "outputs": [
        {
          "internalType": "address",
          "name": "",
          "type": "address"
        }
      ],
      "stateMutability": "view",
      "type": "function"
    },
    {
      "inputs": [],
      "name": "oracle",
      "outputs": [
        {
          "internalType": "address",
          "name": "",
          "type": "address"
        }
      ],
      "stateMutability": "view",
      "type": "function"
    },
    {
      "inputs": [],
      "name": "owner",
      "outputs": [
        {
          "internalType": "address",
          "name": "",
          "type": "address"
        }
      ],
      "stateMutability": "view",
      "type": "function"
    },
    {
      "inputs": [],
      "name": "router",
      "outputs": [
        {
          "internalType": "address",
          "name": "",
          "type": "address"
        }
      ],
      "stateMutability": "view",
      "type": "function"
    },
    {
      "inputs": [],
      "name": "updateOraclePrice",
      "outputs": [],
      "stateMutability": "nonpayable",
      "type": "function"
    }
  ],
  "bytecode": "0x608060405260016005553480156013575f5ffd5b50611e52806100215f395ff3fe608060405234801561000f575f5ffd5b5060043610610148575f3560e01c80638b9ee610116100c7578063c0bbd8841161007d578063f887ea4011610063578063f887ea40146102ae578063f9cc3e9c146102c1578063ffa1ad74146102e8575f5ffd5b8063c0bbd88414610293578063e1758bd81461029b575f5ffd5b80638da5cb5b116100ad5780638da5cb5b14610250578063a6f9dae114610262578063aeb2d71114610275575f5ffd5b80638b9ee6101461022c5780638c04166f14610247575f5ffd5b8063439fab911161011c57806347c421b51161010257806347c421b5146101f75780637c9e639f1461020a5780637dc0d1d014610219575f5ffd5b8063439fab91146101d157806343b23a1b146101e4575f5ffd5b806231d1151461014c578063053f90401461017c57806317a68dd81461019157806340b67a9b146101a4575b5f5ffd5b60015461015f906001600160a01b031681565b6040516001600160a01b0390911681526020015b60405180910390f35b61018f61018a366004611679565b610331565b005b61018f61019f3660046116a4565b6104e4565b6101c36101b23660046116a4565b60066020525f908152604090205481565b604051908152602001610173565b61018f6101df36600461170b565b6105a3565b61018f6101f236600461179f565b610614565b61018f6102053660046116a4565b610955565b6101c367016345785d8a000081565b60035461015f906001600160a01b031681565b61015f7351eb65012ca5ceb07320c497f4151ac207fea4e081565b6101c360045481565b5f5461015f906001600160a01b031681565b61018f6102703660046116a4565b610a10565b61027e61070881565b60405163ffffffff9091168152602001610173565b61018f610ac9565b60025461015f906001600160a01b031681565b60075461015f906001600160a01b031681565b6101c37fc6d7bd4bd971fa336816fe30b665cc6caccce8b123cc8ea692d132f342c4fc1981565b6103246040518060400160405280600581526020017f302e322e3000000000000000000000000000000000000000000000000000000081525081565b60405161017391906117ff565b6005546001146103885760405162461bcd60e51b815260206004820152601060248201527f5265656e7472616e63792067756172640000000000000000000000000000000060448201526064015b60405180910390fd5b60026005819055546040517f70a082310000000000000000000000000000000000000000000000000000000081523060048201525f916001600160a01b0316906370a0823190602401602060405180830381865afa1580156103ec573d5f5f3e3d5ffd5b505050506040513d601f19601f820116820180604052508101906104109190611834565b905081158061041e57508082115b15610427578091505b5f82116104765760405162461bcd60e51b815260206004820181905260248201527f496e73756666696369656e74206e617469766520746f6b656e20616d6f756e74604482015260640161037f565b335f9081526006602052604081208054916104908361185f565b91905055505f61049f83610bf6565b90507fce4ecff3fe64868b2d2c7c1125babbbff1d01a1a2566d1edd4ed0f91deaa9350816040516104d291815260200190565b60405180910390a15050600160055550565b5f546001600160a01b03163314610522575f5460405163521eb56d60e11b81523360048201526001600160a01b03909116602482015260440161037f565b6001600160a01b0381166105495760405163d92e233d60e01b815260040160405180910390fd5b7fc6d7bd4bd971fa336816fe30b665cc6caccce8b123cc8ea692d132f342c4fc198190556040516001600160a01b038216907f310ba5f1d2ed074b51e2eccd052a47ae9ab7c6b800d1fca3db3999d6a592ca03905f90a250565b5f546001600160a01b0316156105e5576040517f0dc149f000000000000000000000000000000000000000000000000000000000815260040160405180910390fd5b5f805473ffffffffffffffffffffffffffffffffffffffff191633179055600160055561061181610ed0565b50565b5f826001600160a01b031663c45a01556040518163ffffffff1660e01b8152600401602060405180830381865afa158015610651573d5f5f3e3d5ffd5b505050506040513d601f19601f820116820180604052508101906106759190611877565b6040517f1698ee820000000000000000000000000000000000000000000000000000000081526001600160a01b038781166004830152868116602483015262ffffff851660448301529192505f91831690631698ee8290606401602060405180830381865afa1580156106ea573d5f5f3e3d5ffd5b505050506040513d601f19601f8201168201806040525081019061070e9190611877565b90506001600160a01b0381166107665760405162461bcd60e51b815260206004820152601360248201527f506f6f6c20646f6573206e6f7420657869737400000000000000000000000000604482015260640161037f565b5f5f826001600160a01b0316633850c7bd6040518163ffffffff1660e01b815260040160e060405180830381865afa1580156107a4573d5f5f3e3d5ffd5b505050506040513d601f19601f820116820180604052508101906107c891906118b7565b50506040517f252c09d700000000000000000000000000000000000000000000000000000000815261ffff841660048201529496509194505f936001600160a01b038816935063252c09d792506024019050608060405180830381865afa158015610835573d5f5f3e3d5ffd5b505050506040513d601f19601f82011682018060405250810190610859919061195b565b5050509050426107088261086d91906119b8565b63ffffffff16101561088357505050505061094f565b5f61088d85610fef565b90505f6108ad6001600160a01b038616806801000000000000000061114d565b90505f82156108ee578282116108de576108d96108ca83856119da565b670de0b6b3a76400008561114d565b6108eb565b6108eb6108ca84846119da565b90505b67016345785d8a00008111156109465760405162461bcd60e51b815260206004820152601860248201527f507269636520646576696174696f6e20746f6f20686967680000000000000000604482015260640161037f565b50505050505050505b50505050565b5f546001600160a01b03163314610993575f5460405163521eb56d60e11b81523360048201526001600160a01b03909116602482015260440161037f565b6001600160a01b0381166109ba5760405163d92e233d60e01b815260040160405180910390fd5b6003805473ffffffffffffffffffffffffffffffffffffffff19166001600160a01b0383169081179091556040517f3df77beb5db05fcdd70a30fc8adf3f83f9501b68579455adbd100b8180940394905f90a250565b5f546001600160a01b03163314610a4e575f5460405163521eb56d60e11b81523360048201526001600160a01b03909116602482015260440161037f565b6001600160a01b038116610a755760405163d92e233d60e01b815260040160405180910390fd5b5f805473ffffffffffffffffffffffffffffffffffffffff19166001600160a01b038316908117825560405190917f4ffd725fc4a22075e9ec71c59edf9c38cdeb588a91b24fc5b61388c5be41282b91a250565b335f908152600660205260408120805491610ae38361185f565b9091555050600354604080517f673a7e2800000000000000000000000000000000000000000000000000000000815290515f926001600160a01b03169163673a7e28916004808301926020929190829003018187875af1158015610b49573d5f5f3e3d5ffd5b505050506040513d601f19601f82011682018060405250810190610b6d91906119ed565b905080610bbc5760405162461bcd60e51b815260206004820152601a60248201527f4f7261636c6520707269636520757064617465206661696c6564000000000000604482015260640161037f565b60035460405133916001600160a01b0316907fccf049defd051e7117a233e0f6c01636afab6fb9b1824ae42b5bf7e034fdba37905f90a350565b600354600480546040517f136d6f21000000000000000000000000000000000000000000000000000000008152918201525f916001600160a01b03169063136d6f2190602401602060405180830381865afa158015610c57573d5f5f3e3d5ffd5b505050506040513d601f19601f82011682018060405250810190610c7b91906119ed565b610ced5760405162461bcd60e51b815260206004820152602660248201527f4265666f7265207377617020736c697070616765206c696d697420697320627260448201527f6561636865640000000000000000000000000000000000000000000000000000606482015260840161037f565b600354604080517f98d5fdca00000000000000000000000000000000000000000000000000000000815290515f926001600160a01b0316916398d5fdca9160048083019260209291908290030181865afa158015610d4d573d5f5f3e3d5ffd5b505050506040513d601f19601f82011682018060405250810190610d719190611834565b9050610d7c8361116b565b91505f60035f9054906101000a90046001600160a01b03166001600160a01b03166398d5fdca6040518163ffffffff1660e01b8152600401602060405180830381865afa158015610dcf573d5f5f3e3d5ffd5b505050506040513d601f19601f82011682018060405250810190610df39190611834565b90505f60646004546064610e0791906119da565b610e119085611a06565b610e1b9190611a31565b90505f60646004546064610e2f9190611a44565b610e399086611a06565b610e439190611a31565b9050818310158015610e555750808311155b610ec75760405162461bcd60e51b815260206004820152602560248201527f4166746572207377617020736c697070616765206c696d69742069732062726560448201527f6163686564000000000000000000000000000000000000000000000000000000606482015260840161037f565b50505050919050565b606081806020019051810190610ee69190611a7a565b600455805190915081905f90610efe57610efe611b23565b602002602001015160015f6101000a8154816001600160a01b0302191690836001600160a01b0316021790555080600181518110610f3e57610f3e611b23565b602002602001015160025f6101000a8154816001600160a01b0302191690836001600160a01b0316021790555080600281518110610f7e57610f7e611b23565b602002602001015160035f6101000a8154816001600160a01b0302191690836001600160a01b0316021790555080600381518110610fbe57610fbe611b23565b602002602001015160075f6101000a8154816001600160a01b0302191690836001600160a01b031602179055505050565b6040805160028082526060820183525f9283929190602083019080368337019050509050610708815f8151811061102857611028611b23565b63ffffffff909216602092830291909101909101526040517f883bdbfd0000000000000000000000000000000000000000000000000000000081525f906001600160a01b0385169063883bdbfd90611084908590600401611b37565b5f60405180830381865afa15801561109e573d5f5f3e3d5ffd5b505050506040513d5f823e601f3d908101601f191682016040526110c59190810190611bed565b5090505f815f815181106110db576110db611b23565b6020026020010151826001815181106110f6576110f6611b23565b60200260200101516111089190611cb2565b90505f61111761070883611cdf565b90505f61112382611338565b90506111426001600160a01b038216806801000000000000000061114d565b979650505050505050565b828202811515841585830485141716611164575f5ffd5b0492915050565b6002546007546040517f095ea7b30000000000000000000000000000000000000000000000000000000081526001600160a01b039182166004820152602481018490525f92919091169063095ea7b3906044016020604051808303815f875af11580156111da573d5f5f3e3d5ffd5b505050506040513d601f19601f820116820180604052508101906111fe91906119ed565b506040805160028082526060820183525f92602083019080368337505060025482519293506001600160a01b0316918391505f9061123e5761123e611b23565b6001600160a01b039283166020918202929092010152600180548351921691839190811061126e5761126e611b23565b6001600160a01b0392831660209182029290920101526007546040517f38ed17390000000000000000000000000000000000000000000000000000000081525f9291909116906338ed1739906112d09087908590879030904290600401611d1b565b5f604051808303815f875af11580156112eb573d5f5f3e3d5ffd5b505050506040513d5f823e601f3d908101601f191682016040526113129190810190611d8b565b90508060018151811061132757611327611b23565b602002602001015192505050919050565b5f5f5f8360020b1261134d578260020b611354565b8260020b5f035b9050620d89e8811115611393576040517f2bc80f3a00000000000000000000000000000000000000000000000000000000815260040160405180910390fd5b5f816001165f036113b5577001000000000000000000000000000000006113c7565b6ffffcb933bd6fad37aa2d162d1a5940015b70ffffffffffffffffffffffffffffffffff16905060028216156113fb576ffff97272373d413259a46990580e213a0260801c5b600482161561141a576ffff2e50f5f656932ef12357cf3c7fdcc0260801c5b6008821615611439576fffe5caca7e10e4e61c3624eaa0941cd00260801c5b6010821615611458576fffcb9843d60f6159c9db58835c9266440260801c5b6020821615611477576fff973b41fa98c081472e6896dfb254c00260801c5b6040821615611496576fff2ea16466c96a3843ec78b326b528610260801c5b60808216156114b5576ffe5dee046a99a2a811c461f1969c30530260801c5b6101008216156114d5576ffcbe86c7900a88aedcffc83b479aa3a40260801c5b6102008216156114f5576ff987a7253ac413176f2b074cf7815e540260801c5b610400821615611515576ff3392b0822b70005940c7a398e4b70f30260801c5b610800821615611535576fe7159475a2c29b7443b29c7fa6e889d90260801c5b611000821615611555576fd097f3bdfd2022b8845ad8f792aa58250260801c5b612000821615611575576fa9f746462d870fdf8a65dc1f90e061e50260801c5b614000821615611595576f70d869a156d2a1b890bb3df62baf32f70260801c5b6180008216156115b5576f31be135f97d08fd981231505542fcfa60260801c5b620100008216156115d6576f09aa508b5b7a84e1c677de54f3e99bc90260801c5b620200008216156115f6576e5d6af8dedb81196699c329225ee6040260801c5b62040000821615611615576d2216e584f5fa1ea926041bedfe980260801c5b62080000821615611632576b048a170391f7dc42444e8fa20260801c5b5f8460020b131561165157805f198161164d5761164d611a1d565b0490505b640100000000810615611665576001611667565b5f5b60ff16602082901c0192505050919050565b5f60208284031215611689575f5ffd5b5035919050565b6001600160a01b0381168114610611575f5ffd5b5f602082840312156116b4575f5ffd5b81356116bf81611690565b9392505050565b634e487b7160e01b5f52604160045260245ffd5b604051601f8201601f1916810167ffffffffffffffff81118282101715611703576117036116c6565b604052919050565b5f6020828403121561171b575f5ffd5b813567ffffffffffffffff811115611731575f5ffd5b8201601f81018413611741575f5ffd5b803567ffffffffffffffff81111561175b5761175b6116c6565b61176e601f8201601f19166020016116da565b818152856020838501011115611782575f5ffd5b816020840160208301375f91810160200191909152949350505050565b5f5f5f5f608085870312156117b2575f5ffd5b84356117bd81611690565b935060208501356117cd81611690565b925060408501356117dd81611690565b9150606085013562ffffff811681146117f4575f5ffd5b939692955090935050565b602081525f82518060208401528060208501604085015e5f604082850101526040601f19601f83011684010191505092915050565b5f60208284031215611844575f5ffd5b5051919050565b634e487b7160e01b5f52601160045260245ffd5b5f600182016118705761187061184b565b5060010190565b5f60208284031215611887575f5ffd5b81516116bf81611690565b805161ffff811681146118a3575f5ffd5b919050565b805180151581146118a3575f5ffd5b5f5f5f5f5f5f5f60e0888a0312156118cd575f5ffd5b87516118d881611690565b8097505060208801518060020b81146118ef575f5ffd5b95506118fd60408901611892565b945061190b60608901611892565b935061191960808901611892565b925060a088015160ff8116811461192e575f5ffd5b915061193c60c089016118a8565b905092959891949750929550565b8051600681900b81146118a3575f5ffd5b5f5f5f5f6080858703121561196e575f5ffd5b845163ffffffff81168114611981575f5ffd5b935061198f6020860161194a565b9250604085015161199f81611690565b91506119ad606086016118a8565b905092959194509250565b63ffffffff81811683821601908111156119d4576119d461184b565b92915050565b818103818111156119d4576119d461184b565b5f602082840312156119fd575f5ffd5b6116bf826118a8565b80820281158282048414176119d4576119d461184b565b634e487b7160e01b5f52601260045260245ffd5b5f82611a3f57611a3f611a1d565b500490565b808201808211156119d4576119d461184b565b5f67ffffffffffffffff821115611a7057611a706116c6565b5060051b60200190565b5f5f60408385031215611a8b575f5ffd5b825167ffffffffffffffff811115611aa1575f5ffd5b8301601f81018513611ab1575f5ffd5b8051611ac4611abf82611a57565b6116da565b8082825260208201915060208360051b850101925087831115611ae5575f5ffd5b6020840193505b82841015611b10578351611aff81611690565b825260209384019390910190611aec565b6020969096015195979596505050505050565b634e487b7160e01b5f52603260045260245ffd5b602080825282518282018190525f918401906040840190835b81811015611b7457835163ffffffff16835260209384019390920191600101611b50565b509095945050505050565b5f82601f830112611b8e575f5ffd5b8151611b9c611abf82611a57565b8082825260208201915060208360051b860101925085831115611bbd575f5ffd5b602085015b83811015611be3578051611bd581611690565b835260209283019201611bc2565b5095945050505050565b5f5f60408385031215611bfe575f5ffd5b825167ffffffffffffffff811115611c14575f5ffd5b8301601f81018513611c24575f5ffd5b8051611c32611abf82611a57565b8082825260208201915060208360051b850101925087831115611c53575f5ffd5b6020840193505b82841015611c7c57611c6b8461194a565b825260209384019390910190611c5a565b80955050505050602083015167ffffffffffffffff811115611c9c575f5ffd5b611ca885828601611b7f565b9150509250929050565b600682810b9082900b03667fffffffffffff198112667fffffffffffff821317156119d4576119d461184b565b5f8160060b8360060b80611cf557611cf5611a1d565b667fffffffffffff1982145f1982141615611d1257611d1261184b565b90059392505050565b5f60a0820187835286602084015260a0604084015280865180835260c0850191506020880192505f5b81811015611d6b5783516001600160a01b0316835260209384019390920191600101611d44565b50506001600160a01b039590951660608401525050608001529392505050565b5f60208284031215611d9b575f5ffd5b815167ffffffffffffffff811115611db1575f5ffd5b8201601f81018413611dc1575f5ffd5b8051611dcf611abf82611a57565b8082825260208201915060208360051b850101925086831115611df0575f5ffd5b6020840193505b82841015611e12578351825260209384019390910190611df7565b969550505050505056fea26469706673582212205fbada8332bde9df1e03f3b58913ab1e8c1d16d73ad2f925cb45ae98eb760b2264736f6c634300081c0033",
  "linkReferences": {},
  "deployedLinkReferences": {}
}