{
  "_format": "hh-sol-artifact-1",
  "contractName": "BuyBackBurnerBalancer",
  "sourceName": "contracts/utils/BuyBackBurnerBalancer.sol",
  "abi": [
    {
      "inputs": [],
      "name": "AlreadyInitialized",
      "type": "error"
    },
    {
      "inputs": [
        {
          "internalType": "address",
          "name": "sender",
          "type": "address"
        },
        {
          "internalType": "address",
          "name": "owner",
          "type": "address"
        }
      ],
      "name": "OwnerOnly",
      "type": "error"
    },
    {
      "inputs": [],
      "name": "T",
      "type": "error"
    },
    {
      "inputs": [],
      "name": "ZeroAddress",
      "type": "error"
    },
    {
      "anonymous": false,
      "inputs": [
        {
          "indexed": false,
          "internalType": "uint256",
          "name": "olasAmount",
          "type": "uint256"
        }
      ],
      "name": "BuyBack",
      "type": "event"
    },
    {
      "anonymous": false,
      "inputs": [
        {
          "indexed": true,
          "internalType": "address",
          "name": "implementation",
          "type": "address"
        }
      ],
      "name": "ImplementationUpdated",
      "type": "event"
    },
    {
      "anonymous": false,
      "inputs": [
        {
          "indexed": true,
          "internalType": "address",
          "name": "oracle",
          "type": "address"
        },
        {
          "indexed": true,
          "internalType": "address",
          "name": "sender",
          "type": "address"
        }
      ],
      "name": "OraclePriceUpdated",
      "type": "event"
    },
    {
      "anonymous": false,
      "inputs": [
        {
          "indexed": true,
          "internalType": "address",
          "name": "oracle",
          "type": "address"
        }
      ],
      "name": "OracleUpdated",
      "type": "event"
    },
    {
      "anonymous": false,
      "inputs": [
        {
          "indexed": true,
          "internalType": "address",
          "name": "owner",
          "type": "address"
        }
      ],
      "name": "OwnerUpdated",
      "type": "event"
    },
    {
      "inputs": [],
      "name": "BUY_BACK_BURNER_PROXY",
      "outputs": [
        {
          "internalType": "bytes32",
          "name": "",
          "type": "bytes32"
        }
      ],
      "stateMutability": "view",
      "type": "function"
    },
    {
      "inputs": [],
      "name": "MAX_ALLOWED_DEVIATION",
      "outputs": [
        {
          "internalType": "uint256",
          "name": "",
          "type": "uint256"
        }
      ],
      "stateMutability": "view",
      "type": "function"
    },
    {
      "inputs": [],
      "name": "OLAS_BURNER",
      "outputs": [
        {
          "internalType": "address",
          "name": "",
          "type": "address"
        }
      ],
      "stateMutability": "view",
      "type": "function"
    },
    {
      "inputs": [],
      "name": "SECONDS_AGO",
      "outputs": [
        {
          "internalType": "uint32",
          "name": "",
          "type": "uint32"
        }
      ],
      "stateMutability": "view",
      "type": "function"
    },
    {
      "inputs": [],
      "name": "VERSION",
      "outputs": [
        {
          "internalType": "string",
          "name": "",
          "type": "string"
        }
      ],
      "stateMutability": "view",
      "type": "function"
    },
    {
      "inputs": [],
      "name": "balancerPoolId",
      "outputs": [
        {
          "internalType": "bytes32",
          "name": "",
          "type": "bytes32"
        }
      ],
      "stateMutability": "view",
      "type": "function"
    },
    {
      "inputs": [],
      "name": "balancerVault",
      "outputs": [
        {
          "internalType": "address",
          "name": "",
          "type": "address"
        }
      ],
      "stateMutability": "view",
      "type": "function"
    },
    {
      "inputs": [
        {
          "internalType": "uint256",
          "name": "nativeTokenAmount",
          "type": "uint256"
        }
      ],
      "name": "buyBack",
      "outputs": [],
      "stateMutability": "nonpayable",
      "type": "function"
    },
    {
      "inputs": [
        {
          "internalType": "address",
          "name": "newImplementation",
          "type": "address"
        }
      ],
      "name": "changeImplementation",
      "outputs": [],
      "stateMutability": "nonpayable",
      "type": "function"
    },
    {
      "inputs": [
        {
          "internalType": "address",
          "name": "newOracle",
          "type": "address"
        }
      ],
      "name": "changeOracle",
      "outputs": [],
      "stateMutability": "nonpayable",
      "type": "function"
    },
    {
      "inputs": [
        {
          "internalType": "address",
          "name": "newOwner",
          "type": "address"
        }
      ],
      "name": "changeOwner",
      "outputs": [],
      "stateMutability": "nonpayable",
      "type": "function"
    },
    {
      "inputs": [
        {
          "internalType": "address",
          "name": "token0",
          "type": "address"
        },
        {
          "internalType": "address",
          "name": "token1",
          "type": "address"
        },
        {
          "internalType": "address",
          "name": "uniV3PositionManager",
          "type": "address"
        },
        {
          "internalType": "uint24",
          "name": "fee",
          "type": "uint24"
        }
      ],
      "name": "checkPoolPrices",
      "outputs": [],
      "stateMutability": "view",
      "type": "function"
    },
    {
      "inputs": [
        {
          "internalType": "bytes",
          "name": "payload",
          "type": "bytes"
        }
      ],
      "name": "initialize",
      "outputs": [],
      "stateMutability": "nonpayable",
      "type": "function"
    },
    {
      "inputs": [
        {
          "internalType": "address",
          "name": "",
          "type": "address"
        }
      ],
      "name": "mapAccountActivities",
      "outputs": [
        {
          "internalType": "uint256",
          "name": "",
          "type": "uint256"
        }
      ],
      "stateMutability": "view",
      "type": "function"
    },
    {
      "inputs": [],
      "name": "maxSlippage",
      "outputs": [
        {
          "internalType": "uint256",
          "name": "",
          "type": "uint256"
        }
      ],
      "stateMutability": "view",
      "type": "function"
    },
    {
      "inputs": [],
      "name": "nativeToken",
      "outputs": [
        {
          "internalType": "address",
          "name": "",
          "type": "address"
        }
      ],
      "stateMutability": "view",
      "type": "function"
    },
    {
      "inputs": [],
      "name": "olas",
      "outputs": [
        {
          "internalType": "address",
          "name": "",
          "type": "address"
        }
      ],
      "stateMutability": "view",
      "type": "function"
    },
    {
      "inputs": [],
      "name": "oracle",
      "outputs": [
        {
          "internalType": "address",
          "name": "",
          "type": "address"
        }
      ],
      "stateMutability": "view",
      "type": "function"
    },
    {
      "inputs": [],
      "name": "owner",
      "outputs": [
        {
          "internalType": "address",
          "name": "",
          "type": "address"
        }
      ],
      "stateMutability": "view",
      "type": "function"
    },
    {
      "inputs": [],
      "name": "updateOraclePrice",
      "outputs": [],
      "stateMutability": "nonpayable",
      "type": "function"
    }
  ],
  "bytecode": "0x608060405260016005553480156013575f5ffd5b50611e59806100215f395ff3fe608060405234801561000f575f5ffd5b5060043610610162575f3560e01c80638b9ee610116100c7578063c0bbd8841161007d578063e1758bd811610063578063e1758bd8146102d1578063f9cc3e9c146102e4578063ffa1ad741461030b575f5ffd5b8063c0bbd884146102c0578063dbbb64b9146102c8575f5ffd5b80638da5cb5b116100ad5780638da5cb5b1461027d578063a6f9dae11461028f578063aeb2d711146102a2575f5ffd5b80638b9ee610146102595780638c04166f14610274575f5ffd5b8063439fab911161011c57806347c421b51161010257806347c421b5146102245780637c9e639f146102375780637dc0d1d014610246575f5ffd5b8063439fab91146101fe57806343b23a1b14610211575f5ffd5b8063158274a51161014c578063158274a5146101ab57806317a68dd8146101be57806340b67a9b146101d1575f5ffd5b806231d11514610166578063053f904014610196575b5f5ffd5b600154610179906001600160a01b031681565b6040516001600160a01b0390911681526020015b60405180910390f35b6101a96101a436600461168c565b610354565b005b600754610179906001600160a01b031681565b6101a96101cc3660046116b7565b610507565b6101f06101df3660046116b7565b60066020525f908152604090205481565b60405190815260200161018d565b6101a961020c36600461171e565b6105c6565b6101a961021f3660046117b2565b610637565b6101a96102323660046116b7565b610978565b6101f067016345785d8a000081565b600354610179906001600160a01b031681565b6101797351eb65012ca5ceb07320c497f4151ac207fea4e081565b6101f060045481565b5f54610179906001600160a01b031681565b6101a961029d3660046116b7565b610a33565b6102ab61070881565b60405163ffffffff909116815260200161018d565b6101a9610aec565b6101f060085481565b600254610179906001600160a01b031681565b6101f07fc6d7bd4bd971fa336816fe30b665cc6caccce8b123cc8ea692d132f342c4fc1981565b6103476040518060400160405280600581526020017f302e322e3000000000000000000000000000000000000000000000000000000081525081565b60405161018d9190611840565b6005546001146103ab5760405162461bcd60e51b815260206004820152601060248201527f5265656e7472616e63792067756172640000000000000000000000000000000060448201526064015b60405180910390fd5b60026005819055546040517f70a082310000000000000000000000000000000000000000000000000000000081523060048201525f916001600160a01b0316906370a0823190602401602060405180830381865afa15801561040f573d5f5f3e3d5ffd5b505050506040513d601f19601f820116820180604052508101906104339190611852565b905081158061044157508082115b1561044a578091505b5f82116104995760405162461bcd60e51b815260206004820181905260248201527f496e73756666696369656e74206e617469766520746f6b656e20616d6f756e7460448201526064016103a2565b335f9081526006602052604081208054916104b38361187d565b91905055505f6104c283610c19565b90507fce4ecff3fe64868b2d2c7c1125babbbff1d01a1a2566d1edd4ed0f91deaa9350816040516104f591815260200190565b60405180910390a15050600160055550565b5f546001600160a01b03163314610545575f5460405163521eb56d60e11b81523360048201526001600160a01b0390911660248201526044016103a2565b6001600160a01b03811661056c5760405163d92e233d60e01b815260040160405180910390fd5b7fc6d7bd4bd971fa336816fe30b665cc6caccce8b123cc8ea692d132f342c4fc198190556040516001600160a01b038216907f310ba5f1d2ed074b51e2eccd052a47ae9ab7c6b800d1fca3db3999d6a592ca03905f90a250565b5f546001600160a01b031615610608576040517f0dc149f000000000000000000000000000000000000000000000000000000000815260040160405180910390fd5b5f805473ffffffffffffffffffffffffffffffffffffffff191633179055600160055561063481610ef3565b50565b5f826001600160a01b031663c45a01556040518163ffffffff1660e01b8152600401602060405180830381865afa158015610674573d5f5f3e3d5ffd5b505050506040513d601f19601f820116820180604052508101906106989190611895565b6040517f1698ee820000000000000000000000000000000000000000000000000000000081526001600160a01b038781166004830152868116602483015262ffffff851660448301529192505f91831690631698ee8290606401602060405180830381865afa15801561070d573d5f5f3e3d5ffd5b505050506040513d601f19601f820116820180604052508101906107319190611895565b90506001600160a01b0381166107895760405162461bcd60e51b815260206004820152601360248201527f506f6f6c20646f6573206e6f742065786973740000000000000000000000000060448201526064016103a2565b5f5f826001600160a01b0316633850c7bd6040518163ffffffff1660e01b815260040160e060405180830381865afa1580156107c7573d5f5f3e3d5ffd5b505050506040513d601f19601f820116820180604052508101906107eb91906118d5565b50506040517f252c09d700000000000000000000000000000000000000000000000000000000815261ffff841660048201529496509194505f936001600160a01b038816935063252c09d792506024019050608060405180830381865afa158015610858573d5f5f3e3d5ffd5b505050506040513d601f19601f8201168201806040525081019061087c9190611979565b5050509050426107088261089091906119d6565b63ffffffff1610156108a6575050505050610972565b5f6108b085611015565b90505f6108d06001600160a01b0386168068010000000000000000611173565b90505f821561091157828211610901576108fc6108ed83856119f8565b670de0b6b3a764000085611173565b61090e565b61090e6108ed84846119f8565b90505b67016345785d8a00008111156109695760405162461bcd60e51b815260206004820152601860248201527f507269636520646576696174696f6e20746f6f2068696768000000000000000060448201526064016103a2565b50505050505050505b50505050565b5f546001600160a01b031633146109b6575f5460405163521eb56d60e11b81523360048201526001600160a01b0390911660248201526044016103a2565b6001600160a01b0381166109dd5760405163d92e233d60e01b815260040160405180910390fd5b6003805473ffffffffffffffffffffffffffffffffffffffff19166001600160a01b0383169081179091556040517f3df77beb5db05fcdd70a30fc8adf3f83f9501b68579455adbd100b8180940394905f90a250565b5f546001600160a01b03163314610a71575f5460405163521eb56d60e11b81523360048201526001600160a01b0390911660248201526044016103a2565b6001600160a01b038116610a985760405163d92e233d60e01b815260040160405180910390fd5b5f805473ffffffffffffffffffffffffffffffffffffffff19166001600160a01b038316908117825560405190917f4ffd725fc4a22075e9ec71c59edf9c38cdeb588a91b24fc5b61388c5be41282b91a250565b335f908152600660205260408120805491610b068361187d565b9091555050600354604080517f673a7e2800000000000000000000000000000000000000000000000000000000815290515f926001600160a01b03169163673a7e28916004808301926020929190829003018187875af1158015610b6c573d5f5f3e3d5ffd5b505050506040513d601f19601f82011682018060405250810190610b909190611a0b565b905080610bdf5760405162461bcd60e51b815260206004820152601a60248201527f4f7261636c6520707269636520757064617465206661696c656400000000000060448201526064016103a2565b60035460405133916001600160a01b0316907fccf049defd051e7117a233e0f6c01636afab6fb9b1824ae42b5bf7e034fdba37905f90a350565b600354600480546040517f136d6f21000000000000000000000000000000000000000000000000000000008152918201525f916001600160a01b03169063136d6f2190602401602060405180830381865afa158015610c7a573d5f5f3e3d5ffd5b505050506040513d601f19601f82011682018060405250810190610c9e9190611a0b565b610d105760405162461bcd60e51b815260206004820152602660248201527f4265666f7265207377617020736c697070616765206c696d697420697320627260448201527f656163686564000000000000000000000000000000000000000000000000000060648201526084016103a2565b600354604080517f98d5fdca00000000000000000000000000000000000000000000000000000000815290515f926001600160a01b0316916398d5fdca9160048083019260209291908290030181865afa158015610d70573d5f5f3e3d5ffd5b505050506040513d601f19601f82011682018060405250810190610d949190611852565b9050610d9f83611191565b91505f60035f9054906101000a90046001600160a01b03166001600160a01b03166398d5fdca6040518163ffffffff1660e01b8152600401602060405180830381865afa158015610df2573d5f5f3e3d5ffd5b505050506040513d601f19601f82011682018060405250810190610e169190611852565b90505f60646004546064610e2a91906119f8565b610e349085611a24565b610e3e9190611a4f565b90505f60646004546064610e529190611a62565b610e5c9086611a24565b610e669190611a4f565b9050818310158015610e785750808311155b610eea5760405162461bcd60e51b815260206004820152602560248201527f4166746572207377617020736c697070616765206c696d69742069732062726560448201527f616368656400000000000000000000000000000000000000000000000000000060648201526084016103a2565b50505050919050565b606081806020019051810190610f099190611a98565b600455600855805190915081905f90610f2457610f24611b49565b602002602001015160015f6101000a8154816001600160a01b0302191690836001600160a01b0316021790555080600181518110610f6457610f64611b49565b602002602001015160025f6101000a8154816001600160a01b0302191690836001600160a01b0316021790555080600281518110610fa457610fa4611b49565b602002602001015160035f6101000a8154816001600160a01b0302191690836001600160a01b0316021790555080600381518110610fe457610fe4611b49565b602002602001015160075f6101000a8154816001600160a01b0302191690836001600160a01b031602179055505050565b6040805160028082526060820183525f9283929190602083019080368337019050509050610708815f8151811061104e5761104e611b49565b63ffffffff909216602092830291909101909101526040517f883bdbfd0000000000000000000000000000000000000000000000000000000081525f906001600160a01b0385169063883bdbfd906110aa908590600401611b5d565b5f60405180830381865afa1580156110c4573d5f5f3e3d5ffd5b505050506040513d5f823e601f3d908101601f191682016040526110eb9190810190611c13565b5090505f815f8151811061110157611101611b49565b60200260200101518260018151811061111c5761111c611b49565b602002602001015161112e9190611cd8565b90505f61113d61070883611d05565b90505f6111498261134b565b90506111686001600160a01b0382168068010000000000000000611173565b979650505050505050565b82820281151584158583048514171661118a575f5ffd5b0492915050565b6002546007546040517f095ea7b30000000000000000000000000000000000000000000000000000000081526001600160a01b039182166004820152602481018490525f92919091169063095ea7b3906044016020604051808303815f875af1158015611200573d5f5f3e3d5ffd5b505050506040513d601f19601f820116820180604052508101906112249190611a0b565b506040805160c08101825260085481525f6020808301829052600280546001600160a01b0390811685870152600154811660608087019190915260808087018a9052875180890189529384527f30780000000000000000000000000000000000000000000000000000000000008486015260a087019390935286519283018752308084529383018590528287019390935291810183905260075494517f52bbbe29000000000000000000000000000000000000000000000000000000008152939490939116916352bbbe29916113039186918691904290600401611d41565b6020604051808303815f875af115801561131f573d5f5f3e3d5ffd5b505050506040513d601f19601f820116820180604052508101906113439190611852565b949350505050565b5f5f5f8360020b12611360578260020b611367565b8260020b5f035b9050620d89e88111156113a6576040517f2bc80f3a00000000000000000000000000000000000000000000000000000000815260040160405180910390fd5b5f816001165f036113c8577001000000000000000000000000000000006113da565b6ffffcb933bd6fad37aa2d162d1a5940015b70ffffffffffffffffffffffffffffffffff169050600282161561140e576ffff97272373d413259a46990580e213a0260801c5b600482161561142d576ffff2e50f5f656932ef12357cf3c7fdcc0260801c5b600882161561144c576fffe5caca7e10e4e61c3624eaa0941cd00260801c5b601082161561146b576fffcb9843d60f6159c9db58835c9266440260801c5b602082161561148a576fff973b41fa98c081472e6896dfb254c00260801c5b60408216156114a9576fff2ea16466c96a3843ec78b326b528610260801c5b60808216156114c8576ffe5dee046a99a2a811c461f1969c30530260801c5b6101008216156114e8576ffcbe86c7900a88aedcffc83b479aa3a40260801c5b610200821615611508576ff987a7253ac413176f2b074cf7815e540260801c5b610400821615611528576ff3392b0822b70005940c7a398e4b70f30260801c5b610800821615611548576fe7159475a2c29b7443b29c7fa6e889d90260801c5b611000821615611568576fd097f3bdfd2022b8845ad8f792aa58250260801c5b612000821615611588576fa9f746462d870fdf8a65dc1f90e061e50260801c5b6140008216156115a8576f70d869a156d2a1b890bb3df62baf32f70260801c5b6180008216156115c8576f31be135f97d08fd981231505542fcfa60260801c5b620100008216156115e9576f09aa508b5b7a84e1c677de54f3e99bc90260801c5b62020000821615611609576e5d6af8dedb81196699c329225ee6040260801c5b62040000821615611628576d2216e584f5fa1ea926041bedfe980260801c5b62080000821615611645576b048a170391f7dc42444e8fa20260801c5b5f8460020b131561166457805f198161166057611660611a3b565b0490505b64010000000081061561167857600161167a565b5f5b60ff16602082901c0192505050919050565b5f6020828403121561169c575f5ffd5b5035919050565b6001600160a01b0381168114610634575f5ffd5b5f602082840312156116c7575f5ffd5b81356116d2816116a3565b9392505050565b634e487b7160e01b5f52604160045260245ffd5b604051601f8201601f1916810167ffffffffffffffff81118282101715611716576117166116d9565b604052919050565b5f6020828403121561172e575f5ffd5b813567ffffffffffffffff811115611744575f5ffd5b8201601f81018413611754575f5ffd5b803567ffffffffffffffff81111561176e5761176e6116d9565b611781601f8201601f19166020016116ed565b818152856020838501011115611795575f5ffd5b816020840160208301375f91810160200191909152949350505050565b5f5f5f5f608085870312156117c5575f5ffd5b84356117d0816116a3565b935060208501356117e0816116a3565b925060408501356117f0816116a3565b9150606085013562ffffff81168114611807575f5ffd5b939692955090935050565b5f81518084528060208401602086015e5f602082860101526020601f19601f83011685010191505092915050565b602081525f6116d26020830184611812565b5f60208284031215611862575f5ffd5b5051919050565b634e487b7160e01b5f52601160045260245ffd5b5f6001820161188e5761188e611869565b5060010190565b5f602082840312156118a5575f5ffd5b81516116d2816116a3565b805161ffff811681146118c1575f5ffd5b919050565b805180151581146118c1575f5ffd5b5f5f5f5f5f5f5f60e0888a0312156118eb575f5ffd5b87516118f6816116a3565b8097505060208801518060020b811461190d575f5ffd5b955061191b604089016118b0565b9450611929606089016118b0565b9350611937608089016118b0565b925060a088015160ff8116811461194c575f5ffd5b915061195a60c089016118c6565b905092959891949750929550565b8051600681900b81146118c1575f5ffd5b5f5f5f5f6080858703121561198c575f5ffd5b845163ffffffff8116811461199f575f5ffd5b93506119ad60208601611968565b925060408501516119bd816116a3565b91506119cb606086016118c6565b905092959194509250565b63ffffffff81811683821601908111156119f2576119f2611869565b92915050565b818103818111156119f2576119f2611869565b5f60208284031215611a1b575f5ffd5b6116d2826118c6565b80820281158282048414176119f2576119f2611869565b634e487b7160e01b5f52601260045260245ffd5b5f82611a5d57611a5d611a3b565b500490565b808201808211156119f2576119f2611869565b5f67ffffffffffffffff821115611a8e57611a8e6116d9565b5060051b60200190565b5f5f5f60608486031215611aaa575f5ffd5b835167ffffffffffffffff811115611ac0575f5ffd5b8401601f81018613611ad0575f5ffd5b8051611ae3611ade82611a75565b6116ed565b8082825260208201915060208360051b850101925088831115611b04575f5ffd5b6020840193505b82841015611b2f578351611b1e816116a3565b825260209384019390910190611b0b565b602088015160409098015190999798509695505050505050565b634e487b7160e01b5f52603260045260245ffd5b602080825282518282018190525f918401906040840190835b81811015611b9a57835163ffffffff16835260209384019390920191600101611b76565b509095945050505050565b5f82601f830112611bb4575f5ffd5b8151611bc2611ade82611a75565b8082825260208201915060208360051b860101925085831115611be3575f5ffd5b602085015b83811015611c09578051611bfb816116a3565b835260209283019201611be8565b5095945050505050565b5f5f60408385031215611c24575f5ffd5b825167ffffffffffffffff811115611c3a575f5ffd5b8301601f81018513611c4a575f5ffd5b8051611c58611ade82611a75565b8082825260208201915060208360051b850101925087831115611c79575f5ffd5b6020840193505b82841015611ca257611c9184611968565b825260209384019390910190611c80565b80955050505050602083015167ffffffffffffffff811115611cc2575f5ffd5b611cce85828601611ba5565b9150509250929050565b600682810b9082900b03667fffffffffffff198112667fffffffffffff821317156119f2576119f2611869565b5f8160060b8360060b80611d1b57611d1b611a3b565b667fffffffffffff1982145f1982141615611d3857611d38611869565b90059392505050565b60e08152845160e08201525f602086015160028110611d6e57634e487b7160e01b5f52602160045260245ffd5b61010083015260408601516001600160a01b03166101208301526060860151611da36101408401826001600160a01b03169052565b50608086015161016083015260a086015160c0610180840152611dca6101a0840182611812565b915050611e1160208301866001600160a01b0381511682526020810151151560208301526001600160a01b0360408201511660408301526060810151151560608301525050565b60a082019390935260c001529291505056fea2646970667358221220cb15ff4903e829d88bad9f507be3c8452e0630fe55682a4938fee1dcd37c304b64736f6c634300081c0033",
  "linkReferences": {},
  "deployedLinkReferences": {}
}