{
  "_format": "hh-sol-artifact-1",
  "contractName": "BuyBackBurnerProxy",
  "sourceName": "contracts/utils/BuyBackBurnerProxy.sol",
  "abi": [
    {
      "inputs": [
        {
          "internalType": "address",
          "name": "implementation",
          "type": "address"
        },
        {
          "internalType": "bytes",
          "name": "buyBackBurnerData",
          "type": "bytes"
        }
      ],
      "stateMutability": "nonpayable",
      "type": "constructor"
    },
    {
      "inputs": [],
      "name": "InitializationFailed",
      "type": "error"
    },
    {
      "inputs": [],
      "name": "ZeroData",
      "type": "error"
    },
    {
      "inputs": [],
      "name": "ZeroImplementationAddress",
      "type": "error"
    },
    {
      "stateMutability": "payable",
      "type": "fallback"
    },
    {
      "inputs": [],
      "name": "BUY_BACK_BURNER_PROXY",
      "outputs": [
        {
          "internalType": "bytes32",
          "name": "",
          "type": "bytes32"
        }
      ],
      "stateMutability": "view",
      "type": "function"
    },
    {
      "inputs": [],
      "name": "getImplementation",
      "outputs": [
        {
          "internalType": "address",
          "name": "implementation",
          "type": "address"
        }
      ],
      "stateMutability": "view",
      "type": "function"
    }
  ],
  "bytecode": "0x608060405234801561000f575f5ffd5b5060405161034f38038061034f83398101604081905261002e9161012d565b6001600160a01b0382166100555760405163d02c623d60e01b815260040160405180910390fd5b80515f036100765760405163c922446b60e01b815260040160405180910390fd5b817fc6d7bd4bd971fa336816fe30b665cc6caccce8b123cc8ea692d132f342c4fc19555f826001600160a01b0316826040516100b291906101fc565b5f60405180830381855af49150503d805f81146100ea576040519150601f19603f3d011682016040523d82523d5f602084013e6100ef565b606091505b505090508061011157604051630337323560e31b815260040160405180910390fd5b505050610212565b634e487b7160e01b5f52604160045260245ffd5b5f5f6040838503121561013e575f5ffd5b82516001600160a01b0381168114610154575f5ffd5b60208401519092506001600160401b0381111561016f575f5ffd5b8301601f8101851361017f575f5ffd5b80516001600160401b0381111561019857610198610119565b604051601f8201601f19908116603f011681016001600160401b03811182821017156101c6576101c6610119565b6040528181528282016020018710156101dd575f5ffd5b8160208401602083015e5f602083830101528093505050509250929050565b5f82518060208501845e5f920191825250919050565b6101308061021f5f395ff3fe6080604052600436106025575f3560e01c8063aaf10f42146065578063f9cc3e9c1460bc575b7fc6d7bd4bd971fa336816fe30b665cc6caccce8b123cc8ea692d132f342c4fc1954365f5f375f5f365f845af490503d5f5f3e806060573d5ffd5b503d5ff35b348015606f575f5ffd5b507fc6d7bd4bd971fa336816fe30b665cc6caccce8b123cc8ea692d132f342c4fc195460405173ffffffffffffffffffffffffffffffffffffffff90911681526020015b60405180910390f35b34801560c6575f5ffd5b5060ed7fc6d7bd4bd971fa336816fe30b665cc6caccce8b123cc8ea692d132f342c4fc1981565b60405190815260200160b356fea2646970667358221220409fea36f072e886ff780e36cb9b27845d4b9c3623e34601d6d66699dcf4fff264736f6c634300081c0033",
  "linkReferences": {},
  "deployedLinkReferences": {}
}