{
  "_format": "hh-sol-artifact-1",
  "contractName": "UniswapPriceOracle",
  "sourceName": "contracts/oracles/UniswapPriceOracle.sol",
  "abi": [
    {
      "inputs": [
        {
          "internalType": "address",
          "name": "_nativeToken",
          "type": "address"
        },
        {
          "internalType": "uint256",
          "name": "_maxSlippage",
          "type": "uint256"
        },
        {
          "internalType": "address",
          "name": "_pair",
          "type": "address"
        }
      ],
      "stateMutability": "nonpayable",
      "type": "constructor"
    },
    {
      "inputs": [],
      "name": "direction",
      "outputs": [
        {
          "internalType": "uint256",
          "name": "",
          "type": "uint256"
        }
      ],
      "stateMutability": "view",
      "type": "function"
    },
    {
      "inputs": [],
      "name": "getPrice",
      "outputs": [
        {
          "internalType": "uint256",
          "name": "",
          "type": "uint256"
        }
      ],
      "stateMutability": "view",
      "type": "function"
    },
    {
      "inputs": [],
      "name": "maxSlippage",
      "outputs": [
        {
          "internalType": "uint256",
          "name": "",
          "type": "uint256"
        }
      ],
      "stateMutability": "view",
      "type": "function"
    },
    {
      "inputs": [],
      "name": "pair",
      "outputs": [
        {
          "internalType": "address",
          "name": "",
          "type": "address"
        }
      ],
      "stateMutability": "view",
      "type": "function"
    },
    {
      "inputs": [],
      "name": "updatePrice",
      "outputs": [
        {
          "internalType": "bool",
          "name": "",
          "type": "bool"
        }
      ],
      "stateMutability": "pure",
      "type": "function"
    },
    {
      "inputs": [
        {
          "internalType": "uint256",
          "name": "slippage",
          "type": "uint256"
        }
      ],
      "name": "validatePrice",
      "outputs": [
        {
          "internalType": "bool",
          "name": "",
          "type": "bool"
        }
      ],
      "stateMutability": "view",
      "type": "function"
    }
  ],
  "bytecode": "0x60e060405234801561000f575f5ffd5b5060405161096938038061096983398101604081905261002e916100e6565b6001600160a01b038116608081905260a083905260408051630dfe168160e01b815290515f9291630dfe16819160048083019260209291908290030181865afa15801561007d573d5f5f3e3d5ffd5b505050506040513d601f19601f820116820180604052508101906100a1919061011f565b9050836001600160a01b0316816001600160a01b0316146100c257600160c0525b5050505061013f565b80516001600160a01b03811681146100e1575f5ffd5b919050565b5f5f5f606084860312156100f8575f5ffd5b610101846100cb565b925060208401519150610116604085016100cb565b90509250925092565b5f6020828403121561012f575f5ffd5b610138826100cb565b9392505050565b60805160a05160c0516107ca61019f5f395f818160a0015281816101e30152818161059e01526105dd01525f818160db015261015401525f818161010a0152818161020a0152818161029e0152818161032f01526104ab01526107ca5ff3fe608060405234801561000f575f5ffd5b506004361061006f575f3560e01c80638c04166f1161004d5780638c04166f146100d657806398d5fdca146100fd578063a8aa1b3114610105575f5ffd5b8063136d6f2114610073578063645539ed1461009b578063673a7e28146100d0575b5f5ffd5b610086610081366004610653565b610151565b60405190151581526020015b60405180910390f35b6100c27f000000000000000000000000000000000000000000000000000000000000000081565b604051908152602001610092565b5f610086565b6100c27f000000000000000000000000000000000000000000000000000000000000000081565b6100c2610485565b61012c7f000000000000000000000000000000000000000000000000000000000000000081565b60405173ffffffffffffffffffffffffffffffffffffffff9091168152602001610092565b5f7f00000000000000000000000000000000000000000000000000000000000000008211156101e0576040517f08c379a000000000000000000000000000000000000000000000000000000000815260206004820152601160248201527f536c697070616765206f766572666c6f77000000000000000000000000000000604482015260640160405180910390fd5b5f7f00000000000000000000000000000000000000000000000000000000000000005f0361029c577f000000000000000000000000000000000000000000000000000000000000000073ffffffffffffffffffffffffffffffffffffffff16635a3d54936040518163ffffffff1660e01b8152600401602060405180830381865afa158015610271573d5f5f3e3d5ffd5b505050506040513d601f19601f82011682018060405250810190610295919061066a565b905061032c565b7f000000000000000000000000000000000000000000000000000000000000000073ffffffffffffffffffffffffffffffffffffffff16635909c0d56040518163ffffffff1660e01b8152600401602060405180830381865afa158015610305573d5f5f3e3d5ffd5b505050506040513d601f19601f82011682018060405250810190610329919061066a565b90505b5f7f000000000000000000000000000000000000000000000000000000000000000073ffffffffffffffffffffffffffffffffffffffff16630902f1ac6040518163ffffffff1660e01b8152600401606060405180830381865afa158015610396573d5f5f3e3d5ffd5b505050506040513d601f19601f820116820180604052508101906103ba91906106a3565b63ffffffff16925050508042036103d457505f9392505050565b5f6103df8242610703565b90505f6103ea610485565b90505f6103f7838361071c565b6104019086610733565b90505f8361040f8784610703565b610419919061075a565b90505f81841161044e578161042e8582610703565b61043f90662386f26fc1000061071c565b610449919061075a565b610474565b816104598186610703565b61046a90662386f26fc1000061071c565b610474919061075a565b989098111598975050505050505050565b6040805160028082526060820183525f92839291906020830190803683370190505090507f000000000000000000000000000000000000000000000000000000000000000073ffffffffffffffffffffffffffffffffffffffff16630902f1ac6040518163ffffffff1660e01b8152600401606060405180830381865afa158015610512573d5f5f3e3d5ffd5b505050506040513d601f19601f8201168201806040525081019061053691906106a3565b826dffffffffffffffffffffffffffff169250816dffffffffffffffffffffffffffff16915050825f8151811061056f5761056f61076d565b60200260200101836001815181106105895761058961076d565b60200260200101828152508281525050505f817f0000000000000000000000000000000000000000000000000000000000000000815181106105cd576105cd61076d565b602002602001015190505f8260027f000000000000000000000000000000000000000000000000000000000000000060016106089190610733565b6106129190610781565b815181106106225761062261076d565b602002602001015190508181670de0b6b3a7640000610641919061071c565b61064b919061075a565b935050505090565b5f60208284031215610663575f5ffd5b5035919050565b5f6020828403121561067a575f5ffd5b5051919050565b80516dffffffffffffffffffffffffffff8116811461069e575f5ffd5b919050565b5f5f5f606084860312156106b5575f5ffd5b6106be84610681565b92506106cc60208501610681565b9150604084015163ffffffff811681146106e4575f5ffd5b809150509250925092565b634e487b7160e01b5f52601160045260245ffd5b81810381811115610716576107166106ef565b92915050565b8082028115828204841417610716576107166106ef565b80820180821115610716576107166106ef565b634e487b7160e01b5f52601260045260245ffd5b5f8261076857610768610746565b500490565b634e487b7160e01b5f52603260045260245ffd5b5f8261078f5761078f610746565b50069056fea2646970667358221220dca3c0f27cce09e07162a261e6bbf9e80b82b8b0e647e455db677d68690e889d64736f6c634300081c0033",
  "linkReferences": {},
  "deployedLinkReferences": {}
}