{"abi":[{"type":"constructor","inputs":[{"name":"_olas","type":"address","internalType":"address"},{"name":"_proxyFactory","type":"address","internalType":"address"},{"name":"_l2MessageRelayer","type":"address","internalType":"address"},{"name":"_l1DepositProcessor","type":"address","internalType":"address"},{"name":"_l1SourceChainId","type":"uint256","internalType":"uint256"}],"stateMutability":"nonpayable"},{"type":"receive","stateMutability":"payable"},{"type":"function","name":"MAX_CHAIN_ID","inputs":[],"outputs":[{"name":"","type":"uint256","internalType":"uint256"}],"stateMutability":"view"},{"type":"function","name":"MAX_GAS_LIMIT","inputs":[],"outputs":[{"name":"","type":"uint256","internalType":"uint256"}],"stateMutability":"view"},{"type":"function","name":"MIN_GAS_LIMIT","inputs":[],"outputs":[{"name":"","type":"uint256","internalType":"uint256"}],"stateMutability":"view"},{"type":"function","name":"RECEIVE_MESSAGE","inputs":[],"outputs":[{"name":"","type":"bytes4","internalType":"bytes4"}],"stateMutability":"view"},{"type":"function","name":"changeOwner","inputs":[{"name":"newOwner","type":"address","internalType":"address"}],"outputs":[],"stateMutability":"nonpayable"},{"type":"function","name":"drain","inputs":[],"outputs":[{"name":"amount","type":"uint256","internalType":"uint256"}],"stateMutability":"nonpayable"},{"type":"function","name":"getBridgingDecimals","inputs":[],"outputs":[{"name":"","type":"uint256","internalType":"uint256"}],"stateMutability":"pure"},{"type":"function","name":"l1AliasedDepositProcessor","inputs":[],"outputs":[{"name":"","type":"address","internalType":"address"}],"stateMutability":"view"},{"type":"function","name":"l1DepositProcessor","inputs":[],"outputs":[{"name":"","type":"address","internalType":"address"}],"stateMutability":"view"},{"type":"function","name":"l1SourceChainId","inputs":[],"outputs":[{"name":"","type":"uint256","internalType":"uint256"}],"stateMutability":"view"},{"type":"function","name":"l2MessageRelayer","inputs":[],"outputs":[{"name":"","type":"address","internalType":"address"}],"stateMutability":"view"},{"type":"function","name":"migrate","inputs":[{"name":"newL2TargetDispenser","type":"address","internalType":"address"}],"outputs":[],"stateMutability":"nonpayable"},{"type":"function","name":"olas","inputs":[],"outputs":[{"name":"","type":"address","internalType":"address"}],"stateMutability":"view"},{"type":"function","name":"owner","inputs":[],"outputs":[{"name":"","type":"address","internalType":"address"}],"stateMutability":"view"},{"type":"function","name":"pause","inputs":[],"outputs":[],"stateMutability":"nonpayable"},{"type":"function","name":"paused","inputs":[],"outputs":[{"name":"","type":"uint8","internalType":"uint8"}],"stateMutability":"view"},{"type":"function","name":"processDataMaintenance","inputs":[{"name":"data","type":"bytes","internalType":"bytes"},{"name":"updateWithheldAmount","type":"bool","internalType":"bool"}],"outputs":[],"stateMutability":"nonpayable"},{"type":"function","name":"processedHashes","inputs":[{"name":"","type":"bytes32","internalType":"bytes32"}],"outputs":[{"name":"","type":"bool","internalType":"bool"}],"stateMutability":"view"},{"type":"function","name":"queuedHashes","inputs":[{"name":"","type":"bytes32","internalType":"bytes32"}],"outputs":[{"name":"","type":"bool","internalType":"bool"}],"stateMutability":"view"},{"type":"function","name":"receiveMessage","inputs":[{"name":"data","type":"bytes","internalType":"bytes"}],"outputs":[],"stateMutability":"payable"},{"type":"function","name":"redeem","inputs":[{"name":"target","type":"address","internalType":"address"},{"name":"amount","type":"uint256","internalType":"uint256"},{"name":"batchHash","type":"bytes32","internalType":"bytes32"}],"outputs":[],"stateMutability":"nonpayable"},{"type":"function","name":"stakingBatchNonce","inputs":[],"outputs":[{"name":"","type":"uint256","internalType":"uint256"}],"stateMutability":"view"},{"type":"function","name":"stakingFactory","inputs":[],"outputs":[{"name":"","type":"address","internalType":"address"}],"stateMutability":"view"},{"type":"function","name":"syncWithheldAmount","inputs":[{"name":"bridgePayload","type":"bytes","internalType":"bytes"}],"outputs":[],"stateMutability":"payable"},{"type":"function","name":"unpause","inputs":[],"outputs":[],"stateMutability":"nonpayable"},{"type":"function","name":"updateWithheldAmountMaintenance","inputs":[{"name":"amount","type":"uint256","internalType":"uint256"}],"outputs":[],"stateMutability":"nonpayable"},{"type":"function","name":"withheldAmount","inputs":[],"outputs":[{"name":"","type":"uint256","internalType":"uint256"}],"stateMutability":"view"},{"type":"event","name":"AmountWithheld","inputs":[{"name":"target","type":"address","indexed":true,"internalType":"address"},{"name":"amount","type":"uint256","indexed":false,"internalType":"uint256"}],"anonymous":false},{"type":"event","name":"Drain","inputs":[{"name":"owner","type":"address","indexed":true,"internalType":"address"},{"name":"amount","type":"uint256","indexed":false,"internalType":"uint256"}],"anonymous":false},{"type":"event","name":"FundsReceived","inputs":[{"name":"sender","type":"address","indexed":true,"internalType":"address"},{"name":"value","type":"uint256","indexed":false,"internalType":"uint256"}],"anonymous":false},{"type":"event","name":"LeftoversRefunded","inputs":[{"name":"sender","type":"address","indexed":true,"internalType":"address"},{"name":"leftovers","type":"uint256","indexed":false,"internalType":"uint256"}],"anonymous":false},{"type":"event","name":"MessagePosted","inputs":[{"name":"sequence","type":"uint256","indexed":true,"internalType":"uint256"},{"name":"messageSender","type":"address","indexed":true,"internalType":"address"},{"name":"amount","type":"uint256","indexed":false,"internalType":"uint256"},{"name":"batchHash","type":"bytes32","indexed":true,"internalType":"bytes32"}],"anonymous":false},{"type":"event","name":"MessageReceived","inputs":[{"name":"sender","type":"address","indexed":true,"internalType":"address"},{"name":"chainId","type":"uint256","indexed":false,"internalType":"uint256"},{"name":"data","type":"bytes","indexed":false,"internalType":"bytes"}],"anonymous":false},{"type":"event","name":"Migrated","inputs":[{"name":"sender","type":"address","indexed":true,"internalType":"address"},{"name":"newL2TargetDispenser","type":"address","indexed":true,"internalType":"address"},{"name":"amount","type":"uint256","indexed":false,"internalType":"uint256"}],"anonymous":false},{"type":"event","name":"OwnerUpdated","inputs":[{"name":"owner","type":"address","indexed":true,"internalType":"address"}],"anonymous":false},{"type":"event","name":"StakingMaintenanceDataProcessed","inputs":[{"name":"data","type":"bytes","indexed":false,"internalType":"bytes"}],"anonymous":false},{"type":"event","name":"StakingRequestQueued","inputs":[{"name":"queueHash","type":"bytes32","indexed":true,"internalType":"bytes32"},{"name":"target","type":"address","indexed":true,"internalType":"address"},{"name":"amount","type":"uint256","indexed":false,"internalType":"uint256"},{"name":"batchHash","type":"bytes32","indexed":true,"internalType":"bytes32"},{"name":"olasBalance","type":"uint256","indexed":false,"internalType":"uint256"},{"name":"paused","type":"uint256","indexed":false,"internalType":"uint256"}],"anonymous":false},{"type":"event","name":"StakingTargetDeposited","inputs":[{"name":"target","type":"address","indexed":true,"internalType":"address"},{"name":"amount","type":"uint256","indexed":false,"internalType":"uint256"},{"name":"batchHash","type":"bytes32","indexed":true,"internalType":"bytes32"}],"anonymous":false},{"type":"event","name":"TargetDispenserPaused","inputs":[],"anonymous":false},{"type":"event","name":"TargetDispenserUnpaused","inputs":[],"anonymous":false},{"type":"event","name":"WithheldAmountUpdated","inputs":[{"name":"amount","type":"uint256","indexed":false,"internalType":"uint256"}],"anonymous":false},{"type":"error","name":"AlreadyDelivered","inputs":[{"name":"deliveryHash","type":"bytes32","internalType":"bytes32"}]},{"type":"error","name":"IncorrectDataLength","inputs":[{"name":"expected","type":"uint256","internalType":"uint256"},{"name":"provided","type":"uint256","internalType":"uint256"}]},{"type":"error","name":"InsufficientBalance","inputs":[{"name":"provided","type":"uint256","internalType":"uint256"},{"name":"expected","type":"uint256","internalType":"uint256"}]},{"type":"error","name":"LowerThan","inputs":[{"name":"provided","type":"uint256","internalType":"uint256"},{"name":"expected","type":"uint256","internalType":"uint256"}]},{"type":"error","name":"ManagerOnly","inputs":[{"name":"sender","type":"address","internalType":"address"},{"name":"manager","type":"address","internalType":"address"}]},{"type":"error","name":"Overflow","inputs":[{"name":"provided","type":"uint256","internalType":"uint256"},{"name":"max","type":"uint256","internalType":"uint256"}]},{"type":"error","name":"OwnerOnly","inputs":[{"name":"sender","type":"address","internalType":"address"},{"name":"owner","type":"address","internalType":"address"}]},{"type":"error","name":"Paused","inputs":[]},{"type":"error","name":"ReentrancyGuard","inputs":[]},{"type":"error","name":"TargetAmountNotQueued","inputs":[{"name":"target","type":"address","internalType":"address"},{"name":"amount","type":"uint256","internalType":"uint256"},{"name":"batchHash","type":"bytes32","internalType":"bytes32"}]},{"type":"error","name":"TargetRelayerOnly","inputs":[{"name":"provided","type":"address","internalType":"address"},{"name":"expected","type":"address","internalType":"address"}]},{"type":"error","name":"TransferFailed","inputs":[{"name":"token","type":"address","internalType":"address"},{"name":"from","type":"address","internalType":"address"},{"name":"to","type":"address","internalType":"address"},{"name":"amount","type":"uint256","internalType":"uint256"}]},{"type":"error","name":"Unpaused","inputs":[]},{"type":"error","name":"WrongAccount","inputs":[{"name":"account","type":"address","internalType":"address"}]},{"type":"error","name":"WrongAmount","inputs":[{"name":"provided","type":"uint256","internalType":"uint256"},{"name":"expected","type":"uint256","internalType":"uint256"}]},{"type":"error","name":"WrongChainId","inputs":[{"name":"provided","type":"uint256","internalType":"uint256"},{"name":"expected","type":"uint256","internalType":"uint256"}]},{"type":"error","name":"WrongMessageSender","inputs":[{"name":"provided","type":"address","internalType":"address"},{"name":"expected","type":"address","internalType":"address"}]},{"type":"error","name":"WrongTokenAddress","inputs":[{"name":"provided","type":"address","internalType":"address"},{"name":"expected","type":"address","internalType":"address"}]},{"type":"error","name":"ZeroAddress","inputs":[]},{"type":"error","name":"ZeroValue","inputs":[]}],"bytecode":{"object":"0x610140604052348015610010575f5ffd5b5060405161248838038061248883398101604081905261002f916101c8565b84848484846001600160a01b038516158061005157506001600160a01b038416155b8061006357506001600160a01b038316155b8061007557506001600160a01b038216155b156100935760405163d92e233d60e01b815260040160405180910390fd5b805f036100b357604051637c946ed760e01b815260040160405180910390fd5b60246100c760026001600160401b03610222565b6100d1919061025c565b6001600160401b031681111561012f578060246100f660026001600160401b03610222565b610100919061025c565b604051637ae5968560e01b815260048101929092526001600160401b0316602482015260440160405180910390fd5b6001600160a01b0394851660805292841660a05290831660c052821660e052610100526002805460ff60a81b1960ff60a01b1933166001600160a81b031990921691909117600160a01b1716600160a81b17905573111100000000000000000000000000000000111192909201909116610120525061028d92505050565b80516001600160a01b03811681146101c3575f5ffd5b919050565b5f5f5f5f5f60a086880312156101dc575f5ffd5b6101e5866101ad565b94506101f3602087016101ad565b9350610201604087016101ad565b925061020f606087016101ad565b9150608086015190509295509295909350565b5f6001600160401b0383168061024657634e487b7160e01b5f52601260045260245ffd5b6001600160401b03929092169190910492915050565b6001600160401b03828116828216039081111561028757634e487b7160e01b5f52601160045260245ffd5b92915050565b60805160a05160c05160e05161010051610120516121286103605f395f81816105a10152818161125e015261128601525f81816105070152611b3701525f81816102dd015281816112e60152818161198801528181611a7601528181611ab00152611aec01525f81816102aa015281816112c50152818161195b01528181611a000152611a3a01525f8181610310015261145f01525f81816101f501528181610ce601528181610d7a015281816110a90152818161113e015281816111be015281816115de015261169501526121285ff3fe60806040526004361061016a575f3560e01c80637424ddc8116100c9578063a6f9dae111610078578063a6f9dae114610529578063a8b2ae0214610548578063ce5494bb1461055b578063e3f5aa511461057a578063eec8fddc14610590578063f4427c2c146105c3578063f953cec7146105d8575f5ffd5b80637424ddc8146104675780637ce1ffeb1461047a5780638456cb59146104905780638da5cb5b146104a45780639890220b146104c3578063992c3e4b146104d75780639b7bb847146104f6575f5ffd5b806332cbdd211161012557806332cbdd21146103325780633f4ba83a146103535780634fa659581461036757806354d20cc2146103865780635a7287cf146103ff5780635bc105c0146104215780635c975abb14610435575f5ffd5b806231d115146101e457806307d9c5341461022d5780631b2e7f0a1461026b5780631bad595714610299578063256359a8146102cc57806329134768146102ff575f5ffd5b366101e0576002546001600160a01b03166101a9575f33303460405163cd3f165960e01b81526004016101a09493929190611b7d565b60405180910390fd5b60405134815233907f8e47b87b0ef542cdfa1659c551d88bad38aa7f452d2bbb349ab7530dfec8be8f9060200160405180910390a2005b5f5ffd5b3480156101ef575f5ffd5b506102177f000000000000000000000000000000000000000000000000000000000000000081565b6040516102249190611ba7565b60405180910390f35b348015610238575f5ffd5b5061025b610247366004611bbb565b60036020525f908152604090205460ff1681565b6040519015158152602001610224565b348015610276575f5ffd5b5061025b610285366004611bbb565b60046020525f908152604090205460ff1681565b3480156102a4575f5ffd5b506102177f000000000000000000000000000000000000000000000000000000000000000081565b3480156102d7575f5ffd5b506102177f000000000000000000000000000000000000000000000000000000000000000081565b34801561030a575f5ffd5b506102177f000000000000000000000000000000000000000000000000000000000000000081565b34801561033d575f5ffd5b5061035161034c366004611bbb565b6105eb565b005b34801561035e575f5ffd5b50610351610661565b348015610372575f5ffd5b50610351610381366004611c8e565b6106da565b348015610391575f5ffd5b50604080518082019091526015815274726563656976654d6573736167652862797465732960581b6020909101526103e67ff953cec75ae677942d7cda5cb6d12c0cb96a0904bf37d36301eef297b83c411d81565b6040516001600160e01b03199091168152602001610224565b34801561040a575f5ffd5b506104135f5481565b604051908152602001610224565b34801561042c575f5ffd5b506104136107d8565b348015610440575f5ffd5b5060025461045590600160a01b900460ff1681565b60405160ff9091168152602001610224565b610351610475366004611cdc565b610802565b348015610485575f5ffd5b50610413620493e081565b34801561049b575f5ffd5b50610351610a10565b3480156104af575f5ffd5b50600254610217906001600160a01b031681565b3480156104ce575f5ffd5b50610413610a89565b3480156104e2575f5ffd5b506103516104f1366004611d29565b610be5565b348015610501575f5ffd5b506104137f000000000000000000000000000000000000000000000000000000000000000081565b348015610534575f5ffd5b50610351610543366004611d5b565b610ee3565b348015610553575f5ffd5b506012610413565b348015610566575f5ffd5b50610351610575366004611d5b565b610f8f565b348015610585575f5ffd5b50610413621e848081565b34801561059b575f5ffd5b506102177f000000000000000000000000000000000000000000000000000000000000000081565b3480156105ce575f5ffd5b5061041360015481565b6103516105e6366004611cdc565b611253565b6002546001600160a01b031633146106275760025460405163521eb56d60e11b81526101a09133916001600160a01b0390911690600401611d7d565b5f8190556040518181527fc72394635a1b67b1c2708140b8c308785562b0ccd995e86ac0e2f1791ca040e79060200160405180910390a150565b6002546001600160a01b0316331461069d5760025460405163521eb56d60e11b81526101a09133916001600160a01b0390911690600401611d7d565b6002805460ff60a01b1916600160a01b1790556040517f20e9b9dbd8158c2b961d8645a7d06624a045634bb65f07ef751ae014a65f61f5905f90a1565b6002546001600160a01b031633146107165760025460405163521eb56d60e11b81526101a09133916001600160a01b0390911690600401611d7d565b5f610721838361130e565b9050811561079c575f548082111561075657604051637ae5968560e01b815260048101839052602481018290526044016101a0565b6107608282611dab565b5f8190556040518181529091507fc72394635a1b67b1c2708140b8c308785562b0ccd995e86ac0e2f1791ca040e79060200160405180910390a1505b7f6c5612d5407f11b75444f1d65d69cd4e33f371e29b660ca8ceaba56b1953bfe4836040516107cb9190611df2565b60405180910390a1505050565b60246107ec60026001600160401b03611e18565b6107f69190611e45565b6001600160401b031681565b6002546001600160a81b90910460ff161115610831576040516345f5ce8b60e11b815260040160405180910390fd5b6002805460ff60a81b198116600160a91b179091556001600160a01b0316331461087f5760025460405163521eb56d60e11b81526101a09133916001600160a01b0390911690600401611d7d565b60028054600160a01b900460ff1690036108ac576040516313d0ff5960e31b815260040160405180910390fd5b5f54601281805f036108d157604051637c946ed760e01b815260040160405180910390fd5b6108db8184611dab565b5f908155600154604080516020810183905246918101919091523060608201529091906080016040516020818303038152906040528051906020012090505f5f61092685898561188e565b909250905080156109ac57604051339082905f81818185875af1925050503d805f811461096e576040519150601f19603f3d011682016040523d82523d5f602084013e610973565b606091505b50506040518281523391507f8e49ed3e274fbea1556bdfaa9a37a0c28445bfe26d57beaf9f04fd517aa417419060200160405180910390a25b6109b7846001611ea3565b6001556040518581528390339084907f1ff6d173c1ebeb42f666a09b94f554cf43eadf8054fda3247f56c343baab28f79060200160405180910390a450506002805460ff60a81b1916600160a81b179055505050505050565b6002546001600160a01b03163314610a4c5760025460405163521eb56d60e11b81526101a09133916001600160a01b0390911690600401611d7d565b6002805460ff60a01b1916600160a11b1790556040517f8ef6a6615a637325c66275a8d4cadb0844f08a758e5a9df369412975bcdcbc48905f90a1565b6002545f906001600160a81b90910460ff161115610aba576040516345f5ce8b60e11b815260040160405180910390fd5b6002805460ff60a81b198116600160a91b179091556001600160a01b03163314610b085760025460405163521eb56d60e11b81526101a09133916001600160a01b0390911690600401611d7d565b479050805f03610b2b57604051637c946ed760e01b815260040160405180910390fd5b6040515f90339083908381818185875af1925050503d805f8114610b6a576040519150601f19603f3d011682016040523d82523d5f602084013e610b6f565b606091505b5050905080610b99575f30338460405163cd3f165960e01b81526004016101a09493929190611b7d565b60405182815233907ff36f4d6622e16a536bbb049064af779cdd483a0b388d347d3752a65f1058bf5b9060200160405180910390a2506002805460ff60a81b1916600160a81b17905590565b6002546001600160a81b90910460ff161115610c14576040516345f5ce8b60e11b815260040160405180910390fd5b6002805460ff60a81b1916600160a91b1780825560ff600160a01b909104169003610c52576040516313d0ff5960e31b815260040160405180910390fd5b5f8383834630604051602001610c6c959493929190611eb6565b60408051601f1981840301815291815281516020928301205f818152600490935291205490915060ff1680610ccd576040516315c15ea560e11b81526001600160a01b038616600482015260248101859052604481018490526064016101a0565b6040516370a0823160e01b81525f906001600160a01b037f000000000000000000000000000000000000000000000000000000000000000016906370a0823190610d1b903090600401611ba7565b602060405180830381865afa158015610d36573d5f5f3e3d5ffd5b505050506040513d601f19601f82011682018060405250810190610d5a9190611ee6565b9050848110610ea55760405163095ea7b360e01b81526001600160a01b037f0000000000000000000000000000000000000000000000000000000000000000169063095ea7b390610db19089908990600401611efd565b6020604051808303815f875af1158015610dcd573d5f5f3e3d5ffd5b505050506040513d601f19601f82011682018060405250810190610df19190611f16565b5060405163b6b55f2560e01b8152600481018690526001600160a01b0387169063b6b55f25906024015f604051808303815f87803b158015610e31575f5ffd5b505af1158015610e43573d5f5f3e3d5ffd5b5050505083866001600160a01b03167f22ab9fd8eb5063f7f3cb43c78f5d368aea9a51855ada00fa146687ef2c32198087604051610e8391815260200190565b60405180910390a35f838152600460205260409020805460ff19169055610ec8565b60405163cf47918160e01b815260048101829052602481018690526044016101a0565b50506002805460ff60a81b1916600160a81b17905550505050565b6002546001600160a01b03163314610f1f5760025460405163521eb56d60e11b81526101a09133916001600160a01b0390911690600401611d7d565b6001600160a01b038116610f465760405163d92e233d60e01b815260040160405180910390fd5b600280546001600160a01b0319166001600160a01b0383169081179091556040517f4ffd725fc4a22075e9ec71c59edf9c38cdeb588a91b24fc5b61388c5be41282b905f90a250565b6002546001600160a81b90910460ff161115610fbe576040516345f5ce8b60e11b815260040160405180910390fd5b6002805460ff60a81b198116600160a91b179091556001600160a01b0316331461100c5760025460405163521eb56d60e11b81526101a09133916001600160a01b0390911690600401611d7d565b600254600160a01b900460ff166001036110395760405163a45f47fd60e01b815260040160405180910390fd5b806001600160a01b03163b5f036110655780604051631c7025f960e11b81526004016101a09190611ba7565b306001600160a01b038216036110905730604051631c7025f960e11b81526004016101a09190611ba7565b6040516370a0823160e01b81525f906001600160a01b037f000000000000000000000000000000000000000000000000000000000000000016906370a08231906110de903090600401611ba7565b602060405180830381865afa1580156110f9573d5f5f3e3d5ffd5b505050506040513d601f19601f8201168201806040525081019061111d9190611ee6565b905080156111ff5760405163a9059cbb60e01b81525f906001600160a01b037f0000000000000000000000000000000000000000000000000000000000000000169063a9059cbb906111759086908690600401611efd565b6020604051808303815f875af1158015611191573d5f5f3e3d5ffd5b505050506040513d601f19601f820116820180604052508101906111b59190611f16565b9050806111fd577f000000000000000000000000000000000000000000000000000000000000000030848460405163cd3f165960e01b81526004016101a09493929190611b7d565b505b600280546001600160a01b03191690556040518181526001600160a01b0383169033907f928fd5531324ee87d76cc5307dc37580174da76b85cd546da631b2670bc266b59060200160405180910390a35050565b336001600160a01b037f000000000000000000000000000000000000000000000000000000000000000016146112c057337f0000000000000000000000000000000000000000000000000000000000000000604051630d16cbdd60e01b81526004016101a0929190611d7d565b61130b7f00000000000000000000000000000000000000000000000000000000000000007f0000000000000000000000000000000000000000000000000000000000000000836119fe565b50565b6002545f906001600160a81b90910460ff16111561133f576040516345f5ce8b60e11b815260040160405180910390fd5b6002805460ff60a81b1916600160a91b17905582515f908190819061136d9060209088018101908801611fbd565b5f81815260036020526040902054929550909350915060ff16156113a7576040516356bc34a160e01b8152600481018290526024016101a0565b5f818152600360205260408120805460ff19166001179055600254600160a01b900460ff16815b8551811015611852575f8682815181106113ea576113ea61208d565b602002602001015190505f8683815181106114075761140761208d565b602002602001015190505f826040516024016114239190611ba7565b60408051601f198184030181529181526020820180516001600160e01b0316631eda94d760e01b179052519091505f9081906001600160a01b037f0000000000000000000000000000000000000000000000000000000000000000169061148b9085906120a1565b5f604051808303815f865af19150503d805f81146114c4576040519150601f19603f3d011682016040523d82523d5f602084013e6114c9565b606091505b50915091505f8280156114dd575081516020145b156114f957818060200190518101906114f69190611ee6565b90505b805f03611560578d6115555761150f858a611ea3565b9850856001600160a01b03167f29bd7fae5899787bb9cb5aa121b781bf47bb44cc44f0f3ddd1e1ea383acd22fb8660405161154c91815260200190565b60405180910390a25b50505050505061184a565b808511156115cf578d6115cb575f6115788287611dab565b9050611584818b611ea3565b9950866001600160a01b03167f29bd7fae5899787bb9cb5aa121b781bf47bb44cc44f0f3ddd1e1ea383acd22fb826040516115c191815260200190565b60405180910390a2505b8094505b6115d9858e611ea3565b9c505f7f00000000000000000000000000000000000000000000000000000000000000006001600160a01b03166370a08231306040518263ffffffff1660e01b81526004016116289190611ba7565b602060405180830381865afa158015611643573d5f5f3e3d5ffd5b505050506040513d601f19601f820116820180604052508101906116679190611ee6565b90508581101580156116795750886001145b156117ab5760405163095ea7b360e01b81526001600160a01b037f0000000000000000000000000000000000000000000000000000000000000000169063095ea7b3906116cc908a908a90600401611efd565b6020604051808303815f875af11580156116e8573d5f5f3e3d5ffd5b505050506040513d601f19601f8201168201806040525081019061170c9190611f16565b5060405163b6b55f2560e01b8152600481018790526001600160a01b0388169063b6b55f25906024015f604051808303815f87803b15801561174c575f5ffd5b505af115801561175e573d5f5f3e3d5ffd5b505050508a876001600160a01b03167f22ab9fd8eb5063f7f3cb43c78f5d368aea9a51855ada00fa146687ef2c3219808860405161179e91815260200190565b60405180910390a3611842565b5f87878d46306040516020016117c5959493929190611eb6565b60408051601f1981840301815282825280516020918201205f81815260048352839020805460ff191660011790558a84529083018590529082018c905291508c906001600160a01b038a169083907ff40f70fa5e98296d34577a11349caa5adf0d9cf9b6d416fd901de223c50d7a6c9060600160405180910390a4505b505050505050505b6001016113ce565b50811561186f57815f5f8282546118699190611ea3565b90915550505b50506002805460ff60a81b1916600160a81b1790555091949350505050565b6040805180820182526015815274726563656976654d6573736167652862797465732960581b60209182015281519081018590529081018290525f90819081907ff953cec75ae677942d7cda5cb6d12c0cb96a0904bf37d36301eef297b83c411d9060600160408051601f198184030181529082905261191091602401611df2565b60408051601f198184030181529181526020820180516001600160e01b03166001600160e01b03199094169390931790925290516349460b4d60e11b81529091506001600160a01b037f0000000000000000000000000000000000000000000000000000000000000000169063928c169a906119b2907f00000000000000000000000000000000000000000000000000000000000000009085906004016120b7565b6020604051808303815f875af11580156119ce573d5f5f3e3d5ffd5b505050506040513d601f19601f820116820180604052508101906119f29190611ee6565b96349650945050505050565b7f00000000000000000000000000000000000000000000000000000000000000006001600160a01b0316836001600160a01b031614611a7457827f000000000000000000000000000000000000000000000000000000000000000060405163179888fd60e11b81526004016101a0929190611d7d565b7f00000000000000000000000000000000000000000000000000000000000000006001600160a01b0316826001600160a01b031614611aea57817f0000000000000000000000000000000000000000000000000000000000000000604051630d16cbdd60e01b81526004016101a0929190611d7d565b7f00000000000000000000000000000000000000000000000000000000000000006001600160a01b03167f98bbde530ec85b002f6fb0864beccaaf3ac3d2a4ac35cb3b03cf7c61ee415e337f000000000000000000000000000000000000000000000000000000000000000083604051611b659291906120da565b60405180910390a2611b77815f61130e565b50505050565b6001600160a01b039485168152928416602084015292166040820152606081019190915260800190565b6001600160a01b0391909116815260200190565b5f60208284031215611bcb575f5ffd5b5035919050565b634e487b7160e01b5f52604160045260245ffd5b604051601f8201601f191681016001600160401b0381118282101715611c0e57611c0e611bd2565b604052919050565b5f82601f830112611c25575f5ffd5b81356001600160401b03811115611c3e57611c3e611bd2565b611c51601f8201601f1916602001611be6565b818152846020838601011115611c65575f5ffd5b816020850160208301375f918101602001919091529392505050565b801515811461130b575f5ffd5b5f5f60408385031215611c9f575f5ffd5b82356001600160401b03811115611cb4575f5ffd5b611cc085828601611c16565b9250506020830135611cd181611c81565b809150509250929050565b5f60208284031215611cec575f5ffd5b81356001600160401b03811115611d01575f5ffd5b611d0d84828501611c16565b949350505050565b6001600160a01b038116811461130b575f5ffd5b5f5f5f60608486031215611d3b575f5ffd5b8335611d4681611d15565b95602085013595506040909401359392505050565b5f60208284031215611d6b575f5ffd5b8135611d7681611d15565b9392505050565b6001600160a01b0392831681529116602082015260400190565b634e487b7160e01b5f52601160045260245ffd5b81810381811115611dbe57611dbe611d97565b92915050565b5f81518084528060208401602086015e5f602082860101526020601f19601f83011685010191505092915050565b602081525f611d766020830184611dc4565b634e487b7160e01b5f52601260045260245ffd5b5f6001600160401b03831680611e3057611e30611e04565b806001600160401b0384160491505092915050565b6001600160401b038281168282160390811115611dbe57611dbe611d97565b6001841115611e9b57808504811115611e7f57611e7f611d97565b6001841615611e8d57908102905b60019390931c928002611e64565b935093915050565b80820180821115611dbe57611dbe611d97565b6001600160a01b039586168152602081019490945260408401929092526060830152909116608082015260a00190565b5f60208284031215611ef6575f5ffd5b5051919050565b6001600160a01b03929092168252602082015260400190565b5f60208284031215611f26575f5ffd5b8151611d7681611c81565b5f6001600160401b03821115611f4957611f49611bd2565b5060051b60200190565b5f82601f830112611f62575f5ffd5b8151611f75611f7082611f31565b611be6565b8082825260208201915060208360051b860101925085831115611f96575f5ffd5b602085015b83811015611fb3578051835260209283019201611f9b565b5095945050505050565b5f5f5f60608486031215611fcf575f5ffd5b83516001600160401b03811115611fe4575f5ffd5b8401601f81018613611ff4575f5ffd5b8051612002611f7082611f31565b8082825260208201915060208360051b850101925088831115612023575f5ffd5b6020840193505b8284101561204e57835161203d81611d15565b82526020938401939091019061202a565b8096505050505060208401516001600160401b0381111561206d575f5ffd5b61207986828701611f53565b604095909501519396949550929392505050565b634e487b7160e01b5f52603260045260245ffd5b5f82518060208501845e5f920191825250919050565b6001600160a01b03831681526040602082018190525f90611d0d90830184611dc4565b828152604060208201525f611d0d6040830184611dc456fea2646970667358221220e80037f66b4c37260a92f8d0b8376ec5bc8275f4aed727807a62215e807c9d7064736f6c634300081e0033","linkReferences":{}},"methodIdentifiers":{"MAX_CHAIN_ID()":"5bc105c0","MAX_GAS_LIMIT()":"e3f5aa51","MIN_GAS_LIMIT()":"7ce1ffeb","RECEIVE_MESSAGE()":"54d20cc2","changeOwner(address)":"a6f9dae1","drain()":"9890220b","getBridgingDecimals()":"a8b2ae02","l1AliasedDepositProcessor()":"eec8fddc","l1DepositProcessor()":"256359a8","l1SourceChainId()":"9b7bb847","l2MessageRelayer()":"1bad5957","migrate(address)":"ce5494bb","olas()":"0031d115","owner()":"8da5cb5b","pause()":"8456cb59","paused()":"5c975abb","processDataMaintenance(bytes,bool)":"4fa65958","processedHashes(bytes32)":"07d9c534","queuedHashes(bytes32)":"1b2e7f0a","receiveMessage(bytes)":"f953cec7","redeem(address,uint256,bytes32)":"992c3e4b","stakingBatchNonce()":"f4427c2c","stakingFactory()":"29134768","syncWithheldAmount(bytes)":"7424ddc8","unpause()":"3f4ba83a","updateWithheldAmountMaintenance(uint256)":"32cbdd21","withheldAmount()":"5a7287cf"},"id":24}