{"abi":[{"type":"constructor","inputs":[{"name":"_olas","type":"address","internalType":"address"},{"name":"_l1Dispenser","type":"address","internalType":"address"},{"name":"_l1TokenRelayer","type":"address","internalType":"address"},{"name":"_l1MessageRelayer","type":"address","internalType":"address"},{"name":"_l2TargetChainId","type":"uint256","internalType":"uint256"},{"name":"_l1ERC20Gateway","type":"address","internalType":"address"},{"name":"_outbox","type":"address","internalType":"address"},{"name":"_bridge","type":"address","internalType":"address"}],"stateMutability":"nonpayable"},{"type":"function","name":"BRIDGE_PAYLOAD_LENGTH","inputs":[],"outputs":[{"name":"","type":"uint256","internalType":"uint256"}],"stateMutability":"view"},{"type":"function","name":"MAX_CHAIN_ID","inputs":[],"outputs":[{"name":"","type":"uint256","internalType":"uint256"}],"stateMutability":"view"},{"type":"function","name":"MESSAGE_GAS_LIMIT","inputs":[],"outputs":[{"name":"","type":"uint256","internalType":"uint256"}],"stateMutability":"view"},{"type":"function","name":"RECEIVE_MESSAGE","inputs":[],"outputs":[{"name":"","type":"bytes4","internalType":"bytes4"}],"stateMutability":"view"},{"type":"function","name":"TOKEN_GAS_LIMIT","inputs":[],"outputs":[{"name":"","type":"uint256","internalType":"uint256"}],"stateMutability":"view"},{"type":"function","name":"bridge","inputs":[],"outputs":[{"name":"","type":"address","internalType":"address"}],"stateMutability":"view"},{"type":"function","name":"getBridgingDecimals","inputs":[],"outputs":[{"name":"","type":"uint256","internalType":"uint256"}],"stateMutability":"pure"},{"type":"function","name":"l1Dispenser","inputs":[],"outputs":[{"name":"","type":"address","internalType":"address"}],"stateMutability":"view"},{"type":"function","name":"l1ERC20Gateway","inputs":[],"outputs":[{"name":"","type":"address","internalType":"address"}],"stateMutability":"view"},{"type":"function","name":"l1MessageRelayer","inputs":[],"outputs":[{"name":"","type":"address","internalType":"address"}],"stateMutability":"view"},{"type":"function","name":"l1TokenRelayer","inputs":[],"outputs":[{"name":"","type":"address","internalType":"address"}],"stateMutability":"view"},{"type":"function","name":"l2TargetChainId","inputs":[],"outputs":[{"name":"","type":"uint256","internalType":"uint256"}],"stateMutability":"view"},{"type":"function","name":"l2TargetDispenser","inputs":[],"outputs":[{"name":"","type":"address","internalType":"address"}],"stateMutability":"view"},{"type":"function","name":"olas","inputs":[],"outputs":[{"name":"","type":"address","internalType":"address"}],"stateMutability":"view"},{"type":"function","name":"outbox","inputs":[],"outputs":[{"name":"","type":"address","internalType":"address"}],"stateMutability":"view"},{"type":"function","name":"owner","inputs":[],"outputs":[{"name":"","type":"address","internalType":"address"}],"stateMutability":"view"},{"type":"function","name":"processedHashes","inputs":[{"name":"","type":"bytes32","internalType":"bytes32"}],"outputs":[{"name":"","type":"bool","internalType":"bool"}],"stateMutability":"view"},{"type":"function","name":"receiveMessage","inputs":[{"name":"data","type":"bytes","internalType":"bytes"}],"outputs":[],"stateMutability":"nonpayable"},{"type":"function","name":"sendMessage","inputs":[{"name":"target","type":"address","internalType":"address"},{"name":"stakingIncentive","type":"uint256","internalType":"uint256"},{"name":"bridgePayload","type":"bytes","internalType":"bytes"},{"name":"transferAmount","type":"uint256","internalType":"uint256"}],"outputs":[],"stateMutability":"payable"},{"type":"function","name":"sendMessageBatch","inputs":[{"name":"targets","type":"address[]","internalType":"address[]"},{"name":"stakingIncentives","type":"uint256[]","internalType":"uint256[]"},{"name":"bridgePayload","type":"bytes","internalType":"bytes"},{"name":"transferAmount","type":"uint256","internalType":"uint256"}],"outputs":[],"stateMutability":"payable"},{"type":"function","name":"setL2TargetDispenser","inputs":[{"name":"l2Dispenser","type":"address","internalType":"address"}],"outputs":[],"stateMutability":"nonpayable"},{"type":"function","name":"stakingBatchNonce","inputs":[],"outputs":[{"name":"","type":"uint256","internalType":"uint256"}],"stateMutability":"view"},{"type":"function","name":"updateHashMaintenance","inputs":[{"name":"batchHash","type":"bytes32","internalType":"bytes32"}],"outputs":[],"stateMutability":"nonpayable"},{"type":"event","name":"L2TargetDispenserUpdated","inputs":[{"name":"l2TargetDispenser","type":"address","indexed":true,"internalType":"address"}],"anonymous":false},{"type":"event","name":"LeftoversRefunded","inputs":[{"name":"sender","type":"address","indexed":true,"internalType":"address"},{"name":"leftovers","type":"uint256","indexed":false,"internalType":"uint256"}],"anonymous":false},{"type":"event","name":"MessagePosted","inputs":[{"name":"sequence","type":"uint256","indexed":true,"internalType":"uint256"},{"name":"targets","type":"address[]","indexed":false,"internalType":"address[]"},{"name":"stakingIncentives","type":"uint256[]","indexed":false,"internalType":"uint256[]"},{"name":"transferAmount","type":"uint256","indexed":false,"internalType":"uint256"},{"name":"batchHash","type":"bytes32","indexed":true,"internalType":"bytes32"}],"anonymous":false},{"type":"event","name":"MessageReceived","inputs":[{"name":"l1Relayer","type":"address","indexed":true,"internalType":"address"},{"name":"chainId","type":"uint256","indexed":true,"internalType":"uint256"},{"name":"data","type":"bytes","indexed":false,"internalType":"bytes"}],"anonymous":false},{"type":"error","name":"AlreadyDelivered","inputs":[{"name":"deliveryHash","type":"bytes32","internalType":"bytes32"}]},{"type":"error","name":"IncorrectDataLength","inputs":[{"name":"expected","type":"uint256","internalType":"uint256"},{"name":"provided","type":"uint256","internalType":"uint256"}]},{"type":"error","name":"InsufficientBalance","inputs":[{"name":"provided","type":"uint256","internalType":"uint256"},{"name":"expected","type":"uint256","internalType":"uint256"}]},{"type":"error","name":"LowerThan","inputs":[{"name":"provided","type":"uint256","internalType":"uint256"},{"name":"expected","type":"uint256","internalType":"uint256"}]},{"type":"error","name":"ManagerOnly","inputs":[{"name":"sender","type":"address","internalType":"address"},{"name":"manager","type":"address","internalType":"address"}]},{"type":"error","name":"Overflow","inputs":[{"name":"provided","type":"uint256","internalType":"uint256"},{"name":"max","type":"uint256","internalType":"uint256"}]},{"type":"error","name":"OwnerOnly","inputs":[{"name":"sender","type":"address","internalType":"address"},{"name":"owner","type":"address","internalType":"address"}]},{"type":"error","name":"Paused","inputs":[]},{"type":"error","name":"ReentrancyGuard","inputs":[]},{"type":"error","name":"TargetAmountNotQueued","inputs":[{"name":"target","type":"address","internalType":"address"},{"name":"amount","type":"uint256","internalType":"uint256"},{"name":"batchHash","type":"bytes32","internalType":"bytes32"}]},{"type":"error","name":"TargetRelayerOnly","inputs":[{"name":"provided","type":"address","internalType":"address"},{"name":"expected","type":"address","internalType":"address"}]},{"type":"error","name":"TransferFailed","inputs":[{"name":"token","type":"address","internalType":"address"},{"name":"from","type":"address","internalType":"address"},{"name":"to","type":"address","internalType":"address"},{"name":"amount","type":"uint256","internalType":"uint256"}]},{"type":"error","name":"Unpaused","inputs":[]},{"type":"error","name":"WrongAccount","inputs":[{"name":"account","type":"address","internalType":"address"}]},{"type":"error","name":"WrongAmount","inputs":[{"name":"provided","type":"uint256","internalType":"uint256"},{"name":"expected","type":"uint256","internalType":"uint256"}]},{"type":"error","name":"WrongChainId","inputs":[{"name":"provided","type":"uint256","internalType":"uint256"},{"name":"expected","type":"uint256","internalType":"uint256"}]},{"type":"error","name":"WrongMessageSender","inputs":[{"name":"provided","type":"address","internalType":"address"},{"name":"expected","type":"address","internalType":"address"}]},{"type":"error","name":"WrongTokenAddress","inputs":[{"name":"provided","type":"address","internalType":"address"},{"name":"expected","type":"address","internalType":"address"}]},{"type":"error","name":"ZeroAddress","inputs":[]},{"type":"error","name":"ZeroValue","inputs":[]}],"bytecode":{"object":"0x610180604052348015610010575f5ffd5b50604051611ded380380611ded83398101604081905261002f916101d8565b87878787876001600160a01b038416158061005157506001600160a01b038316155b8061006357506001600160a01b038216155b156100815760405163d92e233d60e01b815260040160405180910390fd5b805f036100a157604051637c946ed760e01b815260040160405180910390fd5b60246100b560026001600160401b03610263565b6100bf919061029d565b6001600160401b031681111561011d578060246100e460026001600160401b03610263565b6100ee919061029d565b604051637ae5968560e01b815260048101929092526001600160401b0316602482015260440160405180910390fd5b6001600160a01b0394851660805292841660a05290831660c052821660e05261010052600180546001600160a01b031916331790558316158061016757506001600160a01b038216155b8061017957506001600160a01b038116155b156101975760405163d92e233d60e01b815260040160405180910390fd5b6001600160a01b0392831661012052908216610140521661016052506102ce9350505050565b80516001600160a01b03811681146101d3575f5ffd5b919050565b5f5f5f5f5f5f5f5f610100898b0312156101f0575f5ffd5b6101f9896101bd565b975061020760208a016101bd565b965061021560408a016101bd565b955061022360608a016101bd565b94506080890151935061023860a08a016101bd565b925061024660c08a016101bd565b915061025460e08a016101bd565b90509295985092959890939650565b5f6001600160401b0383168061028757634e487b7160e01b5f52601260045260245ffd5b6001600160401b03929092169190910492915050565b6001600160401b0382811682821603908111156102c857634e487b7160e01b5f52601160045260245ffd5b92915050565b60805160a05160c05160e05161010051610120516101405161016051611a386103b55f395f818161045801528181610970015261099801525f818161040701526109d501525f81816101de0152610db101525f81816103d4015281816111d701526112aa01525f818161021101528181610a5a0152818161102d0152818161111f015261115901525f818161032a0152610e8401525f818161048b015281816105380152818161055f015281816105fa01528181610621015281816108190152818161084001526112e601525f818161015001528181610de00152610ecd0152611a385ff3fe60806040526004361061013b575f3560e01c8063a8b2ae02116100b3578063e309fb771161006d578063e309fb7714610429578063e78cea9214610447578063f2541c351461047a578063f4427c2c146104ad578063f953cec7146104c2578063f9fc3c21146104e1575f5ffd5b8063a8b2ae021461036b578063ac65ded21461037e578063b2267a7b1461039d578063bde52661146103b0578063c23cc3ff146103c3578063ce11e6ab146103f6575f5ffd5b80634ece6b17116101045780634ece6b171461025757806354d20cc21461026b57806354e4bbf4146102e45780635bc105c0146103055780636143fe93146103195780638da5cb5b1461034c575f5ffd5b806231d1151461013f57806307d9c5341461018f5780630e283a6a146101cd5780633d1f8679146102005780634c1c6cbf14610233575b5f5ffd5b34801561014a575f5ffd5b506101727f000000000000000000000000000000000000000000000000000000000000000081565b6040516001600160a01b0390911681526020015b60405180910390f35b34801561019a575f5ffd5b506101bd6101a9366004611344565b60036020525f908152604090205460ff1681565b6040519015158152602001610186565b3480156101d8575f5ffd5b506101727f000000000000000000000000000000000000000000000000000000000000000081565b34801561020b575f5ffd5b506101727f000000000000000000000000000000000000000000000000000000000000000081565b34801561023e575f5ffd5b50610249620493e081565b604051908152602001610186565b348015610262575f5ffd5b5061024960a081565b348015610276575f5ffd5b50604080518082019091526015815274726563656976654d6573736167652862797465732960581b6020909101526102cb7ff953cec75ae677942d7cda5cb6d12c0cb96a0904bf37d36301eef297b83c411d81565b6040516001600160e01b03199091168152602001610186565b3480156102ef575f5ffd5b506103036102fe36600461136f565b6104f7565b005b348015610310575f5ffd5b50610249610503565b348015610324575f5ffd5b506101727f000000000000000000000000000000000000000000000000000000000000000081565b348015610357575f5ffd5b50600154610172906001600160a01b031681565b348015610376575f5ffd5b506012610249565b348015610389575f5ffd5b50610303610398366004611344565b61052d565b6103036103ab36600461144d565b6105ef565b6103036103be366004611530565b61080e565b3480156103ce575f5ffd5b506102497f000000000000000000000000000000000000000000000000000000000000000081565b348015610401575f5ffd5b506101727f000000000000000000000000000000000000000000000000000000000000000081565b348015610434575f5ffd5b505f54610172906001600160a01b031681565b348015610452575f5ffd5b506101727f000000000000000000000000000000000000000000000000000000000000000081565b348015610485575f5ffd5b506101727f000000000000000000000000000000000000000000000000000000000000000081565b3480156104b8575f5ffd5b5061024960025481565b3480156104cd575f5ffd5b506103036104dc366004611606565b610965565b3480156104ec575f5ffd5b50610249621e848081565b61050081610a84565b50565b602461051760026001600160401b03611653565b610521919061168c565b6001600160401b031681565b336001600160a01b037f000000000000000000000000000000000000000000000000000000000000000016146105a3577f00000000000000000000000000000000000000000000000000000000000000003360405163312d21ff60e11b815260040161059a9291906116b1565b60405180910390fd5b5f8181526003602052604090205460ff16156105d5576040516356bc34a160e01b81526004810182905260240161059a565b5f908152600360205260409020805460ff19166001179055565b336001600160a01b037f0000000000000000000000000000000000000000000000000000000000000000161461065c577f00000000000000000000000000000000000000000000000000000000000000003360405163312d21ff60e11b815260040161059a9291906116b1565b6040805160018082528183019092525f916020808301908036833701905050905084815f81518110610690576106906116cb565b6001600160a01b0392909216602092830291909101909101526040805160018082528183019092525f9181602001602082028036833701905050905084815f815181106106df576106df6116cb565b6020026020010181815250505f60025490505f814630604051602001610707939291906116df565b6040516020818303038152906040528051906020012090505f5f61072e86868a8a87610b37565b909250905080156107b457604051329082905f81818185875af1925050503d805f8114610776576040519150601f19603f3d011682016040523d82523d5f602084013e61077b565b606091505b50506040518281523291507f8e49ed3e274fbea1556bdfaa9a37a0c28445bfe26d57beaf9f04fd517aa417419060200160405180910390a25b6107bf8460016116fe565b60028190555082827f621aece9999edf4d664a3855f668f6fc380937a42044234fd883b42d0485118788888b6040516107fa93929190611784565b60405180910390a350505050505050505050565b336001600160a01b037f0000000000000000000000000000000000000000000000000000000000000000161461087b577f00000000000000000000000000000000000000000000000000000000000000003360405163312d21ff60e11b815260040161059a9291906116b1565b6002546040515f90610895908390469030906020016116df565b6040516020818303038152906040528051906020012090505f5f6108bc8888888887610b37565b9092509050801561090d57604051329082905f81818185875af1925050503d805f8114610904576040519150601f19603f3d011682016040523d82523d5f602084013e610909565b606091505b5050505b6109188460016116fe565b60028190555082827f621aece9999edf4d664a3855f668f6fc380937a42044234fd883b42d048511878a8a8960405161095393929190611784565b60405180910390a35050505050505050565b336001600160a01b037f000000000000000000000000000000000000000000000000000000000000000016146109d257337f000000000000000000000000000000000000000000000000000000000000000060405163179888fd60e11b815260040161059a9291906116b1565b5f7f00000000000000000000000000000000000000000000000000000000000000006001600160a01b03166380648b026040518163ffffffff1660e01b8152600401602060405180830381865afa158015610a2f573d5f5f3e3d5ffd5b505050506040513d601f19601f82011682018060405250810190610a5391906117b9565b9050610a807f0000000000000000000000000000000000000000000000000000000000000000828461111d565b5050565b6001546001600160a01b03163314610abe5760015460405163521eb56d60e11b815261059a916001600160a01b03169033906004016116b1565b6001600160a01b038116610ae55760405163d92e233d60e01b815260040160405180910390fd5b5f80546001600160a01b0383166001600160a01b0319918216811783556001805490921690915560405190917f991aa5c8f67a92f8feb202de828958c681966ae343fcf6db040f5f8099d547cf91a250565b5f5f60a0855114610b68578451604051631a64813d60e11b815260a06004820152602481019190915260440161059a565b610b9e6040518060a001604052805f6001600160a01b031681526020015f81526020015f81526020015f81526020015f81525090565b85806020019051810190610bb291906117d4565b60808601526060850152604084015260208301526001600160a01b0316808252610bef5760405163d92e233d60e01b815260040160405180910390fd5b600281602001511080610c0457506080810151155b15610c2257604051637c946ed760e01b815260040160405180910390fd5b621e848081606001511015610c5c57606081015160405163491a2bb160e01b81526004810191909152621e8480602482015260440161059a565b6040805160028082526060820183525f926020830190803683370190505090508515610ce65781604001515f03610ca657604051637c946ed760e01b815260040160405180910390fd5b6020820151610cb890620493e0611819565b8260400151610cc791906116fe565b815f81518110610cd957610cd96116cb565b6020026020010181815250505b81602001518260600151610cfa9190611819565b8260800151610d0991906116fe565b81600181518110610d1c57610d1c6116cb565b6020026020010181815250505f81600181518110610d3c57610d3c6116cb565b6020026020010151825f81518110610d5657610d566116cb565b6020026020010151610d6891906116fe565b905034811115610d945760405163491a2bb160e01b81523460048201526024810182905260440161059a565b8615610f775760405163095ea7b360e01b81526001600160a01b037f000000000000000000000000000000000000000000000000000000000000000081166004830152602482018990527f0000000000000000000000000000000000000000000000000000000000000000169063095ea7b3906044016020604051808303815f875af1158015610e26573d5f5f3e3d5ffd5b505050506040513d601f19601f82011682018060405250810190610e4a9190611830565b505f8360400151604051602001610e719181526040602082018190525f9082015260600190565b60405160208183030381529060405290507f00000000000000000000000000000000000000000000000000000000000000006001600160a01b0316634fb1a07b845f81518110610ec357610ec36116cb565b60200260200101517f0000000000000000000000000000000000000000000000000000000000000000875f01515f5f9054906101000a90046001600160a01b03168d620493e08b60200151896040518963ffffffff1660e01b8152600401610f31979695949392919061187d565b5f6040518083038185885af1158015610f4c573d5f5f3e3d5ffd5b50505050506040513d5f823e601f3d908101601f19168201604052610f7491908101906118d2565b50505b6040805180820182526015815274726563656976654d6573736167652862797465732960581b60209182015290515f917ff953cec75ae677942d7cda5cb6d12c0cb96a0904bf37d36301eef297b83c411d91610fd9918e918e918c9101611784565b60408051601f1981840301815290829052610ff691602401611946565b604051602081830303815290604052906001600160e01b0319166020820180516001600160e01b03838183161783525050505090507f00000000000000000000000000000000000000000000000000000000000000006001600160a01b031663679b6ded8460018151811061106d5761106d6116cb565b6020908102919091018101515f805460808a01518a5160608c0151958c01516040516001600160e01b031960e08a901b16815295966110c0966001600160a01b0390951695948592908c90600401611958565b60206040518083038185885af11580156110dc573d5f5f3e3d5ffd5b50505050506040513d601f19601f8201168201806040525081019061110191906119b6565b955061110d82346119cd565b9450505050509550959350505050565b7f00000000000000000000000000000000000000000000000000000000000000006001600160a01b0316836001600160a01b03161461119357337f000000000000000000000000000000000000000000000000000000000000000060405163179888fd60e11b815260040161059a9291906116b1565b5f546001600160a01b038381169116146111d0575f54604051630d16cbdd60e01b815261059a9184916001600160a01b03909116906004016116b1565b5f546040517f0000000000000000000000000000000000000000000000000000000000000000916001600160a01b0316907f98bbde530ec85b002f6fb0864beccaaf3ac3d2a4ac35cb3b03cf7c61ee415e339061122e908590611946565b60405180910390a35f5f8280602001905181019061124c91906119e0565b5f81815260036020526040902054919350915060ff1615611283576040516356bc34a160e01b81526004810182905260240161059a565b5f8181526003602052604090819020805460ff19166001179055516379bc81dd60e01b81527f0000000000000000000000000000000000000000000000000000000000000000600482015260248101839052604481018290526001600160a01b037f000000000000000000000000000000000000000000000000000000000000000016906379bc81dd906064015f604051808303815f87803b158015611327575f5ffd5b505af1158015611339573d5f5f3e3d5ffd5b505050505050505050565b5f60208284031215611354575f5ffd5b5035919050565b6001600160a01b0381168114610500575f5ffd5b5f6020828403121561137f575f5ffd5b813561138a8161135b565b9392505050565b634e487b7160e01b5f52604160045260245ffd5b604051601f8201601f191681016001600160401b03811182821017156113cd576113cd611391565b604052919050565b5f6001600160401b038211156113ed576113ed611391565b50601f01601f191660200190565b5f82601f83011261140a575f5ffd5b813561141d611418826113d5565b6113a5565b818152846020838601011115611431575f5ffd5b816020850160208301375f918101602001919091529392505050565b5f5f5f5f60808587031215611460575f5ffd5b843561146b8161135b565b93506020850135925060408501356001600160401b0381111561148c575f5ffd5b611498878288016113fb565b949793965093946060013593505050565b5f6001600160401b038211156114c1576114c1611391565b5060051b60200190565b5f82601f8301126114da575f5ffd5b81356114e8611418826114a9565b8082825260208201915060208360051b860101925085831115611509575f5ffd5b602085015b8381101561152657803583526020928301920161150e565b5095945050505050565b5f5f5f5f60808587031215611543575f5ffd5b84356001600160401b03811115611558575f5ffd5b8501601f81018713611568575f5ffd5b8035611576611418826114a9565b8082825260208201915060208360051b850101925089831115611597575f5ffd5b6020840193505b828410156115c25783356115b18161135b565b82526020938401939091019061159e565b965050505060208501356001600160401b038111156115df575f5ffd5b6115eb878288016114cb565b93505060408501356001600160401b0381111561148c575f5ffd5b5f60208284031215611616575f5ffd5b81356001600160401b0381111561162b575f5ffd5b611637848285016113fb565b949350505050565b634e487b7160e01b5f52601160045260245ffd5b5f6001600160401b0383168061167757634e487b7160e01b5f52601260045260245ffd5b806001600160401b0384160491505092915050565b6001600160401b0382811682821603908111156116ab576116ab61163f565b92915050565b6001600160a01b0392831681529116602082015260400190565b634e487b7160e01b5f52603260045260245ffd5b92835260208301919091526001600160a01b0316604082015260600190565b808201808211156116ab576116ab61163f565b5f8151808452602084019350602083015f5b8281101561174a5781516001600160a01b0316865260209586019590910190600101611723565b5093949350505050565b5f8151808452602084019350602083015f5b8281101561174a578151865260209586019590910190600101611766565b606081525f6117966060830186611711565b82810360208401526117a88186611754565b915050826040830152949350505050565b5f602082840312156117c9575f5ffd5b815161138a8161135b565b5f5f5f5f5f60a086880312156117e8575f5ffd5b85516117f38161135b565b602087015160408801516060890151608090990151929a91995097965090945092505050565b80820281158282048414176116ab576116ab61163f565b5f60208284031215611840575f5ffd5b8151801515811461138a575f5ffd5b5f81518084528060208401602086015e5f602082860101526020601f19601f83011685010191505092915050565b6001600160a01b038881168252878116602083015286166040820152606081018590526080810184905260a0810183905260e060c082018190525f906118c59083018461184f565b9998505050505050505050565b5f602082840312156118e2575f5ffd5b81516001600160401b038111156118f7575f5ffd5b8201601f81018413611907575f5ffd5b8051611915611418826113d5565b818152856020838501011115611929575f5ffd5b8160208401602083015e5f91810160200191909152949350505050565b602081525f61138a602083018461184f565b6001600160a01b038981168252602082018990526040820188905286811660608301528516608082015260a0810184905260c0810183905261010060e082018190525f906119a89083018461184f565b9a9950505050505050505050565b5f602082840312156119c6575f5ffd5b5051919050565b818103818111156116ab576116ab61163f565b5f5f604083850312156119f1575f5ffd5b50508051602090910151909290915056fea2646970667358221220d91f77dc95cba3b5ef405ad4550f6fd62f21bb9bd96ea3811ee2e91e3089691f64736f6c634300081e0033","linkReferences":{}},"methodIdentifiers":{"BRIDGE_PAYLOAD_LENGTH()":"4ece6b17","MAX_CHAIN_ID()":"5bc105c0","MESSAGE_GAS_LIMIT()":"f9fc3c21","RECEIVE_MESSAGE()":"54d20cc2","TOKEN_GAS_LIMIT()":"4c1c6cbf","bridge()":"e78cea92","getBridgingDecimals()":"a8b2ae02","l1Dispenser()":"f2541c35","l1ERC20Gateway()":"0e283a6a","l1MessageRelayer()":"3d1f8679","l1TokenRelayer()":"6143fe93","l2TargetChainId()":"c23cc3ff","l2TargetDispenser()":"e309fb77","olas()":"0031d115","outbox()":"ce11e6ab","owner()":"8da5cb5b","processedHashes(bytes32)":"07d9c534","receiveMessage(bytes)":"f953cec7","sendMessage(address,uint256,bytes,uint256)":"b2267a7b","sendMessageBatch(address[],uint256[],bytes,uint256)":"bde52661","setL2TargetDispenser(address)":"54e4bbf4","stakingBatchNonce()":"f4427c2c","updateHashMaintenance(bytes32)":"ac65ded2"},"id":23}