{
  "_format": "hh-sol-artifact-1",
  "contractName": "BalancerPriceOracle",
  "sourceName": "contracts/oracles/BalancerPriceOracle.sol",
  "abi": [
    {
      "inputs": [
        {
          "internalType": "address",
          "name": "_balancerVault",
          "type": "address"
        },
        {
          "internalType": "bytes32",
          "name": "_balancerPoolId",
          "type": "bytes32"
        },
        {
          "internalType": "address",
          "name": "_olas",
          "type": "address"
        },
        {
          "internalType": "uint256",
          "name": "_minTwapWindowSeconds",
          "type": "uint256"
        },
        {
          "internalType": "uint256",
          "name": "_minUpdateIntervalSeconds",
          "type": "uint256"
        },
        {
          "internalType": "uint256",
          "name": "_maxStalenessSeconds",
          "type": "uint256"
        }
      ],
      "stateMutability": "nonpayable",
      "type": "constructor"
    },
    {
      "inputs": [
        {
          "internalType": "uint256",
          "name": "provided",
          "type": "uint256"
        },
        {
          "internalType": "uint256",
          "name": "max",
          "type": "uint256"
        }
      ],
      "name": "Overflow",
      "type": "error"
    },
    {
      "inputs": [
        {
          "internalType": "address[]",
          "name": "tokens",
          "type": "address[]"
        }
      ],
      "name": "WrongPool",
      "type": "error"
    },
    {
      "inputs": [],
      "name": "ZeroAddress",
      "type": "error"
    },
    {
      "inputs": [],
      "name": "ZeroValue",
      "type": "error"
    },
    {
      "anonymous": false,
      "inputs": [
        {
          "indexed": true,
          "internalType": "address",
          "name": "sender",
          "type": "address"
        },
        {
          "indexed": false,
          "internalType": "uint256",
          "name": "priceCumulative",
          "type": "uint256"
        },
        {
          "indexed": false,
          "internalType": "uint256",
          "name": "timestamp",
          "type": "uint256"
        }
      ],
      "name": "ObservationUpdated",
      "type": "event"
    },
    {
      "inputs": [],
      "name": "balancerPoolId",
      "outputs": [
        {
          "internalType": "bytes32",
          "name": "",
          "type": "bytes32"
        }
      ],
      "stateMutability": "view",
      "type": "function"
    },
    {
      "inputs": [],
      "name": "balancerVault",
      "outputs": [
        {
          "internalType": "address",
          "name": "",
          "type": "address"
        }
      ],
      "stateMutability": "view",
      "type": "function"
    },
    {
      "inputs": [],
      "name": "direction",
      "outputs": [
        {
          "internalType": "uint256",
          "name": "",
          "type": "uint256"
        }
      ],
      "stateMutability": "view",
      "type": "function"
    },
    {
      "inputs": [],
      "name": "getPrice",
      "outputs": [
        {
          "internalType": "uint256",
          "name": "",
          "type": "uint256"
        }
      ],
      "stateMutability": "view",
      "type": "function"
    },
    {
      "inputs": [],
      "name": "getTWAP",
      "outputs": [
        {
          "internalType": "uint256",
          "name": "",
          "type": "uint256"
        }
      ],
      "stateMutability": "view",
      "type": "function"
    },
    {
      "inputs": [],
      "name": "lastObservation",
      "outputs": [
        {
          "internalType": "uint256",
          "name": "priceCumulative",
          "type": "uint256"
        },
        {
          "internalType": "uint256",
          "name": "timestamp",
          "type": "uint256"
        }
      ],
      "stateMutability": "view",
      "type": "function"
    },
    {
      "inputs": [],
      "name": "maxStaleness",
      "outputs": [
        {
          "internalType": "uint256",
          "name": "",
          "type": "uint256"
        }
      ],
      "stateMutability": "view",
      "type": "function"
    },
    {
      "inputs": [],
      "name": "minTwapWindow",
      "outputs": [
        {
          "internalType": "uint256",
          "name": "",
          "type": "uint256"
        }
      ],
      "stateMutability": "view",
      "type": "function"
    },
    {
      "inputs": [],
      "name": "minUpdateInterval",
      "outputs": [
        {
          "internalType": "uint256",
          "name": "",
          "type": "uint256"
        }
      ],
      "stateMutability": "view",
      "type": "function"
    },
    {
      "inputs": [],
      "name": "prevObservation",
      "outputs": [
        {
          "internalType": "uint256",
          "name": "priceCumulative",
          "type": "uint256"
        },
        {
          "internalType": "uint256",
          "name": "timestamp",
          "type": "uint256"
        }
      ],
      "stateMutability": "view",
      "type": "function"
    },
    {
      "inputs": [],
      "name": "updatePrice",
      "outputs": [
        {
          "internalType": "bool",
          "name": "",
          "type": "bool"
        }
      ],
      "stateMutability": "nonpayable",
      "type": "function"
    }
  ],
  "bytecode": "0x610140806040523461031e5760c081610bee80380380916100208285610397565b83398101031261031e57610033816103ce565b602082015190610045604084016103ce565b9160608401519160a0608086015195015160018060a01b0382169384156103885780158015610380575b6103715786811161035a57818111610345575f94959660805260a05260c052610100528061012052602460405180948193631f29a8cd60e31b835260048301525afa90811561033a575f91610230575b5060028151148015906101cb575b610171576001600160a01b03906100e3906103f9565b516001600160a01b03909216911614610167575b6040516107e7908161040782396080518181816102690152610533015260a05181818161022f0152610323015260c05181818161015301526102ee015260e0518181816101b1015261060e0152610100518181816101e901526105d301526101205181818160d301526105a80152f35b600160e0526100f7565b604051809163518ac42560e11b8252602482016020600484015281518091526020604484019201905f5b8181106101a9575050500390fd5b82516001600160a01b031684528594506020938401939092019160010161019b565b506001600160a01b036101dd826103f9565b516001600160a01b038416911681141590816101fa575b506100cd565b905081516001101561021c5760408201516001600160a01b031614155f6101f4565b634e487b7160e01b5f52603260045260245ffd5b90503d805f833e6102418183610397565b810160608282031261031e5781516001600160401b03811161031e5782019181601f8401121561031e57825192610277846103e2565b936102856040519586610397565b80855260208086019160051b8301019184831161031e57602001905b828210610322575050506020810151906001600160401b03821161031e570181601f8201121561031e578051906020806102da846103e2565b6102e76040519182610397565b848152019260051b82010192831161031e57602001905b82821061030e575050505f6100bf565b81518152602091820191016102fe565b5f80fd5b6020809161032f846103ce565b8152019101906102a1565b6040513d5f823e3d90fd5b637ae5968560e01b5f5260045260245260445ffd5b8690637ae5968560e01b5f5260045260245260445ffd5b637c946ed760e01b5f5260045ffd5b50861561006f565b63d92e233d60e01b5f5260045ffd5b601f909101601f19168101906001600160401b038211908210176103ba57604052565b634e487b7160e01b5f52604160045260245ffd5b51906001600160a01b038216820361031e57565b6001600160401b0381116103ba5760051b60200190565b80511561021c576020019056fe6080806040526004361015610012575f80fd5b5f3560e01c90816305ecd0031461028c575080630964ff26146102525780631067fd3f14610218578063158274a5146101d4578063645539ed1461019a578063673a7e281461017657806387cf46961461013c5780638a7b8cf21461011857806398d5fdca146100f6578063dbbb64b9146100bc5763dc79bd0314610095575f80fd5b346100b8575f3660031901126100b85760405f5460015482519182526020820152f35b5f80fd5b346100b8575f3660031901126100b85760206040517f00000000000000000000000000000000000000000000000000000000000000008152f35b346100b8575f3660031901126100b8576020610110610599565b604051908152f35b346100b8575f3660031901126100b857604060025460035482519182526020820152f35b346100b8575f3660031901126100b85760206040517f00000000000000000000000000000000000000000000000000000000000000008152f35b346100b8575f3660031901126100b8576020610190610469565b6040519015158152f35b346100b8575f3660031901126100b85760206040517f00000000000000000000000000000000000000000000000000000000000000008152f35b346100b8575f3660031901126100b8576040517f00000000000000000000000000000000000000000000000000000000000000006001600160a01b03168152602090f35b346100b8575f3660031901126100b85760206040517f00000000000000000000000000000000000000000000000000000000000000008152f35b346100b8575f3660031901126100b85760206040517f00000000000000000000000000000000000000000000000000000000000000008152f35b346100b8575f3660031901126100b8576102a5816103b8565b5f54815260015490602081019182526040516102c0816103b8565b600254815260035460208201908082528451159081156103af575b5061038a576102eb90514261040a565b927f0000000000000000000000000000000000000000000000000000000000000000808511610399575061032090514261040a565b917f0000000000000000000000000000000000000000000000000000000000000000831061038a5761036c610374926103666103799661035e610599565b92519261042b565b9061043e565b90519061040a565b61044b565b801561038a57602090604051908152f35b637c946ed760e01b5f5260045ffd5b84637ae5968560e01b5f5260045260245260445ffd5b905015856102db565b6040810190811067ffffffffffffffff8211176103d457604052565b634e487b7160e01b5f52604160045260245ffd5b90601f8019910116810190811067ffffffffffffffff8211176103d457604052565b9190820391821161041757565b634e487b7160e01b5f52601160045260245ffd5b8181029291811591840414171561041757565b9190820180921161041757565b8115610455570490565b634e487b7160e01b5f52601260045260245ffd5b604051610475816103b8565b600254815260035461048e60208301918083524261040a565b918151151580610530575b610529576104a5610599565b92831561038a5781519381610512575b5050515f55516001556040516104ca816103b8565b81815260204291015280600255426003556040519081524260208201527f53bf861b172248ff113bd48d297dad4244133cd360040a0353127bfc019c344060403392a2600190565b6105219294916103669161042b565b915f806104b5565b5050505f90565b507f00000000000000000000000000000000000000000000000000000000000000008310610499565b67ffffffffffffffff81116103d45760051b60200190565b80518210156105855760209160051b010190565b634e487b7160e01b5f52603260045260245ffd5b604051631f29a8cd60e31b81527f000000000000000000000000000000000000000000000000000000000000000060048201525f816024817f00000000000000000000000000000000000000000000000000000000000000006001600160a01b03165afa9081156107a6575f91610696575b507f00000000000000000000000000000000000000000000000000000000000000006106378183610571565b51916001820182116104175760026001610652930890610571565b51908015801561068e575b61038a57670de0b6b3a7640000820291808304670de0b6b3a764000014901517156104175761068b9161044b565b90565b50811561065d565b90503d805f833e6106a781836103e8565b8101906060818303126100b857805167ffffffffffffffff81116100b857810182601f820112156100b8578051906020806106e184610559565b6106ee60405191826103e8565b848152019260051b820101908482116100b857602001915b8183106107865750505060208101519067ffffffffffffffff82116100b857019080601f830112156100b857815161073d81610559565b9261074b60405194856103e8565b81845260208085019260051b8201019283116100b857602001905b828210610776575050505f61060b565b8151815260209182019101610766565b82516001600160a01b03811681036100b857815260209283019201610706565b6040513d5f823e3d90fdfea2646970667358221220efe3b34197e4fef2f8c0bd172ff20b3e4e0c8575288d53095ecd4d6588f82b7164736f6c634300081e0033",
  "linkReferences": {},
  "deployedLinkReferences": {}
}