{
  "_format": "hh-sol-artifact-1",
  "contractName": "Bridge2BurnerPolygon",
  "sourceName": "contracts/utils/Bridge2BurnerPolygon.sol",
  "abi": [
    {
      "inputs": [
        {
          "internalType": "address",
          "name": "_olas",
          "type": "address"
        },
        {
          "internalType": "address",
          "name": "_bridgeMediator",
          "type": "address"
        }
      ],
      "stateMutability": "nonpayable",
      "type": "constructor"
    },
    {
      "inputs": [],
      "name": "ReentrancyGuard",
      "type": "error"
    },
    {
      "inputs": [
        {
          "internalType": "address",
          "name": "token",
          "type": "address"
        },
        {
          "internalType": "address",
          "name": "to",
          "type": "address"
        },
        {
          "internalType": "uint256",
          "name": "amount",
          "type": "uint256"
        }
      ],
      "name": "TransferFailed",
      "type": "error"
    },
    {
      "inputs": [
        {
          "internalType": "uint256",
          "name": "provided",
          "type": "uint256"
        },
        {
          "internalType": "uint256",
          "name": "min",
          "type": "uint256"
        }
      ],
      "name": "Underflow",
      "type": "error"
    },
    {
      "inputs": [],
      "name": "ZeroAddress",
      "type": "error"
    },
    {
      "inputs": [],
      "name": "MIN_OLAS_BALANCE",
      "outputs": [
        {
          "internalType": "uint256",
          "name": "",
          "type": "uint256"
        }
      ],
      "stateMutability": "view",
      "type": "function"
    },
    {
      "inputs": [],
      "name": "OLAS_BURNER",
      "outputs": [
        {
          "internalType": "address",
          "name": "",
          "type": "address"
        }
      ],
      "stateMutability": "view",
      "type": "function"
    },
    {
      "inputs": [],
      "name": "VERSION",
      "outputs": [
        {
          "internalType": "string",
          "name": "",
          "type": "string"
        }
      ],
      "stateMutability": "view",
      "type": "function"
    },
    {
      "inputs": [],
      "name": "l2TokenRelayer",
      "outputs": [
        {
          "internalType": "address",
          "name": "",
          "type": "address"
        }
      ],
      "stateMutability": "view",
      "type": "function"
    },
    {
      "inputs": [],
      "name": "olas",
      "outputs": [
        {
          "internalType": "address",
          "name": "",
          "type": "address"
        }
      ],
      "stateMutability": "view",
      "type": "function"
    },
    {
      "inputs": [],
      "name": "relayToL1Burner",
      "outputs": [],
      "stateMutability": "nonpayable",
      "type": "function"
    }
  ],
  "bytecode": "0x60c0346100c257601f6104ae38819003918201601f19168301916001600160401b038311848410176100c65780849260409485528339810103126100c257610052602061004b836100da565b92016100da565b906001600160a01b0381161580156100b1575b6100a25760805260a05260015f556040516103bf90816100ef82396080518181816101aa0152610338015260a05181818161011b01526102090152f35b63d92e233d60e01b5f5260045ffd5b506001600160a01b03821615610065565b5f80fd5b634e487b7160e01b5f52604160045260245ffd5b51906001600160a01b03821682036100c25756fe6080806040526004361015610012575f80fd5b5f3560e01c90816231d11514610326575080635ce42867146101785780638b9ee6101461014a578063a7be1b5014610106578063aeed157b146100e35763ffa1ad741461005d575f80fd5b346100df575f3660031901126100df576040516040810181811067ffffffffffffffff8211176100cb576040526005815260406020820191640302e312e360dc1b83528151928391602083525180918160208501528484015e5f828201840152601f01601f19168101030190f35b634e487b7160e01b5f52604160045260245ffd5b5f80fd5b346100df575f3660031901126100df57602060405168056bc75e2d631000008152f35b346100df575f3660031901126100df576040517f00000000000000000000000000000000000000000000000000000000000000006001600160a01b03168152602090f35b346100df575f3660031901126100df5760206040517351eb65012ca5ceb07320c497f4151ac207fea4e08152f35b346100df575f3660031901126100df5760015f54116103175760025f556040516370a0823160e01b81523060048201527f00000000000000000000000000000000000000000000000000000000000000006001600160a01b0316602082602481845afa9182156102b8575f926102e3575b5068056bc75e2d6310000082106102c35760405163a9059cbb60e01b81527f00000000000000000000000000000000000000000000000000000000000000006001600160a01b0316600482018190526024820184905291906020816044815f865af19081156102b8575f9161027d575b50156102655760015f55005b6317e3057d60e31b5f5260045260245260445260645ffd5b90506020813d6020116102b0575b8161029860209383610367565b810103126100df575180151581036100df5784610259565b3d915061028b565b6040513d5f823e3d90fd5b5063c076384b60e01b5f5260045268056bc75e2d6310000060245260445ffd5b9091506020813d60201161030f575b816102ff60209383610367565b810103126100df575190826101e9565b3d91506102f2565b6345f5ce8b60e11b5f5260045ffd5b346100df575f3660031901126100df577f00000000000000000000000000000000000000000000000000000000000000006001600160a01b03168152602090f35b90601f8019910116810190811067ffffffffffffffff8211176100cb5760405256fea2646970667358221220ca1a6436dccc638aaade8881f2ecb3a35fadb3420582c5956b5f459ae1db6de164736f6c634300081e0033",
  "linkReferences": {},
  "deployedLinkReferences": {}
}