{
  "_format": "hh-sol-artifact-1",
  "contractName": "Bridge2BurnerGnosis",
  "sourceName": "contracts/utils/Bridge2BurnerGnosis.sol",
  "abi": [
    {
      "inputs": [
        {
          "internalType": "address",
          "name": "_olas",
          "type": "address"
        },
        {
          "internalType": "address",
          "name": "_l2TokenRelayer",
          "type": "address"
        }
      ],
      "stateMutability": "nonpayable",
      "type": "constructor"
    },
    {
      "inputs": [],
      "name": "ReentrancyGuard",
      "type": "error"
    },
    {
      "inputs": [
        {
          "internalType": "uint256",
          "name": "provided",
          "type": "uint256"
        },
        {
          "internalType": "uint256",
          "name": "min",
          "type": "uint256"
        }
      ],
      "name": "Underflow",
      "type": "error"
    },
    {
      "inputs": [],
      "name": "ZeroAddress",
      "type": "error"
    },
    {
      "inputs": [],
      "name": "MIN_OLAS_BALANCE",
      "outputs": [
        {
          "internalType": "uint256",
          "name": "",
          "type": "uint256"
        }
      ],
      "stateMutability": "view",
      "type": "function"
    },
    {
      "inputs": [],
      "name": "OLAS_BURNER",
      "outputs": [
        {
          "internalType": "address",
          "name": "",
          "type": "address"
        }
      ],
      "stateMutability": "view",
      "type": "function"
    },
    {
      "inputs": [],
      "name": "VERSION",
      "outputs": [
        {
          "internalType": "string",
          "name": "",
          "type": "string"
        }
      ],
      "stateMutability": "view",
      "type": "function"
    },
    {
      "inputs": [],
      "name": "l2TokenRelayer",
      "outputs": [
        {
          "internalType": "address",
          "name": "",
          "type": "address"
        }
      ],
      "stateMutability": "view",
      "type": "function"
    },
    {
      "inputs": [],
      "name": "olas",
      "outputs": [
        {
          "internalType": "address",
          "name": "",
          "type": "address"
        }
      ],
      "stateMutability": "view",
      "type": "function"
    },
    {
      "inputs": [],
      "name": "relayToL1Burner",
      "outputs": [],
      "stateMutability": "nonpayable",
      "type": "function"
    }
  ],
  "bytecode": "0x60c0346100c257601f61057838819003918201601f19168301916001600160401b038311848410176100c65780849260409485528339810103126100c257610052602061004b836100da565b92016100da565b906001600160a01b0381161580156100b1575b6100a25760805260a05260015f5560405161048990816100ef82396080518181816101ae01526103d6015260a05181818161011d015261020e0152f35b63d92e233d60e01b5f5260045ffd5b506001600160a01b03821615610065565b5f80fd5b634e487b7160e01b5f52604160045260245ffd5b51906001600160a01b03821682036100c25756fe6080806040526004361015610012575f80fd5b5f905f3560e01c90816231d115146103c4575080635ce428671461017b5780638b9ee6101461014c578063a7be1b5014610107578063aeed157b146100e35763ffa1ad741461005f575f80fd5b346100e057806003193601126100e0576040516040810181811067ffffffffffffffff8211176100cc579060409182526005815260208101640302e312e360dc1b81528251938492602084525180928160208601528585015e828201840152601f01601f19168101030190f35b634e487b7160e01b83526041600452602483fd5b80fd5b50346100e057806003193601126100e057602060405168056bc75e2d631000008152f35b50346100e057806003193601126100e0576040517f00000000000000000000000000000000000000000000000000000000000000006001600160a01b03168152602090f35b50346100e057806003193601126100e05760206040517351eb65012ca5ceb07320c497f4151ac207fea4e08152f35b5034610343575f3660031901126103435760015f54116103b55760025f556040516370a0823160e01b81523060048201527f00000000000000000000000000000000000000000000000000000000000000006001600160a01b031690602081602481855afa908115610338575f91610383575b5068056bc75e2d6310000081106103645760405163095ea7b360e01b81527f00000000000000000000000000000000000000000000000000000000000000006001600160a01b0316600482018190526024820183905291906020816044815f885af1801561033857610347575b50813b15610343576040519063ad58bdd160e01b82528360048301527351eb65012ca5ceb07320c497f4151ac207fea4e0602483015260448201525f8160648183865af180156103385761031c575b5082916044602092604051948593849263095ea7b360e01b845260048401528160248401525af18015610311576102e4575b506001815580f35b6103059060203d60201161030a575b6102fd8183610405565b81019061043b565b6102dc565b503d6102f3565b6040513d84823e3d90fd5b604493509161032e5f60209394610405565b5f935091906102aa565b6040513d5f823e3d90fd5b5f80fd5b61035f9060203d60201161030a576102fd8183610405565b61025b565b63c076384b60e01b5f5260045268056bc75e2d6310000060245260445ffd5b90506020813d6020116103ad575b8161039e60209383610405565b8101031261034357515f6101ee565b3d9150610391565b6345f5ce8b60e11b5f5260045ffd5b34610343575f366003190112610343577f00000000000000000000000000000000000000000000000000000000000000006001600160a01b03168152602090f35b90601f8019910116810190811067ffffffffffffffff82111761042757604052565b634e487b7160e01b5f52604160045260245ffd5b9081602091031261034357518015158103610343579056fea2646970667358221220c477194c1c0cf79dc03e8bc39721bc387d66a086c82f77d01cccf81719c3164f64736f6c634300081e0033",
  "linkReferences": {},
  "deployedLinkReferences": {}
}