{
  "_format": "hh-sol-artifact-1",
  "contractName": "Bridge2BurnerOptimism",
  "sourceName": "contracts/utils/Bridge2BurnerOptimism.sol",
  "abi": [
    {
      "inputs": [
        {
          "internalType": "address",
          "name": "_olas",
          "type": "address"
        },
        {
          "internalType": "address",
          "name": "_l2TokenRelayer",
          "type": "address"
        }
      ],
      "stateMutability": "nonpayable",
      "type": "constructor"
    },
    {
      "inputs": [],
      "name": "ReentrancyGuard",
      "type": "error"
    },
    {
      "inputs": [
        {
          "internalType": "uint256",
          "name": "provided",
          "type": "uint256"
        },
        {
          "internalType": "uint256",
          "name": "min",
          "type": "uint256"
        }
      ],
      "name": "Underflow",
      "type": "error"
    },
    {
      "inputs": [],
      "name": "ZeroAddress",
      "type": "error"
    },
    {
      "inputs": [],
      "name": "MIN_OLAS_BALANCE",
      "outputs": [
        {
          "internalType": "uint256",
          "name": "",
          "type": "uint256"
        }
      ],
      "stateMutability": "view",
      "type": "function"
    },
    {
      "inputs": [],
      "name": "OLAS_BURNER",
      "outputs": [
        {
          "internalType": "address",
          "name": "",
          "type": "address"
        }
      ],
      "stateMutability": "view",
      "type": "function"
    },
    {
      "inputs": [],
      "name": "TOKEN_GAS_LIMIT",
      "outputs": [
        {
          "internalType": "uint32",
          "name": "",
          "type": "uint32"
        }
      ],
      "stateMutability": "view",
      "type": "function"
    },
    {
      "inputs": [],
      "name": "VERSION",
      "outputs": [
        {
          "internalType": "string",
          "name": "",
          "type": "string"
        }
      ],
      "stateMutability": "view",
      "type": "function"
    },
    {
      "inputs": [],
      "name": "l2TokenRelayer",
      "outputs": [
        {
          "internalType": "address",
          "name": "",
          "type": "address"
        }
      ],
      "stateMutability": "view",
      "type": "function"
    },
    {
      "inputs": [],
      "name": "olas",
      "outputs": [
        {
          "internalType": "address",
          "name": "",
          "type": "address"
        }
      ],
      "stateMutability": "view",
      "type": "function"
    },
    {
      "inputs": [],
      "name": "relayToL1Burner",
      "outputs": [],
      "stateMutability": "nonpayable",
      "type": "function"
    }
  ],
  "bytecode": "0x60c0346100c257601f6105c238819003918201601f19168301916001600160401b038311848410176100c65780849260409485528339810103126100c257610052602061004b836100da565b92016100da565b906001600160a01b0381161580156100b1575b6100a25760805260a05260015f556040516104d390816100ef82396080518181816101b90152610420015260a05181818161012801526102190152f35b63d92e233d60e01b5f5260045ffd5b506001600160a01b03821615610065565b5f80fd5b634e487b7160e01b5f52604160045260245ffd5b51906001600160a01b03821682036100c25756fe6080806040526004361015610012575f80fd5b5f905f3560e01c90816231d1151461040e575080634c1c6cbf146103f15780635ce42867146101865780638b9ee61014610157578063a7be1b5014610112578063aeed157b146100ee5763ffa1ad741461006a575f80fd5b346100eb57806003193601126100eb576040516040810181811067ffffffffffffffff8211176100d7579060409182526005815260208101640302e312e360dc1b81528251938492602084525180928160208601528585015e828201840152601f01601f19168101030190f35b634e487b7160e01b83526041600452602483fd5b80fd5b50346100eb57806003193601126100eb57602060405168056bc75e2d631000008152f35b50346100eb57806003193601126100eb576040517f00000000000000000000000000000000000000000000000000000000000000006001600160a01b03168152602090f35b50346100eb57806003193601126100eb5760206040517351eb65012ca5ceb07320c497f4151ac207fea4e08152f35b5034610370575f3660031901126103705760015f54116103e25760025f556040516370a0823160e01b81523060048201527f00000000000000000000000000000000000000000000000000000000000000006001600160a01b031690602081602481855afa908115610365575f916103b0575b5068056bc75e2d6310000081106103915760405163095ea7b360e01b81527f00000000000000000000000000000000000000000000000000000000000000006001600160a01b0316600482018190526024820183905291906020816044815f885af1801561036557610374575b50813b156103705760405190631474f2a960e31b82528360048301527351eb65012ca5ceb07320c497f4151ac207fea4e060248301526044820152620493e0606482015260a06084820152600260a482015261060f60f31b60c48201525f8160e48183865af1801561036557610349575b5082916044602092604051948593849263095ea7b360e01b845260048401528160248401525af1801561033e57610311575b506001815580f35b6103329060203d602011610337575b61032a818361044f565b810190610485565b610309565b503d610320565b6040513d84823e3d90fd5b604493509161035b5f6020939461044f565b5f935091906102d7565b6040513d5f823e3d90fd5b5f80fd5b61038c9060203d6020116103375761032a818361044f565b610266565b63c076384b60e01b5f5260045268056bc75e2d6310000060245260445ffd5b90506020813d6020116103da575b816103cb6020938361044f565b8101031261037057515f6101f9565b3d91506103be565b6345f5ce8b60e11b5f5260045ffd5b34610370575f366003190112610370576020604051620493e08152f35b34610370575f366003190112610370577f00000000000000000000000000000000000000000000000000000000000000006001600160a01b03168152602090f35b90601f8019910116810190811067ffffffffffffffff82111761047157604052565b634e487b7160e01b5f52604160045260245ffd5b9081602091031261037057518015158103610370579056fea264697066735822122082eb445675c7ff05764d3281ef9f22272260f5bb443a7a817e2d0d3fa671394864736f6c634300081e0033",
  "linkReferences": {},
  "deployedLinkReferences": {}
}