{
  "_format": "hh-sol-artifact-1",
  "contractName": "Bridge2BurnerArbitrum",
  "sourceName": "contracts/utils/Bridge2BurnerArbitrum.sol",
  "abi": [
    {
      "inputs": [
        {
          "internalType": "address",
          "name": "_olas",
          "type": "address"
        },
        {
          "internalType": "address",
          "name": "_l2TokenRelayer",
          "type": "address"
        },
        {
          "internalType": "address",
          "name": "_l1Olas",
          "type": "address"
        }
      ],
      "stateMutability": "nonpayable",
      "type": "constructor"
    },
    {
      "inputs": [],
      "name": "ReentrancyGuard",
      "type": "error"
    },
    {
      "inputs": [
        {
          "internalType": "uint256",
          "name": "provided",
          "type": "uint256"
        },
        {
          "internalType": "uint256",
          "name": "min",
          "type": "uint256"
        }
      ],
      "name": "Underflow",
      "type": "error"
    },
    {
      "inputs": [],
      "name": "ZeroAddress",
      "type": "error"
    },
    {
      "inputs": [],
      "name": "ZeroAddress",
      "type": "error"
    },
    {
      "inputs": [],
      "name": "MIN_OLAS_BALANCE",
      "outputs": [
        {
          "internalType": "uint256",
          "name": "",
          "type": "uint256"
        }
      ],
      "stateMutability": "view",
      "type": "function"
    },
    {
      "inputs": [],
      "name": "OLAS_BURNER",
      "outputs": [
        {
          "internalType": "address",
          "name": "",
          "type": "address"
        }
      ],
      "stateMutability": "view",
      "type": "function"
    },
    {
      "inputs": [],
      "name": "VERSION",
      "outputs": [
        {
          "internalType": "string",
          "name": "",
          "type": "string"
        }
      ],
      "stateMutability": "view",
      "type": "function"
    },
    {
      "inputs": [],
      "name": "l1Olas",
      "outputs": [
        {
          "internalType": "address",
          "name": "",
          "type": "address"
        }
      ],
      "stateMutability": "view",
      "type": "function"
    },
    {
      "inputs": [],
      "name": "l2TokenRelayer",
      "outputs": [
        {
          "internalType": "address",
          "name": "",
          "type": "address"
        }
      ],
      "stateMutability": "view",
      "type": "function"
    },
    {
      "inputs": [],
      "name": "olas",
      "outputs": [
        {
          "internalType": "address",
          "name": "",
          "type": "address"
        }
      ],
      "stateMutability": "view",
      "type": "function"
    },
    {
      "inputs": [],
      "name": "relayToL1Burner",
      "outputs": [],
      "stateMutability": "nonpayable",
      "type": "function"
    }
  ],
  "bytecode": "0x60e0346100f257601f61067438819003918201601f19168301916001600160401b038311848410176100f6578084926060946040528339810103126100f2576100478161010a565b9061006060406100596020840161010a565b920161010a565b916001600160a01b0381161580156100e1575b6100d25760805260a05260015f556001600160a01b038116156100d25760c052604051610555908161011f823960805181818161019101526104b6015260a05181818161010201526101f1015260c05181818161024e01526104750152f35b63d92e233d60e01b5f5260045ffd5b506001600160a01b03821615610073565b5f80fd5b634e487b7160e01b5f52604160045260245ffd5b51906001600160a01b03821682036100f25756fe6080806040526004361015610012575f80fd5b5f3560e01c90816231d115146104a4575080633c9b077c146104605780635ce428671461015f5780638b9ee61014610131578063a7be1b50146100ed578063aeed157b146100ca5763ffa1ad7414610068575f80fd5b346100c6575f3660031901126100c657604080519061008781836104e5565b600582526020820191640302e312e360dc1b83528151928391602083525180918160208501528484015e5f828201840152601f01601f19168101030190f35b5f80fd5b346100c6575f3660031901126100c657602060405168056bc75e2d631000008152f35b346100c6575f3660031901126100c6576040517f00000000000000000000000000000000000000000000000000000000000000006001600160a01b03168152602090f35b346100c6575f3660031901126100c65760206040517351eb65012ca5ceb07320c497f4151ac207fea4e08152f35b346100c6575f3660031901126100c65760015f54116104515760025f556040516370a0823160e01b81523060048201527f00000000000000000000000000000000000000000000000000000000000000006001600160a01b031690602081602481855afa908115610332575f9161041f575b5068056bc75e2d6310000081106104005760405163095ea7b360e01b81527f00000000000000000000000000000000000000000000000000000000000000006001600160a01b0316600482018190526024820183905291906020816044815f885af18015610332576103e3575b5060405163d2ce7d6560e01b81527f00000000000000000000000000000000000000000000000000000000000000006001600160a01b031660048201527351eb65012ca5ceb07320c497f4151ac207fea4e0602482015260448101919091525f606482018190526084820181905260c060a483015260c482018190528160e48183865af180156103325761033d575b505f916044602092604051948593849263095ea7b360e01b845260048401528160248401525af1801561033257610305575b60015f55005b6103269060203d60201161032b575b61031e81836104e5565b810190610507565b6102ff565b503d610314565b6040513d5f823e3d90fd5b913d805f853e61034d81856104e5565b8301926020818503126100c65780519067ffffffffffffffff82116100c6570183601f820112156100c65780519267ffffffffffffffff84116103cf57604051946103a2601f8601601f1916602001876104e5565b848652602085840101116100c6575f9485602086819782604497018386015e8301015250925050916102cd565b634e487b7160e01b5f52604160045260245ffd5b6103fb9060203d60201161032b5761031e81836104e5565b61023e565b63c076384b60e01b5f5260045268056bc75e2d6310000060245260445ffd5b90506020813d602011610449575b8161043a602093836104e5565b810103126100c65751826101d1565b3d915061042d565b6345f5ce8b60e11b5f5260045ffd5b346100c6575f3660031901126100c6576040517f00000000000000000000000000000000000000000000000000000000000000006001600160a01b03168152602090f35b346100c6575f3660031901126100c6577f00000000000000000000000000000000000000000000000000000000000000006001600160a01b03168152602090f35b90601f8019910116810190811067ffffffffffffffff8211176103cf57604052565b908160209103126100c6575180151581036100c6579056fea26469706673582212205936dd4655bf0bfd4033c933f5bf1170c8a30922d934f20bfa43d552f8be7a5664736f6c634300081e0033",
  "linkReferences": {},
  "deployedLinkReferences": {}
}