{
  "_format": "hh-sol-artifact-1",
  "contractName": "BuyBackBurnerUniswap",
  "sourceName": "contracts/utils/BuyBackBurnerUniswap.sol",
  "abi": [
    {
      "inputs": [
        {
          "internalType": "address",
          "name": "_liquidityManager",
          "type": "address"
        },
        {
          "internalType": "address",
          "name": "_bridge2Burner",
          "type": "address"
        },
        {
          "internalType": "address",
          "name": "_treasury",
          "type": "address"
        },
        {
          "internalType": "address",
          "name": "_swapRouter",
          "type": "address"
        }
      ],
      "stateMutability": "nonpayable",
      "type": "constructor"
    },
    {
      "inputs": [],
      "name": "AlreadyInitialized",
      "type": "error"
    },
    {
      "inputs": [
        {
          "internalType": "uint256",
          "name": "deadline",
          "type": "uint256"
        },
        {
          "internalType": "uint256",
          "name": "blockTimestamp",
          "type": "uint256"
        }
      ],
      "name": "DeadlineExpired",
      "type": "error"
    },
    {
      "inputs": [
        {
          "internalType": "uint256",
          "name": "provided",
          "type": "uint256"
        },
        {
          "internalType": "uint256",
          "name": "max",
          "type": "uint256"
        }
      ],
      "name": "Overflow",
      "type": "error"
    },
    {
      "inputs": [
        {
          "internalType": "address",
          "name": "sender",
          "type": "address"
        },
        {
          "internalType": "address",
          "name": "owner",
          "type": "address"
        }
      ],
      "name": "OwnerOnly",
      "type": "error"
    },
    {
      "inputs": [],
      "name": "ReentrancyGuard",
      "type": "error"
    },
    {
      "inputs": [
        {
          "internalType": "address",
          "name": "token",
          "type": "address"
        },
        {
          "internalType": "address",
          "name": "to",
          "type": "address"
        },
        {
          "internalType": "uint256",
          "name": "amount",
          "type": "uint256"
        }
      ],
      "name": "TransferFailed",
      "type": "error"
    },
    {
      "inputs": [
        {
          "internalType": "address",
          "name": "pool",
          "type": "address"
        }
      ],
      "name": "UnauthorizedPool",
      "type": "error"
    },
    {
      "inputs": [
        {
          "internalType": "address",
          "name": "token",
          "type": "address"
        }
      ],
      "name": "UnauthorizedToken",
      "type": "error"
    },
    {
      "inputs": [
        {
          "internalType": "int256",
          "name": "provided",
          "type": "int256"
        },
        {
          "internalType": "int256",
          "name": "min",
          "type": "int256"
        }
      ],
      "name": "Underflow",
      "type": "error"
    },
    {
      "inputs": [],
      "name": "V3PathDisabled",
      "type": "error"
    },
    {
      "inputs": [],
      "name": "WrongArrayLength",
      "type": "error"
    },
    {
      "inputs": [],
      "name": "ZeroAddress",
      "type": "error"
    },
    {
      "inputs": [],
      "name": "ZeroValue",
      "type": "error"
    },
    {
      "anonymous": false,
      "inputs": [
        {
          "indexed": true,
          "internalType": "address",
          "name": "secondToken",
          "type": "address"
        },
        {
          "indexed": false,
          "internalType": "uint256",
          "name": "secondTokenAmount",
          "type": "uint256"
        },
        {
          "indexed": false,
          "internalType": "uint256",
          "name": "olasAmount",
          "type": "uint256"
        }
      ],
      "name": "BuyBack",
      "type": "event"
    },
    {
      "anonymous": false,
      "inputs": [
        {
          "indexed": true,
          "internalType": "address",
          "name": "sender",
          "type": "address"
        },
        {
          "indexed": false,
          "internalType": "uint256",
          "name": "amount",
          "type": "uint256"
        }
      ],
      "name": "FundsReceived",
      "type": "event"
    },
    {
      "anonymous": false,
      "inputs": [
        {
          "indexed": true,
          "internalType": "address",
          "name": "implementation",
          "type": "address"
        }
      ],
      "name": "ImplementationUpdated",
      "type": "event"
    },
    {
      "anonymous": false,
      "inputs": [
        {
          "indexed": false,
          "internalType": "address[]",
          "name": "secondTokens",
          "type": "address[]"
        },
        {
          "indexed": false,
          "internalType": "uint256[]",
          "name": "maxSlippages",
          "type": "uint256[]"
        }
      ],
      "name": "MaxSlippagesUpdated",
      "type": "event"
    },
    {
      "anonymous": false,
      "inputs": [
        {
          "indexed": true,
          "internalType": "address",
          "name": "oracle",
          "type": "address"
        },
        {
          "indexed": true,
          "internalType": "address",
          "name": "sender",
          "type": "address"
        }
      ],
      "name": "OraclePriceUpdated",
      "type": "event"
    },
    {
      "anonymous": false,
      "inputs": [
        {
          "indexed": false,
          "internalType": "address[]",
          "name": "secondTokens",
          "type": "address[]"
        },
        {
          "indexed": false,
          "internalType": "address[]",
          "name": "oracles",
          "type": "address[]"
        }
      ],
      "name": "OraclesUpdated",
      "type": "event"
    },
    {
      "anonymous": false,
      "inputs": [
        {
          "indexed": true,
          "internalType": "address",
          "name": "owner",
          "type": "address"
        }
      ],
      "name": "OwnerUpdated",
      "type": "event"
    },
    {
      "anonymous": false,
      "inputs": [
        {
          "indexed": true,
          "internalType": "address",
          "name": "destination",
          "type": "address"
        },
        {
          "indexed": false,
          "internalType": "uint256",
          "name": "amount",
          "type": "uint256"
        }
      ],
      "name": "TokenTransferred",
      "type": "event"
    },
    {
      "anonymous": false,
      "inputs": [
        {
          "indexed": false,
          "internalType": "address[]",
          "name": "secondTokens",
          "type": "address[]"
        },
        {
          "indexed": false,
          "internalType": "address[]",
          "name": "pools",
          "type": "address[]"
        }
      ],
      "name": "V3PoolsUpdated",
      "type": "event"
    },
    {
      "inputs": [],
      "name": "BUY_BACK_BURNER_PROXY",
      "outputs": [
        {
          "internalType": "bytes32",
          "name": "",
          "type": "bytes32"
        }
      ],
      "stateMutability": "view",
      "type": "function"
    },
    {
      "inputs": [],
      "name": "MAX_ALLOWED_DEVIATION",
      "outputs": [
        {
          "internalType": "uint256",
          "name": "",
          "type": "uint256"
        }
      ],
      "stateMutability": "view",
      "type": "function"
    },
    {
      "inputs": [],
      "name": "MAX_BPS",
      "outputs": [
        {
          "internalType": "uint256",
          "name": "",
          "type": "uint256"
        }
      ],
      "stateMutability": "view",
      "type": "function"
    },
    {
      "inputs": [],
      "name": "OLAS_BURNER",
      "outputs": [
        {
          "internalType": "address",
          "name": "",
          "type": "address"
        }
      ],
      "stateMutability": "view",
      "type": "function"
    },
    {
      "inputs": [],
      "name": "SECONDS_AGO",
      "outputs": [
        {
          "internalType": "uint32",
          "name": "",
          "type": "uint32"
        }
      ],
      "stateMutability": "view",
      "type": "function"
    },
    {
      "inputs": [],
      "name": "VERSION",
      "outputs": [
        {
          "internalType": "string",
          "name": "",
          "type": "string"
        }
      ],
      "stateMutability": "view",
      "type": "function"
    },
    {
      "inputs": [],
      "name": "bridge2Burner",
      "outputs": [
        {
          "internalType": "address",
          "name": "",
          "type": "address"
        }
      ],
      "stateMutability": "view",
      "type": "function"
    },
    {
      "inputs": [
        {
          "internalType": "address",
          "name": "secondToken",
          "type": "address"
        },
        {
          "internalType": "uint256",
          "name": "secondTokenAmount",
          "type": "uint256"
        },
        {
          "internalType": "uint256",
          "name": "deadline",
          "type": "uint256"
        }
      ],
      "name": "buyBack",
      "outputs": [],
      "stateMutability": "nonpayable",
      "type": "function"
    },
    {
      "inputs": [
        {
          "internalType": "address",
          "name": "newImplementation",
          "type": "address"
        }
      ],
      "name": "changeImplementation",
      "outputs": [],
      "stateMutability": "nonpayable",
      "type": "function"
    },
    {
      "inputs": [
        {
          "internalType": "address",
          "name": "newOwner",
          "type": "address"
        }
      ],
      "name": "changeOwner",
      "outputs": [],
      "stateMutability": "nonpayable",
      "type": "function"
    },
    {
      "inputs": [
        {
          "internalType": "address",
          "name": "token0",
          "type": "address"
        },
        {
          "internalType": "address",
          "name": "token1",
          "type": "address"
        },
        {
          "internalType": "address",
          "name": "uniV3PositionManager",
          "type": "address"
        },
        {
          "internalType": "uint24",
          "name": "feeTier",
          "type": "uint24"
        }
      ],
      "name": "checkPoolPrices",
      "outputs": [],
      "stateMutability": "view",
      "type": "function"
    },
    {
      "inputs": [
        {
          "internalType": "address",
          "name": "factory",
          "type": "address"
        },
        {
          "internalType": "address[]",
          "name": "tokens",
          "type": "address[]"
        },
        {
          "internalType": "int24",
          "name": "feeTier",
          "type": "int24"
        }
      ],
      "name": "getV3Pool",
      "outputs": [
        {
          "internalType": "address",
          "name": "",
          "type": "address"
        }
      ],
      "stateMutability": "view",
      "type": "function"
    },
    {
      "inputs": [
        {
          "internalType": "bytes",
          "name": "payload",
          "type": "bytes"
        }
      ],
      "name": "initialize",
      "outputs": [],
      "stateMutability": "nonpayable",
      "type": "function"
    },
    {
      "inputs": [],
      "name": "liquidityManager",
      "outputs": [
        {
          "internalType": "address",
          "name": "",
          "type": "address"
        }
      ],
      "stateMutability": "view",
      "type": "function"
    },
    {
      "inputs": [
        {
          "internalType": "address",
          "name": "",
          "type": "address"
        }
      ],
      "name": "mapAccountActivities",
      "outputs": [
        {
          "internalType": "uint256",
          "name": "",
          "type": "uint256"
        }
      ],
      "stateMutability": "view",
      "type": "function"
    },
    {
      "inputs": [
        {
          "internalType": "address",
          "name": "",
          "type": "address"
        }
      ],
      "name": "mapTokenMaxSlippages",
      "outputs": [
        {
          "internalType": "uint256",
          "name": "",
          "type": "uint256"
        }
      ],
      "stateMutability": "view",
      "type": "function"
    },
    {
      "inputs": [
        {
          "internalType": "address",
          "name": "",
          "type": "address"
        }
      ],
      "name": "mapV2Oracles",
      "outputs": [
        {
          "internalType": "address",
          "name": "",
          "type": "address"
        }
      ],
      "stateMutability": "view",
      "type": "function"
    },
    {
      "inputs": [
        {
          "internalType": "address",
          "name": "",
          "type": "address"
        }
      ],
      "name": "mapV3Pools",
      "outputs": [
        {
          "internalType": "address",
          "name": "",
          "type": "address"
        }
      ],
      "stateMutability": "view",
      "type": "function"
    },
    {
      "inputs": [],
      "name": "maxSlippage",
      "outputs": [
        {
          "internalType": "uint256",
          "name": "",
          "type": "uint256"
        }
      ],
      "stateMutability": "view",
      "type": "function"
    },
    {
      "inputs": [],
      "name": "nativeToken",
      "outputs": [
        {
          "internalType": "address",
          "name": "",
          "type": "address"
        }
      ],
      "stateMutability": "view",
      "type": "function"
    },
    {
      "inputs": [],
      "name": "olas",
      "outputs": [
        {
          "internalType": "address",
          "name": "",
          "type": "address"
        }
      ],
      "stateMutability": "view",
      "type": "function"
    },
    {
      "inputs": [],
      "name": "oracle",
      "outputs": [
        {
          "internalType": "address",
          "name": "",
          "type": "address"
        }
      ],
      "stateMutability": "view",
      "type": "function"
    },
    {
      "inputs": [],
      "name": "owner",
      "outputs": [
        {
          "internalType": "address",
          "name": "",
          "type": "address"
        }
      ],
      "stateMutability": "view",
      "type": "function"
    },
    {
      "inputs": [],
      "name": "router",
      "outputs": [
        {
          "internalType": "address",
          "name": "",
          "type": "address"
        }
      ],
      "stateMutability": "view",
      "type": "function"
    },
    {
      "inputs": [
        {
          "internalType": "address[]",
          "name": "secondTokens",
          "type": "address[]"
        },
        {
          "internalType": "uint256[]",
          "name": "maxSlippages",
          "type": "uint256[]"
        }
      ],
      "name": "setMaxSlippages",
      "outputs": [],
      "stateMutability": "nonpayable",
      "type": "function"
    },
    {
      "inputs": [
        {
          "internalType": "address[]",
          "name": "secondTokens",
          "type": "address[]"
        },
        {
          "internalType": "address[]",
          "name": "oracles",
          "type": "address[]"
        }
      ],
      "name": "setV2Oracles",
      "outputs": [],
      "stateMutability": "nonpayable",
      "type": "function"
    },
    {
      "inputs": [
        {
          "internalType": "address[]",
          "name": "secondTokens",
          "type": "address[]"
        },
        {
          "internalType": "address[]",
          "name": "pools",
          "type": "address[]"
        }
      ],
      "name": "setV3Pools",
      "outputs": [],
      "stateMutability": "nonpayable",
      "type": "function"
    },
    {
      "inputs": [],
      "name": "swapRouter",
      "outputs": [
        {
          "internalType": "address",
          "name": "",
          "type": "address"
        }
      ],
      "stateMutability": "view",
      "type": "function"
    },
    {
      "inputs": [
        {
          "internalType": "address",
          "name": "token",
          "type": "address"
        }
      ],
      "name": "transfer",
      "outputs": [],
      "stateMutability": "nonpayable",
      "type": "function"
    },
    {
      "inputs": [],
      "name": "treasury",
      "outputs": [
        {
          "internalType": "address",
          "name": "",
          "type": "address"
        }
      ],
      "stateMutability": "view",
      "type": "function"
    },
    {
      "inputs": [
        {
          "internalType": "address",
          "name": "secondToken",
          "type": "address"
        }
      ],
      "name": "updateOraclePrice",
      "outputs": [],
      "stateMutability": "nonpayable",
      "type": "function"
    },
    {
      "stateMutability": "payable",
      "type": "receive"
    }
  ],
  "bytecode": "0x6101003461012757601f61255238819003918201601f19168301916001600160401b0383118484101761012b57808492608094604052833981010312610127576100488161013f565b906100556020820161013f565b61006d60606100666040850161013f565b930161013f565b6001600555926001600160a01b038216158015610116575b6101075760805260a05260c05260e0526040516123fe9081610154823960805181818161092d01528181610a750152818161125701528181611dbc0152611eb6015260a0518181816103fd015281816106460152610e7c015260c0518181816103930152610c0a015260e0518181816114fb01528181611eef01526121e50152f35b63d92e233d60e01b5f5260045ffd5b506001600160a01b03831615610085565b5f80fd5b634e487b7160e01b5f52604160045260245ffd5b51906001600160a01b03821682036101275756fe60806040526004361015610022575b3615610018575f80fd5b610020611be3565b005b5f3560e01c806231d1151461021057806317a68dd81461020b5780631a6952301461020657806320518ef814610201578063315816ed146101fc57806333827438146101f757806340b67a9b146101f2578063439fab91146101ed57806343b23a1b146101e857806361d027b3146101e35780637c9e639f146101de5780637dc0d1d0146101d95780638a0067e2146101d45780638b9ee610146101cf5780638c04166f146101ca5780638cbce621146101c55780638da5cb5b146101c05780638ea9106a146101bb578063a6f9dae1146101b6578063aeb2d711146101b1578063b569628c146101ac578063b580af6e146101a7578063bb064769146101a2578063c17bbedf1461019d578063c31c9c0714610198578063d803fd5f14610193578063e1758bd81461018e578063f887ea4014610189578063f9cc3e9c14610184578063fd967f471461017f5763ffa1ad740361000e57611613565b6115f7565b6115bd565b611595565b61156d565b61152a565b6114e6565b61143d565b6111fb565b6111c0565b6110e7565b6110cb565b611054565b610feb565b610fc4565b610d11565b610cf4565b610cc6565b610c83565b610c5b565b610c39565b610bf5565b610a32565b6109b3565b61095c565b610918565b61078f565b610631565b6102fc565b61024d565b34610238575f366003190112610238576001546040516001600160a01b039091168152602090f35b5f80fd5b6001600160a01b0381160361023857565b346102385760203660031901126102385760043561026a8161023c565b5f546001600160a01b0316338190036102e657506001600160a01b0381169081156102d7577fc6d7bd4bd971fa336816fe30b665cc6caccce8b123cc8ea692d132f342c4fc19557f310ba5f1d2ed074b51e2eccd052a47ae9ab7c6b800d1fca3db3999d6a592ca035f80a2005b63d92e233d60e01b5f5260045ffd5b63521eb56d60e11b5f523360045260245260445ffd5b34610238576020366003190112610238576004356103198161023c565b6001600160a01b038181165f908152600760205260409020610343905b546001600160a01b031690565b1615801590610605575b6105ea576040516370a0823160e01b8152306004820152906001600160a01b03811690602083602481855afa9283156104f1575f936105b9575b5082156105aa576001547f000000000000000000000000000000000000000000000000000000000000000092906103ce906001600160a01b03165b6001600160a01b031690565b81036104f65750506001546103ee91506103c2906001600160a01b031681565b60405163a9059cbb60e01b81527f00000000000000000000000000000000000000000000000000000000000000006001600160a01b03811660048301526024820184905291602090829060449082905f905af19081156104f1575f916104c2575b501561049a576104957fefed6b8d78a916dbd402a323824ae4454c9214b8f3d05fa85b3bb7f30dc25c06915b6040519384526001600160a01b0316929081906020820190565b0390a2005b6001546317e3057d60e31b5f526001600160a01b039081166004521660245260445260645b5ffd5b6104e4915060203d6020116104ea575b6104dc8183610689565b81019061168b565b5f61044f565b503d6104d2565b611680565b60405163a9059cbb60e01b81526001600160a01b03841660048201526024810185905290602090829060449082905f905af19081156104f1575f9161058b575b501561056757506104957fefed6b8d78a916dbd402a323824ae4454c9214b8f3d05fa85b3bb7f30dc25c069161047b565b6317e3057d60e31b5f526001600160a01b039081166004521660245260445260645ffd5b6105a4915060203d6020116104ea576104dc8183610689565b5f610536565b637c946ed760e01b5f5260045ffd5b6105dc91935060203d6020116105e3575b6105d48183610689565b810190611671565b915f610387565b503d6105ca565b6371ec3e3160e11b5f526001600160a01b031660045260245ffd5b506001600160a01b0381165f90815260086020526040902061062a906103c290610336565b151561034d565b34610238575f366003190112610238576040517f00000000000000000000000000000000000000000000000000000000000000006001600160a01b03168152602090f35b634e487b7160e01b5f52604160045260245ffd5b90601f8019910116810190811067ffffffffffffffff8211176106ab57604052565b610675565b604051906106bf60e083610689565b565b67ffffffffffffffff81116106ab5760051b60200190565b9080601f830112156102385781356106f0816106c1565b926106fe6040519485610689565b81845260208085019260051b82010192831161023857602001905b8282106107265750505090565b6020809183356107358161023c565b815201910190610719565b9060406003198301126102385760043567ffffffffffffffff8111610238578261076c916004016106d9565b916024359067ffffffffffffffff82116102385761078c916004016106d9565b90565b346102385761079d36610740565b5f546001600160a01b0316338190036108f957508151801580156108ee575b6108df575f5b8181106107ff576040517ff48bc24e434208738ff0902f87f57659b0e85dc38b6dc0d8bca8378dafddf0e890806107fa868883611749565b0390a1005b61081c6103c261080f83876116f9565b516001600160a01b031690565b156102d75761082e61080f82866116f9565b600154610843906001600160a01b03166103c2565b6001600160a01b03909116146108b457806108ae61086661080f600194876116f9565b61088f61087661080f858a6116f9565b6001600160a01b03165f90815260076020526040902090565b80546001600160a01b0319166001600160a01b03909216919091179055565b016107c2565b6108c461080f6104bf92866116f9565b6371ec3e3160e11b5f526001600160a01b0316600452602490565b63150072e360e11b5f5260045ffd5b5081518114156107bc565b63521eb56d60e11b5f52336004526001600160a01b031660245260445ffd5b34610238575f366003190112610238576040517f00000000000000000000000000000000000000000000000000000000000000006001600160a01b03168152602090f35b34610238576020366003190112610238576004356109798161023c565b60018060a01b03165f526006602052602060405f2054604051908152f35b67ffffffffffffffff81116106ab57601f01601f191660200190565b346102385760203660031901126102385760043567ffffffffffffffff811161023857366023820112156102385780600401356109ef81610997565b906109fd6040519283610689565b8082523660248285010111610238576020815f9260246100209601838601378301015261176e565b62ffffff81160361023857565b3461023857608036600319011261023857600435610a4f8161023c565b602435610a5b8161023c565b604435610a678161023c565b606435610a7381610a25565b7f00000000000000000000000000000000000000000000000000000000000000006001600160a01b0316928315610be65760405163c45a015560e01b815292602090849060049082906001600160a01b03165afa9081156104f157610b1d956020945f93610bc7575b50604051630b4c774160e11b81526001600160a01b0391821660048201529116602482015262ffffff90921660448301529093849190829081906064820190565b03916001600160a01b03165afa9182156104f1575f92610ba6575b506001600160a01b038216156102d757604051632bb65ca160e11b81526001600160a01b03929092166004830152602090829060249082905afa80156104f157610b7e57005b6100209060203d602011610b9f575b610b978183610689565b8101906118e3565b503d610b8d565b610bc091925060203d602011610b9f57610b978183610689565b905f610b38565b610bdf919350853d8711610b9f57610b978183610689565b915f610adc565b63f814512160e01b5f5260045ffd5b34610238575f366003190112610238576040517f00000000000000000000000000000000000000000000000000000000000000006001600160a01b03168152602090f35b34610238575f36600319011261023857602060405167016345785d8a00008152f35b34610238575f366003190112610238576003546040516001600160a01b039091168152602090f35b3461023857602036600319011261023857600435610ca08161023c565b60018060a01b03165f526007602052602060018060a01b0360405f205416604051908152f35b34610238575f3660031901126102385760206040517351eb65012ca5ceb07320c497f4151ac207fea4e08152f35b34610238575f366003190112610238576020600454604051908152f35b3461023857606036600319011261023857600435610d2e8161023c565b602435906044358290600160055411610fb557610d4b6002600555565b80151580610fac575b610f9657506040516370a0823160e01b81523060048201526001600160a01b03831693602082602481885afa9182156104f1575f92610f75575b50818115918215610f6b575b5050610f63575b5080156105aa57335f9081526006602052604090207f79650a26d9c122dcabbd86157b7bdabd291e5058cef11fc21c572518a1690ee69290610de3815461190c565b90556001600160a01b038181165f908152600860205260409020839190610e0990610336565b1615610f5457610e1891611d5c565b905b604080519182526020820192909252a2600154610e41906103c2906001600160a01b031681565b6040516370a0823160e01b815230600482015290602082602481845afa9182156104f1575f92610f33575b5060405163a9059cbb60e01b81527f00000000000000000000000000000000000000000000000000000000000000006001600160a01b03811660048301526024820184905291602090829060449082905f905af19081156104f1575f91610f14575b501561049a576040519182526001600160a01b0316907fefed6b8d78a916dbd402a323824ae4454c9214b8f3d05fa85b3bb7f30dc25c0690602090a26100206001600555565b610f2d915060203d6020116104ea576104dc8183610689565b5f610ece565b610f4d91925060203d6020116105e3576105d48183610689565b905f610e6c565b610f5d91611c52565b90610e1a565b90505f610da1565b119050815f610d9a565b610f8f91925060203d6020116105e3576105d48183610689565b905f610d8e565b6302a07ebf60e31b5f526004524260245260445ffd5b50804211610d54565b6345f5ce8b60e11b5f5260045ffd5b34610238575f366003190112610238575f546040516001600160a01b039091168152602090f35b34610238576060366003190112610238576004356110088161023c565b60243567ffffffffffffffff8111610238576110289036906004016106d9565b906044358060020b8103610238576020926110429261191f565b6040516001600160a01b039091168152f35b34610238576020366003190112610238576004356110718161023c565b5f546001600160a01b0316338190036102e657506001600160a01b031680156102d7575f80546001600160a01b031916821781557f4ffd725fc4a22075e9ec71c59edf9c38cdeb588a91b24fc5b61388c5be41282b9080a2005b34610238575f3660031901126102385760206040516107088152f35b34610238576020366003190112610238576004356111048161023c565b335f90815260066020526040902061111c815461190c565b90556001600160a01b039081165f90815260076020526040902061113f90610336565b1661114b8115156119d9565b604051630ce74fc560e31b81526020816004815f865af180156104f157611179915f916111a1575b50611a1b565b33907fccf049defd051e7117a233e0f6c01636afab6fb9b1824ae42b5bf7e034fdba375f80a3005b6111ba915060203d6020116104ea576104dc8183610689565b5f611173565b34610238576020366003190112610238576004356111dd8161023c565b60018060a01b03165f526009602052602060405f2054604051908152f35b346102385761120936610740565b5f546001600160a01b0316338190036108f95750611225611eb4565b81519182158015611432575b6108df576001546001600160a01b0316604051631d5f45f560e01b8152906020826004817f00000000000000000000000000000000000000000000000000000000000000006001600160a01b03165afa9182156104f1575f92611411575b506001600160a01b03811694915f5b8381106112d6576040517fc6e313511933d451185440d1fcf485c4d19574c612d044e1293aecd6129f08ad90806107fa898983611749565b6112e66103c261080f83886116f9565b156102d757866112fc6103c261080f84896116f9565b146114015761130e61080f82886116f9565b6001600160a01b03811680611355575b509061134f60019261088f61133661080f858b6116f9565b6001600160a01b03165f90815260086020526040902090565b0161129e565b6113c26103c2888b6113756103c261080f8961136f611a67565b956116f9565b11156113e8576113b261138b61080f888d6116f9565b6113a98a915b61139a856116b7565b6001600160a01b039091169052565b61139a836116cc565b6113bb85611f32565b908761191f565b036113cd575f61131e565b6307189c0760e31b5f526001600160a01b031660045260245ffd5b6113b26113f861080f888d6116f9565b6113a98a611391565b6108c461080f6104bf92876116f9565b61142b91925060203d602011610b9f57610b978183610689565b905f61128f565b508151831415611231565b346102385760403660031901126102385760043567ffffffffffffffff81116102385761146e9036906004016106d9565b60243567ffffffffffffffff811161023857366023820112156102385780600401359161149a836106c1565b916114a86040519384610689565b8383526024602084019460051b8201019036821161023857602401935b8185106114d6576100208484611ad7565b84358152602094850194016114c5565b34610238575f366003190112610238576040517f00000000000000000000000000000000000000000000000000000000000000006001600160a01b03168152602090f35b34610238576020366003190112610238576004356115478161023c565b60018060a01b03165f526008602052602060018060a01b0360405f205416604051908152f35b34610238575f366003190112610238576002546040516001600160a01b039091168152602090f35b34610238575f36600319011261023857600a546040516001600160a01b039091168152602090f35b34610238575f3660031901126102385760206040517fc6d7bd4bd971fa336816fe30b665cc6caccce8b123cc8ea692d132f342c4fc198152f35b34610238575f3660031901126102385760206040516127108152f35b34610238575f3660031901126102385760408051906116328183610689565b600582526020820191640302e332e360dc1b83528151928391602083525180918160208501528484015e5f828201840152601f01601f19168101030190f35b90816020910312610238575190565b6040513d5f823e3d90fd5b90816020910312610238575180151581036102385790565b634e487b7160e01b5f52603260045260245ffd5b8051600110156116c75760400190565b6116a3565b8051156116c75760200190565b8051600210156116c75760600190565b8051600310156116c75760800190565b80518210156116c75760209160051b010190565b90602080835192838152019201905f5b81811061172a5750505090565b82516001600160a01b031684526020938401939092019160010161171d565b909161176061078c9360408452604084019061170d565b91602081840391015261170d565b5f546001600160a01b0381166118d55733906001600160601b0360a01b16175f55600160055580518101906020818184019303126102385760208101519067ffffffffffffffff821161023857019080603f830112156102385760208201516117d6816106c1565b926117e46040519485610689565b8184526020808086019360051b8301010192831161023857604001905b8282106118bb5750505061189e61080f8261184161182461080f6106bf966116cc565b60018060a01b03166001600160601b0360a01b6001541617600155565b61186d61185061080f836116b7565b60018060a01b03166001600160601b0360a01b6002541617600255565b61189961187c61080f836116d9565b60018060a01b03166001600160601b0360a01b6003541617600355565b6116e9565b60018060a01b03166001600160601b0360a01b600a541617600a55565b6020809183516118ca8161023c565b815201910190611801565b62dc149f60e41b5f5260045ffd5b90816020910312610238575161078c8161023c565b634e487b7160e01b5f52601160045260245ffd5b5f19811461191a5760010190565b6118f8565b90915f8160020b126119c057916020916119899361194b61080f61194561080f866116cc565b946116b7565b604051630b4c774160e11b81526001600160a01b0394851660048201529316602484015262ffffff1660448301529092839190829081906064820190565b03916001600160a01b03165afa9081156104f1575f916119a7575090565b61078c915060203d602011610b9f57610b978183610689565b6303d8303f60e41b5f5260020b6004525f60245260445ffd5b156119e057565b60405162461bcd60e51b81526020600482015260136024820152725a65726f206f7261636c65206164647265737360681b6044820152606490fd5b15611a2257565b60405162461bcd60e51b815260206004820152601a60248201527f4f7261636c6520707269636520757064617465206661696c65640000000000006044820152606490fd5b60405160609190611a788382610689565b6002815291601f1901366020840137565b90611a9c9060408352604083019061170d565b906020818303910152602080835192838152019201905f5b818110611ac15750505090565b8251845260209384019390920191600101611ab4565b5f546001600160a01b0316338190036108f95750805180158015611bd8575b6108df575f5b818110611b3c575050907f3181a803851338c58dfa6d1e5fb867dfae2db0f3fbf4c748b6b94d2acfb5092691611b3760405192839283611a89565b0390a1565b611b4c6103c261080f83866116f9565b156102d757611b5b81856116f9565b51156105aa57612710611b6e82866116f9565b5111611bb25780611b81600192866116f9565b51611bab611b9261080f84886116f9565b6001600160a01b03165f90815260096020526040902090565b5501611afc565b611bbf6104bf91856116f9565b51637ae5968560e01b5f52600452612710602452604490565b508251811415611af6565b6040513481527f8e47b87b0ef542cdfa1659c551d88bad38aa7f452d2bbb349ab7530dfec8be8f60203392a2565b8181029291811591840414171561191a57565b6127100390612710821161191a57565b8115611c3e570490565b634e487b7160e01b5f52601260045260245ffd5b6001600160a01b038181165f908152600760205260409020611c7390610336565b1691611c808315156119d9565b604051630ce74fc560e31b8152926020846004815f855af19081156104f157600494602092611d41575b506040516305ecd00360e01b815294859182905afa80156104f157611d0b611d1c9161078c955f91611d22575b506001600160a01b0385165f908152600960205260409020611d0590611cff90549286611c11565b91611c24565b90611c11565b69021e19e0c9bab240000090611c34565b91612051565b611d3b915060203d6020116105e3576105d48183610689565b5f611cd7565b611d5790833d85116104ea576104dc8183610689565b611caa565b611d64611eb4565b6001600160a01b0381165f908152600860205260409020611d8490610336565b6001600160a01b03811615611e9857604051632bb65ca160e11b81526001600160a01b038216600482015292602084806024810103817f00000000000000000000000000000000000000000000000000000000000000006001600160a01b03165afa9384156104f15761078c94611e64915f91611e79575b50600154611e2d90611e16906001600160a01b03166103c2565b6001600160a01b038781169190911092168061216b565b9015611e6a57611e3d90836121a2565b6001600160a01b0385165f908152600960205260409020611e5e9054611c24565b906121bb565b926121d6565b611e749083612184565b611e3d565b611e92915060203d602011610b9f57610b978183610689565b5f611dfc565b6371ec3e3160e11b5f526001600160a01b03821660045260245ffd5b7f00000000000000000000000000000000000000000000000000000000000000006001600160a01b0316158015611eec575b610be657565b507f00000000000000000000000000000000000000000000000000000000000000006001600160a01b031615611ee6565b90816020910312610238575161078c81610a25565b60405163ddca3f4360e01b815290602090829060049082906001600160a01b03165afa80156104f15762ffffff915f91611f6f575b501660020b90565b611f91915060203d602011611f97575b611f898183610689565b810190611f1d565b5f611f67565b503d611f7f565b6020818303126102385780519067ffffffffffffffff821161023857019080601f83011215610238578151611fd2816106c1565b92611fe06040519485610689565b81845260208085019260051b82010192831161023857602001905b8282106120085750505090565b8151815260209182019101611ffb565b919260809361203d92979695978452602084015260a0604084015260a083019061170d565b6001600160a01b0390951660608201520152565b600a5460405163095ea7b360e01b81526001600160a01b039091166004820152602481018390529290602084806044810103815f6001600160a01b0386165af19283156104f15761210d945f9461214e575b506120b96120af611a67565b9261139a846116cc565b6001546120d2906001600160a01b031661139a846116b7565b600a5484906120eb906103c2906001600160a01b031681565b92604051968795869485936338ed173960e01b85524292309260048701612018565b03925af180156104f157612128915f9161212c575b506116b7565b5190565b61214891503d805f833e6121408183610689565b810190611f9e565b5f612122565b6121669060203d6020116104ea576104dc8183610689565b6120a3565b8181029181830414901517600116156102385760401c90565b8060801b90600160801b818304149015178215151615610238570490565b8181029181830414901517600116156102385760801c90565b81810291818304149015176001161561023857612710900490565b60405163095ea7b360e01b81527f00000000000000000000000000000000000000000000000000000000000000006001600160a01b0381166004830152602482018490529094929392909190602086806044810103815f6001600160a01b0387165af19586156104f1576004966123ab575b506001546020906001600160a01b031660405163ddca3f4360e01b815297909588919082906001600160a01b03165afa9485156104f1576122cc602096612351965f998a92612388575b506122c0906122b16122a26106b0565b6001600160a01b039098168852565b6001600160a01b0316868a0152565b62ffffff166040850152565b30606084019081526080840191825260a0840192835260c08401888152604080516304e45aaf60e01b815286516001600160a01b039081166004830152602088015181166024830152919096015162ffffff16604487015291518216606486015291516084850152915160a4840152511660c4820152938492839190829060e4820190565b03926001600160a01b03165af19081156104f1575f9161236f575090565b61078c915060203d6020116105e3576105d48183610689565b6122c09192506123a4908a3d8c11611f9757611f898183610689565b9190612292565b6123c39060203d6020116104ea576104dc8183610689565b61224856fea26469706673582212205bfcdbcfc7a8d1cfdc2caffa088c8a0bdf73e803751a04ab9f485409f4beda1964736f6c634300081e0033",
  "linkReferences": {},
  "deployedLinkReferences": {}
}