{
  "_format": "hh-sol-artifact-1",
  "contractName": "BuyBackBurnerProxy",
  "sourceName": "contracts/utils/BuyBackBurnerProxy.sol",
  "abi": [
    {
      "inputs": [
        {
          "internalType": "address",
          "name": "implementation",
          "type": "address"
        },
        {
          "internalType": "bytes",
          "name": "buyBackBurnerData",
          "type": "bytes"
        }
      ],
      "stateMutability": "nonpayable",
      "type": "constructor"
    },
    {
      "inputs": [],
      "name": "InitializationFailed",
      "type": "error"
    },
    {
      "inputs": [],
      "name": "ZeroData",
      "type": "error"
    },
    {
      "inputs": [],
      "name": "ZeroImplementationAddress",
      "type": "error"
    },
    {
      "stateMutability": "payable",
      "type": "fallback"
    },
    {
      "inputs": [],
      "name": "BUY_BACK_BURNER_PROXY",
      "outputs": [
        {
          "internalType": "bytes32",
          "name": "",
          "type": "bytes32"
        }
      ],
      "stateMutability": "view",
      "type": "function"
    },
    {
      "inputs": [],
      "name": "getImplementation",
      "outputs": [
        {
          "internalType": "address",
          "name": "implementation",
          "type": "address"
        }
      ],
      "stateMutability": "view",
      "type": "function"
    }
  ],
  "bytecode": "0x60806040523461012e5761029c8038038061001981610132565b92833981019060408183031261012e5780516001600160a01b0381169182820361012e576020810151906001600160401b03821161012e57019183601f8401121561012e57825161007161006c8261016b565b610132565b9381855260208501956020838301011161012e57815f926020809301885e850101521561011f57815115610110575f928392827fc6d7bd4bd971fa336816fe30b665cc6caccce8b123cc8ea692d132f342c4fc195551915af43d1561010b573d6100dd61006c8261016b565b9081525f60203d92013e5b156100fc5760405161011590816101878239f35b630337323560e31b5f5260045ffd5b6100e8565b63c922446b60e01b5f5260045ffd5b63d02c623d60e01b5f5260045ffd5b5f80fd5b6040519190601f01601f191682016001600160401b0381118382101761015757604052565b634e487b7160e01b5f52604160045260245ffd5b6001600160401b03811161015757601f01601f19166020019056fe60806040526004361060a2575f3560e01c8063aaf10f4214605f5763f9cc3e9c0360a25734605b575f366003190112605b5760206040517fc6d7bd4bd971fa336816fe30b665cc6caccce8b123cc8ea692d132f342c4fc198152f35b5f80fd5b34605b575f366003190112605b577fc6d7bd4bd971fa336816fe30b665cc6caccce8b123cc8ea692d132f342c4fc19546001600160a01b03166080908152602090f35b5f807fc6d7bd4bd971fa336816fe30b665cc6caccce8b123cc8ea692d132f342c4fc1954368280378136915af43d5f803e1560db573d5ff35b3d5ffdfea26469706673582212206dca1c015e43230661ca1261ffe1e6a692d7debdf6c7a79346bc24b520d480d264736f6c634300081e0033",
  "linkReferences": {},
  "deployedLinkReferences": {}
}