{
  "_format": "hh-sol-artifact-1",
  "contractName": "BuyBackBurnerBalancer",
  "sourceName": "contracts/utils/BuyBackBurnerBalancer.sol",
  "abi": [
    {
      "inputs": [
        {
          "internalType": "address",
          "name": "_liquidityManager",
          "type": "address"
        },
        {
          "internalType": "address",
          "name": "_bridge2Burner",
          "type": "address"
        },
        {
          "internalType": "address",
          "name": "_treasury",
          "type": "address"
        },
        {
          "internalType": "address",
          "name": "_swapRouter",
          "type": "address"
        }
      ],
      "stateMutability": "nonpayable",
      "type": "constructor"
    },
    {
      "inputs": [],
      "name": "AlreadyInitialized",
      "type": "error"
    },
    {
      "inputs": [
        {
          "internalType": "uint256",
          "name": "deadline",
          "type": "uint256"
        },
        {
          "internalType": "uint256",
          "name": "blockTimestamp",
          "type": "uint256"
        }
      ],
      "name": "DeadlineExpired",
      "type": "error"
    },
    {
      "inputs": [
        {
          "internalType": "uint256",
          "name": "provided",
          "type": "uint256"
        },
        {
          "internalType": "uint256",
          "name": "max",
          "type": "uint256"
        }
      ],
      "name": "Overflow",
      "type": "error"
    },
    {
      "inputs": [
        {
          "internalType": "address",
          "name": "sender",
          "type": "address"
        },
        {
          "internalType": "address",
          "name": "owner",
          "type": "address"
        }
      ],
      "name": "OwnerOnly",
      "type": "error"
    },
    {
      "inputs": [],
      "name": "ReentrancyGuard",
      "type": "error"
    },
    {
      "inputs": [
        {
          "internalType": "address",
          "name": "token",
          "type": "address"
        },
        {
          "internalType": "address",
          "name": "to",
          "type": "address"
        },
        {
          "internalType": "uint256",
          "name": "amount",
          "type": "uint256"
        }
      ],
      "name": "TransferFailed",
      "type": "error"
    },
    {
      "inputs": [
        {
          "internalType": "address",
          "name": "pool",
          "type": "address"
        }
      ],
      "name": "UnauthorizedPool",
      "type": "error"
    },
    {
      "inputs": [
        {
          "internalType": "address",
          "name": "token",
          "type": "address"
        }
      ],
      "name": "UnauthorizedToken",
      "type": "error"
    },
    {
      "inputs": [],
      "name": "V3PathDisabled",
      "type": "error"
    },
    {
      "inputs": [],
      "name": "WrongArrayLength",
      "type": "error"
    },
    {
      "inputs": [],
      "name": "ZeroAddress",
      "type": "error"
    },
    {
      "inputs": [],
      "name": "ZeroValue",
      "type": "error"
    },
    {
      "anonymous": false,
      "inputs": [
        {
          "indexed": true,
          "internalType": "address",
          "name": "secondToken",
          "type": "address"
        },
        {
          "indexed": false,
          "internalType": "uint256",
          "name": "secondTokenAmount",
          "type": "uint256"
        },
        {
          "indexed": false,
          "internalType": "uint256",
          "name": "olasAmount",
          "type": "uint256"
        }
      ],
      "name": "BuyBack",
      "type": "event"
    },
    {
      "anonymous": false,
      "inputs": [
        {
          "indexed": true,
          "internalType": "address",
          "name": "sender",
          "type": "address"
        },
        {
          "indexed": false,
          "internalType": "uint256",
          "name": "amount",
          "type": "uint256"
        }
      ],
      "name": "FundsReceived",
      "type": "event"
    },
    {
      "anonymous": false,
      "inputs": [
        {
          "indexed": true,
          "internalType": "address",
          "name": "implementation",
          "type": "address"
        }
      ],
      "name": "ImplementationUpdated",
      "type": "event"
    },
    {
      "anonymous": false,
      "inputs": [
        {
          "indexed": false,
          "internalType": "address[]",
          "name": "secondTokens",
          "type": "address[]"
        },
        {
          "indexed": false,
          "internalType": "uint256[]",
          "name": "maxSlippages",
          "type": "uint256[]"
        }
      ],
      "name": "MaxSlippagesUpdated",
      "type": "event"
    },
    {
      "anonymous": false,
      "inputs": [
        {
          "indexed": true,
          "internalType": "address",
          "name": "oracle",
          "type": "address"
        },
        {
          "indexed": true,
          "internalType": "address",
          "name": "sender",
          "type": "address"
        }
      ],
      "name": "OraclePriceUpdated",
      "type": "event"
    },
    {
      "anonymous": false,
      "inputs": [
        {
          "indexed": false,
          "internalType": "address[]",
          "name": "secondTokens",
          "type": "address[]"
        },
        {
          "indexed": false,
          "internalType": "address[]",
          "name": "oracles",
          "type": "address[]"
        }
      ],
      "name": "OraclesUpdated",
      "type": "event"
    },
    {
      "anonymous": false,
      "inputs": [
        {
          "indexed": true,
          "internalType": "address",
          "name": "owner",
          "type": "address"
        }
      ],
      "name": "OwnerUpdated",
      "type": "event"
    },
    {
      "anonymous": false,
      "inputs": [
        {
          "indexed": true,
          "internalType": "address",
          "name": "destination",
          "type": "address"
        },
        {
          "indexed": false,
          "internalType": "uint256",
          "name": "amount",
          "type": "uint256"
        }
      ],
      "name": "TokenTransferred",
      "type": "event"
    },
    {
      "anonymous": false,
      "inputs": [
        {
          "indexed": false,
          "internalType": "address[]",
          "name": "secondTokens",
          "type": "address[]"
        },
        {
          "indexed": false,
          "internalType": "address[]",
          "name": "pools",
          "type": "address[]"
        }
      ],
      "name": "V3PoolsUpdated",
      "type": "event"
    },
    {
      "inputs": [],
      "name": "BUY_BACK_BURNER_PROXY",
      "outputs": [
        {
          "internalType": "bytes32",
          "name": "",
          "type": "bytes32"
        }
      ],
      "stateMutability": "view",
      "type": "function"
    },
    {
      "inputs": [],
      "name": "MAX_ALLOWED_DEVIATION",
      "outputs": [
        {
          "internalType": "uint256",
          "name": "",
          "type": "uint256"
        }
      ],
      "stateMutability": "view",
      "type": "function"
    },
    {
      "inputs": [],
      "name": "MAX_BPS",
      "outputs": [
        {
          "internalType": "uint256",
          "name": "",
          "type": "uint256"
        }
      ],
      "stateMutability": "view",
      "type": "function"
    },
    {
      "inputs": [],
      "name": "OLAS_BURNER",
      "outputs": [
        {
          "internalType": "address",
          "name": "",
          "type": "address"
        }
      ],
      "stateMutability": "view",
      "type": "function"
    },
    {
      "inputs": [],
      "name": "SECONDS_AGO",
      "outputs": [
        {
          "internalType": "uint32",
          "name": "",
          "type": "uint32"
        }
      ],
      "stateMutability": "view",
      "type": "function"
    },
    {
      "inputs": [],
      "name": "VERSION",
      "outputs": [
        {
          "internalType": "string",
          "name": "",
          "type": "string"
        }
      ],
      "stateMutability": "view",
      "type": "function"
    },
    {
      "inputs": [],
      "name": "balancerPoolId",
      "outputs": [
        {
          "internalType": "bytes32",
          "name": "",
          "type": "bytes32"
        }
      ],
      "stateMutability": "view",
      "type": "function"
    },
    {
      "inputs": [],
      "name": "balancerVault",
      "outputs": [
        {
          "internalType": "address",
          "name": "",
          "type": "address"
        }
      ],
      "stateMutability": "view",
      "type": "function"
    },
    {
      "inputs": [],
      "name": "bridge2Burner",
      "outputs": [
        {
          "internalType": "address",
          "name": "",
          "type": "address"
        }
      ],
      "stateMutability": "view",
      "type": "function"
    },
    {
      "inputs": [
        {
          "internalType": "address",
          "name": "secondToken",
          "type": "address"
        },
        {
          "internalType": "uint256",
          "name": "secondTokenAmount",
          "type": "uint256"
        },
        {
          "internalType": "uint256",
          "name": "deadline",
          "type": "uint256"
        }
      ],
      "name": "buyBack",
      "outputs": [],
      "stateMutability": "nonpayable",
      "type": "function"
    },
    {
      "inputs": [
        {
          "internalType": "address",
          "name": "newImplementation",
          "type": "address"
        }
      ],
      "name": "changeImplementation",
      "outputs": [],
      "stateMutability": "nonpayable",
      "type": "function"
    },
    {
      "inputs": [
        {
          "internalType": "address",
          "name": "newOwner",
          "type": "address"
        }
      ],
      "name": "changeOwner",
      "outputs": [],
      "stateMutability": "nonpayable",
      "type": "function"
    },
    {
      "inputs": [
        {
          "internalType": "address",
          "name": "token0",
          "type": "address"
        },
        {
          "internalType": "address",
          "name": "token1",
          "type": "address"
        },
        {
          "internalType": "address",
          "name": "uniV3PositionManager",
          "type": "address"
        },
        {
          "internalType": "uint24",
          "name": "feeTier",
          "type": "uint24"
        }
      ],
      "name": "checkPoolPrices",
      "outputs": [],
      "stateMutability": "view",
      "type": "function"
    },
    {
      "inputs": [
        {
          "internalType": "address",
          "name": "factory",
          "type": "address"
        },
        {
          "internalType": "address[]",
          "name": "tokens",
          "type": "address[]"
        },
        {
          "internalType": "int24",
          "name": "tickSpacing",
          "type": "int24"
        }
      ],
      "name": "getV3Pool",
      "outputs": [
        {
          "internalType": "address",
          "name": "",
          "type": "address"
        }
      ],
      "stateMutability": "view",
      "type": "function"
    },
    {
      "inputs": [
        {
          "internalType": "bytes",
          "name": "payload",
          "type": "bytes"
        }
      ],
      "name": "initialize",
      "outputs": [],
      "stateMutability": "nonpayable",
      "type": "function"
    },
    {
      "inputs": [],
      "name": "liquidityManager",
      "outputs": [
        {
          "internalType": "address",
          "name": "",
          "type": "address"
        }
      ],
      "stateMutability": "view",
      "type": "function"
    },
    {
      "inputs": [
        {
          "internalType": "address",
          "name": "",
          "type": "address"
        }
      ],
      "name": "mapAccountActivities",
      "outputs": [
        {
          "internalType": "uint256",
          "name": "",
          "type": "uint256"
        }
      ],
      "stateMutability": "view",
      "type": "function"
    },
    {
      "inputs": [
        {
          "internalType": "address",
          "name": "",
          "type": "address"
        }
      ],
      "name": "mapTokenMaxSlippages",
      "outputs": [
        {
          "internalType": "uint256",
          "name": "",
          "type": "uint256"
        }
      ],
      "stateMutability": "view",
      "type": "function"
    },
    {
      "inputs": [
        {
          "internalType": "address",
          "name": "",
          "type": "address"
        }
      ],
      "name": "mapV2Oracles",
      "outputs": [
        {
          "internalType": "address",
          "name": "",
          "type": "address"
        }
      ],
      "stateMutability": "view",
      "type": "function"
    },
    {
      "inputs": [
        {
          "internalType": "address",
          "name": "",
          "type": "address"
        }
      ],
      "name": "mapV3Pools",
      "outputs": [
        {
          "internalType": "address",
          "name": "",
          "type": "address"
        }
      ],
      "stateMutability": "view",
      "type": "function"
    },
    {
      "inputs": [],
      "name": "maxSlippage",
      "outputs": [
        {
          "internalType": "uint256",
          "name": "",
          "type": "uint256"
        }
      ],
      "stateMutability": "view",
      "type": "function"
    },
    {
      "inputs": [],
      "name": "nativeToken",
      "outputs": [
        {
          "internalType": "address",
          "name": "",
          "type": "address"
        }
      ],
      "stateMutability": "view",
      "type": "function"
    },
    {
      "inputs": [],
      "name": "olas",
      "outputs": [
        {
          "internalType": "address",
          "name": "",
          "type": "address"
        }
      ],
      "stateMutability": "view",
      "type": "function"
    },
    {
      "inputs": [],
      "name": "oracle",
      "outputs": [
        {
          "internalType": "address",
          "name": "",
          "type": "address"
        }
      ],
      "stateMutability": "view",
      "type": "function"
    },
    {
      "inputs": [],
      "name": "owner",
      "outputs": [
        {
          "internalType": "address",
          "name": "",
          "type": "address"
        }
      ],
      "stateMutability": "view",
      "type": "function"
    },
    {
      "inputs": [
        {
          "internalType": "address[]",
          "name": "secondTokens",
          "type": "address[]"
        },
        {
          "internalType": "uint256[]",
          "name": "maxSlippages",
          "type": "uint256[]"
        }
      ],
      "name": "setMaxSlippages",
      "outputs": [],
      "stateMutability": "nonpayable",
      "type": "function"
    },
    {
      "inputs": [
        {
          "internalType": "address[]",
          "name": "secondTokens",
          "type": "address[]"
        },
        {
          "internalType": "address[]",
          "name": "oracles",
          "type": "address[]"
        }
      ],
      "name": "setV2Oracles",
      "outputs": [],
      "stateMutability": "nonpayable",
      "type": "function"
    },
    {
      "inputs": [
        {
          "internalType": "address[]",
          "name": "secondTokens",
          "type": "address[]"
        },
        {
          "internalType": "address[]",
          "name": "pools",
          "type": "address[]"
        }
      ],
      "name": "setV3Pools",
      "outputs": [],
      "stateMutability": "nonpayable",
      "type": "function"
    },
    {
      "inputs": [],
      "name": "swapRouter",
      "outputs": [
        {
          "internalType": "address",
          "name": "",
          "type": "address"
        }
      ],
      "stateMutability": "view",
      "type": "function"
    },
    {
      "inputs": [
        {
          "internalType": "address",
          "name": "token",
          "type": "address"
        }
      ],
      "name": "transfer",
      "outputs": [],
      "stateMutability": "nonpayable",
      "type": "function"
    },
    {
      "inputs": [],
      "name": "treasury",
      "outputs": [
        {
          "internalType": "address",
          "name": "",
          "type": "address"
        }
      ],
      "stateMutability": "view",
      "type": "function"
    },
    {
      "inputs": [
        {
          "internalType": "address",
          "name": "secondToken",
          "type": "address"
        }
      ],
      "name": "updateOraclePrice",
      "outputs": [],
      "stateMutability": "nonpayable",
      "type": "function"
    },
    {
      "stateMutability": "payable",
      "type": "receive"
    }
  ],
  "bytecode": "0x6101003461012757601f61266638819003918201601f19168301916001600160401b0383118484101761012b57808492608094604052833981010312610127576100488161013f565b906100556020820161013f565b61006d60606100666040850161013f565b930161013f565b6001600555926001600160a01b038216158015610116575b6101075760805260a05260c05260e0526040516125129081610154823960805181818161098401528181610ac2015281816112ad01528181611e000152611efa015260a0518181816104350152818161067e0152610ec9015260c0518181816103cb0152610c57015260e05181818161155101528181611f3301526123240152f35b63d92e233d60e01b5f5260045ffd5b506001600160a01b03831615610085565b5f80fd5b634e487b7160e01b5f52604160045260245ffd5b51906001600160a01b03821682036101275756fe60806040526004361015610022575b3615610018575f80fd5b610020611c27565b005b5f3560e01c806231d11514610220578063158274a51461021b57806317a68dd8146102165780631a6952301461021157806320518ef81461020c578063315816ed14610207578063338274381461020257806340b67a9b146101fd578063439fab91146101f857806343b23a1b146101f357806361d027b3146101ee5780637c9e639f146101e95780637dc0d1d0146101e45780638a0067e2146101df5780638b9ee610146101da5780638c04166f146101d55780638cbce621146101d05780638da5cb5b146101cb5780638ea9106a146101c6578063a6f9dae1146101c1578063aeb2d711146101bc578063b569628c146101b7578063b580af6e146101b2578063bb064769146101ad578063c17bbedf146101a8578063c31c9c07146101a3578063d803fd5f1461019e578063dbbb64b914610199578063e1758bd814610194578063f9cc3e9c1461018f578063fd967f471461018a5763ffa1ad740361000e57611682565b611642565b611608565b6115e0565b6115c3565b611580565b61153c565b611493565b611251565b611216565b61113d565b611121565b6110aa565b611043565b611011565b610d5e565b610d41565b610d13565b610cd0565b610ca8565b610c86565b610c42565b610a7c565b610a0a565b6109b3565b61096f565b6107e6565b610669565b610334565b610285565b61024c565b34610248575f366003190112610248576001546040516001600160a01b039091168152602090f35b5f80fd5b34610248575f36600319011261024857600a546040516001600160a01b039091168152602090f35b6001600160a01b0381160361024857565b34610248576020366003190112610248576004356102a281610274565b5f546001600160a01b03163381900361031e57506001600160a01b03811690811561030f577fc6d7bd4bd971fa336816fe30b665cc6caccce8b123cc8ea692d132f342c4fc19557f310ba5f1d2ed074b51e2eccd052a47ae9ab7c6b800d1fca3db3999d6a592ca035f80a2005b63d92e233d60e01b5f5260045ffd5b63521eb56d60e11b5f523360045260245260445ffd5b346102485760203660031901126102485760043561035181610274565b6001600160a01b038181165f90815260076020526040902061037b905b546001600160a01b031690565b161580159061063d575b610622576040516370a0823160e01b8152306004820152906001600160a01b03811690602083602481855afa928315610529575f936105f1575b5082156105e2576001547f00000000000000000000000000000000000000000000000000000000000000009290610406906001600160a01b03165b6001600160a01b031690565b810361052e57505060015461042691506103fa906001600160a01b031681565b60405163a9059cbb60e01b81527f00000000000000000000000000000000000000000000000000000000000000006001600160a01b03811660048301526024820184905291602090829060449082905f905af1908115610529575f916104fa575b50156104d2576104cd7fefed6b8d78a916dbd402a323824ae4454c9214b8f3d05fa85b3bb7f30dc25c06915b6040519384526001600160a01b0316929081906020820190565b0390a2005b6001546317e3057d60e31b5f526001600160a01b039081166004521660245260445260645b5ffd5b61051c915060203d602011610522575b61051481836106c1565b8101906116e7565b5f610487565b503d61050a565b6116dc565b60405163a9059cbb60e01b81526001600160a01b03841660048201526024810185905290602090829060449082905f905af1908115610529575f916105c3575b501561059f57506104cd7fefed6b8d78a916dbd402a323824ae4454c9214b8f3d05fa85b3bb7f30dc25c06916104b3565b6317e3057d60e31b5f526001600160a01b039081166004521660245260445260645ffd5b6105dc915060203d6020116105225761051481836106c1565b5f61056e565b637c946ed760e01b5f5260045ffd5b61061491935060203d60201161061b575b61060c81836106c1565b8101906116cd565b915f6103bf565b503d610602565b6371ec3e3160e11b5f526001600160a01b031660045260245ffd5b506001600160a01b0381165f908152600860205260409020610662906103fa9061036e565b1515610385565b34610248575f366003190112610248576040517f00000000000000000000000000000000000000000000000000000000000000006001600160a01b03168152602090f35b634e487b7160e01b5f52604160045260245ffd5b90601f8019910116810190811067ffffffffffffffff8211176106e357604052565b6106ad565b604051906106f760c0836106c1565b565b604051906106f76080836106c1565b604051906106f7610100836106c1565b67ffffffffffffffff81116106e35760051b60200190565b9080601f8301121561024857813561074781610718565b9261075560405194856106c1565b81845260208085019260051b82010192831161024857602001905b82821061077d5750505090565b60208091833561078c81610274565b815201910190610770565b9060406003198301126102485760043567ffffffffffffffff811161024857826107c391600401610730565b916024359067ffffffffffffffff8211610248576107e391600401610730565b90565b34610248576107f436610797565b5f546001600160a01b0316338190036109505750815180158015610945575b610936575f5b818110610856576040517ff48bc24e434208738ff0902f87f57659b0e85dc38b6dc0d8bca8378dafddf0e890806108518688836117a5565b0390a1005b6108736103fa6108668387611755565b516001600160a01b031690565b1561030f576108856108668286611755565b60015461089a906001600160a01b03166103fa565b6001600160a01b039091161461090b57806109056108bd61086660019487611755565b6108e66108cd610866858a611755565b6001600160a01b03165f90815260076020526040902090565b80546001600160a01b0319166001600160a01b03909216919091179055565b01610819565b61091b6108666104f79286611755565b6371ec3e3160e11b5f526001600160a01b0316600452602490565b63150072e360e11b5f5260045ffd5b508151811415610813565b63521eb56d60e11b5f52336004526001600160a01b031660245260445ffd5b34610248575f366003190112610248576040517f00000000000000000000000000000000000000000000000000000000000000006001600160a01b03168152602090f35b34610248576020366003190112610248576004356109d081610274565b60018060a01b03165f526006602052602060405f2054604051908152f35b67ffffffffffffffff81116106e357601f01601f191660200190565b346102485760203660031901126102485760043567ffffffffffffffff81116102485736602382011215610248578060040135610a46816109ee565b90610a5460405192836106c1565b8082523660248285010111610248576020815f926024610020960183860137830101526117ca565b3461024857608036600319011261024857600435610a9981610274565b602435610aa581610274565b604435610ab181610274565b60643562ffffff81168103610248577f00000000000000000000000000000000000000000000000000000000000000006001600160a01b0316928315610c335760405163c45a015560e01b815292602090849060049082906001600160a01b03165afa90811561052957610b6a956020945f93610c14575b50604051630b4c774160e11b81526001600160a01b0391821660048201529116602482015262ffffff90921660448301529093849190829081906064820190565b03916001600160a01b03165afa918215610529575f92610bf3575b506001600160a01b0382161561030f57604051632bb65ca160e11b81526001600160a01b03929092166004830152602090829060249082905afa801561052957610bcb57005b6100209060203d602011610bec575b610be481836106c1565b810190611953565b503d610bda565b610c0d91925060203d602011610bec57610be481836106c1565b905f610b85565b610c2c919350853d8711610bec57610be481836106c1565b915f610b29565b63f814512160e01b5f5260045ffd5b34610248575f366003190112610248576040517f00000000000000000000000000000000000000000000000000000000000000006001600160a01b03168152602090f35b34610248575f36600319011261024857602060405167016345785d8a00008152f35b34610248575f366003190112610248576003546040516001600160a01b039091168152602090f35b3461024857602036600319011261024857600435610ced81610274565b60018060a01b03165f526007602052602060018060a01b0360405f205416604051908152f35b34610248575f3660031901126102485760206040517351eb65012ca5ceb07320c497f4151ac207fea4e08152f35b34610248575f366003190112610248576020600454604051908152f35b3461024857606036600319011261024857600435610d7b81610274565b60243590604435829060016005541161100257610d986002600555565b80151580610ff9575b610fe357506040516370a0823160e01b81523060048201526001600160a01b03831693602082602481885afa918215610529575f92610fc2575b50818115918215610fb8575b5050610fb0575b5080156105e257335f9081526006602052604090207f79650a26d9c122dcabbd86157b7bdabd291e5058cef11fc21c572518a1690ee69290610e30815461197c565b90556001600160a01b038181165f908152600860205260409020839190610e569061036e565b1615610fa157610e6591611da0565b905b604080519182526020820192909252a2600154610e8e906103fa906001600160a01b031681565b6040516370a0823160e01b815230600482015290602082602481845afa918215610529575f92610f80575b5060405163a9059cbb60e01b81527f00000000000000000000000000000000000000000000000000000000000000006001600160a01b03811660048301526024820184905291602090829060449082905f905af1908115610529575f91610f61575b50156104d2576040519182526001600160a01b0316907fefed6b8d78a916dbd402a323824ae4454c9214b8f3d05fa85b3bb7f30dc25c0690602090a26100206001600555565b610f7a915060203d6020116105225761051481836106c1565b5f610f1b565b610f9a91925060203d60201161061b5761060c81836106c1565b905f610eb9565b610faa91611c96565b90610e67565b90505f610dee565b119050815f610de7565b610fdc91925060203d60201161061b5761060c81836106c1565b905f610ddb565b6302a07ebf60e31b5f526004524260245260445ffd5b50804211610da1565b6345f5ce8b60e11b5f5260045ffd5b34610248575f366003190112610248575f546040516001600160a01b039091168152602090f35b8060020b0361024857565b346102485760603660031901126102485760043561106081610274565b60243567ffffffffffffffff811161024857602091611086611098923690600401610730565b6044359161109383611038565b61198f565b6040516001600160a01b039091168152f35b34610248576020366003190112610248576004356110c781610274565b5f546001600160a01b03163381900361031e57506001600160a01b0316801561030f575f80546001600160a01b031916821781557f4ffd725fc4a22075e9ec71c59edf9c38cdeb588a91b24fc5b61388c5be41282b9080a2005b34610248575f3660031901126102485760206040516107088152f35b346102485760203660031901126102485760043561115a81610274565b335f908152600660205260409020611172815461197c565b90556001600160a01b039081165f9081526007602052604090206111959061036e565b166111a1811515611a1d565b604051630ce74fc560e31b81526020816004815f865af18015610529576111cf915f916111f7575b50611a5f565b33907fccf049defd051e7117a233e0f6c01636afab6fb9b1824ae42b5bf7e034fdba375f80a3005b611210915060203d6020116105225761051481836106c1565b5f6111c9565b346102485760203660031901126102485760043561123381610274565b60018060a01b03165f526009602052602060405f2054604051908152f35b346102485761125f36610797565b5f546001600160a01b031633819003610950575061127b611ef8565b81519182158015611488575b610936576001546001600160a01b0316604051631d5f45f560e01b8152906020826004817f00000000000000000000000000000000000000000000000000000000000000006001600160a01b03165afa918215610529575f92611467575b506001600160a01b03811694915f5b83811061132c576040517fc6e313511933d451185440d1fcf485c4d19574c612d044e1293aecd6129f08ad90806108518989836117a5565b61133c6103fa6108668388611755565b1561030f57866113526103fa6108668489611755565b14611457576113646108668288611755565b6001600160a01b038116806113ab575b50906113a56001926108e661138c610866858b611755565b6001600160a01b03165f90815260086020526040902090565b016112f4565b6114186103fa888b6113cb6103fa610866896113c5611aab565b95611755565b111561143e576114086113e1610866888d611755565b6113ff8a915b6113f085611713565b6001600160a01b039091169052565b6113f083611728565b61141185611f76565b908761198f565b03611423575f611374565b6307189c0760e31b5f526001600160a01b031660045260245ffd5b61140861144e610866888d611755565b6113ff8a6113e7565b61091b6108666104f79287611755565b61148191925060203d602011610bec57610be481836106c1565b905f6112e5565b508151831415611287565b346102485760403660031901126102485760043567ffffffffffffffff8111610248576114c4903690600401610730565b60243567ffffffffffffffff81116102485736602382011215610248578060040135916114f083610718565b916114fe60405193846106c1565b8383526024602084019460051b8201019036821161024857602401935b81851061152c576100208484611b1b565b843581526020948501940161151b565b34610248575f366003190112610248576040517f00000000000000000000000000000000000000000000000000000000000000006001600160a01b03168152602090f35b346102485760203660031901126102485760043561159d81610274565b60018060a01b03165f526008602052602060018060a01b0360405f205416604051908152f35b34610248575f366003190112610248576020600b54604051908152f35b34610248575f366003190112610248576002546040516001600160a01b039091168152602090f35b34610248575f3660031901126102485760206040517fc6d7bd4bd971fa336816fe30b665cc6caccce8b123cc8ea692d132f342c4fc198152f35b34610248575f3660031901126102485760206040516127108152f35b805180835260209291819084018484015e5f828201840152601f01601f1916010190565b34610248575f366003190112610248576116c96040516116a36040826106c1565b60058152640302e332e360dc1b602082015260405191829160208352602083019061165e565b0390f35b90816020910312610248575190565b6040513d5f823e3d90fd5b90816020910312610248575180151581036102485790565b634e487b7160e01b5f52603260045260245ffd5b8051600110156117235760400190565b6116ff565b8051156117235760200190565b8051600210156117235760600190565b8051600310156117235760800190565b80518210156117235760209160051b010190565b90602080835192838152019201905f5b8181106117865750505090565b82516001600160a01b0316845260209384019390920191600101611779565b90916117bc6107e393604084526040840190611769565b916020818403910152611769565b5f549091906001600160a01b0381166119455733906001600160601b0360a01b16175f55600160055581518201916040816020850194031261024857602081015167ffffffffffffffff81116102485781019083603f830112156102485760208201519361183785610718565b9261184560405194856106c1565b8584526020808086019760051b8301010191821161024857604001945b81861061192b5750506106f79293506119096108666040611926930151936118ac61188f61086683611728565b60018060a01b03166001600160601b0360a01b6001541617600155565b6118d86118bb61086683611713565b60018060a01b03166001600160601b0360a01b6002541617600255565b6119046118e761086683611735565b60018060a01b03166001600160601b0360a01b6003541617600355565b611745565b60018060a01b03166001600160601b0360a01b600a541617600a55565b600b55565b60208091875161193a81610274565b815201950194611862565b62dc149f60e41b5f5260045ffd5b9081602091031261024857516107e381610274565b634e487b7160e01b5f52601160045260245ffd5b5f19811461198a5760010190565b611968565b90918251156117235760209160406119b260018060a01b03858701511695611713565b5181516328af8d0b60e01b81526001600160a01b0396871660048083019190915291871686820183015260029490940b9184010152909283916064918391165afa908115610529575f91611a04575090565b6107e3915060203d602011610bec57610be481836106c1565b15611a2457565b60405162461bcd60e51b81526020600482015260136024820152725a65726f206f7261636c65206164647265737360681b6044820152606490fd5b15611a6657565b60405162461bcd60e51b815260206004820152601a60248201527f4f7261636c6520707269636520757064617465206661696c65640000000000006044820152606490fd5b60405160609190611abc83826106c1565b6002815291601f1901366020840137565b90611ae090604083526040830190611769565b906020818303910152602080835192838152019201905f5b818110611b055750505090565b8251845260209384019390920191600101611af8565b5f546001600160a01b0316338190036109505750805180158015611c1c575b610936575f5b818110611b80575050907f3181a803851338c58dfa6d1e5fb867dfae2db0f3fbf4c748b6b94d2acfb5092691611b7b60405192839283611acd565b0390a1565b611b906103fa6108668386611755565b1561030f57611b9f8185611755565b51156105e257612710611bb28286611755565b5111611bf65780611bc560019286611755565b51611bef611bd66108668488611755565b6001600160a01b03165f90815260096020526040902090565b5501611b40565b611c036104f79185611755565b51637ae5968560e01b5f52600452612710602452604490565b508251811415611b3a565b6040513481527f8e47b87b0ef542cdfa1659c551d88bad38aa7f452d2bbb349ab7530dfec8be8f60203392a2565b8181029291811591840414171561198a57565b6127100390612710821161198a57565b8115611c82570490565b634e487b7160e01b5f52601260045260245ffd5b6001600160a01b038181165f908152600760205260409020611cb79061036e565b1691611cc4831515611a1d565b604051630ce74fc560e31b8152926020846004815f855af190811561052957600494602092611d85575b506040516305ecd00360e01b815294859182905afa801561052957611d4f611d60916107e3955f91611d66575b506001600160a01b0385165f908152600960205260409020611d4990611d4390549286611c55565b91611c68565b90611c55565b69021e19e0c9bab240000090611c78565b916120c0565b611d7f915060203d60201161061b5761060c81836106c1565b5f611d1b565b611d9b90833d85116105225761051481836106c1565b611cee565b611da8611ef8565b6001600160a01b0381165f908152600860205260409020611dc89061036e565b6001600160a01b03811615611edc57604051632bb65ca160e11b81526001600160a01b038216600482015292602084806024810103817f00000000000000000000000000000000000000000000000000000000000000006001600160a01b03165afa938415610529576107e394611ea8915f91611ebd575b50600154611e7190611e5a906001600160a01b03166103fa565b6001600160a01b03878116919091109216806122aa565b9015611eae57611e8190836122e1565b6001600160a01b0385165f908152600960205260409020611ea29054611c68565b906122fa565b92612315565b611eb890836122c3565b611e81565b611ed6915060203d602011610bec57610be481836106c1565b5f611e40565b6371ec3e3160e11b5f526001600160a01b03821660045260245ffd5b7f00000000000000000000000000000000000000000000000000000000000000006001600160a01b0316158015611f30575b610c3357565b507f00000000000000000000000000000000000000000000000000000000000000006001600160a01b031615611f2a565b9081602091031261024857516107e381611038565b6040516334324e9f60e21b815290602090829060049082906001600160a01b03165afa908115610529575f91611faa575090565b6107e3915060203d602011611fcc575b611fc481836106c1565b810190611f61565b503d611fba565b60405190611fe26040836106c1565b6002825261060f60f31b6020830152565b909194939260e08252825160e0830152602083015160028110156120ac5761010083015260408301516001600160a01b0390811661012084015260608401511661014083015260c0926120a3906120669060a09060808101516101608701520151856101808601526101a085019061165e565b9660208401906060809160018060a01b03815116845260208101511515602085015260018060a01b03604082015116604085015201511515910152565b60a08201520152565b634e487b7160e01b5f52602160045260245ffd5b916120e46103fa6103fa61036e8660018060a01b03165f52600760205260405f2090565b60405163158274a560e01b815291602083600481855afa918215610529576004935f93612288575b506020906040519485809263dbbb64b960e01b82525afa928315610529575f93612267575b5060405163095ea7b360e01b81526001600160a01b03831660048201526024810185905293602085806044810103815f6001600160a01b038b165af1801561052957612215966020966121c59261224c575b506001546121b5906001600160a01b03169161219d6106e8565b9788525f898901526001600160a01b03166040880152565b6001600160a01b03166060860152565b60808401526121d2611fd3565b60a08401525f6121e06106f9565b308152808601829052306040820152606081018290526040516352bbbe2960e01b815296879586948593429260048601611ff3565b03926001600160a01b03165af1908115610529575f91612233575090565b6107e3915060203d60201161061b5761060c81836106c1565b61226290883d8a116105225761051481836106c1565b612183565b61228191935060203d60201161061b5761060c81836106c1565b915f612131565b60209193506122a390823d8411610bec57610be481836106c1565b929061210c565b8181029181830414901517600116156102485760401c90565b8060801b90600160801b818304149015178215151615610248570490565b8181029181830414901517600116156102485760801c90565b81810291818304149015176001161561024857612710900490565b60405163095ea7b360e01b81527f00000000000000000000000000000000000000000000000000000000000000006001600160a01b0381166004830152602482018490529094929392909190602086806044810103815f6001600160a01b0387165af1958615610529576004966124bf575b506001546020906001600160a01b03166040516334324e9f60e21b815297909588919082906001600160a01b03165afa94851561052957612409602096612215965f998a9261249c575b506123ff906123f06123e1610708565b6001600160a01b039098168852565b6001600160a01b0316868a0152565b60020b6040850152565b3060608401908152426080850190815260a0850192835260c0850193845260e08501898152604080516350131c1f60e11b815287516001600160a01b039081166004830152602089015181166024830152919097015160020b604488015292518316606487015290516084860152915160a4850152915160c4840152511660e48201529384928391908290610104820190565b6123ff9192506124b8908a3d8c11611fcc57611fc481836106c1565b91906123d1565b6124d79060203d6020116105225761051481836106c1565b61238756fea26469706673582212209dcd08822e336e56a26a681083f11a3e7a67996129be1f742b1866c0799a6b6064736f6c634300081e0033",
  "linkReferences": {},
  "deployedLinkReferences": {}
}