{"abi":[{"type":"constructor","inputs":[{"name":"_olas","type":"address","internalType":"address"},{"name":"_dispenser","type":"address","internalType":"address"},{"name":"_stakingFactory","type":"address","internalType":"address"},{"name":"_timelock","type":"address","internalType":"address"}],"stateMutability":"nonpayable"},{"type":"function","name":"dispenser","inputs":[],"outputs":[{"name":"","type":"address","internalType":"address"}],"stateMutability":"view"},{"type":"function","name":"getBridgingDecimals","inputs":[],"outputs":[{"name":"","type":"uint256","internalType":"uint256"}],"stateMutability":"pure"},{"type":"function","name":"olas","inputs":[],"outputs":[{"name":"","type":"address","internalType":"address"}],"stateMutability":"view"},{"type":"function","name":"sendMessage","inputs":[{"name":"target","type":"address","internalType":"address"},{"name":"stakingIncentive","type":"uint256","internalType":"uint256"},{"name":"","type":"bytes","internalType":"bytes"},{"name":"","type":"uint256","internalType":"uint256"}],"outputs":[],"stateMutability":"nonpayable"},{"type":"function","name":"sendMessageBatch","inputs":[{"name":"targets","type":"address[]","internalType":"address[]"},{"name":"stakingIncentives","type":"uint256[]","internalType":"uint256[]"},{"name":"","type":"bytes","internalType":"bytes"},{"name":"","type":"uint256","internalType":"uint256"}],"outputs":[],"stateMutability":"nonpayable"},{"type":"function","name":"stakingFactory","inputs":[],"outputs":[{"name":"","type":"address","internalType":"address"}],"stateMutability":"view"},{"type":"function","name":"timelock","inputs":[],"outputs":[{"name":"","type":"address","internalType":"address"}],"stateMutability":"view"},{"type":"event","name":"AmountRefunded","inputs":[{"name":"target","type":"address","indexed":true,"internalType":"address"},{"name":"refundAmount","type":"uint256","indexed":false,"internalType":"uint256"}],"anonymous":false},{"type":"event","name":"StakingTargetDeposited","inputs":[{"name":"target","type":"address","indexed":true,"internalType":"address"},{"name":"amount","type":"uint256","indexed":false,"internalType":"uint256"}],"anonymous":false},{"type":"error","name":"ManagerOnly","inputs":[{"name":"sender","type":"address","internalType":"address"},{"name":"manager","type":"address","internalType":"address"}]},{"type":"error","name":"ReentrancyGuard","inputs":[]},{"type":"error","name":"TargetEmissionsZero","inputs":[{"name":"target","type":"address","internalType":"address"}]},{"type":"error","name":"ZeroAddress","inputs":[]}],"bytecode":{"object":"0x610100604052348015610010575f5ffd5b50604051610b59380380610b5983398101604081905261002f916100d7565b6001600160a01b038416158061004c57506001600160a01b038316155b8061005e57506001600160a01b038216155b8061007057506001600160a01b038116155b1561008e5760405163d92e233d60e01b815260040160405180910390fd5b6001600160a01b0393841660805291831660a052821660c0521660e0525f805460ff19166001179055610128565b80516001600160a01b03811681146100d2575f5ffd5b919050565b5f5f5f5f608085870312156100ea575f5ffd5b6100f3856100bc565b9350610101602086016100bc565b925061010f604086016100bc565b915061011d606086016100bc565b905092959194509250565b60805160a05160c05160e0516109c86101915f395f818161010e015261045301525f818160b0015261037c01525f8181610135015281816101620152818161019e0152818161028201526102be01525f818160730152818161048a015261056201526109c85ff3fe608060405234801561000f575f5ffd5b506004361061006a575f3560e01c806231d1151461006e57806329134768146100ab578063a8b2ae02146100d2578063b2267a7b146100e1578063bde52661146100f6578063d33219b414610109578063e09d894d14610130575b5f5ffd5b6100957f000000000000000000000000000000000000000000000000000000000000000081565b6040516100a29190610684565b60405180910390f35b6100957f000000000000000000000000000000000000000000000000000000000000000081565b604051601281526020016100a2565b6100f46100ef366004610762565b610157565b005b6100f4610104366004610848565b610277565b6100957f000000000000000000000000000000000000000000000000000000000000000081565b6100957f000000000000000000000000000000000000000000000000000000000000000081565b336001600160a01b037f000000000000000000000000000000000000000000000000000000000000000016146101d65760405163312d21ff60e11b81526001600160a01b037f00000000000000000000000000000000000000000000000000000000000000001660048201523360248201526044015b60405180910390fd5b6040805160018082528183019092525f916020808301908036833701905050905084815f8151811061020a5761020a61091c565b6001600160a01b0392909216602092830291909101909101526040805160018082528183019092525f9181602001602082028036833701905050905084815f815181106102595761025961091c565b60200260200101818152505061026f8282610301565b505050505050565b336001600160a01b037f000000000000000000000000000000000000000000000000000000000000000016146102f15760405163312d21ff60e11b81526001600160a01b037f00000000000000000000000000000000000000000000000000000000000000001660048201523360248201526044016101cd565b6102fb8484610301565b50505050565b5f54600160ff9091161115610329576040516345f5ce8b60e11b815260040160405180910390fd5b5f805460ff191660021781555b8251811015610673575f8382815181106103525761035261091c565b602002602001015190505f83838151811061036f5761036f61091c565b602002602001015190505f7f00000000000000000000000000000000000000000000000000000000000000006001600160a01b0316631eda94d7846040518263ffffffff1660e01b81526004016103c69190610684565b602060405180830381865afa1580156103e1573d5f5f3e3d5ffd5b505050506040513d601f19601f820116820180604052508101906104059190610930565b9050805f03610429578260405163e65a6c4160e01b81526004016101cd9190610684565b8082111561053c575f61043c8284610947565b60405163a9059cbb60e01b81526001600160a01b037f0000000000000000000000000000000000000000000000000000000000000000811660048301526024820183905293945084939192507f00000000000000000000000000000000000000000000000000000000000000009091169063a9059cbb906044016020604051808303815f875af11580156104d2573d5f5f3e3d5ffd5b505050506040513d601f19601f820116820180604052508101906104f6919061096c565b50836001600160a01b03167f7ab855409e27a3b361adc9ebbc0750f5efb6d4594be28fef73c314d86d13a7f78260405161053291815260200190565b60405180910390a2505b60405163095ea7b360e01b81526001600160a01b038481166004830152602482018490527f0000000000000000000000000000000000000000000000000000000000000000169063095ea7b3906044016020604051808303815f875af11580156105a8573d5f5f3e3d5ffd5b505050506040513d601f19601f820116820180604052508101906105cc919061096c565b5060405163b6b55f2560e01b8152600481018390526001600160a01b0384169063b6b55f25906024015f604051808303815f87803b15801561060c575f5ffd5b505af115801561061e573d5f5f3e3d5ffd5b50505050826001600160a01b03167f36d504751ef1ab82703e2675ab3d5e230c810cd1962cec9f40d96f9ca0e881f38360405161065d91815260200190565b60405180910390a2505050806001019050610336565b50505f805460ff1916600117905550565b6001600160a01b0391909116815260200190565b80356001600160a01b03811681146106ae575f5ffd5b919050565b634e487b7160e01b5f52604160045260245ffd5b604051601f8201601f191681016001600160401b03811182821017156106ef576106ef6106b3565b604052919050565b5f82601f830112610706575f5ffd5b81356001600160401b0381111561071f5761071f6106b3565b610732601f8201601f19166020016106c7565b818152846020838601011115610746575f5ffd5b816020850160208301375f918101602001919091529392505050565b5f5f5f5f60808587031215610775575f5ffd5b61077e85610698565b93506020850135925060408501356001600160401b0381111561079f575f5ffd5b6107ab878288016106f7565b949793965093946060013593505050565b5f6001600160401b038211156107d4576107d46106b3565b5060051b60200190565b5f82601f8301126107ed575f5ffd5b81356108006107fb826107bc565b6106c7565b8082825260208201915060208360051b860101925085831115610821575f5ffd5b602085015b8381101561083e578035835260209283019201610826565b5095945050505050565b5f5f5f5f6080858703121561085b575f5ffd5b84356001600160401b03811115610870575f5ffd5b8501601f81018713610880575f5ffd5b803561088e6107fb826107bc565b8082825260208201915060208360051b8501019250898311156108af575f5ffd5b6020840193505b828410156108d8576108c784610698565b8252602093840193909101906108b6565b965050505060208501356001600160401b038111156108f5575f5ffd5b610901878288016107de565b93505060408501356001600160401b0381111561079f575f5ffd5b634e487b7160e01b5f52603260045260245ffd5b5f60208284031215610940575f5ffd5b5051919050565b8181038181111561096657634e487b7160e01b5f52601160045260245ffd5b92915050565b5f6020828403121561097c575f5ffd5b8151801515811461098b575f5ffd5b939250505056fea2646970667358221220b2777ba28ed8d4315dded6e5e37b628873c6c3257637497c223d24328458c18b64736f6c634300081e0033","linkReferences":{}},"methodIdentifiers":{"dispenser()":"e09d894d","getBridgingDecimals()":"a8b2ae02","olas()":"0031d115","sendMessage(address,uint256,bytes,uint256)":"b2267a7b","sendMessageBatch(address[],uint256[],bytes,uint256)":"bde52661","stakingFactory()":"29134768","timelock()":"d33219b4"},"id":27}