{"abi":[{"type":"constructor","inputs":[{"name":"_olas","type":"address","internalType":"address"},{"name":"_l1Dispenser","type":"address","internalType":"address"},{"name":"_l1TokenRelayer","type":"address","internalType":"address"},{"name":"_l1MessageRelayer","type":"address","internalType":"address"},{"name":"_l2TargetChainId","type":"uint256","internalType":"uint256"}],"stateMutability":"nonpayable"},{"type":"function","name":"MAX_CHAIN_ID","inputs":[],"outputs":[{"name":"","type":"uint256","internalType":"uint256"}],"stateMutability":"view"},{"type":"function","name":"MESSAGE_GAS_LIMIT","inputs":[],"outputs":[{"name":"","type":"uint256","internalType":"uint256"}],"stateMutability":"view"},{"type":"function","name":"RECEIVE_MESSAGE","inputs":[],"outputs":[{"name":"","type":"bytes4","internalType":"bytes4"}],"stateMutability":"view"},{"type":"function","name":"TOKEN_GAS_LIMIT","inputs":[],"outputs":[{"name":"","type":"uint256","internalType":"uint256"}],"stateMutability":"view"},{"type":"function","name":"getBridgingDecimals","inputs":[],"outputs":[{"name":"","type":"uint256","internalType":"uint256"}],"stateMutability":"pure"},{"type":"function","name":"l1Dispenser","inputs":[],"outputs":[{"name":"","type":"address","internalType":"address"}],"stateMutability":"view"},{"type":"function","name":"l1MessageRelayer","inputs":[],"outputs":[{"name":"","type":"address","internalType":"address"}],"stateMutability":"view"},{"type":"function","name":"l1TokenRelayer","inputs":[],"outputs":[{"name":"","type":"address","internalType":"address"}],"stateMutability":"view"},{"type":"function","name":"l2TargetChainId","inputs":[],"outputs":[{"name":"","type":"uint256","internalType":"uint256"}],"stateMutability":"view"},{"type":"function","name":"l2TargetDispenser","inputs":[],"outputs":[{"name":"","type":"address","internalType":"address"}],"stateMutability":"view"},{"type":"function","name":"olas","inputs":[],"outputs":[{"name":"","type":"address","internalType":"address"}],"stateMutability":"view"},{"type":"function","name":"owner","inputs":[],"outputs":[{"name":"","type":"address","internalType":"address"}],"stateMutability":"view"},{"type":"function","name":"processedHashes","inputs":[{"name":"","type":"bytes32","internalType":"bytes32"}],"outputs":[{"name":"","type":"bool","internalType":"bool"}],"stateMutability":"view"},{"type":"function","name":"receiveMessage","inputs":[{"name":"data","type":"bytes","internalType":"bytes"}],"outputs":[],"stateMutability":"nonpayable"},{"type":"function","name":"sendMessage","inputs":[{"name":"target","type":"address","internalType":"address"},{"name":"stakingIncentive","type":"uint256","internalType":"uint256"},{"name":"bridgePayload","type":"bytes","internalType":"bytes"},{"name":"transferAmount","type":"uint256","internalType":"uint256"}],"outputs":[],"stateMutability":"payable"},{"type":"function","name":"sendMessageBatch","inputs":[{"name":"targets","type":"address[]","internalType":"address[]"},{"name":"stakingIncentives","type":"uint256[]","internalType":"uint256[]"},{"name":"bridgePayload","type":"bytes","internalType":"bytes"},{"name":"transferAmount","type":"uint256","internalType":"uint256"}],"outputs":[],"stateMutability":"payable"},{"type":"function","name":"setL2TargetDispenser","inputs":[{"name":"l2Dispenser","type":"address","internalType":"address"}],"outputs":[],"stateMutability":"nonpayable"},{"type":"function","name":"stakingBatchNonce","inputs":[],"outputs":[{"name":"","type":"uint256","internalType":"uint256"}],"stateMutability":"view"},{"type":"function","name":"updateHashMaintenance","inputs":[{"name":"batchHash","type":"bytes32","internalType":"bytes32"}],"outputs":[],"stateMutability":"nonpayable"},{"type":"event","name":"L2TargetDispenserUpdated","inputs":[{"name":"l2TargetDispenser","type":"address","indexed":true,"internalType":"address"}],"anonymous":false},{"type":"event","name":"LeftoversRefunded","inputs":[{"name":"sender","type":"address","indexed":true,"internalType":"address"},{"name":"leftovers","type":"uint256","indexed":false,"internalType":"uint256"}],"anonymous":false},{"type":"event","name":"MessagePosted","inputs":[{"name":"sequence","type":"uint256","indexed":true,"internalType":"uint256"},{"name":"targets","type":"address[]","indexed":false,"internalType":"address[]"},{"name":"stakingIncentives","type":"uint256[]","indexed":false,"internalType":"uint256[]"},{"name":"transferAmount","type":"uint256","indexed":false,"internalType":"uint256"},{"name":"batchHash","type":"bytes32","indexed":true,"internalType":"bytes32"}],"anonymous":false},{"type":"event","name":"MessageReceived","inputs":[{"name":"l1Relayer","type":"address","indexed":true,"internalType":"address"},{"name":"chainId","type":"uint256","indexed":true,"internalType":"uint256"},{"name":"data","type":"bytes","indexed":false,"internalType":"bytes"}],"anonymous":false},{"type":"error","name":"AlreadyDelivered","inputs":[{"name":"deliveryHash","type":"bytes32","internalType":"bytes32"}]},{"type":"error","name":"IncorrectDataLength","inputs":[{"name":"expected","type":"uint256","internalType":"uint256"},{"name":"provided","type":"uint256","internalType":"uint256"}]},{"type":"error","name":"InsufficientBalance","inputs":[{"name":"provided","type":"uint256","internalType":"uint256"},{"name":"expected","type":"uint256","internalType":"uint256"}]},{"type":"error","name":"LowerThan","inputs":[{"name":"provided","type":"uint256","internalType":"uint256"},{"name":"expected","type":"uint256","internalType":"uint256"}]},{"type":"error","name":"ManagerOnly","inputs":[{"name":"sender","type":"address","internalType":"address"},{"name":"manager","type":"address","internalType":"address"}]},{"type":"error","name":"Overflow","inputs":[{"name":"provided","type":"uint256","internalType":"uint256"},{"name":"max","type":"uint256","internalType":"uint256"}]},{"type":"error","name":"OwnerOnly","inputs":[{"name":"sender","type":"address","internalType":"address"},{"name":"owner","type":"address","internalType":"address"}]},{"type":"error","name":"Paused","inputs":[]},{"type":"error","name":"ReentrancyGuard","inputs":[]},{"type":"error","name":"TargetAmountNotQueued","inputs":[{"name":"target","type":"address","internalType":"address"},{"name":"amount","type":"uint256","internalType":"uint256"},{"name":"batchHash","type":"bytes32","internalType":"bytes32"}]},{"type":"error","name":"TargetRelayerOnly","inputs":[{"name":"provided","type":"address","internalType":"address"},{"name":"expected","type":"address","internalType":"address"}]},{"type":"error","name":"TransferFailed","inputs":[{"name":"token","type":"address","internalType":"address"},{"name":"from","type":"address","internalType":"address"},{"name":"to","type":"address","internalType":"address"},{"name":"amount","type":"uint256","internalType":"uint256"}]},{"type":"error","name":"Unpaused","inputs":[]},{"type":"error","name":"WrongAccount","inputs":[{"name":"account","type":"address","internalType":"address"}]},{"type":"error","name":"WrongAmount","inputs":[{"name":"provided","type":"uint256","internalType":"uint256"},{"name":"expected","type":"uint256","internalType":"uint256"}]},{"type":"error","name":"WrongChainId","inputs":[{"name":"provided","type":"uint256","internalType":"uint256"},{"name":"expected","type":"uint256","internalType":"uint256"}]},{"type":"error","name":"WrongMessageSender","inputs":[{"name":"provided","type":"address","internalType":"address"},{"name":"expected","type":"address","internalType":"address"}]},{"type":"error","name":"WrongTokenAddress","inputs":[{"name":"provided","type":"address","internalType":"address"},{"name":"expected","type":"address","internalType":"address"}]},{"type":"error","name":"ZeroAddress","inputs":[]},{"type":"error","name":"ZeroValue","inputs":[]}],"bytecode":{"object":"0x610120604052348015610010575f5ffd5b5060405161172238038061172283398101604081905261002f91610179565b84848484846001600160a01b038416158061005157506001600160a01b038316155b8061006357506001600160a01b038216155b156100815760405163d92e233d60e01b815260040160405180910390fd5b805f036100a157604051637c946ed760e01b815260040160405180910390fd5b60246100b560026001600160401b036101d3565b6100bf919061020d565b6001600160401b031681111561011d578060246100e460026001600160401b036101d3565b6100ee919061020d565b604051637ae5968560e01b815260048101929092526001600160401b0316602482015260440160405180910390fd5b6001600160a01b0394851660805292841660a05290831660c05290911660e052610100525050600180546001600160a01b031916331790555061023e915050565b80516001600160a01b0381168114610174575f5ffd5b919050565b5f5f5f5f5f60a0868803121561018d575f5ffd5b6101968661015e565b94506101a46020870161015e565b93506101b26040870161015e565b92506101c06060870161015e565b9150608086015190509295509295909350565b5f6001600160401b038316806101f757634e487b7160e01b5f52601260045260245ffd5b6001600160401b03929092169190910492915050565b6001600160401b03828116828216039081111561023857634e487b7160e01b5f52601160045260245ffd5b92915050565b60805160a05160c05160e051610100516114306102f25f395f818161035201528181610d3a0152610e0d01525f81816101a30152818161088001528181610bf401528181610c820152610cbc01525f81816102a8015281816109e20152610acc01525f81816103a30152818161045001528181610477015281816105120152818161053901528181610731015281816107580152610e4901525f818161011501528181610a110152610a9501526114305ff3fe608060405260043610610100575f3560e01c8063a8b2ae021161009d578063e309fb7711610062578063e309fb7714610374578063f2541c3514610392578063f4427c2c146103c5578063f953cec7146103da578063f9fc3c21146103f9575f5ffd5b8063a8b2ae02146102e9578063ac65ded2146102fc578063b2267a7b1461031b578063bde526611461032e578063c23cc3ff14610341575f5ffd5b806231d1151461010457806307d9c534146101545780633d1f8679146101925780634c1c6cbf146101c557806354d20cc2146101e957806354e4bbf4146102625780635bc105c0146102835780636143fe93146102975780638da5cb5b146102ca575b5f5ffd5b34801561010f575f5ffd5b506101377f000000000000000000000000000000000000000000000000000000000000000081565b6040516001600160a01b0390911681526020015b60405180910390f35b34801561015f575f5ffd5b5061018261016e366004610ea7565b60036020525f908152604090205460ff1681565b604051901515815260200161014b565b34801561019d575f5ffd5b506101377f000000000000000000000000000000000000000000000000000000000000000081565b3480156101d0575f5ffd5b506101db620493e081565b60405190815260200161014b565b3480156101f4575f5ffd5b50604080518082019091526015815274726563656976654d6573736167652862797465732960581b6020909101526102497ff953cec75ae677942d7cda5cb6d12c0cb96a0904bf37d36301eef297b83c411d81565b6040516001600160e01b0319909116815260200161014b565b34801561026d575f5ffd5b5061028161027c366004610ed2565b61040f565b005b34801561028e575f5ffd5b506101db61041b565b3480156102a2575f5ffd5b506101377f000000000000000000000000000000000000000000000000000000000000000081565b3480156102d5575f5ffd5b50600154610137906001600160a01b031681565b3480156102f4575f5ffd5b5060126101db565b348015610307575f5ffd5b50610281610316366004610ea7565b610445565b610281610329366004610fa3565b610507565b61028161033c36600461108b565b610726565b34801561034c575f5ffd5b506101db7f000000000000000000000000000000000000000000000000000000000000000081565b34801561037f575f5ffd5b505f54610137906001600160a01b031681565b34801561039d575f5ffd5b506101377f000000000000000000000000000000000000000000000000000000000000000081565b3480156103d0575f5ffd5b506101db60025481565b3480156103e5575f5ffd5b506102816103f4366004611161565b61087d565b348015610404575f5ffd5b506101db621e848081565b61041881610910565b50565b602461042f60026001600160401b036111ae565b61043991906111e7565b6001600160401b031681565b336001600160a01b037f000000000000000000000000000000000000000000000000000000000000000016146104bb577f00000000000000000000000000000000000000000000000000000000000000003360405163312d21ff60e11b81526004016104b292919061120c565b60405180910390fd5b5f8181526003602052604090205460ff16156104ed576040516356bc34a160e01b8152600481018290526024016104b2565b5f908152600360205260409020805460ff19166001179055565b336001600160a01b037f00000000000000000000000000000000000000000000000000000000000000001614610574577f00000000000000000000000000000000000000000000000000000000000000003360405163312d21ff60e11b81526004016104b292919061120c565b6040805160018082528183019092525f916020808301908036833701905050905084815f815181106105a8576105a8611226565b6001600160a01b0392909216602092830291909101909101526040805160018082528183019092525f9181602001602082028036833701905050905084815f815181106105f7576105f7611226565b6020026020010181815250505f60025490505f81463060405160200161061f9392919061123a565b6040516020818303038152906040528051906020012090505f5f61064686868a8a876109c3565b909250905080156106cc57604051329082905f81818185875af1925050503d805f811461068e576040519150601f19603f3d011682016040523d82523d5f602084013e610693565b606091505b50506040518281523291507f8e49ed3e274fbea1556bdfaa9a37a0c28445bfe26d57beaf9f04fd517aa417419060200160405180910390a25b6106d7846001611259565b60028190555082827f621aece9999edf4d664a3855f668f6fc380937a42044234fd883b42d0485118788888b604051610712939291906112df565b60405180910390a350505050505050505050565b336001600160a01b037f00000000000000000000000000000000000000000000000000000000000000001614610793577f00000000000000000000000000000000000000000000000000000000000000003360405163312d21ff60e11b81526004016104b292919061120c565b6002546040515f906107ad9083904690309060200161123a565b6040516020818303038152906040528051906020012090505f5f6107d488888888876109c3565b9092509050801561082557604051329082905f81818185875af1925050503d805f811461081c576040519150601f19603f3d011682016040523d82523d5f602084013e610821565b606091505b5050505b610830846001611259565b60028190555082827f621aece9999edf4d664a3855f668f6fc380937a42044234fd883b42d048511878a8a8960405161086b939291906112df565b60405180910390a35050505050505050565b5f7f00000000000000000000000000000000000000000000000000000000000000006001600160a01b031663d67bdd256040518163ffffffff1660e01b81526004016020604051808303815f875af11580156108db573d5f5f3e3d5ffd5b505050506040513d601f19601f820116820180604052508101906108ff9190611314565b905061090c338284610c80565b5050565b6001546001600160a01b0316331461094a5760015460405163521eb56d60e11b81526104b2916001600160a01b031690339060040161120c565b6001600160a01b0381166109715760405163d92e233d60e01b815260040160405180910390fd5b5f80546001600160a01b0383166001600160a01b0319918216811783556001805490921690915560405190917f991aa5c8f67a92f8feb202de828958c681966ae343fcf6db040f5f8099d547cf91a250565b5f808315610b265760405163095ea7b360e01b81526001600160a01b037f000000000000000000000000000000000000000000000000000000000000000081166004830152602482018690527f0000000000000000000000000000000000000000000000000000000000000000169063095ea7b3906044016020604051808303815f875af1158015610a57573d5f5f3e3d5ffd5b505050506040513d601f19601f82011682018060405250810190610a7b919061132f565b505f5460405163ad58bdd160e01b81526001600160a01b037f0000000000000000000000000000000000000000000000000000000000000000811660048301529182166024820152604481018690527f00000000000000000000000000000000000000000000000000000000000000009091169063ad58bdd1906064015f604051808303815f87803b158015610b0f575f5ffd5b505af1158015610b21573d5f5f3e3d5ffd5b505050505b6040805180820182526015815274726563656976654d6573736167652862797465732960581b60209182015290515f917ff953cec75ae677942d7cda5cb6d12c0cb96a0904bf37d36301eef297b83c411d91610b88918b918b918991016112df565b60408051601f1981840301815290829052610ba59160240161137c565b60408051601f198184030181529181526020820180516001600160e01b03166001600160e01b0319909416939093179092525f8054925163dc8601b360e01b8152919350916001600160a01b037f000000000000000000000000000000000000000000000000000000000000000081169263dc8601b392610c319216908690621e84809060040161138e565b6020604051808303815f875af1158015610c4d573d5f5f3e3d5ffd5b505050506040513d601f19601f82011682018060405250810190610c7191906113c1565b99349950975050505050505050565b7f00000000000000000000000000000000000000000000000000000000000000006001600160a01b0316836001600160a01b031614610cf657337f000000000000000000000000000000000000000000000000000000000000000060405163179888fd60e11b81526004016104b292919061120c565b5f546001600160a01b03838116911614610d33575f54604051630d16cbdd60e01b81526104b29184916001600160a01b039091169060040161120c565b5f546040517f0000000000000000000000000000000000000000000000000000000000000000916001600160a01b0316907f98bbde530ec85b002f6fb0864beccaaf3ac3d2a4ac35cb3b03cf7c61ee415e3390610d9190859061137c565b60405180910390a35f5f82806020019051810190610daf91906113d8565b5f81815260036020526040902054919350915060ff1615610de6576040516356bc34a160e01b8152600481018290526024016104b2565b5f8181526003602052604090819020805460ff19166001179055516379bc81dd60e01b81527f0000000000000000000000000000000000000000000000000000000000000000600482015260248101839052604481018290526001600160a01b037f000000000000000000000000000000000000000000000000000000000000000016906379bc81dd906064015f604051808303815f87803b158015610e8a575f5ffd5b505af1158015610e9c573d5f5f3e3d5ffd5b505050505050505050565b5f60208284031215610eb7575f5ffd5b5035919050565b6001600160a01b0381168114610418575f5ffd5b5f60208284031215610ee2575f5ffd5b8135610eed81610ebe565b9392505050565b634e487b7160e01b5f52604160045260245ffd5b604051601f8201601f191681016001600160401b0381118282101715610f3057610f30610ef4565b604052919050565b5f82601f830112610f47575f5ffd5b81356001600160401b03811115610f6057610f60610ef4565b610f73601f8201601f1916602001610f08565b818152846020838601011115610f87575f5ffd5b816020850160208301375f918101602001919091529392505050565b5f5f5f5f60808587031215610fb6575f5ffd5b8435610fc181610ebe565b93506020850135925060408501356001600160401b03811115610fe2575f5ffd5b610fee87828801610f38565b949793965093946060013593505050565b5f6001600160401b0382111561101757611017610ef4565b5060051b60200190565b5f82601f830112611030575f5ffd5b813561104361103e82610fff565b610f08565b8082825260208201915060208360051b860101925085831115611064575f5ffd5b602085015b83811015611081578035835260209283019201611069565b5095945050505050565b5f5f5f5f6080858703121561109e575f5ffd5b84356001600160401b038111156110b3575f5ffd5b8501601f810187136110c3575f5ffd5b80356110d161103e82610fff565b8082825260208201915060208360051b8501019250898311156110f2575f5ffd5b6020840193505b8284101561111d57833561110c81610ebe565b8252602093840193909101906110f9565b965050505060208501356001600160401b0381111561113a575f5ffd5b61114687828801611021565b93505060408501356001600160401b03811115610fe2575f5ffd5b5f60208284031215611171575f5ffd5b81356001600160401b03811115611186575f5ffd5b61119284828501610f38565b949350505050565b634e487b7160e01b5f52601160045260245ffd5b5f6001600160401b038316806111d257634e487b7160e01b5f52601260045260245ffd5b806001600160401b0384160491505092915050565b6001600160401b0382811682821603908111156112065761120661119a565b92915050565b6001600160a01b0392831681529116602082015260400190565b634e487b7160e01b5f52603260045260245ffd5b92835260208301919091526001600160a01b0316604082015260600190565b808201808211156112065761120661119a565b5f8151808452602084019350602083015f5b828110156112a55781516001600160a01b031686526020958601959091019060010161127e565b5093949350505050565b5f8151808452602084019350602083015f5b828110156112a55781518652602095860195909101906001016112c1565b606081525f6112f1606083018661126c565b828103602084015261130381866112af565b915050826040830152949350505050565b5f60208284031215611324575f5ffd5b8151610eed81610ebe565b5f6020828403121561133f575f5ffd5b81518015158114610eed575f5ffd5b5f81518084528060208401602086015e5f602082860101526020601f19601f83011685010191505092915050565b602081525f610eed602083018461134e565b6001600160a01b03841681526060602082018190525f906113b19083018561134e565b9050826040830152949350505050565b5f602082840312156113d1575f5ffd5b5051919050565b5f5f604083850312156113e9575f5ffd5b50508051602090910151909290915056fea264697066735822122042dc4b3c1d067c474726328878af1460048f531d4ca987e990b5cb4323067b6e64736f6c634300081e0033","linkReferences":{}},"methodIdentifiers":{"MAX_CHAIN_ID()":"5bc105c0","MESSAGE_GAS_LIMIT()":"f9fc3c21","RECEIVE_MESSAGE()":"54d20cc2","TOKEN_GAS_LIMIT()":"4c1c6cbf","getBridgingDecimals()":"a8b2ae02","l1Dispenser()":"f2541c35","l1MessageRelayer()":"3d1f8679","l1TokenRelayer()":"6143fe93","l2TargetChainId()":"c23cc3ff","l2TargetDispenser()":"e309fb77","olas()":"0031d115","owner()":"8da5cb5b","processedHashes(bytes32)":"07d9c534","receiveMessage(bytes)":"f953cec7","sendMessage(address,uint256,bytes,uint256)":"b2267a7b","sendMessageBatch(address[],uint256[],bytes,uint256)":"bde52661","setL2TargetDispenser(address)":"54e4bbf4","stakingBatchNonce()":"f4427c2c","updateHashMaintenance(bytes32)":"ac65ded2"},"id":28}