{
  "_format": "hh-sol-artifact-1",
  "contractName": "LiquidityManagerProxy",
  "sourceName": "contracts/proxies/LiquidityManagerProxy.sol",
  "abi": [
    {
      "inputs": [
        {
          "internalType": "address",
          "name": "liquidityManager",
          "type": "address"
        },
        {
          "internalType": "bytes",
          "name": "liquidityManagerData",
          "type": "bytes"
        }
      ],
      "stateMutability": "nonpayable",
      "type": "constructor"
    },
    {
      "inputs": [],
      "name": "InitializationFailed",
      "type": "error"
    },
    {
      "inputs": [],
      "name": "ZeroAddress",
      "type": "error"
    },
    {
      "inputs": [],
      "name": "ZeroValue",
      "type": "error"
    },
    {
      "stateMutability": "payable",
      "type": "fallback"
    },
    {
      "inputs": [],
      "name": "PROXY_LIQUIDITY_MANAGER",
      "outputs": [
        {
          "internalType": "bytes32",
          "name": "",
          "type": "bytes32"
        }
      ],
      "stateMutability": "view",
      "type": "function"
    }
  ],
  "bytecode": "0x60806040523461012d576102508038038061001981610131565b92833981019060408183031261012d5780516001600160a01b0381169182820361012d576020810151906001600160401b03821161012d57019183601f8401121561012d57825161007161006c8261016a565b610131565b9381855260208501956020838301011161012d57815f926020809301885e850101521561011e5781511561010f575f928392827ff7d1f641b01c7d29322d281367bfc337651cbfb5a9b1c387d2132d8792d212cd5551915af43d1561010a573d6100dd61006c8261016a565b9081525f60203d92013e5b156100fb5760405160ca90816101868239f35b630337323560e31b5f5260045ffd5b6100e8565b637c946ed760e01b5f5260045ffd5b63d92e233d60e01b5f5260045ffd5b5f80fd5b6040519190601f01601f191682016001600160401b0381118382101761015657604052565b634e487b7160e01b5f52604160045260245ffd5b6001600160401b03811161015657601f01601f19166020019056fe60806040526004361015604a575b5f807ff7d1f641b01c7d29322d281367bfc337651cbfb5a9b1c387d2132d8792d212cd54368280378136915af43d5f803e156046573d5ff35b3d5ffd5b5f3560e01c63e6935e3203600d57346090575f3660031901126090577ff7d1f641b01c7d29322d281367bfc337651cbfb5a9b1c387d2132d8792d212cd60805260206080f35b5f80fdfea2646970667358221220b32c8b1800e4c4c145118dab6bca650d9cfca13a5af85168b939428310a9e03364736f6c634300081e0033",
  "linkReferences": {},
  "deployedLinkReferences": {}
}