{
  "_format": "hh-sol-artifact-1",
  "contractName": "LiquidityManagerOptimism",
  "sourceName": "contracts/pol/LiquidityManagerOptimism.sol",
  "abi": [
    {
      "inputs": [
        {
          "internalType": "address",
          "name": "_olas",
          "type": "address"
        },
        {
          "internalType": "address",
          "name": "_treasury",
          "type": "address"
        },
        {
          "internalType": "address",
          "name": "_positionManagerV3",
          "type": "address"
        },
        {
          "internalType": "address",
          "name": "_neighborhoodScanner",
          "type": "address"
        },
        {
          "internalType": "uint16",
          "name": "_observationCardinality",
          "type": "uint16"
        },
        {
          "internalType": "address",
          "name": "_oracleV2",
          "type": "address"
        },
        {
          "internalType": "address",
          "name": "_balancerVault",
          "type": "address"
        },
        {
          "internalType": "address",
          "name": "_bridge2Burner",
          "type": "address"
        }
      ],
      "stateMutability": "nonpayable",
      "type": "constructor"
    },
    {
      "inputs": [],
      "name": "AlreadyInitialized",
      "type": "error"
    },
    {
      "inputs": [
        {
          "internalType": "address",
          "name": "pool",
          "type": "address"
        }
      ],
      "name": "ObservationFailed",
      "type": "error"
    },
    {
      "inputs": [
        {
          "internalType": "uint256",
          "name": "provided",
          "type": "uint256"
        },
        {
          "internalType": "uint256",
          "name": "max",
          "type": "uint256"
        }
      ],
      "name": "Overflow",
      "type": "error"
    },
    {
      "inputs": [
        {
          "internalType": "address",
          "name": "sender",
          "type": "address"
        },
        {
          "internalType": "address",
          "name": "owner",
          "type": "address"
        }
      ],
      "name": "OwnerOnly",
      "type": "error"
    },
    {
      "inputs": [
        {
          "internalType": "uint256",
          "name": "x",
          "type": "uint256"
        },
        {
          "internalType": "uint256",
          "name": "y",
          "type": "uint256"
        },
        {
          "internalType": "uint256",
          "name": "denominator",
          "type": "uint256"
        }
      ],
      "name": "PRBMath_MulDiv_Overflow",
      "type": "error"
    },
    {
      "inputs": [],
      "name": "R",
      "type": "error"
    },
    {
      "inputs": [
        {
          "internalType": "int24",
          "name": "low",
          "type": "int24"
        },
        {
          "internalType": "int24",
          "name": "center",
          "type": "int24"
        },
        {
          "internalType": "int24",
          "name": "high",
          "type": "int24"
        }
      ],
      "name": "RangeBounds",
      "type": "error"
    },
    {
      "inputs": [],
      "name": "ReentrancyGuard",
      "type": "error"
    },
    {
      "inputs": [],
      "name": "T",
      "type": "error"
    },
    {
      "inputs": [
        {
          "internalType": "address",
          "name": "token",
          "type": "address"
        },
        {
          "internalType": "address",
          "name": "from",
          "type": "address"
        },
        {
          "internalType": "address",
          "name": "to",
          "type": "address"
        },
        {
          "internalType": "uint256",
          "name": "value",
          "type": "uint256"
        }
      ],
      "name": "TokenTransferFailed",
      "type": "error"
    },
    {
      "inputs": [
        {
          "internalType": "address[]",
          "name": "provided",
          "type": "address[]"
        },
        {
          "internalType": "address",
          "name": "expected",
          "type": "address"
        }
      ],
      "name": "WrongTokenAddress",
      "type": "error"
    },
    {
      "inputs": [
        {
          "internalType": "address[]",
          "name": "provided",
          "type": "address[]"
        },
        {
          "internalType": "address[]",
          "name": "expected",
          "type": "address[]"
        }
      ],
      "name": "WrongTokenAddresses",
      "type": "error"
    },
    {
      "inputs": [],
      "name": "ZeroAddress",
      "type": "error"
    },
    {
      "inputs": [],
      "name": "ZeroValue",
      "type": "error"
    },
    {
      "anonymous": false,
      "inputs": [
        {
          "indexed": true,
          "internalType": "address",
          "name": "pool",
          "type": "address"
        },
        {
          "indexed": true,
          "internalType": "uint256",
          "name": "positionId",
          "type": "uint256"
        },
        {
          "indexed": false,
          "internalType": "address[]",
          "name": "tokens",
          "type": "address[]"
        },
        {
          "indexed": false,
          "internalType": "uint256[]",
          "name": "amounts",
          "type": "uint256[]"
        },
        {
          "indexed": false,
          "internalType": "uint256",
          "name": "liquidiy",
          "type": "uint256"
        },
        {
          "indexed": false,
          "internalType": "bool",
          "name": "scan",
          "type": "bool"
        }
      ],
      "name": "ConvertedToV3",
      "type": "event"
    },
    {
      "anonymous": false,
      "inputs": [
        {
          "indexed": true,
          "internalType": "address",
          "name": "sender",
          "type": "address"
        },
        {
          "indexed": true,
          "internalType": "uint256",
          "name": "positionId",
          "type": "uint256"
        },
        {
          "indexed": false,
          "internalType": "uint256[]",
          "name": "amounts",
          "type": "uint256[]"
        }
      ],
      "name": "FeesCollected",
      "type": "event"
    },
    {
      "anonymous": false,
      "inputs": [
        {
          "indexed": true,
          "internalType": "address",
          "name": "implementation",
          "type": "address"
        }
      ],
      "name": "ImplementationUpdated",
      "type": "event"
    },
    {
      "anonymous": false,
      "inputs": [
        {
          "indexed": true,
          "internalType": "uint256",
          "name": "positionId",
          "type": "uint256"
        },
        {
          "indexed": false,
          "internalType": "uint256[]",
          "name": "amounts",
          "type": "uint256[]"
        },
        {
          "indexed": false,
          "internalType": "uint256",
          "name": "liquidity",
          "type": "uint256"
        }
      ],
      "name": "LiquidityDecreased",
      "type": "event"
    },
    {
      "anonymous": false,
      "inputs": [
        {
          "indexed": true,
          "internalType": "uint256",
          "name": "positionId",
          "type": "uint256"
        },
        {
          "indexed": false,
          "internalType": "uint256[]",
          "name": "amounts",
          "type": "uint256[]"
        },
        {
          "indexed": false,
          "internalType": "uint256",
          "name": "liquidity",
          "type": "uint256"
        }
      ],
      "name": "LiquidityIncreased",
      "type": "event"
    },
    {
      "anonymous": false,
      "inputs": [
        {
          "indexed": false,
          "internalType": "uint256",
          "name": "maxSlippage",
          "type": "uint256"
        }
      ],
      "name": "MaxSlippageUpdated",
      "type": "event"
    },
    {
      "anonymous": false,
      "inputs": [
        {
          "indexed": true,
          "internalType": "address",
          "name": "owner",
          "type": "address"
        }
      ],
      "name": "OwnerUpdated",
      "type": "event"
    },
    {
      "anonymous": false,
      "inputs": [
        {
          "indexed": true,
          "internalType": "address",
          "name": "pool",
          "type": "address"
        },
        {
          "indexed": true,
          "internalType": "uint256",
          "name": "positionId",
          "type": "uint256"
        },
        {
          "indexed": false,
          "internalType": "address[]",
          "name": "tokens",
          "type": "address[]"
        },
        {
          "indexed": false,
          "internalType": "uint256[]",
          "name": "amounts",
          "type": "uint256[]"
        }
      ],
      "name": "PositionFeesCollected",
      "type": "event"
    },
    {
      "anonymous": false,
      "inputs": [
        {
          "indexed": true,
          "internalType": "address",
          "name": "pool",
          "type": "address"
        },
        {
          "indexed": true,
          "internalType": "uint256",
          "name": "positionId",
          "type": "uint256"
        },
        {
          "indexed": false,
          "internalType": "address[]",
          "name": "tokens",
          "type": "address[]"
        },
        {
          "indexed": false,
          "internalType": "uint256[]",
          "name": "amounts",
          "type": "uint256[]"
        },
        {
          "indexed": false,
          "internalType": "uint256",
          "name": "liquidiy",
          "type": "uint256"
        }
      ],
      "name": "PositionLiquidityDecreased",
      "type": "event"
    },
    {
      "anonymous": false,
      "inputs": [
        {
          "indexed": true,
          "internalType": "address",
          "name": "pool",
          "type": "address"
        },
        {
          "indexed": true,
          "internalType": "uint256",
          "name": "positionId",
          "type": "uint256"
        },
        {
          "indexed": false,
          "internalType": "address[]",
          "name": "tokens",
          "type": "address[]"
        },
        {
          "indexed": false,
          "internalType": "uint256[]",
          "name": "amounts",
          "type": "uint256[]"
        },
        {
          "indexed": false,
          "internalType": "uint256",
          "name": "liquidiy",
          "type": "uint256"
        }
      ],
      "name": "PositionLiquidityIncreased",
      "type": "event"
    },
    {
      "anonymous": false,
      "inputs": [
        {
          "indexed": true,
          "internalType": "uint256",
          "name": "positionId",
          "type": "uint256"
        },
        {
          "indexed": false,
          "internalType": "address[]",
          "name": "tokens",
          "type": "address[]"
        },
        {
          "indexed": false,
          "internalType": "uint256[]",
          "name": "amounts",
          "type": "uint256[]"
        },
        {
          "indexed": false,
          "internalType": "uint256",
          "name": "liquidiy",
          "type": "uint256"
        }
      ],
      "name": "PositionMinted",
      "type": "event"
    },
    {
      "anonymous": false,
      "inputs": [
        {
          "indexed": true,
          "internalType": "uint256",
          "name": "positionId",
          "type": "uint256"
        },
        {
          "indexed": true,
          "internalType": "address",
          "name": "to",
          "type": "address"
        }
      ],
      "name": "PositionTransferred",
      "type": "event"
    },
    {
      "anonymous": false,
      "inputs": [
        {
          "indexed": true,
          "internalType": "address",
          "name": "pool",
          "type": "address"
        },
        {
          "indexed": true,
          "internalType": "uint256",
          "name": "positionId",
          "type": "uint256"
        },
        {
          "indexed": false,
          "internalType": "address[]",
          "name": "tokens",
          "type": "address[]"
        },
        {
          "indexed": false,
          "internalType": "uint256[]",
          "name": "amounts",
          "type": "uint256[]"
        },
        {
          "indexed": false,
          "internalType": "uint256",
          "name": "liquidiy",
          "type": "uint256"
        },
        {
          "indexed": false,
          "internalType": "bool",
          "name": "scan",
          "type": "bool"
        }
      ],
      "name": "RangesChanged",
      "type": "event"
    },
    {
      "anonymous": false,
      "inputs": [
        {
          "indexed": false,
          "internalType": "address[]",
          "name": "tokens",
          "type": "address[]"
        },
        {
          "indexed": false,
          "internalType": "int24",
          "name": "feeTierOrTickSpacing",
          "type": "int24"
        },
        {
          "indexed": false,
          "internalType": "int24[]",
          "name": "initTicks",
          "type": "int24[]"
        },
        {
          "indexed": false,
          "internalType": "int24[]",
          "name": "optimizedTicks",
          "type": "int24[]"
        },
        {
          "indexed": false,
          "internalType": "bool",
          "name": "scan",
          "type": "bool"
        }
      ],
      "name": "TicksSet",
      "type": "event"
    },
    {
      "anonymous": false,
      "inputs": [
        {
          "indexed": true,
          "internalType": "address",
          "name": "token",
          "type": "address"
        },
        {
          "indexed": true,
          "internalType": "address",
          "name": "to",
          "type": "address"
        },
        {
          "indexed": false,
          "internalType": "uint256",
          "name": "amount",
          "type": "uint256"
        }
      ],
      "name": "TokenTransferred",
      "type": "event"
    },
    {
      "anonymous": false,
      "inputs": [
        {
          "indexed": true,
          "internalType": "address",
          "name": "olas",
          "type": "address"
        },
        {
          "indexed": true,
          "internalType": "address",
          "name": "token",
          "type": "address"
        },
        {
          "indexed": false,
          "internalType": "uint256",
          "name": "olasAmount",
          "type": "uint256"
        },
        {
          "indexed": false,
          "internalType": "uint256",
          "name": "tokenAmount",
          "type": "uint256"
        },
        {
          "indexed": false,
          "internalType": "bool",
          "name": "olasBurnOrTransfer",
          "type": "bool"
        }
      ],
      "name": "UtilityAmountsManaged",
      "type": "event"
    },
    {
      "inputs": [],
      "name": "MAX_ALLOWED_DEVIATION",
      "outputs": [
        {
          "internalType": "uint256",
          "name": "",
          "type": "uint256"
        }
      ],
      "stateMutability": "view",
      "type": "function"
    },
    {
      "inputs": [],
      "name": "MAX_BPS",
      "outputs": [
        {
          "internalType": "uint16",
          "name": "",
          "type": "uint16"
        }
      ],
      "stateMutability": "view",
      "type": "function"
    },
    {
      "inputs": [],
      "name": "PROXY_LIQUIDITY_MANAGER",
      "outputs": [
        {
          "internalType": "bytes32",
          "name": "",
          "type": "bytes32"
        }
      ],
      "stateMutability": "view",
      "type": "function"
    },
    {
      "inputs": [],
      "name": "SECONDS_AGO",
      "outputs": [
        {
          "internalType": "uint32",
          "name": "",
          "type": "uint32"
        }
      ],
      "stateMutability": "view",
      "type": "function"
    },
    {
      "inputs": [],
      "name": "VERSION",
      "outputs": [
        {
          "internalType": "string",
          "name": "",
          "type": "string"
        }
      ],
      "stateMutability": "view",
      "type": "function"
    },
    {
      "inputs": [],
      "name": "balancerVault",
      "outputs": [
        {
          "internalType": "address",
          "name": "",
          "type": "address"
        }
      ],
      "stateMutability": "view",
      "type": "function"
    },
    {
      "inputs": [],
      "name": "bridge2Burner",
      "outputs": [
        {
          "internalType": "address",
          "name": "",
          "type": "address"
        }
      ],
      "stateMutability": "view",
      "type": "function"
    },
    {
      "inputs": [
        {
          "internalType": "address",
          "name": "implementation",
          "type": "address"
        }
      ],
      "name": "changeImplementation",
      "outputs": [],
      "stateMutability": "nonpayable",
      "type": "function"
    },
    {
      "inputs": [
        {
          "internalType": "uint16",
          "name": "newMaxSlippage",
          "type": "uint16"
        }
      ],
      "name": "changeMaxSlippage",
      "outputs": [],
      "stateMutability": "nonpayable",
      "type": "function"
    },
    {
      "inputs": [
        {
          "internalType": "address",
          "name": "newOwner",
          "type": "address"
        }
      ],
      "name": "changeOwner",
      "outputs": [],
      "stateMutability": "nonpayable",
      "type": "function"
    },
    {
      "inputs": [
        {
          "internalType": "address[]",
          "name": "tokens",
          "type": "address[]"
        },
        {
          "internalType": "int24",
          "name": "feeTierOrTickSpacing",
          "type": "int24"
        },
        {
          "internalType": "int24[]",
          "name": "tickShifts",
          "type": "int24[]"
        },
        {
          "internalType": "bool",
          "name": "scan",
          "type": "bool"
        }
      ],
      "name": "changeRanges",
      "outputs": [
        {
          "internalType": "uint256",
          "name": "positionId",
          "type": "uint256"
        },
        {
          "internalType": "uint128",
          "name": "liquidity",
          "type": "uint128"
        },
        {
          "internalType": "uint256[]",
          "name": "amounts",
          "type": "uint256[]"
        }
      ],
      "stateMutability": "nonpayable",
      "type": "function"
    },
    {
      "inputs": [
        {
          "internalType": "address",
          "name": "pool",
          "type": "address"
        }
      ],
      "name": "checkPoolAndGetCenterPrice",
      "outputs": [
        {
          "internalType": "uint160",
          "name": "centerSqrtPriceX96",
          "type": "uint160"
        }
      ],
      "stateMutability": "view",
      "type": "function"
    },
    {
      "inputs": [
        {
          "internalType": "address[]",
          "name": "tokens",
          "type": "address[]"
        },
        {
          "internalType": "int24",
          "name": "feeTierOrTickSpacing",
          "type": "int24"
        }
      ],
      "name": "collectFees",
      "outputs": [
        {
          "internalType": "uint256[]",
          "name": "amounts",
          "type": "uint256[]"
        }
      ],
      "stateMutability": "nonpayable",
      "type": "function"
    },
    {
      "inputs": [
        {
          "internalType": "address[]",
          "name": "tokens",
          "type": "address[]"
        },
        {
          "internalType": "bytes32",
          "name": "v2Pool",
          "type": "bytes32"
        },
        {
          "internalType": "int24",
          "name": "feeTierOrTickSpacing",
          "type": "int24"
        },
        {
          "internalType": "int24[]",
          "name": "tickShifts",
          "type": "int24[]"
        },
        {
          "internalType": "uint16",
          "name": "olasBurnRate",
          "type": "uint16"
        },
        {
          "internalType": "bool",
          "name": "scan",
          "type": "bool"
        }
      ],
      "name": "convertToV3",
      "outputs": [
        {
          "internalType": "uint256",
          "name": "positionId",
          "type": "uint256"
        },
        {
          "internalType": "uint256",
          "name": "liquidity",
          "type": "uint256"
        },
        {
          "internalType": "uint256[]",
          "name": "amounts",
          "type": "uint256[]"
        }
      ],
      "stateMutability": "nonpayable",
      "type": "function"
    },
    {
      "inputs": [
        {
          "internalType": "address[]",
          "name": "tokens",
          "type": "address[]"
        },
        {
          "internalType": "int24",
          "name": "feeTierOrTickSpacing",
          "type": "int24"
        },
        {
          "internalType": "uint16",
          "name": "decreaseRate",
          "type": "uint16"
        },
        {
          "internalType": "uint16",
          "name": "olasBurnRate",
          "type": "uint16"
        }
      ],
      "name": "decreaseLiquidity",
      "outputs": [
        {
          "internalType": "uint256",
          "name": "positionId",
          "type": "uint256"
        },
        {
          "internalType": "uint128",
          "name": "liquidity",
          "type": "uint128"
        },
        {
          "internalType": "uint256[]",
          "name": "amounts",
          "type": "uint256[]"
        }
      ],
      "stateMutability": "nonpayable",
      "type": "function"
    },
    {
      "inputs": [],
      "name": "factoryV3",
      "outputs": [
        {
          "internalType": "address",
          "name": "",
          "type": "address"
        }
      ],
      "stateMutability": "view",
      "type": "function"
    },
    {
      "inputs": [
        {
          "internalType": "address",
          "name": "pool",
          "type": "address"
        }
      ],
      "name": "getTwapFromOracle",
      "outputs": [
        {
          "internalType": "uint256",
          "name": "price",
          "type": "uint256"
        },
        {
          "internalType": "uint160",
          "name": "centerSqrtPriceX96",
          "type": "uint160"
        }
      ],
      "stateMutability": "view",
      "type": "function"
    },
    {
      "inputs": [
        {
          "internalType": "address[]",
          "name": "tokens",
          "type": "address[]"
        },
        {
          "internalType": "int24",
          "name": "feeTierOrTickSpacing",
          "type": "int24"
        },
        {
          "internalType": "uint16",
          "name": "olasBurnRate",
          "type": "uint16"
        }
      ],
      "name": "increaseLiquidity",
      "outputs": [
        {
          "internalType": "uint256",
          "name": "positionId",
          "type": "uint256"
        },
        {
          "internalType": "uint256",
          "name": "liquidity",
          "type": "uint256"
        },
        {
          "internalType": "uint256[]",
          "name": "amounts",
          "type": "uint256[]"
        }
      ],
      "stateMutability": "nonpayable",
      "type": "function"
    },
    {
      "inputs": [
        {
          "internalType": "uint16",
          "name": "_maxSlippage",
          "type": "uint16"
        }
      ],
      "name": "initialize",
      "outputs": [],
      "stateMutability": "nonpayable",
      "type": "function"
    },
    {
      "inputs": [
        {
          "internalType": "address",
          "name": "",
          "type": "address"
        }
      ],
      "name": "mapPoolAddressPositionIds",
      "outputs": [
        {
          "internalType": "uint256",
          "name": "",
          "type": "uint256"
        }
      ],
      "stateMutability": "view",
      "type": "function"
    },
    {
      "inputs": [],
      "name": "maxSlippage",
      "outputs": [
        {
          "internalType": "uint16",
          "name": "",
          "type": "uint16"
        }
      ],
      "stateMutability": "view",
      "type": "function"
    },
    {
      "inputs": [],
      "name": "neighborhoodScanner",
      "outputs": [
        {
          "internalType": "address",
          "name": "",
          "type": "address"
        }
      ],
      "stateMutability": "view",
      "type": "function"
    },
    {
      "inputs": [],
      "name": "observationCardinality",
      "outputs": [
        {
          "internalType": "uint16",
          "name": "",
          "type": "uint16"
        }
      ],
      "stateMutability": "view",
      "type": "function"
    },
    {
      "inputs": [],
      "name": "olas",
      "outputs": [
        {
          "internalType": "address",
          "name": "",
          "type": "address"
        }
      ],
      "stateMutability": "view",
      "type": "function"
    },
    {
      "inputs": [
        {
          "internalType": "address",
          "name": "",
          "type": "address"
        },
        {
          "internalType": "address",
          "name": "",
          "type": "address"
        },
        {
          "internalType": "uint256",
          "name": "",
          "type": "uint256"
        },
        {
          "internalType": "bytes",
          "name": "",
          "type": "bytes"
        }
      ],
      "name": "onERC721Received",
      "outputs": [
        {
          "internalType": "bytes4",
          "name": "",
          "type": "bytes4"
        }
      ],
      "stateMutability": "nonpayable",
      "type": "function"
    },
    {
      "inputs": [],
      "name": "oracleV2",
      "outputs": [
        {
          "internalType": "address",
          "name": "",
          "type": "address"
        }
      ],
      "stateMutability": "view",
      "type": "function"
    },
    {
      "inputs": [],
      "name": "owner",
      "outputs": [
        {
          "internalType": "address",
          "name": "",
          "type": "address"
        }
      ],
      "stateMutability": "view",
      "type": "function"
    },
    {
      "inputs": [],
      "name": "positionManagerV3",
      "outputs": [
        {
          "internalType": "address",
          "name": "",
          "type": "address"
        }
      ],
      "stateMutability": "view",
      "type": "function"
    },
    {
      "inputs": [
        {
          "internalType": "address[]",
          "name": "tokens",
          "type": "address[]"
        },
        {
          "internalType": "int24",
          "name": "feeTierOrTickSpacing",
          "type": "int24"
        },
        {
          "internalType": "address",
          "name": "to",
          "type": "address"
        }
      ],
      "name": "transferPositionId",
      "outputs": [
        {
          "internalType": "uint256",
          "name": "positionId",
          "type": "uint256"
        }
      ],
      "stateMutability": "nonpayable",
      "type": "function"
    },
    {
      "inputs": [
        {
          "internalType": "address",
          "name": "token",
          "type": "address"
        },
        {
          "internalType": "address",
          "name": "to",
          "type": "address"
        },
        {
          "internalType": "uint256",
          "name": "amount",
          "type": "uint256"
        }
      ],
      "name": "transferToken",
      "outputs": [],
      "stateMutability": "nonpayable",
      "type": "function"
    },
    {
      "inputs": [],
      "name": "treasury",
      "outputs": [
        {
          "internalType": "address",
          "name": "",
          "type": "address"
        }
      ],
      "stateMutability": "view",
      "type": "function"
    }
  ],
  "bytecode": "0x6101a080604052346102955761010081615619803803809161002182856102ee565b8339810103126102955761003481610325565b9061004160208201610325565b9161004e60408301610325565b9261005b60608401610325565b9160808401519461ffff8616958681036102955761007b60a08701610325565b9461009460e061008d60c08a01610325565b9801610325565b976001600160a01b0385161580156102dd575b80156102cc575b80156102bb575b61023257156102ac5760049460209460805260a0528260c05261010052610120526040519283809263c45a015560e01b825260018060a01b03165afa9081156102a1575f91610263575b5060e0526001600160a01b038116158015610252575b8015610241575b610232576101605261014052610180526040516152df908161033a823960805181818161022b0152818161205b0152818161297a01528181612d28015281816144a401526147e6015260a05181818161094d01528181612a0401528181612dbf0152612df9015260c05181818161080101528181610d470152818161159201528181611803015281816121a9015281816127cd015281816130510152818161378601528181613a6e0152615075015260e05181818161050e01526126c60152610100518181816105d40152614af501526101205181818161059b015261228201526101405181818161041b01526142da015261016051818181610991015261443301526101805181818161055201526147ac0152f35b63d92e233d60e01b5f5260045ffd5b506001600160a01b0383161561011c565b506001600160a01b03821615610115565b90506020813d602011610299575b8161027e602093836102ee565b810103126102955761028f90610325565b5f6100ff565b5f80fd5b3d9150610271565b6040513d5f823e3d90fd5b637c946ed760e01b5f5260045ffd5b506001600160a01b038216156100b5565b506001600160a01b038416156100ae565b506001600160a01b038616156100a7565b601f909101601f19168101906001600160401b0382119082101761031157604052565b634e487b7160e01b5f52604160045260245ffd5b51906001600160a01b03821682036102955756fe60806040526004361015610011575f80fd5b5f3560e01c806231d1151461020357806310023343146101fe57806313750946146101f9578063150b7a02146101f4578063158274a5146101ef57806317a68dd8146101ea5780631d5f45f5146101e557806320518ef8146101e05780632b8e0666146101db578063411d3b03146101d6578063576cb942146101d15780635ed589ae146101cc57806361d027b3146101c757806368d7e15e146101c257806371d4dfbb146101bd5780637c9e639f146101b85780638beb03ec146101b35780638c04166f146101ae5780638da5cb5b146101a95780639a739b50146101a45780639dbaef5e1461019f578063a6f9dae11461019a578063aeb2d71114610195578063c23e78a614610190578063c6a6bf081461018b578063da8dca6014610186578063e6935e3214610181578063f3e4097c1461017c578063f5537ede14610177578063fd967f47146101725763ffa1ad741461016d575f80fd5b6119b5565b611975565b611832565b6117ee565b6117b4565b611722565b611461565b611348565b61132c565b6112a6565b611107565b610fd5565b610fae565b610f8b565b610b80565b610b42565b610a07565b61097c565b610938565b61073e565b610603565b6105bf565b610581565b61053d565b6104f9565b61044a565b610406565b61038e565b6102ea565b61026b565b610216565b5f91031261021257565b5f80fd5b34610212575f366003190112610212576040517f00000000000000000000000000000000000000000000000000000000000000006001600160a01b03168152602090f35b6001600160a01b0381160361021257565b34610212576020366003190112610212576004356102888161025a565b60018060a01b03165f526001602052602060405f2054604051908152f35b6004359061ffff8216820361021257565b6044359061ffff8216820361021257565b6064359061ffff8216820361021257565b6084359061ffff8216820361021257565b34610212576020366003190112610212576103036102a6565b5f546001600160a01b03166103805761ffff8116908115610371576127108211610358575f805461ffff60a01b191660a09290921b61ffff60a01b169190911790555f80546001600160a01b03191633179055005b50637ae5968560e01b5f5260045261271060245260445ffd5b637c946ed760e01b5f5260045ffd5b62dc149f60e41b5f5260045ffd5b34610212576080366003190112610212576103aa60043561025a565b6103b560243561025a565b6064356001600160401b03811161021257366023820112156102125780600401356001600160401b038111610212573691016024011161021257604051630a85bd0160e11b815280602081015b0390f35b34610212575f366003190112610212576040517f00000000000000000000000000000000000000000000000000000000000000006001600160a01b03168152602090f35b34610212576020366003190112610212576004356104678161025a565b5f546001600160a01b0316338190036104e357506001600160a01b0381169081156104d4577ff7d1f641b01c7d29322d281367bfc337651cbfb5a9b1c387d2132d8792d212cd557f310ba5f1d2ed074b51e2eccd052a47ae9ab7c6b800d1fca3db3999d6a592ca035f80a2005b63d92e233d60e01b5f5260045ffd5b63521eb56d60e11b5f523360045260245260445ffd5b34610212575f366003190112610212576040517f00000000000000000000000000000000000000000000000000000000000000006001600160a01b03168152602090f35b34610212575f366003190112610212576040517f00000000000000000000000000000000000000000000000000000000000000006001600160a01b03168152602090f35b34610212575f36600319011261021257602060405161ffff7f0000000000000000000000000000000000000000000000000000000000000000168152f35b34610212575f366003190112610212576040517f00000000000000000000000000000000000000000000000000000000000000006001600160a01b03168152602090f35b3461021257602036600319011261021257602061062a6004356106258161025a565b611af3565b6040516001600160a01b039091168152f35b634e487b7160e01b5f52604160045260245ffd5b90601f801991011681019081106001600160401b0382111761067157604052565b61063c565b60405190610685608083610650565b565b6040519061068560c083610650565b6040519061068560a083610650565b6040519061068561018083610650565b6001600160401b0381116106715760051b60200190565b9080601f830112156102125781356106e3816106b5565b926106f16040519485610650565b81845260208085019260051b82010192831161021257602001905b8282106107195750505090565b6020809183356107288161025a565b81520191019061070c565b8060020b0361021257565b34610212576060366003190112610212576004356001600160401b0381116102125761076e9036906004016106cc565b60243561077a81610733565b604435906107878261025a565b600160ff61079a5f5460ff9060b01c1690565b1611610929575f8054600160b11b60ff60b01b198216179091556001600160a01b0316923384900361090857906107d09161266d565b906001600160a01b038216156104d4576001600160a01b0382165f90815260016020526040902054918215610371577f00000000000000000000000000000000000000000000000000000000000000006001600160a01b031690813b15610212576040516323b872dd60e01b81523060048201526001600160a01b038416602482015260448101859052915f908390606490829084905af1908115610903575f92610894926108e9575b506001600160a01b03165f90815260016020526040902090565b5560405191829161040291906001600160a01b0316817f5a5dd07e850317c0ad52f598509348a01f97aa8b18322de3a1991cc62e10a1395f80a35f805460ff60b01b1916600160b01b17905582526020820190565b806108f7856108fd93610650565b80610208565b8561087a565b611a4f565b63521eb56d60e11b5f52336004526001600160a01b03841660245260445b5ffd5b6345f5ce8b60e11b5f5260045ffd5b34610212575f366003190112610212576040517f00000000000000000000000000000000000000000000000000000000000000006001600160a01b03168152602090f35b34610212575f366003190112610212576040517f00000000000000000000000000000000000000000000000000000000000000006001600160a01b03168152602090f35b90602080835192838152019201905f5b8181106109dd5750505090565b82518452602093840193909201916001016109d0565b906020610a049281815201906109c0565b90565b34610212576040366003190112610212576004356001600160401b03811161021257610a379036906004016106cc565b602435610a4381610733565b600160ff610a565f5460ff9060b01c1690565b1611610929575f805460ff60b01b1916600160b11b179055610a78908261266d565b6001600160a01b0381169081156104d4576001600160a01b0381165f9081526001602052604090205490811561037157610ab190611af3565b50610abb81612738565b91610ac583611cd6565b511580610b31575b610371577f1067d2405fcd4e94b326038308ad945cfd5a4ac64c9749c75f3f5e64e87d412d8385610b00610402976128ad565b50610b1060405192839283611d34565b0390a35f805460ff60b01b1916600160b01b179055604051918291826109f3565b50610b3b83611ce8565b5115610acd565b34610212575f36600319011261021257602060405167016345785d8a00008152f35b610a0493926060928252602082015281604082015201906109c0565b34610212576060366003190112610212576004356001600160401b03811161021257610bb09036906004016106cc565b602435610bbc81610733565b610bc46102b7565b90600160ff610bd85f5460ff9060b01c1690565b1611610929575f8054600160b11b60ff60b01b198216179091556001600160a01b031633819003610f6c575061ffff8216906127108211610f4f57610c1b611d59565b90610c47610c3b610c3b610c2e88611cd6565b516001600160a01b031690565b6001600160a01b031690565b6040516370a0823160e01b815230600482015290602090829060249082905afa908115610903575f91610f30575b50610c7f83611cd6565b52610c92610c3b610c3b610c2e88611ce8565b6040516370a0823160e01b815230600482015290602090829060249082905afa908115610903575f91610f01575b50610cca83611ce8565b52610cd482611cd6565b51158015610ef0575b61037157610ceb908561266d565b926001600160a01b0384169283156104d457610edf575b506001600160a01b0383165f90815260016020526040902054928315610371575f92610d2d82611af3565b50610d40610c3b610c3b610c2e89611cd6565b6020610da47f000000000000000000000000000000000000000000000000000000000000000092610d7087611cd6565b5160405163095ea7b360e01b81526001600160a01b0386166004820152602481019190915297889283919082906044820190565b03925af190811561090357610e0c95602092610ec4575b50610dce610c3b610c3b610c2e8b611ce8565b610dd786611ce8565b5160405163095ea7b360e01b81526001600160a01b0390931660048401526024830152909586919082905f9082906044820190565b03925af191821561090357610e576001600160801b0394877fe15c55fef3b65b090ba796a6e4e407de45b966cde5ae1a7c31e658aa21c79bbb93610402988297610e97575b5061300c565b9485911697610e6581612c68565b50610e768960405193849384611d9f565b0390a35f805460ff60b01b1916600160b01b17905560405193849384610b64565b610eb89060203d602011610ebd575b610eb08183610650565b810190611d8a565b610e51565b503d610ea6565b610eda90833d8511610ebd57610eb08183610650565b610dbb565b610eea915084612aa0565b5f610d02565b50610efa82611ce8565b5115610cdd565b610f23915060203d602011610f29575b610f1b8183610650565b810190611d7b565b5f610cc0565b503d610f11565b610f49915060203d602011610f2957610f1b8183610650565b5f610c75565b637ae5968560e01b5f5261ffff831660045261271060245260445ffd5b63521eb56d60e11b5f52336004526001600160a01b031660245260445ffd5b34610212575f36600319011261021257602061ffff5f5460a01c16604051908152f35b34610212575f366003190112610212575f546040516001600160a01b039091168152602090f35b346102125760203660031901126102125761102d5f600435610ff68161025a565b610ffe611d59565b9061101261100b83611cd6565b6107089052565b604051808095819463883bdbfd60e01b835260048301611ed4565b03916001600160a01b03165afa9081156109035761108761107c6110929361108d935f916110bf575b5061107661106961107061106984611ce8565b5160060b90565b92611cd6565b90611f13565b6107089060060b0590565b60020b90565b613381565b6110a56001600160a01b03821680612523565b604080519182526001600160a01b03929092166020820152f35b6110db91503d805f833e6110d38183610650565b810190611e34565b505f611056565b6001600160801b03610a049493606093835216602082015281604082015201906109c0565b34610212576080366003190112610212576004356001600160401b038111610212576111379036906004016106cc565b60243561114381610733565b61114b6102b7565b906111546102c8565b600160ff6111675f5460ff9060b01c1690565b1611610929575f8054600160b11b60ff60b01b198216179091556001600160a01b031633819003610f6c575061ffff831680156103715761271010610f4f5761ffff8116916127108311611289576111bf908561266d565b6001600160a01b03811680156104d4576001600160a01b0382165f9081526001602052604090205494851561037157610402946112297f1b90ebd5d3d4dd7c68b649282ffd9979554410f39f6979e094c42fcd95f4195d9288866112238298611af3565b50613a42565b509761123485612738565b958692611278575b5061124681612c68565b506112578960405193849384611f4c565b0390a35f805460ff60b01b1916600160b01b179055604051938493846110e2565b6112829082612aa0565b505f61123c565b637ae5968560e01b5f5261ffff821660045261271060245260445ffd5b34610212576020366003190112610212576004356112c38161025a565b5f546001600160a01b0316338190036104e357506001600160a01b0381169081156104d4575f80546001600160a01b0319166001600160a01b039092169190911790557f4ffd725fc4a22075e9ec71c59edf9c38cdeb588a91b24fc5b61388c5be41282b5f80a2005b34610212575f3660031901126102125760206040516107088152f35b34610212576020366003190112610212576113616102a6565b5f546001600160a01b0381163303610f6c575061ffff8116801561037157612710106113d4575f805461ffff60a01b191660a083901b61ffff60a01b1617905560405161ffff90911681527f9c922f6d0c990b250e9dd0a427a5c8da7f44b960f697fecb31cbbd8ba79ec8c290602090a1005b637ae5968560e01b5f5261ffff1660045261271060245260445ffd5b9080601f83011215610212578135611407816106b5565b926114156040519485610650565b81845260208085019260051b82010192831161021257602001905b82821061143d5750505090565b60208091833561144c81610733565b815201910190611430565b8015150361021257565b34610212576080366003190112610212576004356001600160401b038111610212576114919036906004016106cc565b6024359061149e82610733565b6044356001600160401b038111610212576114bd9036906004016113f0565b906064356114ca81611457565b600160ff6114dd5f5460ff9060b01c1690565b1611610929575f8054600160b11b60ff60b01b198216179091556001600160a01b031633819003610f6c5750611513848361266d565b936001600160a01b03851680156104d4576001600160a01b0386165f908152600160205260409020549384156103715761156161154f88611af3565b9561155a818a61375e565b5050612738565b9061156b82611cd6565b51158015611711575b610371575f61158b610c3b610c3b610c2e85611cd6565b60206115ef7f0000000000000000000000000000000000000000000000000000000000000000926115bb87611cd6565b5160405163095ea7b360e01b81526001600160a01b0386166004820152602481019190915294859283919082906044820190565b03925af190811561090357611657926020926116f6575b50611619610c3b610c3b610c2e87611ce8565b61162286611ce8565b5160405163095ea7b360e01b81526001600160a01b0390931660048401526024830152909283919082905f9082906044820190565b03925af18015610903576116c19861040298611257977f7813911cc448a87b948882351b0095d3deb410aa6f7e32c37f22abdf1d5b03ee966116a1958b956116d9575b5086613d10565b9682809a89959498939c60018060a01b03165f52600160205260405f2090565b556116cb83612c68565b508a60405194859485611f85565b6116f19060203d602011610ebd57610eb08183610650565b61169a565b61170c90833d8511610ebd57610eb08183610650565b611606565b5061171b82611ce8565b5115611574565b346102125760c0366003190112610212576004356001600160401b038111610212576117529036906004016106cc565b6044359061175f82610733565b606435906001600160401b03821161021257610402926117866117a59336906004016113f0565b61178e6102d9565b9160a4359361179c85611457565b60243590612008565b60409391935193849384610b64565b34610212575f3660031901126102125760206040517ff7d1f641b01c7d29322d281367bfc337651cbfb5a9b1c387d2132d8792d212cd8152f35b34610212575f366003190112610212576040517f00000000000000000000000000000000000000000000000000000000000000006001600160a01b03168152602090f35b346102125760603660031901126102125760043561184f8161025a565b6024359061185c8261025a565b60443591600160ff6118735f5460ff9060b01c1690565b1611610929575f8054600160b11b60ff60b01b198216179091556001600160a01b031633819003610f6c57506040516370a0823160e01b81523060048201526001600160a01b0383169290602081602481875afa908115610903575f91611956575b5080851161193f57508161190e857f9c8515990fd8c61431c4ac8db9b81475f90c292a1dda77731e56c22e64fc76439461192894614721565b6040519485526001600160a01b0316939081906020820190565b0390a35f805460ff60b01b1916600160b01b179055005b637ae5968560e01b5f52600485905260245260445ffd5b61196f915060203d602011610f2957610f1b8183610650565b5f6118d5565b34610212575f3660031901126102125760206040516127108152f35b805180835260209291819084018484015e5f828201840152601f01601f1916010190565b34610212575f366003190112610212576104026040516119d6604082610650565b60058152640302e312e360dc1b6020820152604051918291602083526020830190611991565b51908160060b820361021257565b919082608091031261021257815163ffffffff811681036102125791611a32602082016119fc565b9160606040830151611a438161025a565b920151610a0481611457565b6040513d5f823e3d90fd5b634e487b7160e01b5f52601160045260245ffd5b63ffffffff6107089116019063ffffffff8211611a8757565b611a5a565b3d15611ac5573d906001600160401b0382116106715760405191611aba601f8201601f191660200184610650565b82523d5f602084013e565b606090565b91908260409103126102125760208251920151610a048161025a565b91908203918211611a8757565b611afc8161247a565b81906001600160a01b038216156103715760405163252c09d760e01b815261ffff9190911660048201526080816024816001600160a01b0388165afa801561090357611b4f915f91611c90575b50611a6e565b63ffffffff42911610611c8a57506040516309a739b560e41b602082019081526001600160a01b03841660248084019190915282525f91829190611b94604482610650565b5190305afa91611ba2611a8c565b92158015611c81575b611c495750611bc682602080611bd895518301019101611aca565b9290916001600160a01b031680612523565b5f9180611c13575b505067016345785d8a00008111611bf5575090565b637ae5968560e01b5f5260045267016345785d8a000060245260445ffd5b90915080821115611c3757611c2b81611c3093611ae6565b61258f565b5f80611be0565b611c2b611c449282611ae6565b611c30565b9150600161ffff611c59846124c6565b161115611c7c57636c27a2ef60e01b5f526001600160a01b03821660045260245ffd5b905090565b50825115611bab565b91505090565b611cb2915060803d608011611cbb575b611caa8183610650565b810190611a0a565b5050505f611b49565b503d611ca0565b634e487b7160e01b5f52603260045260245ffd5b805115611ce35760200190565b611cc2565b805160011015611ce35760400190565b90602080835192838152019201905f5b818110611d155750505090565b82516001600160a01b0316845260209384019390920191600101611d08565b9091611d4b610a0493604084526040840190611cf8565b9160208184039101526109c0565b60405160609190611d6a8382610650565b6002815291601f1901366020840137565b90816020910312610212575190565b908160209103126102125751610a0481611457565b939291611dc890611dba604093606088526060880190611cf8565b9086820360208801526109c0565b930152565b9080601f83011215610212578151611de4816106b5565b92611df26040519485610650565b81845260208085019260051b82010192831161021257602001905b828210611e1a5750505090565b602080918351611e298161025a565b815201910190611e0d565b9190916040818403126102125780516001600160401b03811161021257810183601f8201121561021257805190611e6a826106b5565b91611e786040519384610650565b80835260208084019160051b8301019186831161021257602001905b828210611ebc575050509260208201516001600160401b03811161021257610a049201611dcd565b60208091611ec9846119fc565b815201910190611e94565b60206040818301928281528451809452019201905f5b818110611ef75750505090565b825163ffffffff16845260209384019390920191600101611eea565b600691820b910b0390667fffffffffffff198212667fffffffffffff831317611a8757565b634e487b7160e01b5f52601260045260245ffd5b91611f7e6001600160801b0391611f70604094979697606087526060870190611cf8565b9085820360208701526109c0565b9416910152565b92949390611fa9606093611dba6001600160801b0393608088526080880190611cf8565b951660408401521515910152565b90611fcf602091949394604084526040840190611cf8565b6001600160a01b03909416910152565b92949390606092611f70611ffb92608087526080870190611cf8565b9460408401521515910152565b919592949394600160ff6120215f5460ff9060b01c1690565b1611610929575f8054600160b11b60ff60b01b198216179091556001600160a01b031633819003610f6c5750612059610c2e84611cd6565b7f0000000000000000000000000000000000000000000000000000000000000000906001600160a01b0380831691168114159081612461575b5061243f575061ffff86169161271083116124225780612411575b506120b6611d59565b966120c9610c3b610c3b610c2e87611cd6565b6040516370a0823160e01b815230600482015290602090829060249082905afa908115610903575f916123f2575b5061210189611cd6565b52612114610c3b610c3b610c2e87611ce8565b6040516370a0823160e01b815230600482015290602090829060249082905afa908115610903575f916123d3575b5061214c89611ce8565b5261215688611cd6565b511580156123c2575b6103715761216d818561266d565b966001600160a01b0388169384156104d4576123af575b5061218e87611af3565b975f6121a2610c3b610c3b610c2e89611cd6565b60206121d27f0000000000000000000000000000000000000000000000000000000000000000926115bb86611cd6565b03925af19081156109035761220592602092612394575b506121fc610c3b610c3b610c2e8b611ce8565b61162285611ce8565b03925af1801561090357612377575b506001600160a01b0388165f908152600160205260409020548061232c5750918697986001600160801b03979261224b9487613d10565b6001600160a01b039098165f908152600160205260409020919795169590879055813b15610212576040516332148f6760e01b81527f000000000000000000000000000000000000000000000000000000000000000061ffff1660048201525f8160248183875af1938415610903576123017f03ca5127eb77f929178f431496644068e99b6c9fab4180fa7ef7b19866d4918d9388938b97612318575b505b6122f383612c68565b508960405194859485611fdf565b0390a35f805460ff60b01b1916600160b01b179055565b806108f75f61232693610650565b5f6122e8565b98507f03ca5127eb77f929178f431496644068e99b6c9fab4180fa7ef7b19866d4918d925061230191509361236c8995866001600160801b03999a61300c565b9716978792906122ea565b61238f9060203d602011610ebd57610eb08183610650565b612214565b6123aa90833d8511610ebd57610eb08183610650565b6121e9565b6123bb91985084612aa0565b965f612184565b506123cc88611ce8565b511561215f565b6123ec915060203d602011610f2957610f1b8183610650565b5f612142565b61240b915060203d602011610f2957610f1b8183610650565b5f6120f7565b61241b90846142b8565b505f6120ad565b637ae5968560e01b5f5261ffff871660045261271060245260445ffd5b604051638c4fbbdd60e01b815290819061245d908660048401611fb7565b0390fd5b9050612472610c3b610c2e87611ce8565b14155f612092565b5f915f8080936040516020810190633850c7bd60e01b8252600481526124a1602482610650565b51915afa6124ad611a8c565b906124b55750565b925090506060602083015192015190565b905f8080936040516020810190633850c7bd60e01b8252600481526124ec602482610650565b51915afa6124f8611a8c565b906125005750565b608001519150565b8015612514575f190490565b611f38565b8115612514570490565b905f19818309908083029283808410930392808403931461258157600160401b8310156125645790600160401b910990828211900360c01b910360401c1790565b630c740aef60e31b5f52600452602452600160401b60445260645ffd5b50600160401b929150500490565b5f19670de0b6b3a7640000820991670de0b6b3a7640000820291828085109403938085039414612641578184101561262057670de0b6b3a7640000829109600182190182168092046002816003021880820260020302808202600203028082026002030280820260020302808202600203028091026002030293600183805f03040190848311900302920304170290565b630c740aef60e31b5f52600452670de0b6b3a764000060245260445260645ffd5b5090610a049250612519565b51906106858261025a565b908160209103126102125751610a048161025a565b805115611ce35760209061268c60018060a01b03838301511691611ce8565b516040516328af8d0b60e01b81526001600160a01b039283166004820152908216602482015260029390930b6044840152829060649082907f0000000000000000000000000000000000000000000000000000000000000000165afa908115610903575f916126f9575090565b610a04915060203d60201161271b575b6127138183610650565b810190612658565b503d612709565b9190826040910312610212576020825192015190565b90612741610676565b828152306020820152916001600160801b0360408401526001600160801b0360608401526127c86040612772611d59565b815163fc6f786560e01b81528651600482015260208701516001600160a01b0316602482015260408701516001600160801b03908116604483015260609097015190961660648701529491829081906084820190565b03815f7f00000000000000000000000000000000000000000000000000000000000000006001600160a01b03165af18015610903575f915f91612851575b5061281085611ce8565b5261281a84611cd6565b526040517fa8adaa6e9ed8eb83f230d6c9cf818002d8045e3524e33d026d47fc6fd255a0ef33918061284c87826109f3565b0390a3565b9050612875915060403d60401161287b575b61286d8183610650565b810190612722565b5f612806565b503d612863565b906127108202918083046127101490151715611a8757565b81810292918115918404141715611a8757565b906128b6611d59565b916128bf611d59565b906128d2610c3b610c3b610c2e84611cd6565b6040516370a0823160e01b815230600482015290602090829060249082905afa908115610903575f91612a81575b5061290a83611cd6565b5261291d610c3b610c3b610c2e84611ce8565b6040516370a0823160e01b815230600482015290602090829060249082905afa908115610903575f91612a62575b5061295583611ce8565b525f51602061528a5f395f51905f52612970610c2e83611cd6565b6001600160a01b037f000000000000000000000000000000000000000000000000000000000000000081169391168303612a3c57610c2e6129b091611ce8565b6129c36129bc85611cd6565b5194611ce8565b51905b84612a2e575b816129fe575b6040805195865260208601929092526001918501919091526001600160a01b031692806060810161284c565b612a29827f000000000000000000000000000000000000000000000000000000000000000083614721565b6129d2565b612a3785614795565b6129cc565b610c2e612a4891611cd6565b612a5b612a5485611ce8565b5194611cd6565b51906129c6565b612a7b915060203d602011610f2957610f1b8183610650565b5f61294b565b612a9a915060203d602011610f2957610f1b8183610650565b5f612900565b9190612aaa611d59565b92612ab3611d59565b91612ac6610c3b610c3b610c2e85611cd6565b6040516370a0823160e01b815230600482015290602090829060249082905afa908115610903575f91612c49575b50612afe84611cd6565b52612b11610c3b610c3b610c2e85611ce8565b6040516370a0823160e01b81523060048201529190602090839060249082905afa80156109035761ffff925f91612c2a575b50612b4d85611ce8565b52166127108110612b74575b505f51602061528a5f395f51905f52612970610c2e83611cd6565b612bb9612bd491612b8485611cd6565b51612b8e88611cd6565b52612b9885611ce8565b51612ba288611ce8565b52612bc1612bb982612bb388611cd6565b5161289a565b612710900490565b612bca86611cd6565b52612bb385611ce8565b612bdd83611ce8565b52612bfa612bea83611cd6565b51612bf486611cd6565b51611ae6565b612c0385611cd6565b52612c1a612c1083611ce8565b51612bf486611ce8565b612c2385611ce8565b525f612b59565b612c43915060203d602011610f2957610f1b8183610650565b5f612b43565b612c62915060203d602011610f2957610f1b8183610650565b5f612af4565b905f612c72611d59565b92612c7b611d59565b91612c8e610c3b610c3b610c2e85611cd6565b6040516370a0823160e01b815230600482015290602090829060249082905afa908115610903575f91612ec0575b50612cc684611cd6565b52612cd9610c3b610c3b610c2e85611ce8565b6040516370a0823160e01b815230600482015290602090829060249082905afa908115610903575f91612ea1575b50612d1184611ce8565b52612d1e610c2e83611cd6565b6001600160a01b037f000000000000000000000000000000000000000000000000000000000000000081169391168303612e8157610c2e612d5e91611ce8565b90612d6b6129bc85611cd6565b51905b84612de9575b9161284c5f51602061528a5f395f51905f529383612db9575b6040805197885260208801949094521515928601929092526001600160a01b0316939081906060820190565b612de4847f000000000000000000000000000000000000000000000000000000000000000085614721565b612d8d565b5060405163a9059cbb60e01b81527f00000000000000000000000000000000000000000000000000000000000000006001600160a01b0316600482015260248101859052915f60208460448184895af1908115610903575f51602061528a5f395f51905f529461284c92612e62575b5091935050612d74565b612e7a9060203d602011610ebd57610eb08183610650565b505f612e58565b610c2e612e8d91611cd6565b90612e9a612a5485611ce8565b5190612d6e565b612eba915060203d602011610f2957610f1b8183610650565b5f612d07565b612ed9915060203d602011610f2957610f1b8183610650565b5f612cbc565b519062ffffff8216820361021257565b519061068582610733565b51906001600160801b038216820361021257565b9190826101809103126102125781516bffffffffffffffffffffffff811681036102125791612f3f6020820161264d565b91612f4c6040830161264d565b91612f596060820161264d565b91612f6660808301612edf565b91612f7360a08201612eef565b91612f8060c08301612eef565b91612f8d60e08201612efa565b916101008201519161012081015191610a04610160612faf6101408501612efa565b9301612efa565b61ffff16612710039061ffff8211611a8757565b9081606091031261021257612fde81612efa565b916040602083015192015190565b906001600160801b03611f7e6020929594956040855260408501906109c0565b6130189093919361247a565b50926001600160a01b0384161561037157613031611d59565b60405163133f757160e31b81526004810183905290946001600160a01b037f0000000000000000000000000000000000000000000000000000000000000000169161018081602481865afa908115610903576130af915f915f9161333f575b506130a69061309e8a611ce8565b9060020b9052565b61309e88611cd6565b6131036130fa61108d6130d66130c3611d59565b996130f56130dd61108d6130d684611cd6565b5160020b90565b6130e68d611cd6565b6001600160a01b039091169052565b611ce8565b6130e688611ce8565b61313a613112610c2e88611cd6565b61311e610c2e89611ce8565b61312788611cd6565b519061313289611ce8565b519285614838565b916001600160801b03831615610371576131746060936132a8938961316e610c2e613168610c2e5f9e611cd6565b92611ce8565b916148ce565b61317d88611ce8565b5261318787611cd6565b52613190611d59565b6131f0612bb961319f89611cd6565b516131d0612bb96131b68d5461ffff9060a01c1690565b926131ca6131c385612fb6565b61ffff1690565b9061289a565b6131d985611cd6565b526131ca6131c36131e98c611ce8565b5192612fb6565b6131f982611ce8565b5261320d61320688611cd6565b5197611ce8565b519061322261321b82611cd6565b5191611ce8565b519161322c610687565b98878a5260208a015260408901528488015260808701524260a0870152613251611d59565b6040805163219f5d1760e01b81528851600482015260208901516024820152908801516044820152606088015160648201526080880151608482015260a09097015160a488015295968792839190829060c4820190565b03925af1938415610903575f945f915f91613309575b506132c885611ce8565b526132d284611cd6565b526040517f61af548eb75e98ecb157785dbccce83e81ce0ab337310f7f8491e4cf5b9777029080613304878783612fec565b0390a2565b91505061332f91945060603d606011613338575b6133278183610650565b810190612fca565b9194915f6132be565b503d61331d565b6130a6925061336691506101803d811161337a575b61335e8183610650565b810190612f0e565b505050505096955093505050509190613090565b503d613354565b60020b5f8112156136f857805f03905b620d89e882116136e95760018216156136d7576001600160881b036ffffcb933bd6fad37aa2d162d1a5940015b1691600281166136bb575b6004811661369f575b60088116613683575b60108116613667575b6020811661364b575b6040811661362f575b60808116613613575b61010081166135f7575b61020081166135db575b61040081166135bf575b61080081166135a3575b6110008116613587575b612000811661356b575b614000811661354f575b6180008116613533575b620100008116613517575b6202000081166134fc575b6204000081166134e1575b62080000166134c8575b5f126134ba575b61349861348e8260201c90565b9163ffffffff1690565b6134b2575f905b60ff91909116016001600160a01b031690565b60019061349f565b6134c390612508565b613481565b6b048a170391f7dc42444e8fa290910260801c9061347a565b6d2216e584f5fa1ea926041bedfe9890920260801c91613470565b916e5d6af8dedb81196699c329225ee6040260801c91613465565b916f09aa508b5b7a84e1c677de54f3e99bc90260801c9161345a565b916f31be135f97d08fd981231505542fcfa60260801c9161344f565b916f70d869a156d2a1b890bb3df62baf32f70260801c91613445565b916fa9f746462d870fdf8a65dc1f90e061e50260801c9161343b565b916fd097f3bdfd2022b8845ad8f792aa58250260801c91613431565b916fe7159475a2c29b7443b29c7fa6e889d90260801c91613427565b916ff3392b0822b70005940c7a398e4b70f30260801c9161341d565b916ff987a7253ac413176f2b074cf7815e540260801c91613413565b916ffcbe86c7900a88aedcffc83b479aa3a40260801c91613409565b916ffe5dee046a99a2a811c461f1969c30530260801c916133ff565b916fff2ea16466c96a3843ec78b326b528610260801c916133f6565b916fff973b41fa98c081472e6896dfb254c00260801c916133ed565b916fffcb9843d60f6159c9db58835c9266440260801c916133e4565b916fffe5caca7e10e4e61c3624eaa0941cd00260801c916133db565b916ffff2e50f5f656932ef12357cf3c7fdcc0260801c916133d2565b916ffff97272373d413259a46990580e213a0260801c916133c9565b6001600160881b03600160801b6133be565b6315e4079d60e11b5f5260045ffd5b80613391565b906001600160801b03809116911602906001600160801b038216918203611a8757565b91909160808060a0830194805184526001600160801b03602082015116602085015260408101516040850152606081015160608501520151910152565b91613767611d59565b60405163133f757160e31b815260048101849052936001600160a01b037f00000000000000000000000000000000000000000000000000000000000000001693919061018086602481885afa908115610903575f5f975f93613a0a575b506137e0906137d7849961309e87611ce8565b61309e85611cd6565b6001600160801b03821615610371576137f89061247a565b506001600160a01b0381161561037157613810611d59565b9261381a81611cd6565b5160020b61382790613381565b61383085611cd6565b6001600160a01b03909116905261384690611ce8565b5160020b61385390613381565b61385c84611ce8565b6001600160a01b03909116905281613872611d59565b9361387c81611cd6565b516001600160a01b03169061389090611ce8565b516001600160a01b0316906138a4936148ce565b6138ad84611ce8565b526138b783611cd6565b526138c182611cd6565b515f5460a01c61ffff16906138d582612fb6565b61ffff166138e29161289a565b61271090046138f084611cd6565b526138fa83611ce8565b519061390590612fb6565b61ffff166139129161289a565b612710900461392083611ce8565b5261392a82611cd6565b519161393590611ce8565b5161393e610696565b8481526001600160801b03831660208201529260408401526060830152426080830152613969611d59565b94604051808094630624e65f60e11b8252600482019061398891613721565b03815a6040945f91f1908115610903577f2e47e1549fbf24d9b7681340609af439f792e376b42a56d389131e2587cba0aa92613304925f915f916139e9575b506139d188611ce8565b526139db87611cd6565b526040519182918783612fec565b9050613a04915060403d60401161287b5761286d8183610650565b5f6139c7565b9050613a2b9197506137e092506101803d811161337a5761335e8183610650565b505050509c965096945092505050929792906137c4565b919290613a4d611d59565b60405163133f757160e31b8152600481018390529490936001600160a01b037f0000000000000000000000000000000000000000000000000000000000000000169161018087602481865afa908115610903575f5f985f93613cba575b50613ac690613abd849a61309e8b611ce8565b61309e89611cd6565b6001600160801b038216156103715761ffff16906127108210613c91575b50506001600160801b0386161561037157613afe9061247a565b506001600160a01b0381161561037157613c185f92613b7088604094613b55613b4c61108d6130d66130f59d613b32611d59565b9e8f6130e6613b4661108d6130d686611cd6565b91611cd6565b6130e68c611ce8565b613b5d611d59565b9961316e610c2e613168610c2e84611cd6565b613b7989611ce8565b52613b8388611cd6565b52613bb3612bb9613b9389611cd6565b51613baa612bb96131b6895461ffff9060a01c1690565b6131d98b611cd6565b613bbc88611ce8565b52613bc961320688611cd6565b51613bd2610696565b8681526001600160801b038a16602082015297848901526060880152426080880152613bfc611d59565b968351948580948193630624e65f60e11b835260048301613721565b03925af18015610903575f915f91613c70575b50613c3585611ce8565b52613c3f84611cd6565b527f2e47e1549fbf24d9b7681340609af439f792e376b42a56d389131e2587cba0aa60405180613304878783612fec565b9050613c8b915060403d60401161287b5761286d8183610650565b5f613c2b565b613cb292975090613ca1916136fe565b6001600160801b0361271091160490565b945f80613ae4565b9050613cdb919850613ac692506101803d811161337a5761335e8183610650565b505050509d96509694509250505092989290613aaa565b9060020b9060020b0190627fffff198212627fffff831317611a8757565b6001600160a01b038416969594939291906401000276a388101580614093575b1561408457613d3f8860201b90565b806001600160801b03811160071b90811c6001600160401b03811160061b90811c63ffffffff811160051b90811c61ffff811160041b90811c9060ff821160031b91821c92600f841160021b93841c94600160038711811b96871c1196171717171717179060808210155f1461407957607e1982011c905b607f190160401b90800280607f1c8160ff1c1c800280607f1c8160ff1c1c800280607f1c8160ff1c1c800280607f1c8160ff1c1c800280607f1c8160ff1c1c800280607f1c8160ff1c1c80029081607f1c8260ff1c1c80029283607f1c8460ff1c1c80029485607f1c8660ff1c1c80029687607f1c8860ff1c1c80029889607f1c8a60ff1c1c80029a8b607f1c8c60ff1c1c80029c8d80607f1c9060ff1c1c800260cd1c6604000000000000169d60cc1c6608000000000000169c60cb1c6610000000000000169b60ca1c6620000000000000169a60c91c6640000000000000169960c81c6680000000000000169860c71c670100000000000000169760c61c670200000000000000169660c51c670400000000000000169560c41c670800000000000000169460c31c671000000000000000169360c21c672000000000000000169260c11c674000000000000000169160c01c678000000000000000161717171717171717171717171717693627a301d71055774c85026f028f6481ab7f045a5af012a19d003aa9198101613f4d9060801d90565b60020b906fdb2df09e81959a81455e260799a0632f0160801d60020b988960020b8260020b145f146130d69a613fc993613fc093613fba93614057575090509a8b985b6130f5613fb1613f9e611d59565b9b613fab6130d685611cd6565b90613cf2565b61309e8c611cd6565b8a613cf2565b61309e87611ce8565b613fd56130d686611cd6565b8860020b809160020b129081159161403e575b50613fff57613ff8969750614abf565b9192909190565b610926858961401c6130d66140166130d685611cd6565b93611ce8565b639eb241a760e01b5f52600292830b60045290820b602452900b604452606490565b905061404f6110876130d688611ce8565b13155f613fe8565b614063610c3b84613381565b1161407257505b9a8b98613f90565b905061406a565b81607f031b90613db7565b6324c070df60e11b5f5260045ffd5b5073fffd8963efd1fc6a506488495d951d5263988d268810613d30565b919082604091031261021257602082516140c98161025a565b92015160038110156102125790565b9080601f830112156102125781516140ef816106b5565b926140fd6040519485610650565b81845260208085019260051b82010192831161021257602001905b8282106141255750505090565b8151815260209182019101614118565b90916060828403126102125781516001600160401b03811161021257820183601f820112156102125780519061416a826106b5565b916141786040519384610650565b80835260208084019160051b8301019186831161021257602001905b8282106141c6575050509260208301516001600160401b038111610212576040916141c09185016140d8565b92015190565b6020809183516141d58161025a565b815201910190614194565b90916141f7610a0493604084526040840190611cf8565b916020818403910152611cf8565b929190835260018060a01b0316602083015260018060a01b031660408201526080606082015261010081018251906080808401528151809152602061012084019201905f5b818110614299575050509060e0606061428f614279610a04956020880151607f198783030160a08801526109c0565b6040870151858203607f190160c0870152611991565b9401511515910152565b82516001600160a01b031684526020938401939092019160010161424a565b6040805163f6c0092760e01b8152600481018490529193926001600160a01b037f00000000000000000000000000000000000000000000000000000000000000001692909181602481865afa908115610903575f916146f1575b506040516370a0823160e01b81523060048201526001600160a01b03919091169490602081602481895afa908115610903575f916146d2575b5080156103715761435a611d59565b50604051631f29a8cd60e31b815260048101849052955f87602481885afa918215610903575f975f936146a7575b508297614397610c2e82611cd6565b6143a6610c3b610c2e88611cd6565b6001600160a01b0390911614801590614679575b61465b57506143c883611cd6565b5115801561464a575b6103715760049260206143e2611d59565b93604051958680926318160ddd60e01b82525afa938415610903575f94614625575b508061441561321b61441c93611cd6565b519061289a565b6040516305ecd00360e01b815291906020836004817f00000000000000000000000000000000000000000000000000000000000000006001600160a01b03165afa9485156109035761451f61453b614541936131ca6131c36145356144f26145669c8e6145749c5f926145fc575b50610c2e61449791611cd6565b6001600160a01b039081167f0000000000000000000000000000000000000000000000000000000000000000909116036145dc576144df816144e46144df6144ea948a614c94565b614cb5565b97614c6b565b945b8a61289a565b936145256145166145095f5461ffff9060a01c1690565b966131ca6131c389612fb6565b61451f8a612882565b90612519565b61452e8d611cd6565b528961289a565b92612fb6565b91612882565b61454a84611ce8565b5260405193849160208301919060206040840193600181520152565b03601f198101845283610650565b61457c610676565b928352602083015260408201525f6060820152823b15610212576145bd925f9283604051809681958294638bdb391360e01b84523090309060048601614205565b03925af18015610903576145ce5750565b806108f75f61068593610650565b6144df816145f06144df6145f6948a614c6b565b97614c94565b946144ec565b61449791925061461d610c2e9160203d602011610f2957610f1b8183610650565b92915061448a565b61441c9194506146439060203d602011610f2957610f1b8183610650565b9390614404565b5061465483611ce8565b51156143d1565b604051630d0218ff60e31b815290819061245d9087600484016141e0565b50614686610c2e82611ce8565b614695610c3b610c2e88611ce8565b6001600160a01b0390911614156143ba565b9092506146c79197503d805f833e6146bf8183610650565b810190614135565b50969096915f614388565b6146eb915060203d602011610f2957610f1b8183610650565b5f61434b565b614713915060403d60401161471a575b61470b8183610650565b8101906140b0565b505f614312565b503d614701565b91906040519263a9059cbb60e01b5f52816004528260245260205f60448180855af13d15601f3d1160015f51141617165f60605284604052156147645750505050565b63abae3d6d60e01b84526001600160a01b039081166004850152306024850152166044830152606482015260849150fd5b60405163a9059cbb60e01b81526001600160a01b037f00000000000000000000000000000000000000000000000000000000000000001660048201526024810191909152602081806044810103815f7f00000000000000000000000000000000000000000000000000000000000000006001600160a01b03165af180156109035761481d5750565b6148359060203d602011610ebd57610eb08183610650565b50565b936001600160a01b03838116908316116148c6575b6001600160a01b0385811695908316861161486e575050610a049350614db1565b919490939192906001600160a01b03821611156148ba5782916148959161489b9594614db1565b93614d77565b6001600160801b0381166001600160801b038316105f14611c7c575090565b915050610a0492614d77565b90919061484d565b9093925f929091836001600160a01b0380841690881611614947575b6001600160a01b03828116908816811161490f5750505061490c929394614e38565b91565b93945090926001600160a01b038316111561493b57509061493583610a04949383614e38565b94614dfe565b94610a04939250614dfe565b9591956148ea565b916060838303126102125782516001600160401b03811161021257830182601f8201121561021257805190614983826106b5565b916149916040519384610650565b80835260208084019160051b8301019185831161021257602001905b8282106149e257505050926149c460208201612efa565b9260408201516001600160401b03811161021257610a0492016140d8565b6020809183516149f181610733565b8152019101906149ad565b90602080835192838152019201905f5b818110614a195750505090565b825160020b845260209384019390920191600101614a0c565b93614a5c614a72936080959398979860018060a01b0316875260a0602088015260a08701906149fc565b9160020b604086015284820360608601526109c0565b931515910152565b9390614a7292608094614a9b614ab19399989960a0895260a0890190611cf8565b9160020b602088015286820360408801526149fc565b9084820360608601526149fc565b90939195928660020b1561037157825f91614af1888a986040519b8c958695634234fa2b60e01b875260048701614a32565b03817f00000000000000000000000000000000000000000000000000000000000000006001600160a01b03165afa8015610903575f965f905f92614c3c575b506001600160801b0316158015614c2b575b8015614c1a575b610371577fb3767368423a0d151c526a077a43c3ea857a69d740cb6b3135089531e40a284791613304614bf1878a7f60913d9a60356c85bc68b70b9abfce2c00ed94ffeaa12859c1764606aeee497895614ba1611d59565b90614be1612bb9614bb183611cd6565b51614bc8612bb96131b65f5461ffff9060a01c1690565b614bd186611cd6565b526131ca6131c36131e986611ce8565b614bea83611ce8565b5286614f78565b949091968599614c0b849c8a9e6040519485948a86614a7a565b0390a160405193849384611f4c565b50614c2481611ce8565b5115614b49565b50614c3581611cd6565b5115614b42565b90506001600160801b039750614c6491503d805f833e614c5c8183610650565b81019061494f565b9197614b30565b670de0b6b3a7640000810290670de0b6b3a7640000818304149015178215151615610212570490565b81810291818304149015176001161561021257670de0b6b3a7640000900490565b60b581600160881b811015614d60575b80690100000000000000000062010000921015614d53575b65010000000000811015614d46575b6301000000811015614d39575b010260121c8082040160011c8082040160011c8082040160011c8082040160011c8082040160011c8082040160011c8082040160011c8080920410900390565b60101c9160081b91614cf9565b60201c9160101b91614cec565b60401c9160201b91614cdd565b5068b500000000000000009050608082901c614cc5565b610a0492614da69290916001600160a01b0380831690821611614dab575b90036001600160a01b03169061510c565b615275565b90614d95565b610a0492614da6929091906001600160a01b0380821690831611614df8575b614de66001600160a01b038281169084166151a2565b9190036001600160a01b0316916151ea565b90614dd0565b610a0492916001600160801b03916001600160a01b0380831690821611614e32575b90036001600160a01b031691166151a2565b90614e20565b916001600160a01b0382811690841611614e96575b614e80916001600160a01b038082169291859003169060601b6fffffffffffffffffffffffffffffffff60601b166151ea565b6001600160a01b03909116908115612514570490565b909190614e4d565b919082608091031261021257815191614eb960208201612efa565b916060604083015192015190565b81516001600160a01b031681526101808101929161068591906101609081906020818101516001600160a01b03169085015260408181015160020b9085015260608181015160020b9085015260808181015160020b9085015260a0818101519085015260c0808201519085015260e080820151908501526101008082015190850152610120808201516001600160a01b031690850152610140818101519085015201516001600160a01b0316910152565b9093926080926150709694614f9b610c2e614f95610c2e87611cd6565b95611ce8565b9261502c614fb16130d66140166130d685611cd6565b615023614fbd8b611cd6565b5193615019614fcb8d611ce8565b519661500f614fe3614fdc8b611cd6565b519a611ce8565b519a614fff614ff06106a5565b6001600160a01b03909e168e52565b6001600160a01b031660208d0152565b60020b60408b0152565b60020b6060890152565b60020b86880152565b60a085015260c084015260e083015261010082015230610120820152426101408201525f6101608201526040518095819263b5007d1f60e01b835260048301614ec7565b03815f7f00000000000000000000000000000000000000000000000000000000000000006001600160a01b03165af1928315610903575f905f945f915f916150cd575b506150bd85611ce8565b526150c784611cd6565b52929190565b925050506150f491935060803d6080116150fe575b6150ec8183610650565b810190614e9e565b919492915f6150b3565b503d6150e2565b1561021257565b5f19600160601b8209918160601b91828085109403938085039414615190578190615138858311615105565b600160601b900981805f03168092046002816003021880820260020302808202600203028082026002030280820260020302808202600203028091026002030293600183805f03040190848311900302920304170290565b50915061519e821515615105565b0490565b5f1982820990828102928380841093039280840393146151e157600160601b83101561021257600160601b910990828211900360a01b910360601c1790565b50505060601c90565b90915f19838309928083029283808610950394808603951461526657908291615214868411615105565b0981805f03168092046002816003021880820260020302808202600203028082026002030280820260020302808202600203028091026002030293600183805f03040190848311900302920304170290565b5050915061519e821515615105565b906001600160801b0382169182036102125756febc4a7aed27e23b75f2aebdbea9827c2b52432a5974a1fab9d370b6608de14105a2646970667358221220bd85440c004dee012a62f889459edf9d3495becd0f08676f71530da96739c30764736f6c634300081e0033",
  "linkReferences": {},
  "deployedLinkReferences": {}
}