{
  "_format": "hh-sol-artifact-1",
  "contractName": "LiquidityManagerETH",
  "sourceName": "contracts/pol/LiquidityManagerETH.sol",
  "abi": [
    {
      "inputs": [
        {
          "internalType": "address",
          "name": "_olas",
          "type": "address"
        },
        {
          "internalType": "address",
          "name": "_treasury",
          "type": "address"
        },
        {
          "internalType": "address",
          "name": "_positionManagerV3",
          "type": "address"
        },
        {
          "internalType": "address",
          "name": "_neighborhoodScanner",
          "type": "address"
        },
        {
          "internalType": "uint16",
          "name": "_observationCardinality",
          "type": "uint16"
        },
        {
          "internalType": "address",
          "name": "_oracleV2",
          "type": "address"
        },
        {
          "internalType": "address",
          "name": "_routerV2",
          "type": "address"
        }
      ],
      "stateMutability": "nonpayable",
      "type": "constructor"
    },
    {
      "inputs": [],
      "name": "AlreadyInitialized",
      "type": "error"
    },
    {
      "inputs": [
        {
          "internalType": "address",
          "name": "pool",
          "type": "address"
        }
      ],
      "name": "ObservationFailed",
      "type": "error"
    },
    {
      "inputs": [
        {
          "internalType": "uint256",
          "name": "provided",
          "type": "uint256"
        },
        {
          "internalType": "uint256",
          "name": "max",
          "type": "uint256"
        }
      ],
      "name": "Overflow",
      "type": "error"
    },
    {
      "inputs": [
        {
          "internalType": "address",
          "name": "sender",
          "type": "address"
        },
        {
          "internalType": "address",
          "name": "owner",
          "type": "address"
        }
      ],
      "name": "OwnerOnly",
      "type": "error"
    },
    {
      "inputs": [
        {
          "internalType": "uint256",
          "name": "x",
          "type": "uint256"
        },
        {
          "internalType": "uint256",
          "name": "y",
          "type": "uint256"
        },
        {
          "internalType": "uint256",
          "name": "denominator",
          "type": "uint256"
        }
      ],
      "name": "PRBMath_MulDiv_Overflow",
      "type": "error"
    },
    {
      "inputs": [],
      "name": "R",
      "type": "error"
    },
    {
      "inputs": [
        {
          "internalType": "int24",
          "name": "low",
          "type": "int24"
        },
        {
          "internalType": "int24",
          "name": "center",
          "type": "int24"
        },
        {
          "internalType": "int24",
          "name": "high",
          "type": "int24"
        }
      ],
      "name": "RangeBounds",
      "type": "error"
    },
    {
      "inputs": [],
      "name": "ReentrancyGuard",
      "type": "error"
    },
    {
      "inputs": [],
      "name": "T",
      "type": "error"
    },
    {
      "inputs": [
        {
          "internalType": "address",
          "name": "token",
          "type": "address"
        },
        {
          "internalType": "address",
          "name": "from",
          "type": "address"
        },
        {
          "internalType": "address",
          "name": "to",
          "type": "address"
        },
        {
          "internalType": "uint256",
          "name": "value",
          "type": "uint256"
        }
      ],
      "name": "TokenTransferFailed",
      "type": "error"
    },
    {
      "inputs": [
        {
          "internalType": "int256",
          "name": "provided",
          "type": "int256"
        },
        {
          "internalType": "int256",
          "name": "min",
          "type": "int256"
        }
      ],
      "name": "Underflow",
      "type": "error"
    },
    {
      "inputs": [
        {
          "internalType": "address[]",
          "name": "provided",
          "type": "address[]"
        },
        {
          "internalType": "address",
          "name": "expected",
          "type": "address"
        }
      ],
      "name": "WrongTokenAddress",
      "type": "error"
    },
    {
      "inputs": [
        {
          "internalType": "address[]",
          "name": "provided",
          "type": "address[]"
        },
        {
          "internalType": "address[]",
          "name": "expected",
          "type": "address[]"
        }
      ],
      "name": "WrongTokenAddresses",
      "type": "error"
    },
    {
      "inputs": [],
      "name": "ZeroAddress",
      "type": "error"
    },
    {
      "inputs": [],
      "name": "ZeroValue",
      "type": "error"
    },
    {
      "anonymous": false,
      "inputs": [
        {
          "indexed": true,
          "internalType": "address",
          "name": "pool",
          "type": "address"
        },
        {
          "indexed": true,
          "internalType": "uint256",
          "name": "positionId",
          "type": "uint256"
        },
        {
          "indexed": false,
          "internalType": "address[]",
          "name": "tokens",
          "type": "address[]"
        },
        {
          "indexed": false,
          "internalType": "uint256[]",
          "name": "amounts",
          "type": "uint256[]"
        },
        {
          "indexed": false,
          "internalType": "uint256",
          "name": "liquidiy",
          "type": "uint256"
        },
        {
          "indexed": false,
          "internalType": "bool",
          "name": "scan",
          "type": "bool"
        }
      ],
      "name": "ConvertedToV3",
      "type": "event"
    },
    {
      "anonymous": false,
      "inputs": [
        {
          "indexed": true,
          "internalType": "address",
          "name": "sender",
          "type": "address"
        },
        {
          "indexed": true,
          "internalType": "uint256",
          "name": "positionId",
          "type": "uint256"
        },
        {
          "indexed": false,
          "internalType": "uint256[]",
          "name": "amounts",
          "type": "uint256[]"
        }
      ],
      "name": "FeesCollected",
      "type": "event"
    },
    {
      "anonymous": false,
      "inputs": [
        {
          "indexed": true,
          "internalType": "address",
          "name": "implementation",
          "type": "address"
        }
      ],
      "name": "ImplementationUpdated",
      "type": "event"
    },
    {
      "anonymous": false,
      "inputs": [
        {
          "indexed": true,
          "internalType": "uint256",
          "name": "positionId",
          "type": "uint256"
        },
        {
          "indexed": false,
          "internalType": "uint256[]",
          "name": "amounts",
          "type": "uint256[]"
        },
        {
          "indexed": false,
          "internalType": "uint256",
          "name": "liquidity",
          "type": "uint256"
        }
      ],
      "name": "LiquidityDecreased",
      "type": "event"
    },
    {
      "anonymous": false,
      "inputs": [
        {
          "indexed": true,
          "internalType": "uint256",
          "name": "positionId",
          "type": "uint256"
        },
        {
          "indexed": false,
          "internalType": "uint256[]",
          "name": "amounts",
          "type": "uint256[]"
        },
        {
          "indexed": false,
          "internalType": "uint256",
          "name": "liquidity",
          "type": "uint256"
        }
      ],
      "name": "LiquidityIncreased",
      "type": "event"
    },
    {
      "anonymous": false,
      "inputs": [
        {
          "indexed": false,
          "internalType": "uint256",
          "name": "maxSlippage",
          "type": "uint256"
        }
      ],
      "name": "MaxSlippageUpdated",
      "type": "event"
    },
    {
      "anonymous": false,
      "inputs": [
        {
          "indexed": true,
          "internalType": "address",
          "name": "owner",
          "type": "address"
        }
      ],
      "name": "OwnerUpdated",
      "type": "event"
    },
    {
      "anonymous": false,
      "inputs": [
        {
          "indexed": true,
          "internalType": "address",
          "name": "pool",
          "type": "address"
        },
        {
          "indexed": true,
          "internalType": "uint256",
          "name": "positionId",
          "type": "uint256"
        },
        {
          "indexed": false,
          "internalType": "address[]",
          "name": "tokens",
          "type": "address[]"
        },
        {
          "indexed": false,
          "internalType": "uint256[]",
          "name": "amounts",
          "type": "uint256[]"
        }
      ],
      "name": "PositionFeesCollected",
      "type": "event"
    },
    {
      "anonymous": false,
      "inputs": [
        {
          "indexed": true,
          "internalType": "address",
          "name": "pool",
          "type": "address"
        },
        {
          "indexed": true,
          "internalType": "uint256",
          "name": "positionId",
          "type": "uint256"
        },
        {
          "indexed": false,
          "internalType": "address[]",
          "name": "tokens",
          "type": "address[]"
        },
        {
          "indexed": false,
          "internalType": "uint256[]",
          "name": "amounts",
          "type": "uint256[]"
        },
        {
          "indexed": false,
          "internalType": "uint256",
          "name": "liquidiy",
          "type": "uint256"
        }
      ],
      "name": "PositionLiquidityDecreased",
      "type": "event"
    },
    {
      "anonymous": false,
      "inputs": [
        {
          "indexed": true,
          "internalType": "address",
          "name": "pool",
          "type": "address"
        },
        {
          "indexed": true,
          "internalType": "uint256",
          "name": "positionId",
          "type": "uint256"
        },
        {
          "indexed": false,
          "internalType": "address[]",
          "name": "tokens",
          "type": "address[]"
        },
        {
          "indexed": false,
          "internalType": "uint256[]",
          "name": "amounts",
          "type": "uint256[]"
        },
        {
          "indexed": false,
          "internalType": "uint256",
          "name": "liquidiy",
          "type": "uint256"
        }
      ],
      "name": "PositionLiquidityIncreased",
      "type": "event"
    },
    {
      "anonymous": false,
      "inputs": [
        {
          "indexed": true,
          "internalType": "uint256",
          "name": "positionId",
          "type": "uint256"
        },
        {
          "indexed": false,
          "internalType": "address[]",
          "name": "tokens",
          "type": "address[]"
        },
        {
          "indexed": false,
          "internalType": "uint256[]",
          "name": "amounts",
          "type": "uint256[]"
        },
        {
          "indexed": false,
          "internalType": "uint256",
          "name": "liquidiy",
          "type": "uint256"
        }
      ],
      "name": "PositionMinted",
      "type": "event"
    },
    {
      "anonymous": false,
      "inputs": [
        {
          "indexed": true,
          "internalType": "uint256",
          "name": "positionId",
          "type": "uint256"
        },
        {
          "indexed": true,
          "internalType": "address",
          "name": "to",
          "type": "address"
        }
      ],
      "name": "PositionTransferred",
      "type": "event"
    },
    {
      "anonymous": false,
      "inputs": [
        {
          "indexed": true,
          "internalType": "address",
          "name": "pool",
          "type": "address"
        },
        {
          "indexed": true,
          "internalType": "uint256",
          "name": "positionId",
          "type": "uint256"
        },
        {
          "indexed": false,
          "internalType": "address[]",
          "name": "tokens",
          "type": "address[]"
        },
        {
          "indexed": false,
          "internalType": "uint256[]",
          "name": "amounts",
          "type": "uint256[]"
        },
        {
          "indexed": false,
          "internalType": "uint256",
          "name": "liquidiy",
          "type": "uint256"
        },
        {
          "indexed": false,
          "internalType": "bool",
          "name": "scan",
          "type": "bool"
        }
      ],
      "name": "RangesChanged",
      "type": "event"
    },
    {
      "anonymous": false,
      "inputs": [
        {
          "indexed": false,
          "internalType": "address[]",
          "name": "tokens",
          "type": "address[]"
        },
        {
          "indexed": false,
          "internalType": "int24",
          "name": "feeTierOrTickSpacing",
          "type": "int24"
        },
        {
          "indexed": false,
          "internalType": "int24[]",
          "name": "initTicks",
          "type": "int24[]"
        },
        {
          "indexed": false,
          "internalType": "int24[]",
          "name": "optimizedTicks",
          "type": "int24[]"
        },
        {
          "indexed": false,
          "internalType": "bool",
          "name": "scan",
          "type": "bool"
        }
      ],
      "name": "TicksSet",
      "type": "event"
    },
    {
      "anonymous": false,
      "inputs": [
        {
          "indexed": true,
          "internalType": "address",
          "name": "token",
          "type": "address"
        },
        {
          "indexed": true,
          "internalType": "address",
          "name": "to",
          "type": "address"
        },
        {
          "indexed": false,
          "internalType": "uint256",
          "name": "amount",
          "type": "uint256"
        }
      ],
      "name": "TokenTransferred",
      "type": "event"
    },
    {
      "anonymous": false,
      "inputs": [
        {
          "indexed": true,
          "internalType": "address",
          "name": "olas",
          "type": "address"
        },
        {
          "indexed": true,
          "internalType": "address",
          "name": "token",
          "type": "address"
        },
        {
          "indexed": false,
          "internalType": "uint256",
          "name": "olasAmount",
          "type": "uint256"
        },
        {
          "indexed": false,
          "internalType": "uint256",
          "name": "tokenAmount",
          "type": "uint256"
        },
        {
          "indexed": false,
          "internalType": "bool",
          "name": "olasBurnOrTransfer",
          "type": "bool"
        }
      ],
      "name": "UtilityAmountsManaged",
      "type": "event"
    },
    {
      "inputs": [],
      "name": "MAX_ALLOWED_DEVIATION",
      "outputs": [
        {
          "internalType": "uint256",
          "name": "",
          "type": "uint256"
        }
      ],
      "stateMutability": "view",
      "type": "function"
    },
    {
      "inputs": [],
      "name": "MAX_BPS",
      "outputs": [
        {
          "internalType": "uint16",
          "name": "",
          "type": "uint16"
        }
      ],
      "stateMutability": "view",
      "type": "function"
    },
    {
      "inputs": [],
      "name": "PROXY_LIQUIDITY_MANAGER",
      "outputs": [
        {
          "internalType": "bytes32",
          "name": "",
          "type": "bytes32"
        }
      ],
      "stateMutability": "view",
      "type": "function"
    },
    {
      "inputs": [],
      "name": "SECONDS_AGO",
      "outputs": [
        {
          "internalType": "uint32",
          "name": "",
          "type": "uint32"
        }
      ],
      "stateMutability": "view",
      "type": "function"
    },
    {
      "inputs": [],
      "name": "VERSION",
      "outputs": [
        {
          "internalType": "string",
          "name": "",
          "type": "string"
        }
      ],
      "stateMutability": "view",
      "type": "function"
    },
    {
      "inputs": [
        {
          "internalType": "address",
          "name": "implementation",
          "type": "address"
        }
      ],
      "name": "changeImplementation",
      "outputs": [],
      "stateMutability": "nonpayable",
      "type": "function"
    },
    {
      "inputs": [
        {
          "internalType": "uint16",
          "name": "newMaxSlippage",
          "type": "uint16"
        }
      ],
      "name": "changeMaxSlippage",
      "outputs": [],
      "stateMutability": "nonpayable",
      "type": "function"
    },
    {
      "inputs": [
        {
          "internalType": "address",
          "name": "newOwner",
          "type": "address"
        }
      ],
      "name": "changeOwner",
      "outputs": [],
      "stateMutability": "nonpayable",
      "type": "function"
    },
    {
      "inputs": [
        {
          "internalType": "address[]",
          "name": "tokens",
          "type": "address[]"
        },
        {
          "internalType": "int24",
          "name": "feeTierOrTickSpacing",
          "type": "int24"
        },
        {
          "internalType": "int24[]",
          "name": "tickShifts",
          "type": "int24[]"
        },
        {
          "internalType": "bool",
          "name": "scan",
          "type": "bool"
        }
      ],
      "name": "changeRanges",
      "outputs": [
        {
          "internalType": "uint256",
          "name": "positionId",
          "type": "uint256"
        },
        {
          "internalType": "uint128",
          "name": "liquidity",
          "type": "uint128"
        },
        {
          "internalType": "uint256[]",
          "name": "amounts",
          "type": "uint256[]"
        }
      ],
      "stateMutability": "nonpayable",
      "type": "function"
    },
    {
      "inputs": [
        {
          "internalType": "address",
          "name": "pool",
          "type": "address"
        }
      ],
      "name": "checkPoolAndGetCenterPrice",
      "outputs": [
        {
          "internalType": "uint160",
          "name": "centerSqrtPriceX96",
          "type": "uint160"
        }
      ],
      "stateMutability": "view",
      "type": "function"
    },
    {
      "inputs": [
        {
          "internalType": "address[]",
          "name": "tokens",
          "type": "address[]"
        },
        {
          "internalType": "int24",
          "name": "feeTierOrTickSpacing",
          "type": "int24"
        }
      ],
      "name": "collectFees",
      "outputs": [
        {
          "internalType": "uint256[]",
          "name": "amounts",
          "type": "uint256[]"
        }
      ],
      "stateMutability": "nonpayable",
      "type": "function"
    },
    {
      "inputs": [
        {
          "internalType": "address[]",
          "name": "tokens",
          "type": "address[]"
        },
        {
          "internalType": "bytes32",
          "name": "v2Pool",
          "type": "bytes32"
        },
        {
          "internalType": "int24",
          "name": "feeTierOrTickSpacing",
          "type": "int24"
        },
        {
          "internalType": "int24[]",
          "name": "tickShifts",
          "type": "int24[]"
        },
        {
          "internalType": "uint16",
          "name": "olasBurnRate",
          "type": "uint16"
        },
        {
          "internalType": "bool",
          "name": "scan",
          "type": "bool"
        }
      ],
      "name": "convertToV3",
      "outputs": [
        {
          "internalType": "uint256",
          "name": "positionId",
          "type": "uint256"
        },
        {
          "internalType": "uint256",
          "name": "liquidity",
          "type": "uint256"
        },
        {
          "internalType": "uint256[]",
          "name": "amounts",
          "type": "uint256[]"
        }
      ],
      "stateMutability": "nonpayable",
      "type": "function"
    },
    {
      "inputs": [
        {
          "internalType": "address[]",
          "name": "tokens",
          "type": "address[]"
        },
        {
          "internalType": "int24",
          "name": "feeTierOrTickSpacing",
          "type": "int24"
        },
        {
          "internalType": "uint16",
          "name": "decreaseRate",
          "type": "uint16"
        },
        {
          "internalType": "uint16",
          "name": "olasBurnRate",
          "type": "uint16"
        }
      ],
      "name": "decreaseLiquidity",
      "outputs": [
        {
          "internalType": "uint256",
          "name": "positionId",
          "type": "uint256"
        },
        {
          "internalType": "uint128",
          "name": "liquidity",
          "type": "uint128"
        },
        {
          "internalType": "uint256[]",
          "name": "amounts",
          "type": "uint256[]"
        }
      ],
      "stateMutability": "nonpayable",
      "type": "function"
    },
    {
      "inputs": [],
      "name": "factoryV3",
      "outputs": [
        {
          "internalType": "address",
          "name": "",
          "type": "address"
        }
      ],
      "stateMutability": "view",
      "type": "function"
    },
    {
      "inputs": [
        {
          "internalType": "address",
          "name": "pool",
          "type": "address"
        }
      ],
      "name": "getTwapFromOracle",
      "outputs": [
        {
          "internalType": "uint256",
          "name": "price",
          "type": "uint256"
        },
        {
          "internalType": "uint160",
          "name": "centerSqrtPriceX96",
          "type": "uint160"
        }
      ],
      "stateMutability": "view",
      "type": "function"
    },
    {
      "inputs": [
        {
          "internalType": "address[]",
          "name": "tokens",
          "type": "address[]"
        },
        {
          "internalType": "int24",
          "name": "feeTierOrTickSpacing",
          "type": "int24"
        },
        {
          "internalType": "uint16",
          "name": "olasBurnRate",
          "type": "uint16"
        }
      ],
      "name": "increaseLiquidity",
      "outputs": [
        {
          "internalType": "uint256",
          "name": "positionId",
          "type": "uint256"
        },
        {
          "internalType": "uint256",
          "name": "liquidity",
          "type": "uint256"
        },
        {
          "internalType": "uint256[]",
          "name": "amounts",
          "type": "uint256[]"
        }
      ],
      "stateMutability": "nonpayable",
      "type": "function"
    },
    {
      "inputs": [
        {
          "internalType": "uint16",
          "name": "_maxSlippage",
          "type": "uint16"
        }
      ],
      "name": "initialize",
      "outputs": [],
      "stateMutability": "nonpayable",
      "type": "function"
    },
    {
      "inputs": [
        {
          "internalType": "address",
          "name": "",
          "type": "address"
        }
      ],
      "name": "mapPoolAddressPositionIds",
      "outputs": [
        {
          "internalType": "uint256",
          "name": "",
          "type": "uint256"
        }
      ],
      "stateMutability": "view",
      "type": "function"
    },
    {
      "inputs": [],
      "name": "maxSlippage",
      "outputs": [
        {
          "internalType": "uint16",
          "name": "",
          "type": "uint16"
        }
      ],
      "stateMutability": "view",
      "type": "function"
    },
    {
      "inputs": [],
      "name": "neighborhoodScanner",
      "outputs": [
        {
          "internalType": "address",
          "name": "",
          "type": "address"
        }
      ],
      "stateMutability": "view",
      "type": "function"
    },
    {
      "inputs": [],
      "name": "observationCardinality",
      "outputs": [
        {
          "internalType": "uint16",
          "name": "",
          "type": "uint16"
        }
      ],
      "stateMutability": "view",
      "type": "function"
    },
    {
      "inputs": [],
      "name": "olas",
      "outputs": [
        {
          "internalType": "address",
          "name": "",
          "type": "address"
        }
      ],
      "stateMutability": "view",
      "type": "function"
    },
    {
      "inputs": [
        {
          "internalType": "address",
          "name": "",
          "type": "address"
        },
        {
          "internalType": "address",
          "name": "",
          "type": "address"
        },
        {
          "internalType": "uint256",
          "name": "",
          "type": "uint256"
        },
        {
          "internalType": "bytes",
          "name": "",
          "type": "bytes"
        }
      ],
      "name": "onERC721Received",
      "outputs": [
        {
          "internalType": "bytes4",
          "name": "",
          "type": "bytes4"
        }
      ],
      "stateMutability": "nonpayable",
      "type": "function"
    },
    {
      "inputs": [],
      "name": "oracleV2",
      "outputs": [
        {
          "internalType": "address",
          "name": "",
          "type": "address"
        }
      ],
      "stateMutability": "view",
      "type": "function"
    },
    {
      "inputs": [],
      "name": "owner",
      "outputs": [
        {
          "internalType": "address",
          "name": "",
          "type": "address"
        }
      ],
      "stateMutability": "view",
      "type": "function"
    },
    {
      "inputs": [],
      "name": "positionManagerV3",
      "outputs": [
        {
          "internalType": "address",
          "name": "",
          "type": "address"
        }
      ],
      "stateMutability": "view",
      "type": "function"
    },
    {
      "inputs": [],
      "name": "routerV2",
      "outputs": [
        {
          "internalType": "address",
          "name": "",
          "type": "address"
        }
      ],
      "stateMutability": "view",
      "type": "function"
    },
    {
      "inputs": [
        {
          "internalType": "address[]",
          "name": "tokens",
          "type": "address[]"
        },
        {
          "internalType": "int24",
          "name": "feeTierOrTickSpacing",
          "type": "int24"
        },
        {
          "internalType": "address",
          "name": "to",
          "type": "address"
        }
      ],
      "name": "transferPositionId",
      "outputs": [
        {
          "internalType": "uint256",
          "name": "positionId",
          "type": "uint256"
        }
      ],
      "stateMutability": "nonpayable",
      "type": "function"
    },
    {
      "inputs": [
        {
          "internalType": "address",
          "name": "token",
          "type": "address"
        },
        {
          "internalType": "address",
          "name": "to",
          "type": "address"
        },
        {
          "internalType": "uint256",
          "name": "amount",
          "type": "uint256"
        }
      ],
      "name": "transferToken",
      "outputs": [],
      "stateMutability": "nonpayable",
      "type": "function"
    },
    {
      "inputs": [],
      "name": "treasury",
      "outputs": [
        {
          "internalType": "address",
          "name": "",
          "type": "address"
        }
      ],
      "stateMutability": "view",
      "type": "function"
    }
  ],
  "bytecode": "0x610180806040523461025f5760e081615538803803809161002082856102b8565b83398101031261025f57610033816102ef565b90610040602082016102ef565b61004c604083016102ef565b92610059606084016102ef565b93608084015161ffff81169586820361025f5761008460c061007d60a089016102ef565b97016102ef565b966001600160a01b0385161580156102a7575b8015610296575b8015610285575b61020d57156102765760049460209460805260a0528260c05261010052610120526040519283809263c45a015560e01b825260018060a01b03165afa90811561026b575f9161022d575b5060e0526001600160a01b03811615801561021c575b61020d5761016052610140526040516152349081610304823960805181818161021b015281816120050152818161294e01528181612cfc0152818161429e015261464d015260a0518181816108f9015281816129d801528181612d930152612dcd015260c0518181816107ad01528181610cf30152818161153e015281816117af01528181612153015281816127a1015281816130250152818161375a01528181613a420152614fca015260e0518181816104ba015281816126750152614dc001526101005181818161053c01526149d7015261012051818181610503015261222c015261014051818181610580015261434901526101605181818161093d015261423e0152f35b63d92e233d60e01b5f5260045ffd5b506001600160a01b03821615610105565b90506020813d602011610263575b81610248602093836102b8565b8101031261025f57610259906102ef565b5f6100ef565b5f80fd5b3d915061023b565b6040513d5f823e3d90fd5b637c946ed760e01b5f5260045ffd5b506001600160a01b038216156100a5565b506001600160a01b0384161561009e565b506001600160a01b03861615610097565b601f909101601f19168101906001600160401b038211908210176102db57604052565b634e487b7160e01b5f52604160045260245ffd5b51906001600160a01b038216820361025f5756fe60806040526004361015610011575f80fd5b5f3560e01c806231d115146101f357806310023343146101ee57806313750946146101e9578063150b7a02146101e457806317a68dd8146101df5780631d5f45f5146101da5780632b8e0666146101d5578063411d3b03146101d0578063502f7446146101cb578063576cb942146101c65780635ed589ae146101c157806361d027b3146101bc57806368d7e15e146101b757806371d4dfbb146101b25780637c9e639f146101ad5780638beb03ec146101a85780638c04166f146101a35780638da5cb5b1461019e5780639a739b50146101995780639dbaef5e14610194578063a6f9dae11461018f578063aeb2d7111461018a578063c23e78a614610185578063c6a6bf0814610180578063da8dca601461017b578063e6935e3214610176578063f3e4097c14610171578063f5537ede1461016c578063fd967f47146101675763ffa1ad7414610162575f80fd5b61193d565b611921565b6117de565b61179a565b611760565b6116ce565b61140d565b6112f4565b6112d8565b611252565b6110b3565b610f81565b610f5a565b610f37565b610b2c565b610aee565b6109b3565b610928565b6108e4565b6106ea565b6105af565b61056b565b610527565b6104e9565b6104a5565b6103f6565b61037e565b6102da565b61025b565b610206565b5f91031261020257565b5f80fd5b34610202575f366003190112610202576040517f00000000000000000000000000000000000000000000000000000000000000006001600160a01b03168152602090f35b6001600160a01b0381160361020257565b34610202576020366003190112610202576004356102788161024a565b60018060a01b03165f526001602052602060405f2054604051908152f35b6004359061ffff8216820361020257565b6044359061ffff8216820361020257565b6064359061ffff8216820361020257565b6084359061ffff8216820361020257565b34610202576020366003190112610202576102f3610296565b5f546001600160a01b03166103705761ffff8116908115610361576127108211610348575f805461ffff60a01b191660a09290921b61ffff60a01b169190911790555f80546001600160a01b03191633179055005b50637ae5968560e01b5f5260045261271060245260445ffd5b637c946ed760e01b5f5260045ffd5b62dc149f60e41b5f5260045ffd5b346102025760803660031901126102025761039a60043561024a565b6103a560243561024a565b6064356001600160401b03811161020257366023820112156102025780600401356001600160401b038111610202573691016024011161020257604051630a85bd0160e11b815280602081015b0390f35b34610202576020366003190112610202576004356104138161024a565b5f546001600160a01b03163381900361048f57506001600160a01b038116908115610480577ff7d1f641b01c7d29322d281367bfc337651cbfb5a9b1c387d2132d8792d212cd557f310ba5f1d2ed074b51e2eccd052a47ae9ab7c6b800d1fca3db3999d6a592ca035f80a2005b63d92e233d60e01b5f5260045ffd5b63521eb56d60e11b5f523360045260245260445ffd5b34610202575f366003190112610202576040517f00000000000000000000000000000000000000000000000000000000000000006001600160a01b03168152602090f35b34610202575f36600319011261020257602060405161ffff7f0000000000000000000000000000000000000000000000000000000000000000168152f35b34610202575f366003190112610202576040517f00000000000000000000000000000000000000000000000000000000000000006001600160a01b03168152602090f35b34610202575f366003190112610202576040517f00000000000000000000000000000000000000000000000000000000000000006001600160a01b03168152602090f35b346102025760203660031901126102025760206105d66004356105d18161024a565b611a9d565b6040516001600160a01b039091168152f35b634e487b7160e01b5f52604160045260245ffd5b90601f801991011681019081106001600160401b0382111761061d57604052565b6105e8565b604051906106316080836105fc565b565b6040519061063160c0836105fc565b6040519061063160a0836105fc565b60405190610631610160836105fc565b6001600160401b03811161061d5760051b60200190565b9080601f8301121561020257813561068f81610661565b9261069d60405194856105fc565b81845260208085019260051b82010192831161020257602001905b8282106106c55750505090565b6020809183356106d48161024a565b8152019101906106b8565b8060020b0361020257565b34610202576060366003190112610202576004356001600160401b0381116102025761071a903690600401610678565b602435610726816106df565b604435906107338261024a565b600160ff6107465f5460ff9060b01c1690565b16116108d5575f8054600160b11b60ff60b01b198216179091556001600160a01b031692338490036108b4579061077c91612617565b906001600160a01b03821615610480576001600160a01b0382165f90815260016020526040902054918215610361577f00000000000000000000000000000000000000000000000000000000000000006001600160a01b031690813b15610202576040516323b872dd60e01b81523060048201526001600160a01b038416602482015260448101859052915f908390606490829084905af19081156108af575f9261084092610895575b506001600160a01b03165f90815260016020526040902090565b556040519182916103f291906001600160a01b0316817f5a5dd07e850317c0ad52f598509348a01f97aa8b18322de3a1991cc62e10a1395f80a35f805460ff60b01b1916600160b01b17905582526020820190565b806108a3856108a9936105fc565b806101f8565b85610826565b6119f9565b63521eb56d60e11b5f52336004526001600160a01b03841660245260445b5ffd5b6345f5ce8b60e11b5f5260045ffd5b34610202575f366003190112610202576040517f00000000000000000000000000000000000000000000000000000000000000006001600160a01b03168152602090f35b34610202575f366003190112610202576040517f00000000000000000000000000000000000000000000000000000000000000006001600160a01b03168152602090f35b90602080835192838152019201905f5b8181106109895750505090565b825184526020938401939092019160010161097c565b9060206109b092818152019061096c565b90565b34610202576040366003190112610202576004356001600160401b038111610202576109e3903690600401610678565b6024356109ef816106df565b600160ff610a025f5460ff9060b01c1690565b16116108d5575f805460ff60b01b1916600160b11b179055610a249082612617565b6001600160a01b038116908115610480576001600160a01b0381165f9081526001602052604090205490811561036157610a5d90611a9d565b50610a678161270c565b91610a7183611c80565b511580610add575b610361577f1067d2405fcd4e94b326038308ad945cfd5a4ac64c9749c75f3f5e64e87d412d8385610aac6103f297612881565b50610abc60405192839283611cde565b0390a35f805460ff60b01b1916600160b01b1790556040519182918261099f565b50610ae783611c92565b5115610a79565b34610202575f36600319011261020257602060405167016345785d8a00008152f35b6109b0939260609282526020820152816040820152019061096c565b34610202576060366003190112610202576004356001600160401b03811161020257610b5c903690600401610678565b602435610b68816106df565b610b706102a7565b90600160ff610b845f5460ff9060b01c1690565b16116108d5575f8054600160b11b60ff60b01b198216179091556001600160a01b031633819003610f18575061ffff8216906127108211610efb57610bc7611d03565b90610bf3610be7610be7610bda88611c80565b516001600160a01b031690565b6001600160a01b031690565b6040516370a0823160e01b815230600482015290602090829060249082905afa9081156108af575f91610edc575b50610c2b83611c80565b52610c3e610be7610be7610bda88611c92565b6040516370a0823160e01b815230600482015290602090829060249082905afa9081156108af575f91610ead575b50610c7683611c92565b52610c8082611c80565b51158015610e9c575b61036157610c979085612617565b926001600160a01b03841692831561048057610e8b575b506001600160a01b0383165f90815260016020526040902054928315610361575f92610cd982611a9d565b50610cec610be7610be7610bda89611c80565b6020610d507f000000000000000000000000000000000000000000000000000000000000000092610d1c87611c80565b5160405163095ea7b360e01b81526001600160a01b0386166004820152602481019190915297889283919082906044820190565b03925af19081156108af57610db895602092610e70575b50610d7a610be7610be7610bda8b611c92565b610d8386611c92565b5160405163095ea7b360e01b81526001600160a01b0390931660048401526024830152909586919082905f9082906044820190565b03925af19182156108af57610e036001600160801b0394877fe15c55fef3b65b090ba796a6e4e407de45b966cde5ae1a7c31e658aa21c79bbb936103f2988297610e43575b50612fe0565b9485911697610e1181612c3c565b50610e228960405193849384611d49565b0390a35f805460ff60b01b1916600160b01b17905560405193849384610b10565b610e649060203d602011610e69575b610e5c81836105fc565b810190611d34565b610dfd565b503d610e52565b610e8690833d8511610e6957610e5c81836105fc565b610d67565b610e96915084612a74565b5f610cae565b50610ea682611c92565b5115610c89565b610ecf915060203d602011610ed5575b610ec781836105fc565b810190611d25565b5f610c6c565b503d610ebd565b610ef5915060203d602011610ed557610ec781836105fc565b5f610c21565b637ae5968560e01b5f5261ffff831660045261271060245260445ffd5b63521eb56d60e11b5f52336004526001600160a01b031660245260445ffd5b34610202575f36600319011261020257602061ffff5f5460a01c16604051908152f35b34610202575f366003190112610202575f546040516001600160a01b039091168152602090f35b3461020257602036600319011261020257610fd95f600435610fa28161024a565b610faa611d03565b90610fbe610fb783611c80565b6107089052565b604051808095819463883bdbfd60e01b835260048301611e7e565b03916001600160a01b03165afa9081156108af5761103361102861103e93611039935f9161106b575b5061102261101561101c61101584611c92565b5160060b90565b92611c80565b90611ebd565b6107089060060b0590565b60020b90565b613355565b6110516001600160a01b038216806124cd565b604080519182526001600160a01b03929092166020820152f35b61108791503d805f833e61107f81836105fc565b810190611dde565b505f611002565b6001600160801b036109b094936060938352166020820152816040820152019061096c565b34610202576080366003190112610202576004356001600160401b038111610202576110e3903690600401610678565b6024356110ef816106df565b6110f76102a7565b906111006102b8565b600160ff6111135f5460ff9060b01c1690565b16116108d5575f8054600160b11b60ff60b01b198216179091556001600160a01b031633819003610f18575061ffff831680156103615761271010610efb5761ffff81169161271083116112355761116b9085612617565b6001600160a01b0381168015610480576001600160a01b0382165f90815260016020526040902054948515610361576103f2946111d57f1b90ebd5d3d4dd7c68b649282ffd9979554410f39f6979e094c42fcd95f4195d9288866111cf8298611a9d565b50613a16565b50976111e08561270c565b958692611224575b506111f281612c3c565b506112038960405193849384611ef6565b0390a35f805460ff60b01b1916600160b01b1790556040519384938461108e565b61122e9082612a74565b505f6111e8565b637ae5968560e01b5f5261ffff821660045261271060245260445ffd5b346102025760203660031901126102025760043561126f8161024a565b5f546001600160a01b03163381900361048f57506001600160a01b038116908115610480575f80546001600160a01b0319166001600160a01b039092169190911790557f4ffd725fc4a22075e9ec71c59edf9c38cdeb588a91b24fc5b61388c5be41282b5f80a2005b34610202575f3660031901126102025760206040516107088152f35b346102025760203660031901126102025761130d610296565b5f546001600160a01b0381163303610f18575061ffff811680156103615761271010611380575f805461ffff60a01b191660a083901b61ffff60a01b1617905560405161ffff90911681527f9c922f6d0c990b250e9dd0a427a5c8da7f44b960f697fecb31cbbd8ba79ec8c290602090a1005b637ae5968560e01b5f5261ffff1660045261271060245260445ffd5b9080601f830112156102025781356113b381610661565b926113c160405194856105fc565b81845260208085019260051b82010192831161020257602001905b8282106113e95750505090565b6020809183356113f8816106df565b8152019101906113dc565b8015150361020257565b34610202576080366003190112610202576004356001600160401b0381116102025761143d903690600401610678565b6024359061144a826106df565b6044356001600160401b0381116102025761146990369060040161139c565b9060643561147681611403565b600160ff6114895f5460ff9060b01c1690565b16116108d5575f8054600160b11b60ff60b01b198216179091556001600160a01b031633819003610f1857506114bf8483612617565b936001600160a01b0385168015610480576001600160a01b0386165f908152600160205260409020549384156103615761150d6114fb88611a9d565b95611506818a613732565b505061270c565b9061151782611c80565b511580156116bd575b610361575f611537610be7610be7610bda85611c80565b602061159b7f00000000000000000000000000000000000000000000000000000000000000009261156787611c80565b5160405163095ea7b360e01b81526001600160a01b0386166004820152602481019190915294859283919082906044820190565b03925af19081156108af57611603926020926116a2575b506115c5610be7610be7610bda87611c92565b6115ce86611c92565b5160405163095ea7b360e01b81526001600160a01b0390931660048401526024830152909283919082905f9082906044820190565b03925af180156108af5761166d986103f298611203977f7813911cc448a87b948882351b0095d3deb410aa6f7e32c37f22abdf1d5b03ee9661164d958b95611685575b5086613ce4565b9682809a89959498939c60018060a01b03165f52600160205260405f2090565b5561167783612c3c565b508a60405194859485611f2f565b61169d9060203d602011610e6957610e5c81836105fc565b611646565b6116b890833d8511610e6957610e5c81836105fc565b6115b2565b506116c782611c92565b5115611520565b346102025760c0366003190112610202576004356001600160401b038111610202576116fe903690600401610678565b6044359061170b826106df565b606435906001600160401b038211610202576103f29261173261175193369060040161139c565b61173a6102c9565b9160a4359361174885611403565b60243590611fb2565b60409391935193849384610b10565b34610202575f3660031901126102025760206040517ff7d1f641b01c7d29322d281367bfc337651cbfb5a9b1c387d2132d8792d212cd8152f35b34610202575f366003190112610202576040517f00000000000000000000000000000000000000000000000000000000000000006001600160a01b03168152602090f35b34610202576060366003190112610202576004356117fb8161024a565b602435906118088261024a565b60443591600160ff61181f5f5460ff9060b01c1690565b16116108d5575f8054600160b11b60ff60b01b198216179091556001600160a01b031633819003610f1857506040516370a0823160e01b81523060048201526001600160a01b0383169290602081602481875afa9081156108af575f91611902575b508085116118eb5750816118ba857f9c8515990fd8c61431c4ac8db9b81475f90c292a1dda77731e56c22e64fc7643946118d4946145d7565b6040519485526001600160a01b0316939081906020820190565b0390a35f805460ff60b01b1916600160b01b179055005b637ae5968560e01b5f52600485905260245260445ffd5b61191b915060203d602011610ed557610ec781836105fc565b5f611881565b34610202575f3660031901126102025760206040516127108152f35b34610202575f36600319011261020257604080519061195c81836105fc565b600582526020820191640302e312e360dc1b83528151928391602083525180918160208501528484015e5f828201840152601f01601f19168101030190f35b519063ffffffff8216820361020257565b51908160060b820361020257565b9190826080910312610202576119cf8261199b565b916119dc602082016119ac565b91606060408301516119ed8161024a565b9201516109b081611403565b6040513d5f823e3d90fd5b634e487b7160e01b5f52601160045260245ffd5b63ffffffff6107089116019063ffffffff8211611a3157565b611a04565b3d15611a6f573d906001600160401b03821161061d5760405191611a64601f8201601f1916602001846105fc565b82523d5f602084013e565b606090565b919082604091031261020257602082519201516109b08161024a565b91908203918211611a3157565b611aa681612424565b81906001600160a01b038216156103615760405163252c09d760e01b815261ffff9190911660048201526080816024816001600160a01b0388165afa80156108af57611af9915f91611c3a575b50611a18565b63ffffffff42911610611c3457506040516309a739b560e41b602082019081526001600160a01b03841660248084019190915282525f91829190611b3e6044826105fc565b5190305afa91611b4c611a36565b92158015611c2b575b611bf35750611b7082602080611b8295518301019101611a74565b9290916001600160a01b0316806124cd565b5f9180611bbd575b505067016345785d8a00008111611b9f575090565b637ae5968560e01b5f5260045267016345785d8a000060245260445ffd5b90915080821115611be157611bd581611bda93611a90565b612539565b5f80611b8a565b611bd5611bee9282611a90565b611bda565b9150600161ffff611c0384612470565b161115611c2657636c27a2ef60e01b5f526001600160a01b03821660045260245ffd5b905090565b50825115611b55565b91505090565b611c5c915060803d608011611c65575b611c5481836105fc565b8101906119ba565b5050505f611af3565b503d611c4a565b634e487b7160e01b5f52603260045260245ffd5b805115611c8d5760200190565b611c6c565b805160011015611c8d5760400190565b90602080835192838152019201905f5b818110611cbf5750505090565b82516001600160a01b0316845260209384019390920191600101611cb2565b9091611cf56109b093604084526040840190611ca2565b91602081840391015261096c565b60405160609190611d1483826105fc565b6002815291601f1901366020840137565b90816020910312610202575190565b9081602091031261020257516109b081611403565b939291611d7290611d64604093606088526060880190611ca2565b90868203602088015261096c565b930152565b9080601f83011215610202578151611d8e81610661565b92611d9c60405194856105fc565b81845260208085019260051b82010192831161020257602001905b828210611dc45750505090565b602080918351611dd38161024a565b815201910190611db7565b9190916040818403126102025780516001600160401b03811161020257810183601f8201121561020257805190611e1482610661565b91611e2260405193846105fc565b80835260208084019160051b8301019186831161020257602001905b828210611e66575050509260208201516001600160401b038111610202576109b09201611d77565b60208091611e73846119ac565b815201910190611e3e565b60206040818301928281528451809452019201905f5b818110611ea15750505090565b825163ffffffff16845260209384019390920191600101611e94565b600691820b910b0390667fffffffffffff198212667fffffffffffff831317611a3157565b634e487b7160e01b5f52601260045260245ffd5b91611f286001600160801b0391611f1a604094979697606087526060870190611ca2565b90858203602087015261096c565b9416910152565b92949390611f53606093611d646001600160801b0393608088526080880190611ca2565b951660408401521515910152565b90611f79602091949394604084526040840190611ca2565b6001600160a01b03909416910152565b92949390606092611f1a611fa592608087526080870190611ca2565b9460408401521515910152565b919592949394600160ff611fcb5f5460ff9060b01c1690565b16116108d5575f8054600160b11b60ff60b01b198216179091556001600160a01b031633819003610f185750612003610bda84611c80565b7f0000000000000000000000000000000000000000000000000000000000000000906001600160a01b038083169116811415908161240b575b506123e9575061ffff86169161271083116123cc57806123bb575b50612060611d03565b96612073610be7610be7610bda87611c80565b6040516370a0823160e01b815230600482015290602090829060249082905afa9081156108af575f9161239c575b506120ab89611c80565b526120be610be7610be7610bda87611c92565b6040516370a0823160e01b815230600482015290602090829060249082905afa9081156108af575f9161237d575b506120f689611c92565b5261210088611c80565b5115801561236c575b610361576121178185612617565b966001600160a01b03881693841561048057612359575b5061213887611a9d565b975f61214c610be7610be7610bda89611c80565b602061217c7f00000000000000000000000000000000000000000000000000000000000000009261156786611c80565b03925af19081156108af576121af9260209261233e575b506121a6610be7610be7610bda8b611c92565b6115ce85611c92565b03925af180156108af57612321575b506001600160a01b0388165f90815260016020526040902054806122d65750918697986001600160801b0397926121f59487613ce4565b6001600160a01b039098165f908152600160205260409020919795169590879055813b15610202576040516332148f6760e01b81527f000000000000000000000000000000000000000000000000000000000000000061ffff1660048201525f8160248183875af19384156108af576122ab7f03ca5127eb77f929178f431496644068e99b6c9fab4180fa7ef7b19866d4918d9388938b976122c2575b505b61229d83612c3c565b508960405194859485611f89565b0390a35f805460ff60b01b1916600160b01b179055565b806108a35f6122d0936105fc565b5f612292565b98507f03ca5127eb77f929178f431496644068e99b6c9fab4180fa7ef7b19866d4918d92506122ab9150936123168995866001600160801b03999a612fe0565b971697879290612294565b6123399060203d602011610e6957610e5c81836105fc565b6121be565b61235490833d8511610e6957610e5c81836105fc565b612193565b61236591985084612a74565b965f61212e565b5061237688611c92565b5115612109565b612396915060203d602011610ed557610ec781836105fc565b5f6120ec565b6123b5915060203d602011610ed557610ec781836105fc565b5f6120a1565b6123c590846140ea565b505f612057565b637ae5968560e01b5f5261ffff871660045261271060245260445ffd5b604051638c4fbbdd60e01b8152908190612407908660048401611f61565b0390fd5b905061241c610be7610bda87611c92565b14155f61203c565b5f915f8080936040516020810190633850c7bd60e01b82526004815261244b6024826105fc565b51915afa612457611a36565b9061245f5750565b925090506060602083015192015190565b905f8080936040516020810190633850c7bd60e01b8252600481526124966024826105fc565b51915afa6124a2611a36565b906124aa5750565b608001519150565b80156124be575f190490565b611ee2565b81156124be570490565b905f19818309908083029283808410930392808403931461252b57600160401b83101561250e5790600160401b910990828211900360c01b910360401c1790565b630c740aef60e31b5f52600452602452600160401b60445260645ffd5b50600160401b929150500490565b5f19670de0b6b3a7640000820991670de0b6b3a76400008202918280851094039380850394146125eb57818410156125ca57670de0b6b3a7640000829109600182190182168092046002816003021880820260020302808202600203028082026002030280820260020302808202600203028091026002030293600183805f03040190848311900302920304170290565b630c740aef60e31b5f52600452670de0b6b3a764000060245260445260645ffd5b50906109b092506124c3565b51906106318261024a565b9081602091031261020257516109b08161024a565b905f8160020b126126d95760209061263d610bda612637610bda86611c80565b94611c92565b604051630b4c774160e11b81526001600160a01b0394851660048201529316602484015262ffffff16604483015281806064810103817f00000000000000000000000000000000000000000000000000000000000000006001600160a01b03165afa9081156108af575f916126b0575090565b6109b0915060203d6020116126d2575b6126ca81836105fc565b810190612602565b503d6126c0565b6303d8303f60e41b5f90815260029190910b60045260245260445ffd5b9190826040910312610202576020825192015190565b90612715610622565b828152306020820152916001600160801b0360408401526001600160801b03606084015261279c6040612746611d03565b815163fc6f786560e01b81528651600482015260208701516001600160a01b0316602482015260408701516001600160801b03908116604483015260609097015190961660648701529491829081906084820190565b03815f7f00000000000000000000000000000000000000000000000000000000000000006001600160a01b03165af180156108af575f915f91612825575b506127e485611c92565b526127ee84611c80565b526040517fa8adaa6e9ed8eb83f230d6c9cf818002d8045e3524e33d026d47fc6fd255a0ef339180612820878261099f565b0390a3565b9050612849915060403d60401161284f575b61284181836105fc565b8101906126f6565b5f6127da565b503d612837565b906127108202918083046127101490151715611a3157565b81810292918115918404141715611a3157565b9061288a611d03565b91612893611d03565b906128a6610be7610be7610bda84611c80565b6040516370a0823160e01b815230600482015290602090829060249082905afa9081156108af575f91612a55575b506128de83611c80565b526128f1610be7610be7610bda84611c92565b6040516370a0823160e01b815230600482015290602090829060249082905afa9081156108af575f91612a36575b5061292983611c92565b525f5160206151df5f395f51905f52612944610bda83611c80565b6001600160a01b037f000000000000000000000000000000000000000000000000000000000000000081169391168303612a1057610bda61298491611c92565b61299761299085611c80565b5194611c92565b51905b84612a02575b816129d2575b6040805195865260208601929092526001918501919091526001600160a01b0316928060608101612820565b6129fd827f0000000000000000000000000000000000000000000000000000000000000000836145d7565b6129a6565b612a0b8561464b565b6129a0565b610bda612a1c91611c80565b612a2f612a2885611c92565b5194611c80565b519061299a565b612a4f915060203d602011610ed557610ec781836105fc565b5f61291f565b612a6e915060203d602011610ed557610ec781836105fc565b5f6128d4565b9190612a7e611d03565b92612a87611d03565b91612a9a610be7610be7610bda85611c80565b6040516370a0823160e01b815230600482015290602090829060249082905afa9081156108af575f91612c1d575b50612ad284611c80565b52612ae5610be7610be7610bda85611c92565b6040516370a0823160e01b81523060048201529190602090839060249082905afa80156108af5761ffff925f91612bfe575b50612b2185611c92565b52166127108110612b48575b505f5160206151df5f395f51905f52612944610bda83611c80565b612b8d612ba891612b5885611c80565b51612b6288611c80565b52612b6c85611c92565b51612b7688611c92565b52612b95612b8d82612b8788611c80565b5161286e565b612710900490565b612b9e86611c80565b52612b8785611c92565b612bb183611c92565b52612bce612bbe83611c80565b51612bc886611c80565b51611a90565b612bd785611c80565b52612bee612be483611c92565b51612bc886611c92565b612bf785611c92565b525f612b2d565b612c17915060203d602011610ed557610ec781836105fc565b5f612b17565b612c36915060203d602011610ed557610ec781836105fc565b5f612ac8565b905f612c46611d03565b92612c4f611d03565b91612c62610be7610be7610bda85611c80565b6040516370a0823160e01b815230600482015290602090829060249082905afa9081156108af575f91612e94575b50612c9a84611c80565b52612cad610be7610be7610bda85611c92565b6040516370a0823160e01b815230600482015290602090829060249082905afa9081156108af575f91612e75575b50612ce584611c92565b52612cf2610bda83611c80565b6001600160a01b037f000000000000000000000000000000000000000000000000000000000000000081169391168303612e5557610bda612d3291611c92565b90612d3f61299085611c80565b51905b84612dbd575b916128205f5160206151df5f395f51905f529383612d8d575b6040805197885260208801949094521515928601929092526001600160a01b0316939081906060820190565b612db8847f0000000000000000000000000000000000000000000000000000000000000000856145d7565b612d61565b5060405163a9059cbb60e01b81527f00000000000000000000000000000000000000000000000000000000000000006001600160a01b0316600482015260248101859052915f60208460448184895af19081156108af575f5160206151df5f395f51905f529461282092612e36575b5091935050612d48565b612e4e9060203d602011610e6957610e5c81836105fc565b505f612e2c565b610bda612e6191611c80565b90612e6e612a2885611c92565b5190612d42565b612e8e915060203d602011610ed557610ec781836105fc565b5f612cdb565b612ead915060203d602011610ed557610ec781836105fc565b5f612c90565b519062ffffff8216820361020257565b5190610631826106df565b51906001600160801b038216820361020257565b9190826101809103126102025781516bffffffffffffffffffffffff811681036102025791612f13602082016125f7565b91612f20604083016125f7565b91612f2d606082016125f7565b91612f3a60808301612eb3565b91612f4760a08201612ec3565b91612f5460c08301612ec3565b91612f6160e08201612ece565b9161010082015191610120810151916109b0610160612f836101408501612ece565b9301612ece565b61ffff16612710039061ffff8211611a3157565b9081606091031261020257612fb281612ece565b916040602083015192015190565b906001600160801b03611f2860209295949560408552604085019061096c565b612fec90939193612424565b50926001600160a01b0384161561036157613005611d03565b60405163133f757160e31b81526004810183905290946001600160a01b037f0000000000000000000000000000000000000000000000000000000000000000169161018081602481865afa9081156108af57613083915f915f91613313575b5061307a906130728a611c92565b9060020b9052565b61307288611c80565b6130d76130ce6110396130aa613097611d03565b996130c96130b16110396130aa84611c80565b5160020b90565b6130ba8d611c80565b6001600160a01b039091169052565b611c92565b6130ba88611c92565b61310e6130e6610bda88611c80565b6130f2610bda89611c92565b6130fb88611c80565b519061310689611c92565b5192856146b3565b916001600160801b038316156103615761314860609361327c9389613142610bda61313c610bda5f9e611c80565b92611c92565b91614749565b61315188611c92565b5261315b87611c80565b52613164611d03565b6131c4612b8d61317389611c80565b516131a4612b8d61318a8d5461ffff9060a01c1690565b9261319e61319785612f8a565b61ffff1690565b9061286e565b6131ad85611c80565b5261319e6131976131bd8c611c92565b5192612f8a565b6131cd82611c92565b526131e16131da88611c80565b5197611c92565b51906131f66131ef82611c80565b5191611c92565b5191613200610633565b98878a5260208a015260408901528488015260808701524260a0870152613225611d03565b6040805163219f5d1760e01b81528851600482015260208901516024820152908801516044820152606088015160648201526080880151608482015260a09097015160a488015295968792839190829060c4820190565b03925af19384156108af575f945f915f916132dd575b5061329c85611c92565b526132a684611c80565b526040517f61af548eb75e98ecb157785dbccce83e81ce0ab337310f7f8491e4cf5b97770290806132d8878783612fc0565b0390a2565b91505061330391945060603d60601161330c575b6132fb81836105fc565b810190612f9e565b9194915f613292565b503d6132f1565b61307a925061333a91506101803d811161334e575b61333281836105fc565b810190612ee2565b505050505096955093505050509190613064565b503d613328565b60020b5f8112156136cc57805f03905b620d89e882116136bd5760018216156136ab576001600160881b036ffffcb933bd6fad37aa2d162d1a5940015b16916002811661368f575b60048116613673575b60088116613657575b6010811661363b575b6020811661361f575b60408116613603575b608081166135e7575b61010081166135cb575b61020081166135af575b6104008116613593575b6108008116613577575b611000811661355b575b612000811661353f575b6140008116613523575b6180008116613507575b6201000081166134eb575b6202000081166134d0575b6204000081166134b5575b620800001661349c575b5f1261348e575b61346c6134628260201c90565b9163ffffffff1690565b613486575f905b60ff91909116016001600160a01b031690565b600190613473565b613497906124b2565b613455565b6b048a170391f7dc42444e8fa290910260801c9061344e565b6d2216e584f5fa1ea926041bedfe9890920260801c91613444565b916e5d6af8dedb81196699c329225ee6040260801c91613439565b916f09aa508b5b7a84e1c677de54f3e99bc90260801c9161342e565b916f31be135f97d08fd981231505542fcfa60260801c91613423565b916f70d869a156d2a1b890bb3df62baf32f70260801c91613419565b916fa9f746462d870fdf8a65dc1f90e061e50260801c9161340f565b916fd097f3bdfd2022b8845ad8f792aa58250260801c91613405565b916fe7159475a2c29b7443b29c7fa6e889d90260801c916133fb565b916ff3392b0822b70005940c7a398e4b70f30260801c916133f1565b916ff987a7253ac413176f2b074cf7815e540260801c916133e7565b916ffcbe86c7900a88aedcffc83b479aa3a40260801c916133dd565b916ffe5dee046a99a2a811c461f1969c30530260801c916133d3565b916fff2ea16466c96a3843ec78b326b528610260801c916133ca565b916fff973b41fa98c081472e6896dfb254c00260801c916133c1565b916fffcb9843d60f6159c9db58835c9266440260801c916133b8565b916fffe5caca7e10e4e61c3624eaa0941cd00260801c916133af565b916ffff2e50f5f656932ef12357cf3c7fdcc0260801c916133a6565b916ffff97272373d413259a46990580e213a0260801c9161339d565b6001600160881b03600160801b613392565b6315e4079d60e11b5f5260045ffd5b80613365565b906001600160801b03809116911602906001600160801b038216918203611a3157565b91909160808060a0830194805184526001600160801b03602082015116602085015260408101516040850152606081015160608501520151910152565b9161373b611d03565b60405163133f757160e31b815260048101849052936001600160a01b037f00000000000000000000000000000000000000000000000000000000000000001693919061018086602481885afa9081156108af575f5f975f936139de575b506137b4906137ab849961307287611c92565b61307285611c80565b6001600160801b03821615610361576137cc90612424565b506001600160a01b03811615610361576137e4611d03565b926137ee81611c80565b5160020b6137fb90613355565b61380485611c80565b6001600160a01b03909116905261381a90611c92565b5160020b61382790613355565b61383084611c92565b6001600160a01b03909116905281613846611d03565b9361385081611c80565b516001600160a01b03169061386490611c92565b516001600160a01b03169061387893614749565b61388184611c92565b5261388b83611c80565b5261389582611c80565b515f5460a01c61ffff16906138a982612f8a565b61ffff166138b69161286e565b61271090046138c484611c80565b526138ce83611c92565b51906138d990612f8a565b61ffff166138e69161286e565b61271090046138f483611c92565b526138fe82611c80565b519161390990611c92565b51613912610642565b8481526001600160801b0383166020820152926040840152606083015242608083015261393d611d03565b94604051808094630624e65f60e11b8252600482019061395c916136f5565b03815a6040945f91f19081156108af577f2e47e1549fbf24d9b7681340609af439f792e376b42a56d389131e2587cba0aa926132d8925f915f916139bd575b506139a588611c92565b526139af87611c80565b526040519182918783612fc0565b90506139d8915060403d60401161284f5761284181836105fc565b5f61399b565b90506139ff9197506137b492506101803d811161334e5761333281836105fc565b505050509c96509694509250505092979290613798565b919290613a21611d03565b60405163133f757160e31b8152600481018390529490936001600160a01b037f0000000000000000000000000000000000000000000000000000000000000000169161018087602481865afa9081156108af575f5f985f93613c8e575b50613a9a90613a91849a6130728b611c92565b61307289611c80565b6001600160801b038216156103615761ffff16906127108210613c65575b50506001600160801b0386161561036157613ad290612424565b506001600160a01b0381161561036157613bec5f92613b4488604094613b29613b206110396130aa6130c99d613b06611d03565b9e8f6130ba613b1a6110396130aa86611c80565b91611c80565b6130ba8c611c92565b613b31611d03565b99613142610bda61313c610bda84611c80565b613b4d89611c92565b52613b5788611c80565b52613b87612b8d613b6789611c80565b51613b7e612b8d61318a895461ffff9060a01c1690565b6131ad8b611c80565b613b9088611c92565b52613b9d6131da88611c80565b51613ba6610642565b8681526001600160801b038a16602082015297848901526060880152426080880152613bd0611d03565b968351948580948193630624e65f60e11b8352600483016136f5565b03925af180156108af575f915f91613c44575b50613c0985611c92565b52613c1384611c80565b527f2e47e1549fbf24d9b7681340609af439f792e376b42a56d389131e2587cba0aa604051806132d8878783612fc0565b9050613c5f915060403d60401161284f5761284181836105fc565b5f613bff565b613c8692975090613c75916136d2565b6001600160801b0361271091160490565b945f80613ab8565b9050613caf919850613a9a92506101803d811161334e5761333281836105fc565b505050509d96509694509250505092989290613a7e565b9060020b9060020b0190627fffff198212627fffff831317611a3157565b6001600160a01b038416969594939291906401000276a388101580614067575b1561405857613d138860201b90565b806001600160801b03811160071b90811c6001600160401b03811160061b90811c63ffffffff811160051b90811c61ffff811160041b90811c9060ff821160031b91821c92600f841160021b93841c94600160038711811b96871c1196171717171717179060808210155f1461404d57607e1982011c905b607f190160401b90800280607f1c8160ff1c1c800280607f1c8160ff1c1c800280607f1c8160ff1c1c800280607f1c8160ff1c1c800280607f1c8160ff1c1c800280607f1c8160ff1c1c80029081607f1c8260ff1c1c80029283607f1c8460ff1c1c80029485607f1c8660ff1c1c80029687607f1c8860ff1c1c80029889607f1c8a60ff1c1c80029a8b607f1c8c60ff1c1c80029c8d80607f1c9060ff1c1c800260cd1c6604000000000000169d60cc1c6608000000000000169c60cb1c6610000000000000169b60ca1c6620000000000000169a60c91c6640000000000000169960c81c6680000000000000169860c71c670100000000000000169760c61c670200000000000000169660c51c670400000000000000169560c41c670800000000000000169460c31c671000000000000000169360c21c672000000000000000169260c11c674000000000000000169160c01c678000000000000000161717171717171717171717171717693627a301d71055774c85026f028f6481ab7f045a5af012a19d003aa9198101613f219060801d90565b60020b906fdb2df09e81959a81455e260799a0632f0160801d60020b988960020b8260020b145f146130aa9a613f9d93613f9493613f8e9361402b575090509a8b985b6130c9613f85613f72611d03565b9b613f7f6130aa85611c80565b90613cc6565b6130728c611c80565b8a613cc6565b61307287611c92565b613fa96130aa86611c80565b8860020b809160020b1290811591614012575b50613fd357613fcc969750614997565b9192909190565b6108d28589613ff06130aa613fea6130aa85611c80565b93611c92565b639eb241a760e01b5f52600292830b60045290820b602452900b604452606490565b90506140236110336130aa88611c92565b13155f613fbc565b614037610be784613355565b1161404657505b9a8b98613f64565b905061403e565b81607f031b90613d8b565b6324c070df60e11b5f5260045ffd5b5073fffd8963efd1fc6a506488495d951d5263988d268810613d04565b909161409b6109b093604084526040840190611ca2565b916020818403910152611ca2565b51906001600160701b038216820361020257565b90816060910312610202576140d1816140a9565b916109b060406140e3602085016140a9565b930161199b565b6040516370a0823160e01b815230600482015292916001600160a01b0316602084602481845afa9384156108af575f946145b6575b5083156103615761412e611d03565b604051630dfe168160e01b8152602081600481865afa80156108af5761415f915f91614597575b506130ba83611c80565b60405163d21220a760e01b8152602081600481865afa80156108af57614190915f91614578575b506130ba83611c92565b61419c610bda82611c80565b6141ab610be7610bda86611c80565b6001600160a01b039091161480159061454a575b61452c5750604051630240bc6b60e21b8152606081600481855afa9081156108af575f905f926144f9575b506040516318160ddd60e01b815290602082600481875afa9182156108af575f926144cb575b506001600160701b0380614227939416911661286e565b6040516305ecd00360e01b815290916020826004817f00000000000000000000000000000000000000000000000000000000000000006001600160a01b03165afa9182156108af576143346142ec61433a94614321935f916144ac575b50614291610bda8a611c80565b6001600160a01b039081167f00000000000000000000000000000000000000000000000000000000000000009091160361448c576142d9816142de6142d96142e4948b614b76565b614b97565b98614b4d565b955b8a61286e565b61319e61319761432e61432761431861430b5f5461ffff9060a01c1690565b9561319e61319788612f8a565b61432189612856565b906124c3565b988d61286e565b92612f8a565b91612856565b60405163095ea7b360e01b81527f00000000000000000000000000000000000000000000000000000000000000006001600160a01b038116600483015260248201889052909391929091602090859060449082905f905af19384156108af5760409461446f575b505f6143ab611d03565b9761441b6143c7610bda6143c1610bda8b611c80565b99611c92565b8751635d5155ef60e11b81526001600160a01b03998a166004820152981660248901526044880191909152606487019290925260848601939093523060a48601524260c486015284928391829060e4820190565b03926001600160a01b03165af180156108af575f915f9161444e575b5061444184611c92565b5261444b83611c80565b52565b9050614469915060403d60401161284f5761284181836105fc565b5f614437565b6144879060203d602011610e6957610e5c81836105fc565b6143a1565b6142d9816144a06142d96144a6948b614b4d565b98614b76565b956142e6565b6144c5915060203d602011610ed557610ec781836105fc565b5f614284565b61422792506001600160701b036144f1819260203d602011610ed557610ec781836105fc565b935050614210565b905061451d915060603d606011614525575b61451581836105fc565b8101906140bd565b50905f6141ea565b503d61450b565b604051630d0218ff60e31b8152908190612407908560048401614084565b50614557610bda82611c92565b614566610be7610bda86611c92565b6001600160a01b0390911614156141bf565b614591915060203d6020116126d2576126ca81836105fc565b5f614186565b6145b0915060203d6020116126d2576126ca81836105fc565b5f614155565b6145d091945060203d602011610ed557610ec781836105fc565b925f61411f565b91906040519263a9059cbb60e01b5f52816004528260245260205f60448180855af13d15601f3d1160015f51141617165f606052846040521561461a5750505050565b63abae3d6d60e01b84526001600160a01b039081166004850152306024850152166044830152606482015260849150fd5b7f00000000000000000000000000000000000000000000000000000000000000006001600160a01b031690813b15610202575f91602483926040519485938492630852cd8d60e31b845260048401525af180156108af576146a95750565b5f610631916105fc565b936001600160a01b0383811690831611614741575b6001600160a01b038581169590831686116146e95750506109b09350614c93565b919490939192906001600160a01b0382161115614735578291614710916147169594614c93565b93614c59565b6001600160801b0381166001600160801b038316105f14611c26575090565b9150506109b092614c59565b9091906146c8565b9093925f929091836001600160a01b03808416908816116147c2575b6001600160a01b03828116908816811161478a57505050614787929394614d1a565b91565b93945090926001600160a01b03831611156147b65750906147b0836109b0949383614d1a565b94614ce0565b946109b0939250614ce0565b959195614765565b9080601f830112156102025781516147e181610661565b926147ef60405194856105fc565b81845260208085019260051b82010192831161020257602001905b8282106148175750505090565b815181526020918201910161480a565b916060838303126102025782516001600160401b03811161020257830182601f820112156102025780519061485b82610661565b9161486960405193846105fc565b80835260208084019160051b8301019185831161020257602001905b8282106148ba575050509261489c60208201612ece565b9260408201516001600160401b038111610202576109b092016147ca565b6020809183516148c9816106df565b815201910190614885565b90602080835192838152019201905f5b8181106148f15750505090565b825160020b8452602093840193909201916001016148e4565b9361493461494a936080959398979860018060a01b0316875260a0602088015260a08701906148d4565b9160020b6040860152848203606086015261096c565b931515910152565b939061494a926080946149736149899399989960a0895260a0890190611ca2565b9160020b602088015286820360408801526148d4565b9084820360608601526148d4565b9095929391936149a685614d95565b968760020b15610361575f916149d38886936040519b8c958695634234fa2b60e01b87526004870161490a565b03817f00000000000000000000000000000000000000000000000000000000000000006001600160a01b03165afa80156108af575f965f905f92614b1e575b506001600160801b0316158015614b0d575b8015614afc575b610361577fb3767368423a0d151c526a077a43c3ea857a69d740cb6b3135089531e40a2847916132d8614ad3878a7f60913d9a60356c85bc68b70b9abfce2c00ed94ffeaa12859c1764606aeee497895614a83611d03565b90614ac3612b8d614a9383611c80565b51614aaa612b8d61318a5f5461ffff9060a01c1690565b614ab386611c80565b5261319e6131976131bd86611c92565b614acc83611c92565b5286614e4d565b949091968599614aed849c8a9e6040519485948a86614952565b0390a160405193849384611ef6565b50614b0681611c92565b5115614a2b565b50614b1781611c80565b5115614a24565b90506001600160801b039750614b4691503d805f833e614b3e81836105fc565b810190614827565b9197614a12565b670de0b6b3a7640000810290670de0b6b3a7640000818304149015178215151615610202570490565b81810291818304149015176001161561020257670de0b6b3a7640000900490565b60b581600160881b811015614c42575b80690100000000000000000062010000921015614c35575b65010000000000811015614c28575b6301000000811015614c1b575b010260121c8082040160011c8082040160011c8082040160011c8082040160011c8082040160011c8082040160011c8082040160011c8080920410900390565b60101c9160081b91614bdb565b60201c9160101b91614bce565b60401c9160201b91614bbf565b5068b500000000000000009050608082901c614ba7565b6109b092614c889290916001600160a01b0380831690821611614c8d575b90036001600160a01b031690615061565b6151ca565b90614c77565b6109b092614c88929091906001600160a01b0380821690831611614cda575b614cc86001600160a01b038281169084166150f7565b9190036001600160a01b03169161513f565b90614cb2565b6109b092916001600160801b03916001600160a01b0380831690821611614d14575b90036001600160a01b031691166150f7565b90614d02565b916001600160a01b0382811690841611614d78575b614d62916001600160a01b038082169291859003169060601b6fffffffffffffffffffffffffffffffff60601b1661513f565b6001600160a01b039091169081156124be570490565b909190614d2f565b9081602091031261020257516109b0816106df565b5f8160020b126126d9576040516322afcccb60e01b815262ffffff90911660048201526020816024817f00000000000000000000000000000000000000000000000000000000000000006001600160a01b03165afa9081156108af575f91614dfb575090565b6109b0915060203d602011614e1d575b614e1581836105fc565b810190614d80565b503d614e0b565b919082608091031261020257815191614e3f60208201612ece565b916060604083015192015190565b909392608092614fc59694614e70610bda614e6a610bda87611c80565b95611c92565b92614f03614e866130aa613fea6130aa85611c80565b614efa614e928b611c80565b5193614ef0614ea08d611c92565b5196614ee4614eb8614eb18b611c80565b519a611c92565b519a614ed4614ec5610651565b6001600160a01b03909e168e52565b6001600160a01b031660208d0152565b62ffffff1660408b0152565b60020b6060890152565b60020b86880152565b60a0850190815260c0850191825260e08501928352610100850193845230610120860190815242610140870190815260408051634418b22b60e11b815288516001600160a01b03908116600483015260208a0151811660248301529189015162ffffff1660448201526060890151600290810b606483015260809099015190980b6084890152925160a4880152925160c4870152925160e486015292516101048501529051909116610124830152516101448201529384908190610164820190565b03815f7f00000000000000000000000000000000000000000000000000000000000000006001600160a01b03165af19283156108af575f905f945f915f91615022575b5061501285611c92565b5261501c84611c80565b52929190565b9250505061504991935060803d608011615053575b61504181836105fc565b810190614e24565b919492915f615008565b503d615037565b1561020257565b5f19600160601b8209918160601b918280851094039380850394146150e557819061508d85831161505a565b600160601b900981805f03168092046002816003021880820260020302808202600203028082026002030280820260020302808202600203028091026002030293600183805f03040190848311900302920304170290565b5091506150f382151561505a565b0490565b5f19828209908281029283808410930392808403931461513657600160601b83101561020257600160601b910990828211900360a01b910360601c1790565b50505060601c90565b90915f1983830992808302928380861095039480860395146151bb5790829161516986841161505a565b0981805f03168092046002816003021880820260020302808202600203028082026002030280820260020302808202600203028091026002030293600183805f03040190848311900302920304170290565b505091506150f382151561505a565b906001600160801b0382169182036102025756febc4a7aed27e23b75f2aebdbea9827c2b52432a5974a1fab9d370b6608de14105a264697066735822122013fbebee6288ef020441e8a134f216be6d611a496f5658f2c0d087fe5125e6a164736f6c634300081e0033",
  "linkReferences": {},
  "deployedLinkReferences": {}
}