{
  "_format": "hh-sol-artifact-1",
  "contractName": "NeighborhoodScanner",
  "sourceName": "contracts/pol/NeighborhoodScanner.sol",
  "abi": [
    {
      "inputs": [
        {
          "internalType": "int24",
          "name": "provided",
          "type": "int24"
        },
        {
          "internalType": "int24",
          "name": "max",
          "type": "int24"
        }
      ],
      "name": "Overflow",
      "type": "error"
    },
    {
      "inputs": [],
      "name": "R",
      "type": "error"
    },
    {
      "inputs": [
        {
          "internalType": "int24",
          "name": "low",
          "type": "int24"
        },
        {
          "internalType": "int24",
          "name": "high",
          "type": "int24"
        },
        {
          "internalType": "int24",
          "name": "minLow",
          "type": "int24"
        },
        {
          "internalType": "int24",
          "name": "maxHigh",
          "type": "int24"
        }
      ],
      "name": "RangeBounds",
      "type": "error"
    },
    {
      "inputs": [],
      "name": "T",
      "type": "error"
    },
    {
      "inputs": [],
      "name": "ZeroValue",
      "type": "error"
    },
    {
      "inputs": [],
      "name": "MAX_NUM_BINARY_STEPS",
      "outputs": [
        {
          "internalType": "uint8",
          "name": "",
          "type": "uint8"
        }
      ],
      "stateMutability": "view",
      "type": "function"
    },
    {
      "inputs": [],
      "name": "MAX_NUM_NEIGHBORHOOD_STEPS",
      "outputs": [
        {
          "internalType": "int8",
          "name": "",
          "type": "int8"
        }
      ],
      "stateMutability": "view",
      "type": "function"
    },
    {
      "inputs": [
        {
          "internalType": "uint160",
          "name": "sqrtP",
          "type": "uint160"
        },
        {
          "internalType": "int24[]",
          "name": "ticks",
          "type": "int24[]"
        },
        {
          "internalType": "int24",
          "name": "tickSpacing",
          "type": "int24"
        },
        {
          "internalType": "uint256[]",
          "name": "initialAmounts",
          "type": "uint256[]"
        },
        {
          "internalType": "bool",
          "name": "scan",
          "type": "bool"
        }
      ],
      "name": "optimizeLiquidityAmounts",
      "outputs": [
        {
          "internalType": "int24[]",
          "name": "loHi",
          "type": "int24[]"
        },
        {
          "internalType": "uint128",
          "name": "liquidity",
          "type": "uint128"
        },
        {
          "internalType": "uint256[]",
          "name": "amountsDesired",
          "type": "uint256[]"
        }
      ],
      "stateMutability": "pure",
      "type": "function"
    },
    {
      "inputs": [
        {
          "internalType": "int24",
          "name": "tickSpacing",
          "type": "int24"
        },
        {
          "internalType": "uint160",
          "name": "sqrtP",
          "type": "uint160"
        },
        {
          "internalType": "int24",
          "name": "lo",
          "type": "int24"
        },
        {
          "internalType": "uint256[]",
          "name": "amounts",
          "type": "uint256[]"
        }
      ],
      "name": "pickHiMaxUtil",
      "outputs": [
        {
          "internalType": "int24[]",
          "name": "loHiBest",
          "type": "int24[]"
        },
        {
          "internalType": "uint128",
          "name": "liqBest",
          "type": "uint128"
        },
        {
          "internalType": "uint256[]",
          "name": "optimizedAmounts",
          "type": "uint256[]"
        }
      ],
      "stateMutability": "pure",
      "type": "function"
    },
    {
      "inputs": [
        {
          "internalType": "int24",
          "name": "tickSpacing",
          "type": "int24"
        },
        {
          "internalType": "uint160",
          "name": "sqrtP",
          "type": "uint160"
        },
        {
          "internalType": "int24",
          "name": "hi",
          "type": "int24"
        },
        {
          "internalType": "uint256[]",
          "name": "amounts",
          "type": "uint256[]"
        }
      ],
      "name": "pickLoMaxUtil",
      "outputs": [
        {
          "internalType": "int24[]",
          "name": "loHiBest",
          "type": "int24[]"
        },
        {
          "internalType": "uint128",
          "name": "liqBest",
          "type": "uint128"
        },
        {
          "internalType": "uint256[]",
          "name": "optimizedAmounts",
          "type": "uint256[]"
        }
      ],
      "stateMutability": "pure",
      "type": "function"
    }
  ],
  "bytecode": "0x60808060405234601557612472908161001a8239f35b5f80fdfe60e06040526004361015610011575f80fd5b5f3560e01c80634234fa2b146100d657806392873aa5146100bb578063bcde085f146100a1578063d8183894146100845763f08b035b14610050575f80fd5b346100805761007c61006d6100643661021c565b93929092610d6c565b60409391935193849384610197565b0390f35b5f80fd5b346100805761007c61006d6100983661021c565b939290926109d9565b34610080575f366003190112610080576020604051818152f35b34610080575f36600319011261008057602060405160048152f35b346100805760a0366003190112610080576004356001600160a01b03811681036100805760243567ffffffffffffffff81116100805761011a903690600401610166565b909190604435600281900b81036100805760643567ffffffffffffffff81116100805761014b903690600401610166565b916084359384151585036100805761007c9661006d9661039e565b9181601f840112156100805782359167ffffffffffffffff8311610080576020808501948460051b01011161008057565b9091606082016060835283518091526020608084019401905f5b818110610203575050506001600160801b031660208201526040818303910152602080835192838152019201905f5b8181106101ed5750505090565b82518452602093840193909201916001016101e0565b825160020b8652602095860195909201916001016101b1565b906080600319830112610080576004358060020b810361008057916024356001600160a01b038116810361008057916044358060020b810361008057916064359067ffffffffffffffff82116100805761027891600401610166565b9091565b6040519190601f01601f1916820167ffffffffffffffff8111838210176102a257604052565b634e487b7160e01b5f52604160045260245ffd5b358060020b81036100805790565b8051156102d15760200190565b634e487b7160e01b5f52603260045260245ffd5b8051600110156102d15760400190565b60020b60011b908160020b91820361030957565b634e487b7160e01b5f52601160045260245ffd5b60020b60021b908160020b91820361030957565b9060020b9060020b02908160020b91820361030957565b9060020b9060020b0190627fffff198212627fffff83131761030957565b60020b5f190190627fffff198212627fffff83131761030957565b600291820b910b0390627fffff198212627fffff83131761030957565b959092969391966103af606061027c565b6002815260409490929085366020860137839980156102d1576103d1826102b6565b6103da866102c4565b9060020b9052600110156102d15760206103f491016102b6565b6103fd846102e5565b9060020b905261041e61040f836110d5565b610418846102f5565b90610348565b61043d61042e84620d89e8611166565b610437856102f5565b90610381565b906104548461044b876102c4565b5160020b611166565b61045d866102c4565b9060020b905261047984610470876102e5565b5160020b611129565b610482866102e5565b9060020b9052610491856102c4565b5160020b908060020b809212610976575b6104ab866102e5565b5160020b928060020b809413610966575b6104c5876102c4565b5160020b6104d2886102e5565b5160020b13156108b7575b6105006104e9886102c4565b5160020b6104f6896102e5565b5160020b906111a3565b1561063057505050506106195750505b61051a606061027c565b93600285528236602087013761053b610532886102c4565b5160020b6113ec565b610544866102c4565b6001600160a01b03909116905261055d610532886102e5565b610566866102e5565b6001600160a01b03918216905261057c866102c4565b5116906001600160a01b03610590876102e5565b51169080156102d157600110156102d15782610605926105bb9260206106169601359235918a61175c565b80966105c7606061027c565b946002865236602087013793958694906001600160a01b036105e8826102c4565b5116906001600160a01b03906105fd906102e5565b5116916117f7565b6106108492946102e5565b526102c4565b52565b9092506106299591939650611374565b9192909190565b90929491935061064c83610643886102c4565b5160020b610381565b610655836102f5565b60020b9060020b1380159061067661066c896102e5565b5160020b84610381565b61067f856102f5565b60020b9060020b1391821592816108af575b50156107e6575050816106be916106a7886102c4565b5160020b6106b4896102e5565b5160020b906111fa565b6106c7866102e5565b9060020b90526106e66106d9866102c4565b5160020b6104f6876102e5565b156107b9575b50505b6106f8836102c4565b5160020b811380156107a4575b8015610782575b610740575050806104f661072261072c936102c4565b5160020b916102e5565b610510575b637c946ed760e01b5f5260045ffd5b6084935061075a610750846102c4565b5160020b936102e5565b5160020b60405193630f34df8760e21b85526004850152602484015260448301526064820152fd5b5061078c836102c4565b5160020b610799846102e5565b5160020b131561070c565b50816107af846102e5565b5160020b13610705565b6107d0916107c6866102e5565b5160020b906112ab565b6107d9846102c4565b9060020b90525f806106ec565b919391816108a7575b501561085b5781610803916107c6886102e5565b61080c866102c4565b9060020b905261081e6106d9866102c4565b1561082b575b50506106ef565b61084591610838866102c4565b5160020b6106b4876102e5565b61084e846102e5565b9060020b90525f80610824565b918161086a916106a7886102c4565b610873866102e5565b9060020b90526108856106d9866102c4565b156108915750506106ef565b61089e916107c6866102e5565b61084e846102c4565b90505f6107ef565b90505f610691565b826108c1886102c4565b526108d8866108cf896102e5565b5160020b610348565b6108e1886102e5565b9060020b9052836108f1886102e5565b5160020b13610956575b610904876102c4565b5160020b610911886102e5565b5160020b136104dd578661093d61093461092a836102c4565b5160020b926102e5565b5160020b610366565b90632b3a871b60e11b5f5260045260020b60245260445ffd5b83610960886102e5565b526108fb565b83610970886102e5565b526104bc565b81610980876102c4565b526104a2565b9291909267ffffffffffffffff84116102a2578360051b906109aa6020830161027c565b9485526020850191810192831161008057905b8282106109c957505050565b81358152602091820191016109bd565b90919392936109e8606061027c565b6002815260409590863660208301378092610a03606061027c565b6002815288366020830137610abd8192610a1c856102e5565b8160020b9052610a2c606061027c565b9a60028c523660208d0137610a5188610a4c610a478c611878565b610366565b611166565b610a5a8c6102e5565b9060020b9052610a698b6102e5565b5160020b610a76866102e5565b5160020b1315610d4b575b610a8a886110d5565b610a938c6102c4565b9060020b9052610aa28b6102c4565b5160020b610aaf8c6102e5565b5160020b12610d2f576113ec565b9088156102d157610ad08535838a611b2c565b936001600160801b03851615610d07575050610aee6105328a6102c4565b98610afb84838c8b6117f7565b9050610b06846102e5565b52610b10836102e5565b519289600110159a8b6102d157602087013580951115610cd35750610b37610532836102e5565b90610b448685848d6117f7565b9050610b4f826102e5565b528b610b5a826102e5565b51906102d1578510610c7e575050610b74610722826102c4565b5160020b996102d1579089915f905b60208210610bd4575b50505050610bce9291610bc1610bc6926106299a610ba9886102c4565b9060020b905288610bbc610532896102c4565b611b87565b611bb8565b953691610986565b90611bd8565b9091929a899085610c1c888f610c0c610c068f6002610bfe82610bf98f978e90610381565b6111d8565b810b05610331565b88610348565b95610c16876113ec565b906117f7565b905011155f14610c5f5750809b60020b8160020b14610c5a5788610c3f91610381565b915b8260020b8260020b13610c5a5760010190929192610b83565b610b8c565b9b929160020b8160020b14610c5a5788610c7891610348565b90610c41565b9a509a9850949692610cc09650610ca79450610bc1610c9f9293858d611b87565b9889926117f7565b610cb0876102e5565b52610cba866102c4565b526102e5565b5160020b610ccd826102c4565b52929190565b9b99509950949692610cc09650610cf49450610bc1610c9f9293858d611b87565b610cfd876102e5565b52610610866102c4565b98509895505050505050610d1b91506102e5565b5160020b610d28826102c4565b52915f9190565b610d388b6102c4565b5160020b610d458c6102e5565b526113ec565b610d5888610643876102e5565b610d618c6102e5565b9060020b9052610a81565b9091939293610d7b606061027c565b6002815260409590863660208301378092610d96606061027c565b60028152883660208301378091610dac846102c4565b8160020b9052610dbc606061027c565b9960028b523660208c01376001610dd289611878565b60020b0190627fffff8213627fffff1983121761030957610df688610e6693611129565b610dff8c6102c4565b9060020b9052610e0e8b6102c4565b5160020b610e1b866102c4565b5160020b121561108e575b610e3388620d89e8611166565b610e3c8c6102e5565b9060020b9052610e4b8b6102e5565b5160020b610e588c6102c4565b5160020b13611078576113ec565b9088600110156102d157610e7f60208601358984611b87565b936001600160801b03851615611057575050610e9d6105328a6102c4565b610ea98482848b6117f7565b50610eb3846102c4565b52610ebd836102c4565b5192891591826102d15786358095116110345750610edd6105328c6102e5565b610ee98682868d6117f7565b50610ef3836102c4565b5282610efe836102c4565b51906102d157851015611004575050610f23610f198b6102c4565b5160020b9a6102e5565b5160020b906102d1579089915f9a5b60208c10610f71575b505050610629985091610bc1610bc692610bce9594610f59886102e5565b9060020b9052610f6b610532886102e5565b89611b2c565b610f8e610f888a6002610bfe82610bf98789610381565b82610348565b9385610fa5888d87610f9f8a6113ec565b916117f7565b5011610fe2575050828160020b8160020b14610fdd5788610fc591610348565b9a5b8160020b8c60020b13610fdd576001019a610f32565b610f3b565b9390809c925060020b8160020b14610fdd5788610ffe91610381565b90610fc7565b93610c9f939c9a506110279850610ca79650610bc1919b97999592508486611b2c565b5160020b610ccd826102e5565b93610c9f939c9a506110279850610cf49650610bc1919b97999592508486611b2c565b9850989550505050505061106b91506102c4565b5160020b610d28826102e5565b6110818b6102e5565b5160020b610d458c6102c4565b61109b886108cf876102c4565b6110a48c6102c4565b9060020b9052610e26565b9060020b9081156110c15760020b0790565b634e487b7160e01b5f52601260045260245ffd5b8060020b80156110c157620d89e7190790600282900b806110fc57505050620d89e7195b90565b5f121561111a576110f99161111091610381565b620d89e719610348565b506110f990620d89e719610381565b9061113481836110af565b908160020b80155f146111475750505090565b5f121561115c576110f9929161041891610381565b506110f991610381565b61117082826110af565b918260020b80155f14611184575050905090565b5f12156111965750906110f991610381565b610437906110f993610348565b906111b06111d3926113ec565b906001600160a01b03906111c3906113ec565b16906001600160a01b0316612022565b151590565b60020b9060020b9081156110c157627fffff1981145f19831416610309570590565b908260020b8160020b136112a4575b929082935f925b60208410611221575b505050505090565b909192939461123e8260026112368987610348565b810b05611166565b958360020b8760020b1261129b575b61125787866111a3565b156112875750506112688186610381565b935b8460020b8360020b1361128257600101929190611210565b611219565b949250948161129591610348565b9161126a565b9550829561124d565b5081611209565b9190916112b88284610381565b918260020b91828160020b1361136d575b92919092829383955f905b602082106112e7575b5050505050505090565b909192939495966113068460026112fe8b89610348565b810b05611129565b97868960020b13611364575b61131c838a6111a3565b1561135057505061132d8388610381565b915b8260020b8560020b1361134b57600101909594939291956112d4565b6112dd565b929450968361135e91610348565b9361132f565b97508697611312565b50826112c9565b909392919383156102d1578235801580156113d7575b6107315781611398916123c5565b84600110156102d1576020840135116113c1576113b7610629956102c4565b5160020b91610d6c565b6113cd610629956102e5565b5160020b916109d9565b5084600110156102d15760208401351561138a565b60020b5f81121561175657805f03905b620d89e88211611747576001821615611735576001600160881b036ffffcb933bd6fad37aa2d162d1a5940015b169160028116611719575b600481166116fd575b600881166116e1575b601081166116c5575b602081166116a9575b6040811661168d575b60808116611671575b6101008116611655575b6102008116611639575b610400811661161d575b6108008116611601575b61100081166115e5575b61200081166115c9575b61400081166115ad575b6180008116611591575b620100008116611575575b62020000811661155a575b62040000811661153f575b6208000016611526575b5f12611518575b63ffffffff8116611510575f905b60201c60ff91909116016001600160a01b031690565b6001906114fa565b80156110c1575f19046114ec565b6b048a170391f7dc42444e8fa290910260801c906114e5565b6d2216e584f5fa1ea926041bedfe9890920260801c916114db565b916e5d6af8dedb81196699c329225ee6040260801c916114d0565b916f09aa508b5b7a84e1c677de54f3e99bc90260801c916114c5565b916f31be135f97d08fd981231505542fcfa60260801c916114ba565b916f70d869a156d2a1b890bb3df62baf32f70260801c916114b0565b916fa9f746462d870fdf8a65dc1f90e061e50260801c916114a6565b916fd097f3bdfd2022b8845ad8f792aa58250260801c9161149c565b916fe7159475a2c29b7443b29c7fa6e889d90260801c91611492565b916ff3392b0822b70005940c7a398e4b70f30260801c91611488565b916ff987a7253ac413176f2b074cf7815e540260801c9161147e565b916ffcbe86c7900a88aedcffc83b479aa3a40260801c91611474565b916ffe5dee046a99a2a811c461f1969c30530260801c9161146a565b916fff2ea16466c96a3843ec78b326b528610260801c91611461565b916fff973b41fa98c081472e6896dfb254c00260801c91611458565b916fffcb9843d60f6159c9db58835c9266440260801c9161144f565b916fffe5caca7e10e4e61c3624eaa0941cd00260801c91611446565b916ffff2e50f5f656932ef12357cf3c7fdcc0260801c9161143d565b916ffff97272373d413259a46990580e213a0260801c91611434565b6001600160881b03600160801b611429565b6315e4079d60e11b5f5260045ffd5b806113fc565b936001600160a01b03838116908316116117ef575b6001600160a01b038581169590831686116117925750506110f99350611b2c565b919490939192906001600160a01b03821611156117e35782916117b9916117bf9594611b2c565b93611b87565b6001600160801b0381166001600160801b038316105f146117de575090565b905090565b9150506110f992611b87565b909190611771565b9093925f929091836001600160a01b0380841690881611611870575b6001600160a01b03828116908816811161183857505050611835929394612335565b91565b93945090926001600160a01b038316111561186457509061185e836110f9949383612335565b946122fb565b946110f99392506122fb565b959195611813565b6001600160a01b038116906401000276a382101580611b0f575b15611b0057640100000000600160c01b039060201b16806001600160801b03811160071b90811c67ffffffffffffffff811160061b90811c63ffffffff811160051b90811c61ffff811160041b90811c9060ff821160031b91821c92600f841160021b93841c94600160038711811b96871c1196171717171717179060808210155f14611af657607e1982011c5b800280607f1c8160ff1c1c800280607f1c8160ff1c1c800280607f1c8160ff1c1c800280607f1c8160ff1c1c800280607f1c8160ff1c1c800280607f1c8160ff1c1c80029081607f1c8260ff1c1c80029283607f1c8460ff1c1c80029485607f1c8660ff1c1c80029687607f1c8860ff1c1c80029889607f1c8a60ff1c1c80029a8b607f1c8c60ff1c1c80029c8d80607f1c9060ff1c1c800260cd1c6604000000000000169d60cc1c6608000000000000169c60cb1c6610000000000000169b60ca1c6620000000000000169a60c91c6640000000000000169960c81c6680000000000000169860c71c670100000000000000169760c61c670200000000000000169660c51c670400000000000000169560c41c670800000000000000169460c31c671000000000000000169360c21c672000000000000000169260c11c674000000000000000169160c01c6780000000000000001690607f190160401b1717171717171717171717171717693627a301d71055774c85026f028f6481ab7f045a5af012a19d003aa919810160801d60020b906fdb2df09e81959a81455e260799a0632f0160801d60020b918282145f14611adb5750905090565b6001600160a01b03611aec846113ec565b16116117de575090565b81607f031b611920565b6324c070df60e11b5f5260045ffd5b5073fffd8963efd1fc6a506488495d951d5263988d268210611892565b611b6d92916001600160a01b0380821690831611611b81575b611b5b6001600160a01b03828116908416612022565b9190036001600160a01b031691612276565b6001600160801b0381169081036100805790565b90611b45565b611b6d9291906001600160a01b0380831690821611611bb2575b90036001600160a01b031690612072565b90611ba1565b906001600160801b0381166001600160801b038316105f146117de575090565b92949391936060611be88161027c565b608052600260805152601f198101366020608051013760805191611c0b8261027c565b60c052600260c05152601f19820136602060c051013760c05190611c2e8361027c565b6002815293601f198401366020870137611c4a610532896102c4565b611c53866102c4565b6001600160a01b039091169052611c6c610532896102e5565b611c75866102e5565b6001600160a01b039091169052611c8b886102c4565b5160020b611c9a6080516102c4565b52611ca4886102e5565b5160020b611cb36080516102e5565b52611ce5876001600160a01b03611cc9886102c4565b51166001600160a01b03611cdc896102e5565b5116908d6117f7565b611cf060c0516102e5565b52611cfc60c0516102c4565b52611d068461027c565b6002815296601f1985013660208a0137611d238b8860c05161239b565b611d2c896102c4565b52611d46611d398a6102c4565b5160020b6104378c61031d565b60a0525b611d63611d568a6102c4565b5160020b6104188c61031d565b60020b60a05160020b136120155790888a94939287878e8c611d87611d39876102e5565b8d611da28c610418611d988b6102e5565b5160020b9161031d565b60020b908260020b918213611ff057908c92918160a05160020b12801590611fce575b611f9f57611dd460a0516113ec565b611ddd896102c4565b6001600160a01b039091169052611df3836113ec565b611dfc896102e5565b6001600160a01b039182169052611e12896102c4565b516001600160a01b0388169116811180159190611fb1575b50611f9f57611e746001600160a01b03611e438a6102c4565b51166001600160a01b03611e568b6102e5565b5116611e61846102c4565b5190611e6c856102e5565b51928a61175c565b916001600160801b03831615611f1357611eef87611e918a61027c565b6002815293601f198b01366020870137611ed5868d6001600160a01b03611eb7826102c4565b5116906001600160a01b0390611ecc906102e5565b511690856117f7565b611ede876102e5565b52611ee8866102c4565b528461239b565b611ef8876102e5565b52611f02866102e5565b51611f0c876102c4565b5110611f2e575b505050611f26611da292611d9892610348565b915050611d87565b611d9893995091611f74611da29592611f269460a05160020b611f526080516102c4565b52611f5e6080516102e5565b52611f68816102c4565b51610cba60c0516102c4565b51611f8060c0516102e5565b5298611f8b866102e5565b51611f95876102c4565b5292819450611f13565b5050611f26611da292611d9892610348565b90506001600160a01b03611fc48a6102e5565b511611155f611e2a565b50620d89e71960a05160020b1380159015611dc55750620d89e8821215611dc5565b505050505050509392919450506120098a60a051610348565b60a05291929092611d4a565b9850985094509450505050565b5f91905f19828209918082029384808510940393808503941461206857600160601b8410156120655750600160601b910990828211900360a01b910360601c1790565b80fd5b5050505060601c90565b5f19600160601b8209918160601b918280851094039380850394146120f35783821115610080578190600160601b900981805f03168092046002816003021880820260020302808202600203028082026002030280820260020302808202600203028091026002030293600183805f03040190848311900302920304170290565b5080925015610080570490565b5f19670de0b6b3a7640000820991670de0b6b3a76400008202918280851094039380850394146120f3578382111561008057670de0b6b3a764000082910981805f03168092046002816003021880820260020302808202600203028082026002030280820260020302808202600203028091026002030293600183805f03040190848311900302920304170290565b5f91905f1982820991808202938480851094039380850394146121d257600160c01b8410156120655750600160c01b910990828211900360401b910360c01c1790565b5050505060c01c90565b5f915f19818309918181029384808510940393808503941461221f5783600160401b1115612065575090600160401b910990828211900360c01b910360401c1790565b5050505060401c90565b5f91905f19828209918082029384808510940393808503941461226c57600160801b8410156120655750600160801b910990828211900360801b910360801c1790565b5050505060801c90565b915f1982840992828102928380861095039480860395146122ed57848311156100805782910981805f03168092046002816003021880820260020302808202600203028082026002030280820260020302808202600203028091026002030293600183805f03040190848311900302920304170290565b505080925015610080570490565b6110f992916001600160801b03916001600160a01b038083169082161161232f575b90036001600160a01b03169116612022565b9061231d565b916001600160a01b0382811690841611612393575b61237d916001600160a01b038082169291859003169060601b6fffffffffffffffffffffffffffffffff60601b16612276565b6001600160a01b039091169081156110c1570490565b90919061234a565b916123aa816123b09394612412565b92612412565b80156123bf576110f991612100565b50505f90565b9081156123bf576001600160a01b03166001600160801b038111156123f857906123f2826110f9936121dc565b90612229565b80800290808204811490151715610309576110f99161218f565b9061242961242f91612423846102c4565b516123c5565b916102e5565b518101809111610309579056fea26469706673582212200c74827953a1d244c7b65270745350bd34b316c30234da016092860dd9dc56cc64736f6c634300081e0033",
  "linkReferences": {},
  "deployedLinkReferences": {}
}