{"abi":[{"type":"constructor","inputs":[{"name":"_olas","type":"address","internalType":"address"},{"name":"_l1Dispenser","type":"address","internalType":"address"},{"name":"_l1TokenRelayer","type":"address","internalType":"address"},{"name":"_l1MessageRelayer","type":"address","internalType":"address"},{"name":"_l2TargetChainId","type":"uint256","internalType":"uint256"},{"name":"_olasL2","type":"address","internalType":"address"}],"stateMutability":"nonpayable"},{"type":"function","name":"BRIDGE_PAYLOAD_LENGTH","inputs":[],"outputs":[{"name":"","type":"uint256","internalType":"uint256"}],"stateMutability":"view"},{"type":"function","name":"MAX_CHAIN_ID","inputs":[],"outputs":[{"name":"","type":"uint256","internalType":"uint256"}],"stateMutability":"view"},{"type":"function","name":"MESSAGE_GAS_LIMIT","inputs":[],"outputs":[{"name":"","type":"uint256","internalType":"uint256"}],"stateMutability":"view"},{"type":"function","name":"RECEIVE_MESSAGE","inputs":[],"outputs":[{"name":"","type":"bytes4","internalType":"bytes4"}],"stateMutability":"view"},{"type":"function","name":"TOKEN_GAS_LIMIT","inputs":[],"outputs":[{"name":"","type":"uint256","internalType":"uint256"}],"stateMutability":"view"},{"type":"function","name":"getBridgingDecimals","inputs":[],"outputs":[{"name":"","type":"uint256","internalType":"uint256"}],"stateMutability":"pure"},{"type":"function","name":"l1Dispenser","inputs":[],"outputs":[{"name":"","type":"address","internalType":"address"}],"stateMutability":"view"},{"type":"function","name":"l1MessageRelayer","inputs":[],"outputs":[{"name":"","type":"address","internalType":"address"}],"stateMutability":"view"},{"type":"function","name":"l1TokenRelayer","inputs":[],"outputs":[{"name":"","type":"address","internalType":"address"}],"stateMutability":"view"},{"type":"function","name":"l2TargetChainId","inputs":[],"outputs":[{"name":"","type":"uint256","internalType":"uint256"}],"stateMutability":"view"},{"type":"function","name":"l2TargetDispenser","inputs":[],"outputs":[{"name":"","type":"address","internalType":"address"}],"stateMutability":"view"},{"type":"function","name":"olas","inputs":[],"outputs":[{"name":"","type":"address","internalType":"address"}],"stateMutability":"view"},{"type":"function","name":"olasL2","inputs":[],"outputs":[{"name":"","type":"address","internalType":"address"}],"stateMutability":"view"},{"type":"function","name":"owner","inputs":[],"outputs":[{"name":"","type":"address","internalType":"address"}],"stateMutability":"view"},{"type":"function","name":"processedHashes","inputs":[{"name":"","type":"bytes32","internalType":"bytes32"}],"outputs":[{"name":"","type":"bool","internalType":"bool"}],"stateMutability":"view"},{"type":"function","name":"receiveMessage","inputs":[{"name":"data","type":"bytes","internalType":"bytes"}],"outputs":[],"stateMutability":"payable"},{"type":"function","name":"sendMessage","inputs":[{"name":"target","type":"address","internalType":"address"},{"name":"stakingIncentive","type":"uint256","internalType":"uint256"},{"name":"bridgePayload","type":"bytes","internalType":"bytes"},{"name":"transferAmount","type":"uint256","internalType":"uint256"}],"outputs":[],"stateMutability":"payable"},{"type":"function","name":"sendMessageBatch","inputs":[{"name":"targets","type":"address[]","internalType":"address[]"},{"name":"stakingIncentives","type":"uint256[]","internalType":"uint256[]"},{"name":"bridgePayload","type":"bytes","internalType":"bytes"},{"name":"transferAmount","type":"uint256","internalType":"uint256"}],"outputs":[],"stateMutability":"payable"},{"type":"function","name":"setL2TargetDispenser","inputs":[{"name":"l2Dispenser","type":"address","internalType":"address"}],"outputs":[],"stateMutability":"nonpayable"},{"type":"function","name":"stakingBatchNonce","inputs":[],"outputs":[{"name":"","type":"uint256","internalType":"uint256"}],"stateMutability":"view"},{"type":"function","name":"updateHashMaintenance","inputs":[{"name":"batchHash","type":"bytes32","internalType":"bytes32"}],"outputs":[],"stateMutability":"nonpayable"},{"type":"event","name":"L2TargetDispenserUpdated","inputs":[{"name":"l2TargetDispenser","type":"address","indexed":true,"internalType":"address"}],"anonymous":false},{"type":"event","name":"LeftoversRefunded","inputs":[{"name":"sender","type":"address","indexed":true,"internalType":"address"},{"name":"leftovers","type":"uint256","indexed":false,"internalType":"uint256"}],"anonymous":false},{"type":"event","name":"MessagePosted","inputs":[{"name":"sequence","type":"uint256","indexed":true,"internalType":"uint256"},{"name":"targets","type":"address[]","indexed":false,"internalType":"address[]"},{"name":"stakingIncentives","type":"uint256[]","indexed":false,"internalType":"uint256[]"},{"name":"transferAmount","type":"uint256","indexed":false,"internalType":"uint256"},{"name":"batchHash","type":"bytes32","indexed":true,"internalType":"bytes32"}],"anonymous":false},{"type":"event","name":"MessageReceived","inputs":[{"name":"l1Relayer","type":"address","indexed":true,"internalType":"address"},{"name":"chainId","type":"uint256","indexed":true,"internalType":"uint256"},{"name":"data","type":"bytes","indexed":false,"internalType":"bytes"}],"anonymous":false},{"type":"error","name":"AlreadyDelivered","inputs":[{"name":"deliveryHash","type":"bytes32","internalType":"bytes32"}]},{"type":"error","name":"IncorrectDataLength","inputs":[{"name":"expected","type":"uint256","internalType":"uint256"},{"name":"provided","type":"uint256","internalType":"uint256"}]},{"type":"error","name":"InsufficientBalance","inputs":[{"name":"provided","type":"uint256","internalType":"uint256"},{"name":"expected","type":"uint256","internalType":"uint256"}]},{"type":"error","name":"LowerThan","inputs":[{"name":"provided","type":"uint256","internalType":"uint256"},{"name":"expected","type":"uint256","internalType":"uint256"}]},{"type":"error","name":"ManagerOnly","inputs":[{"name":"sender","type":"address","internalType":"address"},{"name":"manager","type":"address","internalType":"address"}]},{"type":"error","name":"Overflow","inputs":[{"name":"provided","type":"uint256","internalType":"uint256"},{"name":"max","type":"uint256","internalType":"uint256"}]},{"type":"error","name":"OwnerOnly","inputs":[{"name":"sender","type":"address","internalType":"address"},{"name":"owner","type":"address","internalType":"address"}]},{"type":"error","name":"Paused","inputs":[]},{"type":"error","name":"ReentrancyGuard","inputs":[]},{"type":"error","name":"TargetAmountNotQueued","inputs":[{"name":"target","type":"address","internalType":"address"},{"name":"amount","type":"uint256","internalType":"uint256"},{"name":"batchHash","type":"bytes32","internalType":"bytes32"}]},{"type":"error","name":"TargetRelayerOnly","inputs":[{"name":"provided","type":"address","internalType":"address"},{"name":"expected","type":"address","internalType":"address"}]},{"type":"error","name":"TransferFailed","inputs":[{"name":"token","type":"address","internalType":"address"},{"name":"from","type":"address","internalType":"address"},{"name":"to","type":"address","internalType":"address"},{"name":"amount","type":"uint256","internalType":"uint256"}]},{"type":"error","name":"Unpaused","inputs":[]},{"type":"error","name":"WrongAccount","inputs":[{"name":"account","type":"address","internalType":"address"}]},{"type":"error","name":"WrongAmount","inputs":[{"name":"provided","type":"uint256","internalType":"uint256"},{"name":"expected","type":"uint256","internalType":"uint256"}]},{"type":"error","name":"WrongChainId","inputs":[{"name":"provided","type":"uint256","internalType":"uint256"},{"name":"expected","type":"uint256","internalType":"uint256"}]},{"type":"error","name":"WrongMessageSender","inputs":[{"name":"provided","type":"address","internalType":"address"},{"name":"expected","type":"address","internalType":"address"}]},{"type":"error","name":"WrongTokenAddress","inputs":[{"name":"provided","type":"address","internalType":"address"},{"name":"expected","type":"address","internalType":"address"}]},{"type":"error","name":"ZeroAddress","inputs":[]},{"type":"error","name":"ZeroValue","inputs":[]}],"bytecode":{"object":"0x610140346101cb57601f61123838819003918201601f19168301916001600160401b038311848410176101cf5780849260c0946040528339810103126101cb57610048816101e3565b90610055602082016101e3565b610061604083016101e3565b61006d606084016101e3565b9161007f60a0608086015195016101e3565b946001600160a01b0382161580156101ba575b80156101a9575b61017557841561019a5760256001603f1b03808611610184575060805260a05260c05260e05261010052600180546001600160a01b031916331790556001600160a01b03811615610175576101205260405161104090816101f88239608051818181610afc0152610efa015260a05181818161026001528181610397015281816105180152818161068a0152610810015260c05181818161091d0152610ec9015260e05181818161015f01528181610a8c0152610ddc0152610100518181816101c001526104040152610120518181816108b10152610f6c0152f35b63d92e233d60e01b5f5260045ffd5b85637ae5968560e01b5f5260045260245260445ffd5b637c946ed760e01b5f5260045ffd5b506001600160a01b03841615610099565b506001600160a01b03831615610092565b5f80fd5b634e487b7160e01b5f52604160045260245ffd5b51906001600160a01b03821682036101cb5756fe6080806040526004361015610012575f80fd5b5f905f3560e01c90816231d11514610aea5750806307d9c53414610abb5780633d1f867914610a775780634c1c6cbf14610a5a5780634ece6b1714610a4057806354d20cc214610a1357806354e4bbf41461096e5780635bc105c01461094c5780636143fe93146109085780638da5cb5b146108e0578063a0726ffa1461089c578063a8b2ae0214610881578063ac65ded2146107fa578063b2267a7b14610655578063bde5266114610427578063c23cc3ff146103ed578063e309fb77146103c6578063f2541c3514610382578063f4427c2c14610365578063f953cec7146101245763f9fc3c2114610104575f80fd5b346101215780600319360112610121576020604051621e84808152f35b80fd5b5060203660031901126102df576004356001600160401b0381116102df57610150903690600401610bcc565b604051636e296e4560e01b81527f00000000000000000000000000000000000000000000000000000000000000006001600160a01b0316602082600481845afa9182156102d4575f92610321575b5080330361030b57505f546001600160a01b0390811691168181036102f657507f000000000000000000000000000000000000000000000000000000000000000080917f98bbde530ec85b002f6fb0864beccaaf3ac3d2a4ac35cb3b03cf7c61ee415e3360405160208152806102176020820188610d16565b0390a36040828051810103126102df576040602083015192015191825f52600360205260ff60405f2054166102e3575f838152600360205260409020805460ff191660011790557f00000000000000000000000000000000000000000000000000000000000000006001600160a01b0316803b156102df575f928360649260405196879586946379bc81dd60e01b86526004860152602485015260448401525af180156102d4576102c6575080f35b6102d291505f90610b2b565b005b6040513d5f823e3d90fd5b5f80fd5b826356bc34a160e01b5f5260045260245ffd5b630d16cbdd60e01b5f5260045260245260445ffd5b63179888fd60e11b5f523360045260245260445ffd5b9091506020813d60201161035d575b8161033d60209383610b2b565b810103126102df57516001600160a01b03811681036102df57905f61019e565b3d9150610330565b346102df575f3660031901126102df576020600254604051908152f35b346102df575f3660031901126102df576040517f00000000000000000000000000000000000000000000000000000000000000006001600160a01b03168152602090f35b346102df575f3660031901126102df575f546040516001600160a01b039091168152602090f35b346102df575f3660031901126102df5760206040517f00000000000000000000000000000000000000000000000000000000000000008152f35b60803660031901126102df576004356001600160401b0381116102df57366023820112156102df57806004013561045d81610c12565b9161046b6040519384610b2b565b8183526024602084019260051b820101903682116102df57602401915b81831061063557836024356001600160401b0381116102df57366023820112156102df578060040135906104bb82610c12565b916104c96040519384610b2b565b8083526024602084019160051b830101913683116102df57602401905b828210610625575050506044356001600160401b0381116102df5761050f903690600401610bcc565b606435929091907f00000000000000000000000000000000000000000000000000000000000000006001600160a01b03163381900361060f575060025460408051602081018381524692820192909252306060820152919486949392610594929061058781608081015b03601f198101835282610b2b565b5190209687918585610d3a565b809591956105f7575b50600181018091116105e3577f621aece9999edf4d664a3855f668f6fc380937a42044234fd883b42d04851187936105de9160025560405193849384610ce8565b0390a3005b634e487b7160e01b5f52601160045260245ffd5b5f80808093325af150610608610c4a565b508661059d565b63312d21ff60e11b5f526004523360245260445ffd5b81358152602091820191016104e6565b82356001600160a01b03811681036102df57815260209283019201610488565b60803660031901126102df57610669610bb6565b6044356001600160401b0381116102df57610688903690600401610bcc565b7f00000000000000000000000000000000000000000000000000000000000000006001600160a01b0316916064359190338490036107e3578293506040918251906106d38483610b2b565b60018252601f19840192833660208501376106ed83610c29565b6001600160a01b0390911690528351926107078585610b2b565b6001845236602085013760243561071d84610c29565b52600254845160208101828152466040830152306060830152919261075892909161074b8160808101610579565b5190209788918686610d3a565b809691966107a0575b50600182018092116105e3577f621aece9999edf4d664a3855f668f6fc380937a42044234fd883b42d04851187946105de926002555193849384610ce8565b5f80808084325af1506107b1610c4a565b5085519081527f8e49ed3e274fbea1556bdfaa9a37a0c28445bfe26d57beaf9f04fd517aa4174160203292a287610761565b8363312d21ff60e11b5f526004523360245260445ffd5b346102df5760203660031901126102df576004357f00000000000000000000000000000000000000000000000000000000000000006001600160a01b03163381900361060f5750805f52600360205260ff60405f20541661086f575f908152600360205260409020805460ff19166001179055005b6356bc34a160e01b5f5260045260245ffd5b346102df575f3660031901126102df57602060405160128152f35b346102df575f3660031901126102df576040517f00000000000000000000000000000000000000000000000000000000000000006001600160a01b03168152602090f35b346102df575f3660031901126102df576001546040516001600160a01b039091168152602090f35b346102df575f3660031901126102df576040517f00000000000000000000000000000000000000000000000000000000000000006001600160a01b03168152602090f35b346102df575f3660031901126102df576020604051677fffffffffffffdb8152f35b346102df5760203660031901126102df57610987610bb6565b600154906001600160a01b038216338190036109fd57506001600160a01b03169081156109ee575f80546001600160a01b031990811684178255919091166001557f991aa5c8f67a92f8feb202de828958c681966ae343fcf6db040f5f8099d547cf9080a2005b63d92e233d60e01b5f5260045ffd5b63521eb56d60e11b5f526004523360245260445ffd5b346102df575f3660031901126102df576020610a2d610b7b565b6040516001600160e01b03199091168152f35b346102df575f3660031901126102df576020604051818152f35b346102df575f3660031901126102df576020604051620493e08152f35b346102df575f3660031901126102df576040517f00000000000000000000000000000000000000000000000000000000000000006001600160a01b03168152602090f35b346102df5760203660031901126102df576004355f526003602052602060ff60405f2054166040519015158152f35b346102df575f3660031901126102df577f00000000000000000000000000000000000000000000000000000000000000006001600160a01b03168152602090f35b90601f801991011681019081106001600160401b03821117610b4c57604052565b634e487b7160e01b5f52604160045260245ffd5b6001600160401b038111610b4c57601f01601f191660200190565b6020604051610b8b604082610b2b565b6015815274726563656976654d6573736167652862797465732960581b91015263f953cec760e01b90565b600435906001600160a01b03821682036102df57565b81601f820112156102df57803590610be382610b60565b92610bf16040519485610b2b565b828452602083830101116102df57815f926020809301838601378301015290565b6001600160401b038111610b4c5760051b60200190565b805115610c365760200190565b634e487b7160e01b5f52603260045260245ffd5b3d15610c74573d90610c5b82610b60565b91610c696040519384610b2b565b82523d5f602084013e565b606090565b90602080835192838152019201905f5b818110610c965750505090565b82516001600160a01b0316845260209384019390920191600101610c89565b90602080835192838152019201905f5b818110610cd25750505090565b8251845260209384019390920191600101610cc5565b939291610d1190610d03604093606088526060880190610c79565b908682036020880152610cb5565b930152565b805180835260209291819084018484015e5f828201840152601f01601f1916010190565b5f9380610eb2575b508392805160208114610e8c575b5050621e84808310610e81575b610d8b91610db1610dd092610d9d610d73610b7b565b93604051968793606060208601526080850190610c79565b838103601f1901604085015290610cb5565b88606083015203601f198101855284610b2b565b6105796040519384926020840152602060248401526044830190610d16565b82546001600160a01b037f0000000000000000000000000000000000000000000000000000000000000000811693911690833b15610e7d5792849283610e409363ffffffff9660405197889687958694633dbb202b60e01b86526004860152606060248601526064850190610d16565b9116604483015203925af18015610e7257610e5d575b5050903490565b610e68828092610b2b565b6101215780610e56565b6040513d84823e3d90fd5b8480fd5b621e84809250610d5d565b819294509060209181010312610eae576020015163ffffffff16915f80610d50565b8380fd5b60405163095ea7b360e01b81526001600160a01b037f0000000000000000000000000000000000000000000000000000000000000000811660048301819052602483018490527f0000000000000000000000000000000000000000000000000000000000000000909116916020816044815f875af180156102d457610fd3575b505f546001600160a01b031690803b156102df575f928360e492604051968795869463041c592960e51b8652600486015260018060a01b037f000000000000000000000000000000000000000000000000000000000000000016602486015260448501526064840152620493e0608484015260c060a48401528160c48401525af180156102d45715610d4257610fcb9194505f90610b2b565b5f925f610d42565b6020813d602011611002575b81610fec60209383610b2b565b810103126102df57518015158114610f32575f80fd5b3d9150610fdf56fea2646970667358221220288efd3562a05f785470f409c96c8191b1811736057744efdb901e971e04695a64736f6c634300081e0033","linkReferences":{}},"methodIdentifiers":{"BRIDGE_PAYLOAD_LENGTH()":"4ece6b17","MAX_CHAIN_ID()":"5bc105c0","MESSAGE_GAS_LIMIT()":"f9fc3c21","RECEIVE_MESSAGE()":"54d20cc2","TOKEN_GAS_LIMIT()":"4c1c6cbf","getBridgingDecimals()":"a8b2ae02","l1Dispenser()":"f2541c35","l1MessageRelayer()":"3d1f8679","l1TokenRelayer()":"6143fe93","l2TargetChainId()":"c23cc3ff","l2TargetDispenser()":"e309fb77","olas()":"0031d115","olasL2()":"a0726ffa","owner()":"8da5cb5b","processedHashes(bytes32)":"07d9c534","receiveMessage(bytes)":"f953cec7","sendMessage(address,uint256,bytes,uint256)":"b2267a7b","sendMessageBatch(address[],uint256[],bytes,uint256)":"bde52661","setL2TargetDispenser(address)":"54e4bbf4","stakingBatchNonce()":"f4427c2c","updateHashMaintenance(bytes32)":"ac65ded2"},"id":39}