{"abi":[{"type":"constructor","inputs":[{"name":"_olas","type":"address","internalType":"address"},{"name":"_proxyFactory","type":"address","internalType":"address"},{"name":"_l2MessageRelayer","type":"address","internalType":"address"},{"name":"_l1DepositProcessor","type":"address","internalType":"address"},{"name":"_l1SourceChainId","type":"uint256","internalType":"uint256"}],"stateMutability":"nonpayable"},{"type":"receive","stateMutability":"payable"},{"type":"function","name":"BRIDGE_PAYLOAD_LENGTH","inputs":[],"outputs":[{"name":"","type":"uint256","internalType":"uint256"}],"stateMutability":"view"},{"type":"function","name":"MAX_CHAIN_ID","inputs":[],"outputs":[{"name":"","type":"uint256","internalType":"uint256"}],"stateMutability":"view"},{"type":"function","name":"MAX_GAS_LIMIT","inputs":[],"outputs":[{"name":"","type":"uint256","internalType":"uint256"}],"stateMutability":"view"},{"type":"function","name":"MIN_GAS_LIMIT","inputs":[],"outputs":[{"name":"","type":"uint256","internalType":"uint256"}],"stateMutability":"view"},{"type":"function","name":"RECEIVE_MESSAGE","inputs":[],"outputs":[{"name":"","type":"bytes4","internalType":"bytes4"}],"stateMutability":"view"},{"type":"function","name":"changeOwner","inputs":[{"name":"newOwner","type":"address","internalType":"address"}],"outputs":[],"stateMutability":"nonpayable"},{"type":"function","name":"drain","inputs":[],"outputs":[{"name":"amount","type":"uint256","internalType":"uint256"}],"stateMutability":"nonpayable"},{"type":"function","name":"getBridgingDecimals","inputs":[],"outputs":[{"name":"","type":"uint256","internalType":"uint256"}],"stateMutability":"pure"},{"type":"function","name":"l1DepositProcessor","inputs":[],"outputs":[{"name":"","type":"address","internalType":"address"}],"stateMutability":"view"},{"type":"function","name":"l1SourceChainId","inputs":[],"outputs":[{"name":"","type":"uint256","internalType":"uint256"}],"stateMutability":"view"},{"type":"function","name":"l2MessageRelayer","inputs":[],"outputs":[{"name":"","type":"address","internalType":"address"}],"stateMutability":"view"},{"type":"function","name":"migrate","inputs":[{"name":"newL2TargetDispenser","type":"address","internalType":"address"}],"outputs":[],"stateMutability":"nonpayable"},{"type":"function","name":"olas","inputs":[],"outputs":[{"name":"","type":"address","internalType":"address"}],"stateMutability":"view"},{"type":"function","name":"owner","inputs":[],"outputs":[{"name":"","type":"address","internalType":"address"}],"stateMutability":"view"},{"type":"function","name":"pause","inputs":[],"outputs":[],"stateMutability":"nonpayable"},{"type":"function","name":"paused","inputs":[],"outputs":[{"name":"","type":"uint8","internalType":"uint8"}],"stateMutability":"view"},{"type":"function","name":"processDataMaintenance","inputs":[{"name":"data","type":"bytes","internalType":"bytes"},{"name":"updateWithheldAmount","type":"bool","internalType":"bool"}],"outputs":[],"stateMutability":"nonpayable"},{"type":"function","name":"processedHashes","inputs":[{"name":"","type":"bytes32","internalType":"bytes32"}],"outputs":[{"name":"","type":"bool","internalType":"bool"}],"stateMutability":"view"},{"type":"function","name":"queuedHashes","inputs":[{"name":"","type":"bytes32","internalType":"bytes32"}],"outputs":[{"name":"","type":"bool","internalType":"bool"}],"stateMutability":"view"},{"type":"function","name":"receiveMessage","inputs":[{"name":"data","type":"bytes","internalType":"bytes"}],"outputs":[],"stateMutability":"payable"},{"type":"function","name":"redeem","inputs":[{"name":"target","type":"address","internalType":"address"},{"name":"amount","type":"uint256","internalType":"uint256"},{"name":"batchHash","type":"bytes32","internalType":"bytes32"}],"outputs":[],"stateMutability":"nonpayable"},{"type":"function","name":"stakingBatchNonce","inputs":[],"outputs":[{"name":"","type":"uint256","internalType":"uint256"}],"stateMutability":"view"},{"type":"function","name":"stakingFactory","inputs":[],"outputs":[{"name":"","type":"address","internalType":"address"}],"stateMutability":"view"},{"type":"function","name":"syncWithheldAmount","inputs":[{"name":"bridgePayload","type":"bytes","internalType":"bytes"}],"outputs":[],"stateMutability":"payable"},{"type":"function","name":"unpause","inputs":[],"outputs":[],"stateMutability":"nonpayable"},{"type":"function","name":"updateWithheldAmountMaintenance","inputs":[{"name":"amount","type":"uint256","internalType":"uint256"}],"outputs":[],"stateMutability":"nonpayable"},{"type":"function","name":"withheldAmount","inputs":[],"outputs":[{"name":"","type":"uint256","internalType":"uint256"}],"stateMutability":"view"},{"type":"event","name":"AmountWithheld","inputs":[{"name":"target","type":"address","indexed":true,"internalType":"address"},{"name":"amount","type":"uint256","indexed":false,"internalType":"uint256"}],"anonymous":false},{"type":"event","name":"Drain","inputs":[{"name":"owner","type":"address","indexed":true,"internalType":"address"},{"name":"amount","type":"uint256","indexed":false,"internalType":"uint256"}],"anonymous":false},{"type":"event","name":"FundsReceived","inputs":[{"name":"sender","type":"address","indexed":true,"internalType":"address"},{"name":"value","type":"uint256","indexed":false,"internalType":"uint256"}],"anonymous":false},{"type":"event","name":"LeftoversRefunded","inputs":[{"name":"sender","type":"address","indexed":true,"internalType":"address"},{"name":"leftovers","type":"uint256","indexed":false,"internalType":"uint256"}],"anonymous":false},{"type":"event","name":"MessagePosted","inputs":[{"name":"sequence","type":"uint256","indexed":true,"internalType":"uint256"},{"name":"messageSender","type":"address","indexed":true,"internalType":"address"},{"name":"amount","type":"uint256","indexed":false,"internalType":"uint256"},{"name":"batchHash","type":"bytes32","indexed":true,"internalType":"bytes32"}],"anonymous":false},{"type":"event","name":"MessageReceived","inputs":[{"name":"sender","type":"address","indexed":true,"internalType":"address"},{"name":"chainId","type":"uint256","indexed":false,"internalType":"uint256"},{"name":"data","type":"bytes","indexed":false,"internalType":"bytes"}],"anonymous":false},{"type":"event","name":"Migrated","inputs":[{"name":"sender","type":"address","indexed":true,"internalType":"address"},{"name":"newL2TargetDispenser","type":"address","indexed":true,"internalType":"address"},{"name":"amount","type":"uint256","indexed":false,"internalType":"uint256"}],"anonymous":false},{"type":"event","name":"OwnerUpdated","inputs":[{"name":"owner","type":"address","indexed":true,"internalType":"address"}],"anonymous":false},{"type":"event","name":"StakingMaintenanceDataProcessed","inputs":[{"name":"data","type":"bytes","indexed":false,"internalType":"bytes"}],"anonymous":false},{"type":"event","name":"StakingRequestQueued","inputs":[{"name":"queueHash","type":"bytes32","indexed":true,"internalType":"bytes32"},{"name":"target","type":"address","indexed":true,"internalType":"address"},{"name":"amount","type":"uint256","indexed":false,"internalType":"uint256"},{"name":"batchHash","type":"bytes32","indexed":true,"internalType":"bytes32"},{"name":"olasBalance","type":"uint256","indexed":false,"internalType":"uint256"},{"name":"paused","type":"uint256","indexed":false,"internalType":"uint256"}],"anonymous":false},{"type":"event","name":"StakingTargetDeposited","inputs":[{"name":"target","type":"address","indexed":true,"internalType":"address"},{"name":"amount","type":"uint256","indexed":false,"internalType":"uint256"},{"name":"batchHash","type":"bytes32","indexed":true,"internalType":"bytes32"}],"anonymous":false},{"type":"event","name":"TargetDispenserPaused","inputs":[],"anonymous":false},{"type":"event","name":"TargetDispenserUnpaused","inputs":[],"anonymous":false},{"type":"event","name":"WithheldAmountUpdated","inputs":[{"name":"amount","type":"uint256","indexed":false,"internalType":"uint256"}],"anonymous":false},{"type":"error","name":"AlreadyDelivered","inputs":[{"name":"deliveryHash","type":"bytes32","internalType":"bytes32"}]},{"type":"error","name":"IncorrectDataLength","inputs":[{"name":"expected","type":"uint256","internalType":"uint256"},{"name":"provided","type":"uint256","internalType":"uint256"}]},{"type":"error","name":"InsufficientBalance","inputs":[{"name":"provided","type":"uint256","internalType":"uint256"},{"name":"expected","type":"uint256","internalType":"uint256"}]},{"type":"error","name":"LowerThan","inputs":[{"name":"provided","type":"uint256","internalType":"uint256"},{"name":"expected","type":"uint256","internalType":"uint256"}]},{"type":"error","name":"ManagerOnly","inputs":[{"name":"sender","type":"address","internalType":"address"},{"name":"manager","type":"address","internalType":"address"}]},{"type":"error","name":"Overflow","inputs":[{"name":"provided","type":"uint256","internalType":"uint256"},{"name":"max","type":"uint256","internalType":"uint256"}]},{"type":"error","name":"OwnerOnly","inputs":[{"name":"sender","type":"address","internalType":"address"},{"name":"owner","type":"address","internalType":"address"}]},{"type":"error","name":"Paused","inputs":[]},{"type":"error","name":"ReentrancyGuard","inputs":[]},{"type":"error","name":"TargetAmountNotQueued","inputs":[{"name":"target","type":"address","internalType":"address"},{"name":"amount","type":"uint256","internalType":"uint256"},{"name":"batchHash","type":"bytes32","internalType":"bytes32"}]},{"type":"error","name":"TargetRelayerOnly","inputs":[{"name":"provided","type":"address","internalType":"address"},{"name":"expected","type":"address","internalType":"address"}]},{"type":"error","name":"TransferFailed","inputs":[{"name":"token","type":"address","internalType":"address"},{"name":"from","type":"address","internalType":"address"},{"name":"to","type":"address","internalType":"address"},{"name":"amount","type":"uint256","internalType":"uint256"}]},{"type":"error","name":"Unpaused","inputs":[]},{"type":"error","name":"WrongAccount","inputs":[{"name":"account","type":"address","internalType":"address"}]},{"type":"error","name":"WrongAmount","inputs":[{"name":"provided","type":"uint256","internalType":"uint256"},{"name":"expected","type":"uint256","internalType":"uint256"}]},{"type":"error","name":"WrongChainId","inputs":[{"name":"provided","type":"uint256","internalType":"uint256"},{"name":"expected","type":"uint256","internalType":"uint256"}]},{"type":"error","name":"WrongMessageSender","inputs":[{"name":"provided","type":"address","internalType":"address"},{"name":"expected","type":"address","internalType":"address"}]},{"type":"error","name":"WrongTokenAddress","inputs":[{"name":"provided","type":"address","internalType":"address"},{"name":"expected","type":"address","internalType":"address"}]},{"type":"error","name":"ZeroAddress","inputs":[]},{"type":"error","name":"ZeroValue","inputs":[]}],"bytecode":{"object":"0x610120604052348015610010575f5ffd5b5060405161246738038061246783398101604081905261002f916101aa565b84848484846001600160a01b038516158061005157506001600160a01b038416155b8061006357506001600160a01b038316155b8061007557506001600160a01b038216155b156100935760405163d92e233d60e01b815260040160405180910390fd5b805f036100b357604051637c946ed760e01b815260040160405180910390fd5b60246100c760026001600160401b03610204565b6100d1919061023e565b6001600160401b031681111561012f578060246100f660026001600160401b03610204565b610100919061023e565b604051637ae5968560e01b815260048101929092526001600160401b0316602482015260440160405180910390fd5b6001600160a01b0394851660805292841660a05290831660c05290911660e0526101005250506002805460ff60a81b1960ff60a01b1933166001600160a81b031990921691909117600160a01b1716600160a81b1790555061026f915050565b80516001600160a01b03811681146101a5575f5ffd5b919050565b5f5f5f5f5f60a086880312156101be575f5ffd5b6101c78661018f565b94506101d56020870161018f565b93506101e36040870161018f565b92506101f16060870161018f565b9150608086015190509295509295909350565b5f6001600160401b0383168061022857634e487b7160e01b5f52601260045260245ffd5b6001600160401b03929092169190910492915050565b6001600160401b03828116828216039081111561026957634e487b7160e01b5f52601160045260245ffd5b92915050565b60805160a05160c05160e051610100516121446103235f395f818161051b0152611b1f01525f81816102dd0152818161198001528181611a5e01528181611a980152611ad401525f81816102aa0152818161123701528181611953015281816119e80152611a2201525f8181610310015261141701525f81816101f501528181610cc701528181610d5b0152818161108a0152818161111f0152818161119f01528181611596015261164d01526121445ff3fe60806040526004361061016a575f3560e01c80635c975abb116100c95780639b7bb847116100785780639b7bb8471461050a578063a6f9dae11461053d578063a8b2ae021461055c578063ce5494bb1461056f578063e3f5aa511461058e578063f4427c2c146105a4578063f953cec7146105b9575f5ffd5b80635c975abb146104495780637424ddc81461047b5780637ce1ffeb1461048e5780638456cb59146104a45780638da5cb5b146104b85780639890220b146104d7578063992c3e4b146104eb575f5ffd5b806332cbdd211161012557806332cbdd21146103325780633f4ba83a146103535780634ece6b17146103675780634fa659581461038957806354d20cc2146103a85780635a7287cf146104215780635bc105c014610435575f5ffd5b806231d115146101e457806307d9c5341461022d5780631b2e7f0a1461026b5780631bad595714610299578063256359a8146102cc57806329134768146102ff575f5ffd5b366101e0576002546001600160a01b03166101a9575f33303460405163cd3f165960e01b81526004016101a09493929190611b65565b60405180910390fd5b60405134815233907f8e47b87b0ef542cdfa1659c551d88bad38aa7f452d2bbb349ab7530dfec8be8f9060200160405180910390a2005b5f5ffd5b3480156101ef575f5ffd5b506102177f000000000000000000000000000000000000000000000000000000000000000081565b6040516102249190611b8f565b60405180910390f35b348015610238575f5ffd5b5061025b610247366004611ba3565b60036020525f908152604090205460ff1681565b6040519015158152602001610224565b348015610276575f5ffd5b5061025b610285366004611ba3565b60046020525f908152604090205460ff1681565b3480156102a4575f5ffd5b506102177f000000000000000000000000000000000000000000000000000000000000000081565b3480156102d7575f5ffd5b506102177f000000000000000000000000000000000000000000000000000000000000000081565b34801561030a575f5ffd5b506102177f000000000000000000000000000000000000000000000000000000000000000081565b34801561033d575f5ffd5b5061035161034c366004611ba3565b6105cc565b005b34801561035e575f5ffd5b50610351610642565b348015610372575f5ffd5b5061037b602081565b604051908152602001610224565b348015610394575f5ffd5b506103516103a3366004611c79565b6106bb565b3480156103b3575f5ffd5b50604080518082019091526015815274726563656976654d6573736167652862797465732960581b6020909101526104087ff953cec75ae677942d7cda5cb6d12c0cb96a0904bf37d36301eef297b83c411d81565b6040516001600160e01b03199091168152602001610224565b34801561042c575f5ffd5b5061037b5f5481565b348015610440575f5ffd5b5061037b6107b9565b348015610454575f5ffd5b5060025461046990600160a01b900460ff1681565b60405160ff9091168152602001610224565b610351610489366004611cc7565b6107e3565b348015610499575f5ffd5b5061037b620493e081565b3480156104af575f5ffd5b506103516109f1565b3480156104c3575f5ffd5b50600254610217906001600160a01b031681565b3480156104e2575f5ffd5b5061037b610a6a565b3480156104f6575f5ffd5b50610351610505366004611d14565b610bc6565b348015610515575f5ffd5b5061037b7f000000000000000000000000000000000000000000000000000000000000000081565b348015610548575f5ffd5b50610351610557366004611d46565b610ec4565b348015610567575f5ffd5b50601261037b565b34801561057a575f5ffd5b50610351610589366004611d46565b610f70565b348015610599575f5ffd5b5061037b621e848081565b3480156105af575f5ffd5b5061037b60015481565b6103516105c7366004611cc7565b611234565b6002546001600160a01b031633146106085760025460405163521eb56d60e11b81526101a09133916001600160a01b0390911690600401611d68565b5f8190556040518181527fc72394635a1b67b1c2708140b8c308785562b0ccd995e86ac0e2f1791ca040e79060200160405180910390a150565b6002546001600160a01b0316331461067e5760025460405163521eb56d60e11b81526101a09133916001600160a01b0390911690600401611d68565b6002805460ff60a01b1916600160a01b1790556040517f20e9b9dbd8158c2b961d8645a7d06624a045634bb65f07ef751ae014a65f61f5905f90a1565b6002546001600160a01b031633146106f75760025460405163521eb56d60e11b81526101a09133916001600160a01b0390911690600401611d68565b5f61070283836112c6565b9050811561077d575f548082111561073757604051637ae5968560e01b815260048101839052602481018290526044016101a0565b6107418282611d96565b5f8190556040518181529091507fc72394635a1b67b1c2708140b8c308785562b0ccd995e86ac0e2f1791ca040e79060200160405180910390a1505b7f6c5612d5407f11b75444f1d65d69cd4e33f371e29b660ca8ceaba56b1953bfe4836040516107ac9190611ddd565b60405180910390a1505050565b60246107cd60026001600160401b03611e03565b6107d79190611e30565b6001600160401b031681565b6002546001600160a81b90910460ff161115610812576040516345f5ce8b60e11b815260040160405180910390fd5b6002805460ff60a81b198116600160a91b179091556001600160a01b031633146108605760025460405163521eb56d60e11b81526101a09133916001600160a01b0390911690600401611d68565b60028054600160a01b900460ff16900361088d576040516313d0ff5960e31b815260040160405180910390fd5b5f54601281805f036108b257604051637c946ed760e01b815260040160405180910390fd5b6108bc8184611d96565b5f908155600154604080516020810183905246918101919091523060608201529091906080016040516020818303038152906040528051906020012090505f5f610907858985611846565b9092509050801561098d57604051339082905f81818185875af1925050503d805f811461094f576040519150601f19603f3d011682016040523d82523d5f602084013e610954565b606091505b50506040518281523391507f8e49ed3e274fbea1556bdfaa9a37a0c28445bfe26d57beaf9f04fd517aa417419060200160405180910390a25b610998846001611e8e565b6001556040518581528390339084907f1ff6d173c1ebeb42f666a09b94f554cf43eadf8054fda3247f56c343baab28f79060200160405180910390a450506002805460ff60a81b1916600160a81b179055505050505050565b6002546001600160a01b03163314610a2d5760025460405163521eb56d60e11b81526101a09133916001600160a01b0390911690600401611d68565b6002805460ff60a01b1916600160a11b1790556040517f8ef6a6615a637325c66275a8d4cadb0844f08a758e5a9df369412975bcdcbc48905f90a1565b6002545f906001600160a81b90910460ff161115610a9b576040516345f5ce8b60e11b815260040160405180910390fd5b6002805460ff60a81b198116600160a91b179091556001600160a01b03163314610ae95760025460405163521eb56d60e11b81526101a09133916001600160a01b0390911690600401611d68565b479050805f03610b0c57604051637c946ed760e01b815260040160405180910390fd5b6040515f90339083908381818185875af1925050503d805f8114610b4b576040519150601f19603f3d011682016040523d82523d5f602084013e610b50565b606091505b5050905080610b7a575f30338460405163cd3f165960e01b81526004016101a09493929190611b65565b60405182815233907ff36f4d6622e16a536bbb049064af779cdd483a0b388d347d3752a65f1058bf5b9060200160405180910390a2506002805460ff60a81b1916600160a81b17905590565b6002546001600160a81b90910460ff161115610bf5576040516345f5ce8b60e11b815260040160405180910390fd5b6002805460ff60a81b1916600160a91b1780825560ff600160a01b909104169003610c33576040516313d0ff5960e31b815260040160405180910390fd5b5f8383834630604051602001610c4d959493929190611ea1565b60408051601f1981840301815291815281516020928301205f818152600490935291205490915060ff1680610cae576040516315c15ea560e11b81526001600160a01b038616600482015260248101859052604481018490526064016101a0565b6040516370a0823160e01b81525f906001600160a01b037f000000000000000000000000000000000000000000000000000000000000000016906370a0823190610cfc903090600401611b8f565b602060405180830381865afa158015610d17573d5f5f3e3d5ffd5b505050506040513d601f19601f82011682018060405250810190610d3b9190611ed1565b9050848110610e865760405163095ea7b360e01b81526001600160a01b037f0000000000000000000000000000000000000000000000000000000000000000169063095ea7b390610d929089908990600401611ee8565b6020604051808303815f875af1158015610dae573d5f5f3e3d5ffd5b505050506040513d601f19601f82011682018060405250810190610dd29190611f01565b5060405163b6b55f2560e01b8152600481018690526001600160a01b0387169063b6b55f25906024015f604051808303815f87803b158015610e12575f5ffd5b505af1158015610e24573d5f5f3e3d5ffd5b5050505083866001600160a01b03167f22ab9fd8eb5063f7f3cb43c78f5d368aea9a51855ada00fa146687ef2c32198087604051610e6491815260200190565b60405180910390a35f838152600460205260409020805460ff19169055610ea9565b60405163cf47918160e01b815260048101829052602481018690526044016101a0565b50506002805460ff60a81b1916600160a81b17905550505050565b6002546001600160a01b03163314610f005760025460405163521eb56d60e11b81526101a09133916001600160a01b0390911690600401611d68565b6001600160a01b038116610f275760405163d92e233d60e01b815260040160405180910390fd5b600280546001600160a01b0319166001600160a01b0383169081179091556040517f4ffd725fc4a22075e9ec71c59edf9c38cdeb588a91b24fc5b61388c5be41282b905f90a250565b6002546001600160a81b90910460ff161115610f9f576040516345f5ce8b60e11b815260040160405180910390fd5b6002805460ff60a81b198116600160a91b179091556001600160a01b03163314610fed5760025460405163521eb56d60e11b81526101a09133916001600160a01b0390911690600401611d68565b600254600160a01b900460ff1660010361101a5760405163a45f47fd60e01b815260040160405180910390fd5b806001600160a01b03163b5f036110465780604051631c7025f960e11b81526004016101a09190611b8f565b306001600160a01b038216036110715730604051631c7025f960e11b81526004016101a09190611b8f565b6040516370a0823160e01b81525f906001600160a01b037f000000000000000000000000000000000000000000000000000000000000000016906370a08231906110bf903090600401611b8f565b602060405180830381865afa1580156110da573d5f5f3e3d5ffd5b505050506040513d601f19601f820116820180604052508101906110fe9190611ed1565b905080156111e05760405163a9059cbb60e01b81525f906001600160a01b037f0000000000000000000000000000000000000000000000000000000000000000169063a9059cbb906111569086908690600401611ee8565b6020604051808303815f875af1158015611172573d5f5f3e3d5ffd5b505050506040513d601f19601f820116820180604052508101906111969190611f01565b9050806111de577f000000000000000000000000000000000000000000000000000000000000000030848460405163cd3f165960e01b81526004016101a09493929190611b65565b505b600280546001600160a01b03191690556040518181526001600160a01b0383169033907f928fd5531324ee87d76cc5307dc37580174da76b85cd546da631b2670bc266b59060200160405180910390a35050565b5f7f00000000000000000000000000000000000000000000000000000000000000006001600160a01b0316636e296e456040518163ffffffff1660e01b8152600401602060405180830381865afa158015611291573d5f5f3e3d5ffd5b505050506040513d601f19601f820116820180604052508101906112b59190611f1c565b90506112c23382846119e6565b5050565b6002545f906001600160a81b90910460ff1611156112f7576040516345f5ce8b60e11b815260040160405180910390fd5b6002805460ff60a81b1916600160a91b17905582515f90819081906113259060209088018101908801611fc3565b5f81815260036020526040902054929550909350915060ff161561135f576040516356bc34a160e01b8152600481018290526024016101a0565b5f818152600360205260408120805460ff19166001179055600254600160a01b900460ff16815b855181101561180a575f8682815181106113a2576113a2612093565b602002602001015190505f8683815181106113bf576113bf612093565b602002602001015190505f826040516024016113db9190611b8f565b60408051601f198184030181529181526020820180516001600160e01b0316631eda94d760e01b179052519091505f9081906001600160a01b037f000000000000000000000000000000000000000000000000000000000000000016906114439085906120a7565b5f604051808303815f865af19150503d805f811461147c576040519150601f19603f3d011682016040523d82523d5f602084013e611481565b606091505b50915091505f828015611495575081516020145b156114b157818060200190518101906114ae9190611ed1565b90505b805f03611518578d61150d576114c7858a611e8e565b9850856001600160a01b03167f29bd7fae5899787bb9cb5aa121b781bf47bb44cc44f0f3ddd1e1ea383acd22fb8660405161150491815260200190565b60405180910390a25b505050505050611802565b80851115611587578d611583575f6115308287611d96565b905061153c818b611e8e565b9950866001600160a01b03167f29bd7fae5899787bb9cb5aa121b781bf47bb44cc44f0f3ddd1e1ea383acd22fb8260405161157991815260200190565b60405180910390a2505b8094505b611591858e611e8e565b9c505f7f00000000000000000000000000000000000000000000000000000000000000006001600160a01b03166370a08231306040518263ffffffff1660e01b81526004016115e09190611b8f565b602060405180830381865afa1580156115fb573d5f5f3e3d5ffd5b505050506040513d601f19601f8201168201806040525081019061161f9190611ed1565b90508581101580156116315750886001145b156117635760405163095ea7b360e01b81526001600160a01b037f0000000000000000000000000000000000000000000000000000000000000000169063095ea7b390611684908a908a90600401611ee8565b6020604051808303815f875af11580156116a0573d5f5f3e3d5ffd5b505050506040513d601f19601f820116820180604052508101906116c49190611f01565b5060405163b6b55f2560e01b8152600481018790526001600160a01b0388169063b6b55f25906024015f604051808303815f87803b158015611704575f5ffd5b505af1158015611716573d5f5f3e3d5ffd5b505050508a876001600160a01b03167f22ab9fd8eb5063f7f3cb43c78f5d368aea9a51855ada00fa146687ef2c3219808860405161175691815260200190565b60405180910390a36117fa565b5f87878d463060405160200161177d959493929190611ea1565b60408051601f1981840301815282825280516020918201205f81815260048352839020805460ff191660011790558a84529083018590529082018c905291508c906001600160a01b038a169083907ff40f70fa5e98296d34577a11349caa5adf0d9cf9b6d416fd901de223c50d7a6c9060600160405180910390a4505b505050505050505b600101611386565b50811561182757815f5f8282546118219190611e8e565b90915550505b50506002805460ff60a81b1916600160a81b1790555091949350505050565b5f5f5f602085510361187957848060200190518101906118669190611ed1565b9050621e84808111156118795750621e84805b620493e081101561188a5750620493e05b6040805180820182526015815274726563656976654d6573736167652862797465732960581b60209182015281519081018890529081018590525f907ff953cec75ae677942d7cda5cb6d12c0cb96a0904bf37d36301eef297b83c411d9060600160408051601f198184030181529082905261190891602401611ddd565b60408051601f198184030181529181526020820180516001600160e01b03166001600160e01b0319909416939093179092529051633dbb202b60e01b81529091506001600160a01b037f00000000000000000000000000000000000000000000000000000000000000001690633dbb202b906119ac907f000000000000000000000000000000000000000000000000000000000000000090859087906004016120bd565b5f604051808303815f87803b1580156119c3575f5ffd5b505af11580156119d5573d5f5f3e3d5ffd5b509699349950975050505050505050565b7f00000000000000000000000000000000000000000000000000000000000000006001600160a01b0316836001600160a01b031614611a5c57827f000000000000000000000000000000000000000000000000000000000000000060405163179888fd60e11b81526004016101a0929190611d68565b7f00000000000000000000000000000000000000000000000000000000000000006001600160a01b0316826001600160a01b031614611ad257817f0000000000000000000000000000000000000000000000000000000000000000604051630d16cbdd60e01b81526004016101a0929190611d68565b7f00000000000000000000000000000000000000000000000000000000000000006001600160a01b03167f98bbde530ec85b002f6fb0864beccaaf3ac3d2a4ac35cb3b03cf7c61ee415e337f000000000000000000000000000000000000000000000000000000000000000083604051611b4d9291906120f6565b60405180910390a2611b5f815f6112c6565b50505050565b6001600160a01b039485168152928416602084015292166040820152606081019190915260800190565b6001600160a01b0391909116815260200190565b5f60208284031215611bb3575f5ffd5b5035919050565b634e487b7160e01b5f52604160045260245ffd5b604051601f8201601f191681016001600160401b0381118282101715611bf657611bf6611bba565b604052919050565b5f82601f830112611c0d575f5ffd5b81356001600160401b03811115611c2657611c26611bba565b611c39601f8201601f1916602001611bce565b818152846020838601011115611c4d575f5ffd5b816020850160208301375f918101602001919091529392505050565b8015158114611c76575f5ffd5b50565b5f5f60408385031215611c8a575f5ffd5b82356001600160401b03811115611c9f575f5ffd5b611cab85828601611bfe565b9250506020830135611cbc81611c69565b809150509250929050565b5f60208284031215611cd7575f5ffd5b81356001600160401b03811115611cec575f5ffd5b611cf884828501611bfe565b949350505050565b6001600160a01b0381168114611c76575f5ffd5b5f5f5f60608486031215611d26575f5ffd5b8335611d3181611d00565b95602085013595506040909401359392505050565b5f60208284031215611d56575f5ffd5b8135611d6181611d00565b9392505050565b6001600160a01b0392831681529116602082015260400190565b634e487b7160e01b5f52601160045260245ffd5b81810381811115611da957611da9611d82565b92915050565b5f81518084528060208401602086015e5f602082860101526020601f19601f83011685010191505092915050565b602081525f611d616020830184611daf565b634e487b7160e01b5f52601260045260245ffd5b5f6001600160401b03831680611e1b57611e1b611def565b806001600160401b0384160491505092915050565b6001600160401b038281168282160390811115611da957611da9611d82565b6001841115611e8657808504811115611e6a57611e6a611d82565b6001841615611e7857908102905b60019390931c928002611e4f565b935093915050565b80820180821115611da957611da9611d82565b6001600160a01b039586168152602081019490945260408401929092526060830152909116608082015260a00190565b5f60208284031215611ee1575f5ffd5b5051919050565b6001600160a01b03929092168252602082015260400190565b5f60208284031215611f11575f5ffd5b8151611d6181611c69565b5f60208284031215611f2c575f5ffd5b8151611d6181611d00565b5f6001600160401b03821115611f4f57611f4f611bba565b5060051b60200190565b5f82601f830112611f68575f5ffd5b8151611f7b611f7682611f37565b611bce565b8082825260208201915060208360051b860101925085831115611f9c575f5ffd5b602085015b83811015611fb9578051835260209283019201611fa1565b5095945050505050565b5f5f5f60608486031215611fd5575f5ffd5b83516001600160401b03811115611fea575f5ffd5b8401601f81018613611ffa575f5ffd5b8051612008611f7682611f37565b8082825260208201915060208360051b850101925088831115612029575f5ffd5b6020840193505b8284101561205457835161204381611d00565b825260209384019390910190612030565b8096505050505060208401516001600160401b03811115612073575f5ffd5b61207f86828701611f59565b604095909501519396949550929392505050565b634e487b7160e01b5f52603260045260245ffd5b5f82518060208501845e5f920191825250919050565b6001600160a01b03841681526060602082018190525f906120e090830185611daf565b905063ffffffff83166040830152949350505050565b828152604060208201525f611cf86040830184611daf56fea2646970667358221220aa1e4377f30b39bd9005bad9db385ee64406d796bdbf1ad2adaede6d2b78ea4f64736f6c634300081e0033","linkReferences":{}},"methodIdentifiers":{"BRIDGE_PAYLOAD_LENGTH()":"4ece6b17","MAX_CHAIN_ID()":"5bc105c0","MAX_GAS_LIMIT()":"e3f5aa51","MIN_GAS_LIMIT()":"7ce1ffeb","RECEIVE_MESSAGE()":"54d20cc2","changeOwner(address)":"a6f9dae1","drain()":"9890220b","getBridgingDecimals()":"a8b2ae02","l1DepositProcessor()":"256359a8","l1SourceChainId()":"9b7bb847","l2MessageRelayer()":"1bad5957","migrate(address)":"ce5494bb","olas()":"0031d115","owner()":"8da5cb5b","pause()":"8456cb59","paused()":"5c975abb","processDataMaintenance(bytes,bool)":"4fa65958","processedHashes(bytes32)":"07d9c534","queuedHashes(bytes32)":"1b2e7f0a","receiveMessage(bytes)":"f953cec7","redeem(address,uint256,bytes32)":"992c3e4b","stakingBatchNonce()":"f4427c2c","stakingFactory()":"29134768","syncWithheldAmount(bytes)":"7424ddc8","unpause()":"3f4ba83a","updateWithheldAmountMaintenance(uint256)":"32cbdd21","withheldAmount()":"5a7287cf"},"id":31}