{"abi":[{"type":"constructor","inputs":[{"name":"_olas","type":"address","internalType":"address"},{"name":"_l1Dispenser","type":"address","internalType":"address"},{"name":"_l1TokenRelayer","type":"address","internalType":"address"},{"name":"_l1MessageRelayer","type":"address","internalType":"address"},{"name":"_l2TargetChainId","type":"uint256","internalType":"uint256"},{"name":"_olasL2","type":"address","internalType":"address"}],"stateMutability":"nonpayable"},{"type":"function","name":"BRIDGE_PAYLOAD_LENGTH","inputs":[],"outputs":[{"name":"","type":"uint256","internalType":"uint256"}],"stateMutability":"view"},{"type":"function","name":"MAX_CHAIN_ID","inputs":[],"outputs":[{"name":"","type":"uint256","internalType":"uint256"}],"stateMutability":"view"},{"type":"function","name":"MESSAGE_GAS_LIMIT","inputs":[],"outputs":[{"name":"","type":"uint256","internalType":"uint256"}],"stateMutability":"view"},{"type":"function","name":"RECEIVE_MESSAGE","inputs":[],"outputs":[{"name":"","type":"bytes4","internalType":"bytes4"}],"stateMutability":"view"},{"type":"function","name":"TOKEN_GAS_LIMIT","inputs":[],"outputs":[{"name":"","type":"uint256","internalType":"uint256"}],"stateMutability":"view"},{"type":"function","name":"getBridgingDecimals","inputs":[],"outputs":[{"name":"","type":"uint256","internalType":"uint256"}],"stateMutability":"pure"},{"type":"function","name":"l1Dispenser","inputs":[],"outputs":[{"name":"","type":"address","internalType":"address"}],"stateMutability":"view"},{"type":"function","name":"l1MessageRelayer","inputs":[],"outputs":[{"name":"","type":"address","internalType":"address"}],"stateMutability":"view"},{"type":"function","name":"l1TokenRelayer","inputs":[],"outputs":[{"name":"","type":"address","internalType":"address"}],"stateMutability":"view"},{"type":"function","name":"l2TargetChainId","inputs":[],"outputs":[{"name":"","type":"uint256","internalType":"uint256"}],"stateMutability":"view"},{"type":"function","name":"l2TargetDispenser","inputs":[],"outputs":[{"name":"","type":"address","internalType":"address"}],"stateMutability":"view"},{"type":"function","name":"olas","inputs":[],"outputs":[{"name":"","type":"address","internalType":"address"}],"stateMutability":"view"},{"type":"function","name":"olasL2","inputs":[],"outputs":[{"name":"","type":"address","internalType":"address"}],"stateMutability":"view"},{"type":"function","name":"owner","inputs":[],"outputs":[{"name":"","type":"address","internalType":"address"}],"stateMutability":"view"},{"type":"function","name":"processedHashes","inputs":[{"name":"","type":"bytes32","internalType":"bytes32"}],"outputs":[{"name":"","type":"bool","internalType":"bool"}],"stateMutability":"view"},{"type":"function","name":"receiveMessage","inputs":[{"name":"data","type":"bytes","internalType":"bytes"}],"outputs":[],"stateMutability":"payable"},{"type":"function","name":"sendMessage","inputs":[{"name":"target","type":"address","internalType":"address"},{"name":"stakingIncentive","type":"uint256","internalType":"uint256"},{"name":"bridgePayload","type":"bytes","internalType":"bytes"},{"name":"transferAmount","type":"uint256","internalType":"uint256"}],"outputs":[],"stateMutability":"payable"},{"type":"function","name":"sendMessageBatch","inputs":[{"name":"targets","type":"address[]","internalType":"address[]"},{"name":"stakingIncentives","type":"uint256[]","internalType":"uint256[]"},{"name":"bridgePayload","type":"bytes","internalType":"bytes"},{"name":"transferAmount","type":"uint256","internalType":"uint256"}],"outputs":[],"stateMutability":"payable"},{"type":"function","name":"setL2TargetDispenser","inputs":[{"name":"l2Dispenser","type":"address","internalType":"address"}],"outputs":[],"stateMutability":"nonpayable"},{"type":"function","name":"stakingBatchNonce","inputs":[],"outputs":[{"name":"","type":"uint256","internalType":"uint256"}],"stateMutability":"view"},{"type":"function","name":"updateHashMaintenance","inputs":[{"name":"batchHash","type":"bytes32","internalType":"bytes32"}],"outputs":[],"stateMutability":"nonpayable"},{"type":"event","name":"L2TargetDispenserUpdated","inputs":[{"name":"l2TargetDispenser","type":"address","indexed":true,"internalType":"address"}],"anonymous":false},{"type":"event","name":"LeftoversRefunded","inputs":[{"name":"sender","type":"address","indexed":true,"internalType":"address"},{"name":"leftovers","type":"uint256","indexed":false,"internalType":"uint256"}],"anonymous":false},{"type":"event","name":"MessagePosted","inputs":[{"name":"sequence","type":"uint256","indexed":true,"internalType":"uint256"},{"name":"targets","type":"address[]","indexed":false,"internalType":"address[]"},{"name":"stakingIncentives","type":"uint256[]","indexed":false,"internalType":"uint256[]"},{"name":"transferAmount","type":"uint256","indexed":false,"internalType":"uint256"},{"name":"batchHash","type":"bytes32","indexed":true,"internalType":"bytes32"}],"anonymous":false},{"type":"event","name":"MessageReceived","inputs":[{"name":"l1Relayer","type":"address","indexed":true,"internalType":"address"},{"name":"chainId","type":"uint256","indexed":true,"internalType":"uint256"},{"name":"data","type":"bytes","indexed":false,"internalType":"bytes"}],"anonymous":false},{"type":"error","name":"AlreadyDelivered","inputs":[{"name":"deliveryHash","type":"bytes32","internalType":"bytes32"}]},{"type":"error","name":"IncorrectDataLength","inputs":[{"name":"expected","type":"uint256","internalType":"uint256"},{"name":"provided","type":"uint256","internalType":"uint256"}]},{"type":"error","name":"InsufficientBalance","inputs":[{"name":"provided","type":"uint256","internalType":"uint256"},{"name":"expected","type":"uint256","internalType":"uint256"}]},{"type":"error","name":"LowerThan","inputs":[{"name":"provided","type":"uint256","internalType":"uint256"},{"name":"expected","type":"uint256","internalType":"uint256"}]},{"type":"error","name":"ManagerOnly","inputs":[{"name":"sender","type":"address","internalType":"address"},{"name":"manager","type":"address","internalType":"address"}]},{"type":"error","name":"Overflow","inputs":[{"name":"provided","type":"uint256","internalType":"uint256"},{"name":"max","type":"uint256","internalType":"uint256"}]},{"type":"error","name":"OwnerOnly","inputs":[{"name":"sender","type":"address","internalType":"address"},{"name":"owner","type":"address","internalType":"address"}]},{"type":"error","name":"Paused","inputs":[]},{"type":"error","name":"ReentrancyGuard","inputs":[]},{"type":"error","name":"TargetAmountNotQueued","inputs":[{"name":"target","type":"address","internalType":"address"},{"name":"amount","type":"uint256","internalType":"uint256"},{"name":"batchHash","type":"bytes32","internalType":"bytes32"}]},{"type":"error","name":"TargetRelayerOnly","inputs":[{"name":"provided","type":"address","internalType":"address"},{"name":"expected","type":"address","internalType":"address"}]},{"type":"error","name":"TransferFailed","inputs":[{"name":"token","type":"address","internalType":"address"},{"name":"from","type":"address","internalType":"address"},{"name":"to","type":"address","internalType":"address"},{"name":"amount","type":"uint256","internalType":"uint256"}]},{"type":"error","name":"Unpaused","inputs":[]},{"type":"error","name":"WrongAccount","inputs":[{"name":"account","type":"address","internalType":"address"}]},{"type":"error","name":"WrongAmount","inputs":[{"name":"provided","type":"uint256","internalType":"uint256"},{"name":"expected","type":"uint256","internalType":"uint256"}]},{"type":"error","name":"WrongChainId","inputs":[{"name":"provided","type":"uint256","internalType":"uint256"},{"name":"expected","type":"uint256","internalType":"uint256"}]},{"type":"error","name":"WrongMessageSender","inputs":[{"name":"provided","type":"address","internalType":"address"},{"name":"expected","type":"address","internalType":"address"}]},{"type":"error","name":"WrongTokenAddress","inputs":[{"name":"provided","type":"address","internalType":"address"},{"name":"expected","type":"address","internalType":"address"}]},{"type":"error","name":"ZeroAddress","inputs":[]},{"type":"error","name":"ZeroValue","inputs":[]}],"bytecode":{"object":"0x610140604052348015610010575f5ffd5b5060405161182e38038061182e83398101604081905261002f916101a4565b85858585856001600160a01b038416158061005157506001600160a01b038316155b8061006357506001600160a01b038216155b156100815760405163d92e233d60e01b815260040160405180910390fd5b805f036100a157604051637c946ed760e01b815260040160405180910390fd5b60246100b560026001600160401b0361020d565b6100bf9190610247565b6001600160401b031681111561011d578060246100e460026001600160401b0361020d565b6100ee9190610247565b604051637ae5968560e01b815260048101929092526001600160401b0316602482015260440160405180910390fd5b6001600160a01b0394851660805292841660a05290831660c052821660e05261010052600180546001600160a01b0319163317905581166101715760405163d92e233d60e01b815260040160405180910390fd5b6001600160a01b031661012052506102789350505050565b80516001600160a01b038116811461019f575f5ffd5b919050565b5f5f5f5f5f5f60c087890312156101b9575f5ffd5b6101c287610189565b95506101d060208801610189565b94506101de60408801610189565b93506101ec60608801610189565b92506080870151915061020160a08801610189565b90509295509295509295565b5f6001600160401b0383168061023157634e487b7160e01b5f52601260045260245ffd5b6001600160401b03929092169190910492915050565b6001600160401b03828116828216039081111561027257634e487b7160e01b5f52601160045260245ffd5b92915050565b60805160a05160c05160e05161010051610120516114f161033d5f395f81816103330152610b1d01525f81816103be01528181610df50152610ec801525f81816101c8015281816108e001528181610cc201528181610d3d0152610d7701525f81816102e101528181610a410152610b6c01525f818161040f015281816104b0015281816104d7015281816105720152818161059901528181610791015281816107b80152610f0401525f818161013a01528181610a700152610af501526114f15ff3fe608060405260043610610125575f3560e01c8063a0726ffa116100a8578063c23cc3ff1161006d578063c23cc3ff146103ad578063e309fb77146103e0578063f2541c35146103fe578063f4427c2c14610431578063f953cec714610446578063f9fc3c2114610459575f5ffd5b8063a0726ffa14610322578063a8b2ae0214610355578063ac65ded214610368578063b2267a7b14610387578063bde526611461039a575f5ffd5b806354d20cc2116100ee57806354d20cc21461022257806354e4bbf41461029b5780635bc105c0146102bc5780636143fe93146102d05780638da5cb5b14610303575f5ffd5b806231d1151461012957806307d9c534146101795780633d1f8679146101b75780634c1c6cbf146101ea5780634ece6b171461020e575b5f5ffd5b348015610134575f5ffd5b5061015c7f000000000000000000000000000000000000000000000000000000000000000081565b6040516001600160a01b0390911681526020015b60405180910390f35b348015610184575f5ffd5b506101a7610193366004610f62565b60036020525f908152604090205460ff1681565b6040519015158152602001610170565b3480156101c2575f5ffd5b5061015c7f000000000000000000000000000000000000000000000000000000000000000081565b3480156101f5575f5ffd5b50610200620493e081565b604051908152602001610170565b348015610219575f5ffd5b50610200602081565b34801561022d575f5ffd5b50604080518082019091526015815274726563656976654d6573736167652862797465732960581b6020909101526102827ff953cec75ae677942d7cda5cb6d12c0cb96a0904bf37d36301eef297b83c411d81565b6040516001600160e01b03199091168152602001610170565b3480156102a6575f5ffd5b506102ba6102b5366004610f8d565b61046f565b005b3480156102c7575f5ffd5b5061020061047b565b3480156102db575f5ffd5b5061015c7f000000000000000000000000000000000000000000000000000000000000000081565b34801561030e575f5ffd5b5060015461015c906001600160a01b031681565b34801561032d575f5ffd5b5061015c7f000000000000000000000000000000000000000000000000000000000000000081565b348015610360575f5ffd5b506012610200565b348015610373575f5ffd5b506102ba610382366004610f62565b6104a5565b6102ba61039536600461105e565b610567565b6102ba6103a8366004611146565b610786565b3480156103b8575f5ffd5b506102007f000000000000000000000000000000000000000000000000000000000000000081565b3480156103eb575f5ffd5b505f5461015c906001600160a01b031681565b348015610409575f5ffd5b5061015c7f000000000000000000000000000000000000000000000000000000000000000081565b34801561043c575f5ffd5b5061020060025481565b6102ba61045436600461121c565b6108dd565b348015610464575f5ffd5b50610200621e848081565b6104788161096f565b50565b602461048f60026001600160401b03611269565b61049991906112a2565b6001600160401b031681565b336001600160a01b037f0000000000000000000000000000000000000000000000000000000000000000161461051b577f00000000000000000000000000000000000000000000000000000000000000003360405163312d21ff60e11b81526004016105129291906112c7565b60405180910390fd5b5f8181526003602052604090205460ff161561054d576040516356bc34a160e01b815260048101829052602401610512565b5f908152600360205260409020805460ff19166001179055565b336001600160a01b037f000000000000000000000000000000000000000000000000000000000000000016146105d4577f00000000000000000000000000000000000000000000000000000000000000003360405163312d21ff60e11b81526004016105129291906112c7565b6040805160018082528183019092525f916020808301908036833701905050905084815f81518110610608576106086112e1565b6001600160a01b0392909216602092830291909101909101526040805160018082528183019092525f9181602001602082028036833701905050905084815f81518110610657576106576112e1565b6020026020010181815250505f60025490505f81463060405160200161067f939291906112f5565b6040516020818303038152906040528051906020012090505f5f6106a686868a8a87610a22565b9092509050801561072c57604051329082905f81818185875af1925050503d805f81146106ee576040519150601f19603f3d011682016040523d82523d5f602084013e6106f3565b606091505b50506040518281523291507f8e49ed3e274fbea1556bdfaa9a37a0c28445bfe26d57beaf9f04fd517aa417419060200160405180910390a25b610737846001611314565b60028190555082827f621aece9999edf4d664a3855f668f6fc380937a42044234fd883b42d0485118788888b6040516107729392919061139a565b60405180910390a350505050505050505050565b336001600160a01b037f000000000000000000000000000000000000000000000000000000000000000016146107f3577f00000000000000000000000000000000000000000000000000000000000000003360405163312d21ff60e11b81526004016105129291906112c7565b6002546040515f9061080d908390469030906020016112f5565b6040516020818303038152906040528051906020012090505f5f6108348888888887610a22565b9092509050801561088557604051329082905f81818185875af1925050503d805f811461087c576040519150601f19603f3d011682016040523d82523d5f602084013e610881565b606091505b5050505b610890846001611314565b60028190555082827f621aece9999edf4d664a3855f668f6fc380937a42044234fd883b42d048511878a8a896040516108cb9392919061139a565b60405180910390a35050505050505050565b5f7f00000000000000000000000000000000000000000000000000000000000000006001600160a01b0316636e296e456040518163ffffffff1660e01b8152600401602060405180830381865afa15801561093a573d5f5f3e3d5ffd5b505050506040513d601f19601f8201168201806040525081019061095e91906113cf565b905061096b338284610d3b565b5050565b6001546001600160a01b031633146109a95760015460405163521eb56d60e11b8152610512916001600160a01b03169033906004016112c7565b6001600160a01b0381166109d05760405163d92e233d60e01b815260040160405180910390fd5b5f80546001600160a01b0383166001600160a01b0319918216811783556001805490921690915560405190917f991aa5c8f67a92f8feb202de828958c681966ae343fcf6db040f5f8099d547cf91a250565b5f808315610bc45760405163095ea7b360e01b81526001600160a01b037f000000000000000000000000000000000000000000000000000000000000000081166004830152602482018690527f0000000000000000000000000000000000000000000000000000000000000000169063095ea7b3906044016020604051808303815f875af1158015610ab6573d5f5f3e3d5ffd5b505050506040513d601f19601f82011682018060405250810190610ada91906113ea565b505f805460405163041c592960e51b81526001600160a01b037f0000000000000000000000000000000000000000000000000000000000000000811660048301527f000000000000000000000000000000000000000000000000000000000000000081166024830152918216604482015260648101879052620493e0608482015260c060a482015260c48101929092527f0000000000000000000000000000000000000000000000000000000000000000169063838b25209060e4015f604051808303815f87803b158015610bad575f5ffd5b505af1158015610bbf573d5f5f3e3d5ffd5b505050505b5f6020865103610be55785806020019051810190610be29190611409565b90505b621e8480811015610bf65750621e84805b6040805180820182526015815274726563656976654d6573736167652862797465732960581b60209182015290515f917ff953cec75ae677942d7cda5cb6d12c0cb96a0904bf37d36301eef297b83c411d91610c58918c918c918a910161139a565b60408051601f1981840301815290829052610c759160240161144e565b60408051601f198184030181529181526020820180516001600160e01b03166001600160e01b0319909416939093179092525f549151633dbb202b60e01b81529092506001600160a01b037f0000000000000000000000000000000000000000000000000000000000000000811692633dbb202b92610cff92919091169085908790600401611460565b5f604051808303815f87803b158015610d16575f5ffd5b505af1158015610d28573d5f5f3e3d5ffd5b50969b349b509950505050505050505050565b7f00000000000000000000000000000000000000000000000000000000000000006001600160a01b0316836001600160a01b031614610db157337f000000000000000000000000000000000000000000000000000000000000000060405163179888fd60e11b81526004016105129291906112c7565b5f546001600160a01b03838116911614610dee575f54604051630d16cbdd60e01b81526105129184916001600160a01b03909116906004016112c7565b5f546040517f0000000000000000000000000000000000000000000000000000000000000000916001600160a01b0316907f98bbde530ec85b002f6fb0864beccaaf3ac3d2a4ac35cb3b03cf7c61ee415e3390610e4c90859061144e565b60405180910390a35f5f82806020019051810190610e6a9190611499565b5f81815260036020526040902054919350915060ff1615610ea1576040516356bc34a160e01b815260048101829052602401610512565b5f8181526003602052604090819020805460ff19166001179055516379bc81dd60e01b81527f0000000000000000000000000000000000000000000000000000000000000000600482015260248101839052604481018290526001600160a01b037f000000000000000000000000000000000000000000000000000000000000000016906379bc81dd906064015f604051808303815f87803b158015610f45575f5ffd5b505af1158015610f57573d5f5f3e3d5ffd5b505050505050505050565b5f60208284031215610f72575f5ffd5b5035919050565b6001600160a01b0381168114610478575f5ffd5b5f60208284031215610f9d575f5ffd5b8135610fa881610f79565b9392505050565b634e487b7160e01b5f52604160045260245ffd5b604051601f8201601f191681016001600160401b0381118282101715610feb57610feb610faf565b604052919050565b5f82601f830112611002575f5ffd5b81356001600160401b0381111561101b5761101b610faf565b61102e601f8201601f1916602001610fc3565b818152846020838601011115611042575f5ffd5b816020850160208301375f918101602001919091529392505050565b5f5f5f5f60808587031215611071575f5ffd5b843561107c81610f79565b93506020850135925060408501356001600160401b0381111561109d575f5ffd5b6110a987828801610ff3565b949793965093946060013593505050565b5f6001600160401b038211156110d2576110d2610faf565b5060051b60200190565b5f82601f8301126110eb575f5ffd5b81356110fe6110f9826110ba565b610fc3565b8082825260208201915060208360051b86010192508583111561111f575f5ffd5b602085015b8381101561113c578035835260209283019201611124565b5095945050505050565b5f5f5f5f60808587031215611159575f5ffd5b84356001600160401b0381111561116e575f5ffd5b8501601f8101871361117e575f5ffd5b803561118c6110f9826110ba565b8082825260208201915060208360051b8501019250898311156111ad575f5ffd5b6020840193505b828410156111d85783356111c781610f79565b8252602093840193909101906111b4565b965050505060208501356001600160401b038111156111f5575f5ffd5b611201878288016110dc565b93505060408501356001600160401b0381111561109d575f5ffd5b5f6020828403121561122c575f5ffd5b81356001600160401b03811115611241575f5ffd5b61124d84828501610ff3565b949350505050565b634e487b7160e01b5f52601160045260245ffd5b5f6001600160401b0383168061128d57634e487b7160e01b5f52601260045260245ffd5b806001600160401b0384160491505092915050565b6001600160401b0382811682821603908111156112c1576112c1611255565b92915050565b6001600160a01b0392831681529116602082015260400190565b634e487b7160e01b5f52603260045260245ffd5b92835260208301919091526001600160a01b0316604082015260600190565b808201808211156112c1576112c1611255565b5f8151808452602084019350602083015f5b828110156113605781516001600160a01b0316865260209586019590910190600101611339565b5093949350505050565b5f8151808452602084019350602083015f5b8281101561136057815186526020958601959091019060010161137c565b606081525f6113ac6060830186611327565b82810360208401526113be818661136a565b915050826040830152949350505050565b5f602082840312156113df575f5ffd5b8151610fa881610f79565b5f602082840312156113fa575f5ffd5b81518015158114610fa8575f5ffd5b5f60208284031215611419575f5ffd5b5051919050565b5f81518084528060208401602086015e5f602082860101526020601f19601f83011685010191505092915050565b602081525f610fa86020830184611420565b6001600160a01b03841681526060602082018190525f9061148390830185611420565b905063ffffffff83166040830152949350505050565b5f5f604083850312156114aa575f5ffd5b50508051602090910151909290915056fea2646970667358221220ea7003dc445aa2227101bf8372e75425141ad2eec7ebb0093f97fec43d9ab10264736f6c634300081e0033","linkReferences":{}},"methodIdentifiers":{"BRIDGE_PAYLOAD_LENGTH()":"4ece6b17","MAX_CHAIN_ID()":"5bc105c0","MESSAGE_GAS_LIMIT()":"f9fc3c21","RECEIVE_MESSAGE()":"54d20cc2","TOKEN_GAS_LIMIT()":"4c1c6cbf","getBridgingDecimals()":"a8b2ae02","l1Dispenser()":"f2541c35","l1MessageRelayer()":"3d1f8679","l1TokenRelayer()":"6143fe93","l2TargetChainId()":"c23cc3ff","l2TargetDispenser()":"e309fb77","olas()":"0031d115","olasL2()":"a0726ffa","owner()":"8da5cb5b","processedHashes(bytes32)":"07d9c534","receiveMessage(bytes)":"f953cec7","sendMessage(address,uint256,bytes,uint256)":"b2267a7b","sendMessageBatch(address[],uint256[],bytes,uint256)":"bde52661","setL2TargetDispenser(address)":"54e4bbf4","stakingBatchNonce()":"f4427c2c","updateHashMaintenance(bytes32)":"ac65ded2"},"id":30}