{"abi":[{"type":"constructor","inputs":[{"name":"_olas","type":"address","internalType":"address"},{"name":"_proxyFactory","type":"address","internalType":"address"},{"name":"_l2MessageRelayer","type":"address","internalType":"address"},{"name":"_l1DepositProcessor","type":"address","internalType":"address"},{"name":"_l1SourceChainId","type":"uint256","internalType":"uint256"}],"stateMutability":"nonpayable"},{"type":"receive","stateMutability":"payable"},{"type":"function","name":"MAX_CHAIN_ID","inputs":[],"outputs":[{"name":"","type":"uint256","internalType":"uint256"}],"stateMutability":"view"},{"type":"function","name":"MAX_GAS_LIMIT","inputs":[],"outputs":[{"name":"","type":"uint256","internalType":"uint256"}],"stateMutability":"view"},{"type":"function","name":"MIN_GAS_LIMIT","inputs":[],"outputs":[{"name":"","type":"uint256","internalType":"uint256"}],"stateMutability":"view"},{"type":"function","name":"RECEIVE_MESSAGE","inputs":[],"outputs":[{"name":"","type":"bytes4","internalType":"bytes4"}],"stateMutability":"view"},{"type":"function","name":"changeOwner","inputs":[{"name":"newOwner","type":"address","internalType":"address"}],"outputs":[],"stateMutability":"nonpayable"},{"type":"function","name":"drain","inputs":[],"outputs":[{"name":"amount","type":"uint256","internalType":"uint256"}],"stateMutability":"nonpayable"},{"type":"function","name":"fxChild","inputs":[],"outputs":[{"name":"","type":"address","internalType":"address"}],"stateMutability":"view"},{"type":"function","name":"fxRootTunnel","inputs":[],"outputs":[{"name":"","type":"address","internalType":"address"}],"stateMutability":"view"},{"type":"function","name":"getBridgingDecimals","inputs":[],"outputs":[{"name":"","type":"uint256","internalType":"uint256"}],"stateMutability":"pure"},{"type":"function","name":"l1DepositProcessor","inputs":[],"outputs":[{"name":"","type":"address","internalType":"address"}],"stateMutability":"view"},{"type":"function","name":"l1SourceChainId","inputs":[],"outputs":[{"name":"","type":"uint256","internalType":"uint256"}],"stateMutability":"view"},{"type":"function","name":"l2MessageRelayer","inputs":[],"outputs":[{"name":"","type":"address","internalType":"address"}],"stateMutability":"view"},{"type":"function","name":"migrate","inputs":[{"name":"newL2TargetDispenser","type":"address","internalType":"address"}],"outputs":[],"stateMutability":"nonpayable"},{"type":"function","name":"olas","inputs":[],"outputs":[{"name":"","type":"address","internalType":"address"}],"stateMutability":"view"},{"type":"function","name":"owner","inputs":[],"outputs":[{"name":"","type":"address","internalType":"address"}],"stateMutability":"view"},{"type":"function","name":"pause","inputs":[],"outputs":[],"stateMutability":"nonpayable"},{"type":"function","name":"paused","inputs":[],"outputs":[{"name":"","type":"uint8","internalType":"uint8"}],"stateMutability":"view"},{"type":"function","name":"processDataMaintenance","inputs":[{"name":"data","type":"bytes","internalType":"bytes"},{"name":"updateWithheldAmount","type":"bool","internalType":"bool"}],"outputs":[],"stateMutability":"nonpayable"},{"type":"function","name":"processMessageFromRoot","inputs":[{"name":"stateId","type":"uint256","internalType":"uint256"},{"name":"rootMessageSender","type":"address","internalType":"address"},{"name":"data","type":"bytes","internalType":"bytes"}],"outputs":[],"stateMutability":"nonpayable"},{"type":"function","name":"processedHashes","inputs":[{"name":"","type":"bytes32","internalType":"bytes32"}],"outputs":[{"name":"","type":"bool","internalType":"bool"}],"stateMutability":"view"},{"type":"function","name":"queuedHashes","inputs":[{"name":"","type":"bytes32","internalType":"bytes32"}],"outputs":[{"name":"","type":"bool","internalType":"bool"}],"stateMutability":"view"},{"type":"function","name":"redeem","inputs":[{"name":"target","type":"address","internalType":"address"},{"name":"amount","type":"uint256","internalType":"uint256"},{"name":"batchHash","type":"bytes32","internalType":"bytes32"}],"outputs":[],"stateMutability":"nonpayable"},{"type":"function","name":"setFxRootTunnel","inputs":[{"name":"l1Processor","type":"address","internalType":"address"}],"outputs":[],"stateMutability":"nonpayable"},{"type":"function","name":"stakingBatchNonce","inputs":[],"outputs":[{"name":"","type":"uint256","internalType":"uint256"}],"stateMutability":"view"},{"type":"function","name":"stakingFactory","inputs":[],"outputs":[{"name":"","type":"address","internalType":"address"}],"stateMutability":"view"},{"type":"function","name":"syncWithheldAmount","inputs":[{"name":"bridgePayload","type":"bytes","internalType":"bytes"}],"outputs":[],"stateMutability":"payable"},{"type":"function","name":"unpause","inputs":[],"outputs":[],"stateMutability":"nonpayable"},{"type":"function","name":"updateWithheldAmountMaintenance","inputs":[{"name":"amount","type":"uint256","internalType":"uint256"}],"outputs":[],"stateMutability":"nonpayable"},{"type":"function","name":"withheldAmount","inputs":[],"outputs":[{"name":"","type":"uint256","internalType":"uint256"}],"stateMutability":"view"},{"type":"event","name":"AmountWithheld","inputs":[{"name":"target","type":"address","indexed":true,"internalType":"address"},{"name":"amount","type":"uint256","indexed":false,"internalType":"uint256"}],"anonymous":false},{"type":"event","name":"Drain","inputs":[{"name":"owner","type":"address","indexed":true,"internalType":"address"},{"name":"amount","type":"uint256","indexed":false,"internalType":"uint256"}],"anonymous":false},{"type":"event","name":"FundsReceived","inputs":[{"name":"sender","type":"address","indexed":true,"internalType":"address"},{"name":"value","type":"uint256","indexed":false,"internalType":"uint256"}],"anonymous":false},{"type":"event","name":"FxRootTunnelUpdated","inputs":[{"name":"fxRootTunnel","type":"address","indexed":true,"internalType":"address"}],"anonymous":false},{"type":"event","name":"LeftoversRefunded","inputs":[{"name":"sender","type":"address","indexed":true,"internalType":"address"},{"name":"leftovers","type":"uint256","indexed":false,"internalType":"uint256"}],"anonymous":false},{"type":"event","name":"MessagePosted","inputs":[{"name":"sequence","type":"uint256","indexed":true,"internalType":"uint256"},{"name":"messageSender","type":"address","indexed":true,"internalType":"address"},{"name":"amount","type":"uint256","indexed":false,"internalType":"uint256"},{"name":"batchHash","type":"bytes32","indexed":true,"internalType":"bytes32"}],"anonymous":false},{"type":"event","name":"MessageReceived","inputs":[{"name":"sender","type":"address","indexed":true,"internalType":"address"},{"name":"chainId","type":"uint256","indexed":false,"internalType":"uint256"},{"name":"data","type":"bytes","indexed":false,"internalType":"bytes"}],"anonymous":false},{"type":"event","name":"MessageSent","inputs":[{"name":"message","type":"bytes","indexed":false,"internalType":"bytes"}],"anonymous":false},{"type":"event","name":"Migrated","inputs":[{"name":"sender","type":"address","indexed":true,"internalType":"address"},{"name":"newL2TargetDispenser","type":"address","indexed":true,"internalType":"address"},{"name":"amount","type":"uint256","indexed":false,"internalType":"uint256"}],"anonymous":false},{"type":"event","name":"OwnerUpdated","inputs":[{"name":"owner","type":"address","indexed":true,"internalType":"address"}],"anonymous":false},{"type":"event","name":"StakingMaintenanceDataProcessed","inputs":[{"name":"data","type":"bytes","indexed":false,"internalType":"bytes"}],"anonymous":false},{"type":"event","name":"StakingRequestQueued","inputs":[{"name":"queueHash","type":"bytes32","indexed":true,"internalType":"bytes32"},{"name":"target","type":"address","indexed":true,"internalType":"address"},{"name":"amount","type":"uint256","indexed":false,"internalType":"uint256"},{"name":"batchHash","type":"bytes32","indexed":true,"internalType":"bytes32"},{"name":"olasBalance","type":"uint256","indexed":false,"internalType":"uint256"},{"name":"paused","type":"uint256","indexed":false,"internalType":"uint256"}],"anonymous":false},{"type":"event","name":"StakingTargetDeposited","inputs":[{"name":"target","type":"address","indexed":true,"internalType":"address"},{"name":"amount","type":"uint256","indexed":false,"internalType":"uint256"},{"name":"batchHash","type":"bytes32","indexed":true,"internalType":"bytes32"}],"anonymous":false},{"type":"event","name":"TargetDispenserPaused","inputs":[],"anonymous":false},{"type":"event","name":"TargetDispenserUnpaused","inputs":[],"anonymous":false},{"type":"event","name":"WithheldAmountUpdated","inputs":[{"name":"amount","type":"uint256","indexed":false,"internalType":"uint256"}],"anonymous":false},{"type":"error","name":"AlreadyDelivered","inputs":[{"name":"deliveryHash","type":"bytes32","internalType":"bytes32"}]},{"type":"error","name":"IncorrectDataLength","inputs":[{"name":"expected","type":"uint256","internalType":"uint256"},{"name":"provided","type":"uint256","internalType":"uint256"}]},{"type":"error","name":"InsufficientBalance","inputs":[{"name":"provided","type":"uint256","internalType":"uint256"},{"name":"expected","type":"uint256","internalType":"uint256"}]},{"type":"error","name":"LowerThan","inputs":[{"name":"provided","type":"uint256","internalType":"uint256"},{"name":"expected","type":"uint256","internalType":"uint256"}]},{"type":"error","name":"ManagerOnly","inputs":[{"name":"sender","type":"address","internalType":"address"},{"name":"manager","type":"address","internalType":"address"}]},{"type":"error","name":"Overflow","inputs":[{"name":"provided","type":"uint256","internalType":"uint256"},{"name":"max","type":"uint256","internalType":"uint256"}]},{"type":"error","name":"OwnerOnly","inputs":[{"name":"sender","type":"address","internalType":"address"},{"name":"owner","type":"address","internalType":"address"}]},{"type":"error","name":"Paused","inputs":[]},{"type":"error","name":"ReentrancyGuard","inputs":[]},{"type":"error","name":"TargetAmountNotQueued","inputs":[{"name":"target","type":"address","internalType":"address"},{"name":"amount","type":"uint256","internalType":"uint256"},{"name":"batchHash","type":"bytes32","internalType":"bytes32"}]},{"type":"error","name":"TargetRelayerOnly","inputs":[{"name":"provided","type":"address","internalType":"address"},{"name":"expected","type":"address","internalType":"address"}]},{"type":"error","name":"TransferFailed","inputs":[{"name":"token","type":"address","internalType":"address"},{"name":"from","type":"address","internalType":"address"},{"name":"to","type":"address","internalType":"address"},{"name":"amount","type":"uint256","internalType":"uint256"}]},{"type":"error","name":"Unpaused","inputs":[]},{"type":"error","name":"WrongAccount","inputs":[{"name":"account","type":"address","internalType":"address"}]},{"type":"error","name":"WrongAmount","inputs":[{"name":"provided","type":"uint256","internalType":"uint256"},{"name":"expected","type":"uint256","internalType":"uint256"}]},{"type":"error","name":"WrongChainId","inputs":[{"name":"provided","type":"uint256","internalType":"uint256"},{"name":"expected","type":"uint256","internalType":"uint256"}]},{"type":"error","name":"WrongMessageSender","inputs":[{"name":"provided","type":"address","internalType":"address"},{"name":"expected","type":"address","internalType":"address"}]},{"type":"error","name":"WrongTokenAddress","inputs":[{"name":"provided","type":"address","internalType":"address"},{"name":"expected","type":"address","internalType":"address"}]},{"type":"error","name":"ZeroAddress","inputs":[]},{"type":"error","name":"ZeroValue","inputs":[]}],"bytecode":{"object":"0x610120604052348015610010575f5ffd5b506040516124ce3803806124ce83398101604081905261002f916101c2565b8285858285856001600160a01b038516158061005257506001600160a01b038416155b8061006457506001600160a01b038316155b8061007657506001600160a01b038216155b156100945760405163d92e233d60e01b815260040160405180910390fd5b805f036100b457604051637c946ed760e01b815260040160405180910390fd5b60246100c860026001600160401b0361021c565b6100d29190610256565b6001600160401b0316811115610130578060246100f760026001600160401b0361021c565b6101019190610256565b604051637ae5968560e01b815260048101929092526001600160401b0316602482015260440160405180910390fd5b6001600160a01b0394851660805292841660a05290831660c052821660e0526101005260028054600160a81b600160a01b6001600160a81b03199092163360ff60a01b1916179190911760ff60a81b1916179055600580546001600160a01b03191692909116919091179055506102879350505050565b80516001600160a01b03811681146101bd575f5ffd5b919050565b5f5f5f5f5f60a086880312156101d6575f5ffd5b6101df866101a7565b94506101ed602087016101a7565b93506101fb604087016101a7565b9250610209606087016101a7565b9150608086015190509295509295909350565b5f6001600160401b0383168061024057634e487b7160e01b5f52601260045260245ffd5b6001600160401b03929092169190910492915050565b6001600160401b03828116828216039081111561028157634e487b7160e01b5f52601160045260245ffd5b92915050565b60805160a05160c05160e051610100516121a161032d5f395f81816105990152611b5301525f81816102f301528181611a9201528181611acc0152611b0801525f81816102c0015281816119c001528181611a1c0152611a5601525f8181610326015261154701525f818161020b01528181610ddf01528181610e730152818161124c015281816112e101528181611361015281816116c6015261177d01526121a15ff3fe608060405260043610610180575f3560e01c80637424ddc8116100d4578063992c3e4b11610083578063992c3e4b1461054a5780639a7c4b71146105695780639b7bb84714610588578063a6f9dae1146105bb578063a8b2ae02146105da578063ce5494bb146105ed578063e3f5aa511461060c578063f4427c2c14610622575f5ffd5b80637424ddc81461049c5780637ce1ffeb146104af5780637f1e9cb0146104c55780638456cb59146104e457806388837094146104f85780638da5cb5b146105175780639890220b14610536575f5ffd5b80633f4ba83a116101305780633f4ba83a14610369578063450d11f01461037d5780634fa659581461039c57806354d20cc2146103bb5780635a7287cf146104345780635bc105c0146104565780635c975abb1461046a575f5ffd5b806231d115146101fa57806307d9c534146102435780631b2e7f0a146102815780631bad5957146102af578063256359a8146102e2578063291347681461031557806332cbdd2114610348575f5ffd5b366101f6576002546001600160a01b03166101bf575f33303460405163cd3f165960e01b81526004016101b69493929190611b93565b60405180910390fd5b60405134815233907f8e47b87b0ef542cdfa1659c551d88bad38aa7f452d2bbb349ab7530dfec8be8f9060200160405180910390a2005b5f5ffd5b348015610205575f5ffd5b5061022d7f000000000000000000000000000000000000000000000000000000000000000081565b60405161023a9190611bbd565b60405180910390f35b34801561024e575f5ffd5b5061027161025d366004611bd1565b60036020525f908152604090205460ff1681565b604051901515815260200161023a565b34801561028c575f5ffd5b5061027161029b366004611bd1565b60046020525f908152604090205460ff1681565b3480156102ba575f5ffd5b5061022d7f000000000000000000000000000000000000000000000000000000000000000081565b3480156102ed575f5ffd5b5061022d7f000000000000000000000000000000000000000000000000000000000000000081565b348015610320575f5ffd5b5061022d7f000000000000000000000000000000000000000000000000000000000000000081565b348015610353575f5ffd5b50610367610362366004611bd1565b610637565b005b348015610374575f5ffd5b506103676106ae565b348015610388575f5ffd5b5060055461022d906001600160a01b031681565b3480156103a7575f5ffd5b506103676103b6366004611ca7565b610727565b3480156103c6575f5ffd5b50604080518082019091526015815274726563656976654d6573736167652862797465732960581b60209091015261041b7ff953cec75ae677942d7cda5cb6d12c0cb96a0904bf37d36301eef297b83c411d81565b6040516001600160e01b0319909116815260200161023a565b34801561043f575f5ffd5b506104485f5481565b60405190815260200161023a565b348015610461575f5ffd5b50610448610825565b348015610475575f5ffd5b5060025461048a90600160a01b900460ff1681565b60405160ff909116815260200161023a565b6103676104aa366004611cf5565b61084f565b3480156104ba575f5ffd5b50610448620493e081565b3480156104d0575f5ffd5b5060065461022d906001600160a01b031681565b3480156104ef575f5ffd5b50610367610a5d565b348015610503575f5ffd5b50610367610512366004611d42565b610ad6565b348015610522575f5ffd5b5060025461022d906001600160a01b031681565b348015610541575f5ffd5b50610448610b82565b348015610555575f5ffd5b50610367610564366004611d64565b610cde565b348015610574575f5ffd5b50610367610583366004611d96565b610fdc565b348015610593575f5ffd5b506104487f000000000000000000000000000000000000000000000000000000000000000081565b3480156105c6575f5ffd5b506103676105d5366004611d42565b611086565b3480156105e5575f5ffd5b506012610448565b3480156105f8575f5ffd5b50610367610607366004611d42565b611132565b348015610617575f5ffd5b50610448621e848081565b34801561062d575f5ffd5b5061044860015481565b6002546001600160a01b031633146106735760025460405163521eb56d60e11b81526101b69133916001600160a01b0390911690600401611e19565b5f8190556040518181527fc72394635a1b67b1c2708140b8c308785562b0ccd995e86ac0e2f1791ca040e7906020015b60405180910390a150565b6002546001600160a01b031633146106ea5760025460405163521eb56d60e11b81526101b69133916001600160a01b0390911690600401611e19565b6002805460ff60a01b1916600160a01b1790556040517f20e9b9dbd8158c2b961d8645a7d06624a045634bb65f07ef751ae014a65f61f5905f90a1565b6002546001600160a01b031633146107635760025460405163521eb56d60e11b81526101b69133916001600160a01b0390911690600401611e19565b5f61076e83836113f6565b905081156107e9575f54808211156107a357604051637ae5968560e01b815260048101839052602481018290526044016101b6565b6107ad8282611e47565b5f8190556040518181529091507fc72394635a1b67b1c2708140b8c308785562b0ccd995e86ac0e2f1791ca040e79060200160405180910390a1505b7f6c5612d5407f11b75444f1d65d69cd4e33f371e29b660ca8ceaba56b1953bfe4836040516108189190611e8e565b60405180910390a1505050565b602461083960026001600160401b03611eb4565b6108439190611ee1565b6001600160401b031681565b6002546001600160a81b90910460ff16111561087e576040516345f5ce8b60e11b815260040160405180910390fd5b6002805460ff60a81b198116600160a91b179091556001600160a01b031633146108cc5760025460405163521eb56d60e11b81526101b69133916001600160a01b0390911690600401611e19565b60028054600160a01b900460ff1690036108f9576040516313d0ff5960e31b815260040160405180910390fd5b5f54601281805f0361091e57604051637c946ed760e01b815260040160405180910390fd5b6109288184611e47565b5f908155600154604080516020810183905246918101919091523060608201529091906080016040516020818303038152906040528051906020012090505f5f610973858985611976565b909250905080156109f957604051339082905f81818185875af1925050503d805f81146109bb576040519150601f19603f3d011682016040523d82523d5f602084013e6109c0565b606091505b50506040518281523391507f8e49ed3e274fbea1556bdfaa9a37a0c28445bfe26d57beaf9f04fd517aa417419060200160405180910390a25b610a04846001611f3f565b6001556040518581528390339084907f1ff6d173c1ebeb42f666a09b94f554cf43eadf8054fda3247f56c343baab28f79060200160405180910390a450506002805460ff60a81b1916600160a81b179055505050505050565b6002546001600160a01b03163314610a995760025460405163521eb56d60e11b81526101b69133916001600160a01b0390911690600401611e19565b6002805460ff60a01b1916600160a11b1790556040517f8ef6a6615a637325c66275a8d4cadb0844f08a758e5a9df369412975bcdcbc48905f90a1565b6002546001600160a01b03163314610b125760025460405163521eb56d60e11b81526101b69133916001600160a01b0390911690600401611e19565b6001600160a01b038116610b395760405163d92e233d60e01b815260040160405180910390fd5b600680546001600160a01b0319166001600160a01b0383169081179091556040517f0dbabd9a07143f72b3cba582b51cec1eec13510cdd081ebf1f160e27268d5ca3905f90a250565b6002545f906001600160a81b90910460ff161115610bb3576040516345f5ce8b60e11b815260040160405180910390fd5b6002805460ff60a81b198116600160a91b179091556001600160a01b03163314610c015760025460405163521eb56d60e11b81526101b69133916001600160a01b0390911690600401611e19565b479050805f03610c2457604051637c946ed760e01b815260040160405180910390fd5b6040515f90339083908381818185875af1925050503d805f8114610c63576040519150601f19603f3d011682016040523d82523d5f602084013e610c68565b606091505b5050905080610c92575f30338460405163cd3f165960e01b81526004016101b69493929190611b93565b60405182815233907ff36f4d6622e16a536bbb049064af779cdd483a0b388d347d3752a65f1058bf5b9060200160405180910390a2506002805460ff60a81b1916600160a81b17905590565b6002546001600160a81b90910460ff161115610d0d576040516345f5ce8b60e11b815260040160405180910390fd5b6002805460ff60a81b1916600160a91b1780825560ff600160a01b909104169003610d4b576040516313d0ff5960e31b815260040160405180910390fd5b5f8383834630604051602001610d65959493929190611f52565b60408051601f1981840301815291815281516020928301205f818152600490935291205490915060ff1680610dc6576040516315c15ea560e11b81526001600160a01b038616600482015260248101859052604481018490526064016101b6565b6040516370a0823160e01b81525f906001600160a01b037f000000000000000000000000000000000000000000000000000000000000000016906370a0823190610e14903090600401611bbd565b602060405180830381865afa158015610e2f573d5f5f3e3d5ffd5b505050506040513d601f19601f82011682018060405250810190610e539190611f82565b9050848110610f9e5760405163095ea7b360e01b81526001600160a01b037f0000000000000000000000000000000000000000000000000000000000000000169063095ea7b390610eaa9089908990600401611f99565b6020604051808303815f875af1158015610ec6573d5f5f3e3d5ffd5b505050506040513d601f19601f82011682018060405250810190610eea9190611fb2565b5060405163b6b55f2560e01b8152600481018690526001600160a01b0387169063b6b55f25906024015f604051808303815f87803b158015610f2a575f5ffd5b505af1158015610f3c573d5f5f3e3d5ffd5b5050505083866001600160a01b03167f22ab9fd8eb5063f7f3cb43c78f5d368aea9a51855ada00fa146687ef2c32198087604051610f7c91815260200190565b60405180910390a35f838152600460205260409020805460ff19169055610fc1565b60405163cf47918160e01b815260048101829052602481018690526044016101b6565b50506002805460ff60a81b1916600160a81b17905550505050565b6005546001600160a01b031633146110405760405162461bcd60e51b815260206004820152602160248201527f4678426173654368696c6454756e6e656c3a20494e56414c49445f53454e44456044820152602960f91b60648201526084016101b6565b611080848484848080601f0160208091040260200160405190810160405280939291908181526020018383808284375f920191909152506119bb92505050565b50505050565b6002546001600160a01b031633146110c25760025460405163521eb56d60e11b81526101b69133916001600160a01b0390911690600401611e19565b6001600160a01b0381166110e95760405163d92e233d60e01b815260040160405180910390fd5b600280546001600160a01b0319166001600160a01b0383169081179091556040517f4ffd725fc4a22075e9ec71c59edf9c38cdeb588a91b24fc5b61388c5be41282b905f90a250565b6002546001600160a81b90910460ff161115611161576040516345f5ce8b60e11b815260040160405180910390fd5b6002805460ff60a81b198116600160a91b179091556001600160a01b031633146111af5760025460405163521eb56d60e11b81526101b69133916001600160a01b0390911690600401611e19565b600254600160a01b900460ff166001036111dc5760405163a45f47fd60e01b815260040160405180910390fd5b806001600160a01b03163b5f036112085780604051631c7025f960e11b81526004016101b69190611bbd565b306001600160a01b038216036112335730604051631c7025f960e11b81526004016101b69190611bbd565b6040516370a0823160e01b81525f906001600160a01b037f000000000000000000000000000000000000000000000000000000000000000016906370a0823190611281903090600401611bbd565b602060405180830381865afa15801561129c573d5f5f3e3d5ffd5b505050506040513d601f19601f820116820180604052508101906112c09190611f82565b905080156113a25760405163a9059cbb60e01b81525f906001600160a01b037f0000000000000000000000000000000000000000000000000000000000000000169063a9059cbb906113189086908690600401611f99565b6020604051808303815f875af1158015611334573d5f5f3e3d5ffd5b505050506040513d601f19601f820116820180604052508101906113589190611fb2565b9050806113a0577f000000000000000000000000000000000000000000000000000000000000000030848460405163cd3f165960e01b81526004016101b69493929190611b93565b505b600280546001600160a01b03191690556040518181526001600160a01b0383169033907f928fd5531324ee87d76cc5307dc37580174da76b85cd546da631b2670bc266b59060200160405180910390a35050565b6002545f906001600160a81b90910460ff161115611427576040516345f5ce8b60e11b815260040160405180910390fd5b6002805460ff60a81b1916600160a91b17905582515f90819081906114559060209088018101908801612059565b5f81815260036020526040902054929550909350915060ff161561148f576040516356bc34a160e01b8152600481018290526024016101b6565b5f818152600360205260408120805460ff19166001179055600254600160a01b900460ff16815b855181101561193a575f8682815181106114d2576114d2612129565b602002602001015190505f8683815181106114ef576114ef612129565b602002602001015190505f8260405160240161150b9190611bbd565b60408051601f198184030181529181526020820180516001600160e01b0316631eda94d760e01b179052519091505f9081906001600160a01b037f0000000000000000000000000000000000000000000000000000000000000000169061157390859061213d565b5f604051808303815f865af19150503d805f81146115ac576040519150601f19603f3d011682016040523d82523d5f602084013e6115b1565b606091505b50915091505f8280156115c5575081516020145b156115e157818060200190518101906115de9190611f82565b90505b805f03611648578d61163d576115f7858a611f3f565b9850856001600160a01b03167f29bd7fae5899787bb9cb5aa121b781bf47bb44cc44f0f3ddd1e1ea383acd22fb8660405161163491815260200190565b60405180910390a25b505050505050611932565b808511156116b7578d6116b3575f6116608287611e47565b905061166c818b611f3f565b9950866001600160a01b03167f29bd7fae5899787bb9cb5aa121b781bf47bb44cc44f0f3ddd1e1ea383acd22fb826040516116a991815260200190565b60405180910390a2505b8094505b6116c1858e611f3f565b9c505f7f00000000000000000000000000000000000000000000000000000000000000006001600160a01b03166370a08231306040518263ffffffff1660e01b81526004016117109190611bbd565b602060405180830381865afa15801561172b573d5f5f3e3d5ffd5b505050506040513d601f19601f8201168201806040525081019061174f9190611f82565b90508581101580156117615750886001145b156118935760405163095ea7b360e01b81526001600160a01b037f0000000000000000000000000000000000000000000000000000000000000000169063095ea7b3906117b4908a908a90600401611f99565b6020604051808303815f875af11580156117d0573d5f5f3e3d5ffd5b505050506040513d601f19601f820116820180604052508101906117f49190611fb2565b5060405163b6b55f2560e01b8152600481018790526001600160a01b0388169063b6b55f25906024015f604051808303815f87803b158015611834575f5ffd5b505af1158015611846573d5f5f3e3d5ffd5b505050508a876001600160a01b03167f22ab9fd8eb5063f7f3cb43c78f5d368aea9a51855ada00fa146687ef2c3219808860405161188691815260200190565b60405180910390a361192a565b5f87878d46306040516020016118ad959493929190611f52565b60408051601f1981840301815282825280516020918201205f81815260048352839020805460ff191660011790558a84529083018590529082018c905291508c906001600160a01b038a169083907ff40f70fa5e98296d34577a11349caa5adf0d9cf9b6d416fd901de223c50d7a6c9060600160405180910390a4505b505050505050505b6001016114b6565b50811561195757815f5f8282546119519190611f3f565b90915550505b50506002805460ff60a81b1916600160a81b1790555091949350505050565b5f5f5f8584604051602001611995929190918252602082015260400190565b60405160208183030381529060405290506119af816119eb565b50919434945092505050565b6119e67f00000000000000000000000000000000000000000000000000000000000000008383611a1a565b505050565b7f8c5261668696ce22758910d05bab8f186d6eb247ceac2af2e82c7dc17669b036816040516106a39190611e8e565b7f00000000000000000000000000000000000000000000000000000000000000006001600160a01b0316836001600160a01b031614611a9057827f000000000000000000000000000000000000000000000000000000000000000060405163179888fd60e11b81526004016101b6929190611e19565b7f00000000000000000000000000000000000000000000000000000000000000006001600160a01b0316826001600160a01b031614611b0657817f0000000000000000000000000000000000000000000000000000000000000000604051630d16cbdd60e01b81526004016101b6929190611e19565b7f00000000000000000000000000000000000000000000000000000000000000006001600160a01b03167f98bbde530ec85b002f6fb0864beccaaf3ac3d2a4ac35cb3b03cf7c61ee415e337f000000000000000000000000000000000000000000000000000000000000000083604051611b81929190612153565b60405180910390a2611080815f6113f6565b6001600160a01b039485168152928416602084015292166040820152606081019190915260800190565b6001600160a01b0391909116815260200190565b5f60208284031215611be1575f5ffd5b5035919050565b634e487b7160e01b5f52604160045260245ffd5b604051601f8201601f191681016001600160401b0381118282101715611c2457611c24611be8565b604052919050565b5f82601f830112611c3b575f5ffd5b81356001600160401b03811115611c5457611c54611be8565b611c67601f8201601f1916602001611bfc565b818152846020838601011115611c7b575f5ffd5b816020850160208301375f918101602001919091529392505050565b8015158114611ca4575f5ffd5b50565b5f5f60408385031215611cb8575f5ffd5b82356001600160401b03811115611ccd575f5ffd5b611cd985828601611c2c565b9250506020830135611cea81611c97565b809150509250929050565b5f60208284031215611d05575f5ffd5b81356001600160401b03811115611d1a575f5ffd5b611d2684828501611c2c565b949350505050565b6001600160a01b0381168114611ca4575f5ffd5b5f60208284031215611d52575f5ffd5b8135611d5d81611d2e565b9392505050565b5f5f5f60608486031215611d76575f5ffd5b8335611d8181611d2e565b95602085013595506040909401359392505050565b5f5f5f5f60608587031215611da9575f5ffd5b843593506020850135611dbb81611d2e565b925060408501356001600160401b03811115611dd5575f5ffd5b8501601f81018713611de5575f5ffd5b80356001600160401b03811115611dfa575f5ffd5b876020828401011115611e0b575f5ffd5b949793965060200194505050565b6001600160a01b0392831681529116602082015260400190565b634e487b7160e01b5f52601160045260245ffd5b81810381811115611e5a57611e5a611e33565b92915050565b5f81518084528060208401602086015e5f602082860101526020601f19601f83011685010191505092915050565b602081525f611d5d6020830184611e60565b634e487b7160e01b5f52601260045260245ffd5b5f6001600160401b03831680611ecc57611ecc611ea0565b806001600160401b0384160491505092915050565b6001600160401b038281168282160390811115611e5a57611e5a611e33565b6001841115611f3757808504811115611f1b57611f1b611e33565b6001841615611f2957908102905b60019390931c928002611f00565b935093915050565b80820180821115611e5a57611e5a611e33565b6001600160a01b039586168152602081019490945260408401929092526060830152909116608082015260a00190565b5f60208284031215611f92575f5ffd5b5051919050565b6001600160a01b03929092168252602082015260400190565b5f60208284031215611fc2575f5ffd5b8151611d5d81611c97565b5f6001600160401b03821115611fe557611fe5611be8565b5060051b60200190565b5f82601f830112611ffe575f5ffd5b815161201161200c82611fcd565b611bfc565b8082825260208201915060208360051b860101925085831115612032575f5ffd5b602085015b8381101561204f578051835260209283019201612037565b5095945050505050565b5f5f5f6060848603121561206b575f5ffd5b83516001600160401b03811115612080575f5ffd5b8401601f81018613612090575f5ffd5b805161209e61200c82611fcd565b8082825260208201915060208360051b8501019250888311156120bf575f5ffd5b6020840193505b828410156120ea5783516120d981611d2e565b8252602093840193909101906120c6565b8096505050505060208401516001600160401b03811115612109575f5ffd5b61211586828701611fef565b604095909501519396949550929392505050565b634e487b7160e01b5f52603260045260245ffd5b5f82518060208501845e5f920191825250919050565b828152604060208201525f611d266040830184611e6056fea26469706673582212205255ada68f406a12f568c1e15525fa33b292ee1dd120ab1180f106d51b22afa464736f6c634300081e0033","linkReferences":{}},"methodIdentifiers":{"MAX_CHAIN_ID()":"5bc105c0","MAX_GAS_LIMIT()":"e3f5aa51","MIN_GAS_LIMIT()":"7ce1ffeb","RECEIVE_MESSAGE()":"54d20cc2","changeOwner(address)":"a6f9dae1","drain()":"9890220b","fxChild()":"450d11f0","fxRootTunnel()":"7f1e9cb0","getBridgingDecimals()":"a8b2ae02","l1DepositProcessor()":"256359a8","l1SourceChainId()":"9b7bb847","l2MessageRelayer()":"1bad5957","migrate(address)":"ce5494bb","olas()":"0031d115","owner()":"8da5cb5b","pause()":"8456cb59","paused()":"5c975abb","processDataMaintenance(bytes,bool)":"4fa65958","processMessageFromRoot(uint256,address,bytes)":"9a7c4b71","processedHashes(bytes32)":"07d9c534","queuedHashes(bytes32)":"1b2e7f0a","redeem(address,uint256,bytes32)":"992c3e4b","setFxRootTunnel(address)":"88837094","stakingBatchNonce()":"f4427c2c","stakingFactory()":"29134768","syncWithheldAmount(bytes)":"7424ddc8","unpause()":"3f4ba83a","updateWithheldAmountMaintenance(uint256)":"32cbdd21","withheldAmount()":"5a7287cf"},"id":33}