{"abi":[{"type":"constructor","inputs":[{"name":"_olas","type":"address","internalType":"address"},{"name":"_l1Dispenser","type":"address","internalType":"address"},{"name":"_l1TokenRelayer","type":"address","internalType":"address"},{"name":"_l1MessageRelayer","type":"address","internalType":"address"},{"name":"_l2TargetChainId","type":"uint256","internalType":"uint256"},{"name":"_checkpointManager","type":"address","internalType":"address"},{"name":"_predicate","type":"address","internalType":"address"}],"stateMutability":"nonpayable"},{"type":"function","name":"MAX_CHAIN_ID","inputs":[],"outputs":[{"name":"","type":"uint256","internalType":"uint256"}],"stateMutability":"view"},{"type":"function","name":"MESSAGE_GAS_LIMIT","inputs":[],"outputs":[{"name":"","type":"uint256","internalType":"uint256"}],"stateMutability":"view"},{"type":"function","name":"RECEIVE_MESSAGE","inputs":[],"outputs":[{"name":"","type":"bytes4","internalType":"bytes4"}],"stateMutability":"view"},{"type":"function","name":"SEND_MESSAGE_EVENT_SIG","inputs":[],"outputs":[{"name":"","type":"bytes32","internalType":"bytes32"}],"stateMutability":"view"},{"type":"function","name":"TOKEN_GAS_LIMIT","inputs":[],"outputs":[{"name":"","type":"uint256","internalType":"uint256"}],"stateMutability":"view"},{"type":"function","name":"checkpointManager","inputs":[],"outputs":[{"name":"","type":"address","internalType":"contract ICheckpointManager"}],"stateMutability":"view"},{"type":"function","name":"fxChildTunnel","inputs":[],"outputs":[{"name":"","type":"address","internalType":"address"}],"stateMutability":"view"},{"type":"function","name":"fxRoot","inputs":[],"outputs":[{"name":"","type":"address","internalType":"contract IFxStateSender"}],"stateMutability":"view"},{"type":"function","name":"getBridgingDecimals","inputs":[],"outputs":[{"name":"","type":"uint256","internalType":"uint256"}],"stateMutability":"pure"},{"type":"function","name":"l1Dispenser","inputs":[],"outputs":[{"name":"","type":"address","internalType":"address"}],"stateMutability":"view"},{"type":"function","name":"l1MessageRelayer","inputs":[],"outputs":[{"name":"","type":"address","internalType":"address"}],"stateMutability":"view"},{"type":"function","name":"l1TokenRelayer","inputs":[],"outputs":[{"name":"","type":"address","internalType":"address"}],"stateMutability":"view"},{"type":"function","name":"l2TargetChainId","inputs":[],"outputs":[{"name":"","type":"uint256","internalType":"uint256"}],"stateMutability":"view"},{"type":"function","name":"l2TargetDispenser","inputs":[],"outputs":[{"name":"","type":"address","internalType":"address"}],"stateMutability":"view"},{"type":"function","name":"olas","inputs":[],"outputs":[{"name":"","type":"address","internalType":"address"}],"stateMutability":"view"},{"type":"function","name":"owner","inputs":[],"outputs":[{"name":"","type":"address","internalType":"address"}],"stateMutability":"view"},{"type":"function","name":"predicate","inputs":[],"outputs":[{"name":"","type":"address","internalType":"address"}],"stateMutability":"view"},{"type":"function","name":"processedExits","inputs":[{"name":"","type":"bytes32","internalType":"bytes32"}],"outputs":[{"name":"","type":"bool","internalType":"bool"}],"stateMutability":"view"},{"type":"function","name":"processedHashes","inputs":[{"name":"","type":"bytes32","internalType":"bytes32"}],"outputs":[{"name":"","type":"bool","internalType":"bool"}],"stateMutability":"view"},{"type":"function","name":"receiveMessage","inputs":[{"name":"inputData","type":"bytes","internalType":"bytes"}],"outputs":[],"stateMutability":"nonpayable"},{"type":"function","name":"sendMessage","inputs":[{"name":"target","type":"address","internalType":"address"},{"name":"stakingIncentive","type":"uint256","internalType":"uint256"},{"name":"bridgePayload","type":"bytes","internalType":"bytes"},{"name":"transferAmount","type":"uint256","internalType":"uint256"}],"outputs":[],"stateMutability":"payable"},{"type":"function","name":"sendMessageBatch","inputs":[{"name":"targets","type":"address[]","internalType":"address[]"},{"name":"stakingIncentives","type":"uint256[]","internalType":"uint256[]"},{"name":"bridgePayload","type":"bytes","internalType":"bytes"},{"name":"transferAmount","type":"uint256","internalType":"uint256"}],"outputs":[],"stateMutability":"payable"},{"type":"function","name":"setFxChildTunnel","inputs":[{"name":"l2Dispenser","type":"address","internalType":"address"}],"outputs":[],"stateMutability":"nonpayable"},{"type":"function","name":"setL2TargetDispenser","inputs":[{"name":"l2Dispenser","type":"address","internalType":"address"}],"outputs":[],"stateMutability":"nonpayable"},{"type":"function","name":"stakingBatchNonce","inputs":[],"outputs":[{"name":"","type":"uint256","internalType":"uint256"}],"stateMutability":"view"},{"type":"function","name":"updateHashMaintenance","inputs":[{"name":"batchHash","type":"bytes32","internalType":"bytes32"}],"outputs":[],"stateMutability":"nonpayable"},{"type":"event","name":"FxChildTunnelUpdated","inputs":[{"name":"fxChildTunnel","type":"address","indexed":true,"internalType":"address"}],"anonymous":false},{"type":"event","name":"L2TargetDispenserUpdated","inputs":[{"name":"l2TargetDispenser","type":"address","indexed":true,"internalType":"address"}],"anonymous":false},{"type":"event","name":"LeftoversRefunded","inputs":[{"name":"sender","type":"address","indexed":true,"internalType":"address"},{"name":"leftovers","type":"uint256","indexed":false,"internalType":"uint256"}],"anonymous":false},{"type":"event","name":"MessagePosted","inputs":[{"name":"sequence","type":"uint256","indexed":true,"internalType":"uint256"},{"name":"targets","type":"address[]","indexed":false,"internalType":"address[]"},{"name":"stakingIncentives","type":"uint256[]","indexed":false,"internalType":"uint256[]"},{"name":"transferAmount","type":"uint256","indexed":false,"internalType":"uint256"},{"name":"batchHash","type":"bytes32","indexed":true,"internalType":"bytes32"}],"anonymous":false},{"type":"event","name":"MessageReceived","inputs":[{"name":"l1Relayer","type":"address","indexed":true,"internalType":"address"},{"name":"chainId","type":"uint256","indexed":true,"internalType":"uint256"},{"name":"data","type":"bytes","indexed":false,"internalType":"bytes"}],"anonymous":false},{"type":"error","name":"AlreadyDelivered","inputs":[{"name":"deliveryHash","type":"bytes32","internalType":"bytes32"}]},{"type":"error","name":"IncorrectDataLength","inputs":[{"name":"expected","type":"uint256","internalType":"uint256"},{"name":"provided","type":"uint256","internalType":"uint256"}]},{"type":"error","name":"InsufficientBalance","inputs":[{"name":"provided","type":"uint256","internalType":"uint256"},{"name":"expected","type":"uint256","internalType":"uint256"}]},{"type":"error","name":"LowerThan","inputs":[{"name":"provided","type":"uint256","internalType":"uint256"},{"name":"expected","type":"uint256","internalType":"uint256"}]},{"type":"error","name":"ManagerOnly","inputs":[{"name":"sender","type":"address","internalType":"address"},{"name":"manager","type":"address","internalType":"address"}]},{"type":"error","name":"Overflow","inputs":[{"name":"provided","type":"uint256","internalType":"uint256"},{"name":"max","type":"uint256","internalType":"uint256"}]},{"type":"error","name":"OwnerOnly","inputs":[{"name":"sender","type":"address","internalType":"address"},{"name":"owner","type":"address","internalType":"address"}]},{"type":"error","name":"Paused","inputs":[]},{"type":"error","name":"ReentrancyGuard","inputs":[]},{"type":"error","name":"TargetAmountNotQueued","inputs":[{"name":"target","type":"address","internalType":"address"},{"name":"amount","type":"uint256","internalType":"uint256"},{"name":"batchHash","type":"bytes32","internalType":"bytes32"}]},{"type":"error","name":"TargetRelayerOnly","inputs":[{"name":"provided","type":"address","internalType":"address"},{"name":"expected","type":"address","internalType":"address"}]},{"type":"error","name":"TransferFailed","inputs":[{"name":"token","type":"address","internalType":"address"},{"name":"from","type":"address","internalType":"address"},{"name":"to","type":"address","internalType":"address"},{"name":"amount","type":"uint256","internalType":"uint256"}]},{"type":"error","name":"Unpaused","inputs":[]},{"type":"error","name":"WrongAccount","inputs":[{"name":"account","type":"address","internalType":"address"}]},{"type":"error","name":"WrongAmount","inputs":[{"name":"provided","type":"uint256","internalType":"uint256"},{"name":"expected","type":"uint256","internalType":"uint256"}]},{"type":"error","name":"WrongChainId","inputs":[{"name":"provided","type":"uint256","internalType":"uint256"},{"name":"expected","type":"uint256","internalType":"uint256"}]},{"type":"error","name":"WrongMessageSender","inputs":[{"name":"provided","type":"address","internalType":"address"},{"name":"expected","type":"address","internalType":"address"}]},{"type":"error","name":"WrongTokenAddress","inputs":[{"name":"provided","type":"address","internalType":"address"},{"name":"expected","type":"address","internalType":"address"}]},{"type":"error","name":"ZeroAddress","inputs":[]},{"type":"error","name":"ZeroValue","inputs":[]}],"bytecode":{"object":"0x610140604052348015610010575f5ffd5b50604051612f95380380612f9583398101604081905261002f916101df565b818488888883886001600160a01b038416158061005357506001600160a01b038316155b8061006557506001600160a01b038216155b156100835760405163d92e233d60e01b815260040160405180910390fd5b805f036100a357604051637c946ed760e01b815260040160405180910390fd5b60246100b760026001600160401b03610259565b6100c19190610293565b6001600160401b031681111561011f578060246100e660026001600160401b03610259565b6100f09190610293565b604051637ae5968560e01b815260048101929092526001600160401b0316602482015260440160405180910390fd5b6001600160a01b0394851660805292841660a05290831660c052821660e0526101005260018054336001600160a01b0319918216179091556005805482169483169490941790935560048054909316918116919091179091558216158061018d57506001600160a01b038116155b156101ab5760405163d92e233d60e01b815260040160405180910390fd5b6001600160a01b031661012052506102c4945050505050565b80516001600160a01b03811681146101da575f5ffd5b919050565b5f5f5f5f5f5f5f60e0888a0312156101f5575f5ffd5b6101fe886101c4565b965061020c602089016101c4565b955061021a604089016101c4565b9450610228606089016101c4565b93506080880151925061023d60a089016101c4565b915061024b60c089016101c4565b905092959891949750929550565b5f6001600160401b0383168061027d57634e487b7160e01b5f52601260045260245ffd5b6001600160401b03929092169190910492915050565b6001600160401b0382811682821603908111156102be57634e487b7160e01b5f52601160045260245ffd5b92915050565b60805160a05160c05160e0516101005161012051612c1a61037b5f395f81816104dc0152610b9101525f818161046c01528181611a670152611b3a01525f81816102400152818161100b015281816119af01526119e901525f81816103650152610c4201525f818161050f015281816105bc015281816105e30152818161073b015281816107620152818161095a015281816109810152611b7601525f818161017101528181610bc00152610c6f0152612c1a5ff3fe60806040526004361061015c575f3560e01c8063ac65ded2116100be578063de9b771f11610078578063de9b771f1461048e578063e309fb77146104ad578063e6198705146104cb578063f2541c35146104fe578063f4427c2c14610531578063f953cec714610546578063f9fc3c2114610565575f5ffd5b8063ac65ded2146103d8578063aea4e49e146103f7578063b2267a7b14610416578063bde5266114610429578063c0857ba01461043c578063c23cc3ff1461045b575f5ffd5b806354e4bbf41161011a57806354e4bbf4146102f15780635bc105c014610312578063607f2d42146103265780636143fe93146103545780638da5cb5b14610387578063972c4928146103a6578063a8b2ae02146103c5575f5ffd5b806231d1151461016057806307d9c534146101b05780630e387de6146101ee5780633d1f86791461022f5780634c1c6cbf1461026257806354d20cc214610278575b5f5ffd5b34801561016b575f5ffd5b506101937f000000000000000000000000000000000000000000000000000000000000000081565b6040516001600160a01b0390911681526020015b60405180910390f35b3480156101bb575f5ffd5b506101de6101ca36600461240f565b60036020525f908152604090205460ff1681565b60405190151581526020016101a7565b3480156101f9575f5ffd5b506102217f8c5261668696ce22758910d05bab8f186d6eb247ceac2af2e82c7dc17669b03681565b6040519081526020016101a7565b34801561023a575f5ffd5b506101937f000000000000000000000000000000000000000000000000000000000000000081565b34801561026d575f5ffd5b50610221620493e081565b348015610283575f5ffd5b50604080518082019091526015815274726563656976654d6573736167652862797465732960581b6020909101526102d87ff953cec75ae677942d7cda5cb6d12c0cb96a0904bf37d36301eef297b83c411d81565b6040516001600160e01b031990911681526020016101a7565b3480156102fc575f5ffd5b5061031061030b36600461243a565b61057b565b005b34801561031d575f5ffd5b50610221610587565b348015610331575f5ffd5b506101de61034036600461240f565b60076020525f908152604090205460ff1681565b34801561035f575f5ffd5b506101937f000000000000000000000000000000000000000000000000000000000000000081565b348015610392575f5ffd5b50600154610193906001600160a01b031681565b3480156103b1575f5ffd5b50600654610193906001600160a01b031681565b3480156103d0575f5ffd5b506012610221565b3480156103e3575f5ffd5b506103106103f236600461240f565b6105b1565b348015610402575f5ffd5b5061031061041136600461243a565b610673565b610310610424366004612511565b610730565b6103106104373660046125f4565b61094f565b348015610447575f5ffd5b50600554610193906001600160a01b031681565b348015610466575f5ffd5b506102217f000000000000000000000000000000000000000000000000000000000000000081565b348015610499575f5ffd5b50600454610193906001600160a01b031681565b3480156104b8575f5ffd5b505f54610193906001600160a01b031681565b3480156104d6575f5ffd5b506101937f000000000000000000000000000000000000000000000000000000000000000081565b348015610509575f5ffd5b506101937f000000000000000000000000000000000000000000000000000000000000000081565b34801561053c575f5ffd5b5061022160025481565b348015610551575f5ffd5b506103106105603660046126ca565b610aa6565b348015610570575f5ffd5b50610221621e848081565b61058481610673565b50565b602461059b60026001600160401b03612723565b6105a59190612750565b6001600160401b031681565b336001600160a01b037f00000000000000000000000000000000000000000000000000000000000000001614610627577f00000000000000000000000000000000000000000000000000000000000000003360405163312d21ff60e11b815260040161061e92919061276f565b60405180910390fd5b5f8181526003602052604090205460ff1615610659576040516356bc34a160e01b81526004810182905260240161061e565b5f908152600360205260409020805460ff19166001179055565b6001546001600160a01b031633146106af5760015460405163521eb56d60e11b815261061e9133916001600160a01b039091169060040161276f565b6001600160a01b0381166106d65760405163d92e233d60e01b815260040160405180910390fd5b600680546001600160a01b0319166001600160a01b0383161790556106fa81610abf565b6040516001600160a01b038216907fa9bdbd6b528cbfc0588f52c3a4ec11bc3f60d0113e60e778f5c42ff7599eef9c905f90a250565b336001600160a01b037f0000000000000000000000000000000000000000000000000000000000000000161461079d577f00000000000000000000000000000000000000000000000000000000000000003360405163312d21ff60e11b815260040161061e92919061276f565b6040805160018082528183019092525f916020808301908036833701905050905084815f815181106107d1576107d1612789565b6001600160a01b0392909216602092830291909101909101526040805160018082528183019092525f9181602001602082028036833701905050905084815f8151811061082057610820612789565b6020026020010181815250505f60025490505f8146306040516020016108489392919061279d565b6040516020818303038152906040528051906020012090505f5f61086f86868a8a87610b72565b909250905080156108f557604051329082905f81818185875af1925050503d805f81146108b7576040519150601f19603f3d011682016040523d82523d5f602084013e6108bc565b606091505b50506040518281523291507f8e49ed3e274fbea1556bdfaa9a37a0c28445bfe26d57beaf9f04fd517aa417419060200160405180910390a25b6109008460016127bc565b60028190555082827f621aece9999edf4d664a3855f668f6fc380937a42044234fd883b42d0485118788888b60405161093b93929190612842565b60405180910390a350505050505050505050565b336001600160a01b037f000000000000000000000000000000000000000000000000000000000000000016146109bc577f00000000000000000000000000000000000000000000000000000000000000003360405163312d21ff60e11b815260040161061e92919061276f565b6002546040515f906109d69083904690309060200161279d565b6040516020818303038152906040528051906020012090505f5f6109fd8888888887610b72565b90925090508015610a4e57604051329082905f81818185875af1925050503d805f8114610a45576040519150601f19603f3d011682016040523d82523d5f602084013e610a4a565b606091505b5050505b610a598460016127bc565b60028190555082827f621aece9999edf4d664a3855f668f6fc380937a42044234fd883b42d048511878a8a89604051610a9493929190612842565b60405180910390a35050505050505050565b5f610ab082610d29565b9050610abb81611003565b5050565b6001546001600160a01b03163314610af95760015460405163521eb56d60e11b815261061e916001600160a01b031690339060040161276f565b6001600160a01b038116610b205760405163d92e233d60e01b815260040160405180910390fd5b5f80546001600160a01b0383166001600160a01b0319918216811783556001805490921690915560405190917f991aa5c8f67a92f8feb202de828958c681966ae343fcf6db040f5f8099d547cf91a250565b5f808315610ceb5760405163095ea7b360e01b81526001600160a01b037f000000000000000000000000000000000000000000000000000000000000000081166004830152602482018690527f0000000000000000000000000000000000000000000000000000000000000000169063095ea7b3906044016020604051808303815f875af1158015610c06573d5f5f3e3d5ffd5b505050506040513d601f19601f82011682018060405250810190610c2a9190612877565b505f5460408051602081018790526001600160a01b037f000000000000000000000000000000000000000000000000000000000000000081169363e3dec8fb939116917f000000000000000000000000000000000000000000000000000000000000000091016040516020818303038152906040526040518463ffffffff1660e01b8152600401610cbd939291906128c4565b5f604051808303815f87803b158015610cd4575f5ffd5b505af1158015610ce6573d5f5f3e3d5ffd5b505050505b5f878785604051602001610d0193929190612842565b6040516020818303038152906040529050610d1b8161103a565b509196349650945050505050565b60605f610d358361109e565b90505f610d41826110d4565b90505f610d4d83611102565b90505f81610d5a84611129565b610d63866112d3565b604051602001610d75939291906128f8565b60408051601f1981840301815291815281516020928301205f818152600790935291205490915060ff1615610df85760405162461bcd60e51b8152602060048201526024808201527f4678526f6f7454756e6e656c3a20455849545f414c52454144595f50524f434560448201526314d4d15160e21b606482015260840161061e565b5f818152600760205260408120805460ff19166001179055610e19856112ed565b90505f610e25826113f5565b9050610e3081611482565b6006546001600160a01b03908116911614610e9b5760405162461bcd60e51b815260206004820152602560248201527f4678526f6f7454756e6e656c3a20494e56414c49445f46585f4348494c445f54604482015264155393915360da1b606482015260840161061e565b5f610ea5876114a9565b9050610ec5610eb5846020015190565b87610ebf8a6114c3565b846114de565b610f1d5760405162461bcd60e51b815260206004820152602360248201527f4678526f6f7454756e6e656c3a20494e56414c49445f524543454950545f505260448201526227a7a360e91b606482015260840161061e565b610f4b85610f2a8961174f565b610f338a611769565b84610f3d8c611783565b610f468d61179c565b6117b7565b5f610f55836118d4565b90507f8c5261668696ce22758910d05bab8f186d6eb247ceac2af2e82c7dc17669b036610f8a610f85835f611910565b611947565b14610fd75760405162461bcd60e51b815260206004820152601f60248201527f4678526f6f7454756e6e656c3a20494e56414c49445f5349474e415455524500604482015260640161061e565b5f610fe184611991565b806020019051810190610ff4919061291d565b9b9a5050505050505050505050565b5f54610584907f0000000000000000000000000000000000000000000000000000000000000000906001600160a01b0316836119ad565b6004805460065460405163b472047760e01b81526001600160a01b039283169363b47204779361106e931691869101612991565b5f604051808303815f87803b158015611085575f5ffd5b505af1158015611097573d5f5f3e3d5ffd5b5050505050565b6040805160208101909152606081525f6110bf6110ba84611bc9565b611bf5565b60408051602081019091529081529392505050565b60606110fc825f01516008815181106110ef576110ef612789565b6020026020010151611cfa565b92915050565b5f6110fc825f015160028151811061111c5761111c612789565b6020026020010151611947565b60408051602081019091525f8152815160609190156110fc575f5f61114e5f86611d74565b60f81c9050600181148061116557508060ff166003145b156112095760018551600261117a91906129b4565b61118491906129cb565b6001600160401b0381111561119b5761119b612455565b6040519080825280601f01601f1916602001820160405280156111c5576020820181803683370190505b5092505f6111d4600187611d74565b905080845f815181106111e9576111e9612789565b60200101906001600160f81b03191690815f1a905350600192505061126b565b60028551600261121991906129b4565b61122391906129cb565b6001600160401b0381111561123a5761123a612455565b6040519080825280601f01601f191660200182016040528015611264576020820181803683370190505b5092505f91505b60ff82165b83518110156112ca5761129a61128960ff8516836129cb565b6112949060026127bc565b87611d74565b8482815181106112ac576112ac612789565b60200101906001600160f81b03191690815f1a905350600101611270565b50505092915050565b5f6110fc825f015160098151811061111c5761111c612789565b611310604051806060016040528060608152602001606081526020015f81525090565b611329825f01516006815181106110ef576110ef612789565b602082018190525f9061133b90611bc9565b905061134681611df4565b1561135b5761135481611bf5565b82526113e1565b602082015180515f90611370906001906129cb565b6001600160401b0381111561138757611387612455565b6040519080825280601f01601f1916602001820160405280156113b1576020820181803683370190505b5090505f5f8360210191508260200190506113ce82828551611e2b565b6113da6110ba84611bc9565b8652505050505b6113ea836112d3565b604083015250919050565b604080516080810182525f918101828152606080830193909352815260208101919091525f611440835f015160038151811061143357611433612789565b6020026020010151611bf5565b83604001518151811061145557611455612789565b60200260200101519050604051806040016040528082815260200161147983611bf5565b90529392505050565b5f6110fc82602001515f8151811061149c5761149c612789565b6020026020010151611eb3565b5f6110fc825f015160058151811061111c5761111c612789565b60606110fc825f01516007815181106110ef576110ef612789565b5f5f6114e984611bc9565b90505f6114f582611bf5565b9050606080855f806115068b611129565b905080515f0361151f575f975050505050505050611747565b5f5b865181101561173e578151831115611543575f98505050505050505050611747565b61156587828151811061155857611558612789565b6020026020010151611ecb565b955085805190602001208414611585575f98505050505050505050611747565b61159a87828151811061143357611433612789565b9450845160110361166957815183036115f8578c805190602001206115cb866010815181106110ef576110ef612789565b80519060200120036115e857600198505050505050505050611747565b5f98505050505050505050611747565b5f82848151811061160b5761160b612789565b016020015160f81c9050601081111561162f575f9950505050505050505050611747565b611654868260ff168151811061164757611647612789565b6020026020010151611f44565b94506116616001856127bc565b935050611736565b84516002036115e8575f61169261168b875f815181106110ef576110ef612789565b8486611f6f565b83519091506116a182866127bc565b036116f3578d805190602001206116c4876001815181106110ef576110ef612789565b80519060200120036116e25760019950505050505050505050611747565b5f9950505050505050505050611747565b805f0361170b575f9950505050505050505050611747565b61171581856127bc565b935061172d8660018151811061164757611647612789565b94506117369050565b600101611521565b50505050505050505b949350505050565b5f6110fc825f015160038151811061111c5761111c612789565b5f6110fc825f015160048151811061111c5761111c612789565b5f6110fc825f01515f8151811061111c5761111c612789565b60606110fc825f01516001815181106110ef576110ef612789565b6005546040516320a9cea560e11b8152600481018490525f91829182916001600160a01b0316906341539d4a9060240160a060405180830381865afa158015611802573d5f5f3e3d5ffd5b505050506040513d601f19601f8201168201806040525081019061182691906129de565b509350509250925061187d828a61183d91906129cb565b6040805160208082018e90528183018d9052606082018c905260808083018c90528351808403909101815260a09092019092528051910120908587612066565b6118c95760405162461bcd60e51b815260206004820152601c60248201527f4678526f6f7454756e6e656c3a20494e56414c49445f48454144455200000000604482015260640161061e565b505050505050505050565b6040805160208101909152606081526040518060200160405280611908846020015160018151811061143357611433612789565b905292915050565b604080518082019091525f8082526020820152825180518390811061193757611937612789565b6020026020010151905092915050565b80515f901580159061195b57508151602110155b611963575f5ffd5b5f5f61196e846121ca565b8151919350915060208210156117475760208290036101000a9004949350505050565b60606110fc82602001516002815181106110ef576110ef612789565b7f00000000000000000000000000000000000000000000000000000000000000006001600160a01b0316836001600160a01b031614611a2357337f000000000000000000000000000000000000000000000000000000000000000060405163179888fd60e11b815260040161061e92919061276f565b5f546001600160a01b03838116911614611a60575f54604051630d16cbdd60e01b815261061e9184916001600160a01b039091169060040161276f565b5f546040517f0000000000000000000000000000000000000000000000000000000000000000916001600160a01b0316907f98bbde530ec85b002f6fb0864beccaaf3ac3d2a4ac35cb3b03cf7c61ee415e3390611abe908590612a29565b60405180910390a35f5f82806020019051810190611adc9190612a3b565b5f81815260036020526040902054919350915060ff1615611b13576040516356bc34a160e01b81526004810182905260240161061e565b5f8181526003602052604090819020805460ff19166001179055516379bc81dd60e01b81527f0000000000000000000000000000000000000000000000000000000000000000600482015260248101839052604481018290526001600160a01b037f000000000000000000000000000000000000000000000000000000000000000016906379bc81dd906064015f604051808303815f87803b158015611bb7575f5ffd5b505af11580156118c9573d5f5f3e3d5ffd5b6040805180820182525f8082526020918201528151808301909252825182529182019181019190915290565b6060611c0082611df4565b611c08575f5ffd5b5f611c128361220c565b90505f816001600160401b03811115611c2d57611c2d612455565b604051908082528060200260200182016040528015611c7157816020015b604080518082019091525f8082526020820152815260200190600190039081611c4b5790505b5090505f611c82856020015161228f565b8560200151611c9191906127bc565b90505f805b84811015611cef57611ca78361230f565b9150604051806040016040528083815260200184815250848281518110611cd057611cd0612789565b6020908102919091010152611ce582846127bc565b9250600101611c96565b509195945050505050565b8051606090611d07575f5ffd5b5f5f611d12846121ca565b915091505f816001600160401b03811115611d2f57611d2f612455565b6040519080825280601f01601f191660200182016040528015611d59576020820181803683370190505b50905060208101611d6b8482856123b2565b50949350505050565b5f611d80600284612a5d565b15611dba57601082611d93600286612a70565b81518110611da357611da3612789565b0160200151611db5919060f81c612a83565b611dea565b601082611dc8600286612a70565b81518110611dd857611dd8612789565b0160200151611dea919060f81c612aa4565b60f81b9392505050565b80515f908103611e0557505f919050565b602082015180515f1a9060c0821015611e2157505f9392505050565b5060019392505050565b805f03611e3757505050565b60208110611e6f5782518252611e4e6020846127bc565b9250611e5b6020836127bc565b9150611e686020826129cb565b9050611e37565b805f03611e7b57505050565b5f6001611e898360206129cb565b611e9590610100612ba8565b611e9f91906129cb565b935183518516941916939093179091525050565b80515f90601514611ec2575f5ffd5b6110fc82611947565b60605f825f01516001600160401b03811115611ee957611ee9612455565b6040519080825280601f01601f191660200182016040528015611f13576020820181803683370190505b50905080515f03611f245792915050565b5f816020019050611f3d846020015182865f01516123b2565b5092915050565b80515f90602114611f53575f5ffd5b5f5f83602001516001611f6691906127bc565b51949350505050565b5f8080611f7b86611129565b90505f81516001600160401b03811115611f9757611f97612455565b6040519080825280601f01601f191660200182016040528015611fc1576020820181803683370190505b509050845b8251611fd290876127bc565b811015612038575f878281518110611fec57611fec612789565b01602001516001600160f81b0319169050808361200989856129cb565b8151811061201957612019612789565b60200101906001600160f81b03191690815f1a90535050600101611fc6565b508080519060200120828051906020012003612057578151925061205b565b5f92505b509095945050505050565b5f602082516120759190612a5d565b156120b95760405162461bcd60e51b8152602060048201526014602482015273092dcecc2d8d2c840e0e4dedecc40d8cadccee8d60631b604482015260640161061e565b5f602083516120c89190612a70565b90506120d5816002612ba8565b851061211b5760405162461bcd60e51b81526020600482015260156024820152744c65616620696e64657820697320746f6f2062696760581b604482015260640161061e565b5f8660205b855181116121bc57858101519250612139600289612a5d565b5f0361217057604080516020810184905290810184905260600160405160208183030381529060405280519060200120915061219d565b60408051602081018590529081018390526060016040516020818303038152906040528051906020012091505b6121a8600289612a70565b97506121b56020826127bc565b9050612120565b509094149695505050505050565b5f5f5f6121da846020015161228f565b90505f8185602001516121ed91906127bc565b90505f82865f01516121ff91906129cb565b9196919550909350505050565b80515f90810361221d57505f919050565b5f5f90505f61222f846020015161228f565b846020015161223e91906127bc565b90505f845f0151856020015161225491906127bc565b90505b80821015612286576122688261230f565b61227290836127bc565b91508261227e81612bb3565b935050612257565b50909392505050565b80515f90811a60808110156122a657505f92915050565b60b88110806122c1575060c081108015906122c1575060f881105b156122cf5750600192915050565b60c0811015612303576122e4600160b8612bcb565b6122f19060ff16826129cb565b6122fc9060016127bc565b9392505050565b6122e4600160f8612bcb565b80515f908190811a60808110156123295760019150611f3d565b60b881101561234f5761233d6080826129cb565b6123489060016127bc565b9150611f3d565b60c081101561237c5760b78103600185019450806020036101000a85510460018201810193505050611f3d565b60f88110156123905761233d60c0826129cb565b60019390930151602084900360f7016101000a900490920160f5190192915050565b805f036123be57505050565b602081106123f657825182526123d56020846127bc565b92506123e26020836127bc565b91506123ef6020826129cb565b90506123be565b801561240a575f6001611e898360206129cb565b505050565b5f6020828403121561241f575f5ffd5b5035919050565b6001600160a01b0381168114610584575f5ffd5b5f6020828403121561244a575f5ffd5b81356122fc81612426565b634e487b7160e01b5f52604160045260245ffd5b604051601f8201601f191681016001600160401b038111828210171561249157612491612455565b604052919050565b5f6001600160401b038211156124b1576124b1612455565b50601f01601f191660200190565b5f82601f8301126124ce575f5ffd5b81356124e16124dc82612499565b612469565b8181528460208386010111156124f5575f5ffd5b816020850160208301375f918101602001919091529392505050565b5f5f5f5f60808587031215612524575f5ffd5b843561252f81612426565b93506020850135925060408501356001600160401b03811115612550575f5ffd5b61255c878288016124bf565b949793965093946060013593505050565b5f6001600160401b0382111561258557612585612455565b5060051b60200190565b5f82601f83011261259e575f5ffd5b81356125ac6124dc8261256d565b8082825260208201915060208360051b8601019250858311156125cd575f5ffd5b602085015b838110156125ea5780358352602092830192016125d2565b5095945050505050565b5f5f5f5f60808587031215612607575f5ffd5b84356001600160401b0381111561261c575f5ffd5b8501601f8101871361262c575f5ffd5b803561263a6124dc8261256d565b8082825260208201915060208360051b85010192508983111561265b575f5ffd5b6020840193505b8284101561268657833561267581612426565b825260209384019390910190612662565b965050505060208501356001600160401b038111156126a3575f5ffd5b6126af8782880161258f565b93505060408501356001600160401b03811115612550575f5ffd5b5f602082840312156126da575f5ffd5b81356001600160401b038111156126ef575f5ffd5b611747848285016124bf565b634e487b7160e01b5f52601260045260245ffd5b634e487b7160e01b5f52601160045260245ffd5b5f6001600160401b0383168061273b5761273b6126fb565b806001600160401b0384160491505092915050565b6001600160401b0382811682821603908111156110fc576110fc61270f565b6001600160a01b0392831681529116602082015260400190565b634e487b7160e01b5f52603260045260245ffd5b92835260208301919091526001600160a01b0316604082015260600190565b808201808211156110fc576110fc61270f565b5f8151808452602084019350602083015f5b828110156128085781516001600160a01b03168652602095860195909101906001016127e1565b5093949350505050565b5f8151808452602084019350602083015f5b82811015612808578151865260209586019590910190600101612824565b606081525f61285460608301866127cf565b82810360208401526128668186612812565b915050826040830152949350505050565b5f60208284031215612887575f5ffd5b815180151581146122fc575f5ffd5b5f81518084528060208401602086015e5f602082860101526020601f19601f83011685010191505092915050565b6001600160a01b038481168252831660208201526060604082018190525f906128ef90830184612896565b95945050505050565b8381525f83518060208601602085015e60209201918201929092526040019392505050565b5f6020828403121561292d575f5ffd5b81516001600160401b03811115612942575f5ffd5b8201601f81018413612952575f5ffd5b80516129606124dc82612499565b818152856020838501011115612974575f5ffd5b8160208401602083015e5f91810160200191909152949350505050565b6001600160a01b03831681526040602082018190525f9061174790830184612896565b80820281158282048414176110fc576110fc61270f565b818103818111156110fc576110fc61270f565b5f5f5f5f5f60a086880312156129f2575f5ffd5b855160208701516040880151606089015160808a015193985091965094509250612a1b81612426565b809150509295509295909350565b602081525f6122fc6020830184612896565b5f5f60408385031215612a4c575f5ffd5b505080516020909101519092909150565b5f82612a6b57612a6b6126fb565b500690565b5f82612a7e57612a7e6126fb565b500490565b5f60ff831680612a9557612a956126fb565b8060ff84160691505092915050565b5f60ff831680612ab657612ab66126fb565b8060ff84160491505092915050565b6001815b6001841115612b0057808504811115612ae457612ae461270f565b6001841615612af257908102905b60019390931c928002612ac9565b935093915050565b5f82612b16575060016110fc565b81612b2257505f6110fc565b8160018114612b385760028114612b4257612b5e565b60019150506110fc565b60ff841115612b5357612b5361270f565b50506001821b6110fc565b5060208310610133831016604e8410600b8410161715612b81575081810a6110fc565b612b8d5f198484612ac5565b805f1904821115612ba057612ba061270f565b029392505050565b5f6122fc8383612b08565b5f60018201612bc457612bc461270f565b5060010190565b60ff82811682821603908111156110fc576110fc61270f56fea2646970667358221220d85151c784e19eb608c8dafe9e071760df292ffdbad05ff96058f25ec767fab564736f6c634300081e0033","linkReferences":{}},"methodIdentifiers":{"MAX_CHAIN_ID()":"5bc105c0","MESSAGE_GAS_LIMIT()":"f9fc3c21","RECEIVE_MESSAGE()":"54d20cc2","SEND_MESSAGE_EVENT_SIG()":"0e387de6","TOKEN_GAS_LIMIT()":"4c1c6cbf","checkpointManager()":"c0857ba0","fxChildTunnel()":"972c4928","fxRoot()":"de9b771f","getBridgingDecimals()":"a8b2ae02","l1Dispenser()":"f2541c35","l1MessageRelayer()":"3d1f8679","l1TokenRelayer()":"6143fe93","l2TargetChainId()":"c23cc3ff","l2TargetDispenser()":"e309fb77","olas()":"0031d115","owner()":"8da5cb5b","predicate()":"e6198705","processedExits(bytes32)":"607f2d42","processedHashes(bytes32)":"07d9c534","receiveMessage(bytes)":"f953cec7","sendMessage(address,uint256,bytes,uint256)":"b2267a7b","sendMessageBatch(address[],uint256[],bytes,uint256)":"bde52661","setFxChildTunnel(address)":"aea4e49e","setL2TargetDispenser(address)":"54e4bbf4","stakingBatchNonce()":"f4427c2c","updateHashMaintenance(bytes32)":"ac65ded2"},"id":32}