{
  "_format": "hh-sol-artifact-1",
  "contractName": "Tokenomics",
  "sourceName": "contracts/Tokenomics.sol",
  "abi": [
    {
      "inputs": [],
      "stateMutability": "nonpayable",
      "type": "constructor"
    },
    {
      "inputs": [],
      "name": "AlreadyInitialized",
      "type": "error"
    },
    {
      "inputs": [],
      "name": "DelegatecallOnly",
      "type": "error"
    },
    {
      "inputs": [
        {
          "internalType": "address",
          "name": "account",
          "type": "address"
        }
      ],
      "name": "DonatorBlacklisted",
      "type": "error"
    },
    {
      "inputs": [
        {
          "internalType": "uint256",
          "name": "provided",
          "type": "uint256"
        },
        {
          "internalType": "uint256",
          "name": "expected",
          "type": "uint256"
        }
      ],
      "name": "LowerThan",
      "type": "error"
    },
    {
      "inputs": [
        {
          "internalType": "address",
          "name": "sender",
          "type": "address"
        },
        {
          "internalType": "address",
          "name": "manager",
          "type": "address"
        }
      ],
      "name": "ManagerOnly",
      "type": "error"
    },
    {
      "inputs": [
        {
          "internalType": "uint256",
          "name": "provided",
          "type": "uint256"
        },
        {
          "internalType": "uint256",
          "name": "max",
          "type": "uint256"
        }
      ],
      "name": "Overflow",
      "type": "error"
    },
    {
      "inputs": [
        {
          "internalType": "address",
          "name": "sender",
          "type": "address"
        },
        {
          "internalType": "address",
          "name": "owner",
          "type": "address"
        }
      ],
      "name": "OwnerOnly",
      "type": "error"
    },
    {
      "inputs": [
        {
          "internalType": "uint256",
          "name": "x",
          "type": "uint256"
        },
        {
          "internalType": "uint256",
          "name": "y",
          "type": "uint256"
        }
      ],
      "name": "PRBMath_MulDiv18_Overflow",
      "type": "error"
    },
    {
      "inputs": [
        {
          "internalType": "uint256",
          "name": "x",
          "type": "uint256"
        },
        {
          "internalType": "uint256",
          "name": "y",
          "type": "uint256"
        },
        {
          "internalType": "uint256",
          "name": "denominator",
          "type": "uint256"
        }
      ],
      "name": "PRBMath_MulDiv_Overflow",
      "type": "error"
    },
    {
      "inputs": [
        {
          "internalType": "uint256",
          "name": "x",
          "type": "uint256"
        }
      ],
      "name": "PRBMath_UD60x18_Convert_Overflow",
      "type": "error"
    },
    {
      "inputs": [],
      "name": "SameBlockNumberViolation",
      "type": "error"
    },
    {
      "inputs": [
        {
          "internalType": "uint256",
          "name": "serviceId",
          "type": "uint256"
        }
      ],
      "name": "ServiceDoesNotExist",
      "type": "error"
    },
    {
      "inputs": [
        {
          "internalType": "uint256",
          "name": "serviceId",
          "type": "uint256"
        }
      ],
      "name": "ServiceNeverDeployed",
      "type": "error"
    },
    {
      "inputs": [
        {
          "internalType": "uint256",
          "name": "epochNumber",
          "type": "uint256"
        }
      ],
      "name": "TreasuryRebalanceFailed",
      "type": "error"
    },
    {
      "inputs": [
        {
          "internalType": "uint256",
          "name": "provided",
          "type": "uint256"
        },
        {
          "internalType": "uint256",
          "name": "expected",
          "type": "uint256"
        }
      ],
      "name": "WrongAmount",
      "type": "error"
    },
    {
      "inputs": [
        {
          "internalType": "uint256",
          "name": "numValues1",
          "type": "uint256"
        },
        {
          "internalType": "uint256",
          "name": "numValues2",
          "type": "uint256"
        }
      ],
      "name": "WrongArrayLength",
      "type": "error"
    },
    {
      "inputs": [
        {
          "internalType": "uint256",
          "name": "unitId",
          "type": "uint256"
        },
        {
          "internalType": "uint256",
          "name": "unitType",
          "type": "uint256"
        }
      ],
      "name": "WrongUnitId",
      "type": "error"
    },
    {
      "inputs": [],
      "name": "ZeroAddress",
      "type": "error"
    },
    {
      "inputs": [],
      "name": "ZeroValue",
      "type": "error"
    },
    {
      "anonymous": false,
      "inputs": [
        {
          "indexed": true,
          "internalType": "address",
          "name": "agentRegistry",
          "type": "address"
        }
      ],
      "name": "AgentRegistryUpdated",
      "type": "event"
    },
    {
      "anonymous": false,
      "inputs": [
        {
          "indexed": true,
          "internalType": "address",
          "name": "componentRegistry",
          "type": "address"
        }
      ],
      "name": "ComponentRegistryUpdated",
      "type": "event"
    },
    {
      "anonymous": false,
      "inputs": [
        {
          "indexed": true,
          "internalType": "address",
          "name": "depository",
          "type": "address"
        }
      ],
      "name": "DepositoryUpdated",
      "type": "event"
    },
    {
      "anonymous": false,
      "inputs": [
        {
          "indexed": true,
          "internalType": "address",
          "name": "dispenser",
          "type": "address"
        }
      ],
      "name": "DispenserUpdated",
      "type": "event"
    },
    {
      "anonymous": false,
      "inputs": [
        {
          "indexed": true,
          "internalType": "address",
          "name": "blacklist",
          "type": "address"
        }
      ],
      "name": "DonatorBlacklistUpdated",
      "type": "event"
    },
    {
      "anonymous": false,
      "inputs": [
        {
          "indexed": true,
          "internalType": "uint256",
          "name": "epochNumber",
          "type": "uint256"
        },
        {
          "indexed": false,
          "internalType": "uint256",
          "name": "effectiveBond",
          "type": "uint256"
        }
      ],
      "name": "EffectiveBondUpdated",
      "type": "event"
    },
    {
      "anonymous": false,
      "inputs": [
        {
          "indexed": false,
          "internalType": "uint256",
          "name": "epochLen",
          "type": "uint256"
        }
      ],
      "name": "EpochLengthUpdated",
      "type": "event"
    },
    {
      "anonymous": false,
      "inputs": [
        {
          "indexed": true,
          "internalType": "uint256",
          "name": "epochCounter",
          "type": "uint256"
        },
        {
          "indexed": false,
          "internalType": "uint256",
          "name": "treasuryRewards",
          "type": "uint256"
        },
        {
          "indexed": false,
          "internalType": "uint256",
          "name": "accountRewards",
          "type": "uint256"
        },
        {
          "indexed": false,
          "internalType": "uint256",
          "name": "accountTopUps",
          "type": "uint256"
        },
        {
          "indexed": false,
          "internalType": "uint256",
          "name": "effectiveBond",
          "type": "uint256"
        },
        {
          "indexed": false,
          "internalType": "uint256",
          "name": "returnedStakingIncentive",
          "type": "uint256"
        },
        {
          "indexed": false,
          "internalType": "uint256",
          "name": "totalStakingIncentive",
          "type": "uint256"
        }
      ],
      "name": "EpochSettled",
      "type": "event"
    },
    {
      "anonymous": false,
      "inputs": [
        {
          "indexed": false,
          "internalType": "uint256",
          "name": "idf",
          "type": "uint256"
        }
      ],
      "name": "IDFUpdated",
      "type": "event"
    },
    {
      "anonymous": false,
      "inputs": [
        {
          "indexed": true,
          "internalType": "uint256",
          "name": "epochNumber",
          "type": "uint256"
        },
        {
          "indexed": false,
          "internalType": "uint256",
          "name": "rewardComponentFraction",
          "type": "uint256"
        },
        {
          "indexed": false,
          "internalType": "uint256",
          "name": "rewardAgentFraction",
          "type": "uint256"
        },
        {
          "indexed": false,
          "internalType": "uint256",
          "name": "maxBondFraction",
          "type": "uint256"
        },
        {
          "indexed": false,
          "internalType": "uint256",
          "name": "topUpComponentFraction",
          "type": "uint256"
        },
        {
          "indexed": false,
          "internalType": "uint256",
          "name": "topUpAgentFraction",
          "type": "uint256"
        },
        {
          "indexed": false,
          "internalType": "uint256",
          "name": "stakingFraction",
          "type": "uint256"
        }
      ],
      "name": "IncentiveFractionsUpdateRequested",
      "type": "event"
    },
    {
      "anonymous": false,
      "inputs": [
        {
          "indexed": true,
          "internalType": "uint256",
          "name": "epochNumber",
          "type": "uint256"
        }
      ],
      "name": "IncentiveFractionsUpdated",
      "type": "event"
    },
    {
      "anonymous": false,
      "inputs": [
        {
          "indexed": false,
          "internalType": "uint256",
          "name": "inflationPerSecond",
          "type": "uint256"
        },
        {
          "indexed": false,
          "internalType": "uint256",
          "name": "effectiveBond",
          "type": "uint256"
        },
        {
          "indexed": false,
          "internalType": "uint256",
          "name": "returnedStakingIncentive",
          "type": "uint256"
        },
        {
          "indexed": false,
          "internalType": "uint256",
          "name": "maxBondFraction",
          "type": "uint256"
        },
        {
          "indexed": false,
          "internalType": "uint256",
          "name": "topUpComponentFraction",
          "type": "uint256"
        },
        {
          "indexed": false,
          "internalType": "uint256",
          "name": "topUpAgentFraction",
          "type": "uint256"
        },
        {
          "indexed": false,
          "internalType": "uint256",
          "name": "stakingFraction",
          "type": "uint256"
        }
      ],
      "name": "InflationPerSecondFractionsUpdated",
      "type": "event"
    },
    {
      "anonymous": false,
      "inputs": [
        {
          "indexed": true,
          "internalType": "address",
          "name": "owner",
          "type": "address"
        }
      ],
      "name": "OwnerUpdated",
      "type": "event"
    },
    {
      "anonymous": false,
      "inputs": [
        {
          "indexed": true,
          "internalType": "address",
          "name": "serviceRegistry",
          "type": "address"
        }
      ],
      "name": "ServiceRegistryUpdated",
      "type": "event"
    },
    {
      "anonymous": false,
      "inputs": [
        {
          "indexed": true,
          "internalType": "uint256",
          "name": "epochNumber",
          "type": "uint256"
        },
        {
          "indexed": false,
          "internalType": "uint256",
          "name": "maxStakingIncentive",
          "type": "uint256"
        },
        {
          "indexed": false,
          "internalType": "uint256",
          "name": "minStakingWeight",
          "type": "uint256"
        }
      ],
      "name": "StakingParamsUpdateRequested",
      "type": "event"
    },
    {
      "anonymous": false,
      "inputs": [
        {
          "indexed": true,
          "internalType": "uint256",
          "name": "epochNumber",
          "type": "uint256"
        }
      ],
      "name": "StakingParamsUpdated",
      "type": "event"
    },
    {
      "anonymous": false,
      "inputs": [
        {
          "indexed": true,
          "internalType": "uint256",
          "name": "epochNumber",
          "type": "uint256"
        },
        {
          "indexed": false,
          "internalType": "uint256",
          "name": "amount",
          "type": "uint256"
        }
      ],
      "name": "StakingRefunded",
      "type": "event"
    },
    {
      "anonymous": false,
      "inputs": [
        {
          "indexed": true,
          "internalType": "address",
          "name": "implementation",
          "type": "address"
        }
      ],
      "name": "TokenomicsImplementationUpdated",
      "type": "event"
    },
    {
      "anonymous": false,
      "inputs": [
        {
          "indexed": true,
          "internalType": "uint256",
          "name": "epochNumber",
          "type": "uint256"
        },
        {
          "indexed": false,
          "internalType": "uint256",
          "name": "devsPerCapital",
          "type": "uint256"
        },
        {
          "indexed": false,
          "internalType": "uint256",
          "name": "codePerDev",
          "type": "uint256"
        },
        {
          "indexed": false,
          "internalType": "uint256",
          "name": "epsilonRate",
          "type": "uint256"
        },
        {
          "indexed": false,
          "internalType": "uint256",
          "name": "epochLen",
          "type": "uint256"
        },
        {
          "indexed": false,
          "internalType": "uint256",
          "name": "veOLASThreshold",
          "type": "uint256"
        }
      ],
      "name": "TokenomicsParametersUpdateRequested",
      "type": "event"
    },
    {
      "anonymous": false,
      "inputs": [
        {
          "indexed": true,
          "internalType": "uint256",
          "name": "epochNumber",
          "type": "uint256"
        }
      ],
      "name": "TokenomicsParametersUpdated",
      "type": "event"
    },
    {
      "anonymous": false,
      "inputs": [
        {
          "indexed": true,
          "internalType": "address",
          "name": "treasury",
          "type": "address"
        }
      ],
      "name": "TreasuryUpdated",
      "type": "event"
    },
    {
      "inputs": [],
      "name": "MAX_EPOCH_LENGTH",
      "outputs": [
        {
          "internalType": "uint256",
          "name": "",
          "type": "uint256"
        }
      ],
      "stateMutability": "view",
      "type": "function"
    },
    {
      "inputs": [],
      "name": "MAX_MINT_CAP_FRACTION",
      "outputs": [
        {
          "internalType": "uint256",
          "name": "",
          "type": "uint256"
        }
      ],
      "stateMutability": "view",
      "type": "function"
    },
    {
      "inputs": [],
      "name": "MAX_STAKING_WEIGHT",
      "outputs": [
        {
          "internalType": "uint256",
          "name": "",
          "type": "uint256"
        }
      ],
      "stateMutability": "view",
      "type": "function"
    },
    {
      "inputs": [],
      "name": "MIN_EPOCH_LENGTH",
      "outputs": [
        {
          "internalType": "uint256",
          "name": "",
          "type": "uint256"
        }
      ],
      "stateMutability": "view",
      "type": "function"
    },
    {
      "inputs": [],
      "name": "MIN_PARAM_VALUE",
      "outputs": [
        {
          "internalType": "uint256",
          "name": "",
          "type": "uint256"
        }
      ],
      "stateMutability": "view",
      "type": "function"
    },
    {
      "inputs": [],
      "name": "ONE_YEAR",
      "outputs": [
        {
          "internalType": "uint256",
          "name": "",
          "type": "uint256"
        }
      ],
      "stateMutability": "view",
      "type": "function"
    },
    {
      "inputs": [],
      "name": "PROXY_TOKENOMICS",
      "outputs": [
        {
          "internalType": "bytes32",
          "name": "",
          "type": "bytes32"
        }
      ],
      "stateMutability": "view",
      "type": "function"
    },
    {
      "inputs": [],
      "name": "SUPPLY_CAP_YEAR10",
      "outputs": [
        {
          "internalType": "uint256",
          "name": "",
          "type": "uint256"
        }
      ],
      "stateMutability": "view",
      "type": "function"
    },
    {
      "inputs": [],
      "name": "VERSION",
      "outputs": [
        {
          "internalType": "string",
          "name": "",
          "type": "string"
        }
      ],
      "stateMutability": "view",
      "type": "function"
    },
    {
      "inputs": [
        {
          "internalType": "address",
          "name": "account",
          "type": "address"
        },
        {
          "internalType": "uint256[]",
          "name": "unitTypes",
          "type": "uint256[]"
        },
        {
          "internalType": "uint256[]",
          "name": "unitIds",
          "type": "uint256[]"
        }
      ],
      "name": "accountOwnerIncentives",
      "outputs": [
        {
          "internalType": "uint256",
          "name": "reward",
          "type": "uint256"
        },
        {
          "internalType": "uint256",
          "name": "topUp",
          "type": "uint256"
        }
      ],
      "stateMutability": "nonpayable",
      "type": "function"
    },
    {
      "inputs": [],
      "name": "agentRegistry",
      "outputs": [
        {
          "internalType": "address",
          "name": "",
          "type": "address"
        }
      ],
      "stateMutability": "view",
      "type": "function"
    },
    {
      "inputs": [
        {
          "internalType": "address",
          "name": "_donatorBlacklist",
          "type": "address"
        }
      ],
      "name": "changeDonatorBlacklist",
      "outputs": [],
      "stateMutability": "nonpayable",
      "type": "function"
    },
    {
      "inputs": [
        {
          "internalType": "uint256",
          "name": "_rewardComponentFraction",
          "type": "uint256"
        },
        {
          "internalType": "uint256",
          "name": "_rewardAgentFraction",
          "type": "uint256"
        },
        {
          "internalType": "uint256",
          "name": "_maxBondFraction",
          "type": "uint256"
        },
        {
          "internalType": "uint256",
          "name": "_topUpComponentFraction",
          "type": "uint256"
        },
        {
          "internalType": "uint256",
          "name": "_topUpAgentFraction",
          "type": "uint256"
        },
        {
          "internalType": "uint256",
          "name": "_stakingFraction",
          "type": "uint256"
        }
      ],
      "name": "changeIncentiveFractions",
      "outputs": [],
      "stateMutability": "nonpayable",
      "type": "function"
    },
    {
      "inputs": [
        {
          "internalType": "address",
          "name": "_treasury",
          "type": "address"
        },
        {
          "internalType": "address",
          "name": "_depository",
          "type": "address"
        },
        {
          "internalType": "address",
          "name": "_dispenser",
          "type": "address"
        }
      ],
      "name": "changeManagers",
      "outputs": [],
      "stateMutability": "nonpayable",
      "type": "function"
    },
    {
      "inputs": [
        {
          "internalType": "address",
          "name": "newOwner",
          "type": "address"
        }
      ],
      "name": "changeOwner",
      "outputs": [],
      "stateMutability": "nonpayable",
      "type": "function"
    },
    {
      "inputs": [
        {
          "internalType": "address",
          "name": "_componentRegistry",
          "type": "address"
        },
        {
          "internalType": "address",
          "name": "_agentRegistry",
          "type": "address"
        },
        {
          "internalType": "address",
          "name": "_serviceRegistry",
          "type": "address"
        }
      ],
      "name": "changeRegistries",
      "outputs": [],
      "stateMutability": "nonpayable",
      "type": "function"
    },
    {
      "inputs": [
        {
          "internalType": "uint256",
          "name": "_maxStakingIncentive",
          "type": "uint256"
        },
        {
          "internalType": "uint256",
          "name": "_minStakingWeight",
          "type": "uint256"
        }
      ],
      "name": "changeStakingParams",
      "outputs": [],
      "stateMutability": "nonpayable",
      "type": "function"
    },
    {
      "inputs": [
        {
          "internalType": "address",
          "name": "implementation",
          "type": "address"
        }
      ],
      "name": "changeTokenomicsImplementation",
      "outputs": [],
      "stateMutability": "nonpayable",
      "type": "function"
    },
    {
      "inputs": [
        {
          "internalType": "uint256",
          "name": "_devsPerCapital",
          "type": "uint256"
        },
        {
          "internalType": "uint256",
          "name": "_codePerDev",
          "type": "uint256"
        },
        {
          "internalType": "uint256",
          "name": "_epsilonRate",
          "type": "uint256"
        },
        {
          "internalType": "uint256",
          "name": "_epochLen",
          "type": "uint256"
        },
        {
          "internalType": "uint256",
          "name": "_veOLASThreshold",
          "type": "uint256"
        }
      ],
      "name": "changeTokenomicsParameters",
      "outputs": [],
      "stateMutability": "nonpayable",
      "type": "function"
    },
    {
      "inputs": [],
      "name": "checkpoint",
      "outputs": [
        {
          "internalType": "bool",
          "name": "",
          "type": "bool"
        }
      ],
      "stateMutability": "nonpayable",
      "type": "function"
    },
    {
      "inputs": [],
      "name": "codePerDev",
      "outputs": [
        {
          "internalType": "uint72",
          "name": "",
          "type": "uint72"
        }
      ],
      "stateMutability": "view",
      "type": "function"
    },
    {
      "inputs": [],
      "name": "componentRegistry",
      "outputs": [
        {
          "internalType": "address",
          "name": "",
          "type": "address"
        }
      ],
      "stateMutability": "view",
      "type": "function"
    },
    {
      "inputs": [],
      "name": "currentYear",
      "outputs": [
        {
          "internalType": "uint8",
          "name": "",
          "type": "uint8"
        }
      ],
      "stateMutability": "view",
      "type": "function"
    },
    {
      "inputs": [],
      "name": "depository",
      "outputs": [
        {
          "internalType": "address",
          "name": "",
          "type": "address"
        }
      ],
      "stateMutability": "view",
      "type": "function"
    },
    {
      "inputs": [],
      "name": "devsPerCapital",
      "outputs": [
        {
          "internalType": "uint72",
          "name": "",
          "type": "uint72"
        }
      ],
      "stateMutability": "view",
      "type": "function"
    },
    {
      "inputs": [],
      "name": "dispenser",
      "outputs": [
        {
          "internalType": "address",
          "name": "",
          "type": "address"
        }
      ],
      "stateMutability": "view",
      "type": "function"
    },
    {
      "inputs": [],
      "name": "donatorBlacklist",
      "outputs": [
        {
          "internalType": "address",
          "name": "",
          "type": "address"
        }
      ],
      "stateMutability": "view",
      "type": "function"
    },
    {
      "inputs": [],
      "name": "effectiveBond",
      "outputs": [
        {
          "internalType": "uint96",
          "name": "",
          "type": "uint96"
        }
      ],
      "stateMutability": "view",
      "type": "function"
    },
    {
      "inputs": [],
      "name": "epochCounter",
      "outputs": [
        {
          "internalType": "uint32",
          "name": "",
          "type": "uint32"
        }
      ],
      "stateMutability": "view",
      "type": "function"
    },
    {
      "inputs": [],
      "name": "epochLen",
      "outputs": [
        {
          "internalType": "uint32",
          "name": "",
          "type": "uint32"
        }
      ],
      "stateMutability": "view",
      "type": "function"
    },
    {
      "inputs": [],
      "name": "epsilonRate",
      "outputs": [
        {
          "internalType": "uint64",
          "name": "",
          "type": "uint64"
        }
      ],
      "stateMutability": "view",
      "type": "function"
    },
    {
      "inputs": [
        {
          "internalType": "uint256",
          "name": "numYears",
          "type": "uint256"
        }
      ],
      "name": "getActualInflationForYear",
      "outputs": [
        {
          "internalType": "uint256",
          "name": "inflationAmount",
          "type": "uint256"
        }
      ],
      "stateMutability": "pure",
      "type": "function"
    },
    {
      "inputs": [
        {
          "internalType": "uint256",
          "name": "numYears",
          "type": "uint256"
        }
      ],
      "name": "getActualSupplyCapForYear",
      "outputs": [
        {
          "internalType": "uint256",
          "name": "supplyCap",
          "type": "uint256"
        }
      ],
      "stateMutability": "pure",
      "type": "function"
    },
    {
      "inputs": [
        {
          "internalType": "uint256",
          "name": "epoch",
          "type": "uint256"
        }
      ],
      "name": "getEpochEndTime",
      "outputs": [
        {
          "internalType": "uint256",
          "name": "",
          "type": "uint256"
        }
      ],
      "stateMutability": "view",
      "type": "function"
    },
    {
      "inputs": [
        {
          "internalType": "uint256",
          "name": "numYears",
          "type": "uint256"
        }
      ],
      "name": "getInflationForYear",
      "outputs": [
        {
          "internalType": "uint256",
          "name": "inflationAmount",
          "type": "uint256"
        }
      ],
      "stateMutability": "pure",
      "type": "function"
    },
    {
      "inputs": [],
      "name": "getLastIDF",
      "outputs": [
        {
          "internalType": "uint256",
          "name": "",
          "type": "uint256"
        }
      ],
      "stateMutability": "view",
      "type": "function"
    },
    {
      "inputs": [
        {
          "internalType": "address",
          "name": "account",
          "type": "address"
        },
        {
          "internalType": "uint256[]",
          "name": "unitTypes",
          "type": "uint256[]"
        },
        {
          "internalType": "uint256[]",
          "name": "unitIds",
          "type": "uint256[]"
        }
      ],
      "name": "getOwnerIncentives",
      "outputs": [
        {
          "internalType": "uint256",
          "name": "reward",
          "type": "uint256"
        },
        {
          "internalType": "uint256",
          "name": "topUp",
          "type": "uint256"
        }
      ],
      "stateMutability": "view",
      "type": "function"
    },
    {
      "inputs": [
        {
          "internalType": "uint256",
          "name": "numYears",
          "type": "uint256"
        }
      ],
      "name": "getSupplyCapForYear",
      "outputs": [
        {
          "internalType": "uint256",
          "name": "supplyCap",
          "type": "uint256"
        }
      ],
      "stateMutability": "pure",
      "type": "function"
    },
    {
      "inputs": [
        {
          "internalType": "uint256",
          "name": "epoch",
          "type": "uint256"
        },
        {
          "internalType": "uint256",
          "name": "unitType",
          "type": "uint256"
        }
      ],
      "name": "getUnitPoint",
      "outputs": [
        {
          "components": [
            {
              "internalType": "uint96",
              "name": "sumUnitTopUpsOLAS",
              "type": "uint96"
            },
            {
              "internalType": "uint32",
              "name": "numNewUnits",
              "type": "uint32"
            },
            {
              "internalType": "uint8",
              "name": "rewardUnitFraction",
              "type": "uint8"
            },
            {
              "internalType": "uint8",
              "name": "topUpUnitFraction",
              "type": "uint8"
            }
          ],
          "internalType": "struct UnitPoint",
          "name": "",
          "type": "tuple"
        }
      ],
      "stateMutability": "view",
      "type": "function"
    },
    {
      "inputs": [],
      "name": "inflationPerSecond",
      "outputs": [
        {
          "internalType": "uint96",
          "name": "",
          "type": "uint96"
        }
      ],
      "stateMutability": "view",
      "type": "function"
    },
    {
      "inputs": [
        {
          "internalType": "address",
          "name": "_olas",
          "type": "address"
        },
        {
          "internalType": "address",
          "name": "_treasury",
          "type": "address"
        },
        {
          "internalType": "address",
          "name": "_depository",
          "type": "address"
        },
        {
          "internalType": "address",
          "name": "_dispenser",
          "type": "address"
        },
        {
          "internalType": "address",
          "name": "_ve",
          "type": "address"
        },
        {
          "internalType": "uint256",
          "name": "_epochLen",
          "type": "uint256"
        },
        {
          "internalType": "address",
          "name": "_componentRegistry",
          "type": "address"
        },
        {
          "internalType": "address",
          "name": "_agentRegistry",
          "type": "address"
        },
        {
          "internalType": "address",
          "name": "_serviceRegistry",
          "type": "address"
        },
        {
          "internalType": "address",
          "name": "_donatorBlacklist",
          "type": "address"
        }
      ],
      "name": "initializeTokenomics",
      "outputs": [],
      "stateMutability": "nonpayable",
      "type": "function"
    },
    {
      "inputs": [],
      "name": "lastDonationBlockNumber",
      "outputs": [
        {
          "internalType": "uint32",
          "name": "",
          "type": "uint32"
        }
      ],
      "stateMutability": "view",
      "type": "function"
    },
    {
      "inputs": [
        {
          "internalType": "uint256",
          "name": "",
          "type": "uint256"
        }
      ],
      "name": "mapEpochStakingPoints",
      "outputs": [
        {
          "internalType": "uint96",
          "name": "stakingIncentive",
          "type": "uint96"
        },
        {
          "internalType": "uint96",
          "name": "maxStakingIncentive",
          "type": "uint96"
        },
        {
          "internalType": "uint16",
          "name": "minStakingWeight",
          "type": "uint16"
        },
        {
          "internalType": "uint8",
          "name": "stakingFraction",
          "type": "uint8"
        }
      ],
      "stateMutability": "view",
      "type": "function"
    },
    {
      "inputs": [
        {
          "internalType": "uint256",
          "name": "",
          "type": "uint256"
        }
      ],
      "name": "mapEpochTokenomics",
      "outputs": [
        {
          "components": [
            {
              "internalType": "uint96",
              "name": "totalDonationsETH",
              "type": "uint96"
            },
            {
              "internalType": "uint96",
              "name": "totalTopUpsOLAS",
              "type": "uint96"
            },
            {
              "internalType": "uint64",
              "name": "idf",
              "type": "uint64"
            },
            {
              "internalType": "uint32",
              "name": "numNewOwners",
              "type": "uint32"
            },
            {
              "internalType": "uint32",
              "name": "endTime",
              "type": "uint32"
            },
            {
              "internalType": "uint8",
              "name": "rewardTreasuryFraction",
              "type": "uint8"
            },
            {
              "internalType": "uint8",
              "name": "maxBondFraction",
              "type": "uint8"
            }
          ],
          "internalType": "struct EpochPoint",
          "name": "epochPoint",
          "type": "tuple"
        }
      ],
      "stateMutability": "view",
      "type": "function"
    },
    {
      "inputs": [
        {
          "internalType": "address",
          "name": "",
          "type": "address"
        }
      ],
      "name": "mapNewOwners",
      "outputs": [
        {
          "internalType": "bool",
          "name": "",
          "type": "bool"
        }
      ],
      "stateMutability": "view",
      "type": "function"
    },
    {
      "inputs": [
        {
          "internalType": "uint256",
          "name": "",
          "type": "uint256"
        },
        {
          "internalType": "uint256",
          "name": "",
          "type": "uint256"
        }
      ],
      "name": "mapNewUnits",
      "outputs": [
        {
          "internalType": "bool",
          "name": "",
          "type": "bool"
        }
      ],
      "stateMutability": "view",
      "type": "function"
    },
    {
      "inputs": [
        {
          "internalType": "address",
          "name": "",
          "type": "address"
        }
      ],
      "name": "mapOwnerRewards",
      "outputs": [
        {
          "internalType": "uint256",
          "name": "",
          "type": "uint256"
        }
      ],
      "stateMutability": "view",
      "type": "function"
    },
    {
      "inputs": [
        {
          "internalType": "address",
          "name": "",
          "type": "address"
        }
      ],
      "name": "mapOwnerTopUps",
      "outputs": [
        {
          "internalType": "uint256",
          "name": "",
          "type": "uint256"
        }
      ],
      "stateMutability": "view",
      "type": "function"
    },
    {
      "inputs": [
        {
          "internalType": "uint256",
          "name": "",
          "type": "uint256"
        }
      ],
      "name": "mapServiceAmounts",
      "outputs": [
        {
          "internalType": "uint256",
          "name": "",
          "type": "uint256"
        }
      ],
      "stateMutability": "view",
      "type": "function"
    },
    {
      "inputs": [
        {
          "internalType": "uint256",
          "name": "",
          "type": "uint256"
        },
        {
          "internalType": "uint256",
          "name": "",
          "type": "uint256"
        }
      ],
      "name": "mapUnitIncentives",
      "outputs": [
        {
          "internalType": "uint96",
          "name": "reward",
          "type": "uint96"
        },
        {
          "internalType": "uint96",
          "name": "pendingRelativeReward",
          "type": "uint96"
        },
        {
          "internalType": "uint96",
          "name": "topUp",
          "type": "uint96"
        },
        {
          "internalType": "uint96",
          "name": "pendingRelativeTopUp",
          "type": "uint96"
        },
        {
          "internalType": "uint32",
          "name": "lastEpoch",
          "type": "uint32"
        }
      ],
      "stateMutability": "view",
      "type": "function"
    },
    {
      "inputs": [],
      "name": "maxBond",
      "outputs": [
        {
          "internalType": "uint96",
          "name": "",
          "type": "uint96"
        }
      ],
      "stateMutability": "view",
      "type": "function"
    },
    {
      "inputs": [],
      "name": "nextEpochLen",
      "outputs": [
        {
          "internalType": "uint32",
          "name": "",
          "type": "uint32"
        }
      ],
      "stateMutability": "view",
      "type": "function"
    },
    {
      "inputs": [],
      "name": "nextVeOLASThreshold",
      "outputs": [
        {
          "internalType": "uint96",
          "name": "",
          "type": "uint96"
        }
      ],
      "stateMutability": "view",
      "type": "function"
    },
    {
      "inputs": [],
      "name": "olas",
      "outputs": [
        {
          "internalType": "address",
          "name": "",
          "type": "address"
        }
      ],
      "stateMutability": "view",
      "type": "function"
    },
    {
      "inputs": [],
      "name": "owner",
      "outputs": [
        {
          "internalType": "address",
          "name": "",
          "type": "address"
        }
      ],
      "stateMutability": "view",
      "type": "function"
    },
    {
      "inputs": [
        {
          "internalType": "uint256",
          "name": "amount",
          "type": "uint256"
        }
      ],
      "name": "refundFromBondProgram",
      "outputs": [],
      "stateMutability": "nonpayable",
      "type": "function"
    },
    {
      "inputs": [
        {
          "internalType": "uint256",
          "name": "amount",
          "type": "uint256"
        }
      ],
      "name": "refundFromStaking",
      "outputs": [],
      "stateMutability": "nonpayable",
      "type": "function"
    },
    {
      "inputs": [
        {
          "internalType": "uint256",
          "name": "amount",
          "type": "uint256"
        }
      ],
      "name": "reserveAmountForBondProgram",
      "outputs": [
        {
          "internalType": "bool",
          "name": "success",
          "type": "bool"
        }
      ],
      "stateMutability": "nonpayable",
      "type": "function"
    },
    {
      "inputs": [],
      "name": "serviceRegistry",
      "outputs": [
        {
          "internalType": "address",
          "name": "",
          "type": "address"
        }
      ],
      "stateMutability": "view",
      "type": "function"
    },
    {
      "inputs": [],
      "name": "timeLaunch",
      "outputs": [
        {
          "internalType": "uint32",
          "name": "",
          "type": "uint32"
        }
      ],
      "stateMutability": "view",
      "type": "function"
    },
    {
      "inputs": [],
      "name": "tokenomicsImplementation",
      "outputs": [
        {
          "internalType": "address",
          "name": "implementation",
          "type": "address"
        }
      ],
      "stateMutability": "view",
      "type": "function"
    },
    {
      "inputs": [],
      "name": "tokenomicsParametersUpdated",
      "outputs": [
        {
          "internalType": "bytes1",
          "name": "",
          "type": "bytes1"
        }
      ],
      "stateMutability": "view",
      "type": "function"
    },
    {
      "inputs": [
        {
          "internalType": "address",
          "name": "donator",
          "type": "address"
        },
        {
          "internalType": "uint256[]",
          "name": "serviceIds",
          "type": "uint256[]"
        },
        {
          "internalType": "uint256[]",
          "name": "amounts",
          "type": "uint256[]"
        },
        {
          "internalType": "uint256",
          "name": "donationETH",
          "type": "uint256"
        }
      ],
      "name": "trackServiceDonations",
      "outputs": [],
      "stateMutability": "nonpayable",
      "type": "function"
    },
    {
      "inputs": [],
      "name": "treasury",
      "outputs": [
        {
          "internalType": "address",
          "name": "",
          "type": "address"
        }
      ],
      "stateMutability": "view",
      "type": "function"
    },
    {
      "inputs": [
        {
          "internalType": "uint256",
          "name": "maxBondFraction",
          "type": "uint256"
        },
        {
          "internalType": "uint256",
          "name": "topUpComponentFraction",
          "type": "uint256"
        },
        {
          "internalType": "uint256",
          "name": "topUpAgentFraction",
          "type": "uint256"
        },
        {
          "internalType": "uint256",
          "name": "stakingFraction",
          "type": "uint256"
        }
      ],
      "name": "updateInflationPerSecondAndFractions",
      "outputs": [],
      "stateMutability": "nonpayable",
      "type": "function"
    },
    {
      "inputs": [],
      "name": "ve",
      "outputs": [
        {
          "internalType": "address",
          "name": "",
          "type": "address"
        }
      ],
      "stateMutability": "view",
      "type": "function"
    },
    {
      "inputs": [],
      "name": "veOLASThreshold",
      "outputs": [
        {
          "internalType": "uint96",
          "name": "",
          "type": "uint96"
        }
      ],
      "stateMutability": "view",
      "type": "function"
    }
  ],
  "bytecode": "0x60808060405234601557614c92908161001a8239f35b5f80fdfe6080806040526004361015610012575f80fd5b5f3560e01c90816231d115146135f65750806295bb25146135d657806308a9376d146135b95780630b5a006b146135965780630d115aae146135625780630d1cfcae1461353a5780630e7c40331461341a57806314b19c5a146133f457806316d3bfbb146133d6578063190abc431461339e5780631ddf1335146133405780631f850716146133185780631fc696d3146132265780632e070f5414612e0257806335c08e0114612d905780633d1d195d14612d58578063426e77df14612cb25780634ce4a0ff1461295f5780634d02403c1461233d5780635072d33414612315578063538240f7146122f7578063590a92d0146122845780635bc022011461185c5780635cc8c0b01461181f57806361235f061461177557806361d027b31461174d578063626637ae146114fe5780636324b65e146114d75780636a71e476146114bb5780637048960c146113f457806373ca9317146113cb57806374cff66c14610e4a5780637d90107714610e2c5780637dd9dc5e14610e065780637fc72bbb14610b7a57806380b3f2e314610b5a578063890371b214610b3b5780638b268f9214610b1b5780638b5214fc14610af25780638cd813d114610ac85780638da5cb5b14610aa15780638e4a837914610a7b5780638fc2b24d14610a5b5780639da3f91314610a3d5780639e3d9f0714610a17578063a66c8db7146109f1578063a6f9dae11461096d578063ace2cd2a14610944578063ba32427c1461090c578063bb36e169146108ed578063bc291e1214610820578063bc7d5c5c146106d9578063bedd12a5146106b1578063c2c4c5c11461068d578063c4d76d3a14610615578063cbcf252a146105ed578063cdc7e0d7146105cd578063d2290502146105a7578063d2b3996f14610587578063d3567f3714610553578063d4ee9f8d1461051e578063d5297793146103e8578063e09d894d146103c0578063e0e1447e146103a0578063f6d3469f14610385578063ff0039cb1461035d5763ffa1ad74146102fb575f80fd5b34610359575f36600319011261035957604080519061031a8183613692565b600582526020820191640312e332e360dc1b83528151928391602083525180918160208501528484015e5f828201840152601f01601f19168101030190f35b5f80fd5b34610359575f366003190112610359576005546040516001600160a01b039091168152602090f35b34610359575f36600319011261035957602060405160028152f35b34610359575f36600319011261035957602060065460a01c604051908152f35b34610359575f366003190112610359576004546040516001600160a01b039091168152602090f35b3461035957606036600319011261035957610401613619565b61040961362f565b610411613645565b5f549092906001600160a01b03163381900361050857506001600160a01b0316806104cc575b506001600160a01b031680610490575b506001600160a01b03168061045857005b600480546001600160a01b031916821790557fe4915bbde794cce5e56670cce1c0048ef68276040acd048bdb7157ded9232b485f80a2005b600380546001600160a01b031916821790557fcd22b277e2781665af395ae4868b7fd80cf6d9e06a5a740a9c4746922a25a2235f80a281610447565b600280546001600160a01b031916821790557f7dae230f18360d76a040c81f050aa14eb9d6dc7901b20fc5d855e2a20fe814d15f80a282610437565b63521eb56d60e11b5f523360045260245260445ffd5b34610359576020366003190112610359576004355f52600d602052602063ffffffff600260405f200154821c16604051908152f35b346103595761056136613787565b905f52600e60205260405f20905f52602052602060ff60405f2054166040519015158152f35b34610359575f36600319011261035957602060055460e01c604051908152f35b34610359575f3660031901126103595760206040516b027615e1593933afb16400008152f35b34610359575f36600319011261035957602060025460a01c604051908152f35b34610359575f366003190112610359576007546040516001600160a01b039091168152602090f35b346103595761062336613787565b905f52601060205260405f20905f5260205260a060405f2063ffffffff600182549201546001600160601b0360405193818116855260601c1660208401526001600160601b03811660408401526001600160601b038160601c16606084015260c01c166080820152f35b34610359575f3660031901126103595760206106a7613c94565b6040519015158152f35b34610359575f366003190112610359576003546040516001600160a01b039091168152602090f35b34610359576106e736613787565b5f549091906001600160a01b031633819003610508575080158015610818575b610809576001600160601b0381116107ec5761271082116107d35760407f7bc66e3088d67d475c72ea886907f634fc259ddde8b8c4df7a2eef658e97dbcd9163ffffffff61075b8160075460a01c166139ba565b1693845f526011602052610799835f2061077e6001600160601b03851682613c61565b805461ffff60c01b191660c084901b61ffff60c01b16179055565b6004805460ff60f01b198116600891821b6001600160f81b031916600160fb1b1790911c60ff60f01b1617905582519182526020820152a2005b50637ae5968560e01b5f5260045261271060245260445ffd5b637ae5968560e01b5f526004526001600160601b0360245260445ffd5b637c946ed760e01b5f5260045ffd5b508115610707565b3461035957602036600319011261035957600480549035906001600160a01b03163381036108d7575063ffffffff60075460a01c1690815f526011602052610875816001600160601b0360405f20541661386c565b6001600160601b0381116107ec577f524056f3dce895b1e37e438cd18ed11cfaf7524d08872eae96e4b98cecb2038891602091845f52601183526001600160601b038060405f209216166001600160601b0319825416179055604051908152a2005b63312d21ff60e11b5f523360045260245260445ffd5b34610359575f3660031901126103595760206301dfe200604051908152f35b34610359576020366003190112610359576001600160a01b0361092d613619565b165f52600b602052602060405f2054604051908152f35b34610359575f3660031901126103595760206001600160401b0360055460a01c16604051908152f35b3461035957602036600319011261035957610986613619565b5f54906001600160a01b0382163381900361050857506001600160a01b03169081156109e2576001600160a01b03191681175f9081557f4ffd725fc4a22075e9ec71c59edf9c38cdeb588a91b24fc5b61388c5be41282b9080a2005b63d92e233d60e01b5f5260045ffd5b34610359576020366003190112610359576020610a0f600435613b92565b604051908152f35b34610359575f36600319011261035957602063ffffffff60095460a01c16604051908152f35b34610359576020366003190112610359576020610a0f600435613ab9565b34610359575f36600319011261035957602060035460a01c604051908152f35b34610359575f36600319011261035957602063ffffffff60075460c01c16604051908152f35b34610359575f366003190112610359575f546040516001600160a01b039091168152602090f35b34610359576020366003190112610359576004355f52600a602052602060405f2054604051908152f35b34610359575f3660031901126103595760206001600160481b0360085460a01c16604051908152f35b34610359575f36600319011261035957602060015460a01c604051908152f35b34610359575f3660031901126103595760205f5460a01c604051908152f35b34610359575f36600319011261035957602060075460e01c604051908152f35b346103595760a03660031901126103595760043560243590604435606435608435918181868660018060a01b035f541680330361050857506001600160481b03655af3107a40009116115f14610de7576008805468ffffffffffffffffff60a01b191660a089901b68ffffffffffffffffff60a01b16179055655af3107a4000906001600160481b03905b161115610da957917ffa70700738796f35131cdaba4cd58eeaadbd8d195956e3edc4548b2618ce422095939160a095936004546001600160481b03881b8a891b16906001600160481b03891b1916176004555b8015159081610d96575b5015610d7b5763ffffffff906005546001600160401b03881b84891b16906001600160401b03891b1916176005555b16620d2f008110159081610d6c575b5015610d5f57600780546001600160e01b031660e084901b6001600160e01b0319161790555b6001600160601b03831615610d5357600680545f196001881b01166001600160601b038516871b1790555b6004805460ff60f01b198116600891821b6001600160f81b031916600160f81b1790911c60ff60f01b1617905560075463ffffffff90610d3490871c82166139ba565b16966040519485526020850152604084015260608301526080820152a2005b600254851c9250610cf1565b60055460e01c9150610cc6565b90506301dfe200101588610ca0565b905063ffffffff6001600160401b03600554871c1691610c91565b67ebec21ee1da400009150111589610c62565b95509160a093917ffa70700738796f35131cdaba4cd58eeaadbd8d195956e3edc4548b2618ce422095936001600160481b03600454871c1697610c58565b9550655af3107a40006001600160481b038060085460a01c1697610c05565b34610359575f36600319011261035957602060ff60f81b60045460081b16604051908152f35b34610359576020366003190112610359576020610a0f6004356139d2565b3461035957610e5836613727565b815181515f9493918591908181036113b6575050604051939493906060610e7f8184613692565b60028352601f19810191823660208601376005546006546001600160a01b039182169116610eac866137aa565b52610eb6856137ba565b5260405191610ec58184613692565b60028352833660208501375f5b60028110611330575060405193610ee98286613692565b600285523660208601376001600160a01b03909816975f5b8751811015611094576001610f168289613839565b511161107257610f268189613839565b51610f3b610f34838a613839565b5187613839565b511080159061104b575b61101f57610f538189613839565b51610f61610f34838a613839565b526001600160a01b03610f7e610f77838a613839565b5188613839565b51166020610f8c838b613839565b516024604051809481936331a9108f60e11b835260048301525afa908115611014575f91610fe6575b506001600160a01b03168a8103610fcf5750600101610f01565b8a9063521eb56d60e11b5f5260045260245260445ffd5b611007915060203d811161100d575b610fff8183613692565b81019061384d565b8b610fb5565b503d610ff5565b6040513d5f823e3d90fd5b6110358161102e89938b613839565b5192613839565b519062e274b160e41b5f5260045260245260445ffd5b506110568189613839565b5161106b611064838a613839565b5186613839565b5110610f45565b61107c9087613839565b51637ae5968560e01b5f52600452600160245260445ffd5b508686899363ffffffff60075460a01c165f955b8451871015611320576110bb8785613839565b515f52601060205260405f206110d18887613839565b515f5260205263ffffffff600160405f20015460c01c1680151580611317575b611180575b5061117761113a60019261110a8a88613839565b515f52601060205260405f206111208b8a613839565b515f526020526001600160601b0360405f2054169061386c565b936111458987613839565b515f52601060205260405f2061115b8a89613839565b515f526020526001600160601b038360405f200154169061386c565b960195916110a8565b61118a8886613839565b515f52601060205260405f206111a08988613839565b515f526020526001600160601b0360405f2054881c16806112d1575b506111c78886613839565b515f52601060205260405f206111dd8988613839565b515f526020526001600160601b03600160405f200154881c1680611202575b506110f6565b61122e61125b91835f9794959752600d6020526001600160601b03600160405f2001548b1c1690613897565b835f52600d60205260405f206112448b89613839565b515f5260205260ff60405f205460881c1690613897565b915f52600d60205260405f206112718987613839565b515f526020526001600160601b0360405f205416916064830292808404606414901517156112bd576112b5611177926112af60019561113a94613879565b9061386c565b9492506111fc565b634e487b7160e01b5f52601160045260245ffd5b9160646113098394611310945f52600d60205260405f206112f28d8b613839565b515f5260205260ff60405f205460801c1690613897565b049061386c565b90886111bc565b508281106110f1565b6040908382519182526020820152f35b97989760049060206001600160a01b0361134a838a613839565b5116604051938480926318160ddd60e01b82525afa8015611014575f90611384575b6001925061137a8287613839565b5201989798610ed2565b506020823d82116113ae575b8161139d60209383613692565b81010312610359576001915161136c565b3d9150611390565b6308151c1160e41b5f5260045260245260445ffd5b34610359575f3660031901126103595760206001600160481b0360045460a01c16604051908152f35b34610359576020366003190112610359576003546001600160a01b038116903382036114a45761142a906004359060a01c61386c565b906001600160601b038211611486576001600160601b0360a01b8260a01b16176003557fc03457224acaf4a4ab91b57c66dc4b028c40a319f19841115cd7225dfc48ff39602063ffffffff60075460a01c1692604051908152a2005b50637ae5968560e01b5f526004526001600160601b0360245260445ffd5b5063312d21ff60e11b5f523360045260245260445ffd5b34610359575f3660031901126103595760206040516127108152f35b34610359575f3660031901126103595760206040515f516020614c3d5f395f51905f528152f35b346103595760c0366003190112610359575f54608435906064359060243590600435906044359060a435906001600160a01b03163381900361050857506064611547858561386c565b11611743576115638161155e8861155e898761386c565b61386c565b6064811161172c575063ffffffff6115818160075460a01c166139ba565b165f818152600d6020908152604080832083805291829052909120805460ff60801b1916608087901b60ff60801b161790559096909560015f908152602088905260409020805460ff60801b1916608088901b60ff60801b161790558460640393606485116112bd577f51ee429b276124b347c9bff8d3da93b096586a671b26cf6ba1a7970e00d504159761165b60ff61161e8a6117279961379d565b166116426002840191829060ff60401b82549160401b169060ff60401b1916179055565b805460ff60481b1916604885901b60ff60481b16179055565b5f808052602082905260409020805460ff60881b1916608885901b60ff60881b1617905560015f90815260209190915260409020805460ff60881b1916608885901b60ff60881b161790555f898152601160205260409020805460ff60d01b191660d086901b60ff60d01b1617905560045460ff60f01b60ff60f01b600160f91b60ff60f81b8460081b161760081c16169060ff60f01b191617600455604051968796879260a094919796959260c0850198855260208501526040840152606083015260808201520152565b0390a2005b63312b003360e01b5f52600452606460245260445ffd5b61172c848461386c565b34610359575f366003190112610359576002546040516001600160a01b039091168152602090f35b346103595761178336613787565b905f60606040516117938161365b565b82815282602082015282604082015201525f52600d60205260405f20905f52602052608060405f2060ff604051916117ca8361365b565b54816001600160601b0382169384815263ffffffff60208201818560601c168152836060604085019482888c1c168652019560881c168552604051968752511660208601525116604084015251166060820152f35b34610359576020366003190112610359576001600160a01b03611840613619565b165f52600f602052602060ff60405f2054166040519015158152f35b3461035957608036600319011261035957611875613619565b6024356001600160401b038111610359576118949036906004016136ca565b906044356001600160401b038111610359576118b49036906004016136ca565b6002549091906001600160a01b03163381036108d757506009546001600160a01b03168015159081612226575b50612206578251600754906001600160a01b0382165f5b8281106121785750505063ffffffff9060a01c16805f52600d6020526001600160601b0361193181600160405f2001541660643561386c565b16815f52600d6020526001600160601b03600160405f200191166001600160601b031982541617905560606040519061196a8183613692565b60028252601f1981013660208401376005546006546001600160a01b039182169116611995846137aa565b5261199f836137ba565b5260405160a06119af8183613692565b600482526080366020840137845f52600d60205260405f205f805260205260ff60405f205460801c1615156119e3836137ba565b52845f52600d60205260405f2060015f5260205260ff60405f205460801c161515611a0d836137aa565b52845f52600d60205260405f205f805260205260ff60405f205460881c161515611a36836137c7565b52845f52600d60205260405f2060015f5260205260ff60405f205460881c161515611a60836137d7565b528751955f965b808810611a8e576009805463ffffffff60a01b19164360a01b63ffffffff60a01b16179055005b5f92611a99856137c7565b5115801590612166575b611ffc575b5f5b6002811015611fef576007546001600160a01b03165f611aca8c8f613839565b516044604051809481936392080b2360e01b835287600484015260248301525afa908115611014575f905f92611f4a575b508015611f2d578c8c82611b0f868c613839565b5115801590611f08575b611cbd575b5050505f5b818110611b3557505050600101611aaa565b835f52600e60205260405f2063ffffffff611b508386613839565b51165f5260205260ff60405f20541615611b6d575b600101611b23565b835f52600e60205260405f2063ffffffff611b888386613839565b51165f5260205260405f20600160ff198254161790558b5f52600d60205260405f20845f5260205260405f2080548b611bcc63ffffffff838160601b931c16614aca565b63ffffffff60601b19909216918d1b161790556001600160a01b03611bf1858d613839565b511690602063ffffffff611c058387613839565b51166024604051809581936331a9108f60e11b835260048301525afa8015611014576001925f91611c9f575b50828060a01b0316805f52600f60205260ff60405f20541615611c57575b509050611b65565b5f52600f60205260405f208260ff198254161790558c5f52600d602052600260405f2001805463ffffffff611c8d818316614aca565b169063ffffffff19161790555f611c4f565b611cb7915060203d811161100d57610fff8183613692565b5f611c31565b611cd2611cd8926001600160601b0394613839565b51613879565b165f5b828110611cec5750508c8c82611b1e565b845f52601060205260405f2063ffffffff611d078387613839565b51165f5260205263ffffffff600160405f20015460c01c1680155f14611e8d5750845f52601060205260405f2063ffffffff611d438387613839565b51165f90815260209190915260409020600101805463ffffffff60c01b191660c08f901b63ffffffff60c01b161790555b611d7e858b613839565b51611e47575b8880611e23575b90600191611d9a575b01611cdb565b855f52601060205260405f2063ffffffff611db58388613839565b51165f52602052611de38c611ddd856001600160601b038660405f2001938454901c16614aaa565b90613c61565b8d5f52600d60205260405f20865f5260205260405f206001600160601b03611e0e8582845416614aaa565b166001600160601b0319825416179055611d94565b5060028501908186116112bd57611e3c6001928c613839565b511515909150611d8b565b845f52601060205260405f2063ffffffff611e628387613839565b51165f52602052611e888b611ddd846001600160601b0360405f20938454901c16614aaa565b611d84565b8d8110611e9b575b50611d74565b611eb7908663ffffffff611eaf8589613839565b511691614818565b845f52601060205260405f2063ffffffff611ed28387613839565b51165f90815260209190915260409020600101805463ffffffff60c01b191660c08f901b63ffffffff60c01b161790555f611e95565b50505050600283018084116112bd578c828f92611f25908c613839565b511515611b19565b611f378c8f613839565b51633e6ffea760e11b5f5260045260245ffd5b9150503d805f833e611f5c8183613692565b810190604081830312610359578051906020810151906001600160401b03821161035957019180601f8401121561035957825190611f99826136b3565b93611fa76040519586613692565b82855260208086019360051b82010191821161035957602001915b818310611fd2575050508e611afb565b825163ffffffff8116810361035957815260209283019201611fc2565b5092509660010196611a67565b6007549093506001600160a01b031660206120178a8d613839565b516024604051809481936331a9108f60e11b835260048301525afa908115611014575f91612148575b506008546040516309ab24eb60e41b81526001600160a01b039283166004820152911690602081602481855afa908115611014575f91612117575b50600254851c809110918215926120a3575b50501561209d5760015b92611aa8565b5f612097565b6040516309ab24eb60e41b81526001600160a01b0386166004820152919250602090829060249082905afa908115611014575f916120e6575b5010158b8061208d565b90506020813d821161210f575b8161210060209383613692565b8101031261035957518c6120dc565b3d91506120f3565b90506020813d8211612140575b8161213160209383613692565b8101031261035957518c61207b565b3d9150612124565b612160915060203d811161100d57610fff8183613692565b8b612040565b50612170856137d7565b511515611aa3565b6121828188613839565b5160405190634f558e7960e01b82526004820152602081602481865afa908115611014575f916121d8575b50156121bb576001016118f8565b6121c59087613839565b5163f036789160e01b5f5260045260245ffd5b6121f9915060203d81116121ff575b6121f18183613692565b8101906139a2565b886121ad565b503d6121e7565b632e6b900760e01b5f9081526001600160a01b0391909116600452602490fd5b604051636c3a188760e11b81526001600160a01b03841660048201529150602090829060249082905afa908115611014575f91612265575b50846118e1565b61227e915060203d6020116121ff576121f18183613692565b8461225e565b346103595760203660031901126103595761229d613619565b5f546001600160a01b03163381900361050857506001600160a01b0381169081156109e2575f516020614c3d5f395f51905f52557f3169d1c75b3f98b6d9ddee369523559b661e660be48ef77f1d4a6fe295144c015f80a2005b34610359576020366003190112610359576020610a0f6004356138bb565b34610359575f366003190112610359576009546040516001600160a01b039091168152602090f35b346103595761014036600319011261035957612357613619565b61235f61362f565b612367613645565b6064356001600160a01b038116939190849003610359576084356001600160a01b03811693908490036103595760a4359360c4356001600160a01b03811691908290036103595760e4356001600160a01b038116939084900361035957610104356001600160a01b038116989089900361035957610124356001600160a01b0381169690879003610359575f54976001600160a01b038916612951576001600160a01b03169788158015612940575b801561292f575b8015612927575b801561291f575b8015612917575b801561290f575b8015612907575b6109e2576001600160a01b03191633175f556004549263ffffffff8a16620d2f0081106128ed576301dfe2008091116128d75750886001600160601b0360a01b600154161760015560018060a01b0316660878678326eac960b61b1760025560018060a01b03166001600160601b0360a01b6003541617600355600160f81b916001600160581b0360a01b1617176004556001600160601b0360a01b600854161760085564b1a2bc2ec560b11b9063ffffffff60e01b8660e01b1617176005556001600160601b0360a01b600654161760065560075490846001600160601b0360a01b8316176007556001600160601b0360a01b600954161760095560405193638e4a837960e01b8552602085600481865afa948515611014575f956128a3575b506301e133808501808611806112bd578142101561288c576112bd5761258d63ffffffff91429061379d565b169460405161259b81613676565b6a029cf1bbaf54ae2860000081526a214c2244266266f790000060208201526a216b08636f8a4d0200000060408201526a14e5049736ea4edd7c000060608201526a15857d02d0b5d5451c000060808201526a162ac5e5ebfe2a6698000060a08201526a16d5042b4ec7368af4000060c08201526a17845de12e119eb668000060e08201526a1838fa470e91784fc400006101008201526a18f301cdc4ae4920700000610120820152516128319661265b916001600160581b0316613879565b60a081901b6001600160a01b031916909417600155600167ffffffff0000000160a01b03199092161760c09190911b63ffffffff60c01b16176007555f8052600d60209081527f81955a0a11e65eac625c29e8882660bae4e165a75d72780094acae8ece9a29f0805467ffffffff0000000019164290921b67ffffffff00000000169190911790556007805463ffffffff60a01b1916600160a01b1790556008805468ffffffffffffffffff60a01b199081166503782dace9d960b21b9081179092557ffd54ff1ed53f34a900b24c5ba64f85761163b5d82d98a47b9bd80e45466993c680546001600160c01b03166503782dace9d960d21b1790557ffd54ff1ed53f34a900b24c5ba64f85761163b5d82d98a47b9bd80e45466993c56020527fb160a7406e28258be08ad805a9afb846e1966a5cc82707dbcb44ed395fc389ee80547f9786f677b3dff6c36ad0d47ef13860fd51b928c112d9702e0dea2fe690bf6ec18054600480549095169095179093557ffd54ff1ed53f34a900b24c5ba64f85761163b5d82d98a47b9bd80e45466993c7805460ff60481b1916693200000000000000000017905561295360801b61ffff60801b199182161790915560015f5261091160801b9216919091179055613897565b6032810290808204603214901517156112bd575f80546001600160a01b03908116606490930460a01b6001600160a01b031916928317909155600380549091169091179055005b634e487b7160e01b5f52603260045260245ffd5b50637ae5968560e01b5f526004524260245260445ffd5b9094506020813d6020116128cf575b816128bf60209383613692565b8101031261035957519385612561565b3d91506128b2565b8a637ae5968560e01b5f5260045260245260445ffd5b8a63491a2bb160e01b5f52600452620d2f0060245260445ffd5b508a15612440565b508615612439565b508515612432565b50841561242b565b508215612424565b506001600160a01b0382161561241d565b506001600160a01b03841615612416565b62dc149f60e41b5f5260045ffd5b34610359576080366003190112610359575f54606435906004359060443590602435906001600160a01b031633819003610508575060055460e01c926129a5844261386c565b946007546301e133806129c263ffffffff8360c01c16809961379d565b049060ff60045460e81c16808311612c9c575060a01c63ffffffff16965f1988018881116112bd575f52600d60205263ffffffff600260405f20015460201c160363ffffffff81116112bd5763ffffffff6301e1338091160490818111612c875750505f5b60648110612bed575b50612a438161155e8661155e878761386c565b6064811161172c57507f6d92f2ff28c5f9b136e55f667834ffea0e51ff8c4bdb937d6bd9422a134cd8389160e091875f52600d6020526064612b4660405f206002810190612aa960ff8716839060ff60481b82549160481b169060ff60481b1916179055565b5f808052602082905260409020805460ff60881b191660888b901b60ff60881b1617905560015f90815260209190915260409020805460ff60881b191660888b901b60ff60881b161790555f8b8152601160205260409020805460ff60d01b191660d086901b60ff60d01b1617905560ff612b3a6301e13380612b328360045460e81c166139d2565b04809c613897565b915460481c1690613897565b049560035495895f5260116020526001600160601b0360405f20541693604051948a86528860a01c602087015260408601526060850152608084015260a083015260c0820152a15f80546001600160a01b0390811660a094851b6001600160a01b0319908116918217845593821617600355600180549091169490931b90911692909217905590815260116020526040902080546bffffffffffffffffffffffff19169055005b6004805460405163259268d760e21b602082019081529281525f9283926001600160a01b0316918390612c21602482613692565b51925af13d15612c82573d6001600160401b038111612c6e5760405190612c52601f8201601f191660200183613692565b81525f60203d92013e5b15612c6957600101612a27565b612a30565b634e487b7160e01b5f52604160045260245ffd5b612c5c565b637ae5968560e01b5f5260045260245260445ffd5b82637ae5968560e01b5f5260045260245260445ffd5b34610359576020366003190112610359576003545f6001600160a01b0382166004353382036114a45760209360a01c81811015612cf7575b5050506040519015158152f35b612d0292935061379d565b906001600160601b0360a01b8260a01b16176003556001907fc03457224acaf4a4ab91b57c66dc4b028c40a319f19841115cd7225dfc48ff398363ffffffff60075460a01c1692604051908152a2828080612cea565b34610359575f3660031901126103595763ffffffff60075460a01c165f52600d6020526020600160405f20015460c01c604051908152f35b3461035957602036600319011261035957612da9613619565b5f546001600160a01b0316338190036105085750600980546001600160a01b0319166001600160a01b039290921691821790557f9e1c3be42809406e3dbfb210a8ea4d0a9729831f38977e280dd86623df49a0c75f80a2005b3461035957612e1036613727565b6004545f93929084906001600160a01b03163381036108d7575081518351908181036113b657505060405193949390612e4a606083613692565b60028252604090813660208501376005546006546001600160a01b039182169116612e74856137aa565b52612e7e846137ba565b5260405190612e8e606083613692565b60028252823660208401375f5b600281106131a0575060405192612eb3606085613692565b600284523660208501376001600160a01b03909716965f5b8651811015613000576001612ee08288613839565b5111612ff657612ef08188613839565b51612efe6110648389613839565b5110801590612fcf575b612fc057612f168188613839565b51612f246110648389613839565b526001600160a01b03612f3a610f348389613839565b51166020612f48838a613839565b516024604051809481936331a9108f60e11b835260048301525afa908115611014575f91612fa2575b506001600160a01b0316898103612f8b5750600101612ecb565b899063521eb56d60e11b5f5260045260245260445ffd5b612fba915060203d811161100d57610fff8183613692565b8a612f71565b6110358161102e88938a613839565b50612fda8188613839565b51612fef612fe88389613839565b5185613839565b5110612f08565b61107c9086613839565b508690868663ffffffff60075460a01c16925f945b8351861015613191576130e561308c6001926130318987613839565b515f52601060205260405f206130478a89613839565b515f5260205263ffffffff8460405f20015460c01c1680151580613188575b613128575b506130768987613839565b515f52601060205260405f206111208a89613839565b926130978886613839565b515f52601060205260405f206130ad8988613839565b515f5260205260405f206001600160601b031981541690556130cf8886613839565b515f52601060205260405f2061115b8988613839565b956130f08185613839565b515f52601060205260405f206131068287613839565b515f526020528160405f20016001600160601b03198154169055019490613015565b613148906131368b89613839565b516131418c8b613839565b5191614818565b6131528987613839565b515f52601060205260405f206131688a89613839565b515f526020528360405f200163ffffffff60c01b1981541690558961306b565b50888110613066565b60409182519182526020820152f35b96979660049060206001600160a01b036131ba8389613839565b5116604051938480926318160ddd60e01b82525afa8015611014575f906131f4575b600192506131ea8286613839565b5201979697612e9b565b506020823d821161321e575b8161320d60209383613692565b8101031261035957600191516131dc565b3d9150613200565b34610359576020366003190112610359576004355f52600d60205260405f206040519060e082018281106001600160401b03821117612c6e576001600160401b0360ff60e094819360405263ffffffff600186015491816001600160601b03841697888352600260208401916001600160601b038760601c168352604085019660c01c875201549687956001600160601b03606086019385891685528960c06080890198888c60201c168a528260a082019c60401c168c52019b60481c168b526040519c8d52511660208c0152511660408a01525116606088015251166080860152511660a0840152511660c0820152f35b34610359575f366003190112610359576008546040516001600160a01b039091168152602090f35b34610359576020366003190112610359576004355f526011602052608060405f205460ff604051916001600160601b03811683526001600160601b038160601c16602084015261ffff8160c01c16604084015260d01c166060820152f35b34610359576020366003190112610359576001600160a01b036133bf613619565b165f52600c602052602060405f2054604051908152f35b34610359575f3660031901126103595760206040516301e133808152f35b34610359575f36600319011261035957602063ffffffff60075460a01c16604051908152f35b3461035957606036600319011261035957613433613619565b61343b61362f565b613443613645565b5f549092906001600160a01b03163381900361050857506001600160a01b0316806134fe575b506001600160a01b0316806134c2575b506001600160a01b03168061348a57005b600780546001600160a01b031916821790557fe9c9e3dbb8b376a9927bb5ed9f7ec4660c962d4d4b6c9e5b2e582e4a7c3495055f80a2005b600680546001600160a01b031916821790557f9439fd4044a7a9da5dc12ba69cff9b7e91dcbc73cd8f170d7cecb1339d59c5525f80a281613479565b600580546001600160a01b031916821790557f0ebf3ee50ad142f2e738b0ec66ceee78c567bd9f6e7bb155e408f3a9068a08625f80a282613469565b34610359575f366003190112610359576006546040516001600160a01b039091168152602090f35b34610359575f366003190112610359575f516020614c3d5f395f51905f52546040516001600160a01b039091168152602090f35b34610359575f36600319011261035957602060ff60045460e81c16604051908152f35b34610359575f366003190112610359576020604051620d2f008152f35b34610359575f366003190112610359576020604051655af3107a40008152f35b34610359575f366003190112610359576001546001600160a01b03168152602090f35b600435906001600160a01b038216820361035957565b602435906001600160a01b038216820361035957565b604435906001600160a01b038216820361035957565b608081019081106001600160401b03821117612c6e57604052565b61014081019081106001600160401b03821117612c6e57604052565b90601f801991011681019081106001600160401b03821117612c6e57604052565b6001600160401b038111612c6e5760051b60200190565b9080601f830112156103595781356136e1816136b3565b926136ef6040519485613692565b81845260208085019260051b82010192831161035957602001905b8282106137175750505090565b813581526020918201910161370a565b6060600319820112610359576004356001600160a01b038116810361035957916024356001600160401b0381116103595782613765916004016136ca565b91604435906001600160401b03821161035957613784916004016136ca565b90565b6040906003190112610359576004359060243590565b919082039182116112bd57565b8051600110156128785760400190565b8051156128785760200190565b8051600210156128785760600190565b8051600310156128785760800190565b8051600410156128785760a00190565b8051600510156128785760c00190565b8051600610156128785760e00190565b805160071015612878576101000190565b805160081015612878576101200190565b80518210156128785760209160051b010190565b9081602091031261035957516001600160a01b03811681036103595790565b919082018092116112bd57565b8115613883570490565b634e487b7160e01b5f52601260045260245ffd5b818102929181159184041417156112bd57565b90600a8110156128785760051b0190565b600a811015613999576139946001600160601b03916040516138dc81613676565b6b01b382b630d076b79e80000081526b01c1b20313b0c32d724c000060208201526b01d5fb3bb7f57cca76a4000060408201526b01eae0404f2c67195420000060608201526b020065bd51fd1cee993c000060808201526b0216908337e91b18ffd4000060a08201526b022d65876337e24f8ac8000060c08201526b0244e9e54465f3ee4130000060e08201526b025d22df8b74856690f400006101008201526b027615e1593933afb16400006101208201526138aa565b511690565b613784906149ff565b90816020910312610359575180151581036103595790565b63ffffffff60019116019063ffffffff82116112bd57565b600a811015613a96576139946001600160581b03916040516139f381613676565b5f81526a0e2f4ce2e04c75d3cc000060208201526a144938a444b99d0458000060408201526a14e5049736ea4edd7c000060608201526a15857d02d0b5d5451c000060808201526a162ac5e5ebfe2a6698000060a08201526a16d5042b4ec7368af4000060c08201526a17845de12e119eb668000060e08201526a1838fa470e91784fc400006101008201526a18f301cdc4ae49207000006101208201526138aa565b613a9f90614a54565b8060011b90808204600214901517156112bd576064900490565b600a811015613999576139946001600160601b0391604051613ada81613676565b6b01b61fa7ec7fcb65c6e0000081526b01d76bca30a62dccbe70000060208201526b01f8d6d29415b819c070000060408201526b020dbbd72b4ca2689dec000060608201526b022341542e1d583de308000060808201526b02396c1a1409566849a0000060a08201526b0250411e3f581d9ed494000060c08201526b0267c57c20862f3d8afc000060e08201526b027ffe766794c0b5dac000006101008201526b0298f17835596efefb3000006101208201526138aa565b600a811015613a96576139946001600160581b0391604051613bb381613676565b6a029cf1bbaf54ae2860000081526a214c2244266266f790000060208201526a216b08636f8a4d0200000060408201526a14e5049736ea4edd7c000060608201526a15857d02d0b5d5451c000060808201526a162ac5e5ebfe2a6698000060a08201526a16d5042b4ec7368af4000060c08201526a17845de12e119eb668000060e08201526a1838fa470e91784fc400006101008201526a18f301cdc4ae49207000006101208201526138aa565b80546bffffffffffffffffffffffff60601b191660609290921b6bffffffffffffffffffffffff60601b16919091179055565b5f516020614c3d5f395f51905f52546001600160a01b0316156148095763ffffffff60095460a01c1643146147fa5760075463ffffffff8160a01c165f19810163ffffffff81116112bd5763ffffffff165f52600d60205263ffffffff600260405f20015460201c1690613d08824261379d565b60055460e01c9384821080156147ed575b6147e457825f52600d60205260405f209161014060405190613d3b8183613692565b60098252601f190136602083013760018401926001600160601b03845416613d62836137ba565b52613d6c826137ba565b51936064613d86600288019660ff885460401c1690613897565b04613d90846137aa565b526064613db8613d9f856137ba565b515f80528860205260ff60405f205460801c1690613897565b04613dc2846137c7565b526064613deb613dd1856137ba565b5160015f528860205260ff60405f205460801c1690613897565b04613df5846137d7565b526001549363ffffffff8560a01c9360c01c16926301e13380613e18854261379d565b04906004549260ff8460e81c1683115f146147c857506301e1338082029a828c046301e1338014831517156112bd576112af613e71613e8a93613e6c613e6c9f613e6590613efd9b61386c565b948561379d565b613897565b916301e13380613e8086613b92565b049d8e914261379d565b6001600160a01b0390961660a08b901b6001600160a01b0319161760015561ffff60e81b19821660e89190911b60ff60e81b1690811760ff60e81b199290921617600890811b6001600160f81b031916600160fa1b17901c60ff60f01b16176004555b6001600160601b03841690613c61565b6064613f1060ff855460481c1684613897565b04613f1a826137e7565b525f5460a01c9586613f2b836137e7565b51111561475357600354613f5488613f4f613f45866137e7565b518460a01c61386c565b61379d565b613f5d846137e7565b526001600160a01b0319613f70846137e7565b5160a01b169060018060a01b0316176003555b600186019788871197886112bd575f8a8152600d6020526040902060045490939060081b600160f81b808216146146b1575b8a90600160f91b908116036145d5576112bd578a7f39bc2730fdcfae4cff08b4c64064b1a739e0e3e45a0452a208c878a9cc1186855f80a25b60045460081b600160fb1b9081160361456d57896112bd578a7fbde32ced292ffa7c03b180afc793b85ce29323b3590be177ca52f66509f941cb5f80a25b865467ffffffff0000000019164260201b67ffffffff0000000016178755614067614056866137c7565b51614060876137d7565b519061386c565b975f805280602052606461408560ff60405f205460881c1689613897565b0461408f876137f7565b5260015f5260205260646140ad60ff60405f205460881c1688613897565b046140b786613807565b5261411b6140d16140c7876137f7565b5161406088613807565b968a5f5260116020526001600160601b0360405f2054166140f188613817565b52606461130961410089613817565b51928d5f52601160205260ff60405f205460d01c1690613897565b61412486613828565b526001600160601b0361413686613828565b5116895f5260116020526001600160601b0360405f2091166001600160601b03198254161790556301e1338061418161416f854261386c565b63ffffffff60075460c01c169061379d565b049160045460ff8160e81c1684115f146144f657505063ffffffff60075460c01c16916301e133808102928184046301e1338014821517156112bd57606494613e6c6141fe94613f4f6301e133806141f66141f06141e561420f9b6112af9961386c565b94613e6c428761379d565b97613b92565b04934261386c565b60ff600285015460481c1690613897565b5f80546001600160a01b03169290910460a081901b6001600160a01b0319169290921790556004805460ff60f01b19169055935b614254600354958660a01c9061386c565b6001600160a01b0390951660a086901b6001600160a01b0319161760035561427b836137ba565b51156144d55763ffffffff61428f846137aa565b519154166142bb6001600160481b0360045460a01c16926001600160481b0360085460a01c1690614ae1565b907812725dd1d243aba0e75fe645cc4873f9e65afe688c928e1f2181116144c357916142f86142fd92670de0b6b3a764000061430295029061386c565b614ae1565b614b76565b6001600160401b0360055460a01c168082116144bb575b50670de0b6b3a7640000019081670de0b6b3a7640000116112bd5760010180546001600160c01b031660c083901b6001600160c01b0319161790556040519081527f0ed5cb8014905e189c84ea644a5389aeda2840571fb3968a2ddbca0cee4f52f790602090a15b61438a816137aa565b51158015614451575b1561443e577f85eb22bba89b84861eba7d81d18cdb472acc7cf85a09f1ae2f6c2e28bbd759c3939291816143c961440f936137aa565b51936143de6143d783613817565b5192613828565b5192604051968796879260a094919796959260c0850198855260208501526040840152606083015260808201520152565b0390a26112bd576007805463ffffffff60a01b191660a09290921b63ffffffff60a01b16919091179055600190565b8463837ce0c560e01b5f5260045260245ffd5b506002545f906020906001600160a01b0316602461446e856137aa565b516040519485938492637b06669d60e11b845260048401525af1908115611014575f9161449c575b50614393565b6144b5915060203d6020116121ff576121f18183613692565b5f614496565b90505f614319565b631cd951a760e01b5f5260045260245ffd5b5060010180546001600160c01b03166503782dace9d960d21b179055614381565b9250969260ff60f81b8360081b16614511575b505050614243565b60649297506145349161452391613897565b60ff600286015460481c1690613897565b5f80546001600160a01b03169290910460a081901b6001600160a01b03191692909217815560ff60f01b19909616600455948080614509565b98885f5260116020526001600160601b0360405f205460601c16906112bd576145a1908b5f52601160205260405f20613c61565b5f88815260116020526040808220548c8352908220805461ffff60c01b191661ffff60c01b9092169190911790559861402c565b505f5b600281106146655750865460028501805468ff0000000000000000191660ff60401b90921691909117815561461f908854815460ff60481b191660ff60481b909116179055565b885f5260116020528960ff60405f205460d01c16906112bd575f8c8152601160205260409020805460ff60d01b191660d09290921b60ff60d01b16919091179055613fee565b5f81815260208a815260408083208054928990529220805460ff60881b90921660ff60881b19831681178255925460ff60801b1661ffff60801b199092169092171790556001016145d8565b99506007548060e01c80614726575b50506006548060a01c6146fe575b505f809a8c7f66860869553d03484d66e9fad30245295f3909a03820e819dc9a8d94612e25f75f80a29050613fb5565b600280546001600160a01b031983166001600160a01b0391821617909155166006555f6146ce565b600580546001600160e01b031984166001600160e01b039182161790915590911660075592505f806146c0565b8661475d836137e7565b511015613f8357614777614770836137e7565b518861379d565b600354908160a01c8181115f146147c0576001600160601b039161479a9161379d565b165b6001600160a01b0390911660a09190911b6001600160a01b03191617600355613f83565b50505f61479c565b92509950506147de919450613efd925088613897565b92613eed565b50505050505f90565b506301dfe2008211613d19565b63683b824b60e11b5f5260045ffd5b63f56b123b60e01b5f5260045ffd5b815f52601060205260405f20835f526020526001600160601b0360405f205460601c168061496b575b50815f52601060205260405f20835f526020526001600160601b03600160405f20015460601c1680614874575b50505050565b61489d6148c091835f52600d6020526001600160601b03600160405f20015460601c1690613897565b825f52600d60205260405f20845f5260205260ff60405f205460881c1690613897565b905f52600d60205260405f20825f526020526001600160601b0360405f2054166064810290808204606414901517156112bd576001600160601b03916112af61492592855f52601060205260405f20875f5260205284600160405f2001541692613879565b5f9283526010602090815260408085209585529490529282206001018054939091166001600160601b03166001600160c01b03199093169290921790915580808061486e565b6149c061499d6001600160601b0392845f52600d60205260405f20865f5260205260ff60405f205460801c1690613897565b845f52601060205260405f20865f5260205260648360405f20541691049061386c565b5f84815260106020908152604080832088845290915281208054929093166001600160601b03166001600160c01b031990921691909117909155614841565b60081981019081116112bd576b027615e1593933afb1640000905f905b808210614a2857505090565b90918060011b818104600214821517156112bd576001916064614a4c92049061386c565b920190614a1c565b60081981019081116112bd576b027615e1593933afb1640000906001905b808210614a7e57505090565b90918060011b818104600214821517156112bd576001916064614aa292049061386c565b920190614a72565b906001600160601b03809116911601906001600160601b0382116112bd57565b63ffffffff1663ffffffff81146112bd5760010190565b9091905f1983820983820291828083109203918083039214614b6557670de0b6b3a7640000821015614b4e577faccb18165bd6fe31ae1cf318dc5b51eee0e1ba569b88cd74c1773b91fac106699394670de0b6b3a7640000910990828211900360ee1b910360121c170290565b8490635173648d60e01b5f5260045260245260445ffd5b5050670de0b6b3a764000090049150565b905f5f19670de0b6b3a76400008409670de0b6b3a7640000840291828083109203918083039214614c2a5768056bc75e2d63100000821015614bfd575068056bc75e2d63100000670de0b6b3a76400007f2fdf29ec6a12d6f7bf48d6861d4b553283e011b18b576460d489e3a9addec2d194950990828211900360ec1b910360141c170290565b630c740aef60e31b81526004859052670de0b6b3a764000060245268056bc75e2d63100000604452606490fd5b505068056bc75e2d631000009004915056febd5523e7c3b6a94aa0e3b24d1120addc2f95c7029e097b466b2bedc8d4b4362fa26469706673582212201eee13fcd799d3650accede7ef3e9c87ffdb26e200904798e14454805c10c42d64736f6c634300081e0033",
  "linkReferences": {},
  "deployedLinkReferences": {}
}