{
  "_format": "hh-sol-artifact-1",
  "contractName": "UniswapPriceOracle",
  "sourceName": "contracts/oracles/UniswapPriceOracle.sol",
  "abi": [
    {
      "inputs": [
        {
          "internalType": "address",
          "name": "_pair",
          "type": "address"
        },
        {
          "internalType": "address",
          "name": "_olas",
          "type": "address"
        },
        {
          "internalType": "uint256",
          "name": "_minTwapWindowSeconds",
          "type": "uint256"
        },
        {
          "internalType": "uint256",
          "name": "_minUpdateIntervalSeconds",
          "type": "uint256"
        },
        {
          "internalType": "uint256",
          "name": "_maxStalenessSeconds",
          "type": "uint256"
        }
      ],
      "stateMutability": "nonpayable",
      "type": "constructor"
    },
    {
      "inputs": [
        {
          "internalType": "uint256",
          "name": "provided",
          "type": "uint256"
        },
        {
          "internalType": "uint256",
          "name": "max",
          "type": "uint256"
        }
      ],
      "name": "Overflow",
      "type": "error"
    },
    {
      "inputs": [
        {
          "internalType": "address[]",
          "name": "tokens",
          "type": "address[]"
        }
      ],
      "name": "WrongPool",
      "type": "error"
    },
    {
      "inputs": [],
      "name": "ZeroAddress",
      "type": "error"
    },
    {
      "inputs": [],
      "name": "ZeroValue",
      "type": "error"
    },
    {
      "anonymous": false,
      "inputs": [
        {
          "indexed": true,
          "internalType": "address",
          "name": "sender",
          "type": "address"
        },
        {
          "indexed": false,
          "internalType": "uint256",
          "name": "priceCumulative",
          "type": "uint256"
        },
        {
          "indexed": false,
          "internalType": "uint256",
          "name": "timestamp",
          "type": "uint256"
        }
      ],
      "name": "ObservationUpdated",
      "type": "event"
    },
    {
      "inputs": [],
      "name": "direction",
      "outputs": [
        {
          "internalType": "uint256",
          "name": "",
          "type": "uint256"
        }
      ],
      "stateMutability": "view",
      "type": "function"
    },
    {
      "inputs": [],
      "name": "getPrice",
      "outputs": [
        {
          "internalType": "uint256",
          "name": "",
          "type": "uint256"
        }
      ],
      "stateMutability": "view",
      "type": "function"
    },
    {
      "inputs": [],
      "name": "getTWAP",
      "outputs": [
        {
          "internalType": "uint256",
          "name": "",
          "type": "uint256"
        }
      ],
      "stateMutability": "view",
      "type": "function"
    },
    {
      "inputs": [],
      "name": "lastObservation",
      "outputs": [
        {
          "internalType": "uint256",
          "name": "priceCumulative",
          "type": "uint256"
        },
        {
          "internalType": "uint256",
          "name": "timestamp",
          "type": "uint256"
        }
      ],
      "stateMutability": "view",
      "type": "function"
    },
    {
      "inputs": [],
      "name": "maxStaleness",
      "outputs": [
        {
          "internalType": "uint256",
          "name": "",
          "type": "uint256"
        }
      ],
      "stateMutability": "view",
      "type": "function"
    },
    {
      "inputs": [],
      "name": "minTwapWindow",
      "outputs": [
        {
          "internalType": "uint256",
          "name": "",
          "type": "uint256"
        }
      ],
      "stateMutability": "view",
      "type": "function"
    },
    {
      "inputs": [],
      "name": "minUpdateInterval",
      "outputs": [
        {
          "internalType": "uint256",
          "name": "",
          "type": "uint256"
        }
      ],
      "stateMutability": "view",
      "type": "function"
    },
    {
      "inputs": [],
      "name": "pair",
      "outputs": [
        {
          "internalType": "address",
          "name": "",
          "type": "address"
        }
      ],
      "stateMutability": "view",
      "type": "function"
    },
    {
      "inputs": [],
      "name": "prevObservation",
      "outputs": [
        {
          "internalType": "uint256",
          "name": "priceCumulative",
          "type": "uint256"
        },
        {
          "internalType": "uint256",
          "name": "timestamp",
          "type": "uint256"
        }
      ],
      "stateMutability": "view",
      "type": "function"
    },
    {
      "inputs": [],
      "name": "updatePrice",
      "outputs": [
        {
          "internalType": "bool",
          "name": "",
          "type": "bool"
        }
      ],
      "stateMutability": "nonpayable",
      "type": "function"
    }
  ],
  "bytecode": "0x61012080604052346102955760a081610c7380380380916100208285610339565b8339810103126102955761003381610370565b61003f60208301610370565b60408301516060840151608090940151919391926001600160a01b0381161561032a5781158015610322575b610313578282116102fd578382116102e65760805260c05260e05261010052604051610098606082610339565b60028152602081016040368237608051604051630dfe168160e01b815290602090829060049082906001600160a01b03165afa9081156102a1575f916102ac575b5060805160405163d21220a760e01b815290602090829060049082906001600160a01b03165afa9081156102a1575f91610263575b5061011884610384565b6001600160a01b03909116905261012e836103a8565b6001600160a01b039182169052610144836103a8565b516001600160a01b03909416931683141580610247575b6101f157506001600160a01b0390610172906103a8565b5116146101e7575b6040516108bd90816103b6823960805181818160c60152818161011a0152610647015260a051818181610170015281816102bf0152610624015260c0518181816102f901526103f6015260e05181818161033301526105ac01526101005181818161026101526103b70152f35b600160a05261017a565b60405163518ac42560e11b815260206004820152915160248301819052829160448301915f5b818110610225575050500390fd5b82516001600160a01b0316845285945060209384019390920191600101610217565b50826001600160a01b0361025a84610384565b5116141561015b565b90506020813d602011610299575b8161027e60209383610339565b810103126102955761028f90610370565b5f61010e565b5f80fd5b3d9150610271565b6040513d5f823e3d90fd5b90506020813d6020116102de575b816102c760209383610339565b81010312610295576102d890610370565b5f6100d9565b3d91506102ba565b8382637ae5968560e01b5f5260045260245260445ffd5b50637ae5968560e01b5f5260045260245260445ffd5b637c946ed760e01b5f5260045ffd5b50821561006b565b63d92e233d60e01b5f5260045ffd5b601f909101601f19168101906001600160401b0382119082101761035c57604052565b634e487b7160e01b5f52604160045260245ffd5b51906001600160a01b038216820361029557565b8051600110156103945760400190565b634e487b7160e01b5f52603260045260245ffd5b805115610394576020019056fe6080806040526004361015610012575f80fd5b5f3560e01c90816305ecd00314610356575080630964ff261461031c5780631067fd3f146102e2578063645539ed146102a8578063673a7e281461028457806387cf46961461024a5780638a7b8cf21461022657806398d5fdca146100f5578063a8aa1b31146100b15763dc79bd031461008a575f80fd5b346100ad575f3660031901126100ad5760405f5460015482519182526020820152f35b5f80fd5b346100ad575f3660031901126100ad576040517f00000000000000000000000000000000000000000000000000000000000000006001600160a01b03168152602090f35b346100ad575f3660031901126100ad57604051630240bc6b60e21b81526060816004817f00000000000000000000000000000000000000000000000000000000000000006001600160a01b03165afa90811561021b575f905f926101e8575b506001600160701b0381161580156101d7575b6101c8576020917f00000000000000000000000000000000000000000000000000000000000000006101b757906101a06101a592610833565b610869565b6040516001600160e01b039091168152f35b6101a06101c392610833565b6101a5565b637c946ed760e01b5f5260045ffd5b506001600160701b03821615610167565b905061020c915060603d606011610214575b61020481836104ed565b8101906105ec565b509082610154565b503d6101fa565b6040513d5f823e3d90fd5b346100ad575f3660031901126100ad57604060025460035482519182526020820152f35b346100ad575f3660031901126100ad5760206040517f00000000000000000000000000000000000000000000000000000000000000008152f35b346100ad575f3660031901126100ad57602061029e61051c565b6040519015158152f35b346100ad575f3660031901126100ad5760206040517f00000000000000000000000000000000000000000000000000000000000000008152f35b346100ad575f3660031901126100ad5760206040517f00000000000000000000000000000000000000000000000000000000000000008152f35b346100ad575f3660031901126100ad5760206040517f00000000000000000000000000000000000000000000000000000000000000008152f35b346100ad575f3660031901126100ad5761036f816104bd565b5f548152600154906020810191825260405161038a816104bd565b600254815260206003549101908082528351159081156104b4575b506101c8576103b590514261050f565b7f00000000000000000000000000000000000000000000000000000000000000009081811161049f5750506103f36103eb610622565b92514261050f565b917f000000000000000000000000000000000000000000000000000000000000000083108015610497575b6101c85761042d91519061050f565b9080156104835790046001600160e01b031680156101c857670de0b6b3a76400008102908104670de0b6b3a76400000361046f576020906040519060701c8152f35b634e487b7160e01b5f52601160045260245ffd5b634e487b7160e01b5f52601260045260245ffd5b50821561041e565b637ae5968560e01b5f5260045260245260445ffd5b905015846103a5565b6040810190811067ffffffffffffffff8211176104d957604052565b634e487b7160e01b5f52604160045260245ffd5b90601f8019910116810190811067ffffffffffffffff8211176104d957604052565b9190820391821161046f57565b610524610622565b6020604051610532816104bd565b600254908181526003549283910152816105a0575b5f55600155604051610558816104bd565b81815260204291015280600255426003556040519081524260208201527f53bf861b172248ff113bd48d297dad4244133cd360040a0353127bfc019c344060403392a2600190565b6105aa824261050f565b7f00000000000000000000000000000000000000000000000000000000000000001115610547575050505f90565b51906001600160701b03821682036100ad57565b908160609103126100ad57610600816105d8565b91604061060f602084016105d8565b92015163ffffffff811681036100ad5790565b7f000000000000000000000000000000000000000000000000000000000000000015907f00000000000000000000000000000000000000000000000000000000000000006001600160a01b031682156107cd57604051635909c0d560e01b815292602084600481855afa93841561021b575f94610798575b506060600494925b604051630240bc6b60e21b815295869182905afa93841561021b575f905f905f96610772575b506106da63ffffffff8597164261050f565b9283151580610760575b8061074e575b6106f6575b5050505050565b909192939495505f1461073d57906101a061071092610833565b6001600160e01b031681810291811591830414171561046f57810180911161046f57905f808080806106ef565b6101a061074992610833565b610710565b506001600160701b03821615156106ea565b506001600160701b03831615156106e4565b91505061078f91945060603d6060116102145761020481836104ed565b9491905f6106c8565b93506020843d6020116107c5575b816107b3602093836104ed565b810103126100ad57925192606061069a565b3d91506107a6565b604051635a3d549360e01b815292602084600481855afa93841561021b575f946107fe575b506060600494926106a2565b93506020843d60201161082b575b81610819602093836104ed565b810103126100ad5792519260606107f2565b3d915061080c565b6dffffffffffffffffffffffffffff60701b607082901b16906001600160701b0316808204600160701b149015171561046f5790565b906001600160701b0316908115610483576001600160e01b0316049056fea26469706673582212202021e6e4efab36e9c3daa7af6943a1bb8b52d0d93e7be7e9c326d8116dd9bb3764736f6c634300081e0033",
  "linkReferences": {},
  "deployedLinkReferences": {}
}