{"abi":[{"type":"constructor","inputs":[{"name":"_olas","type":"address","internalType":"address"},{"name":"_proxyFactory","type":"address","internalType":"address"},{"name":"_l2MessageRelayer","type":"address","internalType":"address"},{"name":"_l1DepositProcessor","type":"address","internalType":"address"},{"name":"_l1SourceChainId","type":"uint256","internalType":"uint256"},{"name":"_wormholeCore","type":"address","internalType":"address"},{"name":"_l2TokenRelayer","type":"address","internalType":"address"}],"stateMutability":"nonpayable"},{"type":"receive","stateMutability":"payable"},{"type":"function","name":"BRIDGE_PAYLOAD_LENGTH","inputs":[],"outputs":[{"name":"","type":"uint256","internalType":"uint256"}],"stateMutability":"view"},{"type":"function","name":"MAX_CHAIN_ID","inputs":[],"outputs":[{"name":"","type":"uint256","internalType":"uint256"}],"stateMutability":"view"},{"type":"function","name":"MAX_GAS_LIMIT","inputs":[],"outputs":[{"name":"","type":"uint256","internalType":"uint256"}],"stateMutability":"view"},{"type":"function","name":"MIN_GAS_LIMIT","inputs":[],"outputs":[{"name":"","type":"uint256","internalType":"uint256"}],"stateMutability":"view"},{"type":"function","name":"RECEIVE_MESSAGE","inputs":[],"outputs":[{"name":"","type":"bytes4","internalType":"bytes4"}],"stateMutability":"view"},{"type":"function","name":"changeOwner","inputs":[{"name":"newOwner","type":"address","internalType":"address"}],"outputs":[],"stateMutability":"nonpayable"},{"type":"function","name":"drain","inputs":[],"outputs":[{"name":"amount","type":"uint256","internalType":"uint256"}],"stateMutability":"nonpayable"},{"type":"function","name":"getBridgingDecimals","inputs":[],"outputs":[{"name":"","type":"uint256","internalType":"uint256"}],"stateMutability":"pure"},{"type":"function","name":"l1DepositProcessor","inputs":[],"outputs":[{"name":"","type":"address","internalType":"address"}],"stateMutability":"view"},{"type":"function","name":"l1SourceChainId","inputs":[],"outputs":[{"name":"","type":"uint256","internalType":"uint256"}],"stateMutability":"view"},{"type":"function","name":"l2MessageRelayer","inputs":[],"outputs":[{"name":"","type":"address","internalType":"address"}],"stateMutability":"view"},{"type":"function","name":"mapDeliveryHashes","inputs":[{"name":"","type":"bytes32","internalType":"bytes32"}],"outputs":[{"name":"","type":"bool","internalType":"bool"}],"stateMutability":"view"},{"type":"function","name":"migrate","inputs":[{"name":"newL2TargetDispenser","type":"address","internalType":"address"}],"outputs":[],"stateMutability":"nonpayable"},{"type":"function","name":"olas","inputs":[],"outputs":[{"name":"","type":"address","internalType":"address"}],"stateMutability":"view"},{"type":"function","name":"owner","inputs":[],"outputs":[{"name":"","type":"address","internalType":"address"}],"stateMutability":"view"},{"type":"function","name":"pause","inputs":[],"outputs":[],"stateMutability":"nonpayable"},{"type":"function","name":"paused","inputs":[],"outputs":[{"name":"","type":"uint8","internalType":"uint8"}],"stateMutability":"view"},{"type":"function","name":"processDataMaintenance","inputs":[{"name":"data","type":"bytes","internalType":"bytes"},{"name":"updateWithheldAmount","type":"bool","internalType":"bool"}],"outputs":[],"stateMutability":"nonpayable"},{"type":"function","name":"processedHashes","inputs":[{"name":"","type":"bytes32","internalType":"bytes32"}],"outputs":[{"name":"","type":"bool","internalType":"bool"}],"stateMutability":"view"},{"type":"function","name":"queuedHashes","inputs":[{"name":"","type":"bytes32","internalType":"bytes32"}],"outputs":[{"name":"","type":"bool","internalType":"bool"}],"stateMutability":"view"},{"type":"function","name":"receiveWormholeMessages","inputs":[{"name":"payload","type":"bytes","internalType":"bytes"},{"name":"additionalVaas","type":"bytes[]","internalType":"bytes[]"},{"name":"sourceAddress","type":"bytes32","internalType":"bytes32"},{"name":"sourceChain","type":"uint16","internalType":"uint16"},{"name":"deliveryHash","type":"bytes32","internalType":"bytes32"}],"outputs":[],"stateMutability":"payable"},{"type":"function","name":"redeem","inputs":[{"name":"target","type":"address","internalType":"address"},{"name":"amount","type":"uint256","internalType":"uint256"},{"name":"batchHash","type":"bytes32","internalType":"bytes32"}],"outputs":[],"stateMutability":"nonpayable"},{"type":"function","name":"setRegisteredSender","inputs":[{"name":"sourceChain","type":"uint16","internalType":"uint16"},{"name":"sourceAddress","type":"bytes32","internalType":"bytes32"}],"outputs":[],"stateMutability":"nonpayable"},{"type":"function","name":"stakingBatchNonce","inputs":[],"outputs":[{"name":"","type":"uint256","internalType":"uint256"}],"stateMutability":"view"},{"type":"function","name":"stakingFactory","inputs":[],"outputs":[{"name":"","type":"address","internalType":"address"}],"stateMutability":"view"},{"type":"function","name":"syncWithheldAmount","inputs":[{"name":"bridgePayload","type":"bytes","internalType":"bytes"}],"outputs":[],"stateMutability":"payable"},{"type":"function","name":"tokenBridge","inputs":[],"outputs":[{"name":"","type":"address","internalType":"contract ITokenBridge"}],"stateMutability":"view"},{"type":"function","name":"unpause","inputs":[],"outputs":[],"stateMutability":"nonpayable"},{"type":"function","name":"updateWithheldAmountMaintenance","inputs":[{"name":"amount","type":"uint256","internalType":"uint256"}],"outputs":[],"stateMutability":"nonpayable"},{"type":"function","name":"withheldAmount","inputs":[],"outputs":[{"name":"","type":"uint256","internalType":"uint256"}],"stateMutability":"view"},{"type":"function","name":"wormhole","inputs":[],"outputs":[{"name":"","type":"address","internalType":"contract IWormhole"}],"stateMutability":"view"},{"type":"function","name":"wormholeRelayer","inputs":[],"outputs":[{"name":"","type":"address","internalType":"contract IWormholeRelayer"}],"stateMutability":"view"},{"type":"event","name":"AmountWithheld","inputs":[{"name":"target","type":"address","indexed":true,"internalType":"address"},{"name":"amount","type":"uint256","indexed":false,"internalType":"uint256"}],"anonymous":false},{"type":"event","name":"Drain","inputs":[{"name":"owner","type":"address","indexed":true,"internalType":"address"},{"name":"amount","type":"uint256","indexed":false,"internalType":"uint256"}],"anonymous":false},{"type":"event","name":"FundsReceived","inputs":[{"name":"sender","type":"address","indexed":true,"internalType":"address"},{"name":"value","type":"uint256","indexed":false,"internalType":"uint256"}],"anonymous":false},{"type":"event","name":"LeftoversRefunded","inputs":[{"name":"sender","type":"address","indexed":true,"internalType":"address"},{"name":"leftovers","type":"uint256","indexed":false,"internalType":"uint256"}],"anonymous":false},{"type":"event","name":"MessagePosted","inputs":[{"name":"sequence","type":"uint256","indexed":true,"internalType":"uint256"},{"name":"messageSender","type":"address","indexed":true,"internalType":"address"},{"name":"amount","type":"uint256","indexed":false,"internalType":"uint256"},{"name":"batchHash","type":"bytes32","indexed":true,"internalType":"bytes32"}],"anonymous":false},{"type":"event","name":"MessageReceived","inputs":[{"name":"sender","type":"address","indexed":true,"internalType":"address"},{"name":"chainId","type":"uint256","indexed":false,"internalType":"uint256"},{"name":"data","type":"bytes","indexed":false,"internalType":"bytes"}],"anonymous":false},{"type":"event","name":"Migrated","inputs":[{"name":"sender","type":"address","indexed":true,"internalType":"address"},{"name":"newL2TargetDispenser","type":"address","indexed":true,"internalType":"address"},{"name":"amount","type":"uint256","indexed":false,"internalType":"uint256"}],"anonymous":false},{"type":"event","name":"OwnerUpdated","inputs":[{"name":"owner","type":"address","indexed":true,"internalType":"address"}],"anonymous":false},{"type":"event","name":"StakingMaintenanceDataProcessed","inputs":[{"name":"data","type":"bytes","indexed":false,"internalType":"bytes"}],"anonymous":false},{"type":"event","name":"StakingRequestQueued","inputs":[{"name":"queueHash","type":"bytes32","indexed":true,"internalType":"bytes32"},{"name":"target","type":"address","indexed":true,"internalType":"address"},{"name":"amount","type":"uint256","indexed":false,"internalType":"uint256"},{"name":"batchHash","type":"bytes32","indexed":true,"internalType":"bytes32"},{"name":"olasBalance","type":"uint256","indexed":false,"internalType":"uint256"},{"name":"paused","type":"uint256","indexed":false,"internalType":"uint256"}],"anonymous":false},{"type":"event","name":"StakingTargetDeposited","inputs":[{"name":"target","type":"address","indexed":true,"internalType":"address"},{"name":"amount","type":"uint256","indexed":false,"internalType":"uint256"},{"name":"batchHash","type":"bytes32","indexed":true,"internalType":"bytes32"}],"anonymous":false},{"type":"event","name":"TargetDispenserPaused","inputs":[],"anonymous":false},{"type":"event","name":"TargetDispenserUnpaused","inputs":[],"anonymous":false},{"type":"event","name":"WithheldAmountUpdated","inputs":[{"name":"amount","type":"uint256","indexed":false,"internalType":"uint256"}],"anonymous":false},{"type":"error","name":"AlreadyDelivered","inputs":[{"name":"deliveryHash","type":"bytes32","internalType":"bytes32"}]},{"type":"error","name":"IncorrectDataLength","inputs":[{"name":"expected","type":"uint256","internalType":"uint256"},{"name":"provided","type":"uint256","internalType":"uint256"}]},{"type":"error","name":"InsufficientBalance","inputs":[{"name":"provided","type":"uint256","internalType":"uint256"},{"name":"expected","type":"uint256","internalType":"uint256"}]},{"type":"error","name":"LowerThan","inputs":[{"name":"provided","type":"uint256","internalType":"uint256"},{"name":"expected","type":"uint256","internalType":"uint256"}]},{"type":"error","name":"ManagerOnly","inputs":[{"name":"sender","type":"address","internalType":"address"},{"name":"manager","type":"address","internalType":"address"}]},{"type":"error","name":"NotAnEvmAddress","inputs":[{"name":"","type":"bytes32","internalType":"bytes32"}]},{"type":"error","name":"Overflow","inputs":[{"name":"provided","type":"uint256","internalType":"uint256"},{"name":"max","type":"uint256","internalType":"uint256"}]},{"type":"error","name":"OwnerOnly","inputs":[{"name":"sender","type":"address","internalType":"address"},{"name":"owner","type":"address","internalType":"address"}]},{"type":"error","name":"Paused","inputs":[]},{"type":"error","name":"ReentrancyGuard","inputs":[]},{"type":"error","name":"TargetAmountNotQueued","inputs":[{"name":"target","type":"address","internalType":"address"},{"name":"amount","type":"uint256","internalType":"uint256"},{"name":"batchHash","type":"bytes32","internalType":"bytes32"}]},{"type":"error","name":"TargetRelayerOnly","inputs":[{"name":"provided","type":"address","internalType":"address"},{"name":"expected","type":"address","internalType":"address"}]},{"type":"error","name":"TransferFailed","inputs":[{"name":"token","type":"address","internalType":"address"},{"name":"from","type":"address","internalType":"address"},{"name":"to","type":"address","internalType":"address"},{"name":"amount","type":"uint256","internalType":"uint256"}]},{"type":"error","name":"Unpaused","inputs":[]},{"type":"error","name":"WrongAccount","inputs":[{"name":"account","type":"address","internalType":"address"}]},{"type":"error","name":"WrongAmount","inputs":[{"name":"provided","type":"uint256","internalType":"uint256"},{"name":"expected","type":"uint256","internalType":"uint256"}]},{"type":"error","name":"WrongChainId","inputs":[{"name":"provided","type":"uint256","internalType":"uint256"},{"name":"expected","type":"uint256","internalType":"uint256"}]},{"type":"error","name":"WrongMessageSender","inputs":[{"name":"provided","type":"address","internalType":"address"},{"name":"expected","type":"address","internalType":"address"}]},{"type":"error","name":"WrongTokenAddress","inputs":[{"name":"provided","type":"address","internalType":"address"},{"name":"expected","type":"address","internalType":"address"}]},{"type":"error","name":"ZeroAddress","inputs":[]},{"type":"error","name":"ZeroValue","inputs":[]}],"bytecode":{"object":"0x610180604052348015610010575f5ffd5b5060405161379238038061379283398101604081905261002f91610244565b84818382818b8b838b8b6001600160a01b038516158061005657506001600160a01b038416155b8061006857506001600160a01b038316155b8061007a57506001600160a01b038216155b156100985760405163d92e233d60e01b815260040160405180910390fd5b805f036100b857604051637c946ed760e01b815260040160405180910390fd5b60246100cc60026001600160401b036102be565b6100d691906102f8565b6001600160401b0316811115610135578060246100fb60026001600160401b036102be565b61010591906102f8565b604051637ae5968560e01b815260048101929092526001600160401b031660248201526044015b60405180910390fd5b6001600160a01b0394851660805292841660a05290831660c052821660e052610100526002805460ff60a81b1960ff60a01b19339081166001600160a81b031990931692909217600160a01b1716600160a81b179091559281166101205290811661014052600580546001600160a01b03191690921790915591821661016052508316159050806101cd57506001600160a01b038116155b156101eb5760405163d92e233d60e01b815260040160405180910390fd5b61ffff83111561021957604051637ae5968560e01b81526004810184905261ffff602482015260440161012c565b5050610100525061032992505050565b80516001600160a01b038116811461023f575f5ffd5b919050565b5f5f5f5f5f5f5f60e0888a03121561025a575f5ffd5b61026388610229565b965061027160208901610229565b955061027f60408901610229565b945061028d60608901610229565b9350608088015192506102a260a08901610229565b91506102b060c08901610229565b905092959891949750929550565b5f6001600160401b038316806102e257634e487b7160e01b5f52601260045260245ffd5b6001600160401b03929092169190910492915050565b6001600160401b03828116828216039081111561032357634e487b7160e01b5f52601160045260245ffd5b92915050565b60805160a05160c05160e0516101005161012051610140516101605161333561045d5f395f818161062b01528181610a3201528181610b0c01528181610c780152611f6101525f81816105410152818161096c01528181610b920152611eb501525f61067d01525f81816105c6015281816120d801528181612115015281816122d3015281816123da01528181612449015261265201525f8181610314015281816123fb01528181612591015281816125cb015261260701525f81816102e10152818161230a015281816123aa0152818161251b015261255501525f81816103470152611a8301525f818161022c01528181611349015281816113dd0152818161170c015281816117a10152818161182101528181611c0201528181611cb90152818161217201526121e601526133355ff3fe6080604052600436106101a1575f3560e01c80637424ddc8116100df578063a6f9dae111610083578063a6f9dae1146105e8578063a8b2ae0214610607578063c6328a461461061a578063ce5494bb1461064d578063da25b7251461066c578063dd12d68b1461069f578063e3f5aa51146106be578063f4427c2c146106d4575f5ffd5b80637424ddc8146104f35780637ce1ffeb146105065780638456cb591461051c57806384acd1bb146105305780638da5cb5b146105635780639890220b14610582578063992c3e4b146105965780639b7bb847146105b5575f5ffd5b8063446a969511610146578063446a96951461039e5780634ece6b17146103cc5780634fa65958146103ee578063529dca321461040d57806354d20cc2146104205780635a7287cf146104995780635bc105c0146104ad5780635c975abb146104c1575f5ffd5b806231d1151461021b57806307d9c534146102645780631b2e7f0a146102a25780631bad5957146102d0578063256359a814610303578063291347681461033657806332cbdd21146103695780633f4ba83a1461038a575f5ffd5b36610217576002546001600160a01b03166101e0575f33303460405163cd3f165960e01b81526004016101d79493929190612698565b60405180910390fd5b60405134815233907f8e47b87b0ef542cdfa1659c551d88bad38aa7f452d2bbb349ab7530dfec8be8f9060200160405180910390a2005b5f5ffd5b348015610226575f5ffd5b5061024e7f000000000000000000000000000000000000000000000000000000000000000081565b60405161025b91906126c2565b60405180910390f35b34801561026f575f5ffd5b5061029261027e3660046126d6565b60036020525f908152604090205460ff1681565b604051901515815260200161025b565b3480156102ad575f5ffd5b506102926102bc3660046126d6565b60046020525f908152604090205460ff1681565b3480156102db575f5ffd5b5061024e7f000000000000000000000000000000000000000000000000000000000000000081565b34801561030e575f5ffd5b5061024e7f000000000000000000000000000000000000000000000000000000000000000081565b348015610341575f5ffd5b5061024e7f000000000000000000000000000000000000000000000000000000000000000081565b348015610374575f5ffd5b506103886103833660046126d6565b6106e9565b005b348015610395575f5ffd5b5061038861075f565b3480156103a9575f5ffd5b506102926103b83660046126d6565b60076020525f908152604090205460ff1681565b3480156103d7575f5ffd5b506103e0604081565b60405190815260200161025b565b3480156103f9575f5ffd5b50610388610408366004612827565b6107d8565b61038861041b3660046128b6565b6108d6565b34801561042b575f5ffd5b50604080518082019091526015815274726563656976654d6573736167652862797465732960581b6020909101526104807ff953cec75ae677942d7cda5cb6d12c0cb96a0904bf37d36301eef297b83c411d81565b6040516001600160e01b0319909116815260200161025b565b3480156104a4575f5ffd5b506103e05f5481565b3480156104b8575f5ffd5b506103e0610df7565b3480156104cc575f5ffd5b506002546104e190600160a01b900460ff1681565b60405160ff909116815260200161025b565b6103886105013660046129af565b610e21565b348015610511575f5ffd5b506103e0620493e081565b348015610527575f5ffd5b50610388611073565b34801561053b575f5ffd5b5061024e7f000000000000000000000000000000000000000000000000000000000000000081565b34801561056e575f5ffd5b5060025461024e906001600160a01b031681565b34801561058d575f5ffd5b506103e06110ec565b3480156105a1575f5ffd5b506103886105b03660046129fc565b611248565b3480156105c0575f5ffd5b506103e07f000000000000000000000000000000000000000000000000000000000000000081565b3480156105f3575f5ffd5b50610388610602366004612a2e565b611546565b348015610612575f5ffd5b5060086103e0565b348015610625575f5ffd5b5061024e7f000000000000000000000000000000000000000000000000000000000000000081565b348015610658575f5ffd5b50610388610667366004612a2e565b6115f2565b348015610677575f5ffd5b5061024e7f000000000000000000000000000000000000000000000000000000000000000081565b3480156106aa575f5ffd5b506103886106b9366004612a49565b6118b6565b3480156106c9575f5ffd5b506103e0621e848081565b3480156106df575f5ffd5b506103e060015481565b6002546001600160a01b031633146107255760025460405163521eb56d60e11b81526101d79133916001600160a01b0390911690600401612a73565b5f8190556040518181527fc72394635a1b67b1c2708140b8c308785562b0ccd995e86ac0e2f1791ca040e79060200160405180910390a150565b6002546001600160a01b0316331461079b5760025460405163521eb56d60e11b81526101d79133916001600160a01b0390911690600401612a73565b6002805460ff60a01b1916600160a01b1790556040517f20e9b9dbd8158c2b961d8645a7d06624a045634bb65f07ef751ae014a65f61f5905f90a1565b6002546001600160a01b031633146108145760025460405163521eb56d60e11b81526101d79133916001600160a01b0390911690600401612a73565b5f61081f8383611932565b9050811561089a575f548082111561085457604051637ae5968560e01b815260048101839052602481018290526044016101d7565b61085e8282612aa1565b5f8190556040518181529091507fc72394635a1b67b1c2708140b8c308785562b0ccd995e86ac0e2f1791ca040e79060200160405180910390a1505b7f6c5612d5407f11b75444f1d65d69cd4e33f371e29b660ca8ceaba56b1953bfe4836040516108c99190612ae2565b60405180910390a1505050565b5f84516001600160401b038111156108f0576108f06126ed565b60405190808252806020026020018201604052801561095b57816020015b6109486040518060a001604052805f81526020015f61ffff1681526020015f6001600160a01b031681526020015f81526020015f81525090565b81526020019060019003908161090e5790505b5090505f5b8551811015610de1575f7f00000000000000000000000000000000000000000000000000000000000000006001600160a01b031663a9e118938884815181106109ab576109ab612af4565b60200260200101516040518263ffffffff1660e01b81526004016109cf9190612ae2565b5f60405180830381865afa1580156109e9573d5f5f3e3d5ffd5b505050506040513d5f823e601f3d908101601f19168201604052610a109190810190612c45565b606081015160405163ad66a5f160e01b815261ffff90911660048201529091507f00000000000000000000000000000000000000000000000000000000000000006001600160a01b03169063ad66a5f190602401602060405180830381865afa158015610a7f573d5f5f3e3d5ffd5b505050506040513d601f19601f82011682018060405250810190610aa39190612d6c565b816080015114610aee5760405162461bcd60e51b81526020600482015260166024820152754e6f74206120546f6b656e204272696467652056414160501b60448201526064016101d7565b60e081015160405163ea63738d60e01b81525f916001600160a01b037f0000000000000000000000000000000000000000000000000000000000000000169163ea63738d91610b3f91600401612ae2565b5f60405180830381865afa158015610b59573d5f5f3e3d5ffd5b505050506040513d5f823e601f3d908101601f19168201604052610b809190810190612d83565b9050308160800151148015610c1f57507f00000000000000000000000000000000000000000000000000000000000000006001600160a01b0316639a8a05926040518163ffffffff1660e01b8152600401602060405180830381865afa158015610bec573d5f5f3e3d5ffd5b505050506040513d601f19601f82011682018060405250810190610c109190612e49565b61ffff168160a0015161ffff16145b610c765760405162461bcd60e51b815260206004820152602260248201527f546f6b656e20776173206e6f742073656e7420746f2074686973206164647265604482015261737360f01b60648201526084016101d7565b7f00000000000000000000000000000000000000000000000000000000000000006001600160a01b031663c3f511c1898581518110610cb757610cb7612af4565b60200260200101516040518263ffffffff1660e01b8152600401610cdb9190612ae2565b5f604051808303815f875af1158015610cf6573d5f5f3e3d5ffd5b505050506040513d5f823e601f3d908101601f19168201604052610d1d9190810190612e64565b505f610d3182606001518360400151611eb2565b90505f610d3d82611fe9565b6020840151909150600860ff83161115610d7457610d5c600883612e95565b610d6790600a612f91565b610d719082612f9f565b90505b6040518060a0016040528085604001518152602001856060015161ffff168152602001846001600160a01b031681526020018281526020018560200151815250878781518110610dc657610dc6612af4565b60200260200101819052505050505050806001019050610960565b50610def8682868686612087565b505050505050565b6024610e0b60026001600160401b03612fca565b610e159190612ff7565b6001600160401b031681565b6002546001600160a81b90910460ff161115610e50576040516345f5ce8b60e11b815260040160405180910390fd5b6002805460ff60a81b198116600160a91b179091556001600160a01b03163314610e9e5760025460405163521eb56d60e11b81526101d79133916001600160a01b0390911690600401612a73565b60028054600160a01b900460ff169003610ecb576040516313d0ff5960e31b815260040160405180910390fd5b5f54600881610edb826012612aa1565b610ee690600a613016565b610ef09084613021565b9050610efd826012612aa1565b610f0890600a613016565b610f129082612f9f565b9050805f03610f3457604051637c946ed760e01b815260040160405180910390fd5b610f3e8184612aa1565b5f908155600154604080516020810183905246918101919091523060608201529091906080016040516020818303038152906040528051906020012090505f5f610f8985898561222c565b9092509050801561100f57604051339082905f81818185875af1925050503d805f8114610fd1576040519150601f19603f3d011682016040523d82523d5f602084013e610fd6565b606091505b50506040518281523391507f8e49ed3e274fbea1556bdfaa9a37a0c28445bfe26d57beaf9f04fd517aa417419060200160405180910390a25b61101a846001613034565b6001556040518581528390339084907f1ff6d173c1ebeb42f666a09b94f554cf43eadf8054fda3247f56c343baab28f79060200160405180910390a450506002805460ff60a81b1916600160a81b179055505050505050565b6002546001600160a01b031633146110af5760025460405163521eb56d60e11b81526101d79133916001600160a01b0390911690600401612a73565b6002805460ff60a01b1916600160a11b1790556040517f8ef6a6615a637325c66275a8d4cadb0844f08a758e5a9df369412975bcdcbc48905f90a1565b6002545f906001600160a81b90910460ff16111561111d576040516345f5ce8b60e11b815260040160405180910390fd5b6002805460ff60a81b198116600160a91b179091556001600160a01b0316331461116b5760025460405163521eb56d60e11b81526101d79133916001600160a01b0390911690600401612a73565b479050805f0361118e57604051637c946ed760e01b815260040160405180910390fd5b6040515f90339083908381818185875af1925050503d805f81146111cd576040519150601f19603f3d011682016040523d82523d5f602084013e6111d2565b606091505b50509050806111fc575f30338460405163cd3f165960e01b81526004016101d79493929190612698565b60405182815233907ff36f4d6622e16a536bbb049064af779cdd483a0b388d347d3752a65f1058bf5b9060200160405180910390a2506002805460ff60a81b1916600160a81b17905590565b6002546001600160a81b90910460ff161115611277576040516345f5ce8b60e11b815260040160405180910390fd5b6002805460ff60a81b1916600160a91b1780825560ff600160a01b9091041690036112b5576040516313d0ff5960e31b815260040160405180910390fd5b5f83838346306040516020016112cf959493929190613047565b60408051601f1981840301815291815281516020928301205f818152600490935291205490915060ff1680611330576040516315c15ea560e11b81526001600160a01b038616600482015260248101859052604481018490526064016101d7565b6040516370a0823160e01b81525f906001600160a01b037f000000000000000000000000000000000000000000000000000000000000000016906370a082319061137e9030906004016126c2565b602060405180830381865afa158015611399573d5f5f3e3d5ffd5b505050506040513d601f19601f820116820180604052508101906113bd9190612d6c565b90508481106115085760405163095ea7b360e01b81526001600160a01b037f0000000000000000000000000000000000000000000000000000000000000000169063095ea7b3906114149089908990600401613077565b6020604051808303815f875af1158015611430573d5f5f3e3d5ffd5b505050506040513d601f19601f820116820180604052508101906114549190613090565b5060405163b6b55f2560e01b8152600481018690526001600160a01b0387169063b6b55f25906024015f604051808303815f87803b158015611494575f5ffd5b505af11580156114a6573d5f5f3e3d5ffd5b5050505083866001600160a01b03167f22ab9fd8eb5063f7f3cb43c78f5d368aea9a51855ada00fa146687ef2c321980876040516114e691815260200190565b60405180910390a35f838152600460205260409020805460ff1916905561152b565b60405163cf47918160e01b815260048101829052602481018690526044016101d7565b50506002805460ff60a81b1916600160a81b17905550505050565b6002546001600160a01b031633146115825760025460405163521eb56d60e11b81526101d79133916001600160a01b0390911690600401612a73565b6001600160a01b0381166115a95760405163d92e233d60e01b815260040160405180910390fd5b600280546001600160a01b0319166001600160a01b0383169081179091556040517f4ffd725fc4a22075e9ec71c59edf9c38cdeb588a91b24fc5b61388c5be41282b905f90a250565b6002546001600160a81b90910460ff161115611621576040516345f5ce8b60e11b815260040160405180910390fd5b6002805460ff60a81b198116600160a91b179091556001600160a01b0316331461166f5760025460405163521eb56d60e11b81526101d79133916001600160a01b0390911690600401612a73565b600254600160a01b900460ff1660010361169c5760405163a45f47fd60e01b815260040160405180910390fd5b806001600160a01b03163b5f036116c85780604051631c7025f960e11b81526004016101d791906126c2565b306001600160a01b038216036116f35730604051631c7025f960e11b81526004016101d791906126c2565b6040516370a0823160e01b81525f906001600160a01b037f000000000000000000000000000000000000000000000000000000000000000016906370a08231906117419030906004016126c2565b602060405180830381865afa15801561175c573d5f5f3e3d5ffd5b505050506040513d601f19601f820116820180604052508101906117809190612d6c565b905080156118625760405163a9059cbb60e01b81525f906001600160a01b037f0000000000000000000000000000000000000000000000000000000000000000169063a9059cbb906117d89086908690600401613077565b6020604051808303815f875af11580156117f4573d5f5f3e3d5ffd5b505050506040513d601f19601f820116820180604052508101906118189190613090565b905080611860577f000000000000000000000000000000000000000000000000000000000000000030848460405163cd3f165960e01b81526004016101d79493929190612698565b505b600280546001600160a01b03191690556040518181526001600160a01b0383169033907f928fd5531324ee87d76cc5307dc37580174da76b85cd546da631b2670bc266b59060200160405180910390a35050565b6005546001600160a01b0316331461191c5760405162461bcd60e51b8152602060048201526024808201527f4e6f7420616c6c6f77656420746f207365742072656769737465726564207365604482015263373232b960e11b60648201526084016101d7565b61ffff9091165f90815260066020526040902055565b6002545f906001600160a81b90910460ff161115611963576040516345f5ce8b60e11b815260040160405180910390fd5b6002805460ff60a81b1916600160a91b17905582515f90819081906119919060209088018101908801613106565b5f81815260036020526040902054929550909350915060ff16156119cb576040516356bc34a160e01b8152600481018290526024016101d7565b5f818152600360205260408120805460ff19166001179055600254600160a01b900460ff16815b8551811015611e76575f868281518110611a0e57611a0e612af4565b602002602001015190505f868381518110611a2b57611a2b612af4565b602002602001015190505f82604051602401611a4791906126c2565b60408051601f198184030181529181526020820180516001600160e01b0316631eda94d760e01b179052519091505f9081906001600160a01b037f00000000000000000000000000000000000000000000000000000000000000001690611aaf9085906131d6565b5f604051808303815f865af19150503d805f8114611ae8576040519150601f19603f3d011682016040523d82523d5f602084013e611aed565b606091505b50915091505f828015611b01575081516020145b15611b1d5781806020019051810190611b1a9190612d6c565b90505b805f03611b84578d611b7957611b33858a613034565b9850856001600160a01b03167f29bd7fae5899787bb9cb5aa121b781bf47bb44cc44f0f3ddd1e1ea383acd22fb86604051611b7091815260200190565b60405180910390a25b505050505050611e6e565b80851115611bf3578d611bef575f611b9c8287612aa1565b9050611ba8818b613034565b9950866001600160a01b03167f29bd7fae5899787bb9cb5aa121b781bf47bb44cc44f0f3ddd1e1ea383acd22fb82604051611be591815260200190565b60405180910390a2505b8094505b611bfd858e613034565b9c505f7f00000000000000000000000000000000000000000000000000000000000000006001600160a01b03166370a08231306040518263ffffffff1660e01b8152600401611c4c91906126c2565b602060405180830381865afa158015611c67573d5f5f3e3d5ffd5b505050506040513d601f19601f82011682018060405250810190611c8b9190612d6c565b9050858110158015611c9d5750886001145b15611dcf5760405163095ea7b360e01b81526001600160a01b037f0000000000000000000000000000000000000000000000000000000000000000169063095ea7b390611cf0908a908a90600401613077565b6020604051808303815f875af1158015611d0c573d5f5f3e3d5ffd5b505050506040513d601f19601f82011682018060405250810190611d309190613090565b5060405163b6b55f2560e01b8152600481018790526001600160a01b0388169063b6b55f25906024015f604051808303815f87803b158015611d70575f5ffd5b505af1158015611d82573d5f5f3e3d5ffd5b505050508a876001600160a01b03167f22ab9fd8eb5063f7f3cb43c78f5d368aea9a51855ada00fa146687ef2c32198088604051611dc291815260200190565b60405180910390a3611e66565b5f87878d4630604051602001611de9959493929190613047565b60408051601f1981840301815282825280516020918201205f81815260048352839020805460ff191660011790558a84529083018590529082018c905291508c906001600160a01b038a169083907ff40f70fa5e98296d34577a11349caa5adf0d9cf9b6d416fd901de223c50d7a6c9060600160405180910390a4505b505050505050505b6001016119f2565b508115611e9357815f5f828254611e8d9190613034565b90915550505b50506002805460ff60a81b1916600160a81b1790555091949350505050565b5f7f00000000000000000000000000000000000000000000000000000000000000006001600160a01b0316639a8a05926040518163ffffffff1660e01b8152600401602060405180830381865afa158015611f0f573d5f5f3e3d5ffd5b505050506040513d601f19601f82011682018060405250810190611f339190612e49565b61ffff168361ffff1614611fd757604051630ff8f14360e11b815261ffff84166004820152602481018390527f00000000000000000000000000000000000000000000000000000000000000006001600160a01b031690631ff1e28690604401602060405180830381865afa158015611fae573d5f5f3e3d5ffd5b505050506040513d601f19601f82011682018060405250810190611fd291906131ec565b611fe0565b611fe0826124ee565b90505b92915050565b60408051600481526024810182526020810180516001600160e01b031663313ce56760e01b17905290515f9182916001600160a01b0385169161202b916131d6565b5f60405180830381855afa9150503d805f8114612063576040519150601f19603f3d011682016040523d82523d5f602084013e612068565b606091505b50915050808060200190518101906120809190613207565b9392505050565b5f8181526007602052604090205460ff16156120b9576040516356bc34a160e01b8152600481018290526024016101d7565b5f818152600760205260409020805460ff1916600117905561ffff82167f0000000000000000000000000000000000000000000000000000000000000000146121415760405163857c0bad60e01b815261ffff831660048201527f000000000000000000000000000000000000000000000000000000000000000060248201526044016101d7565b835160011461217057835160405163312b003360e01b81526004810191909152600160248201526044016101d7565b7f00000000000000000000000000000000000000000000000000000000000000006001600160a01b0316845f815181106121ac576121ac612af4565b6020026020010151604001516001600160a01b03161461222057835f815181106121d8576121d8612af4565b6020026020010151604001517f0000000000000000000000000000000000000000000000000000000000000000604051633b3a6e6760e11b81526004016101d7929190612a73565b82610def338288612519565b5f5f604084511461225d57835160408051631a64813d60e11b81526101d79290600401918252602082015260400190565b5f5f858060200190518101906122739190613220565b90925090506001600160a01b03821661229f5760405163d92e233d60e01b815260040160405180910390fd5b620493e08110156122b05750620493e05b621e84808111156122c15750621e84805b60405163c23ee3c360e01b815261ffff7f00000000000000000000000000000000000000000000000000000000000000001660048201525f6024820181905260448201839052907f00000000000000000000000000000000000000000000000000000000000000006001600160a01b03169063c23ee3c39060640160408051808303815f875af1158015612357573d5f5f3e3d5ffd5b505050506040513d601f19601f8201168201806040525081019061237b919061324c565b509050348111156123a85760405163491a2bb160e01b8152346004820152602481018290526044016101d7565b7f00000000000000000000000000000000000000000000000000000000000000006001600160a01b0316634b5ca6f4827f00000000000000000000000000000000000000000000000000000000000000007f00000000000000000000000000000000000000000000000000000000000000008c8b604051602001612436929190918252602082015260400190565b6040516020818303038152906040525f887f00000000000000000000000000000000000000000000000000000000000000008b6040518963ffffffff1660e01b815260040161248b979695949392919061326e565b60206040518083038185885af11580156124a7573d5f5f3e3d5ffd5b50505050506040513d601f19601f820116820180604052508101906124cc91906132ce565b6001600160401b031694506124e18134612aa1565b9350505050935093915050565b5f60a082901c156125155760405163033b960d60e41b8152600481018390526024016101d7565b5090565b7f00000000000000000000000000000000000000000000000000000000000000006001600160a01b0316836001600160a01b03161461258f57827f000000000000000000000000000000000000000000000000000000000000000060405163179888fd60e11b81526004016101d7929190612a73565b7f00000000000000000000000000000000000000000000000000000000000000006001600160a01b0316826001600160a01b03161461260557817f0000000000000000000000000000000000000000000000000000000000000000604051630d16cbdd60e01b81526004016101d7929190612a73565b7f00000000000000000000000000000000000000000000000000000000000000006001600160a01b03167f98bbde530ec85b002f6fb0864beccaaf3ac3d2a4ac35cb3b03cf7c61ee415e337f0000000000000000000000000000000000000000000000000000000000000000836040516126809291906132e7565b60405180910390a2612692815f611932565b50505050565b6001600160a01b039485168152928416602084015292166040820152606081019190915260800190565b6001600160a01b0391909116815260200190565b5f602082840312156126e6575f5ffd5b5035919050565b634e487b7160e01b5f52604160045260245ffd5b604051608081016001600160401b0381118282101715612723576127236126ed565b60405290565b60405161016081016001600160401b0381118282101715612723576127236126ed565b60405161010081016001600160401b0381118282101715612723576127236126ed565b604051601f8201601f191681016001600160401b0381118282101715612797576127976126ed565b604052919050565b5f6001600160401b038211156127b7576127b76126ed565b50601f01601f191660200190565b5f82601f8301126127d4575f5ffd5b81356127e76127e28261279f565b61276f565b8181528460208386010111156127fb575f5ffd5b816020850160208301375f918101602001919091529392505050565b8015158114612824575f5ffd5b50565b5f5f60408385031215612838575f5ffd5b82356001600160401b0381111561284d575f5ffd5b612859858286016127c5565b925050602083013561286a81612817565b809150509250929050565b5f6001600160401b0382111561288d5761288d6126ed565b5060051b60200190565b61ffff81168114612824575f5ffd5b80356128b181612897565b919050565b5f5f5f5f5f60a086880312156128ca575f5ffd5b85356001600160401b038111156128df575f5ffd5b6128eb888289016127c5565b95505060208601356001600160401b03811115612906575f5ffd5b8601601f81018813612916575f5ffd5b80356129246127e282612875565b8082825260208201915060208360051b85010192508a831115612945575f5ffd5b602084015b838110156129855780356001600160401b03811115612967575f5ffd5b6129768d6020838901016127c5565b8452506020928301920161294a565b5096505050506040860135925061299e606087016128a6565b949793965091946080013592915050565b5f602082840312156129bf575f5ffd5b81356001600160401b038111156129d4575f5ffd5b6129e0848285016127c5565b949350505050565b6001600160a01b0381168114612824575f5ffd5b5f5f5f60608486031215612a0e575f5ffd5b8335612a19816129e8565b95602085013595506040909401359392505050565b5f60208284031215612a3e575f5ffd5b8135612080816129e8565b5f5f60408385031215612a5a575f5ffd5b8235612a6581612897565b946020939093013593505050565b6001600160a01b0392831681529116602082015260400190565b634e487b7160e01b5f52601160045260245ffd5b81810381811115611fe357611fe3612a8d565b5f81518084528060208401602086015e5f602082860101526020601f19601f83011685010191505092915050565b602081525f611fe06020830184612ab4565b634e487b7160e01b5f52603260045260245ffd5b805160ff811681146128b1575f5ffd5b805163ffffffff811681146128b1575f5ffd5b80516128b181612897565b80516001600160401b03811681146128b1575f5ffd5b5f82601f830112612b5b575f5ffd5b8151612b696127e28261279f565b818152846020838601011115612b7d575f5ffd5b8160208501602083015e5f918101602001919091529392505050565b5f82601f830112612ba8575f5ffd5b8151612bb66127e282612875565b8082825260208201915060208360071b860101925085831115612bd7575f5ffd5b602085015b83811015612c3b5760808188031215612bf3575f5ffd5b612bfb612701565b8151815260208083015190820152612c1560408301612b08565b6040820152612c2660608301612b08565b60608201528352602090920191608001612bdc565b5095945050505050565b5f60208284031215612c55575f5ffd5b81516001600160401b03811115612c6a575f5ffd5b82016101608185031215612c7c575f5ffd5b612c84612729565b612c8d82612b08565b8152612c9b60208301612b18565b6020820152612cac60408301612b18565b6040820152612cbd60608301612b2b565b606082015260808281015190820152612cd860a08301612b36565b60a0820152612ce960c08301612b08565b60c082015260e08201516001600160401b03811115612d06575f5ffd5b612d1286828501612b4c565b60e083015250612d256101008301612b18565b6101008201526101208201516001600160401b03811115612d44575f5ffd5b612d5086828501612b99565b6101208301525061014091820151918101919091529392505050565b5f60208284031215612d7c575f5ffd5b5051919050565b5f60208284031215612d93575f5ffd5b81516001600160401b03811115612da8575f5ffd5b82016101008185031215612dba575f5ffd5b612dc261274c565b612dcb82612b08565b81526020828101519082015260408083015190820152612ded60608301612b2b565b606082015260808281015190820152612e0860a08301612b2b565b60a082015260c0828101519082015260e08201516001600160401b03811115612e2f575f5ffd5b612e3b86828501612b4c565b60e083015250949350505050565b5f60208284031215612e59575f5ffd5b815161208081612897565b5f60208284031215612e74575f5ffd5b81516001600160401b03811115612e89575f5ffd5b6129e084828501612b4c565b60ff8281168282160390811115611fe357611fe3612a8d565b6001815b6001841115612ee957808504811115612ecd57612ecd612a8d565b6001841615612edb57908102905b60019390931c928002612eb2565b935093915050565b5f82612eff57506001611fe3565b81612f0b57505f611fe3565b8160018114612f215760028114612f2b57612f47565b6001915050611fe3565b60ff841115612f3c57612f3c612a8d565b50506001821b611fe3565b5060208310610133831016604e8410600b8410161715612f6a575081810a611fe3565b612f765f198484612eae565b805f1904821115612f8957612f89612a8d565b029392505050565b5f611fe060ff841683612ef1565b8082028115828204841417611fe357611fe3612a8d565b634e487b7160e01b5f52601260045260245ffd5b5f6001600160401b03831680612fe257612fe2612fb6565b806001600160401b0384160491505092915050565b6001600160401b038281168282160390811115611fe357611fe3612a8d565b5f611fe08383612ef1565b5f8261302f5761302f612fb6565b500490565b80820180821115611fe357611fe3612a8d565b6001600160a01b039586168152602081019490945260408401929092526060830152909116608082015260a00190565b6001600160a01b03929092168252602082015260400190565b5f602082840312156130a0575f5ffd5b815161208081612817565b5f82601f8301126130ba575f5ffd5b81516130c86127e282612875565b8082825260208201915060208360051b8601019250858311156130e9575f5ffd5b602085015b83811015612c3b5780518352602092830192016130ee565b5f5f5f60608486031215613118575f5ffd5b83516001600160401b0381111561312d575f5ffd5b8401601f8101861361313d575f5ffd5b805161314b6127e282612875565b8082825260208201915060208360051b85010192508883111561316c575f5ffd5b6020840193505b82841015613197578351613186816129e8565b825260209384019390910190613173565b8096505050505060208401516001600160401b038111156131b6575f5ffd5b6131c2868287016130ab565b604095909501519396949550929392505050565b5f82518060208501845e5f920191825250919050565b5f602082840312156131fc575f5ffd5b8151612080816129e8565b5f60208284031215613217575f5ffd5b611fe082612b08565b5f5f60408385031215613231575f5ffd5b825161323c816129e8565b6020939093015192949293505050565b5f5f6040838503121561325d575f5ffd5b505080516020909101519092909150565b61ffff881681526001600160a01b038716602082015260e0604082018190525f9061329b90830188612ab4565b606083019690965250608081019390935261ffff9190911660a08301526001600160a01b031660c0909101529392505050565b5f602082840312156132de575f5ffd5b611fe082612b36565b828152604060208201525f6129e06040830184612ab456fea2646970667358221220de8ba34ea866abcae561f20e8f18a6777402edf0297e620435e8b9187a9c7afe64736f6c634300081e0033","linkReferences":{}},"methodIdentifiers":{"BRIDGE_PAYLOAD_LENGTH()":"4ece6b17","MAX_CHAIN_ID()":"5bc105c0","MAX_GAS_LIMIT()":"e3f5aa51","MIN_GAS_LIMIT()":"7ce1ffeb","RECEIVE_MESSAGE()":"54d20cc2","changeOwner(address)":"a6f9dae1","drain()":"9890220b","getBridgingDecimals()":"a8b2ae02","l1DepositProcessor()":"256359a8","l1SourceChainId()":"9b7bb847","l2MessageRelayer()":"1bad5957","mapDeliveryHashes(bytes32)":"446a9695","migrate(address)":"ce5494bb","olas()":"0031d115","owner()":"8da5cb5b","pause()":"8456cb59","paused()":"5c975abb","processDataMaintenance(bytes,bool)":"4fa65958","processedHashes(bytes32)":"07d9c534","queuedHashes(bytes32)":"1b2e7f0a","receiveWormholeMessages(bytes,bytes[],bytes32,uint16,bytes32)":"529dca32","redeem(address,uint256,bytes32)":"992c3e4b","setRegisteredSender(uint16,bytes32)":"dd12d68b","stakingBatchNonce()":"f4427c2c","stakingFactory()":"29134768","syncWithheldAmount(bytes)":"7424ddc8","tokenBridge()":"c6328a46","unpause()":"3f4ba83a","updateWithheldAmountMaintenance(uint256)":"32cbdd21","withheldAmount()":"5a7287cf","wormhole()":"84acd1bb","wormholeRelayer()":"da25b725"},"id":35}