{"abi":[{"type":"constructor","inputs":[{"name":"_olas","type":"address","internalType":"address"},{"name":"_l1Dispenser","type":"address","internalType":"address"},{"name":"_l1TokenRelayer","type":"address","internalType":"address"},{"name":"_l1MessageRelayer","type":"address","internalType":"address"},{"name":"_l2TargetChainId","type":"uint256","internalType":"uint256"},{"name":"_wormholeCore","type":"address","internalType":"address"},{"name":"_wormholeTargetChainId","type":"uint256","internalType":"uint256"}],"stateMutability":"nonpayable"},{"type":"function","name":"BRIDGE_PAYLOAD_LENGTH","inputs":[],"outputs":[{"name":"","type":"uint256","internalType":"uint256"}],"stateMutability":"view"},{"type":"function","name":"MAX_CHAIN_ID","inputs":[],"outputs":[{"name":"","type":"uint256","internalType":"uint256"}],"stateMutability":"view"},{"type":"function","name":"MESSAGE_GAS_LIMIT","inputs":[],"outputs":[{"name":"","type":"uint256","internalType":"uint256"}],"stateMutability":"view"},{"type":"function","name":"RECEIVE_MESSAGE","inputs":[],"outputs":[{"name":"","type":"bytes4","internalType":"bytes4"}],"stateMutability":"view"},{"type":"function","name":"TOKEN_GAS_LIMIT","inputs":[],"outputs":[{"name":"","type":"uint256","internalType":"uint256"}],"stateMutability":"view"},{"type":"function","name":"getBridgingDecimals","inputs":[],"outputs":[{"name":"","type":"uint256","internalType":"uint256"}],"stateMutability":"pure"},{"type":"function","name":"l1Dispenser","inputs":[],"outputs":[{"name":"","type":"address","internalType":"address"}],"stateMutability":"view"},{"type":"function","name":"l1MessageRelayer","inputs":[],"outputs":[{"name":"","type":"address","internalType":"address"}],"stateMutability":"view"},{"type":"function","name":"l1TokenRelayer","inputs":[],"outputs":[{"name":"","type":"address","internalType":"address"}],"stateMutability":"view"},{"type":"function","name":"l2TargetChainId","inputs":[],"outputs":[{"name":"","type":"uint256","internalType":"uint256"}],"stateMutability":"view"},{"type":"function","name":"l2TargetDispenser","inputs":[],"outputs":[{"name":"","type":"address","internalType":"address"}],"stateMutability":"view"},{"type":"function","name":"mapDeliveryHashes","inputs":[{"name":"","type":"bytes32","internalType":"bytes32"}],"outputs":[{"name":"","type":"bool","internalType":"bool"}],"stateMutability":"view"},{"type":"function","name":"olas","inputs":[],"outputs":[{"name":"","type":"address","internalType":"address"}],"stateMutability":"view"},{"type":"function","name":"owner","inputs":[],"outputs":[{"name":"","type":"address","internalType":"address"}],"stateMutability":"view"},{"type":"function","name":"processedHashes","inputs":[{"name":"","type":"bytes32","internalType":"bytes32"}],"outputs":[{"name":"","type":"bool","internalType":"bool"}],"stateMutability":"view"},{"type":"function","name":"receiveWormholeMessages","inputs":[{"name":"data","type":"bytes","internalType":"bytes"},{"name":"","type":"bytes[]","internalType":"bytes[]"},{"name":"sourceAddress","type":"bytes32","internalType":"bytes32"},{"name":"sourceChain","type":"uint16","internalType":"uint16"},{"name":"deliveryHash","type":"bytes32","internalType":"bytes32"}],"outputs":[],"stateMutability":"nonpayable"},{"type":"function","name":"sendMessage","inputs":[{"name":"target","type":"address","internalType":"address"},{"name":"stakingIncentive","type":"uint256","internalType":"uint256"},{"name":"bridgePayload","type":"bytes","internalType":"bytes"},{"name":"transferAmount","type":"uint256","internalType":"uint256"}],"outputs":[],"stateMutability":"payable"},{"type":"function","name":"sendMessageBatch","inputs":[{"name":"targets","type":"address[]","internalType":"address[]"},{"name":"stakingIncentives","type":"uint256[]","internalType":"uint256[]"},{"name":"bridgePayload","type":"bytes","internalType":"bytes"},{"name":"transferAmount","type":"uint256","internalType":"uint256"}],"outputs":[],"stateMutability":"payable"},{"type":"function","name":"setL2TargetDispenser","inputs":[{"name":"l2Dispenser","type":"address","internalType":"address"}],"outputs":[],"stateMutability":"nonpayable"},{"type":"function","name":"setRegisteredSender","inputs":[{"name":"sourceChain","type":"uint16","internalType":"uint16"},{"name":"sourceAddress","type":"bytes32","internalType":"bytes32"}],"outputs":[],"stateMutability":"nonpayable"},{"type":"function","name":"stakingBatchNonce","inputs":[],"outputs":[{"name":"","type":"uint256","internalType":"uint256"}],"stateMutability":"view"},{"type":"function","name":"tokenBridge","inputs":[],"outputs":[{"name":"","type":"address","internalType":"contract ITokenBridge"}],"stateMutability":"view"},{"type":"function","name":"updateHashMaintenance","inputs":[{"name":"batchHash","type":"bytes32","internalType":"bytes32"}],"outputs":[],"stateMutability":"nonpayable"},{"type":"function","name":"wormhole","inputs":[],"outputs":[{"name":"","type":"address","internalType":"contract IWormhole"}],"stateMutability":"view"},{"type":"function","name":"wormholeRelayer","inputs":[],"outputs":[{"name":"","type":"address","internalType":"contract IWormholeRelayer"}],"stateMutability":"view"},{"type":"function","name":"wormholeTargetChainId","inputs":[],"outputs":[{"name":"","type":"uint256","internalType":"uint256"}],"stateMutability":"view"},{"type":"event","name":"L2TargetDispenserUpdated","inputs":[{"name":"l2TargetDispenser","type":"address","indexed":true,"internalType":"address"}],"anonymous":false},{"type":"event","name":"LeftoversRefunded","inputs":[{"name":"sender","type":"address","indexed":true,"internalType":"address"},{"name":"leftovers","type":"uint256","indexed":false,"internalType":"uint256"}],"anonymous":false},{"type":"event","name":"MessagePosted","inputs":[{"name":"sequence","type":"uint256","indexed":true,"internalType":"uint256"},{"name":"targets","type":"address[]","indexed":false,"internalType":"address[]"},{"name":"stakingIncentives","type":"uint256[]","indexed":false,"internalType":"uint256[]"},{"name":"transferAmount","type":"uint256","indexed":false,"internalType":"uint256"},{"name":"batchHash","type":"bytes32","indexed":true,"internalType":"bytes32"}],"anonymous":false},{"type":"event","name":"MessageReceived","inputs":[{"name":"l1Relayer","type":"address","indexed":true,"internalType":"address"},{"name":"chainId","type":"uint256","indexed":true,"internalType":"uint256"},{"name":"data","type":"bytes","indexed":false,"internalType":"bytes"}],"anonymous":false},{"type":"error","name":"AlreadyDelivered","inputs":[{"name":"deliveryHash","type":"bytes32","internalType":"bytes32"}]},{"type":"error","name":"IncorrectDataLength","inputs":[{"name":"expected","type":"uint256","internalType":"uint256"},{"name":"provided","type":"uint256","internalType":"uint256"}]},{"type":"error","name":"InsufficientBalance","inputs":[{"name":"provided","type":"uint256","internalType":"uint256"},{"name":"expected","type":"uint256","internalType":"uint256"}]},{"type":"error","name":"LowerThan","inputs":[{"name":"provided","type":"uint256","internalType":"uint256"},{"name":"expected","type":"uint256","internalType":"uint256"}]},{"type":"error","name":"ManagerOnly","inputs":[{"name":"sender","type":"address","internalType":"address"},{"name":"manager","type":"address","internalType":"address"}]},{"type":"error","name":"Overflow","inputs":[{"name":"provided","type":"uint256","internalType":"uint256"},{"name":"max","type":"uint256","internalType":"uint256"}]},{"type":"error","name":"OwnerOnly","inputs":[{"name":"sender","type":"address","internalType":"address"},{"name":"owner","type":"address","internalType":"address"}]},{"type":"error","name":"Paused","inputs":[]},{"type":"error","name":"ReentrancyGuard","inputs":[]},{"type":"error","name":"TargetAmountNotQueued","inputs":[{"name":"target","type":"address","internalType":"address"},{"name":"amount","type":"uint256","internalType":"uint256"},{"name":"batchHash","type":"bytes32","internalType":"bytes32"}]},{"type":"error","name":"TargetRelayerOnly","inputs":[{"name":"provided","type":"address","internalType":"address"},{"name":"expected","type":"address","internalType":"address"}]},{"type":"error","name":"TransferFailed","inputs":[{"name":"token","type":"address","internalType":"address"},{"name":"from","type":"address","internalType":"address"},{"name":"to","type":"address","internalType":"address"},{"name":"amount","type":"uint256","internalType":"uint256"}]},{"type":"error","name":"Unpaused","inputs":[]},{"type":"error","name":"WrongAccount","inputs":[{"name":"account","type":"address","internalType":"address"}]},{"type":"error","name":"WrongAmount","inputs":[{"name":"provided","type":"uint256","internalType":"uint256"},{"name":"expected","type":"uint256","internalType":"uint256"}]},{"type":"error","name":"WrongChainId","inputs":[{"name":"provided","type":"uint256","internalType":"uint256"},{"name":"expected","type":"uint256","internalType":"uint256"}]},{"type":"error","name":"WrongMessageSender","inputs":[{"name":"provided","type":"address","internalType":"address"},{"name":"expected","type":"address","internalType":"address"}]},{"type":"error","name":"WrongTokenAddress","inputs":[{"name":"provided","type":"address","internalType":"address"},{"name":"expected","type":"address","internalType":"address"}]},{"type":"error","name":"ZeroAddress","inputs":[]},{"type":"error","name":"ZeroValue","inputs":[]}],"bytecode":{"object":"0x6101a0604052348015610010575f5ffd5b506040516120fa3803806120fa83398101604081905261002f91610219565b83858382818b8b85848b6001600160a01b038416158061005657506001600160a01b038316155b8061006857506001600160a01b038216155b156100865760405163d92e233d60e01b815260040160405180910390fd5b805f036100a657604051637c946ed760e01b815260040160405180910390fd5b60246100ba60026001600160401b03610292565b6100c491906102cc565b6001600160401b0316811115610123578060246100e960026001600160401b03610292565b6100f391906102cc565b604051637ae5968560e01b815260048101929092526001600160401b031660248201526044015b60405180910390fd5b6001600160a01b0394851660805292841660a05290831660c052821660e0526101005260018054336001600160a01b031991821681179092559382166101205291811661014052600480549093169091179091559182166101605250831690506101a05760405163d92e233d60e01b815260040160405180910390fd5b805f036101c057604051637c946ed760e01b815260040160405180910390fd5b61ffff8111156101ee57604051637ae5968560e01b81526004810182905261ffff602482015260440161011a565b61018052506102fd945050505050565b80516001600160a01b0381168114610214575f5ffd5b919050565b5f5f5f5f5f5f5f60e0888a03121561022f575f5ffd5b610238886101fe565b9650610246602089016101fe565b9550610254604089016101fe565b9450610262606089016101fe565b6080890151909450925061027860a089016101fe565b91505f60c089015190508091505092959891949750929550565b5f6001600160401b038316806102b657634e487b7160e01b5f52601260045260245ffd5b6001600160401b03929092169190910492915050565b6001600160401b0382811682821603908111156102f757634e487b7160e01b5f52601160045260245ffd5b92915050565b60805160a05160c05160e0516101005161012051610140516101605161018051611ce96104115f395f81816102600152818161059a015281816105dc0152818161067001528181610f130152610ff401525f81816104a80152818161129b0152818161131801526114d601525f81816103cb01528181611347015261144501525f81816104db0152818161110f015261117c01525f818161047501528181610c390152610d0c01525f81816101ff01528181610b8101528181610bbb0152610f4d01525f61039801525f818161054b015281816106df0152818161070601528181610798015281816107bf015281816109b7015281816109de0152610d4801525f818161017101526110230152611ce95ff3fe60806040526004361061015c575f3560e01c80638da5cb5b116100be578063c6328a4611610078578063c6328a4614610497578063da25b725146104ca578063dd12d68b146104fd578063e309fb771461051c578063f2541c351461053a578063f4427c2c1461056d578063f9fc3c2114610582575f5ffd5b80638da5cb5b146103ed578063a8b2ae021461040c578063ac65ded21461041f578063b2267a7b1461043e578063bde5266114610451578063c23cc3ff14610464575f5ffd5b80634ece6b171161011a5780634ece6b17146102a6578063529dca32146102ba57806354d20cc2146102db57806354e4bbf4146103545780635bc105c0146103735780636143fe931461038757806384acd1bb146103ba575f5ffd5b806231d1151461016057806307d9c534146101b05780633d1f8679146101ee578063446a969514610221578063468b9dab1461024f5780634c1c6cbf14610290575b5f5ffd5b34801561016b575f5ffd5b506101937f000000000000000000000000000000000000000000000000000000000000000081565b6040516001600160a01b0390911681526020015b60405180910390f35b3480156101bb575f5ffd5b506101de6101ca366004611514565b60036020525f908152604090205460ff1681565b60405190151581526020016101a7565b3480156101f9575f5ffd5b506101937f000000000000000000000000000000000000000000000000000000000000000081565b34801561022c575f5ffd5b506101de61023b366004611514565b60066020525f908152604090205460ff1681565b34801561025a575f5ffd5b506102827f000000000000000000000000000000000000000000000000000000000000000081565b6040519081526020016101a7565b34801561029b575f5ffd5b50610282620493e081565b3480156102b1575f5ffd5b50610282604081565b3480156102c5575f5ffd5b506102d96102d436600461161b565b610598565b005b3480156102e6575f5ffd5b50604080518082019091526015815274726563656976654d6573736167652862797465732960581b60209091015261033b7ff953cec75ae677942d7cda5cb6d12c0cb96a0904bf37d36301eef297b83c411d81565b6040516001600160e01b031990911681526020016101a7565b34801561035f575f5ffd5b506102d961036e36600461172d565b61066b565b34801561037e575f5ffd5b506102826106aa565b348015610392575f5ffd5b506101937f000000000000000000000000000000000000000000000000000000000000000081565b3480156103c5575f5ffd5b506101937f000000000000000000000000000000000000000000000000000000000000000081565b3480156103f8575f5ffd5b50600154610193906001600160a01b031681565b348015610417575f5ffd5b506008610282565b34801561042a575f5ffd5b506102d9610439366004611514565b6106d4565b6102d961044c36600461174f565b61078d565b6102d961045f366004611810565b6109ac565b34801561046f575f5ffd5b506102827f000000000000000000000000000000000000000000000000000000000000000081565b3480156104a2575f5ffd5b506101937f000000000000000000000000000000000000000000000000000000000000000081565b3480156104d5575f5ffd5b506101937f000000000000000000000000000000000000000000000000000000000000000081565b348015610508575f5ffd5b506102d96105173660046118e6565b610b03565b348015610527575f5ffd5b505f54610193906001600160a01b031681565b348015610545575f5ffd5b506101937f000000000000000000000000000000000000000000000000000000000000000081565b348015610578575f5ffd5b5061028260025481565b34801561058d575f5ffd5b50610282621e848081565b7f00000000000000000000000000000000000000000000000000000000000000008261ffff161461060d5760405163857c0bad60e01b815261ffff831660048201527f000000000000000000000000000000000000000000000000000000000000000060248201526044015b60405180910390fd5b5f8181526006602052604090205460ff161561063f576040516356bc34a160e01b815260048101829052602401610604565b5f818152600660205260409020805460ff1916600117905582610663338288610b7f565b505050505050565b61069e7f00000000000000000000000000000000000000000000000000000000000000006001600160a01b038316610b03565b6106a781610da6565b50565b60246106be60026001600160401b03611924565b6106c8919061195d565b6001600160401b031681565b336001600160a01b037f00000000000000000000000000000000000000000000000000000000000000001614610741577f00000000000000000000000000000000000000000000000000000000000000003360405163312d21ff60e11b8152600401610604929190611982565b5f8181526003602052604090205460ff1615610773576040516356bc34a160e01b815260048101829052602401610604565b5f908152600360205260409020805460ff19166001179055565b336001600160a01b037f000000000000000000000000000000000000000000000000000000000000000016146107fa577f00000000000000000000000000000000000000000000000000000000000000003360405163312d21ff60e11b8152600401610604929190611982565b6040805160018082528183019092525f916020808301908036833701905050905084815f8151811061082e5761082e61199c565b6001600160a01b0392909216602092830291909101909101526040805160018082528183019092525f9181602001602082028036833701905050905084815f8151811061087d5761087d61199c565b6020026020010181815250505f60025490505f8146306040516020016108a5939291906119b0565b6040516020818303038152906040528051906020012090505f5f6108cc86868a8a87610e59565b9092509050801561095257604051329082905f81818185875af1925050503d805f8114610914576040519150601f19603f3d011682016040523d82523d5f602084013e610919565b606091505b50506040518281523291507f8e49ed3e274fbea1556bdfaa9a37a0c28445bfe26d57beaf9f04fd517aa417419060200160405180910390a25b61095d8460016119cf565b60028190555082827f621aece9999edf4d664a3855f668f6fc380937a42044234fd883b42d0485118788888b60405161099893929190611a55565b60405180910390a350505050505050505050565b336001600160a01b037f00000000000000000000000000000000000000000000000000000000000000001614610a19577f00000000000000000000000000000000000000000000000000000000000000003360405163312d21ff60e11b8152600401610604929190611982565b6002546040515f90610a33908390469030906020016119b0565b6040516020818303038152906040528051906020012090505f5f610a5a8888888887610e59565b90925090508015610aab57604051329082905f81818185875af1925050503d805f8114610aa2576040519150601f19603f3d011682016040523d82523d5f602084013e610aa7565b606091505b5050505b610ab68460016119cf565b60028190555082827f621aece9999edf4d664a3855f668f6fc380937a42044234fd883b42d048511878a8a89604051610af193929190611a55565b60405180910390a35050505050505050565b6004546001600160a01b03163314610b695760405162461bcd60e51b8152602060048201526024808201527f4e6f7420616c6c6f77656420746f207365742072656769737465726564207365604482015263373232b960e11b6064820152608401610604565b61ffff9091165f90815260056020526040902055565b7f00000000000000000000000000000000000000000000000000000000000000006001600160a01b0316836001600160a01b031614610bf557337f000000000000000000000000000000000000000000000000000000000000000060405163179888fd60e11b8152600401610604929190611982565b5f546001600160a01b03838116911614610c32575f54604051630d16cbdd60e01b81526106049184916001600160a01b0390911690600401611982565b5f546040517f0000000000000000000000000000000000000000000000000000000000000000916001600160a01b0316907f98bbde530ec85b002f6fb0864beccaaf3ac3d2a4ac35cb3b03cf7c61ee415e3390610c90908590611ab8565b60405180910390a35f5f82806020019051810190610cae9190611aca565b5f81815260036020526040902054919350915060ff1615610ce5576040516356bc34a160e01b815260048101829052602401610604565b5f8181526003602052604090819020805460ff19166001179055516379bc81dd60e01b81527f0000000000000000000000000000000000000000000000000000000000000000600482015260248101839052604481018290526001600160a01b037f000000000000000000000000000000000000000000000000000000000000000016906379bc81dd906064015f604051808303815f87803b158015610d89575f5ffd5b505af1158015610d9b573d5f5f3e3d5ffd5b505050505050505050565b6001546001600160a01b03163314610de05760015460405163521eb56d60e11b8152610604916001600160a01b0316903390600401611982565b6001600160a01b038116610e075760405163d92e233d60e01b815260040160405180910390fd5b5f80546001600160a01b0383166001600160a01b0319918216811783556001805490921690915560405190917f991aa5c8f67a92f8feb202de828958c681966ae343fcf6db040f5f8099d547cf91a250565b5f5f6040855114610e8a57845160408051631a64813d60e11b81526106049290600401918252602082015260400190565b5f5f86806020019051810190610ea09190611aec565b90925090506001600160a01b038216610ecc5760405163d92e233d60e01b815260040160405180910390fd5b621e8480811015610edd5750621e84805b5f898987604051602001610ef393929190611a55565b60408051808303601f190181529082905263c23ee3c360e01b825261ffff7f00000000000000000000000000000000000000000000000000000000000000001660048301525f6024830181905260448301859052909250907f00000000000000000000000000000000000000000000000000000000000000006001600160a01b03169063c23ee3c39060640160408051808303815f875af1158015610f9a573d5f5f3e3d5ffd5b505050506040513d601f19601f82011682018060405250810190610fbe9190611aca565b50905034811115610feb5760405163491a2bb160e01b815234600482015260248101829052604401610604565b5f805461104a917f0000000000000000000000000000000000000000000000000000000000000000916001600160a01b0316908590877f00000000000000000000000000000000000000000000000000000000000000008e868c61106f565b6001600160401b0316955061105f8134611b18565b9450505050509550959350505050565b6040805160018082528183019092525f91829190816020015b604080516060810182525f80825260208083018290529282015282525f199092019101816110885790505090506110c186868d8d611228565b815f815181106110d3576110d361199c565b602090810291909101015260405163c23ee3c360e01b815261ffff8c16600482015260248101899052604481018890525f906001600160a01b037f0000000000000000000000000000000000000000000000000000000000000000169063c23ee3c3906064016040805180830381865afa158015611153573d5f5f3e3d5ffd5b505050506040513d601f19601f820116820180604052508101906111779190611aca565b5090507f00000000000000000000000000000000000000000000000000000000000000006001600160a01b03166332b2fc0e828e8e8e8e8e898d8d6040518a63ffffffff1660e01b81526004016111d5989796959493929190611b2b565b60206040518083038185885af11580156111f1573d5f5f3e3d5ffd5b50505050506040513d601f19601f820116820180604052508101906112169190611bee565b925050505b9998505050505050505050565b604080516060810182525f808252602082018190529181019190915261125f8585858560405180602001604052805f815250611268565b95945050505050565b604080516060810182525f808252602082018190529181019190915260405163095ea7b360e01b81526001600160a01b037f0000000000000000000000000000000000000000000000000000000000000000811660048301526024820187905287169063095ea7b3906044016020604051808303815f875af11580156112f0573d5f5f3e3d5ffd5b505050506040513d601f19601f820116820180604052508101906113149190611c14565b505f7f00000000000000000000000000000000000000000000000000000000000000006001600160a01b031663c5a5ebda7f00000000000000000000000000000000000000000000000000000000000000006001600160a01b0316631a90a2196040518163ffffffff1660e01b8152600401602060405180830381865afa1580156113a1573d5f5f3e3d5ffd5b505050506040513d601f19601f820116820180604052508101906113c59190611c33565b8989896001600160a01b038a165f8a6040518863ffffffff1660e01b81526004016113f596959493929190611c4a565b60206040518083038185885af1158015611411573d5f5f3e3d5ffd5b50505050506040513d601f19601f820116820180604052508101906114369190611bee565b905060405180606001604052807f00000000000000000000000000000000000000000000000000000000000000006001600160a01b0316639a8a05926040518163ffffffff1660e01b8152600401602060405180830381865afa15801561149f573d5f5f3e3d5ffd5b505050506040513d601f19601f820116820180604052508101906114c39190611c98565b61ffff1681526020016001600160a01b037f0000000000000000000000000000000000000000000000000000000000000000168152602001826001600160401b031681525091505095945050505050565b5f60208284031215611524575f5ffd5b5035919050565b634e487b7160e01b5f52604160045260245ffd5b604051601f8201601f191681016001600160401b03811182821017156115675761156761152b565b604052919050565b5f82601f83011261157e575f5ffd5b81356001600160401b038111156115975761159761152b565b6115aa601f8201601f191660200161153f565b8181528460208386010111156115be575f5ffd5b816020850160208301375f918101602001919091529392505050565b5f6001600160401b038211156115f2576115f261152b565b5060051b60200190565b61ffff811681146106a7575f5ffd5b8035611616816115fc565b919050565b5f5f5f5f5f60a0868803121561162f575f5ffd5b85356001600160401b03811115611644575f5ffd5b6116508882890161156f565b95505060208601356001600160401b0381111561166b575f5ffd5b8601601f8101881361167b575f5ffd5b803561168e611689826115da565b61153f565b8082825260208201915060208360051b85010192508a8311156116af575f5ffd5b602084015b838110156116ef5780356001600160401b038111156116d1575f5ffd5b6116e08d60208389010161156f565b845250602092830192016116b4565b509650505050604086013592506117086060870161160b565b949793965091946080013592915050565b6001600160a01b03811681146106a7575f5ffd5b5f6020828403121561173d575f5ffd5b813561174881611719565b9392505050565b5f5f5f5f60808587031215611762575f5ffd5b843561176d81611719565b93506020850135925060408501356001600160401b0381111561178e575f5ffd5b61179a8782880161156f565b949793965093946060013593505050565b5f82601f8301126117ba575f5ffd5b81356117c8611689826115da565b8082825260208201915060208360051b8601019250858311156117e9575f5ffd5b602085015b838110156118065780358352602092830192016117ee565b5095945050505050565b5f5f5f5f60808587031215611823575f5ffd5b84356001600160401b03811115611838575f5ffd5b8501601f81018713611848575f5ffd5b8035611856611689826115da565b8082825260208201915060208360051b850101925089831115611877575f5ffd5b6020840193505b828410156118a257833561189181611719565b82526020938401939091019061187e565b965050505060208501356001600160401b038111156118bf575f5ffd5b6118cb878288016117ab565b93505060408501356001600160401b0381111561178e575f5ffd5b5f5f604083850312156118f7575f5ffd5b8235611902816115fc565b946020939093013593505050565b634e487b7160e01b5f52601160045260245ffd5b5f6001600160401b0383168061194857634e487b7160e01b5f52601260045260245ffd5b806001600160401b0384160491505092915050565b6001600160401b03828116828216039081111561197c5761197c611910565b92915050565b6001600160a01b0392831681529116602082015260400190565b634e487b7160e01b5f52603260045260245ffd5b92835260208301919091526001600160a01b0316604082015260600190565b8082018082111561197c5761197c611910565b5f8151808452602084019350602083015f5b82811015611a1b5781516001600160a01b03168652602095860195909101906001016119f4565b5093949350505050565b5f8151808452602084019350602083015f5b82811015611a1b578151865260209586019590910190600101611a37565b606081525f611a6760608301866119e2565b8281036020840152611a798186611a25565b915050826040830152949350505050565b5f81518084528060208401602086015e5f602082860101526020601f19601f83011685010191505092915050565b602081525f6117486020830184611a8a565b5f5f60408385031215611adb575f5ffd5b505080516020909101519092909150565b5f5f60408385031215611afd575f5ffd5b8251611b0881611719565b6020939093015192949293505050565b8181038181111561197c5761197c611910565b61ffff891681526001600160a01b0388166020820152610100604082018190525f90611b5990830189611a8a565b606083018890526080830187905282810360a0840152855180825260208088019201905f5b81811015611bc557835161ffff8151168452602081015160208501526001600160401b03604082015116604085015250606083019250602084019350600181019050611b7e565b505061ffff861660c08501529150611bda9050565b6001600160a01b03831660e083015261121b565b5f60208284031215611bfe575f5ffd5b81516001600160401b0381168114611748575f5ffd5b5f60208284031215611c24575f5ffd5b81518015158114611748575f5ffd5b5f60208284031215611c43575f5ffd5b5051919050565b60018060a01b038716815285602082015261ffff8516604082015283606082015263ffffffff8316608082015260c060a08201525f611c8c60c0830184611a8a565b98975050505050505050565b5f60208284031215611ca8575f5ffd5b8151611748816115fc56fea2646970667358221220bc53efe31ca506c31eedaa097317dbb6389d25c347886fff680c47c1e55030c064736f6c634300081e0033","linkReferences":{}},"methodIdentifiers":{"BRIDGE_PAYLOAD_LENGTH()":"4ece6b17","MAX_CHAIN_ID()":"5bc105c0","MESSAGE_GAS_LIMIT()":"f9fc3c21","RECEIVE_MESSAGE()":"54d20cc2","TOKEN_GAS_LIMIT()":"4c1c6cbf","getBridgingDecimals()":"a8b2ae02","l1Dispenser()":"f2541c35","l1MessageRelayer()":"3d1f8679","l1TokenRelayer()":"6143fe93","l2TargetChainId()":"c23cc3ff","l2TargetDispenser()":"e309fb77","mapDeliveryHashes(bytes32)":"446a9695","olas()":"0031d115","owner()":"8da5cb5b","processedHashes(bytes32)":"07d9c534","receiveWormholeMessages(bytes,bytes[],bytes32,uint16,bytes32)":"529dca32","sendMessage(address,uint256,bytes,uint256)":"b2267a7b","sendMessageBatch(address[],uint256[],bytes,uint256)":"bde52661","setL2TargetDispenser(address)":"54e4bbf4","setRegisteredSender(uint16,bytes32)":"dd12d68b","stakingBatchNonce()":"f4427c2c","tokenBridge()":"c6328a46","updateHashMaintenance(bytes32)":"ac65ded2","wormhole()":"84acd1bb","wormholeRelayer()":"da25b725","wormholeTargetChainId()":"468b9dab"},"id":34}