{
  "_format": "hh-sol-artifact-1",
  "contractName": "DonatorBlacklist",
  "sourceName": "contracts/DonatorBlacklist.sol",
  "abi": [
    {
      "inputs": [],
      "stateMutability": "nonpayable",
      "type": "constructor"
    },
    {
      "inputs": [
        {
          "internalType": "address",
          "name": "sender",
          "type": "address"
        },
        {
          "internalType": "address",
          "name": "owner",
          "type": "address"
        }
      ],
      "name": "OwnerOnly",
      "type": "error"
    },
    {
      "inputs": [
        {
          "internalType": "uint256",
          "name": "numValues1",
          "type": "uint256"
        },
        {
          "internalType": "uint256",
          "name": "numValues2",
          "type": "uint256"
        }
      ],
      "name": "WrongArrayLength",
      "type": "error"
    },
    {
      "inputs": [],
      "name": "ZeroAddress",
      "type": "error"
    },
    {
      "anonymous": false,
      "inputs": [
        {
          "indexed": true,
          "internalType": "address",
          "name": "account",
          "type": "address"
        },
        {
          "indexed": false,
          "internalType": "bool",
          "name": "status",
          "type": "bool"
        }
      ],
      "name": "DonatorBlacklistStatus",
      "type": "event"
    },
    {
      "anonymous": false,
      "inputs": [
        {
          "indexed": true,
          "internalType": "address",
          "name": "owner",
          "type": "address"
        }
      ],
      "name": "OwnerUpdated",
      "type": "event"
    },
    {
      "inputs": [
        {
          "internalType": "address",
          "name": "newOwner",
          "type": "address"
        }
      ],
      "name": "changeOwner",
      "outputs": [],
      "stateMutability": "nonpayable",
      "type": "function"
    },
    {
      "inputs": [
        {
          "internalType": "address",
          "name": "account",
          "type": "address"
        }
      ],
      "name": "isDonatorBlacklisted",
      "outputs": [
        {
          "internalType": "bool",
          "name": "status",
          "type": "bool"
        }
      ],
      "stateMutability": "view",
      "type": "function"
    },
    {
      "inputs": [
        {
          "internalType": "address",
          "name": "",
          "type": "address"
        }
      ],
      "name": "mapBlacklistedDonators",
      "outputs": [
        {
          "internalType": "bool",
          "name": "",
          "type": "bool"
        }
      ],
      "stateMutability": "view",
      "type": "function"
    },
    {
      "inputs": [],
      "name": "owner",
      "outputs": [
        {
          "internalType": "address",
          "name": "",
          "type": "address"
        }
      ],
      "stateMutability": "view",
      "type": "function"
    },
    {
      "inputs": [
        {
          "internalType": "address[]",
          "name": "accounts",
          "type": "address[]"
        },
        {
          "internalType": "bool[]",
          "name": "statuses",
          "type": "bool[]"
        }
      ],
      "name": "setDonatorsStatuses",
      "outputs": [
        {
          "internalType": "bool",
          "name": "success",
          "type": "bool"
        }
      ],
      "stateMutability": "nonpayable",
      "type": "function"
    }
  ],
  "bytecode": "0x608060405234801561001057600080fd5b50600080546001600160a01b031916331790556107d5806100326000396000f3fe608060405234801561001057600080fd5b50600436106100675760003560e01c80639b94bd1a116100505780639b94bd1a146100d9578063a6f9dae1146100fc578063d874310e1461011157600080fd5b80638da5cb5b1461006c578063901bfb72146100b6575b600080fd5b60005461008c9073ffffffffffffffffffffffffffffffffffffffff1681565b60405173ffffffffffffffffffffffffffffffffffffffff90911681526020015b60405180910390f35b6100c96100c436600461062f565b61014a565b60405190151581526020016100ad565b6100c96100e73660046106ef565b60016020526000908152604090205460ff1681565b61010f61010a3660046106ef565b6103bd565b005b6100c961011f3660046106ef565b73ffffffffffffffffffffffffffffffffffffffff1660009081526001602052604090205460ff1690565b6000805473ffffffffffffffffffffffffffffffffffffffff1633146101c3576000546040517fa43d6ada00000000000000000000000000000000000000000000000000000000815233600482015273ffffffffffffffffffffffffffffffffffffffff90911660248201526044015b60405180910390fd5b815183511461020b57825182516040517f8151c110000000000000000000000000000000000000000000000000000000008152600481019290925260248201526044016101ba565b60005b83518110156103b357600073ffffffffffffffffffffffffffffffffffffffff1684828151811061024157610241610711565b602002602001015173ffffffffffffffffffffffffffffffffffffffff1603610296576040517fd92e233d00000000000000000000000000000000000000000000000000000000815260040160405180910390fd5b8281815181106102a8576102a8610711565b6020026020010151600160008684815181106102c6576102c6610711565b602002602001015173ffffffffffffffffffffffffffffffffffffffff1673ffffffffffffffffffffffffffffffffffffffff16815260200190815260200160002060006101000a81548160ff02191690831515021790555083818151811061033157610331610711565b602002602001015173ffffffffffffffffffffffffffffffffffffffff167f9077d7caaa2cf735ad7ae6f83ddd1587186b3cca0664708889da99ac9288a1b384838151811061038257610382610711565b602002602001015160405161039b911515815260200190565b60405180910390a26103ac81610740565b905061020e565b5060019392505050565b60005473ffffffffffffffffffffffffffffffffffffffff163314610430576000546040517fa43d6ada00000000000000000000000000000000000000000000000000000000815233600482015273ffffffffffffffffffffffffffffffffffffffff90911660248201526044016101ba565b73ffffffffffffffffffffffffffffffffffffffff811661047d576040517fd92e233d00000000000000000000000000000000000000000000000000000000815260040160405180910390fd5b600080547fffffffffffffffffffffffff00000000000000000000000000000000000000001673ffffffffffffffffffffffffffffffffffffffff8316908117825560405190917f4ffd725fc4a22075e9ec71c59edf9c38cdeb588a91b24fc5b61388c5be41282b91a250565b7f4e487b7100000000000000000000000000000000000000000000000000000000600052604160045260246000fd5b604051601f82017fffffffffffffffffffffffffffffffffffffffffffffffffffffffffffffffe016810167ffffffffffffffff81118282101715610560576105606104ea565b604052919050565b600067ffffffffffffffff821115610582576105826104ea565b5060051b60200190565b803573ffffffffffffffffffffffffffffffffffffffff811681146105b057600080fd5b919050565b600082601f8301126105c657600080fd5b813560206105db6105d683610568565b610519565b82815260059290921b840181019181810190868411156105fa57600080fd5b8286015b8481101561062457803580151581146106175760008081fd5b83529183019183016105fe565b509695505050505050565b6000806040838503121561064257600080fd5b823567ffffffffffffffff8082111561065a57600080fd5b818501915085601f83011261066e57600080fd5b8135602061067e6105d683610568565b82815260059290921b8401810191818101908984111561069d57600080fd5b948201945b838610156106c2576106b38661058c565b825294820194908201906106a2565b965050860135925050808211156106d857600080fd5b506106e5858286016105b5565b9150509250929050565b60006020828403121561070157600080fd5b61070a8261058c565b9392505050565b7f4e487b7100000000000000000000000000000000000000000000000000000000600052603260045260246000fd5b60007fffffffffffffffffffffffffffffffffffffffffffffffffffffffffffffffff8203610798577f4e487b7100000000000000000000000000000000000000000000000000000000600052601160045260246000fd5b506001019056fea26469706673582212207eff67b78c71aa021132d9793fa92110623822fddbddaf1d9d6cfd224509201164736f6c63430008120033",
  "linkReferences": {},
  "deployedLinkReferences": {}
}