{
  "_format": "hh-sol-artifact-1",
  "contractName": "GenericBondCalculator",
  "sourceName": "contracts/GenericBondCalculator.sol",
  "abi": [
    {
      "inputs": [
        {
          "internalType": "address",
          "name": "_olas",
          "type": "address"
        },
        {
          "internalType": "address",
          "name": "_tokenomics",
          "type": "address"
        }
      ],
      "stateMutability": "nonpayable",
      "type": "constructor"
    },
    {
      "inputs": [
        {
          "internalType": "uint256",
          "name": "provided",
          "type": "uint256"
        },
        {
          "internalType": "uint256",
          "name": "max",
          "type": "uint256"
        }
      ],
      "name": "Overflow",
      "type": "error"
    },
    {
      "inputs": [
        {
          "internalType": "uint256",
          "name": "x",
          "type": "uint256"
        },
        {
          "internalType": "uint256",
          "name": "y",
          "type": "uint256"
        },
        {
          "internalType": "uint256",
          "name": "denominator",
          "type": "uint256"
        }
      ],
      "name": "PRBMath_MulDiv_Overflow",
      "type": "error"
    },
    {
      "inputs": [],
      "name": "ZeroAddress",
      "type": "error"
    },
    {
      "inputs": [
        {
          "internalType": "uint256",
          "name": "tokenAmount",
          "type": "uint256"
        },
        {
          "internalType": "uint256",
          "name": "priceLP",
          "type": "uint256"
        }
      ],
      "name": "calculatePayoutOLAS",
      "outputs": [
        {
          "internalType": "uint256",
          "name": "amountOLAS",
          "type": "uint256"
        }
      ],
      "stateMutability": "view",
      "type": "function"
    },
    {
      "inputs": [
        {
          "internalType": "address",
          "name": "token",
          "type": "address"
        }
      ],
      "name": "getCurrentPriceLP",
      "outputs": [
        {
          "internalType": "uint256",
          "name": "priceLP",
          "type": "uint256"
        }
      ],
      "stateMutability": "view",
      "type": "function"
    },
    {
      "inputs": [],
      "name": "olas",
      "outputs": [
        {
          "internalType": "address",
          "name": "",
          "type": "address"
        }
      ],
      "stateMutability": "view",
      "type": "function"
    },
    {
      "inputs": [],
      "name": "tokenomics",
      "outputs": [
        {
          "internalType": "address",
          "name": "",
          "type": "address"
        }
      ],
      "stateMutability": "view",
      "type": "function"
    }
  ],
  "bytecode": "0x60c060405234801561001057600080fd5b5060405161095b38038061095b83398101604081905261002f9161009d565b6001600160a01b038216158061004c57506001600160a01b038116155b1561006a5760405163d92e233d60e01b815260040160405180910390fd5b6001600160a01b039182166080521660a0526100d0565b80516001600160a01b038116811461009857600080fd5b919050565b600080604083850312156100b057600080fd5b6100b983610081565b91506100c760208401610081565b90509250929050565b60805160a05161084c61010f6000396000818160c701526104a10152600081816055015281816102ed015281816103300152610385015261084c6000f3fe608060405234801561001057600080fd5b506004361061004b5760003560e01c806231d1151461005057806324415cf6146100a15780634ac7251d146100c25780637e5b0998146100e9575b600080fd5b6100777f000000000000000000000000000000000000000000000000000000000000000081565b60405173ffffffffffffffffffffffffffffffffffffffff90911681526020015b60405180910390f35b6100b46100af366004610680565b6100fc565b604051908152602001610098565b6100777f000000000000000000000000000000000000000000000000000000000000000081565b6100b46100f736600461069d565b610405565b60008082905060008173ffffffffffffffffffffffffffffffffffffffff166318160ddd6040518163ffffffff1660e01b8152600401602060405180830381865afa15801561014f573d6000803e3d6000fd5b505050506040513d601f19601f8201168201806040525081019061017391906106bf565b905080156103fe5760008273ffffffffffffffffffffffffffffffffffffffff16630dfe16816040518163ffffffff1660e01b8152600401602060405180830381865afa1580156101c8573d6000803e3d6000fd5b505050506040513d601f19601f820116820180604052508101906101ec91906106d8565b905060008373ffffffffffffffffffffffffffffffffffffffff1663d21220a76040518163ffffffff1660e01b8152600401602060405180830381865afa15801561023b573d6000803e3d6000fd5b505050506040513d601f19601f8201168201806040525081019061025f91906106d8565b90506000808573ffffffffffffffffffffffffffffffffffffffff16630902f1ac6040518163ffffffff1660e01b8152600401606060405180830381865afa1580156102af573d6000803e3d6000fd5b505050506040513d601f19601f820116820180604052508101906102d39190610718565b506dffffffffffffffffffffffffffff91821693501690507f000000000000000000000000000000000000000000000000000000000000000073ffffffffffffffffffffffffffffffffffffffff908116908516148061037e57507f000000000000000000000000000000000000000000000000000000000000000073ffffffffffffffffffffffffffffffffffffffff168373ffffffffffffffffffffffffffffffffffffffff16145b156103f9577f000000000000000000000000000000000000000000000000000000000000000073ffffffffffffffffffffffffffffffffffffffff168473ffffffffffffffffffffffffffffffffffffffff16036103d95750805b846103ec82670de0b6b3a7640000610768565b6103f691906107db565b96505b505050505b5050919050565b6000806104148385600161054a565b905077ffffffffffffffffffffffffffffffffffffffffffffffff81111561048e576040517f7ae596850000000000000000000000000000000000000000000000000000000081526004810182905277ffffffffffffffffffffffffffffffffffffffffffffffff60248201526044015b60405180910390fd5b6ec097ce7bc90715b34b9f1000000000817f000000000000000000000000000000000000000000000000000000000000000073ffffffffffffffffffffffffffffffffffffffff16633d1d195d6040518163ffffffff1660e01b8152600401602060405180830381865afa15801561050a573d6000803e3d6000fd5b505050506040513d601f19601f8201168201806040525081019061052e91906106bf565b6105389190610768565b61054291906107db565b949350505050565b600080807fffffffffffffffffffffffffffffffffffffffffffffffffffffffffffffffff858709858702925082811083820303915050806000036105a257838281610598576105986107ac565b0492505050610654565b8381106105ec576040517f63a05778000000000000000000000000000000000000000000000000000000008152600481018790526024810186905260448101859052606401610485565b600084868809851960019081018716968790049682860381900495909211909303600082900391909104909201919091029190911760038402600290811880860282030280860282030280860282030280860282030280860282030280860290910302029150505b9392505050565b73ffffffffffffffffffffffffffffffffffffffff8116811461067d57600080fd5b50565b60006020828403121561069257600080fd5b81356106548161065b565b600080604083850312156106b057600080fd5b50508035926020909101359150565b6000602082840312156106d157600080fd5b5051919050565b6000602082840312156106ea57600080fd5b81516106548161065b565b80516dffffffffffffffffffffffffffff8116811461071357600080fd5b919050565b60008060006060848603121561072d57600080fd5b610736846106f5565b9250610744602085016106f5565b9150604084015163ffffffff8116811461075d57600080fd5b809150509250925092565b80820281158282048414176107a6577f4e487b7100000000000000000000000000000000000000000000000000000000600052601160045260246000fd5b92915050565b7f4e487b7100000000000000000000000000000000000000000000000000000000600052601260045260246000fd5b600082610811577f4e487b7100000000000000000000000000000000000000000000000000000000600052601260045260246000fd5b50049056fea26469706673582212200b2d14a0a18848e3f96cd313a157cacbb76da535d80b06fe94f5436fd4672d9364736f6c63430008120033",
  "linkReferences": {},
  "deployedLinkReferences": {}
}