{
  "_format": "hh-sol-artifact-1",
  "contractName": "TokenomicsProxy",
  "sourceName": "contracts/TokenomicsProxy.sol",
  "abi": [
    {
      "inputs": [
        {
          "internalType": "address",
          "name": "tokenomics",
          "type": "address"
        },
        {
          "internalType": "bytes",
          "name": "tokenomicsData",
          "type": "bytes"
        }
      ],
      "stateMutability": "nonpayable",
      "type": "constructor"
    },
    {
      "inputs": [],
      "name": "InitializationFailed",
      "type": "error"
    },
    {
      "inputs": [],
      "name": "ZeroTokenomicsAddress",
      "type": "error"
    },
    {
      "inputs": [],
      "name": "ZeroTokenomicsData",
      "type": "error"
    },
    {
      "stateMutability": "nonpayable",
      "type": "fallback"
    },
    {
      "inputs": [],
      "name": "PROXY_TOKENOMICS",
      "outputs": [
        {
          "internalType": "bytes32",
          "name": "",
          "type": "bytes32"
        }
      ],
      "stateMutability": "view",
      "type": "function"
    }
  ],
  "bytecode": "0x608060405234801561001057600080fd5b5060405161032d38038061032d83398101604081905261002f91610159565b6001600160a01b03821661005657604051635c92fbed60e01b815260040160405180910390fd5b805160000361007857604051632f1a386560e11b815260040160405180910390fd5b817fbd5523e7c3b6a94aa0e3b24d1120addc2f95c7029e097b466b2bedc8d4b4362f556000826001600160a01b0316826040516100b59190610227565b600060405180830381855af49150503d80600081146100f0576040519150601f19603f3d011682016040523d82523d6000602084013e6100f5565b606091505b505090508061011757604051630337323560e31b815260040160405180910390fd5b505050610243565b634e487b7160e01b600052604160045260246000fd5b60005b83811015610150578181015183820152602001610138565b50506000910152565b6000806040838503121561016c57600080fd5b82516001600160a01b038116811461018357600080fd5b60208401519092506001600160401b03808211156101a057600080fd5b818501915085601f8301126101b457600080fd5b8151818111156101c6576101c661011f565b604051601f8201601f19908116603f011681019083821181831017156101ee576101ee61011f565b8160405282815288602084870101111561020757600080fd5b610218836020830160208801610135565b80955050505050509250929050565b60008251610239818460208701610135565b9190910192915050565b60dc806102516000396000f3fe6080604052348015600f57600080fd5b506004361060285760003560e01c80636324b65e14606e575b7fbd5523e7c3b6a94aa0e3b24d1120addc2f95c7029e097b466b2bedc8d4b4362f543660008037600080366000845af490503d6000803e806068573d6000fd5b503d6000f35b60947fbd5523e7c3b6a94aa0e3b24d1120addc2f95c7029e097b466b2bedc8d4b4362f81565b60405190815260200160405180910390f3fea26469706673582212205605d025ebb8575419736af3a5807a955f1f57f58cd1a5c1e6dce7c41789ee3f64736f6c63430008120033",
  "linkReferences": {},
  "deployedLinkReferences": {}
}