{
  "_format": "hh-sol-artifact-1",
  "contractName": "Tokenomics",
  "sourceName": "contracts/Tokenomics.sol",
  "abi": [
    {
      "inputs": [],
      "stateMutability": "nonpayable",
      "type": "constructor"
    },
    {
      "inputs": [],
      "name": "AlreadyInitialized",
      "type": "error"
    },
    {
      "inputs": [
        {
          "internalType": "uint256",
          "name": "bondId",
          "type": "uint256"
        }
      ],
      "name": "BondNotRedeemable",
      "type": "error"
    },
    {
      "inputs": [
        {
          "internalType": "address",
          "name": "account",
          "type": "address"
        },
        {
          "internalType": "uint256",
          "name": "reward",
          "type": "uint256"
        },
        {
          "internalType": "uint256",
          "name": "topUp",
          "type": "uint256"
        }
      ],
      "name": "ClaimIncentivesFailed",
      "type": "error"
    },
    {
      "inputs": [],
      "name": "DelegatecallOnly",
      "type": "error"
    },
    {
      "inputs": [
        {
          "internalType": "address",
          "name": "account",
          "type": "address"
        }
      ],
      "name": "DonatorBlacklisted",
      "type": "error"
    },
    {
      "inputs": [
        {
          "internalType": "uint256",
          "name": "provided",
          "type": "uint256"
        },
        {
          "internalType": "uint256",
          "name": "expected",
          "type": "uint256"
        }
      ],
      "name": "InsufficientAllowance",
      "type": "error"
    },
    {
      "inputs": [
        {
          "internalType": "uint256",
          "name": "provided",
          "type": "uint256"
        },
        {
          "internalType": "uint256",
          "name": "expected",
          "type": "uint256"
        }
      ],
      "name": "LowerThan",
      "type": "error"
    },
    {
      "inputs": [
        {
          "internalType": "address",
          "name": "sender",
          "type": "address"
        },
        {
          "internalType": "address",
          "name": "manager",
          "type": "address"
        }
      ],
      "name": "ManagerOnly",
      "type": "error"
    },
    {
      "inputs": [],
      "name": "NonZeroValue",
      "type": "error"
    },
    {
      "inputs": [
        {
          "internalType": "uint256",
          "name": "provided",
          "type": "uint256"
        },
        {
          "internalType": "uint256",
          "name": "max",
          "type": "uint256"
        }
      ],
      "name": "Overflow",
      "type": "error"
    },
    {
      "inputs": [
        {
          "internalType": "address",
          "name": "sender",
          "type": "address"
        },
        {
          "internalType": "address",
          "name": "owner",
          "type": "address"
        }
      ],
      "name": "OwnerOnly",
      "type": "error"
    },
    {
      "inputs": [
        {
          "internalType": "uint256",
          "name": "x",
          "type": "uint256"
        },
        {
          "internalType": "uint256",
          "name": "y",
          "type": "uint256"
        }
      ],
      "name": "PRBMath_MulDiv18_Overflow",
      "type": "error"
    },
    {
      "inputs": [
        {
          "internalType": "uint256",
          "name": "x",
          "type": "uint256"
        },
        {
          "internalType": "uint256",
          "name": "y",
          "type": "uint256"
        },
        {
          "internalType": "uint256",
          "name": "denominator",
          "type": "uint256"
        }
      ],
      "name": "PRBMath_MulDiv_Overflow",
      "type": "error"
    },
    {
      "inputs": [
        {
          "internalType": "uint256",
          "name": "x",
          "type": "uint256"
        }
      ],
      "name": "PRBMath_UD60x18_Convert_Overflow",
      "type": "error"
    },
    {
      "inputs": [],
      "name": "Paused",
      "type": "error"
    },
    {
      "inputs": [
        {
          "internalType": "uint256",
          "name": "productId",
          "type": "uint256"
        }
      ],
      "name": "ProductClosed",
      "type": "error"
    },
    {
      "inputs": [
        {
          "internalType": "address",
          "name": "tokenAddress",
          "type": "address"
        },
        {
          "internalType": "uint256",
          "name": "productId",
          "type": "uint256"
        },
        {
          "internalType": "uint256",
          "name": "deadline",
          "type": "uint256"
        },
        {
          "internalType": "uint256",
          "name": "curTime",
          "type": "uint256"
        }
      ],
      "name": "ProductExpired",
      "type": "error"
    },
    {
      "inputs": [
        {
          "internalType": "address",
          "name": "tokenAddress",
          "type": "address"
        },
        {
          "internalType": "uint256",
          "name": "productId",
          "type": "uint256"
        },
        {
          "internalType": "uint256",
          "name": "requested",
          "type": "uint256"
        },
        {
          "internalType": "uint256",
          "name": "actual",
          "type": "uint256"
        }
      ],
      "name": "ProductSupplyLow",
      "type": "error"
    },
    {
      "inputs": [],
      "name": "ReentrancyGuard",
      "type": "error"
    },
    {
      "inputs": [],
      "name": "SameBlockNumberViolation",
      "type": "error"
    },
    {
      "inputs": [
        {
          "internalType": "uint256",
          "name": "serviceId",
          "type": "uint256"
        }
      ],
      "name": "ServiceDoesNotExist",
      "type": "error"
    },
    {
      "inputs": [
        {
          "internalType": "uint256",
          "name": "serviceId",
          "type": "uint256"
        }
      ],
      "name": "ServiceNeverDeployed",
      "type": "error"
    },
    {
      "inputs": [
        {
          "internalType": "address",
          "name": "token",
          "type": "address"
        },
        {
          "internalType": "address",
          "name": "from",
          "type": "address"
        },
        {
          "internalType": "address",
          "name": "to",
          "type": "address"
        },
        {
          "internalType": "uint256",
          "name": "amount",
          "type": "uint256"
        }
      ],
      "name": "TransferFailed",
      "type": "error"
    },
    {
      "inputs": [
        {
          "internalType": "uint256",
          "name": "epochNumber",
          "type": "uint256"
        }
      ],
      "name": "TreasuryRebalanceFailed",
      "type": "error"
    },
    {
      "inputs": [
        {
          "internalType": "address",
          "name": "tokenAddress",
          "type": "address"
        }
      ],
      "name": "UnauthorizedToken",
      "type": "error"
    },
    {
      "inputs": [
        {
          "internalType": "uint256",
          "name": "provided",
          "type": "uint256"
        },
        {
          "internalType": "uint256",
          "name": "expected",
          "type": "uint256"
        }
      ],
      "name": "WrongAmount",
      "type": "error"
    },
    {
      "inputs": [
        {
          "internalType": "uint256",
          "name": "numValues1",
          "type": "uint256"
        },
        {
          "internalType": "uint256",
          "name": "numValues2",
          "type": "uint256"
        }
      ],
      "name": "WrongArrayLength",
      "type": "error"
    },
    {
      "inputs": [
        {
          "internalType": "address",
          "name": "provided",
          "type": "address"
        },
        {
          "internalType": "address",
          "name": "expected",
          "type": "address"
        }
      ],
      "name": "WrongTokenAddress",
      "type": "error"
    },
    {
      "inputs": [
        {
          "internalType": "uint256",
          "name": "unitId",
          "type": "uint256"
        },
        {
          "internalType": "uint256",
          "name": "unitType",
          "type": "uint256"
        }
      ],
      "name": "WrongUnitId",
      "type": "error"
    },
    {
      "inputs": [],
      "name": "ZeroAddress",
      "type": "error"
    },
    {
      "inputs": [],
      "name": "ZeroValue",
      "type": "error"
    },
    {
      "anonymous": false,
      "inputs": [
        {
          "indexed": true,
          "internalType": "address",
          "name": "agentRegistry",
          "type": "address"
        }
      ],
      "name": "AgentRegistryUpdated",
      "type": "event"
    },
    {
      "anonymous": false,
      "inputs": [
        {
          "indexed": true,
          "internalType": "address",
          "name": "componentRegistry",
          "type": "address"
        }
      ],
      "name": "ComponentRegistryUpdated",
      "type": "event"
    },
    {
      "anonymous": false,
      "inputs": [
        {
          "indexed": true,
          "internalType": "address",
          "name": "depository",
          "type": "address"
        }
      ],
      "name": "DepositoryUpdated",
      "type": "event"
    },
    {
      "anonymous": false,
      "inputs": [
        {
          "indexed": true,
          "internalType": "address",
          "name": "dispenser",
          "type": "address"
        }
      ],
      "name": "DispenserUpdated",
      "type": "event"
    },
    {
      "anonymous": false,
      "inputs": [
        {
          "indexed": true,
          "internalType": "address",
          "name": "blacklist",
          "type": "address"
        }
      ],
      "name": "DonatorBlacklistUpdated",
      "type": "event"
    },
    {
      "anonymous": false,
      "inputs": [
        {
          "indexed": false,
          "internalType": "uint256",
          "name": "effectiveBond",
          "type": "uint256"
        }
      ],
      "name": "EffectiveBondUpdated",
      "type": "event"
    },
    {
      "anonymous": false,
      "inputs": [
        {
          "indexed": false,
          "internalType": "uint256",
          "name": "epochLen",
          "type": "uint256"
        }
      ],
      "name": "EpochLengthUpdated",
      "type": "event"
    },
    {
      "anonymous": false,
      "inputs": [
        {
          "indexed": true,
          "internalType": "uint256",
          "name": "epochCounter",
          "type": "uint256"
        },
        {
          "indexed": false,
          "internalType": "uint256",
          "name": "treasuryRewards",
          "type": "uint256"
        },
        {
          "indexed": false,
          "internalType": "uint256",
          "name": "accountRewards",
          "type": "uint256"
        },
        {
          "indexed": false,
          "internalType": "uint256",
          "name": "accountTopUps",
          "type": "uint256"
        }
      ],
      "name": "EpochSettled",
      "type": "event"
    },
    {
      "anonymous": false,
      "inputs": [
        {
          "indexed": false,
          "internalType": "uint256",
          "name": "idf",
          "type": "uint256"
        }
      ],
      "name": "IDFUpdated",
      "type": "event"
    },
    {
      "anonymous": false,
      "inputs": [
        {
          "indexed": true,
          "internalType": "uint256",
          "name": "epochNumber",
          "type": "uint256"
        },
        {
          "indexed": false,
          "internalType": "uint256",
          "name": "rewardComponentFraction",
          "type": "uint256"
        },
        {
          "indexed": false,
          "internalType": "uint256",
          "name": "rewardAgentFraction",
          "type": "uint256"
        },
        {
          "indexed": false,
          "internalType": "uint256",
          "name": "maxBondFraction",
          "type": "uint256"
        },
        {
          "indexed": false,
          "internalType": "uint256",
          "name": "topUpComponentFraction",
          "type": "uint256"
        },
        {
          "indexed": false,
          "internalType": "uint256",
          "name": "topUpAgentFraction",
          "type": "uint256"
        }
      ],
      "name": "IncentiveFractionsUpdateRequested",
      "type": "event"
    },
    {
      "anonymous": false,
      "inputs": [
        {
          "indexed": true,
          "internalType": "uint256",
          "name": "epochNumber",
          "type": "uint256"
        }
      ],
      "name": "IncentiveFractionsUpdated",
      "type": "event"
    },
    {
      "anonymous": false,
      "inputs": [
        {
          "indexed": true,
          "internalType": "address",
          "name": "owner",
          "type": "address"
        }
      ],
      "name": "OwnerUpdated",
      "type": "event"
    },
    {
      "anonymous": false,
      "inputs": [
        {
          "indexed": true,
          "internalType": "address",
          "name": "serviceRegistry",
          "type": "address"
        }
      ],
      "name": "ServiceRegistryUpdated",
      "type": "event"
    },
    {
      "anonymous": false,
      "inputs": [
        {
          "indexed": true,
          "internalType": "address",
          "name": "implementation",
          "type": "address"
        }
      ],
      "name": "TokenomicsImplementationUpdated",
      "type": "event"
    },
    {
      "anonymous": false,
      "inputs": [
        {
          "indexed": true,
          "internalType": "uint256",
          "name": "epochNumber",
          "type": "uint256"
        },
        {
          "indexed": false,
          "internalType": "uint256",
          "name": "devsPerCapital",
          "type": "uint256"
        },
        {
          "indexed": false,
          "internalType": "uint256",
          "name": "codePerDev",
          "type": "uint256"
        },
        {
          "indexed": false,
          "internalType": "uint256",
          "name": "epsilonRate",
          "type": "uint256"
        },
        {
          "indexed": false,
          "internalType": "uint256",
          "name": "epochLen",
          "type": "uint256"
        },
        {
          "indexed": false,
          "internalType": "uint256",
          "name": "veOLASThreshold",
          "type": "uint256"
        }
      ],
      "name": "TokenomicsParametersUpdateRequested",
      "type": "event"
    },
    {
      "anonymous": false,
      "inputs": [
        {
          "indexed": true,
          "internalType": "uint256",
          "name": "epochNumber",
          "type": "uint256"
        }
      ],
      "name": "TokenomicsParametersUpdated",
      "type": "event"
    },
    {
      "anonymous": false,
      "inputs": [
        {
          "indexed": true,
          "internalType": "address",
          "name": "treasury",
          "type": "address"
        }
      ],
      "name": "TreasuryUpdated",
      "type": "event"
    },
    {
      "inputs": [],
      "name": "MIN_EPOCH_LENGTH",
      "outputs": [
        {
          "internalType": "uint256",
          "name": "",
          "type": "uint256"
        }
      ],
      "stateMutability": "view",
      "type": "function"
    },
    {
      "inputs": [],
      "name": "MIN_PARAM_VALUE",
      "outputs": [
        {
          "internalType": "uint256",
          "name": "",
          "type": "uint256"
        }
      ],
      "stateMutability": "view",
      "type": "function"
    },
    {
      "inputs": [],
      "name": "ONE_YEAR",
      "outputs": [
        {
          "internalType": "uint256",
          "name": "",
          "type": "uint256"
        }
      ],
      "stateMutability": "view",
      "type": "function"
    },
    {
      "inputs": [],
      "name": "PROXY_TOKENOMICS",
      "outputs": [
        {
          "internalType": "bytes32",
          "name": "",
          "type": "bytes32"
        }
      ],
      "stateMutability": "view",
      "type": "function"
    },
    {
      "inputs": [],
      "name": "VERSION",
      "outputs": [
        {
          "internalType": "string",
          "name": "",
          "type": "string"
        }
      ],
      "stateMutability": "view",
      "type": "function"
    },
    {
      "inputs": [
        {
          "internalType": "address",
          "name": "account",
          "type": "address"
        },
        {
          "internalType": "uint256[]",
          "name": "unitTypes",
          "type": "uint256[]"
        },
        {
          "internalType": "uint256[]",
          "name": "unitIds",
          "type": "uint256[]"
        }
      ],
      "name": "accountOwnerIncentives",
      "outputs": [
        {
          "internalType": "uint256",
          "name": "reward",
          "type": "uint256"
        },
        {
          "internalType": "uint256",
          "name": "topUp",
          "type": "uint256"
        }
      ],
      "stateMutability": "nonpayable",
      "type": "function"
    },
    {
      "inputs": [],
      "name": "agentRegistry",
      "outputs": [
        {
          "internalType": "address",
          "name": "",
          "type": "address"
        }
      ],
      "stateMutability": "view",
      "type": "function"
    },
    {
      "inputs": [
        {
          "internalType": "address",
          "name": "_donatorBlacklist",
          "type": "address"
        }
      ],
      "name": "changeDonatorBlacklist",
      "outputs": [],
      "stateMutability": "nonpayable",
      "type": "function"
    },
    {
      "inputs": [
        {
          "internalType": "uint256",
          "name": "_rewardComponentFraction",
          "type": "uint256"
        },
        {
          "internalType": "uint256",
          "name": "_rewardAgentFraction",
          "type": "uint256"
        },
        {
          "internalType": "uint256",
          "name": "_maxBondFraction",
          "type": "uint256"
        },
        {
          "internalType": "uint256",
          "name": "_topUpComponentFraction",
          "type": "uint256"
        },
        {
          "internalType": "uint256",
          "name": "_topUpAgentFraction",
          "type": "uint256"
        }
      ],
      "name": "changeIncentiveFractions",
      "outputs": [],
      "stateMutability": "nonpayable",
      "type": "function"
    },
    {
      "inputs": [
        {
          "internalType": "address",
          "name": "_treasury",
          "type": "address"
        },
        {
          "internalType": "address",
          "name": "_depository",
          "type": "address"
        },
        {
          "internalType": "address",
          "name": "_dispenser",
          "type": "address"
        }
      ],
      "name": "changeManagers",
      "outputs": [],
      "stateMutability": "nonpayable",
      "type": "function"
    },
    {
      "inputs": [
        {
          "internalType": "address",
          "name": "newOwner",
          "type": "address"
        }
      ],
      "name": "changeOwner",
      "outputs": [],
      "stateMutability": "nonpayable",
      "type": "function"
    },
    {
      "inputs": [
        {
          "internalType": "address",
          "name": "_componentRegistry",
          "type": "address"
        },
        {
          "internalType": "address",
          "name": "_agentRegistry",
          "type": "address"
        },
        {
          "internalType": "address",
          "name": "_serviceRegistry",
          "type": "address"
        }
      ],
      "name": "changeRegistries",
      "outputs": [],
      "stateMutability": "nonpayable",
      "type": "function"
    },
    {
      "inputs": [
        {
          "internalType": "address",
          "name": "implementation",
          "type": "address"
        }
      ],
      "name": "changeTokenomicsImplementation",
      "outputs": [],
      "stateMutability": "nonpayable",
      "type": "function"
    },
    {
      "inputs": [
        {
          "internalType": "uint256",
          "name": "_devsPerCapital",
          "type": "uint256"
        },
        {
          "internalType": "uint256",
          "name": "_codePerDev",
          "type": "uint256"
        },
        {
          "internalType": "uint256",
          "name": "_epsilonRate",
          "type": "uint256"
        },
        {
          "internalType": "uint256",
          "name": "_epochLen",
          "type": "uint256"
        },
        {
          "internalType": "uint256",
          "name": "_veOLASThreshold",
          "type": "uint256"
        }
      ],
      "name": "changeTokenomicsParameters",
      "outputs": [],
      "stateMutability": "nonpayable",
      "type": "function"
    },
    {
      "inputs": [],
      "name": "checkpoint",
      "outputs": [
        {
          "internalType": "bool",
          "name": "",
          "type": "bool"
        }
      ],
      "stateMutability": "nonpayable",
      "type": "function"
    },
    {
      "inputs": [],
      "name": "codePerDev",
      "outputs": [
        {
          "internalType": "uint72",
          "name": "",
          "type": "uint72"
        }
      ],
      "stateMutability": "view",
      "type": "function"
    },
    {
      "inputs": [],
      "name": "componentRegistry",
      "outputs": [
        {
          "internalType": "address",
          "name": "",
          "type": "address"
        }
      ],
      "stateMutability": "view",
      "type": "function"
    },
    {
      "inputs": [],
      "name": "currentYear",
      "outputs": [
        {
          "internalType": "uint8",
          "name": "",
          "type": "uint8"
        }
      ],
      "stateMutability": "view",
      "type": "function"
    },
    {
      "inputs": [],
      "name": "depository",
      "outputs": [
        {
          "internalType": "address",
          "name": "",
          "type": "address"
        }
      ],
      "stateMutability": "view",
      "type": "function"
    },
    {
      "inputs": [],
      "name": "devsPerCapital",
      "outputs": [
        {
          "internalType": "uint72",
          "name": "",
          "type": "uint72"
        }
      ],
      "stateMutability": "view",
      "type": "function"
    },
    {
      "inputs": [],
      "name": "dispenser",
      "outputs": [
        {
          "internalType": "address",
          "name": "",
          "type": "address"
        }
      ],
      "stateMutability": "view",
      "type": "function"
    },
    {
      "inputs": [],
      "name": "donatorBlacklist",
      "outputs": [
        {
          "internalType": "address",
          "name": "",
          "type": "address"
        }
      ],
      "stateMutability": "view",
      "type": "function"
    },
    {
      "inputs": [],
      "name": "effectiveBond",
      "outputs": [
        {
          "internalType": "uint96",
          "name": "",
          "type": "uint96"
        }
      ],
      "stateMutability": "view",
      "type": "function"
    },
    {
      "inputs": [],
      "name": "epochCounter",
      "outputs": [
        {
          "internalType": "uint32",
          "name": "",
          "type": "uint32"
        }
      ],
      "stateMutability": "view",
      "type": "function"
    },
    {
      "inputs": [],
      "name": "epochLen",
      "outputs": [
        {
          "internalType": "uint32",
          "name": "",
          "type": "uint32"
        }
      ],
      "stateMutability": "view",
      "type": "function"
    },
    {
      "inputs": [],
      "name": "epsilonRate",
      "outputs": [
        {
          "internalType": "uint64",
          "name": "",
          "type": "uint64"
        }
      ],
      "stateMutability": "view",
      "type": "function"
    },
    {
      "inputs": [
        {
          "internalType": "uint256",
          "name": "epoch",
          "type": "uint256"
        }
      ],
      "name": "getIDF",
      "outputs": [
        {
          "internalType": "uint256",
          "name": "idf",
          "type": "uint256"
        }
      ],
      "stateMutability": "view",
      "type": "function"
    },
    {
      "inputs": [
        {
          "internalType": "uint256",
          "name": "numYears",
          "type": "uint256"
        }
      ],
      "name": "getInflationForYear",
      "outputs": [
        {
          "internalType": "uint256",
          "name": "inflationAmount",
          "type": "uint256"
        }
      ],
      "stateMutability": "pure",
      "type": "function"
    },
    {
      "inputs": [],
      "name": "getInflationPerEpoch",
      "outputs": [
        {
          "internalType": "uint256",
          "name": "inflationPerEpoch",
          "type": "uint256"
        }
      ],
      "stateMutability": "view",
      "type": "function"
    },
    {
      "inputs": [],
      "name": "getLastIDF",
      "outputs": [
        {
          "internalType": "uint256",
          "name": "idf",
          "type": "uint256"
        }
      ],
      "stateMutability": "view",
      "type": "function"
    },
    {
      "inputs": [
        {
          "internalType": "address",
          "name": "account",
          "type": "address"
        },
        {
          "internalType": "uint256[]",
          "name": "unitTypes",
          "type": "uint256[]"
        },
        {
          "internalType": "uint256[]",
          "name": "unitIds",
          "type": "uint256[]"
        }
      ],
      "name": "getOwnerIncentives",
      "outputs": [
        {
          "internalType": "uint256",
          "name": "reward",
          "type": "uint256"
        },
        {
          "internalType": "uint256",
          "name": "topUp",
          "type": "uint256"
        }
      ],
      "stateMutability": "view",
      "type": "function"
    },
    {
      "inputs": [
        {
          "internalType": "uint256",
          "name": "numYears",
          "type": "uint256"
        }
      ],
      "name": "getSupplyCapForYear",
      "outputs": [
        {
          "internalType": "uint256",
          "name": "supplyCap",
          "type": "uint256"
        }
      ],
      "stateMutability": "pure",
      "type": "function"
    },
    {
      "inputs": [
        {
          "internalType": "uint256",
          "name": "epoch",
          "type": "uint256"
        },
        {
          "internalType": "uint256",
          "name": "unitType",
          "type": "uint256"
        }
      ],
      "name": "getUnitPoint",
      "outputs": [
        {
          "components": [
            {
              "internalType": "uint96",
              "name": "sumUnitTopUpsOLAS",
              "type": "uint96"
            },
            {
              "internalType": "uint32",
              "name": "numNewUnits",
              "type": "uint32"
            },
            {
              "internalType": "uint8",
              "name": "rewardUnitFraction",
              "type": "uint8"
            },
            {
              "internalType": "uint8",
              "name": "topUpUnitFraction",
              "type": "uint8"
            }
          ],
          "internalType": "struct UnitPoint",
          "name": "up",
          "type": "tuple"
        }
      ],
      "stateMutability": "view",
      "type": "function"
    },
    {
      "inputs": [],
      "name": "inflationPerSecond",
      "outputs": [
        {
          "internalType": "uint96",
          "name": "",
          "type": "uint96"
        }
      ],
      "stateMutability": "view",
      "type": "function"
    },
    {
      "inputs": [
        {
          "internalType": "address",
          "name": "_olas",
          "type": "address"
        },
        {
          "internalType": "address",
          "name": "_treasury",
          "type": "address"
        },
        {
          "internalType": "address",
          "name": "_depository",
          "type": "address"
        },
        {
          "internalType": "address",
          "name": "_dispenser",
          "type": "address"
        },
        {
          "internalType": "address",
          "name": "_ve",
          "type": "address"
        },
        {
          "internalType": "uint256",
          "name": "_epochLen",
          "type": "uint256"
        },
        {
          "internalType": "address",
          "name": "_componentRegistry",
          "type": "address"
        },
        {
          "internalType": "address",
          "name": "_agentRegistry",
          "type": "address"
        },
        {
          "internalType": "address",
          "name": "_serviceRegistry",
          "type": "address"
        },
        {
          "internalType": "address",
          "name": "_donatorBlacklist",
          "type": "address"
        }
      ],
      "name": "initializeTokenomics",
      "outputs": [],
      "stateMutability": "nonpayable",
      "type": "function"
    },
    {
      "inputs": [],
      "name": "lastDonationBlockNumber",
      "outputs": [
        {
          "internalType": "uint32",
          "name": "",
          "type": "uint32"
        }
      ],
      "stateMutability": "view",
      "type": "function"
    },
    {
      "inputs": [
        {
          "internalType": "uint256",
          "name": "",
          "type": "uint256"
        }
      ],
      "name": "mapEpochTokenomics",
      "outputs": [
        {
          "components": [
            {
              "internalType": "uint96",
              "name": "totalDonationsETH",
              "type": "uint96"
            },
            {
              "internalType": "uint96",
              "name": "totalTopUpsOLAS",
              "type": "uint96"
            },
            {
              "internalType": "uint64",
              "name": "idf",
              "type": "uint64"
            },
            {
              "internalType": "uint32",
              "name": "numNewOwners",
              "type": "uint32"
            },
            {
              "internalType": "uint32",
              "name": "endTime",
              "type": "uint32"
            },
            {
              "internalType": "uint8",
              "name": "rewardTreasuryFraction",
              "type": "uint8"
            },
            {
              "internalType": "uint8",
              "name": "maxBondFraction",
              "type": "uint8"
            }
          ],
          "internalType": "struct EpochPoint",
          "name": "epochPoint",
          "type": "tuple"
        }
      ],
      "stateMutability": "view",
      "type": "function"
    },
    {
      "inputs": [
        {
          "internalType": "address",
          "name": "",
          "type": "address"
        }
      ],
      "name": "mapNewOwners",
      "outputs": [
        {
          "internalType": "bool",
          "name": "",
          "type": "bool"
        }
      ],
      "stateMutability": "view",
      "type": "function"
    },
    {
      "inputs": [
        {
          "internalType": "uint256",
          "name": "",
          "type": "uint256"
        },
        {
          "internalType": "uint256",
          "name": "",
          "type": "uint256"
        }
      ],
      "name": "mapNewUnits",
      "outputs": [
        {
          "internalType": "bool",
          "name": "",
          "type": "bool"
        }
      ],
      "stateMutability": "view",
      "type": "function"
    },
    {
      "inputs": [
        {
          "internalType": "address",
          "name": "",
          "type": "address"
        }
      ],
      "name": "mapOwnerRewards",
      "outputs": [
        {
          "internalType": "uint256",
          "name": "",
          "type": "uint256"
        }
      ],
      "stateMutability": "view",
      "type": "function"
    },
    {
      "inputs": [
        {
          "internalType": "address",
          "name": "",
          "type": "address"
        }
      ],
      "name": "mapOwnerTopUps",
      "outputs": [
        {
          "internalType": "uint256",
          "name": "",
          "type": "uint256"
        }
      ],
      "stateMutability": "view",
      "type": "function"
    },
    {
      "inputs": [
        {
          "internalType": "uint256",
          "name": "",
          "type": "uint256"
        }
      ],
      "name": "mapServiceAmounts",
      "outputs": [
        {
          "internalType": "uint256",
          "name": "",
          "type": "uint256"
        }
      ],
      "stateMutability": "view",
      "type": "function"
    },
    {
      "inputs": [
        {
          "internalType": "uint256",
          "name": "",
          "type": "uint256"
        },
        {
          "internalType": "uint256",
          "name": "",
          "type": "uint256"
        }
      ],
      "name": "mapUnitIncentives",
      "outputs": [
        {
          "internalType": "uint96",
          "name": "reward",
          "type": "uint96"
        },
        {
          "internalType": "uint96",
          "name": "pendingRelativeReward",
          "type": "uint96"
        },
        {
          "internalType": "uint96",
          "name": "topUp",
          "type": "uint96"
        },
        {
          "internalType": "uint96",
          "name": "pendingRelativeTopUp",
          "type": "uint96"
        },
        {
          "internalType": "uint32",
          "name": "lastEpoch",
          "type": "uint32"
        }
      ],
      "stateMutability": "view",
      "type": "function"
    },
    {
      "inputs": [],
      "name": "maxBond",
      "outputs": [
        {
          "internalType": "uint96",
          "name": "",
          "type": "uint96"
        }
      ],
      "stateMutability": "view",
      "type": "function"
    },
    {
      "inputs": [],
      "name": "nextEpochLen",
      "outputs": [
        {
          "internalType": "uint32",
          "name": "",
          "type": "uint32"
        }
      ],
      "stateMutability": "view",
      "type": "function"
    },
    {
      "inputs": [],
      "name": "nextVeOLASThreshold",
      "outputs": [
        {
          "internalType": "uint96",
          "name": "",
          "type": "uint96"
        }
      ],
      "stateMutability": "view",
      "type": "function"
    },
    {
      "inputs": [],
      "name": "olas",
      "outputs": [
        {
          "internalType": "address",
          "name": "",
          "type": "address"
        }
      ],
      "stateMutability": "view",
      "type": "function"
    },
    {
      "inputs": [],
      "name": "owner",
      "outputs": [
        {
          "internalType": "address",
          "name": "",
          "type": "address"
        }
      ],
      "stateMutability": "view",
      "type": "function"
    },
    {
      "inputs": [
        {
          "internalType": "uint256",
          "name": "amount",
          "type": "uint256"
        }
      ],
      "name": "refundFromBondProgram",
      "outputs": [],
      "stateMutability": "nonpayable",
      "type": "function"
    },
    {
      "inputs": [
        {
          "internalType": "uint256",
          "name": "amount",
          "type": "uint256"
        }
      ],
      "name": "reserveAmountForBondProgram",
      "outputs": [
        {
          "internalType": "bool",
          "name": "success",
          "type": "bool"
        }
      ],
      "stateMutability": "nonpayable",
      "type": "function"
    },
    {
      "inputs": [],
      "name": "serviceRegistry",
      "outputs": [
        {
          "internalType": "address",
          "name": "",
          "type": "address"
        }
      ],
      "stateMutability": "view",
      "type": "function"
    },
    {
      "inputs": [],
      "name": "timeLaunch",
      "outputs": [
        {
          "internalType": "uint32",
          "name": "",
          "type": "uint32"
        }
      ],
      "stateMutability": "view",
      "type": "function"
    },
    {
      "inputs": [],
      "name": "tokenomicsImplementation",
      "outputs": [
        {
          "internalType": "address",
          "name": "implementation",
          "type": "address"
        }
      ],
      "stateMutability": "view",
      "type": "function"
    },
    {
      "inputs": [],
      "name": "tokenomicsParametersUpdated",
      "outputs": [
        {
          "internalType": "bytes1",
          "name": "",
          "type": "bytes1"
        }
      ],
      "stateMutability": "view",
      "type": "function"
    },
    {
      "inputs": [
        {
          "internalType": "address",
          "name": "donator",
          "type": "address"
        },
        {
          "internalType": "uint256[]",
          "name": "serviceIds",
          "type": "uint256[]"
        },
        {
          "internalType": "uint256[]",
          "name": "amounts",
          "type": "uint256[]"
        },
        {
          "internalType": "uint256",
          "name": "donationETH",
          "type": "uint256"
        }
      ],
      "name": "trackServiceDonations",
      "outputs": [],
      "stateMutability": "nonpayable",
      "type": "function"
    },
    {
      "inputs": [],
      "name": "treasury",
      "outputs": [
        {
          "internalType": "address",
          "name": "",
          "type": "address"
        }
      ],
      "stateMutability": "view",
      "type": "function"
    },
    {
      "inputs": [],
      "name": "ve",
      "outputs": [
        {
          "internalType": "address",
          "name": "",
          "type": "address"
        }
      ],
      "stateMutability": "view",
      "type": "function"
    },
    {
      "inputs": [],
      "name": "veOLASThreshold",
      "outputs": [
        {
          "internalType": "uint96",
          "name": "",
          "type": "uint96"
        }
      ],
      "stateMutability": "view",
      "type": "function"
    }
  ],
  "bytecode": "0x608060405234801561001057600080fd5b50615f7180620000216000396000f3fe608060405234801561001057600080fd5b506004361061038c5760003560e01c80637dd9dc5e116101de578063a6f9dae11161010f578063cdc7e0d7116100ad578063e09d894d1161007c578063e09d894d14610bd8578063e0e1447e14610beb578063ff0039cb14610c05578063ffa1ad7414610c1857600080fd5b8063cdc7e0d714610b66578063d2b3996f14610b80578063d3567f3714610b97578063d529779314610bc557600080fd5b8063bedd12a5116100e9578063bedd12a514610a8d578063c2c4c5c114610aa0578063c4d76d3a14610aa8578063cbcf252a14610b5357600080fd5b8063a6f9dae114610a26578063ace2cd2a14610a39578063ba32427c14610a6d57600080fd5b80638da5cb5b1161017c5780639c322e2f116101565780639c322e2f146109e15780639da3f913146109e95780639e3d9f07146109fc578063a66c8db714610a1357600080fd5b80638da5cb5b1461099d5780638e4a8379146109b05780638fc2b24d146109c757600080fd5b8063890371b2116101b8578063890371b2146109155780638b268f92146109475780638b5214fc146109615780638cd813d11461097d57600080fd5b80637dd9dc5e146108a65780637fc72bbb146108eb57806380b3f2e3146108fe57600080fd5b80633d1d195d116102c357806361235f06116102615780636ea9ee14116102305780636ea9ee14146108375780637048960c1461084a57806373ca93171461085d57806374cff66c1461089357600080fd5b806361235f06146106ec57806361d027b3146107ea5780636324b65e146107fd5780636b476ad01461082457600080fd5b80635072d3341161029d5780635072d33414610690578063590a92d0146106a35780635bc02201146106b65780635cc8c0b0146106c957600080fd5b80633d1d195d14610652578063426e77df1461065a5780634d02403c1461067d57600080fd5b806314b19c5a116103305780631f8507161161030a5780631f850716146104cc5780631fc696d3146104df5780632e070f541461061757806335c08e011461063f57600080fd5b806314b19c5a1461047557806316d3bfbb146104a1578063190abc43146104ac57600080fd5b80630b5a006b1161036c5780630b5a006b146103e65780630d115aae146104265780630d1cfcae1461044d5780630e7c40331461046057600080fd5b806231d1151461039157806295bb25146103c157806308a9376d146103dc575b600080fd5b6001546103a4906001600160a01b031681565b6040516001600160a01b0390911681526020015b60405180910390f35b6103ce655af3107a400081565b6040519081526020016103b8565b6103ce62093a8081565b600454610414907d010000000000000000000000000000000000000000000000000000000000900460ff1681565b60405160ff90911681526020016103b8565b7fbd5523e7c3b6a94aa0e3b24d1120addc2f95c7029e097b466b2bedc8d4b4362f546103a4565b6006546103a4906001600160a01b031681565b61047361046e3660046158ca565b610c61565b005b60075461048c90600160a01b900463ffffffff1681565b60405163ffffffff90911681526020016103b8565b6103ce6301e1338081565b6103ce6104ba366004615915565b600c6020526000908152604090205481565b6008546103a4906001600160a01b031681565b6105986104ed366004615932565b600d60209081526000918252604091829020825160e08101845260018201546001600160601b0380821683526c0100000000000000000000000082041693820193909352600160c01b90920467ffffffffffffffff169282019290925260029091015463ffffffff8082166060840152640100000000820416608083015268010000000000000000810460ff90811660a084015269010000000000000000009091041660c082015281565b6040516103b89190600060e0820190506001600160601b038084511683528060208501511660208401525067ffffffffffffffff6040840151166040830152606083015163ffffffff8082166060850152806080860151166080850152505060ff60a08401511660a083015260ff60c08401511660c083015292915050565b61062a610625366004615a21565b610dd7565b604080519283526020830191909152016103b8565b61047361064d366004615915565b611658565b6103ce6116ef565b61066d610668366004615932565b611758565b60405190151581526020016103b8565b61047361068b366004615a97565b611839565b6009546103a4906001600160a01b031681565b6104736106b1366004615915565b611f90565b6104736106c4366004615b5e565b61206b565b61066d6106d7366004615915565b600f6020526000908152604090205460ff1681565b61079d6106fa366004615bdc565b604080516080810182526000808252602082018190529181018290526060810191909152506000918252600d6020908152604080842092845291815291819020815160808101835290546001600160601b038116825263ffffffff6c010000000000000000000000008204169382019390935260ff7001000000000000000000000000000000008404811692820192909252600160881b90920416606082015290565b6040516103b8919060006080820190506001600160601b03835116825263ffffffff602084015116602083015260ff604084015116604083015260ff606084015116606083015292915050565b6002546103a4906001600160a01b031681565b6103ce7fbd5523e7c3b6a94aa0e3b24d1120addc2f95c7029e097b466b2bedc8d4b4362f81565b6103ce610832366004615932565b612363565b610473610845366004615bfe565b61239e565b610473610858366004615932565b612688565b60045461087990600160a01b900468ffffffffffffffffff1681565b60405168ffffffffffffffffff90911681526020016103b8565b61062a6108a1366004615a21565b6127ac565b6004546108ba90600160f01b900460f81b81565b6040517fff0000000000000000000000000000000000000000000000000000000000000090911681526020016103b8565b6104736108f9366004615bfe565b612fdf565b60075461048c90600160e01b900463ffffffff1681565b60005461092f90600160a01b90046001600160601b031681565b6040516001600160601b0390911681526020016103b8565b60015461092f90600160a01b90046001600160601b031681565b60085461087990600160a01b900468ffffffffffffffffff1681565b6103ce61098b366004615932565b600a6020526000908152604090205481565b6000546103a4906001600160a01b031681565b60075461048c90600160c01b900463ffffffff1681565b60035461092f90600160a01b90046001600160601b031681565b6103ce613309565b6103ce6109f7366004615932565b613348565b60095461048c90600160a01b900463ffffffff1681565b6103ce610a21366004615932565b61349c565b610473610a34366004615915565b613600565b600554610a5490600160a01b900467ffffffffffffffff1681565b60405167ffffffffffffffff90911681526020016103b8565b6103ce610a7b366004615915565b600b6020526000908152604090205481565b6003546103a4906001600160a01b031681565b61066d6136d5565b610b13610ab6366004615bdc565b6010602090815260009283526040808420909152908252902080546001909101546001600160601b03808316926c01000000000000000000000000908190048216928281169291810490911690600160c01b900463ffffffff1685565b604080516001600160601b039687168152948616602086015292851692840192909252909216606082015263ffffffff909116608082015260a0016103b8565b6007546103a4906001600160a01b031681565b60025461092f90600160a01b90046001600160601b031681565b60055461048c90600160e01b900463ffffffff1681565b61066d610ba5366004615bdc565b600e60209081526000928352604080842090915290825290205460ff1681565b610473610bd33660046158ca565b6146c8565b6004546103a4906001600160a01b031681565b60065461092f90600160a01b90046001600160601b031681565b6005546103a4906001600160a01b031681565b610c546040518060400160405280600581526020017f312e302e3000000000000000000000000000000000000000000000000000000081525081565b6040516103b89190615c39565b6000546001600160a01b03163314610ca65760005460405163521eb56d60e11b81523360048201526001600160a01b0390911660248201526044015b60405180910390fd5b6001600160a01b03831615610d0a576005805473ffffffffffffffffffffffffffffffffffffffff19166001600160a01b0385169081179091556040517f0ebf3ee50ad142f2e738b0ec66ceee78c567bd9f6e7bb155e408f3a9068a086290600090a25b6001600160a01b03821615610d6e576006805473ffffffffffffffffffffffffffffffffffffffff19166001600160a01b0384169081179091556040517f9439fd4044a7a9da5dc12ba69cff9b7e91dcbc73cd8f170d7cecb1339d59c55290600090a25b6001600160a01b03811615610dd2576007805473ffffffffffffffffffffffffffffffffffffffff19166001600160a01b0383169081179091556040517fe9c9e3dbb8b376a9927bb5ed9f7ec4660c962d4d4b6c9e5b2e582e4a7c34950590600090a25b505050565b60045460009081906001600160a01b03163314610e3657600480546040517f625a43fe00000000000000000000000000000000000000000000000000000000815233928101929092526001600160a01b03166024820152604401610c9d565b8251845114610e7e57835183516040517f8151c11000000000000000000000000000000000000000000000000000000000815260048101929092526024820152604401610c9d565b604080516002808252606082018352600092602083019080368337505060055460065483519394506001600160a01b0391821693911691508390600090610ec757610ec7615c87565b6020026020010183600181518110610ee157610ee1615c87565b6001600160a01b039384166020918202929092010152911690526040805160028082526060820190925260009181602001602082028036833701905050905060005b6002811015610fd457828181518110610f3e57610f3e615c87565b60200260200101516001600160a01b03166318160ddd6040518163ffffffff1660e01b8152600401602060405180830381865afa158015610f83573d6000803e3d6000fd5b505050506040513d601f19601f82011682018060405250810190610fa79190615c9d565b828281518110610fb957610fb9615c87565b6020908102919091010152610fcd81615ccc565b9050610f23565b5060408051600280825260608201835260009260208301908036833701905050905060005b86518110156112fc57600188828151811061101657611016615c87565b6020026020010151111561107d5787818151811061103657611036615c87565b602002602001015160016040517f7ae59685000000000000000000000000000000000000000000000000000000008152600401610c9d929190918252602082015260400190565b8188828151811061109057611090615c87565b6020026020010151815181106110a8576110a8615c87565b60200260200101518782815181106110c2576110c2615c87565b60200260200101511115806111215750828882815181106110e5576110e5615c87565b6020026020010151815181106110fd576110fd615c87565b602002602001015187828151811061111757611117615c87565b6020026020010151115b156111975786818151811061113857611138615c87565b602002602001015188828151811061115257611152615c87565b60200260200101516040517f0e274b10000000000000000000000000000000000000000000000000000000008152600401610c9d929190918252602082015260400190565b8681815181106111a9576111a9615c87565b6020026020010151828983815181106111c4576111c4615c87565b6020026020010151815181106111dc576111dc615c87565b6020026020010181815250506000848983815181106111fd576111fd615c87565b60200260200101518151811061121557611215615c87565b60200260200101516001600160a01b0316636352211e89848151811061123d5761123d615c87565b60200260200101516040518263ffffffff1660e01b815260040161126391815260200190565b602060405180830381865afa158015611280573d6000803e3d6000fd5b505050506040513d601f19601f820116820180604052508101906112a49190615ce6565b9050896001600160a01b0316816001600160a01b0316146112eb5760405163521eb56d60e11b81526001600160a01b0380831660048301528b166024820152604401610c9d565b506112f581615ccc565b9050610ff9565b50600754600160a01b900463ffffffff1660005b875181101561164b576000601060008b848151811061133157611331615c87565b6020026020010151815260200190815260200160002060008a848151811061135b5761135b615c87565b6020026020010151815260200190815260200160002060010160189054906101000a900463ffffffff1663ffffffff16905060008111801561139c57508281105b15611458576113de818b84815181106113b7576113b7615c87565b60200260200101518b85815181106113d1576113d1615c87565b6020026020010151614838565b6000601060008c85815181106113f6576113f6615c87565b6020026020010151815260200190815260200160002060008b858151811061142057611420615c87565b6020026020010151815260200190815260200160002060010160186101000a81548163ffffffff021916908363ffffffff1602179055505b601060008b848151811061146e5761146e615c87565b6020026020010151815260200190815260200160002060008a848151811061149857611498615c87565b6020908102919091018101518252810191909152604001600020546114c6906001600160601b031689615d03565b97506000601060008c85815181106114e0576114e0615c87565b6020026020010151815260200190815260200160002060008b858151811061150a5761150a615c87565b6020026020010151815260200190815260200160002060000160006101000a8154816001600160601b0302191690836001600160601b03160217905550601060008b848151811061155d5761155d615c87565b6020026020010151815260200190815260200160002060008a848151811061158757611587615c87565b6020908102919091018101518252810191909152604001600020600101546115b8906001600160601b031688615d03565b96506000601060008c85815181106115d2576115d2615c87565b6020026020010151815260200190815260200160002060008b85815181106115fc576115fc615c87565b6020026020010151815260200190815260200160002060010160006101000a8154816001600160601b0302191690836001600160601b03160217905550508061164490615ccc565b9050611310565b5050505050935093915050565b6000546001600160a01b031633146116985760005460405163521eb56d60e11b81523360048201526001600160a01b039091166024820152604401610c9d565b6009805473ffffffffffffffffffffffffffffffffffffffff19166001600160a01b0383169081179091556040517f9e1c3be42809406e3dbfb210a8ea4d0a9729831f38977e280dd86623df49a0c790600090a250565b6000600d60006001600760149054906101000a900463ffffffff166117149190615d16565b63ffffffff1681526020810191909152604001600090812060010154600160c01b900467ffffffffffffffff1691508190036117555750670de0b6b3a76400005b90565b6003546000906001600160a01b031633146117b4576003546040517f625a43fe0000000000000000000000000000000000000000000000000000000081523360048201526001600160a01b039091166024820152604401610c9d565b600354600160a01b90046001600160601b0316828110611833576117d88382615d3a565b600380546001600160a01b0316600160a01b6001600160601b03841602179055604051818152600193509091507f1abb9d2b57da100bc049551016bf980d1e336f36d33466d62989999e9114ba479060200160405180910390a15b50919050565b6000546001600160a01b03161561187c576040517f0dc149f000000000000000000000000000000000000000000000000000000000815260040160405180910390fd5b6001600160a01b038a16158061189957506001600160a01b038916155b806118ab57506001600160a01b038816155b806118bd57506001600160a01b038716155b806118cf57506001600160a01b038616155b806118e157506001600160a01b038416155b806118f357506001600160a01b038316155b8061190557506001600160a01b038216155b1561193c576040517fd92e233d00000000000000000000000000000000000000000000000000000000815260040160405180910390fd5b600080543373ffffffffffffffffffffffffffffffffffffffff19909116179055600480547f01000000000000000000000000000000000000000000000000000000000000007effffffffffffffffffffffffffffffffffffffffffffffffffffffffffffff909116179055600580547fffffffff0000000000000000ffffffffffffffffffffffffffffffffffffffff167b016345785d8a00000000000000000000000000000000000000000000179055600280546001600160a01b03167d021e19e0c9bab2400000000000000000000000000000000000000000000017905562093a8063ffffffff86161015611a6c576040517f491a2bb10000000000000000000000000000000000000000000000000000000081526004810186905262093a806024820152604401610c9d565b6301e133808563ffffffff161115611abd576040517f7ae59685000000000000000000000000000000000000000000000000000000008152600481018690526301e133806024820152604401610c9d565b6001805473ffffffffffffffffffffffffffffffffffffffff199081166001600160a01b038d81169182179093556002805483168d85161790556003805483168c85161790556004805483168b85161781556008805484168b8616179055600580547bffffffffffffffff000000000000000000000000000000000000000016600160e01b63ffffffff8c16028516178986161790556006805484168886161790556007805484168786161790556009805490931693851693909317909155604080517f8e4a83790000000000000000000000000000000000000000000000000000000081529051600093638e4a8379928082019260209290918290030181865afa158015611bd0573d6000803e3d6000fd5b505050506040513d601f19601f82011682018060405250810190611bf49190615c9d565b9050611c046301e1338082615d03565b4210611c5457611c186301e1338082615d03565b6040517f7ae596850000000000000000000000000000000000000000000000000000000081526004810191909152426024820152604401610c9d565b600042611c656301e1338084615d03565b611c6f9190615d3a565b63ffffffff169050600081611c84600061349c565b611c8e9190615d63565b600180546001600160a01b0316600160a01b6001600160601b0384168102919091178255600780547f81955a0a11e65eac625c29e8882660bae4e165a75d72780094acae8ece9a29f080547fffffffffffffffffffffffffffffffffffffffffffffffff00000000ffffffff1664010000000063ffffffff42811691909102919091179091557fffffffff0000000000000000ffffffffffffffffffffffffffffffffffffffff909116600160c01b918916919091027fffffffffffffffff00000000ffffffffffffffffffffffffffffffffffffffff16179091179055600880547fffffff000000000000000000ffffffffffffffffffffffffffffffffffffffff9081167b0de0b6b3a764000000000000000000000000000000000000000000009081179092557ffd54ff1ed53f34a900b24c5ba64f85761163b5d82d98a47b9bd80e45466993c6805477ffffffffffffffffffffffffffffffffffffffffffffffff167f0de0b6b3a76400000000000000000000000000000000000000000000000000001790557ffd54ff1ed53f34a900b24c5ba64f85761163b5d82d98a47b9bd80e45466993c560208190527fb160a7406e28258be08ad805a9afb846e1966a5cc82707dbcb44ed395fc389ee80547f9786f677b3dff6c36ad0d47ef13860fd51b928c112d9702e0dea2fe690bf6ec18054600480549096169096179094557ffd54ff1ed53f34a900b24c5ba64f85761163b5d82d98a47b9bd80e45466993c7805469ff000000000000000000191669320000000000000000001790557fffffffffffffffffffffffffffff0000ffffffffffffffffffffffffffffffff9081167129530000000000000000000000000000000017909155600094855290921671091100000000000000000000000000000000179055919250603290606482611f3b8d87615d85565b611f459190615d85565b611f4f9190615d63565b600080546001600160601b03909216600160a01b026001600160a01b0392831681179091556003805490921617905550505050505050505050505050505050565b6000546001600160a01b03163314611fd05760005460405163521eb56d60e11b81523360048201526001600160a01b039091166024820152604401610c9d565b6001600160a01b038116612010576040517fd92e233d00000000000000000000000000000000000000000000000000000000815260040160405180910390fd5b7fbd5523e7c3b6a94aa0e3b24d1120addc2f95c7029e097b466b2bedc8d4b4362f8190556040516001600160a01b038216907f3169d1c75b3f98b6d9ddee369523559b661e660be48ef77f1d4a6fe295144c0190600090a250565b6002546001600160a01b031633146120c4576002546040517f625a43fe0000000000000000000000000000000000000000000000000000000081523360048201526001600160a01b039091166024820152604401610c9d565b6009546001600160a01b0316801580159061215d57506040517fd874310e0000000000000000000000000000000000000000000000000000000081526001600160a01b03868116600483015282169063d874310e90602401602060405180830381865afa158015612139573d6000803e3d6000fd5b505050506040513d601f19601f8201168201806040525081019061215d9190615d9c565b1561219f576040517f2e6b90070000000000000000000000000000000000000000000000000000000081526001600160a01b0386166004820152602401610c9d565b835160005b8181101561229f5760075486516001600160a01b0390911690634f558e79908890849081106121d5576121d5615c87565b60200260200101516040518263ffffffff1660e01b81526004016121fb91815260200190565b602060405180830381865afa158015612218573d6000803e3d6000fd5b505050506040513d601f19601f8201168201806040525081019061223c9190615d9c565b61228f5785818151811061225257612252615c87565b60200260200101516040517ff0367891000000000000000000000000000000000000000000000000000000008152600401610c9d91815260200190565b61229881615ccc565b90506121a4565b50600754600160a01b900463ffffffff166000818152600d60205260409020600101546122d5906001600160601b031685615d03565b6000828152600d6020526040902060010180547fffffffffffffffffffffffffffffffffffffffff000000000000000000000000166001600160601b0383161790559350612324868683614a9b565b5050600980547fffffffffffffffff00000000ffffffffffffffffffffffffffffffffffffffff16600160a01b4363ffffffff16021790555050505050565b6000818152600d6020526040812060010154600160c01b900467ffffffffffffffff16908190036123995750670de0b6b3a76400005b919050565b6000546001600160a01b031633146123de5760005460405163521eb56d60e11b81523360048201526001600160a01b039091166024820152604401610c9d565b60646123ea8587615d03565b1115612437576123fa8486615d03565b6040517f312b0033000000000000000000000000000000000000000000000000000000008152600481019190915260646024820152604401610c9d565b6064816124448486615d03565b61244e9190615d03565b1115612469578061245f8385615d03565b6123fa9190615d03565b60075460009061248790600160a01b900463ffffffff166001615dbe565b63ffffffff166000818152600d602090815260408083208380529182905280832080547fffffffffffffffffffffffffffffff00ffffffffffffffffffffffffffffffff90811670010000000000000000000000000000000060ff8e811682029290921790935560018652929094208054909416918a16021790915590915085612512886064615d3a565b61251c9190615d3a565b6002820180547fffffffffffffffffffffffffffffffffffffffffffff0000ffffffffffffffff166801000000000000000060ff9384160269ff00000000000000000019161769010000000000000000008884160217905560008080526020838152604080832080547fffffffffffffffffffffffffffff00ffffffffffffffffffffffffffffffffff908116600160881b8b8816810291909117909255600185529382902080549094169488160293909317909155600480547fff00ffffffffffffffffffffffffffffffffffffffffffffffffffffffffffff8116600160f01b9182900460f890811b7f020000000000000000000000000000000000000000000000000000000000000017901c9091021790558151898152908101889052908101869052606081018590526080810184905282907fae2b39f8604e6163745337d3afee7e612c31d38ae7754fe4c987a87591d3fdf29060a00160405180910390a250505050505050565b6003546001600160a01b031633146126e1576003546040517f625a43fe0000000000000000000000000000000000000000000000000000000081523360048201526001600160a01b039091166024820152604401610c9d565b600354600090612702908390600160a01b90046001600160601b0316615d03565b90506001600160601b03811115612755576040517f7ae59685000000000000000000000000000000000000000000000000000000008152600481018290526001600160601b036024820152604401610c9d565b600380546001600160a01b0316600160a01b6001600160601b038416021790556040518181527f1abb9d2b57da100bc049551016bf980d1e336f36d33466d62989999e9114ba479060200160405180910390a15050565b60008082518451146127f757835183516040517f8151c11000000000000000000000000000000000000000000000000000000000815260048101929092526024820152604401610c9d565b604080516002808252606082018352600092602083019080368337505060055460065483519394506001600160a01b039182169391169150839060009061284057612840615c87565b602002602001018360018151811061285a5761285a615c87565b6001600160a01b039384166020918202929092010152911690526040805160028082526060820190925260009181602001602082028036833701905050905060005b600281101561294d578281815181106128b7576128b7615c87565b60200260200101516001600160a01b03166318160ddd6040518163ffffffff1660e01b8152600401602060405180830381865afa1580156128fc573d6000803e3d6000fd5b505050506040513d601f19601f820116820180604052508101906129209190615c9d565b82828151811061293257612932615c87565b602090810291909101015261294681615ccc565b905061289c565b5060408051600280825260608201835260009260208301908036833701905050905060005b8651811015612bcf57600188828151811061298f5761298f615c87565b602002602001015111156129af5787818151811061103657611036615c87565b818882815181106129c2576129c2615c87565b6020026020010151815181106129da576129da615c87565b60200260200101518782815181106129f4576129f4615c87565b6020026020010151111580612a53575082888281518110612a1757612a17615c87565b602002602001015181518110612a2f57612a2f615c87565b6020026020010151878281518110612a4957612a49615c87565b6020026020010151115b15612a6a5786818151811061113857611138615c87565b868181518110612a7c57612a7c615c87565b602002602001015182898381518110612a9757612a97615c87565b602002602001015181518110612aaf57612aaf615c87565b602002602001018181525050600084898381518110612ad057612ad0615c87565b602002602001015181518110612ae857612ae8615c87565b60200260200101516001600160a01b0316636352211e898481518110612b1057612b10615c87565b60200260200101516040518263ffffffff1660e01b8152600401612b3691815260200190565b602060405180830381865afa158015612b53573d6000803e3d6000fd5b505050506040513d601f19601f82011682018060405250810190612b779190615ce6565b9050896001600160a01b0316816001600160a01b031614612bbe5760405163521eb56d60e11b81526001600160a01b0380831660048301528b166024820152604401610c9d565b50612bc881615ccc565b9050612972565b50600754600160a01b900463ffffffff1660005b875181101561164b576000601060008b8481518110612c0457612c04615c87565b6020026020010151815260200190815260200160002060008a8481518110612c2e57612c2e615c87565b6020026020010151815260200190815260200160002060010160189054906101000a900463ffffffff1663ffffffff169050600081118015612c6f57508281105b15612eea576000601060008c8581518110612c8c57612c8c615c87565b6020026020010151815260200190815260200160002060008b8581518110612cb657612cb6615c87565b6020908102919091018101518252810191909152604001600020546c0100000000000000000000000090046001600160601b031690508015612d6d576000828152600d602052604081208c519091908d9086908110612d1757612d17615c87565b602090810291909101810151825281019190915260400160002054612d5390700100000000000000000000000000000000900460ff1682615d85565b9050612d60606482615d63565b612d6a908a615d03565b98505b601060008c8581518110612d8357612d83615c87565b6020026020010151815260200190815260200160002060008b8581518110612dad57612dad615c87565b6020908102919091018101518252810191909152604001600020600101546c0100000000000000000000000090046001600160601b031690508015612ee8576000828152600d6020526040902060010154612e21906c0100000000000000000000000090046001600160601b031682615d85565b6000838152600d602052604081208d51929350918d9086908110612e4757612e47615c87565b602090810291909101810151825281019190915260400160002054612e7690600160881b900460ff1682615d85565b6000838152600d602052604081208d51929350909182908e9087908110612e9f57612e9f615c87565b602090810291909101810151825281019190915260400160002054612ece906001600160601b03166064615d85565b9050612eda8183615d63565b612ee4908a615d03565b9850505b505b601060008b8481518110612f0057612f00615c87565b6020026020010151815260200190815260200160002060008a8481518110612f2a57612f2a615c87565b602090810291909101810151825281019190915260400160002054612f58906001600160601b031689615d03565b9750601060008b8481518110612f7057612f70615c87565b6020026020010151815260200190815260200160002060008a8481518110612f9a57612f9a615c87565b602090810291909101810151825281019190915260400160002060010154612fcb906001600160601b031688615d03565b96505080612fd890615ccc565b9050612be3565b6000546001600160a01b0316331461301f5760005460405163521eb56d60e11b81523360048201526001600160a01b039091166024820152604401610c9d565b655af3107a40008568ffffffffffffffffff16111561307857600880547fffffff000000000000000000ffffffffffffffffffffffffffffffffffffffff16600160a01b68ffffffffffffffffff881602179055613090565b600854600160a01b900468ffffffffffffffffff1694505b655af3107a40008468ffffffffffffffffff1611156130e957600480547fffffff000000000000000000ffffffffffffffffffffffffffffffffffffffff16600160a01b68ffffffffffffffffff871602179055613101565b600454600160a01b900468ffffffffffffffffff1693505b600083118015613119575067ebec21ee1da400008311155b1561315d57600580547fffffffff0000000000000000ffffffffffffffffffffffffffffffffffffffff16600160a01b67ffffffffffffffff861602179055613174565b600554600160a01b900467ffffffffffffffff1692505b62093a808263ffffffff161015801561319757506301e133808263ffffffff1611155b156131d357600780547bffffffffffffffffffffffffffffffffffffffffffffffffffffffff16600160e01b63ffffffff8516021790556131e6565b600554600160e01b900463ffffffff1691505b6001600160601b0381161561321a57600680546001600160a01b0316600160a01b6001600160601b0384160217905561322f565b50600254600160a01b90046001600160601b03165b600480547fff00ffffffffffffffffffffffffffffffffffffffffffffffffffffffffffff8116600160f01b9182900460f890811b7f010000000000000000000000000000000000000000000000000000000000000017901c9091021790556007546132a990600160a01b900463ffffffff166001615dbe565b6040805187815260208101879052908101859052606081018490526080810183905263ffffffff91909116907ffa70700738796f35131cdaba4cd58eeaadbd8d195956e3edc4548b2618ce42209060a00160405180910390a25050505050565b60055460015460009161333a91600160e01b90910463ffffffff1690600160a01b90046001600160601b0316615ddb565b6001600160601b0316905090565b6000600a82101561343a5760408051610140810182526b01b61fa7ec7fcb65c6e0000081526b01d76bca30a62dccbe70000060208201526b0212594376baf386563e0000918101919091526b024a0ebda498bccab4dc000060608201526b027dca0b6e7dd7919790000060808201526b02ad19383c6d5d6f17e9000060a08201526b02d7cd9c5938c120a56b000060c08201526b02fded253b1a6e7568cd000060e08201526b031fa4073ba3d4885fb400006101008201526b033b2e3c9fd0803ce80000006101208201528083600a811061342557613425615c87565b60200201516001600160601b03169392505050565b613445600983615d3a565b91506b033b2e3c9fd0803ce80000009050600260005b8381101561349557606461346f8385615d85565b6134799190615d63565b6134839084615d03565b925061348e81615ccc565b905061345b565b5050919050565b6000600a8210156135885760408051610140810182526a029cf1bbaf54ae2860000081526a214c2244266266f790000060208201526a3aed794614c5b997ce0000918101919091526a37b57a2dddc9445e9e000060608201526a33bb4dc9e51ac6e2b4000060808201526a2f4f2ccdef85dd8059000060a08201526a2ab4641ccb63b18d82000060c08201526a261f88e1e1ad54c362000060e08201526a21b6e200896612f6e700006101008201526a1b8a35642cabb4884c00006101208201528083600a811061356f5761356f615c87565b60200201516affffffffffffffffffffff169392505050565b613593600983615d3a565b91506b033b2e3c9fd0803ce8000000600260015b848110156135e15760646135bb8385615d85565b6135c59190615d63565b6135cf9084615d03565b92506135da81615ccc565b90506135a7565b5060646135ee8284615d85565b6135f89190615d63565b949350505050565b6000546001600160a01b031633146136405760005460405163521eb56d60e11b81523360048201526001600160a01b039091166024820152604401610c9d565b6001600160a01b038116613680576040517fd92e233d00000000000000000000000000000000000000000000000000000000815260040160405180910390fd5b6000805473ffffffffffffffffffffffffffffffffffffffff19166001600160a01b038316908117825560405190917f4ffd725fc4a22075e9ec71c59edf9c38cdeb588a91b24fc5b61388c5be41282b91a250565b7fbd5523e7c3b6a94aa0e3b24d1120addc2f95c7029e097b466b2bedc8d4b4362f546000906001600160a01b03811661373a576040517ff56b123b00000000000000000000000000000000000000000000000000000000815260040160405180910390fd5b60095443600160a01b90910463ffffffff1603613783576040517fd077049600000000000000000000000000000000000000000000000000000000815260040160405180910390fd5b6000600d60006001600760149054906101000a900463ffffffff166137a89190615d16565b63ffffffff90811682526020820192909252604001600090812060020154640100000000900490911691506137dd8242615d3a565b600554909150600160e01b900463ffffffff168082108061380157506301e1338082115b1561381157600094505050505090565b6007805463ffffffff600160a01b909104166000818152600d6020526040808220815185815261010081019092529293816020016020820280368337505050600183015481519192506001600160601b031690829060009061387557613875615c87565b60209081029190910101526002820154815160649168010000000000000000900460ff169083906000906138ab576138ab615c87565b60200260200101516138bd9190615d85565b6138c79190615d63565b816001815181106138da576138da615c87565b6020908102919091018101919091526000808052908390526040812054825160649270010000000000000000000000000000000090920460ff1691849161392357613923615c87565b60200260200101516139359190615d85565b61393f9190615d63565b8160028151811061395257613952615c87565b60209081029190910181019190915260016000908152908390526040812054825160649270010000000000000000000000000000000090920460ff1691849161399d5761399d615c87565b60200260200101516139af9190615d85565b6139b99190615d63565b816003815181106139cc576139cc615c87565b6020908102919091010152600154600754600091600160a01b90046001600160601b03169082906301e1338090613a1090600160c01b900463ffffffff1642615d3a565b613a1a9190615d63565b6004549091507d010000000000000000000000000000000000000000000000000000000000900460ff16811115613bc1576000613a5b6301e1338083615d85565b600754613a759190600160c01b900463ffffffff16615d03565b905082613a828b83615d3a565b613a8c9190615d85565b93506301e13380613a9c8361349c565b613aa69190615d63565b925082613ab38242615d3a565b613abd9190615d85565b613ac79085615d03565b600180546001600160a01b0316600160a01b6001600160601b03871602179055600480547fff0000ffffffffffffffffffffffffffffffffffffffffffffffffffffffffff81167fff00ffffffffffffffffffffffffffffffffffffffffffffffffffffffffffff7d01000000000000000000000000000000000000000000000000000000000060ff88160290811691909117600160f01b7fffff00ffffffffffffffffffffffffffffffffffffffffffffffffffffffffff90931690911782900460f890811b7f040000000000000000000000000000000000000000000000000000000000000017901c9091021790559350613bce9050565b613bcb8883615d85565b92505b6001850180547fffffffffffffffff000000000000000000000000ffffffffffffffffffffffff166c010000000000000000000000006001600160601b038616021790556002850154606490613c34906901000000000000000000900460ff1685615d85565b613c3e9190615d63565b84600481518110613c5157613c51615c87565b60209081029190910101526000548451600160a01b9091046001600160601b031690819086906004908110613c8857613c88615c87565b60200260200101511115613d3d578085600481518110613caa57613caa615c87565b6020908102919091010151600354613cd29190600160a01b90046001600160601b0316615d03565b613cdc9190615d3a565b85600481518110613cef57613cef615c87565b60200260200101818152505084600481518110613d0e57613d0e615c87565b6020026020010151600360146101000a8154816001600160601b0302191690836001600160601b031602179055505b6000600d81613d4d8a6001615d03565b815260208101919091526040016000206004549091507f0200000000000000000000000000000000000000000000000000000000000000600160f01b90910460f81b81169003613dd057613da2886001615d03565b6040517f39bc2730fdcfae4cff08b4c64064b1a739e0e3e45a0452a208c878a9cc11868590600090a2613f46565b60005b6002811015613eab57600081815260208981526040808320805492869052922080547fffffffffffffffffffffffffffff00ffffffffffffffffffffffffffffffffff8116600160881b9384900460ff908116909402908117835593547fffffffffffffffffffffffffffff0000ffffffffffffffffffffffffffffffff9091167fffffffffffffffffffffffffffffff00ffffffffffffffffffffffffffffffff9094169390931770010000000000000000000000000000000093849004909216909202179055613ea481615ccc565b9050613dd3565b5060028088018054918301805460ff680100000000000000009485900481169094027fffffffffffffffffffffffffffffffffffffffffffffff00ffffffffffffffff821681178355925469010000000000000000009081900490941690930269ff000000000000000000199092167fffffffffffffffffffffffffffffffffffffffffffff0000ffffffffffffffff909316929092171790555b6004547f0100000000000000000000000000000000000000000000000000000000000000600160f01b90910460f81b8116900361405557600754600160e01b900463ffffffff1615613fdb57600780546005805463ffffffff600160e01b808504919091169081027bffffffffffffffffffffffffffffffffffffffffffffffffffffffff9283161790925590911690915598505b600654600160a01b90046001600160601b0316156140205760068054600280546001600160a01b03908116600160a01b8085046001600160601b031602179091551690555b61402b886001615d03565b6040517f66860869553d03484d66e9fad30245295f3909a03820e819dc9a8d94612e25f790600090a25b60028701805463ffffffff42818116640100000000027fffffffffffffffffffffffffffffffffffffffffffffffff00000000ffffffff909316929092179092556007546301e1338092600160c01b90910416906140b4908c90615d03565b6140be9190615d3a565b6140c89190615d63565b6004549093507d010000000000000000000000000000000000000000000000000000000000900460ff168311156142005760006141096301e1338085615d85565b6007546141239190600160c01b900463ffffffff16615d03565b9050846141304283615d3a565b61413a9190615d85565b95506301e1338061414a8561349c565b6141549190615d63565b945084816141628c42615d03565b61416c9190615d3a565b6141769190615d85565b6141809087615d03565b60028301549096506064906141a5906901000000000000000000900460ff1688615d85565b6141af9190615d63565b600080546001600160a01b0316600160a01b6001600160601b03841602179055600480547fff00ffffffffffffffffffffffffffffffffffffffffffffffffffffffffffff16905592506142b59050565b600454600160f01b900460f81b7fff0000000000000000000000000000000000000000000000000000000000000016156142b55760028101546064906901000000000000000000900460ff16614256868c615d85565b6142609190615d85565b61426a9190615d63565b600080546001600160a01b0316600160a01b6001600160601b03841602179055600480547fff00ffffffffffffffffffffffffffffffffffffffffffffffffffffffffffff16905591505b6003546142d290600160a01b90046001600160601b031683615d03565b600380546001600160a01b0316600160a01b6001600160601b0384160217905586519092506000908790829061430a5761430a615c87565b602002602001015111156143bb57600061434b8760018151811061433057614330615c87565b602090810291909101015160028a015463ffffffff16615575565b60018301805477ffffffffffffffffffffffffffffffffffffffffffffffff16600160c01b67ffffffffffffffff8416021790556040518181529091507f0ed5cb8014905e189c84ea644a5389aeda2840571fb3968a2ddbca0cee4f52f79060200160405180910390a150614400565b60018101805477ffffffffffffffffffffffffffffffffffffffffffffffff167f0de0b6b3a76400000000000000000000000000000000000000000000000000001790555b60008660038151811061441557614415615c87565b60200260200101518760028151811061443057614430615c87565b60200260200101516144429190615d03565b600080805260208a9052604090205490915060649061446b90600160881b900460ff1688615d85565b6144759190615d63565b8760058151811061448857614488615c87565b602090810291909101810191909152600160009081529089905260409020546064906144be90600160881b900460ff1688615d85565b6144c89190615d63565b876006815181106144db576144db615c87565b6020026020010181815250506000876006815181106144fc576144fc615c87565b60200260200101518860058151811061451757614517615c87565b60200260200101516145299190615d03565b90508760018151811061453e5761453e615c87565b6020026020010151600014806145e2575060025488516001600160a01b039091169063f60ccd3a908a90600190811061457957614579615c87565b60200260200101516040518263ffffffff1660e01b815260040161459f91815260200190565b6020604051808303816000875af11580156145be573d6000803e3d6000fd5b505050506040513d601f19601f820116820180604052508101906145e29190615d9c565b1561467e57897f979278ab16b75c9eb8cd334837b7d1bcc0e7a3df0cd9f32beb3b2cad1268284d8960018151811061461c5761461c615c87565b60200260200101518484604051614646939291909283526020830191909152604082015260600190565b60405180910390a26146598a6001615d03565b600760146101000a81548163ffffffff021916908363ffffffff1602179055506146b3565b6040517f837ce0c5000000000000000000000000000000000000000000000000000000008152600481018b9052602401610c9d565b60019e50505050505050505050505050505090565b6000546001600160a01b031633146147085760005460405163521eb56d60e11b81523360048201526001600160a01b039091166024820152604401610c9d565b6001600160a01b0383161561476c576002805473ffffffffffffffffffffffffffffffffffffffff19166001600160a01b0385169081179091556040517f7dae230f18360d76a040c81f050aa14eb9d6dc7901b20fc5d855e2a20fe814d190600090a25b6001600160a01b038216156147d0576003805473ffffffffffffffffffffffffffffffffffffffff19166001600160a01b0384169081179091556040517fcd22b277e2781665af395ae4868b7fd80cf6d9e06a5a740a9c4746922a25a22390600090a25b6001600160a01b03811615610dd2576004805473ffffffffffffffffffffffffffffffffffffffff19166001600160a01b0383169081179091556040517fe4915bbde794cce5e56670cce1c0048ef68276040acd048bdb7157ded9232b4890600090a2505050565b60008281526010602090815260408083208484529091529020546c0100000000000000000000000090046001600160601b03168015614933576000848152600d602090815260408083208684529091529020546148ac90700100000000000000000000000000000000900460ff1682615d85565b90506148b9606482615d63565b60008481526010602090815260408083208684529091529020546148e691906001600160601b0316615d03565b6000848152601060209081526040808320868452909152902080547fffffffffffffffff000000000000000000000000000000000000000000000000166001600160601b03831617905590505b5060008281526010602090815260408083208484529091529020600101546c0100000000000000000000000090046001600160601b03168015614a95576000848152600d60205260409020600101546149a5906c0100000000000000000000000090046001600160601b031682615d85565b6000858152600d602090815260408083208784529091529020549091506149d690600160881b900460ff1682615d85565b6000858152600d6020908152604080832087845290915281205491925090614a08906001600160601b03166064615d85565b9050614a148183615d63565b6000858152601060209081526040808320878452909152902060010154614a4491906001600160601b0316615d03565b6000858152601060209081526040808320878452909152902060010180547fffffffffffffffff000000000000000000000000000000000000000000000000166001600160601b0383161790559150505b50505050565b604080516002808252606082018352600092602083019080368337505060055460065483519394506001600160a01b0391821693911691508390600090614ae457614ae4615c87565b6020026020010183600181518110614afe57614afe615c87565b6001600160a01b0393841660209182029290920101529116905260408051600480825260a08201909252600091816020016020820280368337019050506000848152600d602090815260408083208380529091528120548251929350700100000000000000000000000000000000900460ff16151591839190614b8357614b83615c87565b9115156020928302919091018201526000848152600d8252604080822060018084529352902054825170010000000000000000000000000000000090910460ff1615159183918110614bd757614bd7615c87565b9115156020928302919091018201526000848152600d8252604080822082805290925220548151600160881b90910460ff1615159082906002908110614c1f57614c1f615c87565b9115156020928302919091018201526000848152600d825260408082206001835290925220548151600160881b90910460ff1615159082906003908110614c6857614c68615c87565b91151560209283029190910190910152845160005b8181101561556c57600083600281518110614c9a57614c9a615c87565b602002602001015180614cc4575083600381518110614cbb57614cbb615c87565b60200260200101515b15614e0b5760075488516000916001600160a01b031690636352211e908b9086908110614cf357614cf3615c87565b60200260200101516040518263ffffffff1660e01b8152600401614d1991815260200190565b602060405180830381865afa158015614d36573d6000803e3d6000fd5b505050506040513d601f19601f82011682018060405250810190614d5a9190615ce6565b6002546008546040517f9ab24eb00000000000000000000000000000000000000000000000000000000081526001600160a01b038085166004830152939450600160a01b9092046001600160601b0316921690639ab24eb090602401602060405180830381865afa158015614dd3573d6000803e3d6000fd5b505050506040513d601f19601f82011682018060405250810190614df79190615c9d565b1015614e04576000614e07565b60015b9150505b60005b60028110156155595760075460009081906001600160a01b03166392080b23846001811115614e3f57614e3f615e06565b8d8881518110614e5157614e51615c87565b60200260200101516040518363ffffffff1660e01b8152600401614e76929190615e1c565b600060405180830381865afa158015614e93573d6000803e3d6000fd5b505050506040513d6000823e601f3d908101601f19168201604052614ebb9190810190615e48565b9150915081600003614f16578a8581518110614ed957614ed9615c87565b60200260200101516040517f7cdffd4e000000000000000000000000000000000000000000000000000000008152600401610c9d91815260200190565b868381518110614f2857614f28615c87565b602002602001015180614f5b575086614f42846002615d03565b81518110614f5257614f52615c87565b60200260200101515b156152b9576000828b8781518110614f7557614f75615c87565b6020026020010151614f879190615d63565b905060005b838110156152b657600085815260106020526040812084518290869085908110614fb857614fb8615c87565b602002602001015163ffffffff16815260200190815260200160002060010160189054906101000a900463ffffffff1663ffffffff1690508060000361505f57600086815260106020526040812085518e929087908690811061501d5761501d615c87565b602002602001015163ffffffff16815260200190815260200160002060010160186101000a81548163ffffffff021916908363ffffffff1602179055506150f4565b8b8110156150f457615091818786858151811061507e5761507e615c87565b602002602001015163ffffffff16614838565b600086815260106020526040812085518e92908790869081106150b6576150b6615c87565b602002602001015163ffffffff16815260200190815260200160002060010160186101000a81548163ffffffff021916908363ffffffff1602179055505b89868151811061510657615106615c87565b60200260200101511561519d576000868152601060205260408120855185929087908690811061513857615138615c87565b602002602001015163ffffffff168152602001908152602001600020600001600c8282829054906101000a90046001600160601b03166151789190615ef8565b92506101000a8154816001600160601b0302191690836001600160601b031602179055505b8680156151ca5750896151b1876002615d03565b815181106151c1576151c1615c87565b60200260200101515b156152a557600086815260106020526040812085518592908790869081106151f4576151f4615c87565b602002602001015163ffffffff168152602001908152602001600020600101600c8282829054906101000a90046001600160601b03166152349190615ef8565b82546101009290920a6001600160601b0381810219909316918316021790915560008e8152600d602090815260408083208b845290915281208054879450909261528091859116615ef8565b92506101000a8154816001600160601b0302191690836001600160601b031602179055505b506152af81615ccc565b9050614f8c565b50505b60005b8281101561554557600e600085815260200190815260200160002060008383815181106152eb576152eb615c87565b60209081029190910181015163ffffffff1682528101919091526040016000205460ff16615535576000848152600e6020526040812083516001929085908590811061533957615339615c87565b60209081029190910181015163ffffffff9081168352828201939093526040918201600090812080547fffffffffffffffffffffffffffffffffffffffffffffffffffffffffffffff0016951515959095179094558d8452600d8152818420888552905290912080546c01000000000000000000000000900490911690600c6153c183615f18565b91906101000a81548163ffffffff021916908363ffffffff1602179055505060008985815181106153f4576153f4615c87565b60200260200101516001600160a01b0316636352211e84848151811061541c5761541c615c87565b60200260200101516040518263ffffffff1660e01b815260040161544c919063ffffffff91909116815260200190565b602060405180830381865afa158015615469573d6000803e3d6000fd5b505050506040513d601f19601f8201168201806040525081019061548d9190615ce6565b6001600160a01b0381166000908152600f602052604090205490915060ff16615533576001600160a01b0381166000908152600f6020908152604080832080547fffffffffffffffffffffffffffffffffffffffffffffffffffffffffffffff001660011790558d8352600d9091528120600201805463ffffffff169161551383615f18565b91906101000a81548163ffffffff021916908363ffffffff160217905550505b505b61553e81615ccc565b90506152bc565b5050508061555290615ccc565b9050614e0e565b50508061556590615ccc565b9050614c7d565b50505050505050565b60045460085460009168ffffffffffffffffff600160a01b9182900481169286929004166155a38282615631565b915060006155b086615647565b90506155bc8382615658565b92506155c88385615631565b92506155dd8368056bc75e2d63100000615667565b6005549093508390600160a01b900467ffffffffffffffff168111156156135750600554600160a01b900467ffffffffffffffff165b61562581670de0b6b3a7640000615d03565b98975050505050505050565b6000615640611755848461567f565b9392505050565b600061565282615766565b92915050565b60006156406117558385615d03565b600061564061175584670de0b6b3a7640000856157c6565b60008080600019848609848602925082811083820303915050670de0b6b3a764000081106156e3576040517f5173648d0000000000000000000000000000000000000000000000000000000081526004810186905260248101859052604401610c9d565b6000670de0b6b3a764000085870990508160000361570f575050670de0b6b3a764000090049050615652565b6204000081840304921090037d40000000000000000000000000000000000000000000000000000000000002177faccb18165bd6fe31ae1cf318dc5b51eee0e1ba569b88cd74c1773b91fac1066902905092915050565b600061577c670de0b6b3a7640000600019615d63565b8211156157b8576040517f1cd951a700000000000000000000000000000000000000000000000000000000815260048101839052602401610c9d565b50670de0b6b3a76400000290565b6000808060001985870985870292508281108382030391505080600003615800578382816157f6576157f6615d4d565b0492505050615640565b83811061584a576040517f63a05778000000000000000000000000000000000000000000000000000000008152600481018790526024810186905260448101859052606401610c9d565b600084868809600260036001881981018916988990049182028318808302840302808302840302808302840302808302840302808302840302918202909203026000889003889004909101858311909403939093029303949094049190911702949350505050565b6001600160a01b03811681146158c757600080fd5b50565b6000806000606084860312156158df57600080fd5b83356158ea816158b2565b925060208401356158fa816158b2565b9150604084013561590a816158b2565b809150509250925092565b60006020828403121561592757600080fd5b8135615640816158b2565b60006020828403121561594457600080fd5b5035919050565b634e487b7160e01b600052604160045260246000fd5b604051601f8201601f1916810167ffffffffffffffff8111828210171561598a5761598a61594b565b604052919050565b600067ffffffffffffffff8211156159ac576159ac61594b565b5060051b60200190565b600082601f8301126159c757600080fd5b813560206159dc6159d783615992565b615961565b82815260059290921b840181019181810190868411156159fb57600080fd5b8286015b84811015615a1657803583529183019183016159ff565b509695505050505050565b600080600060608486031215615a3657600080fd5b8335615a41816158b2565b9250602084013567ffffffffffffffff80821115615a5e57600080fd5b615a6a878388016159b6565b93506040860135915080821115615a8057600080fd5b50615a8d868287016159b6565b9150509250925092565b6000806000806000806000806000806101408b8d031215615ab757600080fd5b8a35615ac2816158b2565b995060208b0135615ad2816158b2565b985060408b0135615ae2816158b2565b975060608b0135615af2816158b2565b965060808b0135615b02816158b2565b955060a08b0135945060c08b0135615b19816158b2565b935060e08b0135615b29816158b2565b92506101008b0135615b3a816158b2565b91506101208b0135615b4b816158b2565b809150509295989b9194979a5092959850565b60008060008060808587031215615b7457600080fd5b8435615b7f816158b2565b9350602085013567ffffffffffffffff80821115615b9c57600080fd5b615ba8888389016159b6565b94506040870135915080821115615bbe57600080fd5b50615bcb878288016159b6565b949793965093946060013593505050565b60008060408385031215615bef57600080fd5b50508035926020909101359150565b600080600080600060a08688031215615c1657600080fd5b505083359560208501359550604085013594606081013594506080013592509050565b600060208083528351808285015260005b81811015615c6657858101830151858201604001528201615c4a565b506000604082860101526040601f19601f8301168501019250505092915050565b634e487b7160e01b600052603260045260246000fd5b600060208284031215615caf57600080fd5b5051919050565b634e487b7160e01b600052601160045260246000fd5b60006000198203615cdf57615cdf615cb6565b5060010190565b600060208284031215615cf857600080fd5b8151615640816158b2565b8082018082111561565257615652615cb6565b63ffffffff828116828216039080821115615d3357615d33615cb6565b5092915050565b8181038181111561565257615652615cb6565b634e487b7160e01b600052601260045260246000fd5b600082615d8057634e487b7160e01b600052601260045260246000fd5b500490565b808202811582820484141761565257615652615cb6565b600060208284031215615dae57600080fd5b8151801515811461564057600080fd5b63ffffffff818116838216019080821115615d3357615d33615cb6565b6001600160601b03818116838216028082169190828114615dfe57615dfe615cb6565b505092915050565b634e487b7160e01b600052602160045260246000fd5b6040810160028410615e3e57634e487b7160e01b600052602160045260246000fd5b9281526020015290565b60008060408385031215615e5b57600080fd5b8251915060208084015167ffffffffffffffff811115615e7a57600080fd5b8401601f81018613615e8b57600080fd5b8051615e996159d782615992565b81815260059190911b82018301908381019088831115615eb857600080fd5b928401925b82841015615ee957835163ffffffff81168114615eda5760008081fd5b82529284019290840190615ebd565b80955050505050509250929050565b6001600160601b03818116838216019080821115615d3357615d33615cb6565b600063ffffffff808316818103615f3157615f31615cb6565b600101939250505056fea2646970667358221220a968509f20b24076e843e81698c41689b42725b72447ec2b14c2c1e650bc3a9264736f6c63430008120033",
  "linkReferences": {},
  "deployedLinkReferences": {}
}