{
  "_format": "hh-sol-artifact-1",
  "contractName": "Treasury",
  "sourceName": "contracts/Treasury.sol",
  "abi": [
    {
      "inputs": [
        {
          "internalType": "address",
          "name": "_olas",
          "type": "address"
        },
        {
          "internalType": "address",
          "name": "_tokenomics",
          "type": "address"
        },
        {
          "internalType": "address",
          "name": "_depository",
          "type": "address"
        },
        {
          "internalType": "address",
          "name": "_dispenser",
          "type": "address"
        }
      ],
      "stateMutability": "payable",
      "type": "constructor"
    },
    {
      "inputs": [],
      "name": "AlreadyInitialized",
      "type": "error"
    },
    {
      "inputs": [
        {
          "internalType": "uint256",
          "name": "bondId",
          "type": "uint256"
        }
      ],
      "name": "BondNotRedeemable",
      "type": "error"
    },
    {
      "inputs": [
        {
          "internalType": "address",
          "name": "account",
          "type": "address"
        },
        {
          "internalType": "uint256",
          "name": "reward",
          "type": "uint256"
        },
        {
          "internalType": "uint256",
          "name": "topUp",
          "type": "uint256"
        }
      ],
      "name": "ClaimIncentivesFailed",
      "type": "error"
    },
    {
      "inputs": [],
      "name": "DelegatecallOnly",
      "type": "error"
    },
    {
      "inputs": [
        {
          "internalType": "address",
          "name": "account",
          "type": "address"
        }
      ],
      "name": "DonatorBlacklisted",
      "type": "error"
    },
    {
      "inputs": [
        {
          "internalType": "uint256",
          "name": "provided",
          "type": "uint256"
        },
        {
          "internalType": "uint256",
          "name": "expected",
          "type": "uint256"
        }
      ],
      "name": "InsufficientAllowance",
      "type": "error"
    },
    {
      "inputs": [
        {
          "internalType": "uint256",
          "name": "provided",
          "type": "uint256"
        },
        {
          "internalType": "uint256",
          "name": "expected",
          "type": "uint256"
        }
      ],
      "name": "LowerThan",
      "type": "error"
    },
    {
      "inputs": [
        {
          "internalType": "address",
          "name": "sender",
          "type": "address"
        },
        {
          "internalType": "address",
          "name": "manager",
          "type": "address"
        }
      ],
      "name": "ManagerOnly",
      "type": "error"
    },
    {
      "inputs": [],
      "name": "NonZeroValue",
      "type": "error"
    },
    {
      "inputs": [
        {
          "internalType": "uint256",
          "name": "provided",
          "type": "uint256"
        },
        {
          "internalType": "uint256",
          "name": "max",
          "type": "uint256"
        }
      ],
      "name": "Overflow",
      "type": "error"
    },
    {
      "inputs": [
        {
          "internalType": "address",
          "name": "sender",
          "type": "address"
        },
        {
          "internalType": "address",
          "name": "owner",
          "type": "address"
        }
      ],
      "name": "OwnerOnly",
      "type": "error"
    },
    {
      "inputs": [],
      "name": "Paused",
      "type": "error"
    },
    {
      "inputs": [
        {
          "internalType": "uint256",
          "name": "productId",
          "type": "uint256"
        }
      ],
      "name": "ProductClosed",
      "type": "error"
    },
    {
      "inputs": [
        {
          "internalType": "address",
          "name": "tokenAddress",
          "type": "address"
        },
        {
          "internalType": "uint256",
          "name": "productId",
          "type": "uint256"
        },
        {
          "internalType": "uint256",
          "name": "deadline",
          "type": "uint256"
        },
        {
          "internalType": "uint256",
          "name": "curTime",
          "type": "uint256"
        }
      ],
      "name": "ProductExpired",
      "type": "error"
    },
    {
      "inputs": [
        {
          "internalType": "address",
          "name": "tokenAddress",
          "type": "address"
        },
        {
          "internalType": "uint256",
          "name": "productId",
          "type": "uint256"
        },
        {
          "internalType": "uint256",
          "name": "requested",
          "type": "uint256"
        },
        {
          "internalType": "uint256",
          "name": "actual",
          "type": "uint256"
        }
      ],
      "name": "ProductSupplyLow",
      "type": "error"
    },
    {
      "inputs": [],
      "name": "ReentrancyGuard",
      "type": "error"
    },
    {
      "inputs": [],
      "name": "SameBlockNumberViolation",
      "type": "error"
    },
    {
      "inputs": [
        {
          "internalType": "uint256",
          "name": "serviceId",
          "type": "uint256"
        }
      ],
      "name": "ServiceDoesNotExist",
      "type": "error"
    },
    {
      "inputs": [
        {
          "internalType": "uint256",
          "name": "serviceId",
          "type": "uint256"
        }
      ],
      "name": "ServiceNeverDeployed",
      "type": "error"
    },
    {
      "inputs": [
        {
          "internalType": "address",
          "name": "token",
          "type": "address"
        },
        {
          "internalType": "address",
          "name": "from",
          "type": "address"
        },
        {
          "internalType": "address",
          "name": "to",
          "type": "address"
        },
        {
          "internalType": "uint256",
          "name": "amount",
          "type": "uint256"
        }
      ],
      "name": "TransferFailed",
      "type": "error"
    },
    {
      "inputs": [
        {
          "internalType": "uint256",
          "name": "epochNumber",
          "type": "uint256"
        }
      ],
      "name": "TreasuryRebalanceFailed",
      "type": "error"
    },
    {
      "inputs": [
        {
          "internalType": "address",
          "name": "tokenAddress",
          "type": "address"
        }
      ],
      "name": "UnauthorizedToken",
      "type": "error"
    },
    {
      "inputs": [
        {
          "internalType": "uint256",
          "name": "provided",
          "type": "uint256"
        },
        {
          "internalType": "uint256",
          "name": "expected",
          "type": "uint256"
        }
      ],
      "name": "WrongAmount",
      "type": "error"
    },
    {
      "inputs": [
        {
          "internalType": "uint256",
          "name": "numValues1",
          "type": "uint256"
        },
        {
          "internalType": "uint256",
          "name": "numValues2",
          "type": "uint256"
        }
      ],
      "name": "WrongArrayLength",
      "type": "error"
    },
    {
      "inputs": [
        {
          "internalType": "address",
          "name": "provided",
          "type": "address"
        },
        {
          "internalType": "address",
          "name": "expected",
          "type": "address"
        }
      ],
      "name": "WrongTokenAddress",
      "type": "error"
    },
    {
      "inputs": [
        {
          "internalType": "uint256",
          "name": "unitId",
          "type": "uint256"
        },
        {
          "internalType": "uint256",
          "name": "unitType",
          "type": "uint256"
        }
      ],
      "name": "WrongUnitId",
      "type": "error"
    },
    {
      "inputs": [],
      "name": "ZeroAddress",
      "type": "error"
    },
    {
      "inputs": [],
      "name": "ZeroValue",
      "type": "error"
    },
    {
      "anonymous": false,
      "inputs": [
        {
          "indexed": true,
          "internalType": "address",
          "name": "account",
          "type": "address"
        },
        {
          "indexed": true,
          "internalType": "address",
          "name": "token",
          "type": "address"
        },
        {
          "indexed": false,
          "internalType": "uint256",
          "name": "tokenAmount",
          "type": "uint256"
        },
        {
          "indexed": false,
          "internalType": "uint256",
          "name": "olasAmount",
          "type": "uint256"
        }
      ],
      "name": "DepositTokenFromAccount",
      "type": "event"
    },
    {
      "anonymous": false,
      "inputs": [
        {
          "indexed": true,
          "internalType": "address",
          "name": "depository",
          "type": "address"
        }
      ],
      "name": "DepositoryUpdated",
      "type": "event"
    },
    {
      "anonymous": false,
      "inputs": [
        {
          "indexed": true,
          "internalType": "address",
          "name": "token",
          "type": "address"
        }
      ],
      "name": "DisableToken",
      "type": "event"
    },
    {
      "anonymous": false,
      "inputs": [
        {
          "indexed": true,
          "internalType": "address",
          "name": "dispenser",
          "type": "address"
        }
      ],
      "name": "DispenserUpdated",
      "type": "event"
    },
    {
      "anonymous": false,
      "inputs": [
        {
          "indexed": true,
          "internalType": "address",
          "name": "sender",
          "type": "address"
        },
        {
          "indexed": false,
          "internalType": "uint256[]",
          "name": "serviceIds",
          "type": "uint256[]"
        },
        {
          "indexed": false,
          "internalType": "uint256[]",
          "name": "amounts",
          "type": "uint256[]"
        },
        {
          "indexed": false,
          "internalType": "uint256",
          "name": "donation",
          "type": "uint256"
        }
      ],
      "name": "DonateToServicesETH",
      "type": "event"
    },
    {
      "anonymous": false,
      "inputs": [
        {
          "indexed": true,
          "internalType": "address",
          "name": "token",
          "type": "address"
        }
      ],
      "name": "EnableToken",
      "type": "event"
    },
    {
      "anonymous": false,
      "inputs": [
        {
          "indexed": false,
          "internalType": "uint256",
          "name": "amount",
          "type": "uint256"
        }
      ],
      "name": "MinAcceptedETHUpdated",
      "type": "event"
    },
    {
      "anonymous": false,
      "inputs": [
        {
          "indexed": true,
          "internalType": "address",
          "name": "owner",
          "type": "address"
        }
      ],
      "name": "OwnerUpdated",
      "type": "event"
    },
    {
      "anonymous": false,
      "inputs": [],
      "name": "PauseTreasury",
      "type": "event"
    },
    {
      "anonymous": false,
      "inputs": [
        {
          "indexed": true,
          "internalType": "address",
          "name": "sender",
          "type": "address"
        },
        {
          "indexed": false,
          "internalType": "uint256",
          "name": "amount",
          "type": "uint256"
        }
      ],
      "name": "ReceiveETH",
      "type": "event"
    },
    {
      "anonymous": false,
      "inputs": [
        {
          "indexed": true,
          "internalType": "address",
          "name": "tokenomics",
          "type": "address"
        }
      ],
      "name": "TokenomicsUpdated",
      "type": "event"
    },
    {
      "anonymous": false,
      "inputs": [],
      "name": "UnpauseTreasury",
      "type": "event"
    },
    {
      "anonymous": false,
      "inputs": [
        {
          "indexed": false,
          "internalType": "uint256",
          "name": "ETHOwned",
          "type": "uint256"
        },
        {
          "indexed": false,
          "internalType": "uint256",
          "name": "ETHFromServices",
          "type": "uint256"
        }
      ],
      "name": "UpdateTreasuryBalances",
      "type": "event"
    },
    {
      "anonymous": false,
      "inputs": [
        {
          "indexed": true,
          "internalType": "address",
          "name": "token",
          "type": "address"
        },
        {
          "indexed": true,
          "internalType": "address",
          "name": "to",
          "type": "address"
        },
        {
          "indexed": false,
          "internalType": "uint256",
          "name": "tokenAmount",
          "type": "uint256"
        }
      ],
      "name": "Withdraw",
      "type": "event"
    },
    {
      "inputs": [],
      "name": "ETHFromServices",
      "outputs": [
        {
          "internalType": "uint96",
          "name": "",
          "type": "uint96"
        }
      ],
      "stateMutability": "view",
      "type": "function"
    },
    {
      "inputs": [],
      "name": "ETHOwned",
      "outputs": [
        {
          "internalType": "uint96",
          "name": "",
          "type": "uint96"
        }
      ],
      "stateMutability": "view",
      "type": "function"
    },
    {
      "inputs": [],
      "name": "ETH_TOKEN_ADDRESS",
      "outputs": [
        {
          "internalType": "address",
          "name": "",
          "type": "address"
        }
      ],
      "stateMutability": "view",
      "type": "function"
    },
    {
      "inputs": [
        {
          "internalType": "address",
          "name": "_tokenomics",
          "type": "address"
        },
        {
          "internalType": "address",
          "name": "_depository",
          "type": "address"
        },
        {
          "internalType": "address",
          "name": "_dispenser",
          "type": "address"
        }
      ],
      "name": "changeManagers",
      "outputs": [],
      "stateMutability": "nonpayable",
      "type": "function"
    },
    {
      "inputs": [
        {
          "internalType": "uint256",
          "name": "_minAcceptedETH",
          "type": "uint256"
        }
      ],
      "name": "changeMinAcceptedETH",
      "outputs": [],
      "stateMutability": "nonpayable",
      "type": "function"
    },
    {
      "inputs": [
        {
          "internalType": "address",
          "name": "newOwner",
          "type": "address"
        }
      ],
      "name": "changeOwner",
      "outputs": [],
      "stateMutability": "nonpayable",
      "type": "function"
    },
    {
      "inputs": [
        {
          "internalType": "uint256[]",
          "name": "serviceIds",
          "type": "uint256[]"
        },
        {
          "internalType": "uint256[]",
          "name": "amounts",
          "type": "uint256[]"
        }
      ],
      "name": "depositServiceDonationsETH",
      "outputs": [],
      "stateMutability": "payable",
      "type": "function"
    },
    {
      "inputs": [
        {
          "internalType": "address",
          "name": "account",
          "type": "address"
        },
        {
          "internalType": "uint256",
          "name": "tokenAmount",
          "type": "uint256"
        },
        {
          "internalType": "address",
          "name": "token",
          "type": "address"
        },
        {
          "internalType": "uint256",
          "name": "olasMintAmount",
          "type": "uint256"
        }
      ],
      "name": "depositTokenForOLAS",
      "outputs": [],
      "stateMutability": "nonpayable",
      "type": "function"
    },
    {
      "inputs": [],
      "name": "depository",
      "outputs": [
        {
          "internalType": "address",
          "name": "",
          "type": "address"
        }
      ],
      "stateMutability": "view",
      "type": "function"
    },
    {
      "inputs": [
        {
          "internalType": "address",
          "name": "token",
          "type": "address"
        }
      ],
      "name": "disableToken",
      "outputs": [],
      "stateMutability": "nonpayable",
      "type": "function"
    },
    {
      "inputs": [],
      "name": "dispenser",
      "outputs": [
        {
          "internalType": "address",
          "name": "",
          "type": "address"
        }
      ],
      "stateMutability": "view",
      "type": "function"
    },
    {
      "inputs": [],
      "name": "drainServiceSlashedFunds",
      "outputs": [
        {
          "internalType": "uint256",
          "name": "amount",
          "type": "uint256"
        }
      ],
      "stateMutability": "nonpayable",
      "type": "function"
    },
    {
      "inputs": [
        {
          "internalType": "address",
          "name": "token",
          "type": "address"
        }
      ],
      "name": "enableToken",
      "outputs": [],
      "stateMutability": "nonpayable",
      "type": "function"
    },
    {
      "inputs": [
        {
          "internalType": "address",
          "name": "token",
          "type": "address"
        }
      ],
      "name": "isEnabled",
      "outputs": [
        {
          "internalType": "bool",
          "name": "enabled",
          "type": "bool"
        }
      ],
      "stateMutability": "view",
      "type": "function"
    },
    {
      "inputs": [
        {
          "internalType": "address",
          "name": "",
          "type": "address"
        }
      ],
      "name": "mapEnabledTokens",
      "outputs": [
        {
          "internalType": "bool",
          "name": "",
          "type": "bool"
        }
      ],
      "stateMutability": "view",
      "type": "function"
    },
    {
      "inputs": [
        {
          "internalType": "address",
          "name": "",
          "type": "address"
        }
      ],
      "name": "mapTokenReserves",
      "outputs": [
        {
          "internalType": "uint256",
          "name": "",
          "type": "uint256"
        }
      ],
      "stateMutability": "view",
      "type": "function"
    },
    {
      "inputs": [],
      "name": "minAcceptedETH",
      "outputs": [
        {
          "internalType": "uint96",
          "name": "",
          "type": "uint96"
        }
      ],
      "stateMutability": "view",
      "type": "function"
    },
    {
      "inputs": [],
      "name": "olas",
      "outputs": [
        {
          "internalType": "address",
          "name": "",
          "type": "address"
        }
      ],
      "stateMutability": "view",
      "type": "function"
    },
    {
      "inputs": [],
      "name": "owner",
      "outputs": [
        {
          "internalType": "address",
          "name": "",
          "type": "address"
        }
      ],
      "stateMutability": "view",
      "type": "function"
    },
    {
      "inputs": [],
      "name": "pause",
      "outputs": [],
      "stateMutability": "nonpayable",
      "type": "function"
    },
    {
      "inputs": [],
      "name": "paused",
      "outputs": [
        {
          "internalType": "uint8",
          "name": "",
          "type": "uint8"
        }
      ],
      "stateMutability": "view",
      "type": "function"
    },
    {
      "inputs": [
        {
          "internalType": "uint256",
          "name": "treasuryRewards",
          "type": "uint256"
        }
      ],
      "name": "rebalanceTreasury",
      "outputs": [
        {
          "internalType": "bool",
          "name": "success",
          "type": "bool"
        }
      ],
      "stateMutability": "nonpayable",
      "type": "function"
    },
    {
      "inputs": [],
      "name": "tokenomics",
      "outputs": [
        {
          "internalType": "address",
          "name": "",
          "type": "address"
        }
      ],
      "stateMutability": "view",
      "type": "function"
    },
    {
      "inputs": [],
      "name": "unpause",
      "outputs": [],
      "stateMutability": "nonpayable",
      "type": "function"
    },
    {
      "inputs": [
        {
          "internalType": "address",
          "name": "to",
          "type": "address"
        },
        {
          "internalType": "uint256",
          "name": "tokenAmount",
          "type": "uint256"
        },
        {
          "internalType": "address",
          "name": "token",
          "type": "address"
        }
      ],
      "name": "withdraw",
      "outputs": [
        {
          "internalType": "bool",
          "name": "success",
          "type": "bool"
        }
      ],
      "stateMutability": "nonpayable",
      "type": "function"
    },
    {
      "inputs": [
        {
          "internalType": "address",
          "name": "account",
          "type": "address"
        },
        {
          "internalType": "uint256",
          "name": "accountRewards",
          "type": "uint256"
        },
        {
          "internalType": "uint256",
          "name": "accountTopUps",
          "type": "uint256"
        }
      ],
      "name": "withdrawToAccount",
      "outputs": [
        {
          "internalType": "bool",
          "name": "success",
          "type": "bool"
        }
      ],
      "stateMutability": "nonpayable",
      "type": "function"
    },
    {
      "stateMutability": "payable",
      "type": "receive"
    }
  ],
  "bytecode": "0x60806040819052600280546501cdda4faccd60af1b6001600160a01b039091161790556003805460ff60a01b1916600160a01b179055620026b938819003908190833981016040819052620000549162000150565b600080546001600160a01b031916331790556003805460ff60a81b1916600160a81b1790556001600160a01b03841615806200009757506001600160a01b038316155b80620000aa57506001600160a01b038216155b80620000bd57506001600160a01b038116155b15620000dc5760405163d92e233d60e01b815260040160405180910390fd5b600280546001600160a01b03199081166001600160a01b0395861617909155600380548216938516939093179092556004805490921690831617905516600160a01b476001600160601b03160217600155620001ad565b80516001600160a01b03811681146200014b57600080fd5b919050565b600080600080608085870312156200016757600080fd5b620001728562000133565b9350620001826020860162000133565b9250620001926040860162000133565b9150620001a26060860162000133565b905092959194509250565b6124fc80620001bd6000396000f3fe6080604052600436106101a45760003560e01c80638456cb59116100e1578063ac10fc011161008a578063c690908a11610064578063c690908a14610677578063d529779314610697578063e09d894d146106b7578063f60ccd3a146106d757600080fd5b8063ac10fc01146105fb578063b3c3294a14610627578063bedd12a51461065757600080fd5b80639015d371116100bb5780639015d3711461058f578063a6f9dae1146105c8578063a8ce8911146105e857600080fd5b80638456cb59146105455780638da5cb5b1461055a5780638f202bf91461057a57600080fd5b8063462617e51161014e5780635c975abb116101285780635c975abb146104965780635d63b758146104c957806369328dec146104f55780637ff796ab1461052557600080fd5b8063462617e51461041b5780634ac7251d1461043b5780634c20f8e41461045b57600080fd5b806323e27a641161017f57806323e27a641461039d5780632f29e573146103bd5780633f4ba83a1461040657600080fd5b806231d115146103165780631878d1f1146103535780631ac17db91461037b57600080fd5b3661031157600254600160a01b90046bffffffffffffffffffffffff1634101561021f576002546040517f491a2bb1000000000000000000000000000000000000000000000000000000008152346004820152600160a01b9091046bffffffffffffffffffffffff1660248201526044015b60405180910390fd5b600154600160a01b90046bffffffffffffffffffffffff16610241348261208e565b6000549091506bffffffffffffffffffffffff9061026890600160a01b900482168361208e565b11156102b5576040517f7ae59685000000000000000000000000000000000000000000000000000000008152600481018290526bffffffffffffffffffffffff6024820152604401610216565b600180546001600160a01b0316600160a01b6bffffffffffffffffffffffff84160217905560405134815233907f830d2d700a97af574b186c80d40429385d24241565b08a7c559ba283a964d9b19060200160405180910390a2005b600080fd5b34801561032257600080fd5b50600154610336906001600160a01b031681565b6040516001600160a01b0390911681526020015b60405180910390f35b34801561035f57600080fd5b5061033673eeeeeeeeeeeeeeeeeeeeeeeeeeeeeeeeeeeeeeee81565b34801561038757600080fd5b5061039b6103963660046120bc565b6106f7565b005b3480156103a957600080fd5b5061039b6103b8366004612104565b610ae0565b3480156103c957600080fd5b506000546103e990600160a01b90046bffffffffffffffffffffffff1681565b6040516bffffffffffffffffffffffff909116815260200161034a565b34801561041257600080fd5b5061039b610bf9565b34801561042757600080fd5b5061039b610436366004612121565b610c92565b34801561044757600080fd5b50600254610336906001600160a01b031681565b34801561046757600080fd5b50610488610476366004612104565b60056020526000908152604090205481565b60405190815260200161034a565b3480156104a257600080fd5b506003546104b790600160a01b900460ff1681565b60405160ff909116815260200161034a565b3480156104d557600080fd5b506002546103e990600160a01b90046bffffffffffffffffffffffff1681565b34801561050157600080fd5b5061051561051036600461213a565b610dc2565b604051901515815260200161034a565b34801561053157600080fd5b5061051561054036600461217c565b6111fa565b34801561055157600080fd5b5061039b6114b0565b34801561056657600080fd5b50600054610336906001600160a01b031681565b34801561058657600080fd5b5061048861155a565b34801561059b57600080fd5b506105156105aa366004612104565b6001600160a01b031660009081526006602052604090205460ff1690565b3480156105d457600080fd5b5061039b6105e3366004612104565b611768565b61039b6105f6366004612299565b611848565b34801561060757600080fd5b506001546103e990600160a01b90046bffffffffffffffffffffffff1681565b34801561063357600080fd5b50610515610642366004612104565b60066020526000908152604090205460ff1681565b34801561066357600080fd5b50600354610336906001600160a01b031681565b34801561068357600080fd5b5061039b610692366004612104565b611c38565b3480156106a357600080fd5b5061039b6106b23660046122fd565b611d42565b3480156106c357600080fd5b50600454610336906001600160a01b031681565b3480156106e357600080fd5b506105156106f2366004612121565b611ed4565b6003546001600160a01b03163314610750576003546040517f625a43fe0000000000000000000000000000000000000000000000000000000081523360048201526001600160a01b039091166024820152604401610216565b6001600160a01b03821660009081526006602052604090205460ff166107ad576040517fe3d87c620000000000000000000000000000000000000000000000000000000081526001600160a01b0383166004820152602401610216565b6001600160a01b0382166000908152600560205260408120546107d190859061208e565b6001600160a01b0384811660008181526005602052604090819020849055517fdd62ed3e000000000000000000000000000000000000000000000000000000008152918816600483015230602483015291925085919063dd62ed3e90604401602060405180830381865afa15801561084d573d6000803e3d6000fd5b505050506040513d601f19601f82011682018060405250810190610871919061233d565b101561093d576040517fdd62ed3e0000000000000000000000000000000000000000000000000000000081526001600160a01b03868116600483015230602483015284169063dd62ed3e90604401602060405180830381865afa1580156108dc573d6000803e3d6000fd5b505050506040513d601f19601f82011682018060405250810190610900919061233d565b6040517f2a1b2dd8000000000000000000000000000000000000000000000000000000008152600481019190915260248101859052604401610216565b6040517f23b872dd0000000000000000000000000000000000000000000000000000000081526001600160a01b03868116600483015230602483015260448201869052600091908516906323b872dd906064016020604051808303816000875af11580156109af573d6000803e3d6000fd5b505050506040513d601f19601f820116820180604052508101906109d39190612356565b905080610a135760405163cd3f165960e01b81526001600160a01b0380861660048301528716602482015230604482015260648101869052608401610216565b6001546040517f40c10f19000000000000000000000000000000000000000000000000000000008152336004820152602481018590526001600160a01b03909116906340c10f1990604401600060405180830381600087803b158015610a7857600080fd5b505af1158015610a8c573d6000803e3d6000fd5b505060408051888152602081018790526001600160a01b0380891694508a1692507f508c72f275e49212a4b6ffe7c19109c6720f9b15c6e9d2732e500d1b8d1f94d4910160405180910390a3505050505050565b6000546001600160a01b03163314610b205760005460405163521eb56d60e11b81523360048201526001600160a01b039091166024820152604401610216565b6001600160a01b03811660009081526006602052604090205460ff1615610bf6576001600160a01b03811660009081526005602052604090205415610b91576040517fe320176b00000000000000000000000000000000000000000000000000000000815260040160405180910390fd5b6001600160a01b03811660008181526006602052604080822080547fffffffffffffffffffffffffffffffffffffffffffffffffffffffffffffff00169055517f3907c2f289c906800bbef774e6e4a476623eae8c1abc6cd0a78ef88aba9a62259190a25b50565b6000546001600160a01b03163314610c395760005460405163521eb56d60e11b81523360048201526001600160a01b039091166024820152604401610216565b600380547fffffffffffffffffffffff00ffffffffffffffffffffffffffffffffffffffff16600160a01b1790556040517fa4f5d2111fbcc4ac1936a7aa8878cf6082bd2abfbd9bb58e7cce14981eec8b3690600090a1565b6000546001600160a01b03163314610cd25760005460405163521eb56d60e11b81523360048201526001600160a01b039091166024820152604401610216565b80600003610d0c576040517f7c946ed700000000000000000000000000000000000000000000000000000000815260040160405180910390fd5b6bffffffffffffffffffffffff811115610d67576040517f7ae59685000000000000000000000000000000000000000000000000000000008152600481018290526bffffffffffffffffffffffff6024820152604401610216565b600280546001600160a01b0316600160a01b6bffffffffffffffffffffffff8416021790556040518181527f4e97f4325d1d8a9018f3f17e69a6cb9cb011cc8a813e90b3549a773506e429fd9060200160405180910390a150565b600080546001600160a01b03163314610e035760005460405163521eb56d60e11b81523360048201526001600160a01b039091166024820152604401610216565b306001600160a01b03851603610e4c5760405163cd3f165960e01b81526001600160a01b0380841660048301523060248301528516604482015260648101849052608401610216565b82600003610e86576040517f7c946ed700000000000000000000000000000000000000000000000000000000815260040160405180910390fd5b7fffffffffffffffffffffffff11111111111111111111111111111111111111126001600160a01b0383160161104157600154600160a01b90046bffffffffffffffffffffffff16838110610fff57610edf8482612378565b600180546001600160a01b03908116600160a01b6bffffffffffffffffffffffff8516021790915560405186815291925086169073eeeeeeeeeeeeeeeeeeeeeeeeeeeeeeeeeeeeeeee907f9b1bfa7fa9ee420a16e124f794c35ac9f90472acc99140eb2f6447c714cad8eb9060200160405180910390a36040516001600160a01b038616908590600081818185875af1925050503d8060008114610f9f576040519150601f19603f3d011682016040523d82523d6000602084013e610fa4565b606091505b50508092505081610ffa5760405163cd3f165960e01b815273eeeeeeeeeeeeeeeeeeeeeeeeeeeeeeeeeeeeeeee60048201523060248201526001600160a01b038616604482015260648101859052608401610216565b61103b565b6040517f491a2bb10000000000000000000000000000000000000000000000000000000081526004810185905260248101829052604401610216565b506111f3565b6001600160a01b03821660009081526006602052604090205460ff1661109e576040517fe3d87c620000000000000000000000000000000000000000000000000000000081526001600160a01b0383166004820152602401610216565b6001600160a01b038216600090815260056020526040902054838110610fff576110c88482612378565b6001600160a01b038085166000818152600560205260409081902084905551929350908716917f9b1bfa7fa9ee420a16e124f794c35ac9f90472acc99140eb2f6447c714cad8eb9061111d9088815260200190565b60405180910390a36040517fa9059cbb0000000000000000000000000000000000000000000000000000000081526001600160a01b0386811660048301526024820186905284169063a9059cbb906044016020604051808303816000875af115801561118d573d6000803e3d6000fd5b505050506040513d601f19601f820116820180604052508101906111b19190612356565b9150816111f15760405163cd3f165960e01b81526001600160a01b0380851660048301523060248301528616604482015260648101859052608401610216565b505b9392505050565b600354600090600160a01b900460ff16600203611243576040517f9e87fac800000000000000000000000000000000000000000000000000000000815260040160405180910390fd5b6004546001600160a01b0316331461129d57600480546040517f625a43fe00000000000000000000000000000000000000000000000000000000815233928101929092526001600160a01b03166024820152604401610216565b600054600160a01b90046bffffffffffffffffffffffff1683158015906112c45750838110155b156113db576112d38482612378565b600080546001600160a01b03908116600160a01b6bffffffffffffffffffffffff8516021790915560405186815291925086169073eeeeeeeeeeeeeeeeeeeeeeeeeeeeeeeeeeeeeeee907f9b1bfa7fa9ee420a16e124f794c35ac9f90472acc99140eb2f6447c714cad8eb9060200160405180910390a36040516001600160a01b038616908590600081818185875af1925050503d8060008114611393576040519150601f19603f3d011682016040523d82523d6000602084013e611398565b606091505b505080925050816113db5760405163cd3f165960e01b8152600060048201523060248201526001600160a01b038616604482015260648101859052608401610216565b82156111f1576001546040517f40c10f190000000000000000000000000000000000000000000000000000000081526001600160a01b03878116600483015260248201869052909116906340c10f1990604401600060405180830381600087803b15801561144857600080fd5b505af115801561145c573d6000803e3d6000fd5b5050600180546040518781529195506001600160a01b0389811694501691507f9b1bfa7fa9ee420a16e124f794c35ac9f90472acc99140eb2f6447c714cad8eb9060200160405180910390a3509392505050565b6000546001600160a01b031633146114f05760005460405163521eb56d60e11b81523360048201526001600160a01b039091166024820152604401610216565b600380547fffffffffffffffffffffff00ffffffffffffffffffffffffffffffffffffffff16740200000000000000000000000000000000000000001790556040517f057751199181d584c26a7c04b3f3de8cacbb25ebdf78fd029813ea393bd510b990600090a1565b600080546001600160a01b0316331461159b5760005460405163521eb56d60e11b81523360048201526001600160a01b039091166024820152604401610216565b600254604080517fcbcf252a00000000000000000000000000000000000000000000000000000000815290516000926001600160a01b03169163cbcf252a9160048083019260209291908290030181865afa1580156115fe573d6000803e3d6000fd5b505050506040513d601f19601f82011682018060405250810190611622919061238b565b90506000816001600160a01b0316636f99f15c6040518163ffffffff1660e01b8152600401602060405180830381865afa158015611664573d6000803e3d6000fd5b505050506040513d601f19601f82011682018060405250810190611688919061233d565b600254909150600160a01b90046bffffffffffffffffffffffff168110156116fd576002546040517f491a2bb100000000000000000000000000000000000000000000000000000000815260048101839052600160a01b9091046bffffffffffffffffffffffff166024820152604401610216565b816001600160a01b0316639890220b6040518163ffffffff1660e01b81526004016020604051808303816000875af115801561173d573d6000803e3d6000fd5b505050506040513d601f19601f82011682018060405250810190611761919061233d565b9250505090565b6000546001600160a01b031633146117a85760005460405163521eb56d60e11b81523360048201526001600160a01b039091166024820152604401610216565b6001600160a01b0381166117e8576040517fd92e233d00000000000000000000000000000000000000000000000000000000815260040160405180910390fd5b600080547fffffffffffffffffffffffff0000000000000000000000000000000000000000166001600160a01b038316908117825560405190917f4ffd725fc4a22075e9ec71c59edf9c38cdeb588a91b24fc5b61388c5be41282b91a250565b6003546001750100000000000000000000000000000000000000000090910460ff1611156118a2576040517f8beb9d1600000000000000000000000000000000000000000000000000000000815260040160405180910390fd5b600380547fffffffffffffffffffff00ffffffffffffffffffffffffffffffffffffffffff167502000000000000000000000000000000000000000000179055600254600160a01b90046bffffffffffffffffffffffff16341015611953576002546040517f491a2bb1000000000000000000000000000000000000000000000000000000008152346004820152600160a01b9091046bffffffffffffffffffffffff166024820152604401610216565b81518151811461199c5781516040517f8151c110000000000000000000000000000000000000000000000000000000008152610216918391600401918252602082015260400190565b6000805b82811015611a32578381815181106119ba576119ba6123a8565b60200260200101516000036119fb576040517f7c946ed700000000000000000000000000000000000000000000000000000000815260040160405180910390fd5b838181518110611a0d57611a0d6123a8565b602002602001015182611a20919061208e565b9150611a2b816123d7565b90506119a0565b50803414611a75576040517f312b003300000000000000000000000000000000000000000000000000000000815234600482015260248101829052604401610216565b60008054611a99903490600160a01b90046bffffffffffffffffffffffff1661208e565b6001549091506bffffffffffffffffffffffff90611ac090600160a01b900482168361208e565b1115611b0d576040517f7ae59685000000000000000000000000000000000000000000000000000000008152600481018290526bffffffffffffffffffffffff6024820152604401610216565b600080546001600160a01b0316600160a01b6bffffffffffffffffffffffff84160217905560405133907fb7c3b13b911bdc71cbcf384e470cad657b7da964c892dc2fdba1432ad64d8be090611b689088908890349061244a565b60405180910390a26002546040517f5bc022010000000000000000000000000000000000000000000000000000000081526001600160a01b0390911690635bc0220190611bbf903390899089903490600401612480565b600060405180830381600087803b158015611bd957600080fd5b505af1158015611bed573d6000803e3d6000fd5b5050600380547fffffffffffffffffffff00ffffffffffffffffffffffffffffffffffffffffff16750100000000000000000000000000000000000000000017905550505050505050565b6000546001600160a01b03163314611c785760005460405163521eb56d60e11b81523360048201526001600160a01b039091166024820152604401610216565b6001600160a01b038116611cb8576040517fd92e233d00000000000000000000000000000000000000000000000000000000815260040160405180910390fd5b6001600160a01b03811660009081526006602052604090205460ff16610bf6576001600160a01b03811660008181526006602052604080822080547fffffffffffffffffffffffffffffffffffffffffffffffffffffffffffffff00166001179055517f1f4b6598cc34e310cc34bcfcb372afb5ba5af654fad97b26cc10ae8289f1c62f9190a250565b6000546001600160a01b03163314611d825760005460405163521eb56d60e11b81523360048201526001600160a01b039091166024820152604401610216565b6001600160a01b03831615611df157600280547fffffffffffffffffffffffff0000000000000000000000000000000000000000166001600160a01b0385169081179091556040517f4672fe7e13cfb163442d0b729b5733fb3efafc66cbe3677eac9940eb41c284c290600090a25b6001600160a01b03821615611e6057600380547fffffffffffffffffffffffff0000000000000000000000000000000000000000166001600160a01b0384169081179091556040517fcd22b277e2781665af395ae4868b7fd80cf6d9e06a5a740a9c4746922a25a22390600090a25b6001600160a01b03811615611ecf57600480547fffffffffffffffffffffffff0000000000000000000000000000000000000000166001600160a01b0383169081179091556040517fe4915bbde794cce5e56670cce1c0048ef68276040acd048bdb7157ded9232b4890600090a25b505050565b600354600090600160a01b900460ff16600203611f1d576040517f9e87fac800000000000000000000000000000000000000000000000000000000815260040160405180910390fd5b6002546001600160a01b03163314611f76576002546040517f625a43fe0000000000000000000000000000000000000000000000000000000081523360048201526001600160a01b039091166024820152604401610216565b506001811561205a57600054600160a01b90046bffffffffffffffffffffffff1682811061205357611fa88382612378565b600154909150600160a01b90046bffffffffffffffffffffffff16611fcd848261208e565b600180546bffffffffffffffffffffffff808416600160a01b9081026001600160a01b03938416179093556000805491871690930291161790556040519091507fd633b2400e134010322787d01a18e48126f5bcb420cdb342a6930a6eb4ecef63906120459083908590918252602082015260400190565b60405180910390a150612058565b600091505b505b919050565b7f4e487b7100000000000000000000000000000000000000000000000000000000600052601160045260246000fd5b808201808211156120a1576120a161205f565b92915050565b6001600160a01b0381168114610bf657600080fd5b600080600080608085870312156120d257600080fd5b84356120dd816120a7565b93506020850135925060408501356120f4816120a7565b9396929550929360600135925050565b60006020828403121561211657600080fd5b81356111f3816120a7565b60006020828403121561213357600080fd5b5035919050565b60008060006060848603121561214f57600080fd5b833561215a816120a7565b9250602084013591506040840135612171816120a7565b809150509250925092565b60008060006060848603121561219157600080fd5b833561219c816120a7565b95602085013595506040909401359392505050565b7f4e487b7100000000000000000000000000000000000000000000000000000000600052604160045260246000fd5b600082601f8301126121f157600080fd5b8135602067ffffffffffffffff8083111561220e5761220e6121b1565b8260051b6040517fffffffffffffffffffffffffffffffffffffffffffffffffffffffffffffffe0603f83011681018181108482111715612251576122516121b1565b60405293845285810183019383810192508785111561226f57600080fd5b83870191505b8482101561228e57813583529183019190830190612275565b979650505050505050565b600080604083850312156122ac57600080fd5b823567ffffffffffffffff808211156122c457600080fd5b6122d0868387016121e0565b935060208501359150808211156122e657600080fd5b506122f3858286016121e0565b9150509250929050565b60008060006060848603121561231257600080fd5b833561231d816120a7565b9250602084013561232d816120a7565b91506040840135612171816120a7565b60006020828403121561234f57600080fd5b5051919050565b60006020828403121561236857600080fd5b815180151581146111f357600080fd5b818103818111156120a1576120a161205f565b60006020828403121561239d57600080fd5b81516111f3816120a7565b7f4e487b7100000000000000000000000000000000000000000000000000000000600052603260045260246000fd5b60007fffffffffffffffffffffffffffffffffffffffffffffffffffffffffffffffff82036124085761240861205f565b5060010190565b600081518084526020808501945080840160005b8381101561243f57815187529582019590820190600101612423565b509495945050505050565b60608152600061245d606083018661240f565b828103602084015261246f818661240f565b915050826040830152949350505050565b6001600160a01b03851681526080602082015260006124a2608083018661240f565b82810360408401526124b4818661240f565b9150508260608301529594505050505056fea26469706673582212202c9247fdea0756c721ef75b0418d331833ff72c8324f9fb5dae56f6471d9922364736f6c63430008120033",
  "linkReferences": {},
  "deployedLinkReferences": {}
}