{
  "_format": "hh-sol-artifact-1",
  "contractName": "HomeMediator",
  "sourceName": "contracts/bridges/HomeMediator.sol",
  "abi": [
    {
      "inputs": [
        {
          "internalType": "address",
          "name": "_AMBContractProxyHome",
          "type": "address"
        },
        {
          "internalType": "address",
          "name": "_foreignGovernor",
          "type": "address"
        }
      ],
      "stateMutability": "nonpayable",
      "type": "constructor"
    },
    {
      "inputs": [
        {
          "internalType": "address",
          "name": "sender",
          "type": "address"
        },
        {
          "internalType": "address",
          "name": "AMBContractProxyHome",
          "type": "address"
        }
      ],
      "name": "AMBContractProxyHomeOnly",
      "type": "error"
    },
    {
      "inputs": [
        {
          "internalType": "address",
          "name": "sender",
          "type": "address"
        },
        {
          "internalType": "address",
          "name": "foreignGovernor",
          "type": "address"
        }
      ],
      "name": "ForeignGovernorOnly",
      "type": "error"
    },
    {
      "inputs": [
        {
          "internalType": "uint256",
          "name": "expected",
          "type": "uint256"
        },
        {
          "internalType": "uint256",
          "name": "provided",
          "type": "uint256"
        }
      ],
      "name": "IncorrectDataLength",
      "type": "error"
    },
    {
      "inputs": [
        {
          "internalType": "uint256",
          "name": "value",
          "type": "uint256"
        },
        {
          "internalType": "uint256",
          "name": "balance",
          "type": "uint256"
        }
      ],
      "name": "InsufficientBalance",
      "type": "error"
    },
    {
      "inputs": [
        {
          "internalType": "address",
          "name": "sender",
          "type": "address"
        },
        {
          "internalType": "address",
          "name": "instance",
          "type": "address"
        }
      ],
      "name": "SelfCallOnly",
      "type": "error"
    },
    {
      "inputs": [
        {
          "internalType": "address",
          "name": "target",
          "type": "address"
        },
        {
          "internalType": "uint256",
          "name": "value",
          "type": "uint256"
        },
        {
          "internalType": "bytes",
          "name": "payload",
          "type": "bytes"
        }
      ],
      "name": "TargetExecFailed",
      "type": "error"
    },
    {
      "inputs": [],
      "name": "ZeroAddress",
      "type": "error"
    },
    {
      "anonymous": false,
      "inputs": [
        {
          "indexed": true,
          "internalType": "address",
          "name": "foreignMessageSender",
          "type": "address"
        }
      ],
      "name": "ForeignGovernorUpdated",
      "type": "event"
    },
    {
      "anonymous": false,
      "inputs": [
        {
          "indexed": true,
          "internalType": "address",
          "name": "sender",
          "type": "address"
        },
        {
          "indexed": false,
          "internalType": "uint256",
          "name": "value",
          "type": "uint256"
        }
      ],
      "name": "FundsReceived",
      "type": "event"
    },
    {
      "anonymous": false,
      "inputs": [
        {
          "indexed": true,
          "internalType": "address",
          "name": "foreignMessageSender",
          "type": "address"
        },
        {
          "indexed": false,
          "internalType": "bytes",
          "name": "data",
          "type": "bytes"
        }
      ],
      "name": "MessageReceived",
      "type": "event"
    },
    {
      "inputs": [],
      "name": "AMBContractProxyHome",
      "outputs": [
        {
          "internalType": "address",
          "name": "",
          "type": "address"
        }
      ],
      "stateMutability": "view",
      "type": "function"
    },
    {
      "inputs": [],
      "name": "DEFAULT_DATA_LENGTH",
      "outputs": [
        {
          "internalType": "uint256",
          "name": "",
          "type": "uint256"
        }
      ],
      "stateMutability": "view",
      "type": "function"
    },
    {
      "inputs": [
        {
          "internalType": "address",
          "name": "newForeignGovernor",
          "type": "address"
        }
      ],
      "name": "changeForeignGovernor",
      "outputs": [],
      "stateMutability": "nonpayable",
      "type": "function"
    },
    {
      "inputs": [],
      "name": "foreignGovernor",
      "outputs": [
        {
          "internalType": "address",
          "name": "",
          "type": "address"
        }
      ],
      "stateMutability": "view",
      "type": "function"
    },
    {
      "inputs": [
        {
          "internalType": "bytes",
          "name": "data",
          "type": "bytes"
        }
      ],
      "name": "processMessageFromForeign",
      "outputs": [],
      "stateMutability": "nonpayable",
      "type": "function"
    },
    {
      "stateMutability": "payable",
      "type": "receive"
    }
  ],
  "bytecode": "0x60a060405234801561000f575f80fd5b5060405161095938038061095983398101604081905261002e916100ab565b6001600160a01b038216158061004b57506001600160a01b038116155b156100695760405163d92e233d60e01b815260040160405180910390fd5b6001600160a01b039182166080525f80546001600160a01b031916919092161790556100dc565b80516001600160a01b03811681146100a6575f80fd5b919050565b5f80604083850312156100bc575f80fd5b6100c583610090565b91506100d360208401610090565b90509250929050565b6080516108516101085f395f818160cd015281816102290152818161026b01526102ba01526108515ff3fe60806040526004361061005b575f3560e01c8063cd9e30d911610041578063cd9e30d91461010c578063dd32a5061461012b578063f02fb77414610149575f80fd5b8063400a2c101461009b578063c7651153146100bc575f80fd5b366100975760405134815233907f8e47b87b0ef542cdfa1659c551d88bad38aa7f452d2bbb349ab7530dfec8be8f9060200160405180910390a2005b5f80fd5b3480156100a6575f80fd5b506100ba6100b536600461060e565b61016b565b005b3480156100c7575f80fd5b506100ef7f000000000000000000000000000000000000000000000000000000000000000081565b6040516001600160a01b0390911681526020015b60405180910390f35b348015610117575f80fd5b506100ba610126366004610644565b61021e565b348015610136575f80fd5b505f546100ef906001600160a01b031681565b348015610154575f80fd5b5061015d602481565b604051908152602001610103565b3330146101985760405163036f26ff60e21b81523360048201523060248201526044015b60405180910390fd5b6001600160a01b0381166101bf5760405163d92e233d60e01b815260040160405180910390fd5b5f80547fffffffffffffffffffffffff0000000000000000000000000000000000000000166001600160a01b038316908117825560405190917ff453e38063153897c0cb53422f7eb5eed0ee1866e8d47fd6b302acbe3b5d221d91a250565b336001600160a01b037f00000000000000000000000000000000000000000000000000000000000000001614610298576040516338c958db60e11b81523360048201526001600160a01b037f000000000000000000000000000000000000000000000000000000000000000016602482015260440161018f565b5f80546040805163d67bdd2560e01b815290516001600160a01b0392831693927f0000000000000000000000000000000000000000000000000000000000000000169163d67bdd259160048083019260209291908290030181865afa158015610303573d5f803e3d5ffd5b505050506040513d601f19601f8201168201806040525081019061032791906106ef565b9050816001600160a01b0316816001600160a01b03161461036e576040516333527f4960e01b81526001600160a01b0380831660048301528316602482015260440161018f565b825160248110156103a0578351604051631a64813d60e11b815261018f91602491600401918252602082015260400190565b5f5b818110156105af5784810160148101516020820151602492830151929093019290916001600160a01b0383166103eb5760405163d92e233d60e01b815260040160405180910390fd5b47826bffffffffffffffffffffffff1611156104305760405163cf47918160e01b81526bffffffffffffffffffffffff8316600482015247602482015260440161018f565b5f8163ffffffff1667ffffffffffffffff81111561045057610450610630565b6040519080825280601f01601f19166020018201604052801561047a576020820181803683370190505b5090505f5b8263ffffffff168110156105035789610498828861071e565b815181106104a8576104a8610737565b602001015160f81c60f81b8282815181106104c5576104c5610737565b60200101907effffffffffffffffffffffffffffffffffffffffffffffffffffffffffffff191690815f1a9053506104fc8161074b565b905061047f565b5061051463ffffffff83168661071e565b94505f846001600160a01b0316846bffffffffffffffffffffffff168360405161053e9190610785565b5f6040518083038185875af1925050503d805f8114610578576040519150601f19603f3d011682016040523d82523d5f602084013e61057d565b606091505b50509050806105a557848483604051636cfc79a560e01b815260040161018f939291906107cb565b50505050506103a2565b50826001600160a01b03167f3c64b439784b3c09eba93acf868463aed0e339a92920e1d8822118261dfc1a7d856040516105e99190610809565b60405180910390a250505050565b6001600160a01b038116811461060b575f80fd5b50565b5f6020828403121561061e575f80fd5b8135610629816105f7565b9392505050565b634e487b7160e01b5f52604160045260245ffd5b5f60208284031215610654575f80fd5b813567ffffffffffffffff8082111561066b575f80fd5b818401915084601f83011261067e575f80fd5b81358181111561069057610690610630565b604051601f8201601f19908116603f011681019083821181831017156106b8576106b8610630565b816040528281528760208487010111156106d0575f80fd5b826020860160208301375f928101602001929092525095945050505050565b5f602082840312156106ff575f80fd5b8151610629816105f7565b634e487b7160e01b5f52601160045260245ffd5b808201808211156107315761073161070a565b92915050565b634e487b7160e01b5f52603260045260245ffd5b5f6001820161075c5761075c61070a565b5060010190565b5f5b8381101561077d578181015183820152602001610765565b50505f910152565b5f8251610796818460208701610763565b9190910192915050565b5f81518084526107b7816020860160208601610763565b601f01601f19169290920160200192915050565b6001600160a01b03841681526bffffffffffffffffffffffff83166020820152606060408201525f61080060608301846107a0565b95945050505050565b602081525f61062960208301846107a056fea2646970667358221220de069a0c3f587ef4157236a83d32244fb8a3f7a04bb603820a9fa09ecfdcf6a864736f6c63430008140033",
  "linkReferences": {},
  "deployedLinkReferences": {}
}