{
  "_format": "hh-sol-artifact-1",
  "contractName": "Depository",
  "sourceName": "contracts/Depository.sol",
  "abi": [
    {
      "inputs": [
        {
          "internalType": "address",
          "name": "_olas",
          "type": "address"
        },
        {
          "internalType": "address",
          "name": "_tokenomics",
          "type": "address"
        },
        {
          "internalType": "address",
          "name": "_treasury",
          "type": "address"
        },
        {
          "internalType": "address",
          "name": "_bondCalculator",
          "type": "address"
        }
      ],
      "stateMutability": "nonpayable",
      "type": "constructor"
    },
    {
      "inputs": [],
      "name": "AlreadyInitialized",
      "type": "error"
    },
    {
      "inputs": [
        {
          "internalType": "uint256",
          "name": "bondId",
          "type": "uint256"
        }
      ],
      "name": "BondNotRedeemable",
      "type": "error"
    },
    {
      "inputs": [
        {
          "internalType": "address",
          "name": "account",
          "type": "address"
        },
        {
          "internalType": "uint256",
          "name": "reward",
          "type": "uint256"
        },
        {
          "internalType": "uint256",
          "name": "topUp",
          "type": "uint256"
        }
      ],
      "name": "ClaimIncentivesFailed",
      "type": "error"
    },
    {
      "inputs": [],
      "name": "DelegatecallOnly",
      "type": "error"
    },
    {
      "inputs": [
        {
          "internalType": "address",
          "name": "account",
          "type": "address"
        }
      ],
      "name": "DonatorBlacklisted",
      "type": "error"
    },
    {
      "inputs": [
        {
          "internalType": "uint256",
          "name": "provided",
          "type": "uint256"
        },
        {
          "internalType": "uint256",
          "name": "expected",
          "type": "uint256"
        }
      ],
      "name": "InsufficientAllowance",
      "type": "error"
    },
    {
      "inputs": [
        {
          "internalType": "uint256",
          "name": "provided",
          "type": "uint256"
        },
        {
          "internalType": "uint256",
          "name": "expected",
          "type": "uint256"
        }
      ],
      "name": "LowerThan",
      "type": "error"
    },
    {
      "inputs": [
        {
          "internalType": "address",
          "name": "sender",
          "type": "address"
        },
        {
          "internalType": "address",
          "name": "manager",
          "type": "address"
        }
      ],
      "name": "ManagerOnly",
      "type": "error"
    },
    {
      "inputs": [],
      "name": "NonZeroValue",
      "type": "error"
    },
    {
      "inputs": [
        {
          "internalType": "uint256",
          "name": "provided",
          "type": "uint256"
        },
        {
          "internalType": "uint256",
          "name": "max",
          "type": "uint256"
        }
      ],
      "name": "Overflow",
      "type": "error"
    },
    {
      "inputs": [
        {
          "internalType": "address",
          "name": "sender",
          "type": "address"
        },
        {
          "internalType": "address",
          "name": "owner",
          "type": "address"
        }
      ],
      "name": "OwnerOnly",
      "type": "error"
    },
    {
      "inputs": [],
      "name": "Paused",
      "type": "error"
    },
    {
      "inputs": [
        {
          "internalType": "uint256",
          "name": "productId",
          "type": "uint256"
        }
      ],
      "name": "ProductClosed",
      "type": "error"
    },
    {
      "inputs": [
        {
          "internalType": "address",
          "name": "tokenAddress",
          "type": "address"
        },
        {
          "internalType": "uint256",
          "name": "productId",
          "type": "uint256"
        },
        {
          "internalType": "uint256",
          "name": "deadline",
          "type": "uint256"
        },
        {
          "internalType": "uint256",
          "name": "curTime",
          "type": "uint256"
        }
      ],
      "name": "ProductExpired",
      "type": "error"
    },
    {
      "inputs": [
        {
          "internalType": "address",
          "name": "tokenAddress",
          "type": "address"
        },
        {
          "internalType": "uint256",
          "name": "productId",
          "type": "uint256"
        },
        {
          "internalType": "uint256",
          "name": "requested",
          "type": "uint256"
        },
        {
          "internalType": "uint256",
          "name": "actual",
          "type": "uint256"
        }
      ],
      "name": "ProductSupplyLow",
      "type": "error"
    },
    {
      "inputs": [],
      "name": "ReentrancyGuard",
      "type": "error"
    },
    {
      "inputs": [],
      "name": "SameBlockNumberViolation",
      "type": "error"
    },
    {
      "inputs": [
        {
          "internalType": "uint256",
          "name": "serviceId",
          "type": "uint256"
        }
      ],
      "name": "ServiceDoesNotExist",
      "type": "error"
    },
    {
      "inputs": [
        {
          "internalType": "uint256",
          "name": "serviceId",
          "type": "uint256"
        }
      ],
      "name": "ServiceNeverDeployed",
      "type": "error"
    },
    {
      "inputs": [
        {
          "internalType": "address",
          "name": "token",
          "type": "address"
        },
        {
          "internalType": "address",
          "name": "from",
          "type": "address"
        },
        {
          "internalType": "address",
          "name": "to",
          "type": "address"
        },
        {
          "internalType": "uint256",
          "name": "amount",
          "type": "uint256"
        }
      ],
      "name": "TransferFailed",
      "type": "error"
    },
    {
      "inputs": [
        {
          "internalType": "uint256",
          "name": "epochNumber",
          "type": "uint256"
        }
      ],
      "name": "TreasuryRebalanceFailed",
      "type": "error"
    },
    {
      "inputs": [
        {
          "internalType": "address",
          "name": "tokenAddress",
          "type": "address"
        }
      ],
      "name": "UnauthorizedToken",
      "type": "error"
    },
    {
      "inputs": [
        {
          "internalType": "uint256",
          "name": "provided",
          "type": "uint256"
        },
        {
          "internalType": "uint256",
          "name": "expected",
          "type": "uint256"
        }
      ],
      "name": "WrongAmount",
      "type": "error"
    },
    {
      "inputs": [
        {
          "internalType": "uint256",
          "name": "numValues1",
          "type": "uint256"
        },
        {
          "internalType": "uint256",
          "name": "numValues2",
          "type": "uint256"
        }
      ],
      "name": "WrongArrayLength",
      "type": "error"
    },
    {
      "inputs": [
        {
          "internalType": "address",
          "name": "provided",
          "type": "address"
        },
        {
          "internalType": "address",
          "name": "expected",
          "type": "address"
        }
      ],
      "name": "WrongTokenAddress",
      "type": "error"
    },
    {
      "inputs": [
        {
          "internalType": "uint256",
          "name": "unitId",
          "type": "uint256"
        },
        {
          "internalType": "uint256",
          "name": "unitType",
          "type": "uint256"
        }
      ],
      "name": "WrongUnitId",
      "type": "error"
    },
    {
      "inputs": [],
      "name": "ZeroAddress",
      "type": "error"
    },
    {
      "inputs": [],
      "name": "ZeroValue",
      "type": "error"
    },
    {
      "anonymous": false,
      "inputs": [
        {
          "indexed": true,
          "internalType": "address",
          "name": "_bondCalculator",
          "type": "address"
        }
      ],
      "name": "BondCalculatorUpdated",
      "type": "event"
    },
    {
      "anonymous": false,
      "inputs": [
        {
          "indexed": true,
          "internalType": "address",
          "name": "token",
          "type": "address"
        },
        {
          "indexed": true,
          "internalType": "uint256",
          "name": "productId",
          "type": "uint256"
        }
      ],
      "name": "CloseProduct",
      "type": "event"
    },
    {
      "anonymous": false,
      "inputs": [
        {
          "indexed": true,
          "internalType": "address",
          "name": "token",
          "type": "address"
        },
        {
          "indexed": true,
          "internalType": "uint256",
          "name": "productId",
          "type": "uint256"
        },
        {
          "indexed": true,
          "internalType": "address",
          "name": "owner",
          "type": "address"
        },
        {
          "indexed": false,
          "internalType": "uint256",
          "name": "bondId",
          "type": "uint256"
        },
        {
          "indexed": false,
          "internalType": "uint256",
          "name": "amountOLAS",
          "type": "uint256"
        },
        {
          "indexed": false,
          "internalType": "uint256",
          "name": "tokenAmount",
          "type": "uint256"
        },
        {
          "indexed": false,
          "internalType": "uint256",
          "name": "maturity",
          "type": "uint256"
        }
      ],
      "name": "CreateBond",
      "type": "event"
    },
    {
      "anonymous": false,
      "inputs": [
        {
          "indexed": true,
          "internalType": "address",
          "name": "token",
          "type": "address"
        },
        {
          "indexed": true,
          "internalType": "uint256",
          "name": "productId",
          "type": "uint256"
        },
        {
          "indexed": false,
          "internalType": "uint256",
          "name": "supply",
          "type": "uint256"
        },
        {
          "indexed": false,
          "internalType": "uint256",
          "name": "priceLP",
          "type": "uint256"
        },
        {
          "indexed": false,
          "internalType": "uint256",
          "name": "vesting",
          "type": "uint256"
        }
      ],
      "name": "CreateProduct",
      "type": "event"
    },
    {
      "anonymous": false,
      "inputs": [
        {
          "indexed": true,
          "internalType": "address",
          "name": "owner",
          "type": "address"
        }
      ],
      "name": "OwnerUpdated",
      "type": "event"
    },
    {
      "anonymous": false,
      "inputs": [
        {
          "indexed": true,
          "internalType": "uint256",
          "name": "productId",
          "type": "uint256"
        },
        {
          "indexed": true,
          "internalType": "address",
          "name": "owner",
          "type": "address"
        },
        {
          "indexed": false,
          "internalType": "uint256",
          "name": "bondId",
          "type": "uint256"
        }
      ],
      "name": "RedeemBond",
      "type": "event"
    },
    {
      "anonymous": false,
      "inputs": [
        {
          "indexed": true,
          "internalType": "address",
          "name": "tokenomics",
          "type": "address"
        }
      ],
      "name": "TokenomicsUpdated",
      "type": "event"
    },
    {
      "anonymous": false,
      "inputs": [
        {
          "indexed": true,
          "internalType": "address",
          "name": "treasury",
          "type": "address"
        }
      ],
      "name": "TreasuryUpdated",
      "type": "event"
    },
    {
      "inputs": [],
      "name": "MAX_VESTING",
      "outputs": [
        {
          "internalType": "uint256",
          "name": "",
          "type": "uint256"
        }
      ],
      "stateMutability": "view",
      "type": "function"
    },
    {
      "inputs": [],
      "name": "MIN_VESTING",
      "outputs": [
        {
          "internalType": "uint256",
          "name": "",
          "type": "uint256"
        }
      ],
      "stateMutability": "view",
      "type": "function"
    },
    {
      "inputs": [],
      "name": "bondCalculator",
      "outputs": [
        {
          "internalType": "address",
          "name": "",
          "type": "address"
        }
      ],
      "stateMutability": "view",
      "type": "function"
    },
    {
      "inputs": [],
      "name": "bondCounter",
      "outputs": [
        {
          "internalType": "uint32",
          "name": "",
          "type": "uint32"
        }
      ],
      "stateMutability": "view",
      "type": "function"
    },
    {
      "inputs": [
        {
          "internalType": "address",
          "name": "_bondCalculator",
          "type": "address"
        }
      ],
      "name": "changeBondCalculator",
      "outputs": [],
      "stateMutability": "nonpayable",
      "type": "function"
    },
    {
      "inputs": [
        {
          "internalType": "address",
          "name": "_tokenomics",
          "type": "address"
        },
        {
          "internalType": "address",
          "name": "_treasury",
          "type": "address"
        }
      ],
      "name": "changeManagers",
      "outputs": [],
      "stateMutability": "nonpayable",
      "type": "function"
    },
    {
      "inputs": [
        {
          "internalType": "address",
          "name": "newOwner",
          "type": "address"
        }
      ],
      "name": "changeOwner",
      "outputs": [],
      "stateMutability": "nonpayable",
      "type": "function"
    },
    {
      "inputs": [
        {
          "internalType": "uint256[]",
          "name": "productIds",
          "type": "uint256[]"
        }
      ],
      "name": "close",
      "outputs": [
        {
          "internalType": "uint256",
          "name": "numClosedProducts",
          "type": "uint256"
        }
      ],
      "stateMutability": "nonpayable",
      "type": "function"
    },
    {
      "inputs": [
        {
          "internalType": "address",
          "name": "token",
          "type": "address"
        },
        {
          "internalType": "uint256",
          "name": "priceLP",
          "type": "uint256"
        },
        {
          "internalType": "uint256",
          "name": "supply",
          "type": "uint256"
        },
        {
          "internalType": "uint256",
          "name": "vesting",
          "type": "uint256"
        }
      ],
      "name": "create",
      "outputs": [
        {
          "internalType": "uint256",
          "name": "productId",
          "type": "uint256"
        }
      ],
      "stateMutability": "nonpayable",
      "type": "function"
    },
    {
      "inputs": [
        {
          "internalType": "uint256",
          "name": "productId",
          "type": "uint256"
        },
        {
          "internalType": "uint256",
          "name": "tokenAmount",
          "type": "uint256"
        }
      ],
      "name": "deposit",
      "outputs": [
        {
          "internalType": "uint256",
          "name": "payout",
          "type": "uint256"
        },
        {
          "internalType": "uint256",
          "name": "maturity",
          "type": "uint256"
        },
        {
          "internalType": "uint256",
          "name": "bondId",
          "type": "uint256"
        }
      ],
      "stateMutability": "nonpayable",
      "type": "function"
    },
    {
      "inputs": [
        {
          "internalType": "uint256",
          "name": "bondId",
          "type": "uint256"
        }
      ],
      "name": "getBondStatus",
      "outputs": [
        {
          "internalType": "uint256",
          "name": "payout",
          "type": "uint256"
        },
        {
          "internalType": "bool",
          "name": "matured",
          "type": "bool"
        }
      ],
      "stateMutability": "view",
      "type": "function"
    },
    {
      "inputs": [
        {
          "internalType": "address",
          "name": "account",
          "type": "address"
        },
        {
          "internalType": "bool",
          "name": "matured",
          "type": "bool"
        }
      ],
      "name": "getBonds",
      "outputs": [
        {
          "internalType": "uint256[]",
          "name": "bondIds",
          "type": "uint256[]"
        },
        {
          "internalType": "uint256",
          "name": "payout",
          "type": "uint256"
        }
      ],
      "stateMutability": "view",
      "type": "function"
    },
    {
      "inputs": [
        {
          "internalType": "address",
          "name": "token",
          "type": "address"
        }
      ],
      "name": "getCurrentPriceLP",
      "outputs": [
        {
          "internalType": "uint256",
          "name": "priceLP",
          "type": "uint256"
        }
      ],
      "stateMutability": "view",
      "type": "function"
    },
    {
      "inputs": [],
      "name": "getProducts",
      "outputs": [
        {
          "internalType": "uint256[]",
          "name": "productIds",
          "type": "uint256[]"
        }
      ],
      "stateMutability": "view",
      "type": "function"
    },
    {
      "inputs": [
        {
          "internalType": "uint256",
          "name": "productId",
          "type": "uint256"
        }
      ],
      "name": "isActiveProduct",
      "outputs": [
        {
          "internalType": "bool",
          "name": "status",
          "type": "bool"
        }
      ],
      "stateMutability": "view",
      "type": "function"
    },
    {
      "inputs": [
        {
          "internalType": "uint256",
          "name": "",
          "type": "uint256"
        }
      ],
      "name": "mapBondProducts",
      "outputs": [
        {
          "internalType": "uint160",
          "name": "priceLP",
          "type": "uint160"
        },
        {
          "internalType": "uint32",
          "name": "vesting",
          "type": "uint32"
        },
        {
          "internalType": "address",
          "name": "token",
          "type": "address"
        },
        {
          "internalType": "uint96",
          "name": "supply",
          "type": "uint96"
        }
      ],
      "stateMutability": "view",
      "type": "function"
    },
    {
      "inputs": [
        {
          "internalType": "uint256",
          "name": "",
          "type": "uint256"
        }
      ],
      "name": "mapUserBonds",
      "outputs": [
        {
          "internalType": "address",
          "name": "account",
          "type": "address"
        },
        {
          "internalType": "uint96",
          "name": "payout",
          "type": "uint96"
        },
        {
          "internalType": "uint32",
          "name": "maturity",
          "type": "uint32"
        },
        {
          "internalType": "uint32",
          "name": "productId",
          "type": "uint32"
        }
      ],
      "stateMutability": "view",
      "type": "function"
    },
    {
      "inputs": [],
      "name": "olas",
      "outputs": [
        {
          "internalType": "address",
          "name": "",
          "type": "address"
        }
      ],
      "stateMutability": "view",
      "type": "function"
    },
    {
      "inputs": [],
      "name": "owner",
      "outputs": [
        {
          "internalType": "address",
          "name": "",
          "type": "address"
        }
      ],
      "stateMutability": "view",
      "type": "function"
    },
    {
      "inputs": [],
      "name": "productCounter",
      "outputs": [
        {
          "internalType": "uint32",
          "name": "",
          "type": "uint32"
        }
      ],
      "stateMutability": "view",
      "type": "function"
    },
    {
      "inputs": [
        {
          "internalType": "uint256[]",
          "name": "bondIds",
          "type": "uint256[]"
        }
      ],
      "name": "redeem",
      "outputs": [
        {
          "internalType": "uint256",
          "name": "payout",
          "type": "uint256"
        }
      ],
      "stateMutability": "nonpayable",
      "type": "function"
    },
    {
      "inputs": [],
      "name": "tokenomics",
      "outputs": [
        {
          "internalType": "address",
          "name": "",
          "type": "address"
        }
      ],
      "stateMutability": "view",
      "type": "function"
    },
    {
      "inputs": [],
      "name": "treasury",
      "outputs": [
        {
          "internalType": "address",
          "name": "",
          "type": "address"
        }
      ],
      "stateMutability": "view",
      "type": "function"
    }
  ],
  "bytecode": "0x608060405234801562000010575f80fd5b506040516200211a3803806200211a833981016040819052620000339162000117565b5f80546001600160a01b031916331790556001600160a01b03841615806200006257506001600160a01b038316155b806200007557506001600160a01b038216155b806200008857506001600160a01b038116155b15620000a75760405163d92e233d60e01b815260040160405180910390fd5b600180546001600160a01b039586166001600160a01b031991821617909155600280549486169482169490941790935560038054928516928416929092179091556004805491909316911617905562000171565b80516001600160a01b038116811462000112575f80fd5b919050565b5f805f80608085870312156200012b575f80fd5b6200013685620000fb565b93506200014660208601620000fb565b92506200015660408601620000fb565b91506200016660608601620000fb565b905092959194509250565b611f9b806200017f5f395ff3fe608060405234801561000f575f80fd5b5060043610610183575f3560e01c80638c71ec16116100dd578063e42f991911610088578063f94abb4511610063578063f94abb4514610452578063f9afb26a1461045d578063fc63e42d14610470575f80fd5b8063e42f991914610348578063e91b0a41146103e1578063f731960c14610409575f80fd5b8063c29b2f20116100b8578063c29b2f20146102f2578063c5332b7c14610307578063e2bbb1581461031a575f80fd5b80638c71ec16146102ba5780638da5cb5b146102cd578063a6f9dae1146102df575f80fd5b80634ac7251d1161013d5780635b400e4f116101185780635b400e4f1461027c57806361d027b31461029d57806363e63e3b146102b0575f80fd5b80634ac7251d146102405780635831d8851461025357806358d3ec6a14610269575f80fd5b8063158555371161016d57806315855537146101cc5780631f16653b146101df57806324415cf61461021f575f80fd5b806231d115146101875780630c062810146101b7575b5f80fd5b60015461019a906001600160a01b031681565b6040516001600160a01b0390911681526020015b60405180910390f35b6101ca6101c5366004611c0c565b61050c565b005b6101ca6101da366004611c3d565b61062f565b5f5461020a907801000000000000000000000000000000000000000000000000900463ffffffff1681565b60405163ffffffff90911681526020016101ae565b61023261022d366004611c3d565b6106de565b6040519081526020016101ae565b60025461019a906001600160a01b031681565b5f5461020a90600160a01b900463ffffffff1681565b610232610277366004611c8a565b61076e565b61028f61028a366004611d6e565b610920565b6040516101ae929190611ddc565b60035461019a906001600160a01b031681565b6102326201518081565b6102326102c8366004611dfd565b610b35565b5f5461019a906001600160a01b031681565b6101ca6102ed366004611c3d565b61109f565b6102fa61117c565b6040516101ae9190611e33565b60045461019a906001600160a01b031681565b61032d610328366004611e45565b611317565b604080519384526020840192909252908201526060016101ae565b61039d610356366004611e65565b60066020525f9081526040902080546001909101546001600160a01b0380831692600160a01b9081900463ffffffff169291821691046bffffffffffffffffffffffff1684565b604080516001600160a01b03958616815263ffffffff94909416602085015291909316908201526bffffffffffffffffffffffff90911660608201526080016101ae565b6103f46103ef366004611e65565b611820565b604080519283529015156020830152016101ae565b610442610417366004611e65565b5f90815260066020526040902060010154600160a01b90046bffffffffffffffffffffffff16151590565b60405190151581526020016101ae565b610232630784ce0081565b61023261046b366004611c8a565b61186b565b6104c961047e366004611e65565b60056020525f9081526040902080546001909101546001600160a01b03821691600160a01b90046bffffffffffffffffffffffff169063ffffffff8082169164010000000090041684565b604080516001600160a01b0390951685526bffffffffffffffffffffffff909316602085015263ffffffff918216928401929092521660608201526080016101ae565b5f546001600160a01b0316331461054f575f5460405163521eb56d60e11b81523360048201526001600160a01b0390911660248201526044015b60405180910390fd5b6001600160a01b038216156105bd57600280547fffffffffffffffffffffffff0000000000000000000000000000000000000000166001600160a01b0384169081179091556040517f4672fe7e13cfb163442d0b729b5733fb3efafc66cbe3677eac9940eb41c284c2905f90a25b6001600160a01b0381161561062b57600380547fffffffffffffffffffffffff0000000000000000000000000000000000000000166001600160a01b0383169081179091556040517f7dae230f18360d76a040c81f050aa14eb9d6dc7901b20fc5d855e2a20fe814d1905f90a25b5050565b5f546001600160a01b0316331461066d575f5460405163521eb56d60e11b81523360048201526001600160a01b039091166024820152604401610546565b6001600160a01b038116156106db57600480547fffffffffffffffffffffffff0000000000000000000000000000000000000000166001600160a01b0383169081179091556040517f179276fedd32be7c465135f8e074aefcd470c855d2550f83a36a45bfbaa61ea5905f90a25b50565b600480546040517f24415cf60000000000000000000000000000000000000000000000000000000081526001600160a01b03848116938201939093525f92909116906324415cf690602401602060405180830381865afa158015610744573d5f803e3d5ffd5b505050506040513d601f19601f820116820180604052508101906107689190611e7c565b92915050565b5f80546001600160a01b031633146107ad575f5460405163521eb56d60e11b81523360048201526001600160a01b039091166024820152604401610546565b5f5b825181101561091a575f8382815181106107cb576107cb611e93565b6020908102919091018101515f8181526006909252604090912060010154909150600160a01b90046bffffffffffffffffffffffff168015610907576002546040517f7048960c000000000000000000000000000000000000000000000000000000008152600481018390526001600160a01b0390911690637048960c906024015f604051808303815f87803b158015610863575f80fd5b505af1158015610875573d5f803e3d5ffd5b5050505f83815260066020526040812060018101805482547fffffffffffffffff00000000000000000000000000000000000000000000000016909255919091556001600160a01b03169050846108cb81611eed565b95505082816001600160a01b03167fa84c61a0551e87e8fc2d5df11a0541b091e22f8a4a97c79210bcc845153c843b60405160405180910390a3505b50508061091390611eed565b90506107af565b50919050565b60605f6001600160a01b038416610963576040517fd92e233d00000000000000000000000000000000000000000000000000000000815260040160405180910390fd5b5f8054600160a01b900463ffffffff16818167ffffffffffffffff81111561098d5761098d611c5d565b6040519080825280602002602001820160405280156109b6578160200160208202803683370190505b5090505f5b82811015610a7d575f818152600560205260409020546001600160a01b03808a16911603610a6b57861580610a0657505f8181526005602052604090206001015463ffffffff164210155b15610a6b576001828281518110610a1f57610a1f611e93565b91151560209283029190910190910152610a3884611eed565b5f82815260056020526040902054909450610a6890600160a01b90046bffffffffffffffffffffffff1686611f24565b94505b80610a7581611eed565b9150506109bb565b508267ffffffffffffffff811115610a9757610a97611c5d565b604051908082528060200260200182016040528015610ac0578160200160208202803683370190505b5094505f805b83811015610b2957828181518110610ae057610ae0611e93565b602002602001015115610b175780878381518110610b0057610b00611e93565b6020908102919091010152610b1482611eed565b91505b80610b2181611eed565b915050610ac6565b50505050509250929050565b5f80546001600160a01b03163314610b74575f5460405163521eb56d60e11b81523360048201526001600160a01b039091166024820152604401610546565b835f03610bad576040517f7c946ed700000000000000000000000000000000000000000000000000000000815260040160405180910390fd5b6001600160a01b03841115610be557604051637ae5968560e01b8152600481018590526001600160a01b036024820152604401610546565b825f03610c1e576040517f7c946ed700000000000000000000000000000000000000000000000000000000815260040160405180910390fd5b6bffffffffffffffffffffffff831115610c6057604051637ae5968560e01b8152600481018490526bffffffffffffffffffffffff6024820152604401610546565b62015180821015610ca9576040517f491a2bb100000000000000000000000000000000000000000000000000000000815260048101839052620151806024820152604401610546565b630784ce00821115610cdb57604051637ae5968560e01b815260048101839052630784ce006024820152604401610546565b5f610ce68342611f24565b905063ffffffff811115610d1a57604051637ae5968560e01b81526004810182905263ffffffff6024820152604401610546565b6003546040517f9015d3710000000000000000000000000000000000000000000000000000000081526001600160a01b03888116600483015290911690639015d37190602401602060405180830381865afa158015610d7b573d5f803e3d5ffd5b505050506040513d601f19601f82011682018060405250810190610d9f9190611f37565b610de0576040517fe3d87c620000000000000000000000000000000000000000000000000000000081526001600160a01b0387166004820152602401610546565b6002546040517f426e77df000000000000000000000000000000000000000000000000000000008152600481018690526001600160a01b039091169063426e77df906024016020604051808303815f875af1158015610e41573d5f803e3d5ffd5b505050506040513d601f19601f82011682018060405250810190610e659190611f37565b610f1a5760025f9054906101000a90046001600160a01b03166001600160a01b0316638fc2b24d6040518163ffffffff1660e01b8152600401602060405180830381865afa158015610eb9573d5f803e3d5ffd5b505050506040513d601f19601f82011682018060405250810190610edd9190611e7c565b6040517f491a2bb1000000000000000000000000000000000000000000000000000000008152600481019190915260248101859052604401610546565b5f8054604080516080810182526001600160a01b03808a16825263ffffffff88811660208085019182528d84168587019081526bffffffffffffffffffffffff808e166060880190815278010000000000000000000000000000000000000000000000009099048516808b52600690935296909820945185549251909316600160a01b9081027fffffffffffffffff00000000000000000000000000000000000000000000000090931693851693909317919091178455955194519093169092029290911691909117600191820155909250610ff7908390611f24565b5f805463ffffffff929092167801000000000000000000000000000000000000000000000000027fffffffff00000000ffffffffffffffffffffffffffffffffffffffffffffffff909216919091179055604080518581526020810187905290810184905282906001600160a01b038816907f5fd24ab6321cb12fa0b131d7749ca303e20d69422e8191bc5d2ae4959bae08db9060600160405180910390a350949350505050565b5f546001600160a01b031633146110dd575f5460405163521eb56d60e11b81523360048201526001600160a01b039091166024820152604401610546565b6001600160a01b03811661111d576040517fd92e233d00000000000000000000000000000000000000000000000000000000815260040160405180910390fd5b5f80547fffffffffffffffffffffffff0000000000000000000000000000000000000000166001600160a01b038316908117825560405190917f4ffd725fc4a22075e9ec71c59edf9c38cdeb588a91b24fc5b61388c5be41282b91a250565b5f8054606091780100000000000000000000000000000000000000000000000090910463ffffffff16908167ffffffffffffffff8111156111bf576111bf611c5d565b6040519080825280602002602001820160405280156111e8578160200160208202803683370190505b5090505f805b83811015611263575f81815260066020526040902060010154600160a01b90046bffffffffffffffffffffffff161561125157600183828151811061123557611235611e93565b9115156020928302919091019091015261124e82611eed565b91505b8061125b81611eed565b9150506111ee565b508067ffffffffffffffff81111561127d5761127d611c5d565b6040519080825280602002602001820160405280156112a6578160200160208202803683370190505b5093505f805b8481101561130f578381815181106112c6576112c6611e93565b6020026020010151156112fd57808683815181106112e6576112e6611e93565b60209081029190910101526112fa82611eed565b91505b8061130781611eed565b9150506112ac565b505050505090565b5f805f835f03611353576040517f7c946ed700000000000000000000000000000000000000000000000000000000815260040160405180910390fd5b5f8581526006602052604081206001810154815491926001600160a01b0390911691600160a01b900463ffffffff16908190036113db576040517f981ef42f0000000000000000000000000000000000000000000000000000000081526001600160a01b03831660048201526024810189905260448101829052426064820152608401610546565b6113e54282611f24565b945063ffffffff85111561141957604051637ae5968560e01b81526004810186905263ffffffff6024820152604401610546565b6004805484546040517f7e5b09980000000000000000000000000000000000000000000000000000000081529283018a90526001600160a01b0390811660248401521690637e5b099890604401602060405180830381865afa158015611481573d5f803e3d5ffd5b505050506040513d601f19601f820116820180604052508101906114a59190611e7c565b6001840154909650600160a01b90046bffffffffffffffffffffffff168087111561151c576040517f545a90850000000000000000000000000000000000000000000000000000000081526001600160a01b0384166004820152602481018a90526044810188905260648101829052608401610546565b6115268782611f52565b9050808460010160146101000a8154816bffffffffffffffffffffffff02191690836bffffffffffffffffffffffff1602179055505f60149054906101000a900463ffffffff1663ffffffff1694506040518060800160405280336001600160a01b03168152602001886bffffffffffffffffffffffff1681526020018763ffffffff1681526020018a63ffffffff1681525060055f8781526020019081526020015f205f820151815f015f6101000a8154816001600160a01b0302191690836001600160a01b031602179055506020820151815f0160146101000a8154816bffffffffffffffffffffffff02191690836bffffffffffffffffffffffff1602179055506040820151816001015f6101000a81548163ffffffff021916908363ffffffff16021790555060608201518160010160046101000a81548163ffffffff021916908363ffffffff1602179055509050508460016116879190611f24565b5f805463ffffffff92909216600160a01b027fffffffffffffffff00000000ffffffffffffffffffffffffffffffffffffffff9092169190911790556003546040517f1ac17db9000000000000000000000000000000000000000000000000000000008152336004820152602481018a90526001600160a01b038581166044830152606482018a905290911690631ac17db9906084015f604051808303815f87803b158015611734575f80fd5b505af1158015611746573d5f803e3d5ffd5b50505050805f036117be575f8981526006602052604080822080547fffffffffffffffff000000000000000000000000000000000000000000000000168155600101829055518a916001600160a01b038616917fa84c61a0551e87e8fc2d5df11a0541b091e22f8a4a97c79210bcc845153c843b9190a35b60408051868152602081018990529081018990526060810187905233908a906001600160a01b038616907ffa892a5592accfded99f9df9ad2d678230f37aeeb8fde5dd3b73769b5069bc0e9060800160405180910390a4505050509250925092565b5f81815260056020526040812054600160a01b90046bffffffffffffffffffffffff1690811561186657505f8281526005602052604090206001015463ffffffff164210155b915091565b5f805b8251811015611b2c575f60055f85848151811061188d5761188d611e93565b602002602001015181526020019081526020015f205f0160149054906101000a90046bffffffffffffffffffffffff166bffffffffffffffffffffffff1690505f60055f8685815181106118e3576118e3611e93565b60209081029190910181015182528101919091526040015f206001015463ffffffff164210159050811580611916575080155b1561196a5784838151811061192d5761192d611e93565b60200260200101516040517f26c4eabd00000000000000000000000000000000000000000000000000000000815260040161054691815260200190565b336001600160a01b031660055f87868151811061198957611989611e93565b60209081029190910181015182528101919091526040015f20546001600160a01b031614611a0e573360055f8786815181106119c7576119c7611e93565b602090810291909101810151825281019190915260409081015f2054905163521eb56d60e11b81526001600160a01b03928316600482015291166024820152604401610546565b611a188285611f24565b93505f60055f878681518110611a3057611a30611e93565b602002602001015181526020019081526020015f2060010160049054906101000a900463ffffffff1663ffffffff16905060055f878681518110611a7657611a76611e93565b60209081029190910181015182528101919091526040015f90812090815560010180547fffffffffffffffffffffffffffffffffffffffffffffffff00000000000000001690558551339082907f97f4572ff501a5533a09cf8d7d39be87e303470dd8bc7cff4fe91212be76bc7390899088908110611af757611af7611e93565b6020026020010151604051611b0e91815260200190565b60405180910390a35050508080611b2490611eed565b91505061186e565b50805f03611b66576040517f7c946ed700000000000000000000000000000000000000000000000000000000815260040160405180910390fd5b6001546040517fa9059cbb000000000000000000000000000000000000000000000000000000008152336004820152602481018390526001600160a01b039091169063a9059cbb906044016020604051808303815f875af1158015611bcd573d5f803e3d5ffd5b505050506040513d601f19601f8201168201806040525081019061091a9190611f37565b80356001600160a01b0381168114611c07575f80fd5b919050565b5f8060408385031215611c1d575f80fd5b611c2683611bf1565b9150611c3460208401611bf1565b90509250929050565b5f60208284031215611c4d575f80fd5b611c5682611bf1565b9392505050565b7f4e487b71000000000000000000000000000000000000000000000000000000005f52604160045260245ffd5b5f6020808385031215611c9b575f80fd5b823567ffffffffffffffff80821115611cb2575f80fd5b818501915085601f830112611cc5575f80fd5b813581811115611cd757611cd7611c5d565b8060051b6040517fffffffffffffffffffffffffffffffffffffffffffffffffffffffffffffffe0603f83011681018181108582111715611d1a57611d1a611c5d565b604052918252848201925083810185019188831115611d37575f80fd5b938501935b82851015611d5557843584529385019392850192611d3c565b98975050505050505050565b80151581146106db575f80fd5b5f8060408385031215611d7f575f80fd5b611d8883611bf1565b91506020830135611d9881611d61565b809150509250929050565b5f8151808452602080850194508084015f5b83811015611dd157815187529582019590820190600101611db5565b509495945050505050565b604081525f611dee6040830185611da3565b90508260208301529392505050565b5f805f8060808587031215611e10575f80fd5b611e1985611bf1565b966020860135965060408601359560600135945092505050565b602081525f611c566020830184611da3565b5f8060408385031215611e56575f80fd5b50508035926020909101359150565b5f60208284031215611e75575f80fd5b5035919050565b5f60208284031215611e8c575f80fd5b5051919050565b7f4e487b71000000000000000000000000000000000000000000000000000000005f52603260045260245ffd5b7f4e487b71000000000000000000000000000000000000000000000000000000005f52601160045260245ffd5b5f7fffffffffffffffffffffffffffffffffffffffffffffffffffffffffffffffff8203611f1d57611f1d611ec0565b5060010190565b8082018082111561076857610768611ec0565b5f60208284031215611f47575f80fd5b8151611c5681611d61565b8181038181111561076857610768611ec056fea2646970667358221220c1db951ad2acef9500e542332bd32968767ce1d3ab4875c9ab3f2d9c249f1db064736f6c63430008140033",
  "linkReferences": {},
  "deployedLinkReferences": {}
}