{
  "_format": "hh-sol-artifact-1",
  "contractName": "Depository",
  "sourceName": "contracts/Depository.sol",
  "abi": [
    {
      "inputs": [
        {
          "internalType": "address",
          "name": "_olas",
          "type": "address"
        },
        {
          "internalType": "address",
          "name": "_tokenomics",
          "type": "address"
        },
        {
          "internalType": "address",
          "name": "_treasury",
          "type": "address"
        },
        {
          "internalType": "address",
          "name": "_bondCalculator",
          "type": "address"
        }
      ],
      "stateMutability": "nonpayable",
      "type": "constructor"
    },
    {
      "inputs": [],
      "name": "AlreadyInitialized",
      "type": "error"
    },
    {
      "inputs": [
        {
          "internalType": "uint256",
          "name": "bondId",
          "type": "uint256"
        }
      ],
      "name": "BondNotRedeemable",
      "type": "error"
    },
    {
      "inputs": [
        {
          "internalType": "address",
          "name": "account",
          "type": "address"
        },
        {
          "internalType": "uint256",
          "name": "reward",
          "type": "uint256"
        },
        {
          "internalType": "uint256",
          "name": "topUp",
          "type": "uint256"
        }
      ],
      "name": "ClaimIncentivesFailed",
      "type": "error"
    },
    {
      "inputs": [],
      "name": "DelegatecallOnly",
      "type": "error"
    },
    {
      "inputs": [
        {
          "internalType": "address",
          "name": "account",
          "type": "address"
        }
      ],
      "name": "DonatorBlacklisted",
      "type": "error"
    },
    {
      "inputs": [
        {
          "internalType": "uint256",
          "name": "provided",
          "type": "uint256"
        },
        {
          "internalType": "uint256",
          "name": "expected",
          "type": "uint256"
        }
      ],
      "name": "InsufficientAllowance",
      "type": "error"
    },
    {
      "inputs": [
        {
          "internalType": "uint256",
          "name": "provided",
          "type": "uint256"
        },
        {
          "internalType": "uint256",
          "name": "expected",
          "type": "uint256"
        }
      ],
      "name": "LowerThan",
      "type": "error"
    },
    {
      "inputs": [
        {
          "internalType": "address",
          "name": "sender",
          "type": "address"
        },
        {
          "internalType": "address",
          "name": "manager",
          "type": "address"
        }
      ],
      "name": "ManagerOnly",
      "type": "error"
    },
    {
      "inputs": [],
      "name": "NonZeroValue",
      "type": "error"
    },
    {
      "inputs": [
        {
          "internalType": "uint256",
          "name": "provided",
          "type": "uint256"
        },
        {
          "internalType": "uint256",
          "name": "max",
          "type": "uint256"
        }
      ],
      "name": "Overflow",
      "type": "error"
    },
    {
      "inputs": [
        {
          "internalType": "address",
          "name": "sender",
          "type": "address"
        },
        {
          "internalType": "address",
          "name": "owner",
          "type": "address"
        }
      ],
      "name": "OwnerOnly",
      "type": "error"
    },
    {
      "inputs": [],
      "name": "Paused",
      "type": "error"
    },
    {
      "inputs": [
        {
          "internalType": "uint256",
          "name": "productId",
          "type": "uint256"
        }
      ],
      "name": "ProductClosed",
      "type": "error"
    },
    {
      "inputs": [
        {
          "internalType": "address",
          "name": "tokenAddress",
          "type": "address"
        },
        {
          "internalType": "uint256",
          "name": "productId",
          "type": "uint256"
        },
        {
          "internalType": "uint256",
          "name": "deadline",
          "type": "uint256"
        },
        {
          "internalType": "uint256",
          "name": "curTime",
          "type": "uint256"
        }
      ],
      "name": "ProductExpired",
      "type": "error"
    },
    {
      "inputs": [
        {
          "internalType": "address",
          "name": "tokenAddress",
          "type": "address"
        },
        {
          "internalType": "uint256",
          "name": "productId",
          "type": "uint256"
        },
        {
          "internalType": "uint256",
          "name": "requested",
          "type": "uint256"
        },
        {
          "internalType": "uint256",
          "name": "actual",
          "type": "uint256"
        }
      ],
      "name": "ProductSupplyLow",
      "type": "error"
    },
    {
      "inputs": [],
      "name": "ReentrancyGuard",
      "type": "error"
    },
    {
      "inputs": [],
      "name": "SameBlockNumberViolation",
      "type": "error"
    },
    {
      "inputs": [
        {
          "internalType": "uint256",
          "name": "serviceId",
          "type": "uint256"
        }
      ],
      "name": "ServiceDoesNotExist",
      "type": "error"
    },
    {
      "inputs": [
        {
          "internalType": "uint256",
          "name": "serviceId",
          "type": "uint256"
        }
      ],
      "name": "ServiceNeverDeployed",
      "type": "error"
    },
    {
      "inputs": [
        {
          "internalType": "address",
          "name": "token",
          "type": "address"
        },
        {
          "internalType": "address",
          "name": "from",
          "type": "address"
        },
        {
          "internalType": "address",
          "name": "to",
          "type": "address"
        },
        {
          "internalType": "uint256",
          "name": "amount",
          "type": "uint256"
        }
      ],
      "name": "TransferFailed",
      "type": "error"
    },
    {
      "inputs": [
        {
          "internalType": "uint256",
          "name": "epochNumber",
          "type": "uint256"
        }
      ],
      "name": "TreasuryRebalanceFailed",
      "type": "error"
    },
    {
      "inputs": [
        {
          "internalType": "address",
          "name": "tokenAddress",
          "type": "address"
        }
      ],
      "name": "UnauthorizedToken",
      "type": "error"
    },
    {
      "inputs": [
        {
          "internalType": "uint256",
          "name": "provided",
          "type": "uint256"
        },
        {
          "internalType": "uint256",
          "name": "expected",
          "type": "uint256"
        }
      ],
      "name": "WrongAmount",
      "type": "error"
    },
    {
      "inputs": [
        {
          "internalType": "uint256",
          "name": "numValues1",
          "type": "uint256"
        },
        {
          "internalType": "uint256",
          "name": "numValues2",
          "type": "uint256"
        }
      ],
      "name": "WrongArrayLength",
      "type": "error"
    },
    {
      "inputs": [
        {
          "internalType": "address",
          "name": "provided",
          "type": "address"
        },
        {
          "internalType": "address",
          "name": "expected",
          "type": "address"
        }
      ],
      "name": "WrongTokenAddress",
      "type": "error"
    },
    {
      "inputs": [
        {
          "internalType": "uint256",
          "name": "unitId",
          "type": "uint256"
        },
        {
          "internalType": "uint256",
          "name": "unitType",
          "type": "uint256"
        }
      ],
      "name": "WrongUnitId",
      "type": "error"
    },
    {
      "inputs": [],
      "name": "ZeroAddress",
      "type": "error"
    },
    {
      "inputs": [],
      "name": "ZeroValue",
      "type": "error"
    },
    {
      "anonymous": false,
      "inputs": [
        {
          "indexed": true,
          "internalType": "address",
          "name": "_bondCalculator",
          "type": "address"
        }
      ],
      "name": "BondCalculatorUpdated",
      "type": "event"
    },
    {
      "anonymous": false,
      "inputs": [
        {
          "indexed": true,
          "internalType": "address",
          "name": "token",
          "type": "address"
        },
        {
          "indexed": true,
          "internalType": "uint256",
          "name": "productId",
          "type": "uint256"
        },
        {
          "indexed": false,
          "internalType": "uint256",
          "name": "closeTime",
          "type": "uint256"
        }
      ],
      "name": "CloseProduct",
      "type": "event"
    },
    {
      "anonymous": false,
      "inputs": [
        {
          "indexed": true,
          "internalType": "address",
          "name": "token",
          "type": "address"
        },
        {
          "indexed": true,
          "internalType": "uint256",
          "name": "productId",
          "type": "uint256"
        },
        {
          "indexed": true,
          "internalType": "address",
          "name": "owner",
          "type": "address"
        },
        {
          "indexed": false,
          "internalType": "uint256",
          "name": "bondId",
          "type": "uint256"
        },
        {
          "indexed": false,
          "internalType": "uint256",
          "name": "amountOLAS",
          "type": "uint256"
        },
        {
          "indexed": false,
          "internalType": "uint256",
          "name": "tokenAmount",
          "type": "uint256"
        },
        {
          "indexed": false,
          "internalType": "uint256",
          "name": "maturity",
          "type": "uint256"
        },
        {
          "indexed": false,
          "internalType": "uint256",
          "name": "startTime",
          "type": "uint256"
        }
      ],
      "name": "CreateBond",
      "type": "event"
    },
    {
      "anonymous": false,
      "inputs": [
        {
          "indexed": true,
          "internalType": "address",
          "name": "token",
          "type": "address"
        },
        {
          "indexed": true,
          "internalType": "uint256",
          "name": "productId",
          "type": "uint256"
        },
        {
          "indexed": false,
          "internalType": "uint256",
          "name": "supply",
          "type": "uint256"
        },
        {
          "indexed": false,
          "internalType": "uint256",
          "name": "priceLP",
          "type": "uint256"
        },
        {
          "indexed": false,
          "internalType": "uint256",
          "name": "vesting",
          "type": "uint256"
        },
        {
          "indexed": false,
          "internalType": "uint256",
          "name": "startTime",
          "type": "uint256"
        }
      ],
      "name": "CreateProduct",
      "type": "event"
    },
    {
      "anonymous": false,
      "inputs": [
        {
          "indexed": true,
          "internalType": "address",
          "name": "owner",
          "type": "address"
        }
      ],
      "name": "OwnerUpdated",
      "type": "event"
    },
    {
      "anonymous": false,
      "inputs": [
        {
          "indexed": true,
          "internalType": "uint256",
          "name": "productId",
          "type": "uint256"
        },
        {
          "indexed": true,
          "internalType": "address",
          "name": "owner",
          "type": "address"
        },
        {
          "indexed": false,
          "internalType": "uint256",
          "name": "bondId",
          "type": "uint256"
        },
        {
          "indexed": false,
          "internalType": "uint256",
          "name": "redeemTime",
          "type": "uint256"
        }
      ],
      "name": "RedeemBond",
      "type": "event"
    },
    {
      "anonymous": false,
      "inputs": [
        {
          "indexed": true,
          "internalType": "address",
          "name": "tokenomics",
          "type": "address"
        }
      ],
      "name": "TokenomicsUpdated",
      "type": "event"
    },
    {
      "anonymous": false,
      "inputs": [
        {
          "indexed": true,
          "internalType": "address",
          "name": "treasury",
          "type": "address"
        }
      ],
      "name": "TreasuryUpdated",
      "type": "event"
    },
    {
      "inputs": [],
      "name": "MAX_VESTING",
      "outputs": [
        {
          "internalType": "uint256",
          "name": "",
          "type": "uint256"
        }
      ],
      "stateMutability": "view",
      "type": "function"
    },
    {
      "inputs": [],
      "name": "MIN_VESTING",
      "outputs": [
        {
          "internalType": "uint256",
          "name": "",
          "type": "uint256"
        }
      ],
      "stateMutability": "view",
      "type": "function"
    },
    {
      "inputs": [],
      "name": "bondCalculator",
      "outputs": [
        {
          "internalType": "address",
          "name": "",
          "type": "address"
        }
      ],
      "stateMutability": "view",
      "type": "function"
    },
    {
      "inputs": [],
      "name": "bondCounter",
      "outputs": [
        {
          "internalType": "uint32",
          "name": "",
          "type": "uint32"
        }
      ],
      "stateMutability": "view",
      "type": "function"
    },
    {
      "inputs": [
        {
          "internalType": "address",
          "name": "_bondCalculator",
          "type": "address"
        }
      ],
      "name": "changeBondCalculator",
      "outputs": [],
      "stateMutability": "nonpayable",
      "type": "function"
    },
    {
      "inputs": [
        {
          "internalType": "address",
          "name": "_tokenomics",
          "type": "address"
        },
        {
          "internalType": "address",
          "name": "_treasury",
          "type": "address"
        }
      ],
      "name": "changeManagers",
      "outputs": [],
      "stateMutability": "nonpayable",
      "type": "function"
    },
    {
      "inputs": [
        {
          "internalType": "address",
          "name": "newOwner",
          "type": "address"
        }
      ],
      "name": "changeOwner",
      "outputs": [],
      "stateMutability": "nonpayable",
      "type": "function"
    },
    {
      "inputs": [
        {
          "internalType": "uint256[]",
          "name": "productIds",
          "type": "uint256[]"
        }
      ],
      "name": "close",
      "outputs": [
        {
          "internalType": "uint256",
          "name": "numClosedProducts",
          "type": "uint256"
        }
      ],
      "stateMutability": "nonpayable",
      "type": "function"
    },
    {
      "inputs": [
        {
          "internalType": "address",
          "name": "token",
          "type": "address"
        },
        {
          "internalType": "uint256",
          "name": "priceLP",
          "type": "uint256"
        },
        {
          "internalType": "uint256",
          "name": "supply",
          "type": "uint256"
        },
        {
          "internalType": "uint256",
          "name": "vesting",
          "type": "uint256"
        }
      ],
      "name": "create",
      "outputs": [
        {
          "internalType": "uint256",
          "name": "productId",
          "type": "uint256"
        }
      ],
      "stateMutability": "nonpayable",
      "type": "function"
    },
    {
      "inputs": [
        {
          "internalType": "uint256",
          "name": "productId",
          "type": "uint256"
        },
        {
          "internalType": "uint256",
          "name": "tokenAmount",
          "type": "uint256"
        }
      ],
      "name": "deposit",
      "outputs": [
        {
          "internalType": "uint256",
          "name": "payout",
          "type": "uint256"
        },
        {
          "internalType": "uint256",
          "name": "maturity",
          "type": "uint256"
        },
        {
          "internalType": "uint256",
          "name": "bondId",
          "type": "uint256"
        }
      ],
      "stateMutability": "nonpayable",
      "type": "function"
    },
    {
      "inputs": [
        {
          "internalType": "uint256",
          "name": "bondId",
          "type": "uint256"
        }
      ],
      "name": "getBondStatus",
      "outputs": [
        {
          "internalType": "uint256",
          "name": "payout",
          "type": "uint256"
        },
        {
          "internalType": "bool",
          "name": "matured",
          "type": "bool"
        }
      ],
      "stateMutability": "view",
      "type": "function"
    },
    {
      "inputs": [
        {
          "internalType": "address",
          "name": "account",
          "type": "address"
        },
        {
          "internalType": "bool",
          "name": "matured",
          "type": "bool"
        }
      ],
      "name": "getBonds",
      "outputs": [
        {
          "internalType": "uint256[]",
          "name": "bondIds",
          "type": "uint256[]"
        },
        {
          "internalType": "uint256",
          "name": "payout",
          "type": "uint256"
        }
      ],
      "stateMutability": "view",
      "type": "function"
    },
    {
      "inputs": [
        {
          "internalType": "address",
          "name": "token",
          "type": "address"
        }
      ],
      "name": "getCurrentPriceLP",
      "outputs": [
        {
          "internalType": "uint256",
          "name": "priceLP",
          "type": "uint256"
        }
      ],
      "stateMutability": "view",
      "type": "function"
    },
    {
      "inputs": [],
      "name": "getProducts",
      "outputs": [
        {
          "internalType": "uint256[]",
          "name": "productIds",
          "type": "uint256[]"
        }
      ],
      "stateMutability": "view",
      "type": "function"
    },
    {
      "inputs": [
        {
          "internalType": "uint256",
          "name": "productId",
          "type": "uint256"
        }
      ],
      "name": "isActiveProduct",
      "outputs": [
        {
          "internalType": "bool",
          "name": "status",
          "type": "bool"
        }
      ],
      "stateMutability": "view",
      "type": "function"
    },
    {
      "inputs": [
        {
          "internalType": "uint256",
          "name": "",
          "type": "uint256"
        }
      ],
      "name": "mapBondProducts",
      "outputs": [
        {
          "internalType": "uint160",
          "name": "priceLP",
          "type": "uint160"
        },
        {
          "internalType": "uint32",
          "name": "vesting",
          "type": "uint32"
        },
        {
          "internalType": "address",
          "name": "token",
          "type": "address"
        },
        {
          "internalType": "uint96",
          "name": "supply",
          "type": "uint96"
        }
      ],
      "stateMutability": "view",
      "type": "function"
    },
    {
      "inputs": [
        {
          "internalType": "uint256",
          "name": "",
          "type": "uint256"
        }
      ],
      "name": "mapUserBonds",
      "outputs": [
        {
          "internalType": "address",
          "name": "account",
          "type": "address"
        },
        {
          "internalType": "uint96",
          "name": "payout",
          "type": "uint96"
        },
        {
          "internalType": "uint32",
          "name": "maturity",
          "type": "uint32"
        },
        {
          "internalType": "uint32",
          "name": "productId",
          "type": "uint32"
        }
      ],
      "stateMutability": "view",
      "type": "function"
    },
    {
      "inputs": [],
      "name": "olas",
      "outputs": [
        {
          "internalType": "address",
          "name": "",
          "type": "address"
        }
      ],
      "stateMutability": "view",
      "type": "function"
    },
    {
      "inputs": [],
      "name": "owner",
      "outputs": [
        {
          "internalType": "address",
          "name": "",
          "type": "address"
        }
      ],
      "stateMutability": "view",
      "type": "function"
    },
    {
      "inputs": [],
      "name": "productCounter",
      "outputs": [
        {
          "internalType": "uint32",
          "name": "",
          "type": "uint32"
        }
      ],
      "stateMutability": "view",
      "type": "function"
    },
    {
      "inputs": [
        {
          "internalType": "uint256[]",
          "name": "bondIds",
          "type": "uint256[]"
        }
      ],
      "name": "redeem",
      "outputs": [
        {
          "internalType": "uint256",
          "name": "payout",
          "type": "uint256"
        }
      ],
      "stateMutability": "nonpayable",
      "type": "function"
    },
    {
      "inputs": [],
      "name": "tokenomics",
      "outputs": [
        {
          "internalType": "address",
          "name": "",
          "type": "address"
        }
      ],
      "stateMutability": "view",
      "type": "function"
    },
    {
      "inputs": [],
      "name": "treasury",
      "outputs": [
        {
          "internalType": "address",
          "name": "",
          "type": "address"
        }
      ],
      "stateMutability": "view",
      "type": "function"
    }
  ],
  "bytecode": "0x608060405234801562000010575f80fd5b5060405162004df938038062004df983398181016040528101906200003691906200050f565b6200005267f9c286cc9f942c9760c01b6200049d60201b60201c565b6200006e6768a3221f25405fe860c01b6200049d60201b60201c565b335f806101000a81548173ffffffffffffffffffffffffffffffffffffffff021916908373ffffffffffffffffffffffffffffffffffffffff160217905550620000c967c4f0545c4177515a60c01b6200049d60201b60201c565b620000e567b5284c7907f4da3d60c01b6200049d60201b60201c565b5f73ffffffffffffffffffffffffffffffffffffffff168473ffffffffffffffffffffffffffffffffffffffff16148015620001395750620001386747e42875f9570e9960c01b620004a060201b60201c565b5b80620001ba57505f73ffffffffffffffffffffffffffffffffffffffff168373ffffffffffffffffffffffffffffffffffffffff161480156200019457506200019367b6a3034a70b8ed9960c01b620004a060201b60201c565b5b8015620001b95750620001b86761fbb30cfd0088bc60c01b620004a060201b60201c565b5b5b806200023b57505f73ffffffffffffffffffffffffffffffffffffffff168273ffffffffffffffffffffffffffffffffffffffff1614801562000215575062000214676d90939fdaabe16560c01b620004a060201b60201c565b5b80156200023a5750620002396701bb3c59cc1f6d8d60c01b620004a060201b60201c565b5b5b806200029757505f73ffffffffffffffffffffffffffffffffffffffff168173ffffffffffffffffffffffffffffffffffffffff161480156200029657506200029567f14ea01e18c203ab60c01b620004a060201b60201c565b5b5b156200030757620002b96703e9d3b75b34148260c01b6200049d60201b60201c565b620002d5679124f965bf7282ed60c01b6200049d60201b60201c565b6040517fd92e233d00000000000000000000000000000000000000000000000000000000815260040160405180910390fd5b620003236776838616d0c4c94760c01b6200049d60201b60201c565b6200033f67b1b73d3352c807b260c01b6200049d60201b60201c565b8360015f6101000a81548173ffffffffffffffffffffffffffffffffffffffff021916908373ffffffffffffffffffffffffffffffffffffffff1602179055506200039b67ca351bf7eca49efe60c01b6200049d60201b60201c565b8260025f6101000a81548173ffffffffffffffffffffffffffffffffffffffff021916908373ffffffffffffffffffffffffffffffffffffffff160217905550620003f76794adfd8d6d5933ab60c01b6200049d60201b60201c565b8160035f6101000a81548173ffffffffffffffffffffffffffffffffffffffff021916908373ffffffffffffffffffffffffffffffffffffffff1602179055506200045367b0c38e610789efff60c01b6200049d60201b60201c565b8060045f6101000a81548173ffffffffffffffffffffffffffffffffffffffff021916908373ffffffffffffffffffffffffffffffffffffffff160217905550505050506200057e565b50565b5f60019050919050565b5f80fd5b5f73ffffffffffffffffffffffffffffffffffffffff82169050919050565b5f620004d982620004ae565b9050919050565b620004eb81620004cd565b8114620004f6575f80fd5b50565b5f815190506200050981620004e0565b92915050565b5f805f80608085870312156200052a5762000529620004aa565b5b5f6200053987828801620004f9565b94505060206200054c87828801620004f9565b93505060406200055f87828801620004f9565b92505060606200057287828801620004f9565b91505092959194509250565b61486d806200058c5f395ff3fe608060405234801561000f575f80fd5b506004361061018a575f3560e01c80638c71ec16116100e1578063e42f99191161008a578063f94abb4511610064578063f94abb4514610477578063f9afb26a14610495578063fc63e42d146104c55761018a565b8063e42f9919146103e3578063e91b0a4114610416578063f731960c146104475761018a565b8063c29b2f20116100bb578063c29b2f2014610375578063c5332b7c14610393578063e2bbb158146103b15761018a565b80638c71ec161461030b5780638da5cb5b1461033b578063a6f9dae1146103595761018a565b80634ac7251d116101435780635b400e4f1161011d5780635b400e4f1461029e57806361d027b3146102cf57806363e63e3b146102ed5761018a565b80634ac7251d146102325780635831d8851461025057806358d3ec6a1461026e5761018a565b8063158555371161017457806315855537146101c85780631f16653b146101e457806324415cf6146102025761018a565b806231d1151461018e5780630c062810146101ac575b5f80fd5b6101966104f8565b6040516101a39190613dab565b60405180910390f35b6101c660048036038101906101c19190613dff565b61051d565b005b6101e260048036038101906101dd9190613e3d565b6108d9565b005b6101ec610b4c565b6040516101f99190613e86565b60405180910390f35b61021c60048036038101906102179190613e3d565b610b61565b6040516102299190613eb7565b60405180910390f35b61023a610c3e565b6040516102479190613dab565b60405180910390f35b610258610c63565b6040516102659190613e86565b60405180910390f35b6102886004803603810190610283919061404a565b610c78565b6040516102959190613eb7565b60405180910390f35b6102b860048036038101906102b391906140c6565b611147565b6040516102c69291906141bb565b60405180910390f35b6102d761172a565b6040516102e49190613dab565b60405180910390f35b6102f561174f565b6040516103029190613eb7565b60405180910390f35b610325600480360381019061032091906141e9565b611756565b6040516103329190613eb7565b60405180910390f35b610343612313565b6040516103509190613dab565b60405180910390f35b610373600480360381019061036e9190613e3d565b612336565b005b61037d6125e8565b60405161038a919061424d565b60405180910390f35b61039b6129de565b6040516103a89190613dab565b60405180910390f35b6103cb60048036038101906103c6919061426d565b612a03565b6040516103da939291906142ab565b60405180910390f35b6103fd60048036038101906103f891906142e0565b6133cd565b60405161040d9493929190614340565b60405180910390f35b610430600480360381019061042b91906142e0565b61345e565b60405161043e929190614392565b60405180910390f35b610461600480360381019061045c91906142e0565b613569565b60405161046e91906143b9565b60405180910390f35b61047f6135d6565b60405161048c9190613eb7565b60405180910390f35b6104af60048036038101906104aa919061404a565b6135de565b6040516104bc9190613eb7565b60405180910390f35b6104df60048036038101906104da91906142e0565b613cde565b6040516104ef94939291906143d2565b60405180910390f35b60015f9054906101000a900473ffffffffffffffffffffffffffffffffffffffff1681565b610531674c40d16feff1a6df60c01b613d5f565b61054567479e7176dc50d23e60c01b613d5f565b6105596741117cb04f249eac60c01b613d5f565b5f8054906101000a900473ffffffffffffffffffffffffffffffffffffffff1673ffffffffffffffffffffffffffffffffffffffff163373ffffffffffffffffffffffffffffffffffffffff1614610631576105bf6725d9c4d1b50666a860c01b613d5f565b6105d36747d606f0c19c830060c01b613d5f565b335f8054906101000a900473ffffffffffffffffffffffffffffffffffffffff166040517fa43d6ada000000000000000000000000000000000000000000000000000000008152600401610628929190614415565b60405180910390fd5b610645679417f2bf2e25851860c01b613d5f565b61065967a0042d63eba9130e60c01b613d5f565b61066d6718bbe245e03f5c0060c01b613d5f565b5f73ffffffffffffffffffffffffffffffffffffffff168273ffffffffffffffffffffffffffffffffffffffff1614610778576106b467ec49bc2bb31e3ab160c01b613d5f565b6106c867f5f285ba6190ec4160c01b613d5f565b8160025f6101000a81548173ffffffffffffffffffffffffffffffffffffffff021916908373ffffffffffffffffffffffffffffffffffffffff16021790555061071c67c1e66bf5c233246760c01b613d5f565b61073067155c3c4fe76dfc4c60c01b613d5f565b8173ffffffffffffffffffffffffffffffffffffffff167f4672fe7e13cfb163442d0b729b5733fb3efafc66cbe3677eac9940eb41c284c260405160405180910390a261078d565b61078c67c6d1ec7da86cce7e60c01b613d5f565b5b6107a1676a8b23bae0fa403060c01b613d5f565b6107b567414e3401496e8ae360c01b613d5f565b5f73ffffffffffffffffffffffffffffffffffffffff168173ffffffffffffffffffffffffffffffffffffffff16146108c0576107fc67e3afc0958292416f60c01b613d5f565b61081067700459c09f1e183760c01b613d5f565b8060035f6101000a81548173ffffffffffffffffffffffffffffffffffffffff021916908373ffffffffffffffffffffffffffffffffffffffff16021790555061086467acd314c852b28dc160c01b613d5f565b610878671f059ca58612933060c01b613d5f565b8073ffffffffffffffffffffffffffffffffffffffff167f7dae230f18360d76a040c81f050aa14eb9d6dc7901b20fc5d855e2a20fe814d160405160405180910390a26108d5565b6108d46754999c7d86d3f71760c01b613d5f565b5b5050565b6108ed67dec67731436a34bb60c01b613d5f565b610901670cdbad38856dea4a60c01b613d5f565b6109156758ac08376310767460c01b613d5f565b5f8054906101000a900473ffffffffffffffffffffffffffffffffffffffff1673ffffffffffffffffffffffffffffffffffffffff163373ffffffffffffffffffffffffffffffffffffffff16146109ed5761097b67e63af265d797b2be60c01b613d5f565b61098f67ae8b8d431e3e56f760c01b613d5f565b335f8054906101000a900473ffffffffffffffffffffffffffffffffffffffff166040517fa43d6ada0000000000000000000000000000000000000000000000000000000081526004016109e4929190614415565b60405180910390fd5b610a0167a5f8402f587bb18560c01b613d5f565b610a1567ef135ad074d38e6460c01b613d5f565b610a2967016cf0536d39456760c01b613d5f565b5f73ffffffffffffffffffffffffffffffffffffffff168173ffffffffffffffffffffffffffffffffffffffff1614610b3457610a7067b42420d699329ffa60c01b613d5f565b610a84674fa2469e0cc51c7060c01b613d5f565b8060045f6101000a81548173ffffffffffffffffffffffffffffffffffffffff021916908373ffffffffffffffffffffffffffffffffffffffff160217905550610ad8670fe85eeebebdf00f60c01b613d5f565b610aec67106fe1f0f01b3b9060c01b613d5f565b8073ffffffffffffffffffffffffffffffffffffffff167f179276fedd32be7c465135f8e074aefcd470c855d2550f83a36a45bfbaa61ea560405160405180910390a2610b49565b610b486763052f966cce035060c01b613d5f565b5b50565b5f60189054906101000a900463ffffffff1681565b5f610b766714abd1f0a7f8163960c01b613d5f565b610b8a67a3c5e88a91ede96860c01b613d5f565b610b9e6714eb037a9bde994860c01b613d5f565b60045f9054906101000a900473ffffffffffffffffffffffffffffffffffffffff1673ffffffffffffffffffffffffffffffffffffffff166324415cf6836040518263ffffffff1660e01b8152600401610bf89190613dab565b602060405180830381865afa158015610c13573d5f803e3d5ffd5b505050506040513d601f19601f82011682018060405250810190610c379190614450565b9050919050565b60025f9054906101000a900473ffffffffffffffffffffffffffffffffffffffff1681565b5f60149054906101000a900463ffffffff1681565b5f610c8d67b83e97dfb86c86fc60c01b613d5f565b610ca167e1f482ceff926ff360c01b613d5f565b610cb567f465f50d3084385460c01b613d5f565b5f8054906101000a900473ffffffffffffffffffffffffffffffffffffffff1673ffffffffffffffffffffffffffffffffffffffff163373ffffffffffffffffffffffffffffffffffffffff1614610d8d57610d1b67a1b3abbbd6b5749560c01b613d5f565b610d2f67722715130d38ff7060c01b613d5f565b335f8054906101000a900473ffffffffffffffffffffffffffffffffffffffff166040517fa43d6ada000000000000000000000000000000000000000000000000000000008152600401610d84929190614415565b60405180910390fd5b610da167e00fbee5521773e760c01b613d5f565b610db56776dbe122d79451e160c01b613d5f565b610dc9673607c51fd8bc06c860c01b613d5f565b5f5b825181101561114157610de8673f6c6c0b224fb7ef60c01b613d5f565b610dfc67aff900bc51b431c360c01b613d5f565b5f838281518110610e1057610e0f61447b565b5b60200260200101519050610e2e675fd96643eb7d658d60c01b613d5f565b610e4267096be1eaef4fc07f60c01b613d5f565b5f60065f8381526020019081526020015f2060010160149054906101000a90046bffffffffffffffffffffffff166bffffffffffffffffffffffff169050610e94676615fcc35e8c151560c01b613d5f565b610ea86738129be8d639762b60c01b613d5f565b5f81111561111957610ec467069272d927f591b760c01b613d5f565b610ed86736f20b04ce5d05c060c01b613d5f565b610eec67c7ba6d847cc7f7eb60c01b613d5f565b60025f9054906101000a900473ffffffffffffffffffffffffffffffffffffffff1673ffffffffffffffffffffffffffffffffffffffff16637048960c826040518263ffffffff1660e01b8152600401610f469190613eb7565b5f604051808303815f87803b158015610f5d575f80fd5b505af1158015610f6f573d5f803e3d5ffd5b50505050610f8767dc04111ae7f097e160c01b613d5f565b610f9b677e6546cd779966cf60c01b613d5f565b5f60065f8481526020019081526020015f206001015f9054906101000a900473ffffffffffffffffffffffffffffffffffffffff169050610fe6675596b439847aba0660c01b613d5f565b60065f8481526020019081526020015f205f8082015f6101000a81549073ffffffffffffffffffffffffffffffffffffffff02191690555f820160146101000a81549063ffffffff0219169055600182015f6101000a81549073ffffffffffffffffffffffffffffffffffffffff02191690556001820160146101000a8154906bffffffffffffffffffffffff0219169055505061108e67fd9e127e78a67bba60c01b613d5f565b8480611099906144d5565b9550506110b067c9867605325671b860c01b613d5f565b6110c467f305b307b16ba9cc60c01b613d5f565b828173ffffffffffffffffffffffffffffffffffffffff167f677b70dc7e4a19e6af55f981ac3706886716a25e9c0b978ec0c427f51ce68b184260405161110b9190613eb7565b60405180910390a35061112e565b61112d67f1bc6b252cfa5fb460c01b613d5f565b5b50508061113a906144d5565b9050610dcb565b50919050565b60605f61115e67b5647316bf9049c060c01b613d5f565b611172677479b31051597c2260c01b613d5f565b61118667df9424563bcf279b60c01b613d5f565b5f73ffffffffffffffffffffffffffffffffffffffff168473ffffffffffffffffffffffffffffffffffffffff1603611213576111cd678b2968713e5d2c5460c01b613d5f565b6111e167fbe8492e6308b68b60c01b613d5f565b6040517fd92e233d00000000000000000000000000000000000000000000000000000000815260040160405180910390fd5b611227677333f26544e19cea60c01b613d5f565b61123b6708f4e0ab56be835c60c01b613d5f565b61124f67b49c8258e1c75fa060c01b613d5f565b5f611264672add040e9aabb0c060c01b613d5f565b61127867c54379f214ec6db960c01b613d5f565b5f8060149054906101000a900463ffffffff1663ffffffff1690506112a76772d0e8d383bcf98460c01b613d5f565b6112bb672f36dbb1c2f1066e60c01b613d5f565b5f8167ffffffffffffffff8111156112d6576112d5613ee4565b5b6040519080825280602002602001820160405280156113045781602001602082028036833780820191505090505b50905061131b67bf97f989e46f1ce160c01b613d5f565b61132f67d18f6f9abcfe568860c01b613d5f565b5f5b828110156115865761134d6737bfc8e203c7fd8760c01b613d5f565b6113616787ea659b7194653560c01b613d5f565b8773ffffffffffffffffffffffffffffffffffffffff1660055f8381526020019081526020015f205f015f9054906101000a900473ffffffffffffffffffffffffffffffffffffffff1673ffffffffffffffffffffffffffffffffffffffff160361155e576113da6747ec8b6d4777640a60c01b613d5f565b6113ee6707ceff0bb4a1681860c01b613d5f565b61140267df54a03bafc47e1960c01b613d5f565b86158015611420575061141f6757efab2db65eed7a60c01b613d62565b5b80611470575060055f8281526020019081526020015f206001015f9054906101000a900463ffffffff1663ffffffff16421015801561146f575061146e67c6ccf932f27e4b6760c01b613d62565b5b5b156115445761148967766bbd649f74254a60c01b613d5f565b61149d67a5f393ba2eea5b1860c01b613d5f565b60018282815181106114b2576114b161447b565b5b6020026020010190151590811515815250506114d867344deb4ec25de9b260c01b613d5f565b836114e2906144d5565b93506114f86754ac887db266189060c01b613d5f565b60055f8281526020019081526020015f205f0160149054906101000a90046bffffffffffffffffffffffff166bffffffffffffffffffffffff168561153d919061451c565b9450611559565b61155867163148de2467c73360c01b613d5f565b5b611573565b61157267c6d1b16b44a30e9160c01b613d5f565b5b808061157e906144d5565b915050611331565b5061159b6735a7a9ebe45e5b3160c01b613d5f565b8267ffffffffffffffff8111156115b5576115b4613ee4565b5b6040519080825280602002602001820160405280156115e35781602001602082028036833780820191505090505b5094506115fa671226badbd7beb85260c01b613d5f565b61160e676d9eac0a5ada288360c01b613d5f565b5f6116236729858f8c72027e5460c01b613d5f565b61163767dfeb9f842819c7db60c01b613d5f565b5f5b8381101561171e57611655678d14a14e49bac66660c01b613d5f565b61166967fba57ebf82e89ab460c01b613d5f565b82818151811061167c5761167b61447b565b5b6020026020010151156116f65761169d6778bbeaf5144c99ca60c01b613d5f565b6116b1674447dc2807e02c8a60c01b613d5f565b808783815181106116c5576116c461447b565b5b6020026020010181815250506116e5675ded1b40c28ffde660c01b613d5f565b816116ef906144d5565b915061170b565b61170a67903961fed72daefe60c01b613d5f565b5b8080611716906144d5565b915050611639565b50505050509250929050565b60035f9054906101000a900473ffffffffffffffffffffffffffffffffffffffff1681565b6201518081565b5f61176b67393075acd79b0de460c01b613d5f565b61177f675c736b116d3ebdf560c01b613d5f565b6117936733c40145681164ae60c01b613d5f565b5f8054906101000a900473ffffffffffffffffffffffffffffffffffffffff1673ffffffffffffffffffffffffffffffffffffffff163373ffffffffffffffffffffffffffffffffffffffff161461186b576117f967263a0afd1c58441860c01b613d5f565b61180d67fa61c8c344d49a5160c01b613d5f565b335f8054906101000a900473ffffffffffffffffffffffffffffffffffffffff166040517fa43d6ada000000000000000000000000000000000000000000000000000000008152600401611862929190614415565b60405180910390fd5b61187f67d1fe982de9b9318a60c01b613d5f565b61189367ab1f5e4d3cd360ec60c01b613d5f565b6118a767844d8fcca0cb57d160c01b613d5f565b5f8403611908576118c267f369e2c8d249b82560c01b613d5f565b6118d667d5e760ffc3a5fa9a60c01b613d5f565b6040517f7c946ed700000000000000000000000000000000000000000000000000000000815260040160405180910390fd5b61191c67438a78526a17f85760c01b613d5f565b61193067bc9316c553353e0a60c01b613d5f565b6119446725f3869d496f6e9d60c01b613d5f565b73ffffffffffffffffffffffffffffffffffffffff80168411156119dd57611976674ee9e3c36fedc4a060c01b613d5f565b61198a6787ce5efced94d94760c01b613d5f565b8373ffffffffffffffffffffffffffffffffffffffff6040517f7ae596850000000000000000000000000000000000000000000000000000000081526004016119d4929190614588565b60405180910390fd5b6119f167e22368c1de2763a160c01b613d5f565b611a05674cc0ffaf08ee0e3960c01b613d5f565b611a19677627384674af7cfb60c01b613d5f565b5f8303611a7a57611a34678c4d4323b0d7bb6160c01b613d5f565b611a4867860c78a7a96022e360c01b613d5f565b6040517f7c946ed700000000000000000000000000000000000000000000000000000000815260040160405180910390fd5b611a8e67f196b572c118a11c60c01b613d5f565b611aa2671225b629f82265d760c01b613d5f565b611ab667644ea40e4d54360760c01b613d5f565b6bffffffffffffffffffffffff8016831115611b3f57611ae067baf53ea3779040d760c01b613d5f565b611af467f7bf3927a79d8d8860c01b613d5f565b826bffffffffffffffffffffffff6040517f7ae59685000000000000000000000000000000000000000000000000000000008152600401611b369291906145df565b60405180910390fd5b611b536790831df42fa951be60c01b613d5f565b611b676791a2e1240e9a9e5760c01b613d5f565b611b7b67b80e5c0ff3395f3960c01b613d5f565b62015180821015611bf057611b9a6799e7f635ad1de8f460c01b613d5f565b611bae67d0cc16fde85113bb60c01b613d5f565b81620151806040517f491a2bb1000000000000000000000000000000000000000000000000000000008152600401611be7929190614606565b60405180910390fd5b611c046781b7b689203e62d860c01b613d5f565b611c1867269369af39fa414360c01b613d5f565b611c2c67885ed017c7c5933960c01b613d5f565b630784ce00821115611ca357611c4c671861b63f2ffa7ac860c01b613d5f565b611c6067eecbcaa31dab5b7f60c01b613d5f565b81630784ce006040517f7ae59685000000000000000000000000000000000000000000000000000000008152600401611c9a929190614606565b60405180910390fd5b611cb767d2c091d289005b4260c01b613d5f565b611ccb67ff6ec124e2dea1d160c01b613d5f565b611cdf67dda7a7c90fddbf5460c01b613d5f565b5f8242611cec919061451c565b9050611d0267bd6bc5d1644eadba60c01b613d5f565b611d1667a5c1220f50df2e8a60c01b613d5f565b63ffffffff8016811115611d8f57611d3867ab6c0e615a47f1e560c01b613d5f565b611d4c67962939341b26e1c160c01b613d5f565b8063ffffffff6040517f7ae59685000000000000000000000000000000000000000000000000000000008152600401611d8692919061465d565b60405180910390fd5b611da367f475bd2d1d0dff3b60c01b613d5f565b611db7671ced50bf8f1dc30360c01b613d5f565b611dcb67f0235dcc3f15f0a560c01b613d5f565b60035f9054906101000a900473ffffffffffffffffffffffffffffffffffffffff1673ffffffffffffffffffffffffffffffffffffffff16639015d371876040518263ffffffff1660e01b8152600401611e259190613dab565b602060405180830381865afa158015611e40573d5f803e3d5ffd5b505050506040513d601f19601f82011682018060405250810190611e649190614698565b611ecd57611e7c678b21000ae55fc9c560c01b613d5f565b611e9067e915addc38876ec960c01b613d5f565b856040517fe3d87c62000000000000000000000000000000000000000000000000000000008152600401611ec49190613dab565b60405180910390fd5b611ee1679b77d4dc8a7fdfa360c01b613d5f565b611ef5673a9b2602dcb6f37f60c01b613d5f565b611f09674ab98fabd9a2a0f360c01b613d5f565b60025f9054906101000a900473ffffffffffffffffffffffffffffffffffffffff1673ffffffffffffffffffffffffffffffffffffffff1663426e77df856040518263ffffffff1660e01b8152600401611f639190613eb7565b6020604051808303815f875af1158015611f7f573d5f803e3d5ffd5b505050506040513d601f19601f82011682018060405250810190611fa39190614698565b61209b57611fbb679ee7ede8c9abd15e60c01b613d5f565b611fcf67ac1cac725bccd68460c01b613d5f565b60025f9054906101000a900473ffffffffffffffffffffffffffffffffffffffff1673ffffffffffffffffffffffffffffffffffffffff16638fc2b24d6040518163ffffffff1660e01b8152600401602060405180830381865afa158015612039573d5f803e3d5ffd5b505050506040513d601f19601f8201168201806040525081019061205d9190614450565b846040517f491a2bb1000000000000000000000000000000000000000000000000000000008152600401612092929190614606565b60405180910390fd5b6120af67af708ad11c280c2760c01b613d5f565b6120c367a33a43e1b92c1cb160c01b613d5f565b5f60189054906101000a900463ffffffff1663ffffffff1691506120f167ac1cb06baa73844460c01b613d5f565b60405180608001604052808673ffffffffffffffffffffffffffffffffffffffff1681526020018463ffffffff1681526020018773ffffffffffffffffffffffffffffffffffffffff168152602001856bffffffffffffffffffffffff1681525060065f8481526020019081526020015f205f820151815f015f6101000a81548173ffffffffffffffffffffffffffffffffffffffff021916908373ffffffffffffffffffffffffffffffffffffffff1602179055506020820151815f0160146101000a81548163ffffffff021916908363ffffffff1602179055506040820151816001015f6101000a81548173ffffffffffffffffffffffffffffffffffffffff021916908373ffffffffffffffffffffffffffffffffffffffff16021790555060608201518160010160146101000a8154816bffffffffffffffffffffffff02191690836bffffffffffffffffffffffff160217905550905050612261674718b4f64b76dff760c01b613d5f565b60018261226e919061451c565b5f60186101000a81548163ffffffff021916908363ffffffff1602179055506122a167fcab3d407517b0d660c01b613d5f565b6122b567bc1f038b4ffdb69660c01b613d5f565b818673ffffffffffffffffffffffffffffffffffffffff167fbdd07923b47ccc335138c84f25d2ba24451026d15283c2735a7399545a6b66c28688874260405161230294939291906146c3565b60405180910390a350949350505050565b5f8054906101000a900473ffffffffffffffffffffffffffffffffffffffff1681565b61234a67909005d1a640af4d60c01b613d5f565b61235e679ad0469201dd516160c01b613d5f565b612372675416a81e83fa486560c01b613d5f565b5f8054906101000a900473ffffffffffffffffffffffffffffffffffffffff1673ffffffffffffffffffffffffffffffffffffffff163373ffffffffffffffffffffffffffffffffffffffff161461244a576123d867e38fee35e2d8426660c01b613d5f565b6123ec67fcbe4d913ccd691460c01b613d5f565b335f8054906101000a900473ffffffffffffffffffffffffffffffffffffffff166040517fa43d6ada000000000000000000000000000000000000000000000000000000008152600401612441929190614415565b60405180910390fd5b61245e67c6ed4c724abf13e860c01b613d5f565b6124726791d841b8bb6e6eb160c01b613d5f565b612486673a9b9329a562234760c01b613d5f565b5f73ffffffffffffffffffffffffffffffffffffffff168173ffffffffffffffffffffffffffffffffffffffff1603612513576124cd67714a746df2f6aec660c01b613d5f565b6124e167618429452b8d0df060c01b613d5f565b6040517fd92e233d00000000000000000000000000000000000000000000000000000000815260040160405180910390fd5b612527670c44ce36412e01c860c01b613d5f565b61253b67a5b82401aaa7e3f760c01b613d5f565b805f806101000a81548173ffffffffffffffffffffffffffffffffffffffff021916908373ffffffffffffffffffffffffffffffffffffffff16021790555061258e671978fd6c7169f92260c01b613d5f565b6125a2675eda1378a54a08f760c01b613d5f565b8073ffffffffffffffffffffffffffffffffffffffff167f4ffd725fc4a22075e9ec71c59edf9c38cdeb588a91b24fc5b61388c5be41282b60405160405180910390a250565b60606125fe67de6ab2af3ddba32360c01b613d5f565b6126126759c22bbe35b45dc160c01b613d5f565b61262667ee5d158e648cef8060c01b613d5f565b5f8060189054906101000a900463ffffffff1663ffffffff16905061265567c8b8281f76c591b360c01b613d5f565b6126696787e7aaa745fed40460c01b613d5f565b5f8167ffffffffffffffff81111561268457612683613ee4565b5b6040519080825280602002602001820160405280156126b25781602001602082028036833780820191505090505b5090506126c967669c9d9f6daaa85c60c01b613d5f565b6126dd67a02425c5f543855c60c01b613d5f565b5f6126f2679c0e11c5038e4b3360c01b613d5f565b612706671f3aecc44186673a60c01b613d5f565b5f5b83811015612816576127246727874f89a387609760c01b613d5f565b612738672fbc5215196610af60c01b613d5f565b5f60065f8381526020019081526020015f2060010160149054906101000a90046bffffffffffffffffffffffff166bffffffffffffffffffffffff1611156127ee5761278e67212633f44d1e49b860c01b613d5f565b6127a267430d27251b328de260c01b613d5f565b60018382815181106127b7576127b661447b565b5b6020026020010190151590811515815250506127dd67683f86fd2fd4daa360c01b613d5f565b816127e7906144d5565b9150612803565b612802671f931c6789accf6860c01b613d5f565b5b808061280e906144d5565b915050612708565b5061282b671a2d8e66e91642e360c01b613d5f565b8067ffffffffffffffff81111561284557612844613ee4565b5b6040519080825280602002602001820160405280156128735781602001602082028036833780820191505090505b50935061288a673887b2792f5b947660c01b613d5f565b61289e67792128e12d63ed5d60c01b613d5f565b5f6128b367b77a23345b7c06c460c01b613d5f565b6128c767f3d419c3907eba1b60c01b613d5f565b5f5b848110156129ae576128e567737e6445d714915660c01b613d5f565b6128f9672449eb3b79a9f0b060c01b613d5f565b83818151811061290c5761290b61447b565b5b6020026020010151156129865761292d6756bd1ce4f4b9f03260c01b613d5f565b6129416773540a91a91e32eb60c01b613d5f565b808683815181106129555761295461447b565b5b602002602001018181525050612975671d9c82305d2cdc1460c01b613d5f565b8161297f906144d5565b915061299b565b61299a67679eade3e4a942fc60c01b613d5f565b5b80806129a6906144d5565b9150506128c9565b506129c36778c445e7b0f5649360c01b613d5f565b6129d767846c02193b30154a60c01b613d5f565b5050505090565b60045f9054906101000a900473ffffffffffffffffffffffffffffffffffffffff1681565b5f805f612a1a675d865967dd7eaff060c01b613d5f565b612a2e670354afeebcdcf57760c01b613d5f565b612a4267ff8d71c835bedf6a60c01b613d5f565b5f8403612aa357612a5d673fa958c852c3d42760c01b613d5f565b612a71677914eec9ec2b035660c01b613d5f565b6040517f7c946ed700000000000000000000000000000000000000000000000000000000815260040160405180910390fd5b612ab76787fe75ecfa60792060c01b613d5f565b612acb67b25abf594184b7c660c01b613d5f565b612adf674816d04b83c77b8360c01b613d5f565b5f60065f8781526020019081526020015f209050612b0767f1da12bd30816d7960c01b613d5f565b612b1b67c80a5d96e037497360c01b613d5f565b5f816001015f9054906101000a900473ffffffffffffffffffffffffffffffffffffffff169050612b56675252f4d1f2a04b6560c01b613d5f565b612b6a67167aaa7d48a46ee160c01b613d5f565b5f825f0160149054906101000a900463ffffffff1663ffffffff169050612b9b67e9c2a3379af0cf7f60c01b613d5f565b612baf671e0a7b96950b5d8e60c01b613d5f565b5f8103612c2157612bca6754e5cc20d43733de60c01b613d5f565b612bde67203c65ca50ea51cd60c01b613d5f565b818882426040517f981ef42f000000000000000000000000000000000000000000000000000000008152600401612c189493929190614706565b60405180910390fd5b612c3567d2dc715ab69aefa260c01b613d5f565b612c4967f0052586c546f31760c01b613d5f565b4281612c55919061451c565b9450612c6b678f672ff74e03844d60c01b613d5f565b612c7f67b662ece65d34570760c01b613d5f565b63ffffffff8016851115612cf857612ca167a10673bd1fb920cd60c01b613d5f565b612cb56759016cf201bf0a8b60c01b613d5f565b8463ffffffff6040517f7ae59685000000000000000000000000000000000000000000000000000000008152600401612cef92919061465d565b60405180910390fd5b612d0c67d2764da462a61e4660c01b613d5f565b612d2067b2b25c19f0af1fb460c01b613d5f565b60045f9054906101000a900473ffffffffffffffffffffffffffffffffffffffff1673ffffffffffffffffffffffffffffffffffffffff16637e5b099888855f015f9054906101000a900473ffffffffffffffffffffffffffffffffffffffff166040518363ffffffff1660e01b8152600401612d9e929190614588565b602060405180830381865afa158015612db9573d5f803e3d5ffd5b505050506040513d601f19601f82011682018060405250810190612ddd9190614450565b9550612df367ebb8ed9bf2fbc32060c01b613d5f565b612e0767cec21df7e7d5436a60c01b613d5f565b5f8360010160149054906101000a90046bffffffffffffffffffffffff166bffffffffffffffffffffffff169050612e49678fddb6d69b73f46e60c01b613d5f565b612e5d674601e666c556e77860c01b613d5f565b80871115612ed057612e79677a5b89ce9eeb453b60c01b613d5f565b612e8d6780449209cf936b5e60c01b613d5f565b828988836040517f545a9085000000000000000000000000000000000000000000000000000000008152600401612ec79493929190614706565b60405180910390fd5b612ee46775529ff393ffcc2760c01b613d5f565b612ef8675967fcffad37271760c01b613d5f565b8681612f049190614749565b9050612f1a679810f0fdca81176360c01b613d5f565b808460010160146101000a8154816bffffffffffffffffffffffff02191690836bffffffffffffffffffffffff160217905550612f6167d1d32b6a18f1600360c01b613d5f565b5f60149054906101000a900463ffffffff1663ffffffff169450612f8f675514876afe631e9060c01b613d5f565b60405180608001604052803373ffffffffffffffffffffffffffffffffffffffff168152602001886bffffffffffffffffffffffff1681526020018763ffffffff1681526020018a63ffffffff1681525060055f8781526020019081526020015f205f820151815f015f6101000a81548173ffffffffffffffffffffffffffffffffffffffff021916908373ffffffffffffffffffffffffffffffffffffffff1602179055506020820151815f0160146101000a8154816bffffffffffffffffffffffff02191690836bffffffffffffffffffffffff1602179055506040820151816001015f6101000a81548163ffffffff021916908363ffffffff16021790555060608201518160010160046101000a81548163ffffffff021916908363ffffffff1602179055509050506130cf67b7cc509497ff987260c01b613d5f565b6001856130dc919061451c565b5f60146101000a81548163ffffffff021916908363ffffffff16021790555061310f678d820e3b9fe676d660c01b613d5f565b61312367907321cef8adf3be60c01b613d5f565b60035f9054906101000a900473ffffffffffffffffffffffffffffffffffffffff1673ffffffffffffffffffffffffffffffffffffffff16631ac17db9338a868b6040518563ffffffff1660e01b8152600401613183949392919061477c565b5f604051808303815f87803b15801561319a575f80fd5b505af11580156131ac573d5f803e3d5ffd5b505050506131c4672900b27a0b3d630c60c01b613d5f565b6131d8679123312eb071f3f060c01b613d5f565b5f8103613317576131f3673f122bd6861b412a60c01b613d5f565b6132076746b8c4b99738d2a760c01b613d5f565b60065f8a81526020019081526020015f205f8082015f6101000a81549073ffffffffffffffffffffffffffffffffffffffff02191690555f820160146101000a81549063ffffffff0219169055600182015f6101000a81549073ffffffffffffffffffffffffffffffffffffffff02191690556001820160146101000a8154906bffffffffffffffffffffffff021916905550506132af6755c445ae745cf6bc60c01b613d5f565b6132c36744c5550661e9be4860c01b613d5f565b888373ffffffffffffffffffffffffffffffffffffffff167f677b70dc7e4a19e6af55f981ac3706886716a25e9c0b978ec0c427f51ce68b184260405161330a9190613eb7565b60405180910390a361332c565b61332b67bd4fd8996aa9da0660c01b613d5f565b5b61334067ffffe4a6664d44b660c01b613d5f565b6133546742b1d5899ef7a0b360c01b613d5f565b3373ffffffffffffffffffffffffffffffffffffffff16898473ffffffffffffffffffffffffffffffffffffffff167f4f8a2181c09e9410fbe46222dd07fd5225026525568ecee04b39c0743577d5f9888b8d8c426040516133ba9594939291906147bf565b60405180910390a4505050509250925092565b6006602052805f5260405f205f91509050805f015f9054906101000a900473ffffffffffffffffffffffffffffffffffffffff1690805f0160149054906101000a900463ffffffff1690806001015f9054906101000a900473ffffffffffffffffffffffffffffffffffffffff16908060010160149054906101000a90046bffffffffffffffffffffffff16905084565b5f8061347467ac252f116d5fd9f960c01b613d5f565b6134886704164cbc17130bfa60c01b613d5f565b60055f8481526020019081526020015f205f0160149054906101000a90046bffffffffffffffffffffffff166bffffffffffffffffffffffff1691506134d86791b6a12eaae0ac9b60c01b613d5f565b6134ec67d79a97e28f05ac7160c01b613d5f565b5f82111561354f5761350766951e01008c9df760c01b613d5f565b61351b672b29cced2684938b60c01b613d5f565b60055f8481526020019081526020015f206001015f9054906101000a900463ffffffff1663ffffffff164210159050613564565b61356367ca94554e61c2ea9060c01b613d5f565b5b915091565b5f61357e67a34ce1876610dc8a60c01b613d5f565b613592679bcfd8ca778ef60c60c01b613d5f565b5f60065f8481526020019081526020015f2060010160149054906101000a90046bffffffffffffffffffffffff166bffffffffffffffffffffffff16119050919050565b630784ce0081565b5f6135f367d724dccd4278346360c01b613d5f565b61360767651a5f6c95f5ee9960c01b613d5f565b61361b675395f38e7eca557060c01b613d5f565b5f5b8251811015613b765761363a675adc5bc534714a7e60c01b613d5f565b61364e6705dd29f6381d5ae960c01b613d5f565b5f60055f8584815181106136655761366461447b565b5b602002602001015181526020019081526020015f205f0160149054906101000a90046bffffffffffffffffffffffff166bffffffffffffffffffffffff1690506136b967a5a88f5262cabb0e60c01b613d5f565b6136cd67575860fcea29cf8a60c01b613d5f565b5f60055f8685815181106136e4576136e361447b565b5b602002602001015181526020019081526020015f206001015f9054906101000a900463ffffffff1663ffffffff16421015905061372b67700c1d292d61333460c01b613d5f565b61373f675179d7d2a1b8be8c60c01b613d5f565b5f8214801561375e575061375d67c33dcf2718344dad60c01b613d62565b5b8061378357508015801561378257506137816745d876fa6d361a1c60c01b613d62565b5b5b156138075761379c6785244a1f387b96ef60c01b613d5f565b6137b067dfa500f634eba64660c01b613d5f565b8483815181106137c3576137c261447b565b5b60200260200101516040517f26c4eabd0000000000000000000000000000000000000000000000000000000081526004016137fe9190613eb7565b60405180910390fd5b61381b6730868b839953334d60c01b613d5f565b61382f675a37d3da1084028460c01b613d5f565b613843679d0716a0ad12382060c01b613d5f565b3373ffffffffffffffffffffffffffffffffffffffff1660055f8786815181106138705761386f61447b565b5b602002602001015181526020019081526020015f205f015f9054906101000a900473ffffffffffffffffffffffffffffffffffffffff1673ffffffffffffffffffffffffffffffffffffffff1614613975576138d6670501b268f7488dd660c01b613d5f565b6138ea6753c4c5e685dceed060c01b613d5f565b3360055f8786815181106139015761390061447b565b5b602002602001015181526020019081526020015f205f015f9054906101000a900473ffffffffffffffffffffffffffffffffffffffff166040517fa43d6ada00000000000000000000000000000000000000000000000000000000815260040161396c929190614415565b60405180910390fd5b61398967ac6010a1725b559060c01b613d5f565b61399d67e97a94a54b952d6360c01b613d5f565b81846139a9919061451c565b93506139bf67fdabd9b26cab975060c01b613d5f565b6139d367474aa4d1ed3b19e360c01b613d5f565b5f60055f8786815181106139ea576139e961447b565b5b602002602001015181526020019081526020015f2060010160049054906101000a900463ffffffff1663ffffffff169050613a2f6701737a5d165296c360c01b613d5f565b60055f878681518110613a4557613a4461447b565b5b602002602001015181526020019081526020015f205f8082015f6101000a81549073ffffffffffffffffffffffffffffffffffffffff02191690555f820160146101000a8154906bffffffffffffffffffffffff0219169055600182015f6101000a81549063ffffffff02191690556001820160046101000a81549063ffffffff02191690555050613ae167445bb7cf75db2a1d60c01b613d5f565b613af56706f8568af8d74e2160c01b613d5f565b3373ffffffffffffffffffffffffffffffffffffffff16817f5dbfc0bc53e62608a23587371aaf546814c9549ee47269581fcb429b19ce83ee888781518110613b4157613b4061447b565b5b602002602001015142604051613b58929190614606565b60405180910390a35050508080613b6e906144d5565b91505061361d565b50613b8b67ddfc7bced26eae5b60c01b613d5f565b613b9f67bad15bc836745f7760c01b613d5f565b5f8103613c0057613bba6714e9e81eede0aacd60c01b613d5f565b613bce6790822e4ecc1bed2960c01b613d5f565b6040517f7c946ed700000000000000000000000000000000000000000000000000000000815260040160405180910390fd5b613c1467a698487c0406898360c01b613d5f565b613c2867e19002b570e58dba60c01b613d5f565b613c3c67ff5f9492fc19994160c01b613d5f565b60015f9054906101000a900473ffffffffffffffffffffffffffffffffffffffff1673ffffffffffffffffffffffffffffffffffffffff1663a9059cbb33836040518363ffffffff1660e01b8152600401613c98929190614810565b6020604051808303815f875af1158015613cb4573d5f803e3d5ffd5b505050506040513d601f19601f82011682018060405250810190613cd89190614698565b50919050565b6005602052805f5260405f205f91509050805f015f9054906101000a900473ffffffffffffffffffffffffffffffffffffffff1690805f0160149054906101000a90046bffffffffffffffffffffffff1690806001015f9054906101000a900463ffffffff16908060010160049054906101000a900463ffffffff16905084565b50565b5f60019050919050565b5f73ffffffffffffffffffffffffffffffffffffffff82169050919050565b5f613d9582613d6c565b9050919050565b613da581613d8b565b82525050565b5f602082019050613dbe5f830184613d9c565b92915050565b5f604051905090565b5f80fd5b5f80fd5b613dde81613d8b565b8114613de8575f80fd5b50565b5f81359050613df981613dd5565b92915050565b5f8060408385031215613e1557613e14613dcd565b5b5f613e2285828601613deb565b9250506020613e3385828601613deb565b9150509250929050565b5f60208284031215613e5257613e51613dcd565b5b5f613e5f84828501613deb565b91505092915050565b5f63ffffffff82169050919050565b613e8081613e68565b82525050565b5f602082019050613e995f830184613e77565b92915050565b5f819050919050565b613eb181613e9f565b82525050565b5f602082019050613eca5f830184613ea8565b92915050565b5f80fd5b5f601f19601f8301169050919050565b7f4e487b71000000000000000000000000000000000000000000000000000000005f52604160045260245ffd5b613f1a82613ed4565b810181811067ffffffffffffffff82111715613f3957613f38613ee4565b5b80604052505050565b5f613f4b613dc4565b9050613f578282613f11565b919050565b5f67ffffffffffffffff821115613f7657613f75613ee4565b5b602082029050602081019050919050565b5f80fd5b613f9481613e9f565b8114613f9e575f80fd5b50565b5f81359050613faf81613f8b565b92915050565b5f613fc7613fc284613f5c565b613f42565b90508083825260208201905060208402830185811115613fea57613fe9613f87565b5b835b818110156140135780613fff8882613fa1565b845260208401935050602081019050613fec565b5050509392505050565b5f82601f83011261403157614030613ed0565b5b8135614041848260208601613fb5565b91505092915050565b5f6020828403121561405f5761405e613dcd565b5b5f82013567ffffffffffffffff81111561407c5761407b613dd1565b5b6140888482850161401d565b91505092915050565b5f8115159050919050565b6140a581614091565b81146140af575f80fd5b50565b5f813590506140c08161409c565b92915050565b5f80604083850312156140dc576140db613dcd565b5b5f6140e985828601613deb565b92505060206140fa858286016140b2565b9150509250929050565b5f81519050919050565b5f82825260208201905092915050565b5f819050602082019050919050565b61413681613e9f565b82525050565b5f614147838361412d565b60208301905092915050565b5f602082019050919050565b5f61416982614104565b614173818561410e565b935061417e8361411e565b805f5b838110156141ae578151614195888261413c565b97506141a083614153565b925050600181019050614181565b5085935050505092915050565b5f6040820190508181035f8301526141d3818561415f565b90506141e26020830184613ea8565b9392505050565b5f805f806080858703121561420157614200613dcd565b5b5f61420e87828801613deb565b945050602061421f87828801613fa1565b935050604061423087828801613fa1565b925050606061424187828801613fa1565b91505092959194509250565b5f6020820190508181035f830152614265818461415f565b905092915050565b5f806040838503121561428357614282613dcd565b5b5f61429085828601613fa1565b92505060206142a185828601613fa1565b9150509250929050565b5f6060820190506142be5f830186613ea8565b6142cb6020830185613ea8565b6142d86040830184613ea8565b949350505050565b5f602082840312156142f5576142f4613dcd565b5b5f61430284828501613fa1565b91505092915050565b61431481613d6c565b82525050565b5f6bffffffffffffffffffffffff82169050919050565b61433a8161431a565b82525050565b5f6080820190506143535f83018761430b565b6143606020830186613e77565b61436d6040830185613d9c565b61437a6060830184614331565b95945050505050565b61438c81614091565b82525050565b5f6040820190506143a55f830185613ea8565b6143b26020830184614383565b9392505050565b5f6020820190506143cc5f830184614383565b92915050565b5f6080820190506143e55f830187613d9c565b6143f26020830186614331565b6143ff6040830185613e77565b61440c6060830184613e77565b95945050505050565b5f6040820190506144285f830185613d9c565b6144356020830184613d9c565b9392505050565b5f8151905061444a81613f8b565b92915050565b5f6020828403121561446557614464613dcd565b5b5f6144728482850161443c565b91505092915050565b7f4e487b71000000000000000000000000000000000000000000000000000000005f52603260045260245ffd5b7f4e487b71000000000000000000000000000000000000000000000000000000005f52601160045260245ffd5b5f6144df82613e9f565b91507fffffffffffffffffffffffffffffffffffffffffffffffffffffffffffffffff8203614511576145106144a8565b5b600182019050919050565b5f61452682613e9f565b915061453183613e9f565b9250828201905080821115614549576145486144a8565b5b92915050565b5f819050919050565b5f61457261456d61456884613d6c565b61454f565b613e9f565b9050919050565b61458281614558565b82525050565b5f60408201905061459b5f830185613ea8565b6145a86020830184614579565b9392505050565b5f6145c96145c46145bf8461431a565b61454f565b613e9f565b9050919050565b6145d9816145af565b82525050565b5f6040820190506145f25f830185613ea8565b6145ff60208301846145d0565b9392505050565b5f6040820190506146195f830185613ea8565b6146266020830184613ea8565b9392505050565b5f61464761464261463d84613e68565b61454f565b613e9f565b9050919050565b6146578161462d565b82525050565b5f6040820190506146705f830185613ea8565b61467d602083018461464e565b9392505050565b5f815190506146928161409c565b92915050565b5f602082840312156146ad576146ac613dcd565b5b5f6146ba84828501614684565b91505092915050565b5f6080820190506146d65f830187613ea8565b6146e36020830186613ea8565b6146f06040830185613ea8565b6146fd6060830184613ea8565b95945050505050565b5f6080820190506147195f830187613d9c565b6147266020830186613ea8565b6147336040830185613ea8565b6147406060830184613ea8565b95945050505050565b5f61475382613e9f565b915061475e83613e9f565b9250828203905081811115614776576147756144a8565b5b92915050565b5f60808201905061478f5f830187613d9c565b61479c6020830186613ea8565b6147a96040830185613d9c565b6147b66060830184613ea8565b95945050505050565b5f60a0820190506147d25f830188613ea8565b6147df6020830187613ea8565b6147ec6040830186613ea8565b6147f96060830185613ea8565b6148066080830184613ea8565b9695505050505050565b5f6040820190506148235f830185613d9c565b6148306020830184613ea8565b939250505056fea2646970667358221220c6fad86b9277c93e5b1392f59d5343e03ebc5e5712e5bd5f97f81c75d7c4572c64736f6c63430008140033",
  "linkReferences": {},
  "deployedLinkReferences": {}
}