{
  "_format": "hh-sol-artifact-1",
  "contractName": "Depository",
  "sourceName": "contracts/Depository.sol",
  "abi": [
    {
      "inputs": [
        {
          "internalType": "address",
          "name": "_olas",
          "type": "address"
        },
        {
          "internalType": "address",
          "name": "_tokenomics",
          "type": "address"
        },
        {
          "internalType": "address",
          "name": "_treasury",
          "type": "address"
        },
        {
          "internalType": "address",
          "name": "_bondCalculator",
          "type": "address"
        }
      ],
      "stateMutability": "nonpayable",
      "type": "constructor"
    },
    {
      "inputs": [],
      "name": "AlreadyInitialized",
      "type": "error"
    },
    {
      "inputs": [
        {
          "internalType": "uint256",
          "name": "bondId",
          "type": "uint256"
        }
      ],
      "name": "BondNotRedeemable",
      "type": "error"
    },
    {
      "inputs": [
        {
          "internalType": "address",
          "name": "account",
          "type": "address"
        },
        {
          "internalType": "uint256",
          "name": "reward",
          "type": "uint256"
        },
        {
          "internalType": "uint256",
          "name": "topUp",
          "type": "uint256"
        }
      ],
      "name": "ClaimIncentivesFailed",
      "type": "error"
    },
    {
      "inputs": [],
      "name": "DelegatecallOnly",
      "type": "error"
    },
    {
      "inputs": [
        {
          "internalType": "address",
          "name": "account",
          "type": "address"
        }
      ],
      "name": "DonatorBlacklisted",
      "type": "error"
    },
    {
      "inputs": [
        {
          "internalType": "uint256",
          "name": "provided",
          "type": "uint256"
        },
        {
          "internalType": "uint256",
          "name": "expected",
          "type": "uint256"
        }
      ],
      "name": "InsufficientAllowance",
      "type": "error"
    },
    {
      "inputs": [
        {
          "internalType": "uint256",
          "name": "provided",
          "type": "uint256"
        },
        {
          "internalType": "uint256",
          "name": "expected",
          "type": "uint256"
        }
      ],
      "name": "LowerThan",
      "type": "error"
    },
    {
      "inputs": [
        {
          "internalType": "address",
          "name": "sender",
          "type": "address"
        },
        {
          "internalType": "address",
          "name": "manager",
          "type": "address"
        }
      ],
      "name": "ManagerOnly",
      "type": "error"
    },
    {
      "inputs": [],
      "name": "NonZeroValue",
      "type": "error"
    },
    {
      "inputs": [
        {
          "internalType": "uint256",
          "name": "provided",
          "type": "uint256"
        },
        {
          "internalType": "uint256",
          "name": "max",
          "type": "uint256"
        }
      ],
      "name": "Overflow",
      "type": "error"
    },
    {
      "inputs": [
        {
          "internalType": "address",
          "name": "sender",
          "type": "address"
        },
        {
          "internalType": "address",
          "name": "owner",
          "type": "address"
        }
      ],
      "name": "OwnerOnly",
      "type": "error"
    },
    {
      "inputs": [],
      "name": "Paused",
      "type": "error"
    },
    {
      "inputs": [
        {
          "internalType": "uint256",
          "name": "productId",
          "type": "uint256"
        }
      ],
      "name": "ProductClosed",
      "type": "error"
    },
    {
      "inputs": [
        {
          "internalType": "address",
          "name": "tokenAddress",
          "type": "address"
        },
        {
          "internalType": "uint256",
          "name": "productId",
          "type": "uint256"
        },
        {
          "internalType": "uint256",
          "name": "deadline",
          "type": "uint256"
        },
        {
          "internalType": "uint256",
          "name": "curTime",
          "type": "uint256"
        }
      ],
      "name": "ProductExpired",
      "type": "error"
    },
    {
      "inputs": [
        {
          "internalType": "address",
          "name": "tokenAddress",
          "type": "address"
        },
        {
          "internalType": "uint256",
          "name": "productId",
          "type": "uint256"
        },
        {
          "internalType": "uint256",
          "name": "requested",
          "type": "uint256"
        },
        {
          "internalType": "uint256",
          "name": "actual",
          "type": "uint256"
        }
      ],
      "name": "ProductSupplyLow",
      "type": "error"
    },
    {
      "inputs": [],
      "name": "ReentrancyGuard",
      "type": "error"
    },
    {
      "inputs": [],
      "name": "SameBlockNumberViolation",
      "type": "error"
    },
    {
      "inputs": [
        {
          "internalType": "uint256",
          "name": "serviceId",
          "type": "uint256"
        }
      ],
      "name": "ServiceDoesNotExist",
      "type": "error"
    },
    {
      "inputs": [
        {
          "internalType": "uint256",
          "name": "serviceId",
          "type": "uint256"
        }
      ],
      "name": "ServiceNeverDeployed",
      "type": "error"
    },
    {
      "inputs": [
        {
          "internalType": "address",
          "name": "token",
          "type": "address"
        },
        {
          "internalType": "address",
          "name": "from",
          "type": "address"
        },
        {
          "internalType": "address",
          "name": "to",
          "type": "address"
        },
        {
          "internalType": "uint256",
          "name": "amount",
          "type": "uint256"
        }
      ],
      "name": "TransferFailed",
      "type": "error"
    },
    {
      "inputs": [
        {
          "internalType": "uint256",
          "name": "epochNumber",
          "type": "uint256"
        }
      ],
      "name": "TreasuryRebalanceFailed",
      "type": "error"
    },
    {
      "inputs": [
        {
          "internalType": "address",
          "name": "tokenAddress",
          "type": "address"
        }
      ],
      "name": "UnauthorizedToken",
      "type": "error"
    },
    {
      "inputs": [
        {
          "internalType": "uint256",
          "name": "provided",
          "type": "uint256"
        },
        {
          "internalType": "uint256",
          "name": "expected",
          "type": "uint256"
        }
      ],
      "name": "WrongAmount",
      "type": "error"
    },
    {
      "inputs": [
        {
          "internalType": "uint256",
          "name": "numValues1",
          "type": "uint256"
        },
        {
          "internalType": "uint256",
          "name": "numValues2",
          "type": "uint256"
        }
      ],
      "name": "WrongArrayLength",
      "type": "error"
    },
    {
      "inputs": [
        {
          "internalType": "address",
          "name": "provided",
          "type": "address"
        },
        {
          "internalType": "address",
          "name": "expected",
          "type": "address"
        }
      ],
      "name": "WrongTokenAddress",
      "type": "error"
    },
    {
      "inputs": [
        {
          "internalType": "uint256",
          "name": "unitId",
          "type": "uint256"
        },
        {
          "internalType": "uint256",
          "name": "unitType",
          "type": "uint256"
        }
      ],
      "name": "WrongUnitId",
      "type": "error"
    },
    {
      "inputs": [],
      "name": "ZeroAddress",
      "type": "error"
    },
    {
      "inputs": [],
      "name": "ZeroValue",
      "type": "error"
    },
    {
      "anonymous": false,
      "inputs": [
        {
          "indexed": true,
          "internalType": "address",
          "name": "_bondCalculator",
          "type": "address"
        }
      ],
      "name": "BondCalculatorUpdated",
      "type": "event"
    },
    {
      "anonymous": false,
      "inputs": [
        {
          "indexed": true,
          "internalType": "address",
          "name": "token",
          "type": "address"
        },
        {
          "indexed": true,
          "internalType": "uint256",
          "name": "productId",
          "type": "uint256"
        },
        {
          "indexed": false,
          "internalType": "uint256",
          "name": "closeTime",
          "type": "uint256"
        }
      ],
      "name": "CloseProduct",
      "type": "event"
    },
    {
      "anonymous": false,
      "inputs": [
        {
          "indexed": true,
          "internalType": "address",
          "name": "token",
          "type": "address"
        },
        {
          "indexed": true,
          "internalType": "uint256",
          "name": "productId",
          "type": "uint256"
        },
        {
          "indexed": true,
          "internalType": "address",
          "name": "owner",
          "type": "address"
        },
        {
          "indexed": false,
          "internalType": "uint256",
          "name": "bondId",
          "type": "uint256"
        },
        {
          "indexed": false,
          "internalType": "uint256",
          "name": "amountOLAS",
          "type": "uint256"
        },
        {
          "indexed": false,
          "internalType": "uint256",
          "name": "tokenAmount",
          "type": "uint256"
        },
        {
          "indexed": false,
          "internalType": "uint256",
          "name": "maturity",
          "type": "uint256"
        },
        {
          "indexed": false,
          "internalType": "uint256",
          "name": "startTime",
          "type": "uint256"
        }
      ],
      "name": "CreateBond",
      "type": "event"
    },
    {
      "anonymous": false,
      "inputs": [
        {
          "indexed": true,
          "internalType": "address",
          "name": "token",
          "type": "address"
        },
        {
          "indexed": true,
          "internalType": "uint256",
          "name": "productId",
          "type": "uint256"
        },
        {
          "indexed": false,
          "internalType": "uint256",
          "name": "supply",
          "type": "uint256"
        },
        {
          "indexed": false,
          "internalType": "uint256",
          "name": "priceLP",
          "type": "uint256"
        },
        {
          "indexed": false,
          "internalType": "uint256",
          "name": "vesting",
          "type": "uint256"
        },
        {
          "indexed": false,
          "internalType": "uint256",
          "name": "startTime",
          "type": "uint256"
        }
      ],
      "name": "CreateProduct",
      "type": "event"
    },
    {
      "anonymous": false,
      "inputs": [
        {
          "indexed": true,
          "internalType": "address",
          "name": "owner",
          "type": "address"
        }
      ],
      "name": "OwnerUpdated",
      "type": "event"
    },
    {
      "anonymous": false,
      "inputs": [
        {
          "indexed": true,
          "internalType": "uint256",
          "name": "productId",
          "type": "uint256"
        },
        {
          "indexed": true,
          "internalType": "address",
          "name": "owner",
          "type": "address"
        },
        {
          "indexed": false,
          "internalType": "uint256",
          "name": "bondId",
          "type": "uint256"
        },
        {
          "indexed": false,
          "internalType": "uint256",
          "name": "redeemTime",
          "type": "uint256"
        }
      ],
      "name": "RedeemBond",
      "type": "event"
    },
    {
      "anonymous": false,
      "inputs": [
        {
          "indexed": true,
          "internalType": "address",
          "name": "tokenomics",
          "type": "address"
        }
      ],
      "name": "TokenomicsUpdated",
      "type": "event"
    },
    {
      "anonymous": false,
      "inputs": [
        {
          "indexed": true,
          "internalType": "address",
          "name": "treasury",
          "type": "address"
        }
      ],
      "name": "TreasuryUpdated",
      "type": "event"
    },
    {
      "inputs": [],
      "name": "MIN_VESTING",
      "outputs": [
        {
          "internalType": "uint256",
          "name": "",
          "type": "uint256"
        }
      ],
      "stateMutability": "view",
      "type": "function"
    },
    {
      "inputs": [],
      "name": "bondCalculator",
      "outputs": [
        {
          "internalType": "address",
          "name": "",
          "type": "address"
        }
      ],
      "stateMutability": "view",
      "type": "function"
    },
    {
      "inputs": [],
      "name": "bondCounter",
      "outputs": [
        {
          "internalType": "uint32",
          "name": "",
          "type": "uint32"
        }
      ],
      "stateMutability": "view",
      "type": "function"
    },
    {
      "inputs": [
        {
          "internalType": "address",
          "name": "_bondCalculator",
          "type": "address"
        }
      ],
      "name": "changeBondCalculator",
      "outputs": [],
      "stateMutability": "nonpayable",
      "type": "function"
    },
    {
      "inputs": [
        {
          "internalType": "address",
          "name": "_tokenomics",
          "type": "address"
        },
        {
          "internalType": "address",
          "name": "_treasury",
          "type": "address"
        }
      ],
      "name": "changeManagers",
      "outputs": [],
      "stateMutability": "nonpayable",
      "type": "function"
    },
    {
      "inputs": [
        {
          "internalType": "address",
          "name": "newOwner",
          "type": "address"
        }
      ],
      "name": "changeOwner",
      "outputs": [],
      "stateMutability": "nonpayable",
      "type": "function"
    },
    {
      "inputs": [
        {
          "internalType": "uint256[]",
          "name": "productIds",
          "type": "uint256[]"
        }
      ],
      "name": "close",
      "outputs": [
        {
          "internalType": "uint256",
          "name": "numClosedProducts",
          "type": "uint256"
        }
      ],
      "stateMutability": "nonpayable",
      "type": "function"
    },
    {
      "inputs": [
        {
          "internalType": "address",
          "name": "token",
          "type": "address"
        },
        {
          "internalType": "uint256",
          "name": "priceLP",
          "type": "uint256"
        },
        {
          "internalType": "uint256",
          "name": "supply",
          "type": "uint256"
        },
        {
          "internalType": "uint256",
          "name": "vesting",
          "type": "uint256"
        }
      ],
      "name": "create",
      "outputs": [
        {
          "internalType": "uint256",
          "name": "productId",
          "type": "uint256"
        }
      ],
      "stateMutability": "nonpayable",
      "type": "function"
    },
    {
      "inputs": [
        {
          "internalType": "uint256",
          "name": "productId",
          "type": "uint256"
        },
        {
          "internalType": "uint256",
          "name": "tokenAmount",
          "type": "uint256"
        }
      ],
      "name": "deposit",
      "outputs": [
        {
          "internalType": "uint256",
          "name": "payout",
          "type": "uint256"
        },
        {
          "internalType": "uint256",
          "name": "maturity",
          "type": "uint256"
        },
        {
          "internalType": "uint256",
          "name": "bondId",
          "type": "uint256"
        }
      ],
      "stateMutability": "nonpayable",
      "type": "function"
    },
    {
      "inputs": [
        {
          "internalType": "uint256",
          "name": "bondId",
          "type": "uint256"
        }
      ],
      "name": "getBondStatus",
      "outputs": [
        {
          "internalType": "uint256",
          "name": "payout",
          "type": "uint256"
        },
        {
          "internalType": "bool",
          "name": "matured",
          "type": "bool"
        }
      ],
      "stateMutability": "view",
      "type": "function"
    },
    {
      "inputs": [
        {
          "internalType": "address",
          "name": "account",
          "type": "address"
        },
        {
          "internalType": "bool",
          "name": "matured",
          "type": "bool"
        }
      ],
      "name": "getBonds",
      "outputs": [
        {
          "internalType": "uint256[]",
          "name": "bondIds",
          "type": "uint256[]"
        },
        {
          "internalType": "uint256",
          "name": "payout",
          "type": "uint256"
        }
      ],
      "stateMutability": "view",
      "type": "function"
    },
    {
      "inputs": [
        {
          "internalType": "address",
          "name": "token",
          "type": "address"
        }
      ],
      "name": "getCurrentPriceLP",
      "outputs": [
        {
          "internalType": "uint256",
          "name": "priceLP",
          "type": "uint256"
        }
      ],
      "stateMutability": "view",
      "type": "function"
    },
    {
      "inputs": [],
      "name": "getProducts",
      "outputs": [
        {
          "internalType": "uint256[]",
          "name": "productIds",
          "type": "uint256[]"
        }
      ],
      "stateMutability": "view",
      "type": "function"
    },
    {
      "inputs": [
        {
          "internalType": "uint256",
          "name": "productId",
          "type": "uint256"
        }
      ],
      "name": "isActiveProduct",
      "outputs": [
        {
          "internalType": "bool",
          "name": "status",
          "type": "bool"
        }
      ],
      "stateMutability": "view",
      "type": "function"
    },
    {
      "inputs": [
        {
          "internalType": "uint256",
          "name": "",
          "type": "uint256"
        }
      ],
      "name": "mapBondProducts",
      "outputs": [
        {
          "internalType": "uint160",
          "name": "priceLP",
          "type": "uint160"
        },
        {
          "internalType": "uint32",
          "name": "vesting",
          "type": "uint32"
        },
        {
          "internalType": "address",
          "name": "token",
          "type": "address"
        },
        {
          "internalType": "uint96",
          "name": "supply",
          "type": "uint96"
        }
      ],
      "stateMutability": "view",
      "type": "function"
    },
    {
      "inputs": [
        {
          "internalType": "uint256",
          "name": "",
          "type": "uint256"
        }
      ],
      "name": "mapUserBonds",
      "outputs": [
        {
          "internalType": "address",
          "name": "account",
          "type": "address"
        },
        {
          "internalType": "uint96",
          "name": "payout",
          "type": "uint96"
        },
        {
          "internalType": "uint32",
          "name": "maturity",
          "type": "uint32"
        },
        {
          "internalType": "uint32",
          "name": "productId",
          "type": "uint32"
        }
      ],
      "stateMutability": "view",
      "type": "function"
    },
    {
      "inputs": [],
      "name": "olas",
      "outputs": [
        {
          "internalType": "address",
          "name": "",
          "type": "address"
        }
      ],
      "stateMutability": "view",
      "type": "function"
    },
    {
      "inputs": [],
      "name": "owner",
      "outputs": [
        {
          "internalType": "address",
          "name": "",
          "type": "address"
        }
      ],
      "stateMutability": "view",
      "type": "function"
    },
    {
      "inputs": [],
      "name": "productCounter",
      "outputs": [
        {
          "internalType": "uint32",
          "name": "",
          "type": "uint32"
        }
      ],
      "stateMutability": "view",
      "type": "function"
    },
    {
      "inputs": [
        {
          "internalType": "uint256[]",
          "name": "bondIds",
          "type": "uint256[]"
        }
      ],
      "name": "redeem",
      "outputs": [
        {
          "internalType": "uint256",
          "name": "payout",
          "type": "uint256"
        }
      ],
      "stateMutability": "nonpayable",
      "type": "function"
    },
    {
      "inputs": [],
      "name": "tokenomics",
      "outputs": [
        {
          "internalType": "address",
          "name": "",
          "type": "address"
        }
      ],
      "stateMutability": "view",
      "type": "function"
    },
    {
      "inputs": [],
      "name": "treasury",
      "outputs": [
        {
          "internalType": "address",
          "name": "",
          "type": "address"
        }
      ],
      "stateMutability": "view",
      "type": "function"
    }
  ],
  "bytecode": "0x608060405234801562000010575f80fd5b506040516200219f3803806200219f833981016040819052620000339162000117565b5f80546001600160a01b031916331790556001600160a01b03841615806200006257506001600160a01b038316155b806200007557506001600160a01b038216155b806200008857506001600160a01b038116155b15620000a75760405163d92e233d60e01b815260040160405180910390fd5b600180546001600160a01b039586166001600160a01b031991821617909155600280549486169482169490941790935560038054928516928416929092179091556004805491909316911617905562000171565b80516001600160a01b038116811462000112575f80fd5b919050565b5f805f80608085870312156200012b575f80fd5b6200013685620000fb565b93506200014660208601620000fb565b92506200015660408601620000fb565b91506200016660608601620000fb565b905092959194509250565b612020806200017f5f395ff3fe608060405234801561000f575f80fd5b5060043610610178575f3560e01c80638c71ec16116100d2578063e2bbb15811610088578063f731960c11610063578063f731960c146103fe578063f9afb26a14610447578063fc63e42d1461045a575f80fd5b8063e2bbb1581461030f578063e42f99191461033d578063e91b0a41146103d6575f80fd5b8063a6f9dae1116100b8578063a6f9dae1146102d4578063c29b2f20146102e7578063c5332b7c146102fc575f80fd5b80638c71ec16146102af5780638da5cb5b146102c2575f80fd5b80634ac7251d116101325780635b400e4f1161010d5780635b400e4f1461027157806361d027b31461029257806363e63e3b146102a5575f80fd5b80634ac7251d146102355780635831d8851461024857806358d3ec6a1461025e575f80fd5b8063158555371161016257806315855537146101c15780631f16653b146101d457806324415cf614610214575f80fd5b806231d1151461017c5780630c062810146101ac575b5f80fd5b60015461018f906001600160a01b031681565b6040516001600160a01b0390911681526020015b60405180910390f35b6101bf6101ba366004611c91565b6104f6565b005b6101bf6101cf366004611cc2565b610619565b5f546101ff907801000000000000000000000000000000000000000000000000900463ffffffff1681565b60405163ffffffff90911681526020016101a3565b610227610222366004611cc2565b6106c8565b6040519081526020016101a3565b60025461018f906001600160a01b031681565b5f546101ff90600160a01b900463ffffffff1681565b61022761026c366004611d0f565b610758565b61028461027f366004611df3565b61093c565b6040516101a3929190611e61565b60035461018f906001600160a01b031681565b6102276201518081565b6102276102bd366004611e82565b610b51565b5f5461018f906001600160a01b031681565b6101bf6102e2366004611cc2565b6110e8565b6102ef6111c5565b6040516101a39190611eb8565b60045461018f906001600160a01b031681565b61032261031d366004611eca565b611360565b604080519384526020840192909252908201526060016101a3565b61039261034b366004611eea565b60066020525f9081526040902080546001909101546001600160a01b0380831692600160a01b9081900463ffffffff169291821691046bffffffffffffffffffffffff1684565b604080516001600160a01b03958616815263ffffffff94909416602085015291909316908201526bffffffffffffffffffffffff90911660608201526080016101a3565b6103e96103e4366004611eea565b61189c565b604080519283529015156020830152016101a3565b61043761040c366004611eea565b5f90815260066020526040902060010154600160a01b90046bffffffffffffffffffffffff16151590565b60405190151581526020016101a3565b610227610455366004611d0f565b6118e7565b6104b3610468366004611eea565b60056020525f9081526040902080546001909101546001600160a01b03821691600160a01b90046bffffffffffffffffffffffff169063ffffffff8082169164010000000090041684565b604080516001600160a01b0390951685526bffffffffffffffffffffffff909316602085015263ffffffff918216928401929092521660608201526080016101a3565b5f546001600160a01b03163314610539575f5460405163521eb56d60e11b81523360048201526001600160a01b0390911660248201526044015b60405180910390fd5b6001600160a01b038216156105a757600280547fffffffffffffffffffffffff0000000000000000000000000000000000000000166001600160a01b0384169081179091556040517f4672fe7e13cfb163442d0b729b5733fb3efafc66cbe3677eac9940eb41c284c2905f90a25b6001600160a01b0381161561061557600380547fffffffffffffffffffffffff0000000000000000000000000000000000000000166001600160a01b0383169081179091556040517f7dae230f18360d76a040c81f050aa14eb9d6dc7901b20fc5d855e2a20fe814d1905f90a25b5050565b5f546001600160a01b03163314610657575f5460405163521eb56d60e11b81523360048201526001600160a01b039091166024820152604401610530565b6001600160a01b038116156106c557600480547fffffffffffffffffffffffff0000000000000000000000000000000000000000166001600160a01b0383169081179091556040517f179276fedd32be7c465135f8e074aefcd470c855d2550f83a36a45bfbaa61ea5905f90a25b50565b600480546040517f24415cf60000000000000000000000000000000000000000000000000000000081526001600160a01b03848116938201939093525f92909116906324415cf690602401602060405180830381865afa15801561072e573d5f803e3d5ffd5b505050506040513d601f19601f820116820180604052508101906107529190611f01565b92915050565b5f80546001600160a01b03163314610797575f5460405163521eb56d60e11b81523360048201526001600160a01b039091166024820152604401610530565b5f5b8251811015610936575f8382815181106107b5576107b5611f18565b6020908102919091018101515f81815260069092526040822054909250600160a01b900463ffffffff1690036107eb5750610926565b5f81815260066020526040902060010154600160a01b90046bffffffffffffffffffffffff16801561088a576002546040517f7048960c000000000000000000000000000000000000000000000000000000008152600481018390526001600160a01b0390911690637048960c906024015f604051808303815f87803b158015610873575f80fd5b505af1158015610885573d5f803e3d5ffd5b505050505b5f82815260066020526040812060018101805482547fffffffffffffffff00000000000000000000000000000000000000000000000016909255919091556001600160a01b0316846108db81611f72565b95505082816001600160a01b03167f677b70dc7e4a19e6af55f981ac3706886716a25e9c0b978ec0c427f51ce68b184260405161091a91815260200190565b60405180910390a35050505b61092f81611f72565b9050610799565b50919050565b60605f6001600160a01b03841661097f576040517fd92e233d00000000000000000000000000000000000000000000000000000000815260040160405180910390fd5b5f8054600160a01b900463ffffffff16818167ffffffffffffffff8111156109a9576109a9611ce2565b6040519080825280602002602001820160405280156109d2578160200160208202803683370190505b5090505f5b82811015610a99575f818152600560205260409020546001600160a01b03808a16911603610a8757861580610a2257505f8181526005602052604090206001015463ffffffff164210155b15610a87576001828281518110610a3b57610a3b611f18565b91151560209283029190910190910152610a5484611f72565b5f82815260056020526040902054909450610a8490600160a01b90046bffffffffffffffffffffffff1686611fa9565b94505b80610a9181611f72565b9150506109d7565b508267ffffffffffffffff811115610ab357610ab3611ce2565b604051908082528060200260200182016040528015610adc578160200160208202803683370190505b5094505f805b83811015610b4557828181518110610afc57610afc611f18565b602002602001015115610b335780878381518110610b1c57610b1c611f18565b6020908102919091010152610b3082611f72565b91505b80610b3d81611f72565b915050610ae2565b50505050509250929050565b5f80546001600160a01b03163314610b90575f5460405163521eb56d60e11b81523360048201526001600160a01b039091166024820152604401610530565b835f03610bc9576040517f7c946ed700000000000000000000000000000000000000000000000000000000815260040160405180910390fd5b6001600160a01b03841115610c1a576040517f7ae59685000000000000000000000000000000000000000000000000000000008152600481018590526001600160a01b036024820152604401610530565b825f03610c53576040517f7c946ed700000000000000000000000000000000000000000000000000000000815260040160405180910390fd5b6bffffffffffffffffffffffff831115610cae576040517f7ae59685000000000000000000000000000000000000000000000000000000008152600481018490526bffffffffffffffffffffffff6024820152604401610530565b62015180821015610cf7576040517f491a2bb100000000000000000000000000000000000000000000000000000000815260048101839052620151806024820152604401610530565b5f82610d066201518042611fa9565b610d109190611fa9565b905063ffffffff811115610d5d576040517f7ae596850000000000000000000000000000000000000000000000000000000081526004810182905263ffffffff6024820152604401610530565b6003546040517f9015d3710000000000000000000000000000000000000000000000000000000081526001600160a01b03888116600483015290911690639015d37190602401602060405180830381865afa158015610dbe573d5f803e3d5ffd5b505050506040513d601f19601f82011682018060405250810190610de29190611fbc565b610e23576040517fe3d87c620000000000000000000000000000000000000000000000000000000081526001600160a01b0387166004820152602401610530565b6002546040517f426e77df000000000000000000000000000000000000000000000000000000008152600481018690526001600160a01b039091169063426e77df906024016020604051808303815f875af1158015610e84573d5f803e3d5ffd5b505050506040513d601f19601f82011682018060405250810190610ea89190611fbc565b610f5d5760025f9054906101000a90046001600160a01b03166001600160a01b0316638fc2b24d6040518163ffffffff1660e01b8152600401602060405180830381865afa158015610efc573d5f803e3d5ffd5b505050506040513d601f19601f82011682018060405250810190610f209190611f01565b6040517f491a2bb1000000000000000000000000000000000000000000000000000000008152600481019190915260248101859052604401610530565b5f8054604080516080810182526001600160a01b03808a16825263ffffffff88811660208085019182528d84168587019081526bffffffffffffffffffffffff808e166060880190815278010000000000000000000000000000000000000000000000009099048516808b52600690935296909820945185549251909316600160a01b9081027fffffffffffffffff0000000000000000000000000000000000000000000000009093169385169390931791909117845595519451909316909202929091169190911760019182015590925061103a908390611fa9565b5f805463ffffffff929092167801000000000000000000000000000000000000000000000000027fffffffff00000000ffffffffffffffffffffffffffffffffffffffffffffffff909216919091179055604080518581526020810187905290810184905242606082015282906001600160a01b038816907fbdd07923b47ccc335138c84f25d2ba24451026d15283c2735a7399545a6b66c29060800160405180910390a350949350505050565b5f546001600160a01b03163314611126575f5460405163521eb56d60e11b81523360048201526001600160a01b039091166024820152604401610530565b6001600160a01b038116611166576040517fd92e233d00000000000000000000000000000000000000000000000000000000815260040160405180910390fd5b5f80547fffffffffffffffffffffffff0000000000000000000000000000000000000000166001600160a01b038316908117825560405190917f4ffd725fc4a22075e9ec71c59edf9c38cdeb588a91b24fc5b61388c5be41282b91a250565b5f8054606091780100000000000000000000000000000000000000000000000090910463ffffffff16908167ffffffffffffffff81111561120857611208611ce2565b604051908082528060200260200182016040528015611231578160200160208202803683370190505b5090505f805b838110156112ac575f81815260066020526040902060010154600160a01b90046bffffffffffffffffffffffff161561129a57600183828151811061127e5761127e611f18565b9115156020928302919091019091015261129782611f72565b91505b806112a481611f72565b915050611237565b508067ffffffffffffffff8111156112c6576112c6611ce2565b6040519080825280602002602001820160405280156112ef578160200160208202803683370190505b5093505f805b848110156113585783818151811061130f5761130f611f18565b602002602001015115611346578086838151811061132f5761132f611f18565b602090810291909101015261134382611f72565b91505b8061135081611f72565b9150506112f5565b505050505090565b5f805f835f0361139c576040517f7c946ed700000000000000000000000000000000000000000000000000000000815260040160405180910390fd5b5f8581526006602052604081206001810154815491926001600160a01b0390911691600160a01b900463ffffffff1690819003611424576040517f981ef42f0000000000000000000000000000000000000000000000000000000081526001600160a01b03831660048201526024810189905260448101829052426064820152608401610530565b61142e4282611fa9565b945063ffffffff85111561147b576040517f7ae596850000000000000000000000000000000000000000000000000000000081526004810186905263ffffffff6024820152604401610530565b6004805484546040517f7e5b09980000000000000000000000000000000000000000000000000000000081529283018a90526001600160a01b0390811660248401521690637e5b099890604401602060405180830381865afa1580156114e3573d5f803e3d5ffd5b505050506040513d601f19601f820116820180604052508101906115079190611f01565b6001840154909650600160a01b90046bffffffffffffffffffffffff168087111561157e576040517f545a90850000000000000000000000000000000000000000000000000000000081526001600160a01b0384166004820152602481018a90526044810188905260648101829052608401610530565b6115888782611fd7565b9050808460010160146101000a8154816bffffffffffffffffffffffff02191690836bffffffffffffffffffffffff1602179055505f60149054906101000a900463ffffffff1663ffffffff1694506040518060800160405280336001600160a01b03168152602001886bffffffffffffffffffffffff1681526020018763ffffffff1681526020018a63ffffffff1681525060055f8781526020019081526020015f205f820151815f015f6101000a8154816001600160a01b0302191690836001600160a01b031602179055506020820151815f0160146101000a8154816bffffffffffffffffffffffff02191690836bffffffffffffffffffffffff1602179055506040820151816001015f6101000a81548163ffffffff021916908363ffffffff16021790555060608201518160010160046101000a81548163ffffffff021916908363ffffffff1602179055509050508460016116e99190611fa9565b5f805463ffffffff92909216600160a01b027fffffffffffffffff00000000ffffffffffffffffffffffffffffffffffffffff9092169190911790556003546040517f1ac17db9000000000000000000000000000000000000000000000000000000008152336004820152602481018a90526001600160a01b038581166044830152606482018a905290911690631ac17db9906084015f604051808303815f87803b158015611796575f80fd5b505af11580156117a8573d5f803e3d5ffd5b50505050805f03611834575f8981526006602052604080822080547fffffffffffffffff000000000000000000000000000000000000000000000000168155600101919091555189906001600160a01b038516907f677b70dc7e4a19e6af55f981ac3706886716a25e9c0b978ec0c427f51ce68b189061182b9042815260200190565b60405180910390a35b60408051868152602081018990529081018990526060810187905242608082015233908a906001600160a01b038616907f4f8a2181c09e9410fbe46222dd07fd5225026525568ecee04b39c0743577d5f99060a00160405180910390a4505050509250925092565b5f81815260056020526040812054600160a01b90046bffffffffffffffffffffffff169081156118e257505f8281526005602052604090206001015463ffffffff164210155b915091565b5f805b8251811015611bb1575f60055f85848151811061190957611909611f18565b602002602001015181526020019081526020015f205f0160149054906101000a90046bffffffffffffffffffffffff166bffffffffffffffffffffffff1690505f60055f86858151811061195f5761195f611f18565b60209081029190910181015182528101919091526040015f206001015463ffffffff164210159050811580611992575080155b156119e6578483815181106119a9576119a9611f18565b60200260200101516040517f26c4eabd00000000000000000000000000000000000000000000000000000000815260040161053091815260200190565b336001600160a01b031660055f878681518110611a0557611a05611f18565b60209081029190910181015182528101919091526040015f20546001600160a01b031614611a8a573360055f878681518110611a4357611a43611f18565b602090810291909101810151825281019190915260409081015f2054905163521eb56d60e11b81526001600160a01b03928316600482015291166024820152604401610530565b611a948285611fa9565b93505f60055f878681518110611aac57611aac611f18565b602002602001015181526020019081526020015f2060010160049054906101000a900463ffffffff1663ffffffff16905060055f878681518110611af257611af2611f18565b60209081029190910181015182528101919091526040015f90812090815560010180547fffffffffffffffffffffffffffffffffffffffffffffffff00000000000000001690558551339082907f5dbfc0bc53e62608a23587371aaf546814c9549ee47269581fcb429b19ce83ee90899088908110611b7357611b73611f18565b602002602001015142604051611b93929190918252602082015260400190565b60405180910390a35050508080611ba990611f72565b9150506118ea565b50805f03611beb576040517f7c946ed700000000000000000000000000000000000000000000000000000000815260040160405180910390fd5b6001546040517fa9059cbb000000000000000000000000000000000000000000000000000000008152336004820152602481018390526001600160a01b039091169063a9059cbb906044016020604051808303815f875af1158015611c52573d5f803e3d5ffd5b505050506040513d601f19601f820116820180604052508101906109369190611fbc565b80356001600160a01b0381168114611c8c575f80fd5b919050565b5f8060408385031215611ca2575f80fd5b611cab83611c76565b9150611cb960208401611c76565b90509250929050565b5f60208284031215611cd2575f80fd5b611cdb82611c76565b9392505050565b7f4e487b71000000000000000000000000000000000000000000000000000000005f52604160045260245ffd5b5f6020808385031215611d20575f80fd5b823567ffffffffffffffff80821115611d37575f80fd5b818501915085601f830112611d4a575f80fd5b813581811115611d5c57611d5c611ce2565b8060051b6040517fffffffffffffffffffffffffffffffffffffffffffffffffffffffffffffffe0603f83011681018181108582111715611d9f57611d9f611ce2565b604052918252848201925083810185019188831115611dbc575f80fd5b938501935b82851015611dda57843584529385019392850192611dc1565b98975050505050505050565b80151581146106c5575f80fd5b5f8060408385031215611e04575f80fd5b611e0d83611c76565b91506020830135611e1d81611de6565b809150509250929050565b5f8151808452602080850194508084015f5b83811015611e5657815187529582019590820190600101611e3a565b509495945050505050565b604081525f611e736040830185611e28565b90508260208301529392505050565b5f805f8060808587031215611e95575f80fd5b611e9e85611c76565b966020860135965060408601359560600135945092505050565b602081525f611cdb6020830184611e28565b5f8060408385031215611edb575f80fd5b50508035926020909101359150565b5f60208284031215611efa575f80fd5b5035919050565b5f60208284031215611f11575f80fd5b5051919050565b7f4e487b71000000000000000000000000000000000000000000000000000000005f52603260045260245ffd5b7f4e487b71000000000000000000000000000000000000000000000000000000005f52601160045260245ffd5b5f7fffffffffffffffffffffffffffffffffffffffffffffffffffffffffffffffff8203611fa257611fa2611f45565b5060010190565b8082018082111561075257610752611f45565b5f60208284031215611fcc575f80fd5b8151611cdb81611de6565b8181038181111561075257610752611f4556fea2646970667358221220f3ce81e8bb9218735883e2296d16c4b32bada053575d3dbd16c2036f549aebbf64736f6c63430008140033",
  "linkReferences": {},
  "deployedLinkReferences": {}
}