{
  "_format": "hh-sol-artifact-1",
  "contractName": "Depository",
  "sourceName": "contracts/Depository.sol",
  "abi": [
    {
      "inputs": [
        {
          "internalType": "address",
          "name": "_olas",
          "type": "address"
        },
        {
          "internalType": "address",
          "name": "_tokenomics",
          "type": "address"
        },
        {
          "internalType": "address",
          "name": "_treasury",
          "type": "address"
        },
        {
          "internalType": "address",
          "name": "_bondCalculator",
          "type": "address"
        }
      ],
      "stateMutability": "nonpayable",
      "type": "constructor"
    },
    {
      "inputs": [],
      "name": "AlreadyInitialized",
      "type": "error"
    },
    {
      "inputs": [
        {
          "internalType": "uint256",
          "name": "bondId",
          "type": "uint256"
        }
      ],
      "name": "BondNotRedeemable",
      "type": "error"
    },
    {
      "inputs": [
        {
          "internalType": "address",
          "name": "account",
          "type": "address"
        },
        {
          "internalType": "uint256",
          "name": "reward",
          "type": "uint256"
        },
        {
          "internalType": "uint256",
          "name": "topUp",
          "type": "uint256"
        }
      ],
      "name": "ClaimIncentivesFailed",
      "type": "error"
    },
    {
      "inputs": [],
      "name": "DelegatecallOnly",
      "type": "error"
    },
    {
      "inputs": [
        {
          "internalType": "address",
          "name": "account",
          "type": "address"
        }
      ],
      "name": "DonatorBlacklisted",
      "type": "error"
    },
    {
      "inputs": [
        {
          "internalType": "uint256",
          "name": "provided",
          "type": "uint256"
        },
        {
          "internalType": "uint256",
          "name": "expected",
          "type": "uint256"
        }
      ],
      "name": "InsufficientAllowance",
      "type": "error"
    },
    {
      "inputs": [
        {
          "internalType": "uint256",
          "name": "provided",
          "type": "uint256"
        },
        {
          "internalType": "uint256",
          "name": "expected",
          "type": "uint256"
        }
      ],
      "name": "LowerThan",
      "type": "error"
    },
    {
      "inputs": [
        {
          "internalType": "address",
          "name": "sender",
          "type": "address"
        },
        {
          "internalType": "address",
          "name": "manager",
          "type": "address"
        }
      ],
      "name": "ManagerOnly",
      "type": "error"
    },
    {
      "inputs": [],
      "name": "NonZeroValue",
      "type": "error"
    },
    {
      "inputs": [
        {
          "internalType": "uint256",
          "name": "provided",
          "type": "uint256"
        },
        {
          "internalType": "uint256",
          "name": "max",
          "type": "uint256"
        }
      ],
      "name": "Overflow",
      "type": "error"
    },
    {
      "inputs": [
        {
          "internalType": "address",
          "name": "sender",
          "type": "address"
        },
        {
          "internalType": "address",
          "name": "owner",
          "type": "address"
        }
      ],
      "name": "OwnerOnly",
      "type": "error"
    },
    {
      "inputs": [],
      "name": "Paused",
      "type": "error"
    },
    {
      "inputs": [
        {
          "internalType": "uint256",
          "name": "productId",
          "type": "uint256"
        }
      ],
      "name": "ProductClosed",
      "type": "error"
    },
    {
      "inputs": [
        {
          "internalType": "address",
          "name": "tokenAddress",
          "type": "address"
        },
        {
          "internalType": "uint256",
          "name": "productId",
          "type": "uint256"
        },
        {
          "internalType": "uint256",
          "name": "deadline",
          "type": "uint256"
        },
        {
          "internalType": "uint256",
          "name": "curTime",
          "type": "uint256"
        }
      ],
      "name": "ProductExpired",
      "type": "error"
    },
    {
      "inputs": [
        {
          "internalType": "address",
          "name": "tokenAddress",
          "type": "address"
        },
        {
          "internalType": "uint256",
          "name": "productId",
          "type": "uint256"
        },
        {
          "internalType": "uint256",
          "name": "requested",
          "type": "uint256"
        },
        {
          "internalType": "uint256",
          "name": "actual",
          "type": "uint256"
        }
      ],
      "name": "ProductSupplyLow",
      "type": "error"
    },
    {
      "inputs": [],
      "name": "ReentrancyGuard",
      "type": "error"
    },
    {
      "inputs": [],
      "name": "SameBlockNumberViolation",
      "type": "error"
    },
    {
      "inputs": [
        {
          "internalType": "uint256",
          "name": "serviceId",
          "type": "uint256"
        }
      ],
      "name": "ServiceDoesNotExist",
      "type": "error"
    },
    {
      "inputs": [
        {
          "internalType": "uint256",
          "name": "serviceId",
          "type": "uint256"
        }
      ],
      "name": "ServiceNeverDeployed",
      "type": "error"
    },
    {
      "inputs": [
        {
          "internalType": "address",
          "name": "token",
          "type": "address"
        },
        {
          "internalType": "address",
          "name": "from",
          "type": "address"
        },
        {
          "internalType": "address",
          "name": "to",
          "type": "address"
        },
        {
          "internalType": "uint256",
          "name": "amount",
          "type": "uint256"
        }
      ],
      "name": "TransferFailed",
      "type": "error"
    },
    {
      "inputs": [
        {
          "internalType": "uint256",
          "name": "epochNumber",
          "type": "uint256"
        }
      ],
      "name": "TreasuryRebalanceFailed",
      "type": "error"
    },
    {
      "inputs": [
        {
          "internalType": "address",
          "name": "tokenAddress",
          "type": "address"
        }
      ],
      "name": "UnauthorizedToken",
      "type": "error"
    },
    {
      "inputs": [
        {
          "internalType": "uint256",
          "name": "provided",
          "type": "uint256"
        },
        {
          "internalType": "uint256",
          "name": "expected",
          "type": "uint256"
        }
      ],
      "name": "WrongAmount",
      "type": "error"
    },
    {
      "inputs": [
        {
          "internalType": "uint256",
          "name": "numValues1",
          "type": "uint256"
        },
        {
          "internalType": "uint256",
          "name": "numValues2",
          "type": "uint256"
        }
      ],
      "name": "WrongArrayLength",
      "type": "error"
    },
    {
      "inputs": [
        {
          "internalType": "address",
          "name": "provided",
          "type": "address"
        },
        {
          "internalType": "address",
          "name": "expected",
          "type": "address"
        }
      ],
      "name": "WrongTokenAddress",
      "type": "error"
    },
    {
      "inputs": [
        {
          "internalType": "uint256",
          "name": "unitId",
          "type": "uint256"
        },
        {
          "internalType": "uint256",
          "name": "unitType",
          "type": "uint256"
        }
      ],
      "name": "WrongUnitId",
      "type": "error"
    },
    {
      "inputs": [],
      "name": "ZeroAddress",
      "type": "error"
    },
    {
      "inputs": [],
      "name": "ZeroValue",
      "type": "error"
    },
    {
      "anonymous": false,
      "inputs": [
        {
          "indexed": true,
          "internalType": "address",
          "name": "_bondCalculator",
          "type": "address"
        }
      ],
      "name": "BondCalculatorUpdated",
      "type": "event"
    },
    {
      "anonymous": false,
      "inputs": [
        {
          "indexed": true,
          "internalType": "address",
          "name": "token",
          "type": "address"
        },
        {
          "indexed": true,
          "internalType": "uint256",
          "name": "productId",
          "type": "uint256"
        },
        {
          "indexed": false,
          "internalType": "uint256",
          "name": "supply",
          "type": "uint256"
        }
      ],
      "name": "CloseProduct",
      "type": "event"
    },
    {
      "anonymous": false,
      "inputs": [
        {
          "indexed": true,
          "internalType": "address",
          "name": "token",
          "type": "address"
        },
        {
          "indexed": true,
          "internalType": "uint256",
          "name": "productId",
          "type": "uint256"
        },
        {
          "indexed": true,
          "internalType": "address",
          "name": "owner",
          "type": "address"
        },
        {
          "indexed": false,
          "internalType": "uint256",
          "name": "bondId",
          "type": "uint256"
        },
        {
          "indexed": false,
          "internalType": "uint256",
          "name": "amountOLAS",
          "type": "uint256"
        },
        {
          "indexed": false,
          "internalType": "uint256",
          "name": "tokenAmount",
          "type": "uint256"
        },
        {
          "indexed": false,
          "internalType": "uint256",
          "name": "maturity",
          "type": "uint256"
        }
      ],
      "name": "CreateBond",
      "type": "event"
    },
    {
      "anonymous": false,
      "inputs": [
        {
          "indexed": true,
          "internalType": "address",
          "name": "token",
          "type": "address"
        },
        {
          "indexed": true,
          "internalType": "uint256",
          "name": "productId",
          "type": "uint256"
        },
        {
          "indexed": false,
          "internalType": "uint256",
          "name": "supply",
          "type": "uint256"
        },
        {
          "indexed": false,
          "internalType": "uint256",
          "name": "priceLP",
          "type": "uint256"
        },
        {
          "indexed": false,
          "internalType": "uint256",
          "name": "vesting",
          "type": "uint256"
        }
      ],
      "name": "CreateProduct",
      "type": "event"
    },
    {
      "anonymous": false,
      "inputs": [
        {
          "indexed": true,
          "internalType": "address",
          "name": "owner",
          "type": "address"
        }
      ],
      "name": "OwnerUpdated",
      "type": "event"
    },
    {
      "anonymous": false,
      "inputs": [
        {
          "indexed": true,
          "internalType": "uint256",
          "name": "productId",
          "type": "uint256"
        },
        {
          "indexed": true,
          "internalType": "address",
          "name": "owner",
          "type": "address"
        },
        {
          "indexed": false,
          "internalType": "uint256",
          "name": "bondId",
          "type": "uint256"
        }
      ],
      "name": "RedeemBond",
      "type": "event"
    },
    {
      "anonymous": false,
      "inputs": [
        {
          "indexed": true,
          "internalType": "address",
          "name": "tokenomics",
          "type": "address"
        }
      ],
      "name": "TokenomicsUpdated",
      "type": "event"
    },
    {
      "anonymous": false,
      "inputs": [
        {
          "indexed": true,
          "internalType": "address",
          "name": "treasury",
          "type": "address"
        }
      ],
      "name": "TreasuryUpdated",
      "type": "event"
    },
    {
      "inputs": [],
      "name": "MIN_VESTING",
      "outputs": [
        {
          "internalType": "uint256",
          "name": "",
          "type": "uint256"
        }
      ],
      "stateMutability": "view",
      "type": "function"
    },
    {
      "inputs": [],
      "name": "VERSION",
      "outputs": [
        {
          "internalType": "string",
          "name": "",
          "type": "string"
        }
      ],
      "stateMutability": "view",
      "type": "function"
    },
    {
      "inputs": [],
      "name": "bondCalculator",
      "outputs": [
        {
          "internalType": "address",
          "name": "",
          "type": "address"
        }
      ],
      "stateMutability": "view",
      "type": "function"
    },
    {
      "inputs": [],
      "name": "bondCounter",
      "outputs": [
        {
          "internalType": "uint32",
          "name": "",
          "type": "uint32"
        }
      ],
      "stateMutability": "view",
      "type": "function"
    },
    {
      "inputs": [
        {
          "internalType": "address",
          "name": "_bondCalculator",
          "type": "address"
        }
      ],
      "name": "changeBondCalculator",
      "outputs": [],
      "stateMutability": "nonpayable",
      "type": "function"
    },
    {
      "inputs": [
        {
          "internalType": "address",
          "name": "_tokenomics",
          "type": "address"
        },
        {
          "internalType": "address",
          "name": "_treasury",
          "type": "address"
        }
      ],
      "name": "changeManagers",
      "outputs": [],
      "stateMutability": "nonpayable",
      "type": "function"
    },
    {
      "inputs": [
        {
          "internalType": "address",
          "name": "newOwner",
          "type": "address"
        }
      ],
      "name": "changeOwner",
      "outputs": [],
      "stateMutability": "nonpayable",
      "type": "function"
    },
    {
      "inputs": [
        {
          "internalType": "uint256[]",
          "name": "productIds",
          "type": "uint256[]"
        }
      ],
      "name": "close",
      "outputs": [
        {
          "internalType": "uint256[]",
          "name": "closedProductIds",
          "type": "uint256[]"
        }
      ],
      "stateMutability": "nonpayable",
      "type": "function"
    },
    {
      "inputs": [
        {
          "internalType": "address",
          "name": "token",
          "type": "address"
        },
        {
          "internalType": "uint256",
          "name": "priceLP",
          "type": "uint256"
        },
        {
          "internalType": "uint256",
          "name": "supply",
          "type": "uint256"
        },
        {
          "internalType": "uint256",
          "name": "vesting",
          "type": "uint256"
        }
      ],
      "name": "create",
      "outputs": [
        {
          "internalType": "uint256",
          "name": "productId",
          "type": "uint256"
        }
      ],
      "stateMutability": "nonpayable",
      "type": "function"
    },
    {
      "inputs": [
        {
          "internalType": "uint256",
          "name": "productId",
          "type": "uint256"
        },
        {
          "internalType": "uint256",
          "name": "tokenAmount",
          "type": "uint256"
        }
      ],
      "name": "deposit",
      "outputs": [
        {
          "internalType": "uint256",
          "name": "payout",
          "type": "uint256"
        },
        {
          "internalType": "uint256",
          "name": "maturity",
          "type": "uint256"
        },
        {
          "internalType": "uint256",
          "name": "bondId",
          "type": "uint256"
        }
      ],
      "stateMutability": "nonpayable",
      "type": "function"
    },
    {
      "inputs": [
        {
          "internalType": "uint256",
          "name": "bondId",
          "type": "uint256"
        }
      ],
      "name": "getBondStatus",
      "outputs": [
        {
          "internalType": "uint256",
          "name": "payout",
          "type": "uint256"
        },
        {
          "internalType": "bool",
          "name": "matured",
          "type": "bool"
        }
      ],
      "stateMutability": "view",
      "type": "function"
    },
    {
      "inputs": [
        {
          "internalType": "address",
          "name": "account",
          "type": "address"
        },
        {
          "internalType": "bool",
          "name": "matured",
          "type": "bool"
        }
      ],
      "name": "getBonds",
      "outputs": [
        {
          "internalType": "uint256[]",
          "name": "bondIds",
          "type": "uint256[]"
        },
        {
          "internalType": "uint256",
          "name": "payout",
          "type": "uint256"
        }
      ],
      "stateMutability": "view",
      "type": "function"
    },
    {
      "inputs": [
        {
          "internalType": "address",
          "name": "token",
          "type": "address"
        }
      ],
      "name": "getCurrentPriceLP",
      "outputs": [
        {
          "internalType": "uint256",
          "name": "priceLP",
          "type": "uint256"
        }
      ],
      "stateMutability": "view",
      "type": "function"
    },
    {
      "inputs": [
        {
          "internalType": "bool",
          "name": "active",
          "type": "bool"
        }
      ],
      "name": "getProducts",
      "outputs": [
        {
          "internalType": "uint256[]",
          "name": "productIds",
          "type": "uint256[]"
        }
      ],
      "stateMutability": "view",
      "type": "function"
    },
    {
      "inputs": [
        {
          "internalType": "uint256",
          "name": "productId",
          "type": "uint256"
        }
      ],
      "name": "isActiveProduct",
      "outputs": [
        {
          "internalType": "bool",
          "name": "status",
          "type": "bool"
        }
      ],
      "stateMutability": "view",
      "type": "function"
    },
    {
      "inputs": [
        {
          "internalType": "uint256",
          "name": "",
          "type": "uint256"
        }
      ],
      "name": "mapBondProducts",
      "outputs": [
        {
          "internalType": "uint160",
          "name": "priceLP",
          "type": "uint160"
        },
        {
          "internalType": "uint32",
          "name": "vesting",
          "type": "uint32"
        },
        {
          "internalType": "address",
          "name": "token",
          "type": "address"
        },
        {
          "internalType": "uint96",
          "name": "supply",
          "type": "uint96"
        }
      ],
      "stateMutability": "view",
      "type": "function"
    },
    {
      "inputs": [
        {
          "internalType": "uint256",
          "name": "",
          "type": "uint256"
        }
      ],
      "name": "mapUserBonds",
      "outputs": [
        {
          "internalType": "address",
          "name": "account",
          "type": "address"
        },
        {
          "internalType": "uint96",
          "name": "payout",
          "type": "uint96"
        },
        {
          "internalType": "uint32",
          "name": "maturity",
          "type": "uint32"
        },
        {
          "internalType": "uint32",
          "name": "productId",
          "type": "uint32"
        }
      ],
      "stateMutability": "view",
      "type": "function"
    },
    {
      "inputs": [],
      "name": "olas",
      "outputs": [
        {
          "internalType": "address",
          "name": "",
          "type": "address"
        }
      ],
      "stateMutability": "view",
      "type": "function"
    },
    {
      "inputs": [],
      "name": "owner",
      "outputs": [
        {
          "internalType": "address",
          "name": "",
          "type": "address"
        }
      ],
      "stateMutability": "view",
      "type": "function"
    },
    {
      "inputs": [],
      "name": "productCounter",
      "outputs": [
        {
          "internalType": "uint32",
          "name": "",
          "type": "uint32"
        }
      ],
      "stateMutability": "view",
      "type": "function"
    },
    {
      "inputs": [
        {
          "internalType": "uint256[]",
          "name": "bondIds",
          "type": "uint256[]"
        }
      ],
      "name": "redeem",
      "outputs": [
        {
          "internalType": "uint256",
          "name": "payout",
          "type": "uint256"
        }
      ],
      "stateMutability": "nonpayable",
      "type": "function"
    },
    {
      "inputs": [],
      "name": "tokenomics",
      "outputs": [
        {
          "internalType": "address",
          "name": "",
          "type": "address"
        }
      ],
      "stateMutability": "view",
      "type": "function"
    },
    {
      "inputs": [],
      "name": "treasury",
      "outputs": [
        {
          "internalType": "address",
          "name": "",
          "type": "address"
        }
      ],
      "stateMutability": "view",
      "type": "function"
    }
  ],
  "bytecode": "0x60a060405234801562000010575f80fd5b50604051620023e2380380620023e283398101604081905262000033916200010b565b5f80546001600160a01b031916331790556001600160a01b03841615806200006257506001600160a01b038316155b806200007557506001600160a01b038216155b806200008857506001600160a01b038116155b15620000a75760405163d92e233d60e01b815260040160405180910390fd5b6001600160a01b03938416608052600180549385166001600160a01b031994851617905560028054928516928416929092179091556003805491909316911617905562000165565b80516001600160a01b038116811462000106575f80fd5b919050565b5f805f80608085870312156200011f575f80fd5b6200012a85620000ef565b93506200013a60208601620000ef565b92506200014a60408601620000ef565b91506200015a60608601620000ef565b905092959194509250565b60805161225d620001855f395f818161018c0152611db7015261225d5ff3fe608060405234801561000f575f80fd5b5060043610610183575f3560e01c80638c71ec16116100dd578063e42f991911610088578063f9afb26a11610063578063f9afb26a14610471578063fc63e42d14610484578063ffa1ad7414610520575f80fd5b8063e42f991914610367578063e91b0a4114610400578063f731960c14610428575f80fd5b8063c5332b7c116100b8578063c5332b7c14610313578063ce2d683f14610326578063e2bbb15814610339575f80fd5b80638c71ec16146102db5780638da5cb5b146102ee578063a6f9dae114610300575f80fd5b80634ac7251d1161013d5780635b400e4f116101185780635b400e4f1461029d57806361d027b3146102be57806363e63e3b146102d1575f80fd5b80634ac7251d146102545780635831d8851461026757806358d3ec6a1461027d575f80fd5b8063158555371161016d57806315855537146101e05780631f16653b146101f357806324415cf614610233575f80fd5b806231d115146101875780630c062810146101cb575b5f80fd5b6101ae7f000000000000000000000000000000000000000000000000000000000000000081565b6040516001600160a01b0390911681526020015b60405180910390f35b6101de6101d9366004611e4a565b610569565b005b6101de6101ee366004611e7b565b61068c565b5f5461021e907801000000000000000000000000000000000000000000000000900463ffffffff1681565b60405163ffffffff90911681526020016101c2565b610246610241366004611e7b565b61073b565b6040519081526020016101c2565b6001546101ae906001600160a01b031681565b5f5461021e90600160a01b900463ffffffff1681565b61029061028b366004611ec8565b6107c6565b6040516101c29190611fd8565b6102b06102ab366004611ff7565b610abb565b6040516101c292919061202c565b6002546101ae906001600160a01b031681565b6102466201518081565b6102466102e936600461204d565b610cd0565b5f546101ae906001600160a01b031681565b6101de61030e366004611e7b565b611253565b6003546101ae906001600160a01b031681565b610290610334366004612083565b611330565b61034c61034736600461209e565b611505565b604080519384526020840192909252908201526060016101c2565b6103bc6103753660046120be565b60056020525f9081526040902080546001909101546001600160a01b0380831692600160a01b9081900463ffffffff169291821691046bffffffffffffffffffffffff1684565b604080516001600160a01b03958616815263ffffffff94909416602085015291909316908201526bffffffffffffffffffffffff90911660608201526080016101c2565b61041361040e3660046120be565b611a3c565b604080519283529015156020830152016101c2565b6104616104363660046120be565b5f90815260056020526040902060010154600160a01b90046bffffffffffffffffffffffff16151590565b60405190151581526020016101c2565b61024661047f366004611ec8565b611a87565b6104dd6104923660046120be565b60046020525f9081526040902080546001909101546001600160a01b03821691600160a01b90046bffffffffffffffffffffffff169063ffffffff8082169164010000000090041684565b604080516001600160a01b0390951685526bffffffffffffffffffffffff909316602085015263ffffffff918216928401929092521660608201526080016101c2565b61055c6040518060400160405280600581526020017f312e302e3100000000000000000000000000000000000000000000000000000081525081565b6040516101c291906120d5565b5f546001600160a01b031633146105ac575f5460405163521eb56d60e11b81523360048201526001600160a01b0390911660248201526044015b60405180910390fd5b6001600160a01b0382161561061a57600180547fffffffffffffffffffffffff0000000000000000000000000000000000000000166001600160a01b0384169081179091556040517f4672fe7e13cfb163442d0b729b5733fb3efafc66cbe3677eac9940eb41c284c2905f90a25b6001600160a01b0381161561068857600280547fffffffffffffffffffffffff0000000000000000000000000000000000000000166001600160a01b0383169081179091556040517f7dae230f18360d76a040c81f050aa14eb9d6dc7901b20fc5d855e2a20fe814d1905f90a25b5050565b5f546001600160a01b031633146106ca575f5460405163521eb56d60e11b81523360048201526001600160a01b0390911660248201526044016105a3565b6001600160a01b0381161561073857600380547fffffffffffffffffffffffff0000000000000000000000000000000000000000166001600160a01b0383169081179091556040517f179276fedd32be7c465135f8e074aefcd470c855d2550f83a36a45bfbaa61ea5905f90a25b50565b6003546040517f24415cf60000000000000000000000000000000000000000000000000000000081526001600160a01b0383811660048301525f9216906324415cf690602401602060405180830381865afa15801561079c573d5f803e3d5ffd5b505050506040513d601f19601f820116820180604052508101906107c0919061213e565b92915050565b5f546060906001600160a01b03163314610807575f5460405163521eb56d60e11b81523360048201526001600160a01b0390911660248201526044016105a3565b81515f8167ffffffffffffffff81111561082357610823611e9b565b60405190808252806020026020018201604052801561084c578160200160208202803683370190505b5090505f805b838110156109ee575f86828151811061086d5761086d612155565b6020908102919091018101515f8181526005909252604090912060010154909150600160a01b90046bffffffffffffffffffffffff1680156109db576001546040517f7048960c000000000000000000000000000000000000000000000000000000008152600481018390526001600160a01b0390911690637048960c906024015f604051808303815f87803b158015610905575f80fd5b505af1158015610917573d5f803e3d5ffd5b5050505f8381526005602052604081206001808201805483547fffffffffffffffff000000000000000000000000000000000000000000000000169093559290925587516001600160a01b03909116925087908690811061097a5761097a612155565b91151560209283029190910190910152610993856121af565b945082816001600160a01b03167f677b70dc7e4a19e6af55f981ac3706886716a25e9c0b978ec0c427f51ce68b18846040516109d191815260200190565b60405180910390a3505b5050806109e7906121af565b9050610852565b508067ffffffffffffffff811115610a0857610a08611e9b565b604051908082528060200260200182016040528015610a31578160200160208202803683370190505b5093505f805b84811015610ab157838181518110610a5157610a51612155565b602002602001015115610aa157868181518110610a7057610a70612155565b6020026020010151868381518110610a8a57610a8a612155565b6020908102919091010152610a9e826121af565b91505b610aaa816121af565b9050610a37565b5050505050919050565b60605f6001600160a01b038416610afe576040517fd92e233d00000000000000000000000000000000000000000000000000000000815260040160405180910390fd5b5f8054600160a01b900463ffffffff16818167ffffffffffffffff811115610b2857610b28611e9b565b604051908082528060200260200182016040528015610b51578160200160208202803683370190505b5090505f5b82811015610c18575f818152600460205260409020546001600160a01b03808a16911603610c0657861580610ba157505f8181526004602052604090206001015463ffffffff164210155b15610c06576001828281518110610bba57610bba612155565b91151560209283029190910190910152610bd3846121af565b5f82815260046020526040902054909450610c0390600160a01b90046bffffffffffffffffffffffff16866121e6565b94505b80610c10816121af565b915050610b56565b508267ffffffffffffffff811115610c3257610c32611e9b565b604051908082528060200260200182016040528015610c5b578160200160208202803683370190505b5094505f805b83811015610cc457828181518110610c7b57610c7b612155565b602002602001015115610cb25780878381518110610c9b57610c9b612155565b6020908102919091010152610caf826121af565b91505b80610cbc816121af565b915050610c61565b50505050509250929050565b5f80546001600160a01b03163314610d0f575f5460405163521eb56d60e11b81523360048201526001600160a01b0390911660248201526044016105a3565b835f03610d48576040517f7c946ed700000000000000000000000000000000000000000000000000000000815260040160405180910390fd5b6001600160a01b03841115610d99576040517f7ae59685000000000000000000000000000000000000000000000000000000008152600481018590526001600160a01b0360248201526044016105a3565b825f03610dd2576040517f7c946ed700000000000000000000000000000000000000000000000000000000815260040160405180910390fd5b6bffffffffffffffffffffffff831115610e2d576040517f7ae59685000000000000000000000000000000000000000000000000000000008152600481018490526bffffffffffffffffffffffff60248201526044016105a3565b62015180821015610e76576040517f491a2bb1000000000000000000000000000000000000000000000000000000008152600481018390526201518060248201526044016105a3565b5f610e8183426121e6565b905063ffffffff811115610ece576040517f7ae596850000000000000000000000000000000000000000000000000000000081526004810182905263ffffffff60248201526044016105a3565b6002546040517f9015d3710000000000000000000000000000000000000000000000000000000081526001600160a01b03888116600483015290911690639015d37190602401602060405180830381865afa158015610f2f573d5f803e3d5ffd5b505050506040513d601f19601f82011682018060405250810190610f5391906121f9565b610f94576040517fe3d87c620000000000000000000000000000000000000000000000000000000081526001600160a01b03871660048201526024016105a3565b6001546040517f426e77df000000000000000000000000000000000000000000000000000000008152600481018690526001600160a01b039091169063426e77df906024016020604051808303815f875af1158015610ff5573d5f803e3d5ffd5b505050506040513d601f19601f8201168201806040525081019061101991906121f9565b6110ce5760015f9054906101000a90046001600160a01b03166001600160a01b0316638fc2b24d6040518163ffffffff1660e01b8152600401602060405180830381865afa15801561106d573d5f803e3d5ffd5b505050506040513d601f19601f82011682018060405250810190611091919061213e565b6040517f491a2bb10000000000000000000000000000000000000000000000000000000081526004810191909152602481018590526044016105a3565b5f8054604080516080810182526001600160a01b03808a16825263ffffffff88811660208085019182528d84168587019081526bffffffffffffffffffffffff808e166060880190815278010000000000000000000000000000000000000000000000009099048516808b52600590935296909820945185549251909316600160a01b9081027fffffffffffffffff000000000000000000000000000000000000000000000000909316938516939093179190911784559551945190931690920292909116919091176001918201559092506111ab9083906121e6565b5f805463ffffffff929092167801000000000000000000000000000000000000000000000000027fffffffff00000000ffffffffffffffffffffffffffffffffffffffffffffffff909216919091179055604080518581526020810187905290810184905282906001600160a01b038816907f5fd24ab6321cb12fa0b131d7749ca303e20d69422e8191bc5d2ae4959bae08db9060600160405180910390a350949350505050565b5f546001600160a01b03163314611291575f5460405163521eb56d60e11b81523360048201526001600160a01b0390911660248201526044016105a3565b6001600160a01b0381166112d1576040517fd92e233d00000000000000000000000000000000000000000000000000000000815260040160405180910390fd5b5f80547fffffffffffffffffffffffff0000000000000000000000000000000000000000166001600160a01b038316908117825560405190917f4ffd725fc4a22075e9ec71c59edf9c38cdeb588a91b24fc5b61388c5be41282b91a250565b5f8054606091780100000000000000000000000000000000000000000000000090910463ffffffff16908167ffffffffffffffff81111561137357611373611e9b565b60405190808252806020026020018201604052801561139c578160200160208202803683370190505b5090505f805b83811015611459578580156113db57505f81815260056020526040902060010154600160a01b90046bffffffffffffffffffffffff1615155b8061141257508515801561141257505f81815260056020526040902060010154600160a01b90046bffffffffffffffffffffffff16155b1561144757600183828151811061142b5761142b612155565b91151560209283029190910190910152611444826121af565b91505b80611451816121af565b9150506113a2565b508067ffffffffffffffff81111561147357611473611e9b565b60405190808252806020026020018201604052801561149c578160200160208202803683370190505b5093505f805b84811015610ab1578381815181106114bc576114bc612155565b6020026020010151156114f357808683815181106114dc576114dc612155565b60209081029190910101526114f0826121af565b91505b806114fd816121af565b9150506114a2565b5f805f835f03611541576040517f7c946ed700000000000000000000000000000000000000000000000000000000815260040160405180910390fd5b5f8581526005602052604081206001810154815491926001600160a01b0390911691600160a01b900463ffffffff16908190036115c9576040517f981ef42f0000000000000000000000000000000000000000000000000000000081526001600160a01b038316600482015260248101899052604481018290524260648201526084016105a3565b6115d342826121e6565b945063ffffffff851115611620576040517f7ae596850000000000000000000000000000000000000000000000000000000081526004810186905263ffffffff60248201526044016105a3565b60035483546040517f7e5b0998000000000000000000000000000000000000000000000000000000008152600481018a90526001600160a01b039182166024820152911690637e5b099890604401602060405180830381865afa158015611689573d5f803e3d5ffd5b505050506040513d601f19601f820116820180604052508101906116ad919061213e565b6001840154909650600160a01b90046bffffffffffffffffffffffff1680871115611724576040517f545a90850000000000000000000000000000000000000000000000000000000081526001600160a01b0384166004820152602481018a905260448101889052606481018290526084016105a3565b61172e8782612214565b9050808460010160146101000a8154816bffffffffffffffffffffffff02191690836bffffffffffffffffffffffff1602179055505f60149054906101000a900463ffffffff1663ffffffff1694506040518060800160405280336001600160a01b03168152602001886bffffffffffffffffffffffff1681526020018763ffffffff1681526020018a63ffffffff1681525060045f8781526020019081526020015f205f820151815f015f6101000a8154816001600160a01b0302191690836001600160a01b031602179055506020820151815f0160146101000a8154816bffffffffffffffffffffffff02191690836bffffffffffffffffffffffff1602179055506040820151816001015f6101000a81548163ffffffff021916908363ffffffff16021790555060608201518160010160046101000a81548163ffffffff021916908363ffffffff16021790555090505084600161188f91906121e6565b5f805463ffffffff92909216600160a01b027fffffffffffffffff00000000ffffffffffffffffffffffffffffffffffffffff9092169190911790556002546040517f1ac17db9000000000000000000000000000000000000000000000000000000008152336004820152602481018a90526001600160a01b038581166044830152606482018a905290911690631ac17db9906084015f604051808303815f87803b15801561193c575f80fd5b505af115801561194e573d5f803e3d5ffd5b50505050805f036119da575f8981526005602052604080822080547fffffffffffffffff000000000000000000000000000000000000000000000000168155600101919091555189906001600160a01b038516907f677b70dc7e4a19e6af55f981ac3706886716a25e9c0b978ec0c427f51ce68b18906119d19085815260200190565b60405180910390a35b60408051868152602081018990529081018990526060810187905233908a906001600160a01b038616907ffa892a5592accfded99f9df9ad2d678230f37aeeb8fde5dd3b73769b5069bc0e9060800160405180910390a4505050509250925092565b5f81815260046020526040812054600160a01b90046bffffffffffffffffffffffff16908115611a8257505f8281526004602052604090206001015463ffffffff164210155b915091565b5f805b8251811015611d48575f60045f858481518110611aa957611aa9612155565b602002602001015181526020019081526020015f205f0160149054906101000a90046bffffffffffffffffffffffff166bffffffffffffffffffffffff1690505f60045f868581518110611aff57611aff612155565b60209081029190910181015182528101919091526040015f206001015463ffffffff164210159050811580611b32575080155b15611b8657848381518110611b4957611b49612155565b60200260200101516040517f26c4eabd0000000000000000000000000000000000000000000000000000000081526004016105a391815260200190565b336001600160a01b031660045f878681518110611ba557611ba5612155565b60209081029190910181015182528101919091526040015f20546001600160a01b031614611c2a573360045f878681518110611be357611be3612155565b602090810291909101810151825281019190915260409081015f2054905163521eb56d60e11b81526001600160a01b039283166004820152911660248201526044016105a3565b611c3482856121e6565b93505f60045f878681518110611c4c57611c4c612155565b602002602001015181526020019081526020015f2060010160049054906101000a900463ffffffff1663ffffffff16905060045f878681518110611c9257611c92612155565b60209081029190910181015182528101919091526040015f90812090815560010180547fffffffffffffffffffffffffffffffffffffffffffffffff00000000000000001690558551339082907f97f4572ff501a5533a09cf8d7d39be87e303470dd8bc7cff4fe91212be76bc7390899088908110611d1357611d13612155565b6020026020010151604051611d2a91815260200190565b60405180910390a35050508080611d40906121af565b915050611a8a565b50805f03611d82576040517f7c946ed700000000000000000000000000000000000000000000000000000000815260040160405180910390fd5b6040517fa9059cbb000000000000000000000000000000000000000000000000000000008152336004820152602481018290527f00000000000000000000000000000000000000000000000000000000000000006001600160a01b03169063a9059cbb906044016020604051808303815f875af1158015611e05573d5f803e3d5ffd5b505050506040513d601f19601f82011682018060405250810190611e2991906121f9565b50919050565b80356001600160a01b0381168114611e45575f80fd5b919050565b5f8060408385031215611e5b575f80fd5b611e6483611e2f565b9150611e7260208401611e2f565b90509250929050565b5f60208284031215611e8b575f80fd5b611e9482611e2f565b9392505050565b7f4e487b71000000000000000000000000000000000000000000000000000000005f52604160045260245ffd5b5f6020808385031215611ed9575f80fd5b823567ffffffffffffffff80821115611ef0575f80fd5b818501915085601f830112611f03575f80fd5b813581811115611f1557611f15611e9b565b8060051b6040517fffffffffffffffffffffffffffffffffffffffffffffffffffffffffffffffe0603f83011681018181108582111715611f5857611f58611e9b565b604052918252848201925083810185019188831115611f75575f80fd5b938501935b82851015611f9357843584529385019392850192611f7a565b98975050505050505050565b5f8151808452602080850194508084015f5b83811015611fcd57815187529582019590820190600101611fb1565b509495945050505050565b602081525f611e946020830184611f9f565b8015158114610738575f80fd5b5f8060408385031215612008575f80fd5b61201183611e2f565b9150602083013561202181611fea565b809150509250929050565b604081525f61203e6040830185611f9f565b90508260208301529392505050565b5f805f8060808587031215612060575f80fd5b61206985611e2f565b966020860135965060408601359560600135945092505050565b5f60208284031215612093575f80fd5b8135611e9481611fea565b5f80604083850312156120af575f80fd5b50508035926020909101359150565b5f602082840312156120ce575f80fd5b5035919050565b5f6020808352835180828501525f5b81811015612100578581018301518582016040015282016120e4565b505f6040828601015260407fffffffffffffffffffffffffffffffffffffffffffffffffffffffffffffffe0601f8301168501019250505092915050565b5f6020828403121561214e575f80fd5b5051919050565b7f4e487b71000000000000000000000000000000000000000000000000000000005f52603260045260245ffd5b7f4e487b71000000000000000000000000000000000000000000000000000000005f52601160045260245ffd5b5f7fffffffffffffffffffffffffffffffffffffffffffffffffffffffffffffffff82036121df576121df612182565b5060010190565b808201808211156107c0576107c0612182565b5f60208284031215612209575f80fd5b8151611e9481611fea565b818103818111156107c0576107c061218256fea2646970667358221220aada82dbbc63cabbb3269b9e7089eb01422584d716ef92af13c4103045813e7864736f6c63430008140033",
  "linkReferences": {},
  "deployedLinkReferences": {}
}