{
  "_format": "hh-sol-artifact-1",
  "contractName": "Depository",
  "sourceName": "contracts/Depository.sol",
  "abi": [
    {
      "inputs": [
        {
          "internalType": "address",
          "name": "_olas",
          "type": "address"
        },
        {
          "internalType": "address",
          "name": "_tokenomics",
          "type": "address"
        },
        {
          "internalType": "address",
          "name": "_treasury",
          "type": "address"
        },
        {
          "internalType": "address",
          "name": "_bondCalculator",
          "type": "address"
        }
      ],
      "stateMutability": "nonpayable",
      "type": "constructor"
    },
    {
      "inputs": [],
      "name": "AlreadyInitialized",
      "type": "error"
    },
    {
      "inputs": [
        {
          "internalType": "uint256",
          "name": "bondId",
          "type": "uint256"
        }
      ],
      "name": "BondNotRedeemable",
      "type": "error"
    },
    {
      "inputs": [
        {
          "internalType": "address",
          "name": "account",
          "type": "address"
        },
        {
          "internalType": "uint256",
          "name": "reward",
          "type": "uint256"
        },
        {
          "internalType": "uint256",
          "name": "topUp",
          "type": "uint256"
        }
      ],
      "name": "ClaimIncentivesFailed",
      "type": "error"
    },
    {
      "inputs": [],
      "name": "DelegatecallOnly",
      "type": "error"
    },
    {
      "inputs": [
        {
          "internalType": "address",
          "name": "account",
          "type": "address"
        }
      ],
      "name": "DonatorBlacklisted",
      "type": "error"
    },
    {
      "inputs": [
        {
          "internalType": "uint256",
          "name": "provided",
          "type": "uint256"
        },
        {
          "internalType": "uint256",
          "name": "expected",
          "type": "uint256"
        }
      ],
      "name": "InsufficientAllowance",
      "type": "error"
    },
    {
      "inputs": [
        {
          "internalType": "uint256",
          "name": "provided",
          "type": "uint256"
        },
        {
          "internalType": "uint256",
          "name": "expected",
          "type": "uint256"
        }
      ],
      "name": "LowerThan",
      "type": "error"
    },
    {
      "inputs": [
        {
          "internalType": "address",
          "name": "sender",
          "type": "address"
        },
        {
          "internalType": "address",
          "name": "manager",
          "type": "address"
        }
      ],
      "name": "ManagerOnly",
      "type": "error"
    },
    {
      "inputs": [],
      "name": "NonZeroValue",
      "type": "error"
    },
    {
      "inputs": [
        {
          "internalType": "uint256",
          "name": "provided",
          "type": "uint256"
        },
        {
          "internalType": "uint256",
          "name": "max",
          "type": "uint256"
        }
      ],
      "name": "Overflow",
      "type": "error"
    },
    {
      "inputs": [
        {
          "internalType": "address",
          "name": "sender",
          "type": "address"
        },
        {
          "internalType": "address",
          "name": "owner",
          "type": "address"
        }
      ],
      "name": "OwnerOnly",
      "type": "error"
    },
    {
      "inputs": [],
      "name": "Paused",
      "type": "error"
    },
    {
      "inputs": [
        {
          "internalType": "uint256",
          "name": "productId",
          "type": "uint256"
        }
      ],
      "name": "ProductClosed",
      "type": "error"
    },
    {
      "inputs": [
        {
          "internalType": "address",
          "name": "tokenAddress",
          "type": "address"
        },
        {
          "internalType": "uint256",
          "name": "productId",
          "type": "uint256"
        },
        {
          "internalType": "uint256",
          "name": "deadline",
          "type": "uint256"
        },
        {
          "internalType": "uint256",
          "name": "curTime",
          "type": "uint256"
        }
      ],
      "name": "ProductExpired",
      "type": "error"
    },
    {
      "inputs": [
        {
          "internalType": "address",
          "name": "tokenAddress",
          "type": "address"
        },
        {
          "internalType": "uint256",
          "name": "productId",
          "type": "uint256"
        },
        {
          "internalType": "uint256",
          "name": "requested",
          "type": "uint256"
        },
        {
          "internalType": "uint256",
          "name": "actual",
          "type": "uint256"
        }
      ],
      "name": "ProductSupplyLow",
      "type": "error"
    },
    {
      "inputs": [],
      "name": "ReentrancyGuard",
      "type": "error"
    },
    {
      "inputs": [],
      "name": "SameBlockNumberViolation",
      "type": "error"
    },
    {
      "inputs": [
        {
          "internalType": "uint256",
          "name": "serviceId",
          "type": "uint256"
        }
      ],
      "name": "ServiceDoesNotExist",
      "type": "error"
    },
    {
      "inputs": [
        {
          "internalType": "uint256",
          "name": "serviceId",
          "type": "uint256"
        }
      ],
      "name": "ServiceNeverDeployed",
      "type": "error"
    },
    {
      "inputs": [
        {
          "internalType": "address",
          "name": "token",
          "type": "address"
        },
        {
          "internalType": "address",
          "name": "from",
          "type": "address"
        },
        {
          "internalType": "address",
          "name": "to",
          "type": "address"
        },
        {
          "internalType": "uint256",
          "name": "amount",
          "type": "uint256"
        }
      ],
      "name": "TransferFailed",
      "type": "error"
    },
    {
      "inputs": [
        {
          "internalType": "uint256",
          "name": "epochNumber",
          "type": "uint256"
        }
      ],
      "name": "TreasuryRebalanceFailed",
      "type": "error"
    },
    {
      "inputs": [
        {
          "internalType": "address",
          "name": "tokenAddress",
          "type": "address"
        }
      ],
      "name": "UnauthorizedToken",
      "type": "error"
    },
    {
      "inputs": [
        {
          "internalType": "uint256",
          "name": "provided",
          "type": "uint256"
        },
        {
          "internalType": "uint256",
          "name": "expected",
          "type": "uint256"
        }
      ],
      "name": "WrongAmount",
      "type": "error"
    },
    {
      "inputs": [
        {
          "internalType": "uint256",
          "name": "numValues1",
          "type": "uint256"
        },
        {
          "internalType": "uint256",
          "name": "numValues2",
          "type": "uint256"
        }
      ],
      "name": "WrongArrayLength",
      "type": "error"
    },
    {
      "inputs": [
        {
          "internalType": "address",
          "name": "provided",
          "type": "address"
        },
        {
          "internalType": "address",
          "name": "expected",
          "type": "address"
        }
      ],
      "name": "WrongTokenAddress",
      "type": "error"
    },
    {
      "inputs": [
        {
          "internalType": "uint256",
          "name": "unitId",
          "type": "uint256"
        },
        {
          "internalType": "uint256",
          "name": "unitType",
          "type": "uint256"
        }
      ],
      "name": "WrongUnitId",
      "type": "error"
    },
    {
      "inputs": [],
      "name": "ZeroAddress",
      "type": "error"
    },
    {
      "inputs": [],
      "name": "ZeroValue",
      "type": "error"
    },
    {
      "anonymous": false,
      "inputs": [
        {
          "indexed": true,
          "internalType": "address",
          "name": "bondCalculator",
          "type": "address"
        }
      ],
      "name": "BondCalculatorUpdated",
      "type": "event"
    },
    {
      "anonymous": false,
      "inputs": [
        {
          "indexed": true,
          "internalType": "address",
          "name": "token",
          "type": "address"
        },
        {
          "indexed": true,
          "internalType": "uint256",
          "name": "productId",
          "type": "uint256"
        },
        {
          "indexed": false,
          "internalType": "uint256",
          "name": "supply",
          "type": "uint256"
        }
      ],
      "name": "CloseProduct",
      "type": "event"
    },
    {
      "anonymous": false,
      "inputs": [
        {
          "indexed": true,
          "internalType": "address",
          "name": "token",
          "type": "address"
        },
        {
          "indexed": true,
          "internalType": "uint256",
          "name": "productId",
          "type": "uint256"
        },
        {
          "indexed": true,
          "internalType": "address",
          "name": "owner",
          "type": "address"
        },
        {
          "indexed": false,
          "internalType": "uint256",
          "name": "bondId",
          "type": "uint256"
        },
        {
          "indexed": false,
          "internalType": "uint256",
          "name": "amountOLAS",
          "type": "uint256"
        },
        {
          "indexed": false,
          "internalType": "uint256",
          "name": "tokenAmount",
          "type": "uint256"
        },
        {
          "indexed": false,
          "internalType": "uint256",
          "name": "maturity",
          "type": "uint256"
        }
      ],
      "name": "CreateBond",
      "type": "event"
    },
    {
      "anonymous": false,
      "inputs": [
        {
          "indexed": true,
          "internalType": "address",
          "name": "token",
          "type": "address"
        },
        {
          "indexed": true,
          "internalType": "uint256",
          "name": "productId",
          "type": "uint256"
        },
        {
          "indexed": false,
          "internalType": "uint256",
          "name": "supply",
          "type": "uint256"
        },
        {
          "indexed": false,
          "internalType": "uint256",
          "name": "priceLP",
          "type": "uint256"
        },
        {
          "indexed": false,
          "internalType": "uint256",
          "name": "vesting",
          "type": "uint256"
        }
      ],
      "name": "CreateProduct",
      "type": "event"
    },
    {
      "anonymous": false,
      "inputs": [
        {
          "indexed": true,
          "internalType": "address",
          "name": "owner",
          "type": "address"
        }
      ],
      "name": "OwnerUpdated",
      "type": "event"
    },
    {
      "anonymous": false,
      "inputs": [
        {
          "indexed": true,
          "internalType": "uint256",
          "name": "productId",
          "type": "uint256"
        },
        {
          "indexed": true,
          "internalType": "address",
          "name": "owner",
          "type": "address"
        },
        {
          "indexed": false,
          "internalType": "uint256",
          "name": "bondId",
          "type": "uint256"
        }
      ],
      "name": "RedeemBond",
      "type": "event"
    },
    {
      "anonymous": false,
      "inputs": [
        {
          "indexed": true,
          "internalType": "address",
          "name": "tokenomics",
          "type": "address"
        }
      ],
      "name": "TokenomicsUpdated",
      "type": "event"
    },
    {
      "anonymous": false,
      "inputs": [
        {
          "indexed": true,
          "internalType": "address",
          "name": "treasury",
          "type": "address"
        }
      ],
      "name": "TreasuryUpdated",
      "type": "event"
    },
    {
      "inputs": [],
      "name": "MIN_VESTING",
      "outputs": [
        {
          "internalType": "uint256",
          "name": "",
          "type": "uint256"
        }
      ],
      "stateMutability": "view",
      "type": "function"
    },
    {
      "inputs": [],
      "name": "VERSION",
      "outputs": [
        {
          "internalType": "string",
          "name": "",
          "type": "string"
        }
      ],
      "stateMutability": "view",
      "type": "function"
    },
    {
      "inputs": [],
      "name": "bondCalculator",
      "outputs": [
        {
          "internalType": "address",
          "name": "",
          "type": "address"
        }
      ],
      "stateMutability": "view",
      "type": "function"
    },
    {
      "inputs": [],
      "name": "bondCounter",
      "outputs": [
        {
          "internalType": "uint32",
          "name": "",
          "type": "uint32"
        }
      ],
      "stateMutability": "view",
      "type": "function"
    },
    {
      "inputs": [
        {
          "internalType": "address",
          "name": "_bondCalculator",
          "type": "address"
        }
      ],
      "name": "changeBondCalculator",
      "outputs": [],
      "stateMutability": "nonpayable",
      "type": "function"
    },
    {
      "inputs": [
        {
          "internalType": "address",
          "name": "_tokenomics",
          "type": "address"
        },
        {
          "internalType": "address",
          "name": "_treasury",
          "type": "address"
        }
      ],
      "name": "changeManagers",
      "outputs": [],
      "stateMutability": "nonpayable",
      "type": "function"
    },
    {
      "inputs": [
        {
          "internalType": "address",
          "name": "newOwner",
          "type": "address"
        }
      ],
      "name": "changeOwner",
      "outputs": [],
      "stateMutability": "nonpayable",
      "type": "function"
    },
    {
      "inputs": [
        {
          "internalType": "uint256[]",
          "name": "productIds",
          "type": "uint256[]"
        }
      ],
      "name": "close",
      "outputs": [
        {
          "internalType": "uint256[]",
          "name": "closedProductIds",
          "type": "uint256[]"
        }
      ],
      "stateMutability": "nonpayable",
      "type": "function"
    },
    {
      "inputs": [
        {
          "internalType": "address",
          "name": "token",
          "type": "address"
        },
        {
          "internalType": "uint256",
          "name": "priceLP",
          "type": "uint256"
        },
        {
          "internalType": "uint256",
          "name": "supply",
          "type": "uint256"
        },
        {
          "internalType": "uint256",
          "name": "vesting",
          "type": "uint256"
        }
      ],
      "name": "create",
      "outputs": [
        {
          "internalType": "uint256",
          "name": "productId",
          "type": "uint256"
        }
      ],
      "stateMutability": "nonpayable",
      "type": "function"
    },
    {
      "inputs": [
        {
          "internalType": "uint256",
          "name": "productId",
          "type": "uint256"
        },
        {
          "internalType": "uint256",
          "name": "tokenAmount",
          "type": "uint256"
        }
      ],
      "name": "deposit",
      "outputs": [
        {
          "internalType": "uint256",
          "name": "payout",
          "type": "uint256"
        },
        {
          "internalType": "uint256",
          "name": "maturity",
          "type": "uint256"
        },
        {
          "internalType": "uint256",
          "name": "bondId",
          "type": "uint256"
        }
      ],
      "stateMutability": "nonpayable",
      "type": "function"
    },
    {
      "inputs": [
        {
          "internalType": "uint256",
          "name": "bondId",
          "type": "uint256"
        }
      ],
      "name": "getBondStatus",
      "outputs": [
        {
          "internalType": "uint256",
          "name": "payout",
          "type": "uint256"
        },
        {
          "internalType": "bool",
          "name": "matured",
          "type": "bool"
        }
      ],
      "stateMutability": "view",
      "type": "function"
    },
    {
      "inputs": [
        {
          "internalType": "address",
          "name": "account",
          "type": "address"
        },
        {
          "internalType": "bool",
          "name": "matured",
          "type": "bool"
        }
      ],
      "name": "getBonds",
      "outputs": [
        {
          "internalType": "uint256[]",
          "name": "bondIds",
          "type": "uint256[]"
        },
        {
          "internalType": "uint256",
          "name": "payout",
          "type": "uint256"
        }
      ],
      "stateMutability": "view",
      "type": "function"
    },
    {
      "inputs": [
        {
          "internalType": "address",
          "name": "token",
          "type": "address"
        }
      ],
      "name": "getCurrentPriceLP",
      "outputs": [
        {
          "internalType": "uint256",
          "name": "priceLP",
          "type": "uint256"
        }
      ],
      "stateMutability": "view",
      "type": "function"
    },
    {
      "inputs": [
        {
          "internalType": "bool",
          "name": "active",
          "type": "bool"
        }
      ],
      "name": "getProducts",
      "outputs": [
        {
          "internalType": "uint256[]",
          "name": "productIds",
          "type": "uint256[]"
        }
      ],
      "stateMutability": "view",
      "type": "function"
    },
    {
      "inputs": [
        {
          "internalType": "uint256",
          "name": "productId",
          "type": "uint256"
        }
      ],
      "name": "isActiveProduct",
      "outputs": [
        {
          "internalType": "bool",
          "name": "status",
          "type": "bool"
        }
      ],
      "stateMutability": "view",
      "type": "function"
    },
    {
      "inputs": [
        {
          "internalType": "uint256",
          "name": "",
          "type": "uint256"
        }
      ],
      "name": "mapBondProducts",
      "outputs": [
        {
          "internalType": "uint160",
          "name": "priceLP",
          "type": "uint160"
        },
        {
          "internalType": "uint32",
          "name": "vesting",
          "type": "uint32"
        },
        {
          "internalType": "address",
          "name": "token",
          "type": "address"
        },
        {
          "internalType": "uint96",
          "name": "supply",
          "type": "uint96"
        }
      ],
      "stateMutability": "view",
      "type": "function"
    },
    {
      "inputs": [
        {
          "internalType": "uint256",
          "name": "",
          "type": "uint256"
        }
      ],
      "name": "mapUserBonds",
      "outputs": [
        {
          "internalType": "address",
          "name": "account",
          "type": "address"
        },
        {
          "internalType": "uint96",
          "name": "payout",
          "type": "uint96"
        },
        {
          "internalType": "uint32",
          "name": "maturity",
          "type": "uint32"
        },
        {
          "internalType": "uint32",
          "name": "productId",
          "type": "uint32"
        }
      ],
      "stateMutability": "view",
      "type": "function"
    },
    {
      "inputs": [],
      "name": "olas",
      "outputs": [
        {
          "internalType": "address",
          "name": "",
          "type": "address"
        }
      ],
      "stateMutability": "view",
      "type": "function"
    },
    {
      "inputs": [],
      "name": "owner",
      "outputs": [
        {
          "internalType": "address",
          "name": "",
          "type": "address"
        }
      ],
      "stateMutability": "view",
      "type": "function"
    },
    {
      "inputs": [],
      "name": "productCounter",
      "outputs": [
        {
          "internalType": "uint32",
          "name": "",
          "type": "uint32"
        }
      ],
      "stateMutability": "view",
      "type": "function"
    },
    {
      "inputs": [
        {
          "internalType": "uint256[]",
          "name": "bondIds",
          "type": "uint256[]"
        }
      ],
      "name": "redeem",
      "outputs": [
        {
          "internalType": "uint256",
          "name": "payout",
          "type": "uint256"
        }
      ],
      "stateMutability": "nonpayable",
      "type": "function"
    },
    {
      "inputs": [],
      "name": "tokenomics",
      "outputs": [
        {
          "internalType": "address",
          "name": "",
          "type": "address"
        }
      ],
      "stateMutability": "view",
      "type": "function"
    },
    {
      "inputs": [],
      "name": "treasury",
      "outputs": [
        {
          "internalType": "address",
          "name": "",
          "type": "address"
        }
      ],
      "stateMutability": "view",
      "type": "function"
    }
  ],
  "bytecode": "0x60a060405234801562000010575f80fd5b50604051620023a4380380620023a483398101604081905262000033916200010b565b5f80546001600160a01b031916331790556001600160a01b03841615806200006257506001600160a01b038316155b806200007557506001600160a01b038216155b806200008857506001600160a01b038116155b15620000a75760405163d92e233d60e01b815260040160405180910390fd5b6001600160a01b03938416608052600180549385166001600160a01b031994851617905560028054928516928416929092179091556003805491909316911617905562000165565b80516001600160a01b038116811462000106575f80fd5b919050565b5f805f80608085870312156200011f575f80fd5b6200012a85620000ef565b93506200013a60208601620000ef565b92506200014a60408601620000ef565b91506200015a60608601620000ef565b905092959194509250565b60805161221f620001855f395f818161018c0152611d79015261221f5ff3fe608060405234801561000f575f80fd5b5060043610610183575f3560e01c80638c71ec16116100dd578063e42f991911610088578063f9afb26a11610063578063f9afb26a14610471578063fc63e42d14610484578063ffa1ad7414610520575f80fd5b8063e42f991914610367578063e91b0a4114610400578063f731960c14610428575f80fd5b8063c5332b7c116100b8578063c5332b7c14610313578063ce2d683f14610326578063e2bbb15814610339575f80fd5b80638c71ec16146102db5780638da5cb5b146102ee578063a6f9dae114610300575f80fd5b80634ac7251d1161013d5780635b400e4f116101185780635b400e4f1461029d57806361d027b3146102be57806363e63e3b146102d1575f80fd5b80634ac7251d146102545780635831d8851461026757806358d3ec6a1461027d575f80fd5b8063158555371161016d57806315855537146101e05780631f16653b146101f357806324415cf614610233575f80fd5b806231d115146101875780630c062810146101cb575b5f80fd5b6101ae7f000000000000000000000000000000000000000000000000000000000000000081565b6040516001600160a01b0390911681526020015b60405180910390f35b6101de6101d9366004611e0c565b610569565b005b6101de6101ee366004611e3d565b61068c565b5f5461021e907801000000000000000000000000000000000000000000000000900463ffffffff1681565b60405163ffffffff90911681526020016101c2565b610246610241366004611e3d565b61073b565b6040519081526020016101c2565b6001546101ae906001600160a01b031681565b5f5461021e90600160a01b900463ffffffff1681565b61029061028b366004611e8a565b6107c6565b6040516101c29190611f9a565b6102b06102ab366004611fb9565b610aa2565b6040516101c2929190611fee565b6002546101ae906001600160a01b031681565b6102466201518081565b6102466102e936600461200f565b610cb3565b5f546101ae906001600160a01b031681565b6101de61030e366004611e3d565b611236565b6003546101ae906001600160a01b031681565b610290610334366004612045565b611313565b61034c610347366004612060565b6114ee565b604080519384526020840192909252908201526060016101c2565b6103bc610375366004612080565b60056020525f9081526040902080546001909101546001600160a01b0380831692600160a01b9081900463ffffffff169291821691046bffffffffffffffffffffffff1684565b604080516001600160a01b03958616815263ffffffff94909416602085015291909316908201526bffffffffffffffffffffffff90911660608201526080016101c2565b61041361040e366004612080565b611a00565b604080519283529015156020830152016101c2565b610461610436366004612080565b5f90815260056020526040902060010154600160a01b90046bffffffffffffffffffffffff16151590565b60405190151581526020016101c2565b61024661047f366004611e8a565b611a4b565b6104dd610492366004612080565b60046020525f9081526040902080546001909101546001600160a01b03821691600160a01b90046bffffffffffffffffffffffff169063ffffffff8082169164010000000090041684565b604080516001600160a01b0390951685526bffffffffffffffffffffffff909316602085015263ffffffff918216928401929092521660608201526080016101c2565b61055c6040518060400160405280600581526020017f312e302e3100000000000000000000000000000000000000000000000000000081525081565b6040516101c29190612097565b5f546001600160a01b031633146105ac575f5460405163521eb56d60e11b81523360048201526001600160a01b0390911660248201526044015b60405180910390fd5b6001600160a01b0382161561061a57600180547fffffffffffffffffffffffff0000000000000000000000000000000000000000166001600160a01b0384169081179091556040517f4672fe7e13cfb163442d0b729b5733fb3efafc66cbe3677eac9940eb41c284c2905f90a25b6001600160a01b0381161561068857600280547fffffffffffffffffffffffff0000000000000000000000000000000000000000166001600160a01b0383169081179091556040517f7dae230f18360d76a040c81f050aa14eb9d6dc7901b20fc5d855e2a20fe814d1905f90a25b5050565b5f546001600160a01b031633146106ca575f5460405163521eb56d60e11b81523360048201526001600160a01b0390911660248201526044016105a3565b6001600160a01b0381161561073857600380547fffffffffffffffffffffffff0000000000000000000000000000000000000000166001600160a01b0383169081179091556040517f179276fedd32be7c465135f8e074aefcd470c855d2550f83a36a45bfbaa61ea5905f90a25b50565b6003546040517f24415cf60000000000000000000000000000000000000000000000000000000081526001600160a01b0383811660048301525f9216906324415cf690602401602060405180830381865afa15801561079c573d5f803e3d5ffd5b505050506040513d601f19601f820116820180604052508101906107c09190612100565b92915050565b5f546060906001600160a01b03163314610807575f5460405163521eb56d60e11b81523360048201526001600160a01b0390911660248201526044016105a3565b81515f8167ffffffffffffffff81111561082357610823611e5d565b60405190808252806020026020018201604052801561084c578160200160208202803683370190505b5090505f805b83811015610a02575f86828151811061086d5761086d612117565b6020908102919091018101515f8181526005909252604090912060010154909150600160a01b90046bffffffffffffffffffffffff1680156109ef576001546040517f7048960c000000000000000000000000000000000000000000000000000000008152600481018390526001600160a01b0390911690637048960c906024015f604051808303815f87803b158015610905575f80fd5b505af1158015610917573d5f803e3d5ffd5b5050505f83815260056020526040812060018101805482547fffffffffffffffff000000000000000000000000000000000000000000000000169092559190915589516001600160a01b03909116915089908590811061097957610979612117565b602002602001015186868151811061099357610993612117565b60209081029190910101526109a785612171565b945082816001600160a01b03167f677b70dc7e4a19e6af55f981ac3706886716a25e9c0b978ec0c427f51ce68b18846040516109e591815260200190565b60405180910390a3505b5050806109fb90612171565b9050610852565b508067ffffffffffffffff811115610a1c57610a1c611e5d565b604051908082528060200260200182016040528015610a45578160200160208202803683370190505b5093505f5b81811015610a9957828181518110610a6457610a64612117565b6020026020010151858281518110610a7e57610a7e612117565b6020908102919091010152610a9281612171565b9050610a4a565b50505050919050565b60605f6001600160a01b038416610ae5576040517fd92e233d00000000000000000000000000000000000000000000000000000000815260040160405180910390fd5b5f8054600160a01b900463ffffffff16818167ffffffffffffffff811115610b0f57610b0f611e5d565b604051908082528060200260200182016040528015610b38578160200160208202803683370190505b5090505f5b82811015610bfd575f818152600460205260409020546001600160a01b03808a16911603610bed57861580610b8857505f8181526004602052604090206001015463ffffffff164210155b15610bed576001828281518110610ba157610ba1612117565b91151560209283029190910190910152610bba84612171565b5f82815260046020526040902054909450610bea90600160a01b90046bffffffffffffffffffffffff16866121a8565b94505b610bf681612171565b9050610b3d565b508267ffffffffffffffff811115610c1757610c17611e5d565b604051908082528060200260200182016040528015610c40578160200160208202803683370190505b5094505f805b83811015610ca757828181518110610c6057610c60612117565b602002602001015115610c975780878381518110610c8057610c80612117565b6020908102919091010152610c9482612171565b91505b610ca081612171565b9050610c46565b50505050509250929050565b5f80546001600160a01b03163314610cf2575f5460405163521eb56d60e11b81523360048201526001600160a01b0390911660248201526044016105a3565b835f03610d2b576040517f7c946ed700000000000000000000000000000000000000000000000000000000815260040160405180910390fd5b6001600160a01b03841115610d7c576040517f7ae59685000000000000000000000000000000000000000000000000000000008152600481018590526001600160a01b0360248201526044016105a3565b825f03610db5576040517f7c946ed700000000000000000000000000000000000000000000000000000000815260040160405180910390fd5b6bffffffffffffffffffffffff831115610e10576040517f7ae59685000000000000000000000000000000000000000000000000000000008152600481018490526bffffffffffffffffffffffff60248201526044016105a3565b62015180821015610e59576040517f491a2bb1000000000000000000000000000000000000000000000000000000008152600481018390526201518060248201526044016105a3565b5f610e6483426121a8565b905063ffffffff811115610eb1576040517f7ae596850000000000000000000000000000000000000000000000000000000081526004810182905263ffffffff60248201526044016105a3565b6002546040517f9015d3710000000000000000000000000000000000000000000000000000000081526001600160a01b03888116600483015290911690639015d37190602401602060405180830381865afa158015610f12573d5f803e3d5ffd5b505050506040513d601f19601f82011682018060405250810190610f3691906121bb565b610f77576040517fe3d87c620000000000000000000000000000000000000000000000000000000081526001600160a01b03871660048201526024016105a3565b6001546040517f426e77df000000000000000000000000000000000000000000000000000000008152600481018690526001600160a01b039091169063426e77df906024016020604051808303815f875af1158015610fd8573d5f803e3d5ffd5b505050506040513d601f19601f82011682018060405250810190610ffc91906121bb565b6110b15760015f9054906101000a90046001600160a01b03166001600160a01b0316638fc2b24d6040518163ffffffff1660e01b8152600401602060405180830381865afa158015611050573d5f803e3d5ffd5b505050506040513d601f19601f820116820180604052508101906110749190612100565b6040517f491a2bb10000000000000000000000000000000000000000000000000000000081526004810191909152602481018590526044016105a3565b5f8054604080516080810182526001600160a01b03808a16825263ffffffff88811660208085019182528d84168587019081526bffffffffffffffffffffffff808e166060880190815278010000000000000000000000000000000000000000000000009099048516808b52600590935296909820945185549251909316600160a01b9081027fffffffffffffffff0000000000000000000000000000000000000000000000009093169385169390931791909117845595519451909316909202929091169190911760019182015590925061118e9083906121a8565b5f805463ffffffff929092167801000000000000000000000000000000000000000000000000027fffffffff00000000ffffffffffffffffffffffffffffffffffffffffffffffff909216919091179055604080518581526020810187905290810184905282906001600160a01b038816907f5fd24ab6321cb12fa0b131d7749ca303e20d69422e8191bc5d2ae4959bae08db9060600160405180910390a350949350505050565b5f546001600160a01b03163314611274575f5460405163521eb56d60e11b81523360048201526001600160a01b0390911660248201526044016105a3565b6001600160a01b0381166112b4576040517fd92e233d00000000000000000000000000000000000000000000000000000000815260040160405180910390fd5b5f80547fffffffffffffffffffffffff0000000000000000000000000000000000000000166001600160a01b038316908117825560405190917f4ffd725fc4a22075e9ec71c59edf9c38cdeb588a91b24fc5b61388c5be41282b91a250565b5f8054606091780100000000000000000000000000000000000000000000000090910463ffffffff16908167ffffffffffffffff81111561135657611356611e5d565b60405190808252806020026020018201604052801561137f578160200160208202803683370190505b5090505f805b8381101561143a578580156113be57505f81815260056020526040902060010154600160a01b90046bffffffffffffffffffffffff1615155b806113f55750851580156113f557505f81815260056020526040902060010154600160a01b90046bffffffffffffffffffffffff16155b1561142a57600183828151811061140e5761140e612117565b9115156020928302919091019091015261142782612171565b91505b61143381612171565b9050611385565b508067ffffffffffffffff81111561145457611454611e5d565b60405190808252806020026020018201604052801561147d578160200160208202803683370190505b5093505f805b848110156114e45783818151811061149d5761149d612117565b6020026020010151156114d457808683815181106114bd576114bd612117565b60209081029190910101526114d182612171565b91505b6114dd81612171565b9050611483565b5050505050919050565b5f805f835f0361152a576040517f7c946ed700000000000000000000000000000000000000000000000000000000815260040160405180910390fd5b5f85815260056020526040812060018101549091600160a01b9091046bffffffffffffffffffffffff1690819003611591576040517f4decba84000000000000000000000000000000000000000000000000000000008152600481018890526024016105a3565b81546115aa90600160a01b900463ffffffff16426121a8565b935063ffffffff8411156115f7576040517f7ae596850000000000000000000000000000000000000000000000000000000081526004810185905263ffffffff60248201526044016105a3565b600182015460035483546040517f7e5b0998000000000000000000000000000000000000000000000000000000008152600481018a90526001600160a01b03918216602482015292811692911690637e5b099890604401602060405180830381865afa158015611669573d5f803e3d5ffd5b505050506040513d601f19601f8201168201806040525081019061168d9190612100565b9550818611156116e9576040517f545a90850000000000000000000000000000000000000000000000000000000081526001600160a01b03821660048201526024810189905260448101879052606481018390526084016105a3565b6116f386836121d6565b9150818360010160146101000a8154816bffffffffffffffffffffffff02191690836bffffffffffffffffffffffff1602179055505f60149054906101000a900463ffffffff1663ffffffff1693506040518060800160405280336001600160a01b03168152602001876bffffffffffffffffffffffff1681526020018663ffffffff1681526020018963ffffffff1681525060045f8681526020019081526020015f205f820151815f015f6101000a8154816001600160a01b0302191690836001600160a01b031602179055506020820151815f0160146101000a8154816bffffffffffffffffffffffff02191690836bffffffffffffffffffffffff1602179055506040820151816001015f6101000a81548163ffffffff021916908363ffffffff16021790555060608201518160010160046101000a81548163ffffffff021916908363ffffffff16021790555090505083600161185491906121a8565b5f805463ffffffff92909216600160a01b027fffffffffffffffff00000000ffffffffffffffffffffffffffffffffffffffff9092169190911790556002546040517f1ac17db9000000000000000000000000000000000000000000000000000000008152336004820152602481018990526001600160a01b0383811660448301526064820189905290911690631ac17db9906084015f604051808303815f87803b158015611901575f80fd5b505af1158015611913573d5f803e3d5ffd5b50505050815f0361199f575f8881526005602052604080822080547fffffffffffffffff000000000000000000000000000000000000000000000000168155600101919091555188906001600160a01b038316907f677b70dc7e4a19e6af55f981ac3706886716a25e9c0b978ec0c427f51ce68b18906119969086815260200190565b60405180910390a35b604080518581526020810188905290810188905260608101869052339089906001600160a01b038416907ffa892a5592accfded99f9df9ad2d678230f37aeeb8fde5dd3b73769b5069bc0e9060800160405180910390a45050509250925092565b5f81815260046020526040812054600160a01b90046bffffffffffffffffffffffff16908115611a4657505f8281526004602052604090206001015463ffffffff164210155b915091565b5f805b8251811015611d0a575f60045f858481518110611a6d57611a6d612117565b602002602001015181526020019081526020015f205f0160149054906101000a90046bffffffffffffffffffffffff166bffffffffffffffffffffffff1690505f60045f868581518110611ac357611ac3612117565b60209081029190910181015182528101919091526040015f206001015463ffffffff164210159050811580611af6575080155b15611b4a57848381518110611b0d57611b0d612117565b60200260200101516040517f26c4eabd0000000000000000000000000000000000000000000000000000000081526004016105a391815260200190565b336001600160a01b031660045f878681518110611b6957611b69612117565b60209081029190910181015182528101919091526040015f20546001600160a01b031614611bee573360045f878681518110611ba757611ba7612117565b602090810291909101810151825281019190915260409081015f2054905163521eb56d60e11b81526001600160a01b039283166004820152911660248201526044016105a3565b611bf882856121a8565b93505f60045f878681518110611c1057611c10612117565b602002602001015181526020019081526020015f2060010160049054906101000a900463ffffffff1663ffffffff16905060045f878681518110611c5657611c56612117565b60209081029190910181015182528101919091526040015f90812090815560010180547fffffffffffffffffffffffffffffffffffffffffffffffff00000000000000001690558551339082907f97f4572ff501a5533a09cf8d7d39be87e303470dd8bc7cff4fe91212be76bc7390899088908110611cd757611cd7612117565b6020026020010151604051611cee91815260200190565b60405180910390a350505080611d0390612171565b9050611a4e565b50805f03611d44576040517f7c946ed700000000000000000000000000000000000000000000000000000000815260040160405180910390fd5b6040517fa9059cbb000000000000000000000000000000000000000000000000000000008152336004820152602481018290527f00000000000000000000000000000000000000000000000000000000000000006001600160a01b03169063a9059cbb906044016020604051808303815f875af1158015611dc7573d5f803e3d5ffd5b505050506040513d601f19601f82011682018060405250810190611deb91906121bb565b50919050565b80356001600160a01b0381168114611e07575f80fd5b919050565b5f8060408385031215611e1d575f80fd5b611e2683611df1565b9150611e3460208401611df1565b90509250929050565b5f60208284031215611e4d575f80fd5b611e5682611df1565b9392505050565b7f4e487b71000000000000000000000000000000000000000000000000000000005f52604160045260245ffd5b5f6020808385031215611e9b575f80fd5b823567ffffffffffffffff80821115611eb2575f80fd5b818501915085601f830112611ec5575f80fd5b813581811115611ed757611ed7611e5d565b8060051b6040517fffffffffffffffffffffffffffffffffffffffffffffffffffffffffffffffe0603f83011681018181108582111715611f1a57611f1a611e5d565b604052918252848201925083810185019188831115611f37575f80fd5b938501935b82851015611f5557843584529385019392850192611f3c565b98975050505050505050565b5f8151808452602080850194508084015f5b83811015611f8f57815187529582019590820190600101611f73565b509495945050505050565b602081525f611e566020830184611f61565b8015158114610738575f80fd5b5f8060408385031215611fca575f80fd5b611fd383611df1565b91506020830135611fe381611fac565b809150509250929050565b604081525f6120006040830185611f61565b90508260208301529392505050565b5f805f8060808587031215612022575f80fd5b61202b85611df1565b966020860135965060408601359560600135945092505050565b5f60208284031215612055575f80fd5b8135611e5681611fac565b5f8060408385031215612071575f80fd5b50508035926020909101359150565b5f60208284031215612090575f80fd5b5035919050565b5f6020808352835180828501525f5b818110156120c2578581018301518582016040015282016120a6565b505f6040828601015260407fffffffffffffffffffffffffffffffffffffffffffffffffffffffffffffffe0601f8301168501019250505092915050565b5f60208284031215612110575f80fd5b5051919050565b7f4e487b71000000000000000000000000000000000000000000000000000000005f52603260045260245ffd5b7f4e487b71000000000000000000000000000000000000000000000000000000005f52601160045260245ffd5b5f7fffffffffffffffffffffffffffffffffffffffffffffffffffffffffffffffff82036121a1576121a1612144565b5060010190565b808201808211156107c0576107c0612144565b5f602082840312156121cb575f80fd5b8151611e5681611fac565b818103818111156107c0576107c061214456fea2646970667358221220fadf1cd51bf146cccb0dfd9b2828941b27248fba457289120615e40ee3896b0364736f6c63430008140033",
  "linkReferences": {},
  "deployedLinkReferences": {}
}