{
  "_format": "hh-sol-artifact-1",
  "contractName": "Depository",
  "sourceName": "contracts/Depository.sol",
  "abi": [
    {
      "inputs": [
        {
          "internalType": "address",
          "name": "_olas",
          "type": "address"
        },
        {
          "internalType": "address",
          "name": "_tokenomics",
          "type": "address"
        },
        {
          "internalType": "address",
          "name": "_treasury",
          "type": "address"
        },
        {
          "internalType": "address",
          "name": "_bondCalculator",
          "type": "address"
        }
      ],
      "stateMutability": "nonpayable",
      "type": "constructor"
    },
    {
      "inputs": [],
      "name": "AlreadyInitialized",
      "type": "error"
    },
    {
      "inputs": [
        {
          "internalType": "uint256",
          "name": "bondId",
          "type": "uint256"
        }
      ],
      "name": "BondNotRedeemable",
      "type": "error"
    },
    {
      "inputs": [
        {
          "internalType": "address",
          "name": "account",
          "type": "address"
        },
        {
          "internalType": "uint256",
          "name": "reward",
          "type": "uint256"
        },
        {
          "internalType": "uint256",
          "name": "topUp",
          "type": "uint256"
        }
      ],
      "name": "ClaimIncentivesFailed",
      "type": "error"
    },
    {
      "inputs": [],
      "name": "DelegatecallOnly",
      "type": "error"
    },
    {
      "inputs": [
        {
          "internalType": "address",
          "name": "account",
          "type": "address"
        }
      ],
      "name": "DonatorBlacklisted",
      "type": "error"
    },
    {
      "inputs": [
        {
          "internalType": "uint256",
          "name": "provided",
          "type": "uint256"
        },
        {
          "internalType": "uint256",
          "name": "expected",
          "type": "uint256"
        }
      ],
      "name": "InsufficientAllowance",
      "type": "error"
    },
    {
      "inputs": [
        {
          "internalType": "uint256",
          "name": "provided",
          "type": "uint256"
        },
        {
          "internalType": "uint256",
          "name": "expected",
          "type": "uint256"
        }
      ],
      "name": "LowerThan",
      "type": "error"
    },
    {
      "inputs": [
        {
          "internalType": "address",
          "name": "sender",
          "type": "address"
        },
        {
          "internalType": "address",
          "name": "manager",
          "type": "address"
        }
      ],
      "name": "ManagerOnly",
      "type": "error"
    },
    {
      "inputs": [],
      "name": "NonZeroValue",
      "type": "error"
    },
    {
      "inputs": [
        {
          "internalType": "uint256",
          "name": "provided",
          "type": "uint256"
        },
        {
          "internalType": "uint256",
          "name": "max",
          "type": "uint256"
        }
      ],
      "name": "Overflow",
      "type": "error"
    },
    {
      "inputs": [
        {
          "internalType": "address",
          "name": "sender",
          "type": "address"
        },
        {
          "internalType": "address",
          "name": "owner",
          "type": "address"
        }
      ],
      "name": "OwnerOnly",
      "type": "error"
    },
    {
      "inputs": [],
      "name": "Paused",
      "type": "error"
    },
    {
      "inputs": [
        {
          "internalType": "uint256",
          "name": "productId",
          "type": "uint256"
        }
      ],
      "name": "ProductClosed",
      "type": "error"
    },
    {
      "inputs": [
        {
          "internalType": "address",
          "name": "tokenAddress",
          "type": "address"
        },
        {
          "internalType": "uint256",
          "name": "productId",
          "type": "uint256"
        },
        {
          "internalType": "uint256",
          "name": "deadline",
          "type": "uint256"
        },
        {
          "internalType": "uint256",
          "name": "curTime",
          "type": "uint256"
        }
      ],
      "name": "ProductExpired",
      "type": "error"
    },
    {
      "inputs": [
        {
          "internalType": "address",
          "name": "tokenAddress",
          "type": "address"
        },
        {
          "internalType": "uint256",
          "name": "productId",
          "type": "uint256"
        },
        {
          "internalType": "uint256",
          "name": "requested",
          "type": "uint256"
        },
        {
          "internalType": "uint256",
          "name": "actual",
          "type": "uint256"
        }
      ],
      "name": "ProductSupplyLow",
      "type": "error"
    },
    {
      "inputs": [],
      "name": "ReentrancyGuard",
      "type": "error"
    },
    {
      "inputs": [],
      "name": "SameBlockNumberViolation",
      "type": "error"
    },
    {
      "inputs": [
        {
          "internalType": "uint256",
          "name": "serviceId",
          "type": "uint256"
        }
      ],
      "name": "ServiceDoesNotExist",
      "type": "error"
    },
    {
      "inputs": [
        {
          "internalType": "uint256",
          "name": "serviceId",
          "type": "uint256"
        }
      ],
      "name": "ServiceNeverDeployed",
      "type": "error"
    },
    {
      "inputs": [
        {
          "internalType": "address",
          "name": "token",
          "type": "address"
        },
        {
          "internalType": "address",
          "name": "from",
          "type": "address"
        },
        {
          "internalType": "address",
          "name": "to",
          "type": "address"
        },
        {
          "internalType": "uint256",
          "name": "amount",
          "type": "uint256"
        }
      ],
      "name": "TransferFailed",
      "type": "error"
    },
    {
      "inputs": [
        {
          "internalType": "uint256",
          "name": "epochNumber",
          "type": "uint256"
        }
      ],
      "name": "TreasuryRebalanceFailed",
      "type": "error"
    },
    {
      "inputs": [
        {
          "internalType": "address",
          "name": "tokenAddress",
          "type": "address"
        }
      ],
      "name": "UnauthorizedToken",
      "type": "error"
    },
    {
      "inputs": [
        {
          "internalType": "uint256",
          "name": "provided",
          "type": "uint256"
        },
        {
          "internalType": "uint256",
          "name": "expected",
          "type": "uint256"
        }
      ],
      "name": "WrongAmount",
      "type": "error"
    },
    {
      "inputs": [
        {
          "internalType": "uint256",
          "name": "numValues1",
          "type": "uint256"
        },
        {
          "internalType": "uint256",
          "name": "numValues2",
          "type": "uint256"
        }
      ],
      "name": "WrongArrayLength",
      "type": "error"
    },
    {
      "inputs": [
        {
          "internalType": "address",
          "name": "provided",
          "type": "address"
        },
        {
          "internalType": "address",
          "name": "expected",
          "type": "address"
        }
      ],
      "name": "WrongTokenAddress",
      "type": "error"
    },
    {
      "inputs": [
        {
          "internalType": "uint256",
          "name": "unitId",
          "type": "uint256"
        },
        {
          "internalType": "uint256",
          "name": "unitType",
          "type": "uint256"
        }
      ],
      "name": "WrongUnitId",
      "type": "error"
    },
    {
      "inputs": [],
      "name": "ZeroAddress",
      "type": "error"
    },
    {
      "inputs": [],
      "name": "ZeroValue",
      "type": "error"
    },
    {
      "anonymous": false,
      "inputs": [
        {
          "indexed": true,
          "internalType": "address",
          "name": "_bondCalculator",
          "type": "address"
        }
      ],
      "name": "BondCalculatorUpdated",
      "type": "event"
    },
    {
      "anonymous": false,
      "inputs": [
        {
          "indexed": true,
          "internalType": "address",
          "name": "token",
          "type": "address"
        },
        {
          "indexed": true,
          "internalType": "uint256",
          "name": "productId",
          "type": "uint256"
        },
        {
          "indexed": false,
          "internalType": "uint256",
          "name": "supply",
          "type": "uint256"
        }
      ],
      "name": "CloseProduct",
      "type": "event"
    },
    {
      "anonymous": false,
      "inputs": [
        {
          "indexed": true,
          "internalType": "address",
          "name": "token",
          "type": "address"
        },
        {
          "indexed": true,
          "internalType": "uint256",
          "name": "productId",
          "type": "uint256"
        },
        {
          "indexed": true,
          "internalType": "address",
          "name": "owner",
          "type": "address"
        },
        {
          "indexed": false,
          "internalType": "uint256",
          "name": "bondId",
          "type": "uint256"
        },
        {
          "indexed": false,
          "internalType": "uint256",
          "name": "amountOLAS",
          "type": "uint256"
        },
        {
          "indexed": false,
          "internalType": "uint256",
          "name": "tokenAmount",
          "type": "uint256"
        },
        {
          "indexed": false,
          "internalType": "uint256",
          "name": "maturity",
          "type": "uint256"
        }
      ],
      "name": "CreateBond",
      "type": "event"
    },
    {
      "anonymous": false,
      "inputs": [
        {
          "indexed": true,
          "internalType": "address",
          "name": "token",
          "type": "address"
        },
        {
          "indexed": true,
          "internalType": "uint256",
          "name": "productId",
          "type": "uint256"
        },
        {
          "indexed": false,
          "internalType": "uint256",
          "name": "supply",
          "type": "uint256"
        },
        {
          "indexed": false,
          "internalType": "uint256",
          "name": "priceLP",
          "type": "uint256"
        },
        {
          "indexed": false,
          "internalType": "uint256",
          "name": "vesting",
          "type": "uint256"
        }
      ],
      "name": "CreateProduct",
      "type": "event"
    },
    {
      "anonymous": false,
      "inputs": [
        {
          "indexed": true,
          "internalType": "address",
          "name": "owner",
          "type": "address"
        }
      ],
      "name": "OwnerUpdated",
      "type": "event"
    },
    {
      "anonymous": false,
      "inputs": [
        {
          "indexed": true,
          "internalType": "uint256",
          "name": "productId",
          "type": "uint256"
        },
        {
          "indexed": true,
          "internalType": "address",
          "name": "owner",
          "type": "address"
        },
        {
          "indexed": false,
          "internalType": "uint256",
          "name": "bondId",
          "type": "uint256"
        }
      ],
      "name": "RedeemBond",
      "type": "event"
    },
    {
      "anonymous": false,
      "inputs": [
        {
          "indexed": true,
          "internalType": "address",
          "name": "tokenomics",
          "type": "address"
        }
      ],
      "name": "TokenomicsUpdated",
      "type": "event"
    },
    {
      "anonymous": false,
      "inputs": [
        {
          "indexed": true,
          "internalType": "address",
          "name": "treasury",
          "type": "address"
        }
      ],
      "name": "TreasuryUpdated",
      "type": "event"
    },
    {
      "inputs": [],
      "name": "MIN_VESTING",
      "outputs": [
        {
          "internalType": "uint256",
          "name": "",
          "type": "uint256"
        }
      ],
      "stateMutability": "view",
      "type": "function"
    },
    {
      "inputs": [],
      "name": "bondCalculator",
      "outputs": [
        {
          "internalType": "address",
          "name": "",
          "type": "address"
        }
      ],
      "stateMutability": "view",
      "type": "function"
    },
    {
      "inputs": [],
      "name": "bondCounter",
      "outputs": [
        {
          "internalType": "uint32",
          "name": "",
          "type": "uint32"
        }
      ],
      "stateMutability": "view",
      "type": "function"
    },
    {
      "inputs": [
        {
          "internalType": "address",
          "name": "_bondCalculator",
          "type": "address"
        }
      ],
      "name": "changeBondCalculator",
      "outputs": [],
      "stateMutability": "nonpayable",
      "type": "function"
    },
    {
      "inputs": [
        {
          "internalType": "address",
          "name": "_tokenomics",
          "type": "address"
        },
        {
          "internalType": "address",
          "name": "_treasury",
          "type": "address"
        }
      ],
      "name": "changeManagers",
      "outputs": [],
      "stateMutability": "nonpayable",
      "type": "function"
    },
    {
      "inputs": [
        {
          "internalType": "address",
          "name": "newOwner",
          "type": "address"
        }
      ],
      "name": "changeOwner",
      "outputs": [],
      "stateMutability": "nonpayable",
      "type": "function"
    },
    {
      "inputs": [
        {
          "internalType": "uint256[]",
          "name": "productIds",
          "type": "uint256[]"
        }
      ],
      "name": "close",
      "outputs": [
        {
          "internalType": "uint256[]",
          "name": "closedProductIds",
          "type": "uint256[]"
        }
      ],
      "stateMutability": "nonpayable",
      "type": "function"
    },
    {
      "inputs": [
        {
          "internalType": "address",
          "name": "token",
          "type": "address"
        },
        {
          "internalType": "uint256",
          "name": "priceLP",
          "type": "uint256"
        },
        {
          "internalType": "uint256",
          "name": "supply",
          "type": "uint256"
        },
        {
          "internalType": "uint256",
          "name": "vesting",
          "type": "uint256"
        }
      ],
      "name": "create",
      "outputs": [
        {
          "internalType": "uint256",
          "name": "productId",
          "type": "uint256"
        }
      ],
      "stateMutability": "nonpayable",
      "type": "function"
    },
    {
      "inputs": [
        {
          "internalType": "uint256",
          "name": "productId",
          "type": "uint256"
        },
        {
          "internalType": "uint256",
          "name": "tokenAmount",
          "type": "uint256"
        }
      ],
      "name": "deposit",
      "outputs": [
        {
          "internalType": "uint256",
          "name": "payout",
          "type": "uint256"
        },
        {
          "internalType": "uint256",
          "name": "maturity",
          "type": "uint256"
        },
        {
          "internalType": "uint256",
          "name": "bondId",
          "type": "uint256"
        }
      ],
      "stateMutability": "nonpayable",
      "type": "function"
    },
    {
      "inputs": [
        {
          "internalType": "uint256",
          "name": "bondId",
          "type": "uint256"
        }
      ],
      "name": "getBondStatus",
      "outputs": [
        {
          "internalType": "uint256",
          "name": "payout",
          "type": "uint256"
        },
        {
          "internalType": "bool",
          "name": "matured",
          "type": "bool"
        }
      ],
      "stateMutability": "view",
      "type": "function"
    },
    {
      "inputs": [
        {
          "internalType": "address",
          "name": "account",
          "type": "address"
        },
        {
          "internalType": "bool",
          "name": "matured",
          "type": "bool"
        }
      ],
      "name": "getBonds",
      "outputs": [
        {
          "internalType": "uint256[]",
          "name": "bondIds",
          "type": "uint256[]"
        },
        {
          "internalType": "uint256",
          "name": "payout",
          "type": "uint256"
        }
      ],
      "stateMutability": "view",
      "type": "function"
    },
    {
      "inputs": [
        {
          "internalType": "address",
          "name": "token",
          "type": "address"
        }
      ],
      "name": "getCurrentPriceLP",
      "outputs": [
        {
          "internalType": "uint256",
          "name": "priceLP",
          "type": "uint256"
        }
      ],
      "stateMutability": "view",
      "type": "function"
    },
    {
      "inputs": [
        {
          "internalType": "bool",
          "name": "active",
          "type": "bool"
        }
      ],
      "name": "getProducts",
      "outputs": [
        {
          "internalType": "uint256[]",
          "name": "productIds",
          "type": "uint256[]"
        }
      ],
      "stateMutability": "view",
      "type": "function"
    },
    {
      "inputs": [
        {
          "internalType": "uint256",
          "name": "productId",
          "type": "uint256"
        }
      ],
      "name": "isActiveProduct",
      "outputs": [
        {
          "internalType": "bool",
          "name": "status",
          "type": "bool"
        }
      ],
      "stateMutability": "view",
      "type": "function"
    },
    {
      "inputs": [
        {
          "internalType": "uint256",
          "name": "",
          "type": "uint256"
        }
      ],
      "name": "mapBondProducts",
      "outputs": [
        {
          "internalType": "uint160",
          "name": "priceLP",
          "type": "uint160"
        },
        {
          "internalType": "uint32",
          "name": "vesting",
          "type": "uint32"
        },
        {
          "internalType": "address",
          "name": "token",
          "type": "address"
        },
        {
          "internalType": "uint96",
          "name": "supply",
          "type": "uint96"
        }
      ],
      "stateMutability": "view",
      "type": "function"
    },
    {
      "inputs": [
        {
          "internalType": "uint256",
          "name": "",
          "type": "uint256"
        }
      ],
      "name": "mapUserBonds",
      "outputs": [
        {
          "internalType": "address",
          "name": "account",
          "type": "address"
        },
        {
          "internalType": "uint96",
          "name": "payout",
          "type": "uint96"
        },
        {
          "internalType": "uint32",
          "name": "maturity",
          "type": "uint32"
        },
        {
          "internalType": "uint32",
          "name": "productId",
          "type": "uint32"
        }
      ],
      "stateMutability": "view",
      "type": "function"
    },
    {
      "inputs": [],
      "name": "olas",
      "outputs": [
        {
          "internalType": "address",
          "name": "",
          "type": "address"
        }
      ],
      "stateMutability": "view",
      "type": "function"
    },
    {
      "inputs": [],
      "name": "owner",
      "outputs": [
        {
          "internalType": "address",
          "name": "",
          "type": "address"
        }
      ],
      "stateMutability": "view",
      "type": "function"
    },
    {
      "inputs": [],
      "name": "productCounter",
      "outputs": [
        {
          "internalType": "uint32",
          "name": "",
          "type": "uint32"
        }
      ],
      "stateMutability": "view",
      "type": "function"
    },
    {
      "inputs": [
        {
          "internalType": "uint256[]",
          "name": "bondIds",
          "type": "uint256[]"
        }
      ],
      "name": "redeem",
      "outputs": [
        {
          "internalType": "uint256",
          "name": "payout",
          "type": "uint256"
        }
      ],
      "stateMutability": "nonpayable",
      "type": "function"
    },
    {
      "inputs": [],
      "name": "tokenomics",
      "outputs": [
        {
          "internalType": "address",
          "name": "",
          "type": "address"
        }
      ],
      "stateMutability": "view",
      "type": "function"
    },
    {
      "inputs": [],
      "name": "treasury",
      "outputs": [
        {
          "internalType": "address",
          "name": "",
          "type": "address"
        }
      ],
      "stateMutability": "view",
      "type": "function"
    }
  ],
  "bytecode": "0x608060405234801562000010575f80fd5b50604051620022f3380380620022f3833981016040819052620000339162000117565b5f80546001600160a01b031916331790556001600160a01b03841615806200006257506001600160a01b038316155b806200007557506001600160a01b038216155b806200008857506001600160a01b038116155b15620000a75760405163d92e233d60e01b815260040160405180910390fd5b600180546001600160a01b039586166001600160a01b031991821617909155600280549486169482169490941790935560038054928516928416929092179091556004805491909316911617905562000171565b80516001600160a01b038116811462000112575f80fd5b919050565b5f805f80608085870312156200012b575f80fd5b6200013685620000fb565b93506200014660208601620000fb565b92506200015660408601620000fb565b91506200016660608601620000fb565b905092959194509250565b612174806200017f5f395ff3fe608060405234801561000f575f80fd5b5060043610610178575f3560e01c80638c71ec16116100d2578063e2bbb15811610088578063f731960c11610063578063f731960c14610409578063f9afb26a14610452578063fc63e42d14610465575f80fd5b8063e2bbb1581461031a578063e42f991914610348578063e91b0a41146103e1575f80fd5b8063a6f9dae1116100b8578063a6f9dae1146102e1578063c5332b7c146102f4578063ce2d683f14610307575f80fd5b80638c71ec16146102bc5780638da5cb5b146102cf575f80fd5b80634ac7251d116101325780635b400e4f1161010d5780635b400e4f1461027e57806361d027b31461029f57806363e63e3b146102b2575f80fd5b80634ac7251d146102355780635831d8851461024857806358d3ec6a1461025e575f80fd5b8063158555371161016257806315855537146101c15780631f16653b146101d457806324415cf614610214575f80fd5b806231d1151461017c5780630c062810146101ac575b5f80fd5b60015461018f906001600160a01b031681565b6040516001600160a01b0390911681526020015b60405180910390f35b6101bf6101ba366004611dca565b610501565b005b6101bf6101cf366004611dfb565b610624565b5f546101ff907801000000000000000000000000000000000000000000000000900463ffffffff1681565b60405163ffffffff90911681526020016101a3565b610227610222366004611dfb565b6106d3565b6040519081526020016101a3565b60025461018f906001600160a01b031681565b5f546101ff90600160a01b900463ffffffff1681565b61027161026c366004611e48565b610763565b6040516101a39190611f58565b61029161028c366004611f77565b610a58565b6040516101a3929190611fac565b60035461018f906001600160a01b031681565b6102276201518081565b6102276102ca366004611fcd565b610c6d565b5f5461018f906001600160a01b031681565b6101bf6102ef366004611dfb565b6111f0565b60045461018f906001600160a01b031681565b610271610315366004612003565b6112cd565b61032d61032836600461201e565b6114a2565b604080519384526020840192909252908201526060016101a3565b61039d61035636600461203e565b60066020525f9081526040902080546001909101546001600160a01b0380831692600160a01b9081900463ffffffff169291821691046bffffffffffffffffffffffff1684565b604080516001600160a01b03958616815263ffffffff94909416602085015291909316908201526bffffffffffffffffffffffff90911660608201526080016101a3565b6103f46103ef36600461203e565b6119d8565b604080519283529015156020830152016101a3565b61044261041736600461203e565b5f90815260066020526040902060010154600160a01b90046bffffffffffffffffffffffff16151590565b60405190151581526020016101a3565b610227610460366004611e48565b611a23565b6104be61047336600461203e565b60056020525f9081526040902080546001909101546001600160a01b03821691600160a01b90046bffffffffffffffffffffffff169063ffffffff8082169164010000000090041684565b604080516001600160a01b0390951685526bffffffffffffffffffffffff909316602085015263ffffffff918216928401929092521660608201526080016101a3565b5f546001600160a01b03163314610544575f5460405163521eb56d60e11b81523360048201526001600160a01b0390911660248201526044015b60405180910390fd5b6001600160a01b038216156105b257600280547fffffffffffffffffffffffff0000000000000000000000000000000000000000166001600160a01b0384169081179091556040517f4672fe7e13cfb163442d0b729b5733fb3efafc66cbe3677eac9940eb41c284c2905f90a25b6001600160a01b0381161561062057600380547fffffffffffffffffffffffff0000000000000000000000000000000000000000166001600160a01b0383169081179091556040517f7dae230f18360d76a040c81f050aa14eb9d6dc7901b20fc5d855e2a20fe814d1905f90a25b5050565b5f546001600160a01b03163314610662575f5460405163521eb56d60e11b81523360048201526001600160a01b03909116602482015260440161053b565b6001600160a01b038116156106d057600480547fffffffffffffffffffffffff0000000000000000000000000000000000000000166001600160a01b0383169081179091556040517f179276fedd32be7c465135f8e074aefcd470c855d2550f83a36a45bfbaa61ea5905f90a25b50565b600480546040517f24415cf60000000000000000000000000000000000000000000000000000000081526001600160a01b03848116938201939093525f92909116906324415cf690602401602060405180830381865afa158015610739573d5f803e3d5ffd5b505050506040513d601f19601f8201168201806040525081019061075d9190612055565b92915050565b5f546060906001600160a01b031633146107a4575f5460405163521eb56d60e11b81523360048201526001600160a01b03909116602482015260440161053b565b81515f8167ffffffffffffffff8111156107c0576107c0611e1b565b6040519080825280602002602001820160405280156107e9578160200160208202803683370190505b5090505f805b8381101561098b575f86828151811061080a5761080a61206c565b6020908102919091018101515f8181526006909252604090912060010154909150600160a01b90046bffffffffffffffffffffffff168015610978576002546040517f7048960c000000000000000000000000000000000000000000000000000000008152600481018390526001600160a01b0390911690637048960c906024015f604051808303815f87803b1580156108a2575f80fd5b505af11580156108b4573d5f803e3d5ffd5b5050505f8381526006602052604081206001808201805483547fffffffffffffffff000000000000000000000000000000000000000000000000169093559290925587516001600160a01b0390911692508790869081106109175761091761206c565b91151560209283029190910190910152610930856120c6565b945082816001600160a01b03167f677b70dc7e4a19e6af55f981ac3706886716a25e9c0b978ec0c427f51ce68b188460405161096e91815260200190565b60405180910390a3505b505080610984906120c6565b90506107ef565b508067ffffffffffffffff8111156109a5576109a5611e1b565b6040519080825280602002602001820160405280156109ce578160200160208202803683370190505b5093505f805b84811015610a4e578381815181106109ee576109ee61206c565b602002602001015115610a3e57868181518110610a0d57610a0d61206c565b6020026020010151868381518110610a2757610a2761206c565b6020908102919091010152610a3b826120c6565b91505b610a47816120c6565b90506109d4565b5050505050919050565b60605f6001600160a01b038416610a9b576040517fd92e233d00000000000000000000000000000000000000000000000000000000815260040160405180910390fd5b5f8054600160a01b900463ffffffff16818167ffffffffffffffff811115610ac557610ac5611e1b565b604051908082528060200260200182016040528015610aee578160200160208202803683370190505b5090505f5b82811015610bb5575f818152600560205260409020546001600160a01b03808a16911603610ba357861580610b3e57505f8181526005602052604090206001015463ffffffff164210155b15610ba3576001828281518110610b5757610b5761206c565b91151560209283029190910190910152610b70846120c6565b5f82815260056020526040902054909450610ba090600160a01b90046bffffffffffffffffffffffff16866120fd565b94505b80610bad816120c6565b915050610af3565b508267ffffffffffffffff811115610bcf57610bcf611e1b565b604051908082528060200260200182016040528015610bf8578160200160208202803683370190505b5094505f805b83811015610c6157828181518110610c1857610c1861206c565b602002602001015115610c4f5780878381518110610c3857610c3861206c565b6020908102919091010152610c4c826120c6565b91505b80610c59816120c6565b915050610bfe565b50505050509250929050565b5f80546001600160a01b03163314610cac575f5460405163521eb56d60e11b81523360048201526001600160a01b03909116602482015260440161053b565b835f03610ce5576040517f7c946ed700000000000000000000000000000000000000000000000000000000815260040160405180910390fd5b6001600160a01b03841115610d36576040517f7ae59685000000000000000000000000000000000000000000000000000000008152600481018590526001600160a01b03602482015260440161053b565b825f03610d6f576040517f7c946ed700000000000000000000000000000000000000000000000000000000815260040160405180910390fd5b6bffffffffffffffffffffffff831115610dca576040517f7ae59685000000000000000000000000000000000000000000000000000000008152600481018490526bffffffffffffffffffffffff602482015260440161053b565b62015180821015610e13576040517f491a2bb10000000000000000000000000000000000000000000000000000000081526004810183905262015180602482015260440161053b565b5f610e1e83426120fd565b905063ffffffff811115610e6b576040517f7ae596850000000000000000000000000000000000000000000000000000000081526004810182905263ffffffff602482015260440161053b565b6003546040517f9015d3710000000000000000000000000000000000000000000000000000000081526001600160a01b03888116600483015290911690639015d37190602401602060405180830381865afa158015610ecc573d5f803e3d5ffd5b505050506040513d601f19601f82011682018060405250810190610ef09190612110565b610f31576040517fe3d87c620000000000000000000000000000000000000000000000000000000081526001600160a01b038716600482015260240161053b565b6002546040517f426e77df000000000000000000000000000000000000000000000000000000008152600481018690526001600160a01b039091169063426e77df906024016020604051808303815f875af1158015610f92573d5f803e3d5ffd5b505050506040513d601f19601f82011682018060405250810190610fb69190612110565b61106b5760025f9054906101000a90046001600160a01b03166001600160a01b0316638fc2b24d6040518163ffffffff1660e01b8152600401602060405180830381865afa15801561100a573d5f803e3d5ffd5b505050506040513d601f19601f8201168201806040525081019061102e9190612055565b6040517f491a2bb100000000000000000000000000000000000000000000000000000000815260048101919091526024810185905260440161053b565b5f8054604080516080810182526001600160a01b03808a16825263ffffffff88811660208085019182528d84168587019081526bffffffffffffffffffffffff808e166060880190815278010000000000000000000000000000000000000000000000009099048516808b52600690935296909820945185549251909316600160a01b9081027fffffffffffffffff000000000000000000000000000000000000000000000000909316938516939093179190911784559551945190931690920292909116919091176001918201559092506111489083906120fd565b5f805463ffffffff929092167801000000000000000000000000000000000000000000000000027fffffffff00000000ffffffffffffffffffffffffffffffffffffffffffffffff909216919091179055604080518581526020810187905290810184905282906001600160a01b038816907f5fd24ab6321cb12fa0b131d7749ca303e20d69422e8191bc5d2ae4959bae08db9060600160405180910390a350949350505050565b5f546001600160a01b0316331461122e575f5460405163521eb56d60e11b81523360048201526001600160a01b03909116602482015260440161053b565b6001600160a01b03811661126e576040517fd92e233d00000000000000000000000000000000000000000000000000000000815260040160405180910390fd5b5f80547fffffffffffffffffffffffff0000000000000000000000000000000000000000166001600160a01b038316908117825560405190917f4ffd725fc4a22075e9ec71c59edf9c38cdeb588a91b24fc5b61388c5be41282b91a250565b5f8054606091780100000000000000000000000000000000000000000000000090910463ffffffff16908167ffffffffffffffff81111561131057611310611e1b565b604051908082528060200260200182016040528015611339578160200160208202803683370190505b5090505f805b838110156113f65785801561137857505f81815260066020526040902060010154600160a01b90046bffffffffffffffffffffffff1615155b806113af5750851580156113af57505f81815260066020526040902060010154600160a01b90046bffffffffffffffffffffffff16155b156113e45760018382815181106113c8576113c861206c565b911515602092830291909101909101526113e1826120c6565b91505b806113ee816120c6565b91505061133f565b508067ffffffffffffffff81111561141057611410611e1b565b604051908082528060200260200182016040528015611439578160200160208202803683370190505b5093505f805b84811015610a4e578381815181106114595761145961206c565b60200260200101511561149057808683815181106114795761147961206c565b602090810291909101015261148d826120c6565b91505b8061149a816120c6565b91505061143f565b5f805f835f036114de576040517f7c946ed700000000000000000000000000000000000000000000000000000000815260040160405180910390fd5b5f8581526006602052604081206001810154815491926001600160a01b0390911691600160a01b900463ffffffff1690819003611566576040517f981ef42f0000000000000000000000000000000000000000000000000000000081526001600160a01b0383166004820152602481018990526044810182905242606482015260840161053b565b61157042826120fd565b945063ffffffff8511156115bd576040517f7ae596850000000000000000000000000000000000000000000000000000000081526004810186905263ffffffff602482015260440161053b565b6004805484546040517f7e5b09980000000000000000000000000000000000000000000000000000000081529283018a90526001600160a01b0390811660248401521690637e5b099890604401602060405180830381865afa158015611625573d5f803e3d5ffd5b505050506040513d601f19601f820116820180604052508101906116499190612055565b6001840154909650600160a01b90046bffffffffffffffffffffffff16808711156116c0576040517f545a90850000000000000000000000000000000000000000000000000000000081526001600160a01b0384166004820152602481018a9052604481018890526064810182905260840161053b565b6116ca878261212b565b9050808460010160146101000a8154816bffffffffffffffffffffffff02191690836bffffffffffffffffffffffff1602179055505f60149054906101000a900463ffffffff1663ffffffff1694506040518060800160405280336001600160a01b03168152602001886bffffffffffffffffffffffff1681526020018763ffffffff1681526020018a63ffffffff1681525060055f8781526020019081526020015f205f820151815f015f6101000a8154816001600160a01b0302191690836001600160a01b031602179055506020820151815f0160146101000a8154816bffffffffffffffffffffffff02191690836bffffffffffffffffffffffff1602179055506040820151816001015f6101000a81548163ffffffff021916908363ffffffff16021790555060608201518160010160046101000a81548163ffffffff021916908363ffffffff16021790555090505084600161182b91906120fd565b5f805463ffffffff92909216600160a01b027fffffffffffffffff00000000ffffffffffffffffffffffffffffffffffffffff9092169190911790556003546040517f1ac17db9000000000000000000000000000000000000000000000000000000008152336004820152602481018a90526001600160a01b038581166044830152606482018a905290911690631ac17db9906084015f604051808303815f87803b1580156118d8575f80fd5b505af11580156118ea573d5f803e3d5ffd5b50505050805f03611976575f8981526006602052604080822080547fffffffffffffffff000000000000000000000000000000000000000000000000168155600101919091555189906001600160a01b038516907f677b70dc7e4a19e6af55f981ac3706886716a25e9c0b978ec0c427f51ce68b189061196d9085815260200190565b60405180910390a35b60408051868152602081018990529081018990526060810187905233908a906001600160a01b038616907ffa892a5592accfded99f9df9ad2d678230f37aeeb8fde5dd3b73769b5069bc0e9060800160405180910390a4505050509250925092565b5f81815260056020526040812054600160a01b90046bffffffffffffffffffffffff16908115611a1e57505f8281526005602052604090206001015463ffffffff164210155b915091565b5f805b8251811015611ce4575f60055f858481518110611a4557611a4561206c565b602002602001015181526020019081526020015f205f0160149054906101000a90046bffffffffffffffffffffffff166bffffffffffffffffffffffff1690505f60055f868581518110611a9b57611a9b61206c565b60209081029190910181015182528101919091526040015f206001015463ffffffff164210159050811580611ace575080155b15611b2257848381518110611ae557611ae561206c565b60200260200101516040517f26c4eabd00000000000000000000000000000000000000000000000000000000815260040161053b91815260200190565b336001600160a01b031660055f878681518110611b4157611b4161206c565b60209081029190910181015182528101919091526040015f20546001600160a01b031614611bc6573360055f878681518110611b7f57611b7f61206c565b602090810291909101810151825281019190915260409081015f2054905163521eb56d60e11b81526001600160a01b0392831660048201529116602482015260440161053b565b611bd082856120fd565b93505f60055f878681518110611be857611be861206c565b602002602001015181526020019081526020015f2060010160049054906101000a900463ffffffff1663ffffffff16905060055f878681518110611c2e57611c2e61206c565b60209081029190910181015182528101919091526040015f90812090815560010180547fffffffffffffffffffffffffffffffffffffffffffffffff00000000000000001690558551339082907f97f4572ff501a5533a09cf8d7d39be87e303470dd8bc7cff4fe91212be76bc7390899088908110611caf57611caf61206c565b6020026020010151604051611cc691815260200190565b60405180910390a35050508080611cdc906120c6565b915050611a26565b50805f03611d1e576040517f7c946ed700000000000000000000000000000000000000000000000000000000815260040160405180910390fd5b6001546040517fa9059cbb000000000000000000000000000000000000000000000000000000008152336004820152602481018390526001600160a01b039091169063a9059cbb906044016020604051808303815f875af1158015611d85573d5f803e3d5ffd5b505050506040513d601f19601f82011682018060405250810190611da99190612110565b50919050565b80356001600160a01b0381168114611dc5575f80fd5b919050565b5f8060408385031215611ddb575f80fd5b611de483611daf565b9150611df260208401611daf565b90509250929050565b5f60208284031215611e0b575f80fd5b611e1482611daf565b9392505050565b7f4e487b71000000000000000000000000000000000000000000000000000000005f52604160045260245ffd5b5f6020808385031215611e59575f80fd5b823567ffffffffffffffff80821115611e70575f80fd5b818501915085601f830112611e83575f80fd5b813581811115611e9557611e95611e1b565b8060051b6040517fffffffffffffffffffffffffffffffffffffffffffffffffffffffffffffffe0603f83011681018181108582111715611ed857611ed8611e1b565b604052918252848201925083810185019188831115611ef5575f80fd5b938501935b82851015611f1357843584529385019392850192611efa565b98975050505050505050565b5f8151808452602080850194508084015f5b83811015611f4d57815187529582019590820190600101611f31565b509495945050505050565b602081525f611e146020830184611f1f565b80151581146106d0575f80fd5b5f8060408385031215611f88575f80fd5b611f9183611daf565b91506020830135611fa181611f6a565b809150509250929050565b604081525f611fbe6040830185611f1f565b90508260208301529392505050565b5f805f8060808587031215611fe0575f80fd5b611fe985611daf565b966020860135965060408601359560600135945092505050565b5f60208284031215612013575f80fd5b8135611e1481611f6a565b5f806040838503121561202f575f80fd5b50508035926020909101359150565b5f6020828403121561204e575f80fd5b5035919050565b5f60208284031215612065575f80fd5b5051919050565b7f4e487b71000000000000000000000000000000000000000000000000000000005f52603260045260245ffd5b7f4e487b71000000000000000000000000000000000000000000000000000000005f52601160045260245ffd5b5f7fffffffffffffffffffffffffffffffffffffffffffffffffffffffffffffffff82036120f6576120f6612099565b5060010190565b8082018082111561075d5761075d612099565b5f60208284031215612120575f80fd5b8151611e1481611f6a565b8181038181111561075d5761075d61209956fea2646970667358221220ecf397fdb32b1bbcd81bbea577c5fa4ec9466b9293e185f620d5c29c94ddf49e64736f6c63430008140033",
  "linkReferences": {},
  "deployedLinkReferences": {}
}