{
  "_format": "hh-sol-artifact-1",
  "contractName": "Depository",
  "sourceName": "contracts/Depository.sol",
  "abi": [
    {
      "inputs": [
        {
          "internalType": "address",
          "name": "_olas",
          "type": "address"
        },
        {
          "internalType": "address",
          "name": "_tokenomics",
          "type": "address"
        },
        {
          "internalType": "address",
          "name": "_treasury",
          "type": "address"
        },
        {
          "internalType": "address",
          "name": "_bondCalculator",
          "type": "address"
        }
      ],
      "stateMutability": "nonpayable",
      "type": "constructor"
    },
    {
      "inputs": [],
      "name": "AlreadyInitialized",
      "type": "error"
    },
    {
      "inputs": [
        {
          "internalType": "uint256",
          "name": "bondId",
          "type": "uint256"
        }
      ],
      "name": "BondNotRedeemable",
      "type": "error"
    },
    {
      "inputs": [
        {
          "internalType": "address",
          "name": "account",
          "type": "address"
        },
        {
          "internalType": "uint256",
          "name": "reward",
          "type": "uint256"
        },
        {
          "internalType": "uint256",
          "name": "topUp",
          "type": "uint256"
        }
      ],
      "name": "ClaimIncentivesFailed",
      "type": "error"
    },
    {
      "inputs": [],
      "name": "DelegatecallOnly",
      "type": "error"
    },
    {
      "inputs": [
        {
          "internalType": "address",
          "name": "account",
          "type": "address"
        }
      ],
      "name": "DonatorBlacklisted",
      "type": "error"
    },
    {
      "inputs": [
        {
          "internalType": "uint256",
          "name": "provided",
          "type": "uint256"
        },
        {
          "internalType": "uint256",
          "name": "expected",
          "type": "uint256"
        }
      ],
      "name": "InsufficientAllowance",
      "type": "error"
    },
    {
      "inputs": [
        {
          "internalType": "uint256",
          "name": "provided",
          "type": "uint256"
        },
        {
          "internalType": "uint256",
          "name": "expected",
          "type": "uint256"
        }
      ],
      "name": "LowerThan",
      "type": "error"
    },
    {
      "inputs": [
        {
          "internalType": "address",
          "name": "sender",
          "type": "address"
        },
        {
          "internalType": "address",
          "name": "manager",
          "type": "address"
        }
      ],
      "name": "ManagerOnly",
      "type": "error"
    },
    {
      "inputs": [],
      "name": "NonZeroValue",
      "type": "error"
    },
    {
      "inputs": [
        {
          "internalType": "uint256",
          "name": "provided",
          "type": "uint256"
        },
        {
          "internalType": "uint256",
          "name": "max",
          "type": "uint256"
        }
      ],
      "name": "Overflow",
      "type": "error"
    },
    {
      "inputs": [
        {
          "internalType": "address",
          "name": "sender",
          "type": "address"
        },
        {
          "internalType": "address",
          "name": "owner",
          "type": "address"
        }
      ],
      "name": "OwnerOnly",
      "type": "error"
    },
    {
      "inputs": [],
      "name": "Paused",
      "type": "error"
    },
    {
      "inputs": [
        {
          "internalType": "uint256",
          "name": "productId",
          "type": "uint256"
        }
      ],
      "name": "ProductClosed",
      "type": "error"
    },
    {
      "inputs": [
        {
          "internalType": "address",
          "name": "tokenAddress",
          "type": "address"
        },
        {
          "internalType": "uint256",
          "name": "productId",
          "type": "uint256"
        },
        {
          "internalType": "uint256",
          "name": "deadline",
          "type": "uint256"
        },
        {
          "internalType": "uint256",
          "name": "curTime",
          "type": "uint256"
        }
      ],
      "name": "ProductExpired",
      "type": "error"
    },
    {
      "inputs": [
        {
          "internalType": "address",
          "name": "tokenAddress",
          "type": "address"
        },
        {
          "internalType": "uint256",
          "name": "productId",
          "type": "uint256"
        },
        {
          "internalType": "uint256",
          "name": "requested",
          "type": "uint256"
        },
        {
          "internalType": "uint256",
          "name": "actual",
          "type": "uint256"
        }
      ],
      "name": "ProductSupplyLow",
      "type": "error"
    },
    {
      "inputs": [],
      "name": "ReentrancyGuard",
      "type": "error"
    },
    {
      "inputs": [],
      "name": "SameBlockNumberViolation",
      "type": "error"
    },
    {
      "inputs": [
        {
          "internalType": "uint256",
          "name": "serviceId",
          "type": "uint256"
        }
      ],
      "name": "ServiceDoesNotExist",
      "type": "error"
    },
    {
      "inputs": [
        {
          "internalType": "uint256",
          "name": "serviceId",
          "type": "uint256"
        }
      ],
      "name": "ServiceNeverDeployed",
      "type": "error"
    },
    {
      "inputs": [
        {
          "internalType": "address",
          "name": "token",
          "type": "address"
        },
        {
          "internalType": "address",
          "name": "from",
          "type": "address"
        },
        {
          "internalType": "address",
          "name": "to",
          "type": "address"
        },
        {
          "internalType": "uint256",
          "name": "amount",
          "type": "uint256"
        }
      ],
      "name": "TransferFailed",
      "type": "error"
    },
    {
      "inputs": [
        {
          "internalType": "uint256",
          "name": "epochNumber",
          "type": "uint256"
        }
      ],
      "name": "TreasuryRebalanceFailed",
      "type": "error"
    },
    {
      "inputs": [
        {
          "internalType": "address",
          "name": "tokenAddress",
          "type": "address"
        }
      ],
      "name": "UnauthorizedToken",
      "type": "error"
    },
    {
      "inputs": [
        {
          "internalType": "uint256",
          "name": "provided",
          "type": "uint256"
        },
        {
          "internalType": "uint256",
          "name": "expected",
          "type": "uint256"
        }
      ],
      "name": "WrongAmount",
      "type": "error"
    },
    {
      "inputs": [
        {
          "internalType": "uint256",
          "name": "numValues1",
          "type": "uint256"
        },
        {
          "internalType": "uint256",
          "name": "numValues2",
          "type": "uint256"
        }
      ],
      "name": "WrongArrayLength",
      "type": "error"
    },
    {
      "inputs": [
        {
          "internalType": "address",
          "name": "provided",
          "type": "address"
        },
        {
          "internalType": "address",
          "name": "expected",
          "type": "address"
        }
      ],
      "name": "WrongTokenAddress",
      "type": "error"
    },
    {
      "inputs": [
        {
          "internalType": "uint256",
          "name": "unitId",
          "type": "uint256"
        },
        {
          "internalType": "uint256",
          "name": "unitType",
          "type": "uint256"
        }
      ],
      "name": "WrongUnitId",
      "type": "error"
    },
    {
      "inputs": [],
      "name": "ZeroAddress",
      "type": "error"
    },
    {
      "inputs": [],
      "name": "ZeroValue",
      "type": "error"
    },
    {
      "anonymous": false,
      "inputs": [
        {
          "indexed": true,
          "internalType": "address",
          "name": "_bondCalculator",
          "type": "address"
        }
      ],
      "name": "BondCalculatorUpdated",
      "type": "event"
    },
    {
      "anonymous": false,
      "inputs": [
        {
          "indexed": true,
          "internalType": "address",
          "name": "token",
          "type": "address"
        },
        {
          "indexed": true,
          "internalType": "uint256",
          "name": "productId",
          "type": "uint256"
        }
      ],
      "name": "CloseProduct",
      "type": "event"
    },
    {
      "anonymous": false,
      "inputs": [
        {
          "indexed": true,
          "internalType": "address",
          "name": "token",
          "type": "address"
        },
        {
          "indexed": true,
          "internalType": "uint256",
          "name": "productId",
          "type": "uint256"
        },
        {
          "indexed": true,
          "internalType": "address",
          "name": "owner",
          "type": "address"
        },
        {
          "indexed": false,
          "internalType": "uint256",
          "name": "bondId",
          "type": "uint256"
        },
        {
          "indexed": false,
          "internalType": "uint256",
          "name": "amountOLAS",
          "type": "uint256"
        },
        {
          "indexed": false,
          "internalType": "uint256",
          "name": "tokenAmount",
          "type": "uint256"
        },
        {
          "indexed": false,
          "internalType": "uint256",
          "name": "expiry",
          "type": "uint256"
        }
      ],
      "name": "CreateBond",
      "type": "event"
    },
    {
      "anonymous": false,
      "inputs": [
        {
          "indexed": true,
          "internalType": "address",
          "name": "token",
          "type": "address"
        },
        {
          "indexed": true,
          "internalType": "uint256",
          "name": "productId",
          "type": "uint256"
        },
        {
          "indexed": false,
          "internalType": "uint256",
          "name": "supply",
          "type": "uint256"
        },
        {
          "indexed": false,
          "internalType": "uint256",
          "name": "priceLP",
          "type": "uint256"
        },
        {
          "indexed": false,
          "internalType": "uint256",
          "name": "expiry",
          "type": "uint256"
        }
      ],
      "name": "CreateProduct",
      "type": "event"
    },
    {
      "anonymous": false,
      "inputs": [
        {
          "indexed": true,
          "internalType": "address",
          "name": "owner",
          "type": "address"
        }
      ],
      "name": "OwnerUpdated",
      "type": "event"
    },
    {
      "anonymous": false,
      "inputs": [
        {
          "indexed": true,
          "internalType": "uint256",
          "name": "productId",
          "type": "uint256"
        },
        {
          "indexed": true,
          "internalType": "address",
          "name": "owner",
          "type": "address"
        },
        {
          "indexed": false,
          "internalType": "uint256",
          "name": "bondId",
          "type": "uint256"
        }
      ],
      "name": "RedeemBond",
      "type": "event"
    },
    {
      "anonymous": false,
      "inputs": [
        {
          "indexed": true,
          "internalType": "address",
          "name": "tokenomics",
          "type": "address"
        }
      ],
      "name": "TokenomicsUpdated",
      "type": "event"
    },
    {
      "anonymous": false,
      "inputs": [
        {
          "indexed": true,
          "internalType": "address",
          "name": "treasury",
          "type": "address"
        }
      ],
      "name": "TreasuryUpdated",
      "type": "event"
    },
    {
      "inputs": [],
      "name": "MIN_VESTING",
      "outputs": [
        {
          "internalType": "uint256",
          "name": "",
          "type": "uint256"
        }
      ],
      "stateMutability": "view",
      "type": "function"
    },
    {
      "inputs": [],
      "name": "bondCalculator",
      "outputs": [
        {
          "internalType": "address",
          "name": "",
          "type": "address"
        }
      ],
      "stateMutability": "view",
      "type": "function"
    },
    {
      "inputs": [],
      "name": "bondCounter",
      "outputs": [
        {
          "internalType": "uint32",
          "name": "",
          "type": "uint32"
        }
      ],
      "stateMutability": "view",
      "type": "function"
    },
    {
      "inputs": [
        {
          "internalType": "address",
          "name": "_bondCalculator",
          "type": "address"
        }
      ],
      "name": "changeBondCalculator",
      "outputs": [],
      "stateMutability": "nonpayable",
      "type": "function"
    },
    {
      "inputs": [
        {
          "internalType": "address",
          "name": "_tokenomics",
          "type": "address"
        },
        {
          "internalType": "address",
          "name": "_treasury",
          "type": "address"
        }
      ],
      "name": "changeManagers",
      "outputs": [],
      "stateMutability": "nonpayable",
      "type": "function"
    },
    {
      "inputs": [
        {
          "internalType": "address",
          "name": "newOwner",
          "type": "address"
        }
      ],
      "name": "changeOwner",
      "outputs": [],
      "stateMutability": "nonpayable",
      "type": "function"
    },
    {
      "inputs": [
        {
          "internalType": "uint256[]",
          "name": "productIds",
          "type": "uint256[]"
        }
      ],
      "name": "close",
      "outputs": [],
      "stateMutability": "nonpayable",
      "type": "function"
    },
    {
      "inputs": [
        {
          "internalType": "address",
          "name": "token",
          "type": "address"
        },
        {
          "internalType": "uint256",
          "name": "priceLP",
          "type": "uint256"
        },
        {
          "internalType": "uint256",
          "name": "supply",
          "type": "uint256"
        },
        {
          "internalType": "uint256",
          "name": "vesting",
          "type": "uint256"
        }
      ],
      "name": "create",
      "outputs": [
        {
          "internalType": "uint256",
          "name": "productId",
          "type": "uint256"
        }
      ],
      "stateMutability": "nonpayable",
      "type": "function"
    },
    {
      "inputs": [
        {
          "internalType": "uint256",
          "name": "productId",
          "type": "uint256"
        },
        {
          "internalType": "uint256",
          "name": "tokenAmount",
          "type": "uint256"
        }
      ],
      "name": "deposit",
      "outputs": [
        {
          "internalType": "uint256",
          "name": "payout",
          "type": "uint256"
        },
        {
          "internalType": "uint256",
          "name": "expiry",
          "type": "uint256"
        },
        {
          "internalType": "uint256",
          "name": "bondId",
          "type": "uint256"
        }
      ],
      "stateMutability": "nonpayable",
      "type": "function"
    },
    {
      "inputs": [
        {
          "internalType": "uint256",
          "name": "bondId",
          "type": "uint256"
        }
      ],
      "name": "getBondStatus",
      "outputs": [
        {
          "internalType": "uint256",
          "name": "payout",
          "type": "uint256"
        },
        {
          "internalType": "bool",
          "name": "matured",
          "type": "bool"
        }
      ],
      "stateMutability": "view",
      "type": "function"
    },
    {
      "inputs": [
        {
          "internalType": "address",
          "name": "account",
          "type": "address"
        },
        {
          "internalType": "bool",
          "name": "matured",
          "type": "bool"
        }
      ],
      "name": "getBonds",
      "outputs": [
        {
          "internalType": "uint256[]",
          "name": "bondIds",
          "type": "uint256[]"
        },
        {
          "internalType": "uint256",
          "name": "payout",
          "type": "uint256"
        }
      ],
      "stateMutability": "view",
      "type": "function"
    },
    {
      "inputs": [
        {
          "internalType": "address",
          "name": "token",
          "type": "address"
        }
      ],
      "name": "getCurrentPriceLP",
      "outputs": [
        {
          "internalType": "uint256",
          "name": "priceLP",
          "type": "uint256"
        }
      ],
      "stateMutability": "view",
      "type": "function"
    },
    {
      "inputs": [
        {
          "internalType": "bool",
          "name": "active",
          "type": "bool"
        }
      ],
      "name": "getProducts",
      "outputs": [
        {
          "internalType": "uint256[]",
          "name": "productIds",
          "type": "uint256[]"
        }
      ],
      "stateMutability": "view",
      "type": "function"
    },
    {
      "inputs": [
        {
          "internalType": "uint256",
          "name": "productId",
          "type": "uint256"
        }
      ],
      "name": "isActiveProduct",
      "outputs": [
        {
          "internalType": "bool",
          "name": "status",
          "type": "bool"
        }
      ],
      "stateMutability": "view",
      "type": "function"
    },
    {
      "inputs": [
        {
          "internalType": "uint256",
          "name": "",
          "type": "uint256"
        }
      ],
      "name": "mapBondProducts",
      "outputs": [
        {
          "internalType": "uint160",
          "name": "priceLP",
          "type": "uint160"
        },
        {
          "internalType": "uint32",
          "name": "expiry",
          "type": "uint32"
        },
        {
          "internalType": "address",
          "name": "token",
          "type": "address"
        },
        {
          "internalType": "uint96",
          "name": "supply",
          "type": "uint96"
        }
      ],
      "stateMutability": "view",
      "type": "function"
    },
    {
      "inputs": [
        {
          "internalType": "uint256",
          "name": "",
          "type": "uint256"
        }
      ],
      "name": "mapUserBonds",
      "outputs": [
        {
          "internalType": "address",
          "name": "account",
          "type": "address"
        },
        {
          "internalType": "uint96",
          "name": "payout",
          "type": "uint96"
        },
        {
          "internalType": "uint32",
          "name": "maturity",
          "type": "uint32"
        },
        {
          "internalType": "uint32",
          "name": "productId",
          "type": "uint32"
        }
      ],
      "stateMutability": "view",
      "type": "function"
    },
    {
      "inputs": [],
      "name": "olas",
      "outputs": [
        {
          "internalType": "address",
          "name": "",
          "type": "address"
        }
      ],
      "stateMutability": "view",
      "type": "function"
    },
    {
      "inputs": [],
      "name": "owner",
      "outputs": [
        {
          "internalType": "address",
          "name": "",
          "type": "address"
        }
      ],
      "stateMutability": "view",
      "type": "function"
    },
    {
      "inputs": [],
      "name": "productCounter",
      "outputs": [
        {
          "internalType": "uint32",
          "name": "",
          "type": "uint32"
        }
      ],
      "stateMutability": "view",
      "type": "function"
    },
    {
      "inputs": [
        {
          "internalType": "uint256[]",
          "name": "bondIds",
          "type": "uint256[]"
        }
      ],
      "name": "redeem",
      "outputs": [
        {
          "internalType": "uint256",
          "name": "payout",
          "type": "uint256"
        }
      ],
      "stateMutability": "nonpayable",
      "type": "function"
    },
    {
      "inputs": [],
      "name": "tokenomics",
      "outputs": [
        {
          "internalType": "address",
          "name": "",
          "type": "address"
        }
      ],
      "stateMutability": "view",
      "type": "function"
    },
    {
      "inputs": [],
      "name": "treasury",
      "outputs": [
        {
          "internalType": "address",
          "name": "",
          "type": "address"
        }
      ],
      "stateMutability": "view",
      "type": "function"
    }
  ],
  "bytecode": "0x60806040523480156200001157600080fd5b50604051620023a7380380620023a783398101604081905262000034916200011a565b600080546001600160a01b031916331790556001600160a01b03841615806200006457506001600160a01b038316155b806200007757506001600160a01b038216155b806200008a57506001600160a01b038116155b15620000a95760405163d92e233d60e01b815260040160405180910390fd5b600180546001600160a01b039586166001600160a01b031991821617909155600280549486169482169490941790935560038054928516928416929092179091556004805491909316911617905562000177565b80516001600160a01b03811681146200011557600080fd5b919050565b600080600080608085870312156200013157600080fd5b6200013c85620000fd565b93506200014c60208601620000fd565b92506200015c60408601620000fd565b91506200016c60608601620000fd565b905092959194509250565b61222080620001876000396000f3fe608060405234801561001057600080fd5b50600436106101815760003560e01c80638c71ec16116100d8578063e2bbb1581161008c578063f731960c11610066578063f731960c14610417578063f9afb26a1461043a578063fc63e42d1461044d57600080fd5b8063e2bbb15814610327578063e42f991914610355578063e91b0a41146103ef57600080fd5b8063a6f9dae1116100bd578063a6f9dae1146102e1578063c5332b7c146102f4578063ce2d683f1461030757600080fd5b80638c71ec16146102bb5780638da5cb5b146102ce57600080fd5b80634ac7251d1161013a5780635b400e4f116101145780635b400e4f1461027d57806361d027b31461029e57806363e63e3b146102b157600080fd5b80634ac7251d146102405780635831d8851461025357806358d3ec6a1461026a57600080fd5b8063158555371161016b57806315855537146101cb5780631f16653b146101de57806324415cf61461021f57600080fd5b806231d115146101865780630c062810146101b6575b600080fd5b600154610199906001600160a01b031681565b6040516001600160a01b0390911681526020015b60405180910390f35b6101c96101c4366004611e52565b6104ea565b005b6101c96101d9366004611e85565b610611565b60005461020a907801000000000000000000000000000000000000000000000000900463ffffffff1681565b60405163ffffffff90911681526020016101ad565b61023261022d366004611e85565b6106c3565b6040519081526020016101ad565b600254610199906001600160a01b031681565b60005461020a90600160a01b900463ffffffff1681565b6101c9610278366004611ed6565b610756565b61029061028b366004611fc0565b610949565b6040516101ad929190612032565b600354610199906001600160a01b031681565b6102326201518081565b6102326102c9366004612054565b610b65565b600054610199906001600160a01b031681565b6101c96102ef366004611e85565b6110f7565b600454610199906001600160a01b031681565b61031a61031536600461208d565b6111d7565b6040516101ad91906120aa565b61033a6103353660046120bd565b611446565b604080519384526020840192909252908201526060016101ad565b6103ab6103633660046120df565b600660205260009081526040902080546001909101546001600160a01b0380831692600160a01b9081900463ffffffff169291821691046bffffffffffffffffffffffff1684565b604080516001600160a01b03958616815263ffffffff94909416602085015291909316908201526bffffffffffffffffffffffff90911660608201526080016101ad565b6104026103fd3660046120df565b6118bb565b604080519283529015156020830152016101ad565b61042a6104253660046120df565b611908565b60405190151581526020016101ad565b610232610448366004611ed6565b61195b565b6104a761045b3660046120df565b600560205260009081526040902080546001909101546001600160a01b03821691600160a01b90046bffffffffffffffffffffffff169063ffffffff8082169164010000000090041684565b604080516001600160a01b0390951685526bffffffffffffffffffffffff909316602085015263ffffffff918216928401929092521660608201526080016101ad565b6000546001600160a01b0316331461052f5760005460405163521eb56d60e11b81523360048201526001600160a01b0390911660248201526044015b60405180910390fd5b6001600160a01b0382161561059e57600280547fffffffffffffffffffffffff0000000000000000000000000000000000000000166001600160a01b0384169081179091556040517f4672fe7e13cfb163442d0b729b5733fb3efafc66cbe3677eac9940eb41c284c290600090a25b6001600160a01b0381161561060d57600380547fffffffffffffffffffffffff0000000000000000000000000000000000000000166001600160a01b0383169081179091556040517f7dae230f18360d76a040c81f050aa14eb9d6dc7901b20fc5d855e2a20fe814d190600090a25b5050565b6000546001600160a01b031633146106515760005460405163521eb56d60e11b81523360048201526001600160a01b039091166024820152604401610526565b6001600160a01b038116156106c057600480547fffffffffffffffffffffffff0000000000000000000000000000000000000000166001600160a01b0383169081179091556040517f179276fedd32be7c465135f8e074aefcd470c855d2550f83a36a45bfbaa61ea590600090a25b50565b600480546040517f24415cf60000000000000000000000000000000000000000000000000000000081526001600160a01b0384811693820193909352600092909116906324415cf690602401602060405180830381865afa15801561072c573d6000803e3d6000fd5b505050506040513d601f19601f8201168201806040525081019061075091906120f8565b92915050565b6000546001600160a01b031633146107965760005460405163521eb56d60e11b81523360048201526001600160a01b039091166024820152604401610526565b60005b815181101561060d5760008282815181106107b6576107b6612111565b602090810291909101810151600081815260069092526040822054909250600160a01b900463ffffffff16900361081c576040517f4decba8400000000000000000000000000000000000000000000000000000000815260048101829052602401610526565b600081815260066020526040902060010154600160a01b90046bffffffffffffffffffffffff1680156108c1576002546040517f7048960c000000000000000000000000000000000000000000000000000000008152600481018390526001600160a01b0390911690637048960c90602401600060405180830381600087803b1580156108a857600080fd5b505af11580156108bc573d6000803e3d6000fd5b505050505b60008281526006602052604080822060018101805482547fffffffffffffffff0000000000000000000000000000000000000000000000001690925583905590516001600160a01b0390911691849183917fa84c61a0551e87e8fc2d5df11a0541b091e22f8a4a97c79210bcc845153c843b91a3505050806109429061216f565b9050610799565b606060006001600160a01b03841661098d576040517fd92e233d00000000000000000000000000000000000000000000000000000000815260040160405180910390fd5b60008054600160a01b900463ffffffff16818167ffffffffffffffff8111156109b8576109b8611ea7565b6040519080825280602002602001820160405280156109e1578160200160208202803683370190505b50905060005b82811015610aac576000818152600560205260409020546001600160a01b03808a16911603610a9a57861580610a34575060008181526005602052604090206001015463ffffffff164210155b15610a9a576001828281518110610a4d57610a4d612111565b91151560209283029190910190910152610a668461216f565b600082815260056020526040902054909450610a9790600160a01b90046bffffffffffffffffffffffff16866121a7565b94505b80610aa48161216f565b9150506109e7565b508267ffffffffffffffff811115610ac657610ac6611ea7565b604051908082528060200260200182016040528015610aef578160200160208202803683370190505b5094506000805b83811015610b5957828181518110610b1057610b10612111565b602002602001015115610b475780878381518110610b3057610b30612111565b6020908102919091010152610b448261216f565b91505b80610b518161216f565b915050610af6565b50505050509250929050565b600080546001600160a01b03163314610ba65760005460405163521eb56d60e11b81523360048201526001600160a01b039091166024820152604401610526565b83600003610be0576040517f7c946ed700000000000000000000000000000000000000000000000000000000815260040160405180910390fd5b6001600160a01b03841115610c31576040517f7ae59685000000000000000000000000000000000000000000000000000000008152600481018590526001600160a01b036024820152604401610526565b82600003610c6b576040517f7c946ed700000000000000000000000000000000000000000000000000000000815260040160405180910390fd5b6bffffffffffffffffffffffff831115610cc6576040517f7ae59685000000000000000000000000000000000000000000000000000000008152600481018490526bffffffffffffffffffffffff6024820152604401610526565b62015180821015610d0f576040517f491a2bb100000000000000000000000000000000000000000000000000000000815260048101839052620151806024820152604401610526565b6000610d1b83426121a7565b905063ffffffff811115610d68576040517f7ae596850000000000000000000000000000000000000000000000000000000081526004810182905263ffffffff6024820152604401610526565b6003546040517f9015d3710000000000000000000000000000000000000000000000000000000081526001600160a01b03888116600483015290911690639015d37190602401602060405180830381865afa158015610dcb573d6000803e3d6000fd5b505050506040513d601f19601f82011682018060405250810190610def91906121ba565b610e30576040517fe3d87c620000000000000000000000000000000000000000000000000000000081526001600160a01b0387166004820152602401610526565b6002546040517f426e77df000000000000000000000000000000000000000000000000000000008152600481018690526001600160a01b039091169063426e77df906024016020604051808303816000875af1158015610e94573d6000803e3d6000fd5b505050506040513d601f19601f82011682018060405250810190610eb891906121ba565b610f7057600260009054906101000a90046001600160a01b03166001600160a01b0316638fc2b24d6040518163ffffffff1660e01b8152600401602060405180830381865afa158015610f0f573d6000803e3d6000fd5b505050506040513d601f19601f82011682018060405250810190610f3391906120f8565b6040517f491a2bb1000000000000000000000000000000000000000000000000000000008152600481019190915260248101859052604401610526565b60008054604080516080810182526001600160a01b03808a16825263ffffffff86811660208085019182528d84168587019081526bffffffffffffffffffffffff808e166060880190815278010000000000000000000000000000000000000000000000009099048516808b52600690935296909820945185549251909316600160a01b9081027fffffffffffffffff0000000000000000000000000000000000000000000000009093169385169390931791909117845595519451909316909202929091169190911760019182015590925061104e9083906121a7565b6000805463ffffffff929092167801000000000000000000000000000000000000000000000000027fffffffff00000000ffffffffffffffffffffffffffffffffffffffffffffffff909216919091179055604080518581526020810187905290810182905282906001600160a01b038816907f5fd24ab6321cb12fa0b131d7749ca303e20d69422e8191bc5d2ae4959bae08db9060600160405180910390a350949350505050565b6000546001600160a01b031633146111375760005460405163521eb56d60e11b81523360048201526001600160a01b039091166024820152604401610526565b6001600160a01b038116611177576040517fd92e233d00000000000000000000000000000000000000000000000000000000815260040160405180910390fd5b600080547fffffffffffffffffffffffff0000000000000000000000000000000000000000166001600160a01b038316908117825560405190917f4ffd725fc4a22075e9ec71c59edf9c38cdeb588a91b24fc5b61388c5be41282b91a250565b60008054606091780100000000000000000000000000000000000000000000000090910463ffffffff16908167ffffffffffffffff81111561121b5761121b611ea7565b604051908082528060200260200182016040528015611244578160200160208202803683370190505b509050600084156112f75760005b838110156112f157600081815260066020526040902060010154600160a01b90046bffffffffffffffffffffffff16158015906112aa575060008181526006602052604090205442600160a01b90910463ffffffff16115b156112df5760018382815181106112c3576112c3612111565b911515602092830291909101909101526112dc8261216f565b91505b806112e98161216f565b915050611252565b50611390565b60005b8381101561138e576000818152600660205260409020600101546001600160a01b031615801590611347575060008181526006602052604090205442600160a01b90910463ffffffff1611155b1561137c57600183828151811061136057611360612111565b911515602092830291909101909101526113798261216f565b91505b806113868161216f565b9150506112fa565b505b8067ffffffffffffffff8111156113a9576113a9611ea7565b6040519080825280602002602001820160405280156113d2578160200160208202803683370190505b5093506000805b8481101561143c578381815181106113f3576113f3612111565b60200260200101511561142a578086838151811061141357611413612111565b60209081029190910101526114278261216f565b91505b806114348161216f565b9150506113d9565b5050505050919050565b600080600083600003611485576040517f7c946ed700000000000000000000000000000000000000000000000000000000815260040160405180910390fd5b600085815260066020526040902060018101548154600160a01b900463ffffffff1693506001600160a01b0316428410156115195781546040517f981ef42f0000000000000000000000000000000000000000000000000000000081526001600160a01b038316600482015260248101899052600160a01b90910463ffffffff166044820152426064820152608401610526565b6004805483546040517f7e5b09980000000000000000000000000000000000000000000000000000000081529283018990526001600160a01b0390811660248401521690637e5b099890604401602060405180830381865afa158015611583573d6000803e3d6000fd5b505050506040513d601f19601f820116820180604052508101906115a791906120f8565b6001830154909550600160a01b90046bffffffffffffffffffffffff168086111561161e576040517f545a90850000000000000000000000000000000000000000000000000000000081526001600160a01b0383166004820152602481018990526044810187905260648101829052608401610526565b61162886826121d7565b9050808360010160146101000a8154816bffffffffffffffffffffffff02191690836bffffffffffffffffffffffff160217905550600060149054906101000a900463ffffffff1663ffffffff1693506040518060800160405280336001600160a01b03168152602001876bffffffffffffffffffffffff1681526020018663ffffffff1681526020018963ffffffff168152506005600086815260200190815260200160002060008201518160000160006101000a8154816001600160a01b0302191690836001600160a01b0316021790555060208201518160000160146101000a8154816bffffffffffffffffffffffff02191690836bffffffffffffffffffffffff16021790555060408201518160010160006101000a81548163ffffffff021916908363ffffffff16021790555060608201518160010160046101000a81548163ffffffff021916908363ffffffff16021790555090505083600161179191906121a7565b6000805463ffffffff92909216600160a01b027fffffffffffffffff00000000ffffffffffffffffffffffffffffffffffffffff9092169190911790556003546040517f1ac17db9000000000000000000000000000000000000000000000000000000008152336004820152602481018990526001600160a01b0384811660448301526064820189905290911690631ac17db990608401600060405180830381600087803b15801561184257600080fd5b505af1158015611856573d6000803e3d6000fd5b505060408051878152602081018a90529081018a9052606081018890523392508a91506001600160a01b038516907ffa892a5592accfded99f9df9ad2d678230f37aeeb8fde5dd3b73769b5069bc0e9060800160405180910390a45050509250925092565b600081815260056020526040812054600160a01b90046bffffffffffffffffffffffff16908115611903575060008281526005602052604090206001015463ffffffff164210155b915091565b600081815260066020526040812060010154600160a01b90046bffffffffffffffffffffffff161580159061075057505060009081526006602052604090205442600160a01b90910463ffffffff161190565b6000805b8251811015611d675760006005600085848151811061198057611980612111565b6020026020010151815260200190815260200160002060000160149054906101000a90046bffffffffffffffffffffffff166bffffffffffffffffffffffff1690506000600560008685815181106119da576119da612111565b60209081029190910181015182528101919091526040016000206001015463ffffffff164210159050811580611a0e575080155b15611a6257848381518110611a2557611a25612111565b60200260200101516040517f26c4eabd00000000000000000000000000000000000000000000000000000000815260040161052691815260200190565b336001600160a01b031660056000878681518110611a8257611a82612111565b6020908102919091018101518252810191909152604001600020546001600160a01b031614611b0a573360056000878681518110611ac257611ac2612111565b6020908102919091018101518252810191909152604090810160002054905163521eb56d60e11b81526001600160a01b03928316600482015291166024820152604401610526565b600060056000878681518110611b2257611b22612111565b602090810291909101810151825281810192909252604090810160009081206001015463ffffffff6401000000009091048116808352600690945291902054919250600160a01b9091041615611c8e57600081815260066020526040902060010154600160a01b90046bffffffffffffffffffffffff168015611c17576002546040517f7048960c000000000000000000000000000000000000000000000000000000008152600481018390526001600160a01b0390911690637048960c90602401600060405180830381600087803b158015611bfe57600080fd5b505af1158015611c12573d6000803e3d6000fd5b505050505b60008281526006602052604080822060018101805482547fffffffffffffffff0000000000000000000000000000000000000000000000001690925583905590516001600160a01b0390911691849183917fa84c61a0551e87e8fc2d5df11a0541b091e22f8a4a97c79210bcc845153c843b91a350505b611c9883866121a7565b945060056000878681518110611cb057611cb0612111565b6020908102919091018101518252810191909152604001600090812090815560010180547fffffffffffffffffffffffffffffffffffffffffffffffff00000000000000001690558551339082907f97f4572ff501a5533a09cf8d7d39be87e303470dd8bc7cff4fe91212be76bc7390899088908110611d3257611d32612111565b6020026020010151604051611d4991815260200190565b60405180910390a35050508080611d5f9061216f565b91505061195f565b5080600003611da2576040517f7c946ed700000000000000000000000000000000000000000000000000000000815260040160405180910390fd5b6001546040517fa9059cbb000000000000000000000000000000000000000000000000000000008152336004820152602481018390526001600160a01b039091169063a9059cbb906044016020604051808303816000875af1158015611e0c573d6000803e3d6000fd5b505050506040513d601f19601f82011682018060405250810190611e3091906121ba565b50919050565b80356001600160a01b0381168114611e4d57600080fd5b919050565b60008060408385031215611e6557600080fd5b611e6e83611e36565b9150611e7c60208401611e36565b90509250929050565b600060208284031215611e9757600080fd5b611ea082611e36565b9392505050565b7f4e487b7100000000000000000000000000000000000000000000000000000000600052604160045260246000fd5b60006020808385031215611ee957600080fd5b823567ffffffffffffffff80821115611f0157600080fd5b818501915085601f830112611f1557600080fd5b813581811115611f2757611f27611ea7565b8060051b6040517fffffffffffffffffffffffffffffffffffffffffffffffffffffffffffffffe0603f83011681018181108582111715611f6a57611f6a611ea7565b604052918252848201925083810185019188831115611f8857600080fd5b938501935b82851015611fa657843584529385019392850192611f8d565b98975050505050505050565b80151581146106c057600080fd5b60008060408385031215611fd357600080fd5b611fdc83611e36565b91506020830135611fec81611fb2565b809150509250929050565b600081518084526020808501945080840160005b838110156120275781518752958201959082019060010161200b565b509495945050505050565b6040815260006120456040830185611ff7565b90508260208301529392505050565b6000806000806080858703121561206a57600080fd5b61207385611e36565b966020860135965060408601359560600135945092505050565b60006020828403121561209f57600080fd5b8135611ea081611fb2565b602081526000611ea06020830184611ff7565b600080604083850312156120d057600080fd5b50508035926020909101359150565b6000602082840312156120f157600080fd5b5035919050565b60006020828403121561210a57600080fd5b5051919050565b7f4e487b7100000000000000000000000000000000000000000000000000000000600052603260045260246000fd5b7f4e487b7100000000000000000000000000000000000000000000000000000000600052601160045260246000fd5b60007fffffffffffffffffffffffffffffffffffffffffffffffffffffffffffffffff82036121a0576121a0612140565b5060010190565b8082018082111561075057610750612140565b6000602082840312156121cc57600080fd5b8151611ea081611fb2565b818103818111156107505761075061214056fea26469706673582212200836a8ba69959887637aceaf114df09130bff1efd2dd733cacb732dd0ebef53f64736f6c63430008120033",
  "linkReferences": {},
  "deployedLinkReferences": {}
}